:100000000C947E030C94C5030C94C5030C94C50397
:100010000C94C5030C94C5030C94C5030C94C50340
:100020000C94C5030C94C5030C9497270C94532788
:100030000C9492280C94C5030C94C5030C94C5032E
:100040000C94C5030C94C5030C94C5030C94C50310
:100050000C94C5030C946E280C94C5030C94C50332
:100060000C94C5030C94C5030C94C5030C94C503F0
:100070000C94C5030C94C5030C94C5030C94C503E0
:100080000C94C5030C94C5030C94C5030C94C503D0
:100090000C94C5030C94C5030C94C5030C94C503C0
:1000A0000C94C5030C94C5030C94C5030501090207
:1000B000A10185020901A100050919012905150001
:1000C00025019505750181029501750381010501E1
:1000D000093009311581257F950275088106093897
:1000E0001581257F950175088106050C0A380215D2
:1000F00081257F950175088106C0C005010980A191
:1001000001850319012AB700150126B7009501756D
:10011000108100C0050C0901A101850419012AA064
:1001200002150126A002950175108100C005010984
:1001300006A1018505050719E029E71500250195A8
:1001400008750181020507190029EF1500250195A1
:10015000F0750181020508190129059505750191C0
:1001600002950175039101C00660FF0961A10109B3
:1001700062150026FF0095207508810209631500AD
:1001800026FF00952075089102C005010906A1010E
:10019000050719E029E71500250195087501810279
:1001A0009501750881010507190029FF150026FF33
:1001B0000095067508810005081901290595057542
:1001C000019102950175039101C00000000000003B
:1001D000000000000000000000000000000000001F
:1001E00000000000000000000000000000007E0F82
:1001F00000D4FFFFFFC700000078000000000000EF
:1002000000002A2B28000000000000000000000071
:10021000000000000029000000002C1E34202122D4
:1002200024342627252E362D3738271E1F2021223D
:10023000232425263333362E37381F0405060708B6
:10024000090A0B0C0D0E0F101112131415161718A6
:10025000191A1B1C1D2F3130232D350405060708E4
:10026000090A0B0C0D0E0F10111213141516171886
:10027000191A1B1C1D2F3130354CFD377A585A0086
:100280000004E6D6B4460200210116000000742FD7
:10029000E5A3E0047001795D003D8889C65436C34A
:1002A000174FE4D2B290A1AAAFF9F14588FC536090
:1002B0006BCBB1961DCAED2CF371FF359D49437888
:1002C00007F5A23EAEA0FFB82BC120638B0B6BBF1E
:1002D000ABD76128C0D3C394998F50399533F56B50
:1002E000B73734E4B25599BBE135EB7C39717C6D9D
:1002F0002F34A49BDBC6C97A3C893670E639B385B6
:1003000043B9B7659AFC7334155DC29DF0BC6C218E
:10031000036603D1DB54D3DF57495B6EBFC7B40715
:1003200075DB948960544C84AF698A17E1ABD03D8A
:1003300083DCDB3B6BF519DE303B6BB631A7918478
:10034000990A55DDE53556402F092856EE7FF751BD
:100350004AE6357BE9BDEF05DD4DFBABEBA3281687
:10036000D63B59DBDFEAACD14B69D9BD9F94ED9FF9
:1003700088E7CE82BA8812DAB97D688FF1616CC0E5
:1003800095A7AEA6CABB0B54C718F2700902803BF2
:10039000A8F09B5ACA4B1F22B57EC6FA5FC61EA99B
:1003A00040D6CD634168DB2E8D4A17DC3E65B267CF
:1003B000AA59579890912C64F54BC3F066CAB49B28
:1003C000C881E4902A8D6615145A5DD5C9D50436C6
:1003D00088DD217EE68A01AB17BF3172A48736E340
:1003E000253F9B480AD9CCF027947D63FD0954B57D
:1003F00043CC161B33AD4FACE4A8441A04CE935F34
:10040000EDBB126A1C599DC49CCF7295A5C1BCDA84
:10041000CF0000000000CF9A5111518C8DB6000121
:100420009503F1080000870997F9B1C467FB020042
:1004300000000004595A29001A0015001C000C0085
:100440001300140008001700180012004C002B00C5
:10045000160009000B000E003300040007000A001C
:100460000D000F002A00E1001B00190011003600EA
:1004700001511D0006000500100037002800E000B3
:10048000E2002C00380051005200E3002C002C4206
:1004900050004F00015135001F00210023002500AE
:1004A00027001E002000220024002600005C3900E6
:1004B000160009000B002D003400040007000A009C
:1004C0000D002E004C0001006900010001002F000A
:1004D0003800680001000100010030003100010017
:1004E00001002C0038005100010001002C002C00FC
:1004F00050004F00010035003B003D003F0041002F
:1005000043003A003C003E0040004200440001002D
:1005100001000100010001000100C35C01000100B5
:10052000010001004500010001000100010001007F
:100530000100010001000100010001000100145C44
:1005400001000100010001000100010001000100A3
:100550000100010001000100010001000100010093
:100560000100010001000100010001000100010083
:100570000100010001000100010001000100010073
:100580000100010001000100010001000100010063
:100590000100010001000100010001000100010053
:1005A0000100010001000100010001000100010043
:1005B0000100010001000100010017040000020019
:1005C00002001304000003000100180400000400EE
:1005D0000200FD0386060500010019040000060064
:1005E0000200FF03000007000200150400000800DD
:1005F00001001A04000009000200010461060A005B
:100600000200030461060B000200050461060C00F1
:100610000200070461060D000200090461060E00D5
:1006200002000B0461060F0002000D0461061000B9
:1006300002000F046106110002001104610612009D
:1006400002001B040000130002001D040000090248
:100650005B00030100A0FA0904000001030101008E
:100660000921110100012240000705810308000A49
:100670000904010002030000000921110100012208
:100680002200070582032000010705030320000163
:1006900009040200010300000009211101000122E8
:1006A000BC000705840320000A12010002000000BC
:1006B00008276246010100010203011C037600695C
:1006C0000061006C003A00660036003400630032BE
:1006D0000062003300630000000A03340036006843
:1006E00000720000001003670072006C0064007468
:1006F000006D006B000000040309040011241FBEFC
:10070000CFEFDAE0DEBFCDBF04B603FE27C0809195
:10071000640490916504A0916604B09167048730E9
:10072000904BA740B04BD1F4109264041092650432
:10073000109266041092670414BE84B7877F84BF4A
:100740000FB6F894A895809160008861809360004E
:10075000109260000FBEE0E0F8E3099511E0A0E020
:10076000B1E0EEE2F0E602C005900D92A038B107CC
:10077000D9F724E0A0E8B1E001C01D92A436B20789
:10078000E1F70E94B9280C94E32F0C940000E8EDE7
:10079000F0E080818E7F80831092E2001092DA0078
:1007A0001092E100A0EEB0E08C9181608C9380818A
:1007B0008F77808319BCA7EDB0E08C918E7F8C93EE
:1007C00080818F7E80831092330408952091E4000D
:1007D0003091E50095E6A9012091EC00822F81700F
:1007E00020FF06C08091E80080FF06C080E00895E9
:1007F0002091E80022FD1AC080915804882389F0D6
:10080000853089F08091EB0085FD0FC02091E400D8
:100810003091E50042175307F9F29150E1F684E078
:10082000089582E0089583E0089581E00895EF92AD
:10083000FF920F931F93CF937C018B010E94E603DD
:10084000C82F811117C08091E80085FD0BC08091F1
:10085000E8008E778093E8000E94E603882399F3EE
:10086000C82F08C0F70181917F018093F1000150EA
:10087000110949F78C2FCF911F910F91FF90EF90A5
:10088000089580915A0487FF13C08091E80082FF89
:1008900006C08091E8008B778093E80004C08091C7
:1008A00058048111F2CF0895809158048823D9F318
:1008B0008091E80080FFF8CF8091E8008E77ECCF40
:1008C000982F9093E900242F762F50E0891731F06C
:1008D0007091EC002091ED005091F00021FD07C0D7
:1008E0009F5F973071F78093E90081E00895309120
:1008F000EB003E7F3093EB003091ED003D7F309375
:10090000ED003091EB0031603093EB007093EC0020
:100910002093ED005093F0002091EE0027FDE0CFF2
:1009200080E00895CF92DF92EF92FF920F931F9392
:10093000CF93DF93C8EDD0E088818F7E8883E7ED89
:10094000F0E080818160808384E082BF81E08093D9
:10095000330488818E7F888302EE10E0F8011082D4
:100960001092DA0081EEC82ED12CF6011082888117
:100970008F77888388818068888388818F7D88834A
:1009800019BC1092580410925904109257041092F6
:10099000560490EEE92EF12CF70180818B7F808345
:1009A00088818160888342E060E080E00E9460048A
:1009B000F60180818E7F8083F80180818160808351
:1009C000808188608083F70180818E7F8083888129
:1009D00080618883DF91CF911F910F91FF90EF90FD
:1009E000DF90CF900895FC018091600490916104A4
:1009F00086179707A0F06115710529F49091E8001A
:100A00009E779093E80090E06115710551F4911183
:100A100008C08091E80082FF34C080E00895BC01E6
:100A2000F2CF809158048823C1F18530C1F18091C3
:100A3000E80083FD30C08091E80082FDEACF80911C
:100A4000E80080FFE1CF8091F3002091F200382F81
:100A50006115710519F02830310558F091E0283002
:100A6000310509F090E02091E8002E772093E8000E
:100A7000CBCF81918093F100615071092F5F3F4F7F
:100A8000E7CF80915804882341F0853041F0809170
:100A9000E80083FFBECF81E0089582E0089583E0FF
:100AA000089580913504089587E797E790930108AA
:100AB0008093000888E19AE00FB6F894A895809397
:100AC00060000FBE90936000FFCF9C014FB7F89479
:100AD00080912A0490912B04A0912C04B0912D04B4
:100AE0004FBF821B930B08952FB7F89480912A046F
:100AF00090912B04A0912C04B0912D042FBF089548
:100B0000209119012223C9F020912E0427FF15C03E
:100B1000E62FE695E695E695EE31D8F4E80FF92F45
:100B2000F11D677021E030E001C0220F6A95EAF7FD
:100B300020958281282322830895FC01329608960D
:100B40002191621303C0DF0111971C92E817F90786
:100B5000B9F70895209119012223C1F020912E04A4
:100B600027FF14C0E62FE695E695E695EE31F8F4FA
:100B7000E80FF92FF11D677021E030E001C0220F6E
:100B80006A95EAF78281822B82830895FC0132966E
:100B90002FEF30E04191641751F02F3F19F44111CC
:100BA00001C0232F3F5F3630A9F72F3F09F4089586
:100BB000820F911D27FD9A95FC0162830895209173
:100BC0002704309128042817390771F090932804DE
:100BD00080932704E0912504F0912604309721F0BA
:100BE0000084F185E02D099408952091230430912B
:100BF00024042817390771F0909324048093230468
:100C0000E0912504F0912604309721F00680F781C9
:100C1000E02D09940895E0912504F0912604309781
:100C200021F00190F081E02D099480E00895452B9A
:100C300039F0682381E06F3F09F080E0817008950A
:100C400081E0FCCFDC016091450380914603962F43
:100C5000891301C00895292F30E0F901EE0FFF1F1D
:100C6000E35CFC4F408151814A175B07A1F487E0A8
:100C70008A9FA0018B9F500D11244B5F5C4F81E038
:100C8000FA0184839613E6CF2F5F3F4F23703327FB
:100C90002093450308952F5F3F4F922F9370D8CF35
:100CA0001092A2021092A102E5E0F3E08581811189
:100CB00002C014821682379683E0ED33F807B1F74D
:100CC0000895EDEFF3E0848195812AE030E0B901E9
:100CD0000E942E2F609314018681809313018285D8
:100CE0008093120184858093110186859785B901CF
:100CF0000E942E2F60931001808980930F018289BA
:100D000080930E01848980930D0108958091FD03E5
:100D10009091FE03909317018093160108950E940D
:100D200074059C019091340280913502982B21F03A
:100D30003093310220933002909136028091370235
:100D4000982B21F030932F0220932E02E09125045E
:100D5000F0912604309749F082E0809332020480BB
:100D6000F581E02D82E392E0099408959091340298
:100D7000803F59F48091350287FF0DC010923502F3
:100D800091110BC010922C0208C0813F81F4809118
:100D9000350218169CF3992381F0809136029091C8
:100DA0003702892B09F064C010922B020895823F0C
:100DB00049F497FFF0CF10923402809135028111EF
:100DC000ECCFE0CF833F19F41916ACF3E4CF2091B8
:100DD0003602893F29F41216F4F610923602DBCF60
:100DE0008A3F19F427FFD7CFF8CF209137028B3FE6
:100DF00029F427FFD0CF10923702CDCF8C3F19F4C2
:100E00001216CCF3C8CF843F31F4809133028E7F29
:100E100080933302C0CF853F21F4809133028D7FD0
:100E2000F7CF863F21F4809133028B7FF1CF873F4C
:100E300021F480913302877FEBCF883F21F48091AA
:100E400033028F7EE5CF8D3F31F480912D028E7F6E
:100E500080932D02A0CF8E3F21F480912D028D7FB3
:100E6000F7CF8F3F09F097CF80912D028B7FF0CF86
:100E7000089580912D0280FF0CC060910E0170E0FA
:100E800075956795759567956115710549F1862F7B
:100E9000089581FF06C060910E0170E07595679519
:100EA000F3CF60910E0182FD0BC090912B0299232C
:100EB000A1F060910D0180910E01961738F0682F16
:100EC00070E06038710500F38FE70895899FC001D5
:100ED000112470E00E94422FF4CF61E070E0D7CF80
:100EE00081E0089580912D026091050470910604BF
:100EF00080FF16C020911201269FC001279F900DF0
:100F00001124BC01769567957695679560387105D3
:100F100008F043C06115710509F441C0862F08959A
:100F200081FF0BC020911201269FC001279F900DC9
:100F30001124BC0176956795E9CF82FF09C08091A5
:100F400012019B01829FB001839F700D1124DECF9F
:100F500020912C022223D1F2909111018091120153
:100F6000482F50E0291748F0CB01849FB001859F9E
:100F7000700D949F700D1124C9CF289F90011124EA
:100F8000269FA001279F500D369F500D1124692FD9
:100F900070E0CA010E942E2FB9CF8FE7089581E03B
:100FA0000895803F31F40E94720781958093350245
:100FB0000895813F19F40E947207F8CF823F31F4FF
:100FC0000E9472078195809334020895833F19F43B
:100FD0000E947207F8CF893F29F40E943907809355
:100FE000360208958A3F21F40E9439078195F7CF90
:100FF0008B3F31F40E943907819580933702089521
:101000008C3F19F40E943907F8CF843F31F4809166
:1010100033028160809333020895853F21F48091EB
:1010200033028260F7CF863F21F4809133028460DF
:10103000F1CF873F21F4809133028860EBCF883F66
:1010400021F4809133028061E5CF8D3F31F48091AE
:101050002D02816080932D0208958E3F21F48091AE
:101060002D028260F7CF8F3FB9F780912D02846007
:10107000F1CF80E00895F894E82FE295EF70F0E06A
:1010800031A1282F2F7081E090E001C0880F2A95B0
:10109000EAF7982F9095932391A392A1892B82A38D
:1010A0007894089590912E0492FF06C0282F2871FD
:1010B0002830F9F4877F846093FF06C0282F2871B9
:1010C0002831F1F4877E846120912F0420FF06C02F
:1010D000382F38713830D9F4877F816021FF06C0FE
:1010E000282F28712831D1F4877E816194FD877E75
:1010F0000895282F24712430F9F68B7F8860DCCF87
:10110000282F2471243101F78B7E8861DDCF382FA1
:101110003171313019F78E7F8860E0CF282F21712F
:10112000213121F78E7E8861E1CFCF93DF93EC01EF
:1011300082389105A9F1D8F58133910509F496C05B
:1011400048F58932910509F48AC08A9709F495C057
:10115000C11521E5D20708F0BCC0C11530E5D307A1
:1011600008F014C1C83ED10508F09CC0C03ED105AE
:1011700060F5C83AD10508F087C0C53AD10508F036
:10118000FDC0C130D10509F12097F9F0C430D10577
:10119000E0F440C08533910509F45AC0C997C1F6FF
:1011A00080912E04837089F0C0EED0E00EC0833EA3
:1011B000910599F170F4803E910501F1823E91050F
:1011C00039F680912E0482FD21C0CE01DF91CF91AE
:1011D0000895863E910561F1873E910571F1843E47
:1011E000910509F0B5CF80912F0481FFEECF80915A
:1011F0002E04C7EED0E084FD0DC0E7CF80912E0411
:1012000080FD12C190912F0490FFDFCFC3EED0E09C
:1012100084FFDBCFD0E0C0E0D8CF80912E0482FDE8
:1012200006C190912F0490FDBFCF84FFCECFF2CFA7
:1012300080912E0483FDDDCFC8CF80912E0483FDE5
:10124000F9C090912F0491FFF0CFC4EED0E0BDCF54
:1012500080912E0485FFB9CFC9E2D0E0B6CF80914E
:101260002E0485FFB2CFC5E3D0E0AFCF80912E042E
:1012700086FFABCFCAE2D0E0A8CF80912E0486FFD4
:10128000A4CFC1E3D0E0A1CFCF3BD10518F6C85A17
:10129000D0E0CC0FDD1FCB5DDE4F0990D881C02D93
:1012A000D46493CFC11540E2D40758F4C11581E04E
:1012B000D80708F08ACFC03FD10508F4ABCFD0657E
:1012C00084CFC11590E4D90708F4A4CFDF70D06AA9
:1012D0007CCFC11525E5D20700F5C11534E5D3074C
:1012E00008F08AC0C11543E5D40708F071C0C115E4
:1012F00082E5D80708F467C0CE018370992721E002
:1013000030E002C0220F331F8A95E2F7C695C695DA
:1013100080E2C89FE001112452C0C11599E5D907A8
:10132000A8F4C11528E5D20708F06BC0C11536E551
:10133000D30708F06FCF8C2F0E945208C82FD0E03F
:10134000DC2FCC27CC27DF71D0623FCFC1154AE517
:10135000D40708F45BC0CE0190568115904208F086
:1013600059CF8D2F8F710E94520890E0982F8827B7
:1013700088279F719C012C2BE901E6CFC55AD0E04C
:10138000CE5DDE4FC881D0E0D0641FCFCE01E4E057
:1013900096958795EA95E1F783702C2F26952695EB
:1013A000237040E2249F90011124382B8C2F8370EE
:1013B000C1E0D0E002C0CC0FDD1F8A95E2F7C22B5E
:1013C000D32BDC6802CFDC2FCC27C16FD06AFDCED7
:1013D000CE018370992721E030E002C0220F331F35
:1013E0008A95E2F7C695C69590E2C99FE00111245F
:1013F000C22BD32BDA68E9CEDC2FCC27C46FD06A9E
:10140000E4CEDC2FCC27C06FD06ADFCE8C2F8F705C
:101410000E94520834E0D695C7953A95E1F7CF700F
:101420009C2FEC01D069D1CEC9E3D0E0CECEC2EE84
:10143000D0E0CBCEC6EED0E0C8CE809108028823A3
:1014400031F01092080210920702109206020895DD
:1014500080959091FC0398239093FC0308958095C8
:1014600090914903982390934903089510920402A0
:10147000109203021092020208958091FF0390914E
:101480000004892B89F00E94740520910602309196
:101490000702AC01421B530B81E02091FF03309106
:1014A00000044217530708F480E08170089580918A
:1014B00049039091FC03892B90910502892B80931D
:1014C000820180910802882319F18091FF03909195
:1014D0000004892B29F00E943D0A81110E941D0AF7
:1014E0008091820190910802892B809382018091E2
:1014F0001901882341F180912E0487FF24C08EE1D9
:10150000E4E8F1E090E0815000F591110E941D0A9D
:10151000E0912504F09126043097E1F080911901C3
:10152000882359F080912E0487FF07C080918201A3
:101530008093830185E0809382010280F381E02D16
:1015400082E891E0099486E0DBCF21912223D9F251
:101550009F5FD9CF0895EF92FF920F931F93CF9380
:10156000DF93EC018A85811134C0EB80FC8087E534
:10157000F81A26E12E9DC0012F9D900D1124DC014B
:10158000A45BBC4F1496ED91FC911597309731F008
:1015900054966D917C918E5A9C4F099586E18E9D53
:1015A00080018F9D100D1124045B1C4FF801878171
:1015B0000E942F0AF80180850E94280A0E94570A7B
:1015C000188219861B861E821D8210924B03109270
:1015D0004A03DF91CF911F910F91FF90EF900895F3
:1015E000CF93DF93EC01898981111BC081E0898B46
:1015F000809149039F81892B809349038091FC034B
:101600009885892B8093FC030E94570AEA81FB810D
:10161000309739F06C897D89CE010696DF91CF91A4
:101620000994DF91CF910895809101028111109268
:1016300001020895209100029091BF01291302C078
:1016400080E0089530E0F90153E0EE0FFF1F5A9556
:10165000E1F7E054FE4F5181561306C050815813F4
:1016600003C05281541304C02F5F3F4F2770E6CF51
:1016700081E00895809100029091BF01981301C00C
:1016800008958F5F8770FACF9E3F51F1292F220F67
:10169000E22FE90FEE0FE80F9E2F9770E695E69583
:1016A000E69583E0E89FF0011124EB55FE4F50E0F2
:1016B00040E080E0219130E0092E02C03695279568
:1016C0000A94E2F721703327042E01C0220F0A94F6
:1016D000EAF7822B4F5F5F4F4330510559F708956A
:1016E00080E008959E3F71F1292F220FE22FE90F2C
:1016F000EE0FE80F8E2F877041E001C0440F8A95EE
:10170000EAF7E695E695E69583E0E89FF001112477
:10171000EB55FE4F30E020E070E05191DF01119772
:10172000CB01022E02C0969587950A94E2F781704C
:1017300081958527842385278C932F5F3F4F233006
:10174000310559F70895E92FE295EF70E250EE3038
:1017500070F4F0E0EB51F04D0C94562F803F19F0EF
:1017600020F4883E20F481E00895843FE1F380E096
:101770000895883EC0F3813FD1F7F5CF93FB8827CA
:1017800080F9089590E080E00E94F50590E080E007
:101790000E94DF051092FC03109205020E94570A76
:1017A00086E0E2E3F2E0DF011D928A95E9F710920C
:1017B0002C0210922B0210922D020C948F06809313
:1017C00063040C94C20B80916304982F967096303A
:1017D00019F488600C94DF0B877FFCCF21E030E0A8
:1017E00001C0220F8A95EAF7209580916304822335
:1017F0000C94DF0B9091040280958923809304025E
:10180000282F277039F4282F082E000C330B92173D
:10181000130621F490912F0492FF07C085958595BA
:1018200085950E94EE0B0C94360A089521E030E075
:1018300001C0220F8A95EAF780916304822B0C94F1
:10184000DF0B90912F0492FD10C098E0899F9001CA
:101850001124622B609304020E94160C0E947405EE
:10186000909303028093020208950C94160C8093C7
:1018700062040C94C20B882321F00E94280A0C9465
:10188000570A0895882339F09091FC03982B909380
:10189000FC030C94570A0895882321F00E942F0A14
:1018A0000C94570A0895882339F090914903982B96
:1018B000909349030C94570A0895882379F19CEF7B
:1018C000980F913A38F4682F82E891E00E948005E1
:1018D0000C94570A90E2980F983050F4877091E07A
:1018E00001C0990F8A95EAF7892F0E942F0AF0CF3D
:1018F0009BE5980F933020F490E080E00C94F50580
:1019000098E5980F973120F490E080E00C94DF0583
:10191000803F20F00E94B6060C948F060895CF9366
:10192000C82F882309F46FC08CEF8C0F813AC0F563
:1019300080911901882311F180912E0487FF1EC028
:10194000EC2FE695E695E695F0E0EE57FE4F8281A6
:1019500090E04C2F477021E030E002C0220F331F8F
:101960004A95E2F782239323892B91F06C2F82E82A
:1019700091E00E9480050E94570A0AC0E4E8F1E065
:101980008AE891E02191C21789F38E179F07D1F75A
:101990006C2F82E891E00E94AA05CF910C94570A1F
:1019A00080E28C0F883068F4C77021E030E001C01D
:1019B000220FCA95EAF780914903822B809349034D
:1019C000ECCFEBE5EC0FE33040F4F0E0EE5DFE4FE2
:1019D000808190E0CF910C94F505E8E5EC0FE731BC
:1019E00050F4F0E0EE0FFF1FEB5DFE4F8081918120
:1019F000CF910C94DF05C03F30F08C2F0E94D107AF
:101A0000CF910C948F06CF9108959C013A952115A2
:101A10003F4150F5FC01EE27F170BC016627727062
:101A2000AC01442754709C012227387094FF0EC0EB
:101A300080E1EF2B09F480E0672B09F08062452BF1
:101A400009F08064232B89F08068089581E0EF2BF2
:101A500009F480E0672B09F08260452B09F084606F
:101A6000232B19F08860089580E008959091580420
:101A7000943029F5809330047093320460933104DC
:101A80009093E9008FEF9091E800815095FD06C09A
:101A900095ED9A95F1F700008111F5CF8091E8005E
:101AA00085FF0DC050E040E063E070E080E394E02B
:101AB0000E9417048091E8008E778093E8000895D3
:101AC000BC0184E00C94360DBC0183E00C94360D0F
:101AD0009C0184E08093E9009FEF8091E8009150A1
:101AE00085FD06C085ED8A95F1F700009111F5CFCF
:101AF0008091E80085FF0CC050E040E066E070E0B7
:101B0000C9010E9417048091E8008E778093E80055
:101B10000895CF93DF93EC01809119018823B1F1EF
:101B200080912E0487FF32C060E284E08093E90058
:101B30008FEF9091E800815095FD06C095ED9A9544
:101B4000F1F700008111F5CF8091E80085FF1BC0FF
:101B50008091190170E050E040E0811104C050E034
:101B600040E068E070E0CE010E9417048091E80038
:101B70008E778093E80080E2FE01A6E3B4E0019056
:101B80000D928A95E1F7DF91CF91089568E081E0A9
:101B9000CDCF019708F40895EFE9FFE03197F1F711
:101BA00000C00000F6CFFF920F931F93CF93DF93F7
:101BB0008C01EB01F42E8091180182FF43C08B7FD2
:101BC0008093180180911F042091210430912204F8
:101BD000AB01421B530B9A01409116015091170122
:101BE00024173507A8F40E948F0C809118018D7F6F
:101BF0008093180180911B0490911C040E94C90DD0
:101C000080911F040E945D0C82E00E94280A24C07B
:101C10009091FC0392609093FC030E948F0C809142
:101C200018018260809318018091180485FFE2CF2B
:101C300086FDE0CFFF20F1F2DF91CF911F910F9150
:101C4000FF900895802F0E945D0C80911F04909159
:101C5000200480179107C1F20E94570AD0932204F2
:101C6000C0932104E9CF1F93CF93DF93182FC09126
:101C70001D04D0911E04893321F0C0911B04D09122
:101C80001C04812F0E948F0C209731F4812FDF914B
:101C9000CF911F910C945D0C8FE99FE00197F1F7B4
:101CA00000C000002197F0CF0F931F93CF93DF93D5
:101CB000C42FD22FFC0182818823A1F04093A0027F
:101CC0000E94740590939F0280939E02C77081E0EA
:101CD00001C0880FCA95EAF7DF91CF911F910F914C
:101CE0000C94530C1091A002141339C080919E02E1
:101CF00090919F020E946505209115043091160471
:101D00008217930760F5C0E2CD0F1D17B9F080E28E
:101D1000810F883040F4177081E001C0880F1A9558
:101D2000EAF70E944C0CC83048F481E09D2F977070
:101D300001C0880F9A95EAF70E94530C802F0E94E9
:101D4000330EC83098F4D77081E001C0880FDA955F
:101D5000EAF7DF91CF911F910F910C944C0CC77053
:101D600081E001C0880FCA95EAF7F3CFDF91CF91E8
:101D70001F910F910895AF92BF92CF92DF92EF9291
:101D8000FF920F931F93CF93DF93EC018AE0A82E6D
:101D90002881222309F48CC02130C9F599818A81D8
:101DA000913021F422960E94330E05C0923029F41E
:101DB00022960E948F0C2196EBCF933021F422962D
:101DC0000E945D0CF8CF943011F02196F4CF22964A
:101DD00030E020E0AE014F5F5F4F8053990B8A30B7
:101DE000910550F02150310930F38FE99FE00197C0
:101DF000F1F700C00000F6CFA29EB001A39E700DC7
:101E000011249C01260F371F8981EA01E3CFE22FBD
:101E1000F0E0E650FE4FB490822F86958695869529
:101E200090E0FC01E651FE4FE4902770F12C022E69
:101E300002C0F594E7940A94E2F731E0E322FF242C
:101E4000FC01E652FE4FC490D12C022E02C0D59464
:101E5000C7940A94E2F731E0C322DD24FC01E65383
:101E6000FE4F049110E002C0159507952A95E2F700
:101E700001701127E114F10419F081EE0E948F0C1A
:101E8000C114D10419F086EE0E948F0C8B2D0E9494
:101E9000330ECD2819F086EE0E945D0CEF2819F064
:101EA00081EE0E945D0C012B09F485CF8CE27BCF83
:101EB000DF91CF911F910F91FF90EF90DF90CF9026
:101EC000BF90AF9008950F931F93CF93DF930DEFC3
:101ED00013E0C7EBD1E0CE010E94992FF801819366
:101EE0008F012196C93DF1E0DF07A9F7CCEBD5E0E2
:101EF000FE0185919491009711F0FC0109952896B7
:101F0000F6E0C435DF07A1F7DF91CF911F910F9164
:101F100008950F931F93CF93DF93843000F56111E1
:101F20001EC024E0829F8001112450E0440F551F01
:101F3000040F151F09551E4FC8010E94992FC82F65
:101F4000D0E0DC2FCC27C80101960E94992F9E017A
:101F5000282BC901DF91CF911F910F91089590E037
:101F600080E0F8CF0F931F93CF93DF93843030F549
:101F7000683020F5463010F5C42FD0E0CC0FDD1FBF
:101F80002CE0629FC00DD11D112430E6839FC00D4F
:101F9000D11D1124CE0187960E94992F082F10E0A1
:101FA000102F0027CE0188960E94992F9801282B88
:101FB000C901DF91CF911F910F91089590E080E0CA
:101FC000F8CF462F20919C0230919D02232B91F453
:101FD0007E3F39F46E3F71F480919A0290919B029A
:101FE0000895843038F4783028F4663018F4672F78
:101FF0000C94B20F90E080E00895CF92DF92FF92B0
:102000000F931F93CF93DF936C0100916304809132
:102010006204082BC7E0D0E010E0FC2EC8010C2EB3
:1020200002C0959587950A94E2F780FD0CC0219730
:10203000A0F7F12C8F2DDF91CF911F910F91FF9081
:10204000DF90CF900895B6018C2F0E94E10F0E947F
:102050009508019761F3EECFCF93DF93EC010E94D7
:10206000FD0FBE010E94E10FDF91CF910C94950806
:10207000FC0186819781009721F00E9495080C94BD
:10208000A30B808191810E942C10F9CF1F93CF93D5
:10209000DF9300D000D00F92CDB7DEB749835A83CB
:1020A00089819A816623B9F02223A9F00E94FD0F4D
:1020B000182F682F89819A810E94720B69817A8119
:1020C000812F0F900F900F900F900F90DF91CF9175
:1020D0001F910C94E10F0E94440B182FEFCFFC01CD
:1020E000262F86819781009739F440815181628142
:1020F000738184810C944610089583E290E00E94DD
:10210000992F813D89F484E290E00E94992F8637CF
:1021100059F485E290E00E94992F91E0893509F009
:1021200090E0892F8170089580E0FCCFCF9384E008
:1021300090E00E94992FC82F82E290E00E94992F90
:10214000982F8C2FCF9108950F931F93CF93DF93E8
:102150000DEF13E0C7EBD1E0CE010E94992FF801FB
:1021600061918F01681719F0CE010E94A72F219667
:10217000C93DF1E0DF0781F7DF91CF911F910F910A
:102180000895EDEFF3E0128E138E8FEA90E09183C5
:10219000808385E0848F88E893E1938382834CE297
:1021A00051E05583448322E330E03783268385E082
:1021B00090E0918780878AE090E09387828764E14E
:1021C00070E0758764875787468744E650E0518BF7
:1021D000408B48E050E0538B428B48E250E0558BF7
:1021E000448B378B268B28EC30E0318F208F158E77
:1021F000978F868F80E590E091A380A30E94A41022
:102200000C94630FCF93DF93C9E7D2E060E0CE0177
:102210000E94A72F2196C11584E0D807B9F7DF9156
:10222000CF9108950F931F93CF93DF93890184304B
:1022300028F5611123C0423008F521153C4531F4E1
:1022400020910B0130910C01232BC1F094E0899F68
:10225000E001112450E0440F551FC40FD51FC9558C
:10226000DE4F612FCE010E94A72F602FCE01019675
:10227000DF91CF911F910F910C94A72FDF91CF91F8
:102280001F910F9108950F931F93CF93DF938901AF
:10229000843048F5683038F5463028F521153C453E
:1022A00031F420910B0130910C01232BE1F0C42F6C
:1022B000D0E0CC0FDD1F9CE0699FC00DD11D112423
:1022C00090E6899FC00DD11D1124612FCE01879604
:1022D0000E94A72F602FCE018896DF91CF911F918A
:1022E0000F910C94A72FDF91CF911F910F9108951B
:1022F000CF93C82F6FEF811161ED83E290E00E94D0
:10230000A72F6FEFC11166E784E290E00E94A72F2C
:102310006FEFC11169E585E290E0CF910C94A72F92
:10232000CF93C0912F04C2FB992790F9981781F0A1
:1023300080FBC2F9C0932F0460912E0484E090E0EA
:102340000E94A72F6C2F82E290E0CF910C94A72FD0
:10235000CF9108957F928F929F92AF92BF92CF922A
:10236000DF92EF92FF920F931F93CF93DF93CDB73E
:10237000DEB764970FB6F894DEBF0FBECDBFA09056
:102380000B01B0900C0181E090E090930C018093E0
:102390000B0186E3C82E84E0D82E10E0760100E021
:1023A00015C0F40125913491472D602F812F0E9493
:1023B000431182E0880E911C7394E6E07E12F1CF07
:1023C000FCE0EF0EF11C0F5F083019F04701712C93
:1023D000E8CF21E030E040E060E0812F0E94121160
:1023E00021E030E041E060E0812F0E9412111F5F88
:1023F00080E6C80ED11C143089F60E94C1101A82E2
:1024000019821C821B821E821D8218861F8288EC04
:1024100090E09A87898709ED11E04AE050E0B80121
:10242000CE0101960E94CB2F065F1F4F0932E2E0DA
:102430001E0799F77E01FBE0EF0EF11C8AE0F70121
:1024400011928A95E9F74AE050E0B801C7010E946D
:10245000CB2F065F1F4F0937F2E01F07A1F7B0929D
:102460000C01A0920B0164960FB6F894DEBF0FBE6C
:10247000CDBFDF91CF911F910F91FF90EF90DF9033
:10248000CF90BF90AF909F908F907F90089580E005
:102490000E94781160E086E290E00E94A72F0E94DF
:1024A000AA110E94021181E00C9478119B018830DE
:1024B00070F49AE0899FB001112467527E4F4AE080
:1024C00050E0C9010E94892F90E080E008958FEFCD
:1024D0009FEF08958F929F92AF92BF92CF92DF921B
:1024E000EF92FF920F931F93CF93DF93CDB7DEB799
:1024F0002A970FB6F894DEBF0FBECDBF0CE413E0F1
:10250000F12CE12C8DEAC82E86E2D82E97EDA92E6B
:1025100096E2B92E2CEA822E25E2922EF801D18283
:10252000C082B382A28295828482F58AE48ABE0147
:102530006F5F7F4F8E2D0E945612892B29F489855B
:102540009A85F801938B828BFFEFEF1AFF0A0A5EE0
:102550001F4F88E0E816F10409F72A960FB6F894A1
:10256000DEBF0FBECDBFDF91CF911F910F91FF90C6
:10257000EF90DF90CF90BF90AF909F908F90089595
:10258000CF92DF92EF92FF920F931F93CF93DF933F
:10259000CDB7DEB72A970FB6F894DEBF0FBECDBF1A
:1025A000EAE4F2E080E5DF011D928A95E9F7E5E0D3
:1025B000F3E088E3DF011D928A95E9F78AE4C82EEB
:1025C00082E0D82E7F0109E212E0F701D182C082B9
:1025D0004AE050E0B801CE0101960E94892F88E0C0
:1025E000FE013196D60101900D928A95E1F7898519
:1025F0009A85D70113969C938E931297BAE0CB0ECF
:10260000D11CE7E0EE0EF11C065F1F4F0937F2E028
:102610001F07D9F62A960FB6F894DEBF0FBECDBFBE
:10262000DF91CF911F910F91FF90EF90DF90CF90AE
:1026300008951092490380911901E4E8F1E088239C
:1026400059F080912E0487FF07C08EE1DF011D92B3
:102650008A95E9F70C94C20B86E0F8CF1F93CF93CD
:10266000DF93CDB7DEB7AA970FB6F894DEBF0FBEE3
:10267000CDBF8AE594E02091F100DC012D93CD01DE
:10268000B4E082369B07B9F780915B04833009F48C
:1026900071C0B8F4813009F448C0823009F4B2C086
:1026A0008091E80083FF3AC180915A0490915B04C5
:1026B0009A3008F033C1E92FF0E0ED50F04D0C9462
:1026C000562F8A3009F48DC08B3009F470C08930E0
:1026D00039F780915A04813219F780915E04909104
:1026E0005F04009711F00297D9F68091E800877F88
:1026F0008093E8008091E80082FF37C09091F3005A
:102700008091F200029729F48091F1008B7F813053
:1027100021F48091F100809335048091E8008B775B
:102720008093E8000E944104BBCF80915A04813A13
:1027300009F0B6CF8091E800877F8093E800809110
:102740005E0490915F04892B61F460E286E394E07B
:1027500070E00E94F3048091E8008B778093E8009A
:102760009FCF60E090E080E0F3CF8091580481112A
:10277000C1CF96CF80915A04813A09F091CF8091D0
:102780005E0490915F04892B09F08ACF8091E80064
:10279000877F8093E8008091E80080FFFCCF8091E4
:1027A00019018093F1008091E8008E77B9CF809174
:1027B0005A04813209F074CF80915E0490915F04D5
:1027C000892B09F06DCF8091E800877F8093E80026
:1027D0000E94410480915C04809319010E941913A6
:1027E0005FCF80915A04813209F05ACF8091E8007E
:1027F000877F8093E8000E94410480915D0480936C
:1028000034044ECF80915A04813A09F049CF809127
:10281000E800877F8093E8008091E80080FFFCCF8C
:1028200080913404BECF803899F0823809F076C0A8
:1028300080915E048F70873008F070C08093E9004B
:102840008091EB0085FB882780F91092E90006C093
:102850008091560490915704911182609091E80004
:10286000977F9093E8008093F1001092F10080919F
:10287000E8008E77C0C1882309F4ADC1823009F029
:102880004DC080915C048111B1C180915E048F7054
:102890002FEF280F263008F041C08093E9002091E7
:1028A000EB0020FFA3C1933031F48091EB008062F4
:1028B0008093EB009BC19091EB0090619093EB00B3
:1028C00021E030E001C0220F8A95EAF72093EA0068
:1028D0001092EA008091EB008860EACF81111EC05F
:1028E00010915C041F778091E3008078812B8093A6
:1028F000E3008091E800877F8093E8000E94410414
:102900008091E80080FFFCCF8091E3008068809395
:10291000E30082E0111183E0809358048091E80085
:1029200083FF0AC08091E800877F8093E800809150
:10293000EB0080628093EB00AA960FB6F894DEBF9E
:102940000FBECDBFDF91CF911F9108958058823087
:1029500028F720915C0430915D042C3DE3E03E07B4
:10296000A1F583E08A838AE289834FB7F894DE0178
:10297000139620E03EE051E2E32FF0E05093570041
:10298000E49120FF03C0E295EF703F5FEF708E2F60
:1029900090E0EA30C0F0C7968D939D932F5F24316D
:1029A00059F74FBF8091E800877F8093E8006AE283
:1029B00070E0CE0101960E94F3048091E8008B77CD
:1029C0008093E800ABCFC096E7CF80915E049091F2
:1029D0005F04432F55274330510509F44AC078F569
:1029E0004130510509F485C08BE590E0EEE4F6E056
:1029F0004230510509F092CF2091E800277F2093C3
:102A0000E80020916004309161048217930708F474
:102A10009C0140E02115310509F070C041116EC0E4
:102A20008091E80082FDC9CF80915804882329F263
:102A3000853019F28091E80083FFF2CFBECF41329A
:102A4000510509F447C04232510509F067CF833080
:102A5000910508F063CFFC01EE0FFF1FEC58FE4F0D
:102A60000190F081E02D8F589E4FDC018C9190E019
:102A70001DC0332721303105E9F02115310579F0EA
:102A800022303105F9F02330310509F047CFEBEB67
:102A9000F6E0E4918E2F90E0EBEBF6E007C0E7EF75
:102AA000F6E0E4918E2F90E0E7EFF6E0009709F46E
:102AB00035CFA2CFE5EEF6E0E4918E2F90E0E5EE83
:102AC000F6E0F4CFE9EDF6E0E4918E2F90E0E9ED49
:102AD000F6E0ECCF8330910508F020CF880F991FE6
:102AE000FC01E658FE4F0190F081E02D89E090E076
:102AF00083CF82E190E0E9EAF6E07ECF809158044E
:102B0000882309F45ACF853009F457CF8091E80023
:102B100083FD53CF8091E80082FD82CF8091E80051
:102B200080FF78CF9091F3008091F200211531055C
:102B300019F08830910550F041E0089709F040E025
:102B40008091E8008E778093E80064CF44914093B1
:102B5000F1003196215031090196E8CF803809F013
:102B6000DDCE8091E800877F8093E8008091590452
:102B70008093F1007CCE8111D1CE10915C04123093
:102B800008F0CCCE8091E800877F8093E800109316
:102B900059040E944104112311F084E005C0809182
:102BA000E30087FDFACF81E08093580442E061ECB6
:102BB00081E00E94600442E261EC84E00E946004D3
:102BC00042E261EC82E00E94600442E260EC83E059
:102BD0000E946004A3CE80915C04813009F09ECEF7
:102BE00081E0933009F080E0809357041092E9006F
:102BF0008091E800877F8093E8000E9441048ECE98
:102C00006AEE7EEF90E080E00E94C52F60E082E0F7
:102C100090E00E94A72F60E083E090E00E94A72F41
:102C20001092620460E084E090E00E94A72F60E0D0
:102C300082E290E00E94A72F60E085E090E00E9491
:102C4000A72F60E086E090E00E94A72F6FEF87E05B
:102C500090E00E94A72F40E050E0BA0188E090E0A9
:102C60000E94B92F60E08DE090E00E94A72F40E025
:102C700050E0BA0188E190E00E94B92F60E087E15E
:102C800090E00E94A72F40E050E0BA018CE190E074
:102C90000E94B92F70E060E080E290E00E94C52FB2
:102CA00040E050E0BA0188E190E00E94B92F80E056
:102CB0000E9478110E94471240E050E0BA018FE074
:102CC00090E00E94B92F40E050E0BA0183E190E02B
:102CD0000C94B92F8F929F92AF92BF92CF92DF92B6
:102CE000EF92FF920F931F93CF93DF9300D000D00A
:102CF000CDB7DEB77C01DC0113964D915C91149742
:102D000011966C9111978C910E941706811174C0D5
:102D100061E0C7010E946F108C01F701828181116F
:102D200011C0D70112968C91811148C00031FFE586
:102D30001F0709F4E8C001312FE5120709F007C6A3
:102D400082E0E2C0809100018F3F59F35CE4C52E20
:102D500053E0D52EB12CA12C99249394809100019D
:102D6000082E000C990B8A159B05DCF2F601868172
:102D70008823E9F0818592850817190739F4809135
:102D80004A0390914B030817190789F0D6011F9643
:102D90009C921F971C961C930E931B97C6010E9432
:102DA000F00AC60106960E94AB0A1092FC03BFEF20
:102DB000AB1ABB0AE6E1CE0ED11CD0CF980122514E
:102DC0003F452031310508F0B8C58FEF93E00E94F0
:102DD000992F4EEED42ED00E09E712E0882349F148
:102DE00080910402877041F0D70112968C9188235C
:102DF00019F082E00E94FA0B0F900F900F900F9045
:102E0000DF91CF911F910F91FF90EF90DF90CF90C6
:102E1000BF90AF909F908F9008950115F4E01F0729
:102E2000F9F2C8010E94992F811101C0DA940F5F55
:102E30001F4FD110F2CF19821A821B821C82CC2420
:102E4000CA9448012FEF821A920AC8010E94992F52
:102E500089831A82882321F2813009F048C0580101
:102E600032E0A30EB11CC4010E94992F982E8A83D0
:102E7000882309F4B5CFC5010E94992FD82E8FEF72
:102E8000890D833068F4580143E0A40EB11CDB8245
:102E9000DD2021F0CE0101960E94BB0E8501D1CF2D
:102EA00054E09512FBCF580184E0A80EB11CC80174
:102EB00003960E94992FDD2009F492CF882309F40C
:102EC0008FCF8150990BC89E9001C99E300D11245F
:102ED000AD2DA150BB0BCD01820F931F0197F0F2D6
:102EE000EFE9FFE03197F1F700C00000F7CFCE0126
:102EF00001960E94BB0E5401D1CF81E00E94160CB6
:102F00000E94E30B6DCF81E00E94EE0BF9CF82E0CF
:102F1000F5CF4FEFC416D10411F008F024C560E4DA
:102F200072E08C2D0E945612892B29F586E18C9D2A
:102F3000F0018D9DF00D1124E45BFC4F8681813002
:102F400009F061C08091400290914102892B99F073
:102F50008091420290914302892B69F08091440252
:102F6000909145022091460230914702822B932B8B
:102F7000892B09F452C080910001082E000C990B96
:102F80008C159D0514F4C0920001F701828196E131
:102F90009C9D50019D9DB00C11249501245B3C4FDC
:102FA0006901D90150968C935097928116968C9115
:102FB0001697992309F43FC01A961C930E931997FC
:102FC0008F5F16968C930E947405F601968785870D
:102FD0008091080287838091FC0390914903892B9B
:102FE00080870190F081E02D309741F0D601549612
:102FF0006D917C91C5018E5A9C4F099510934B039E
:1030000000934A03B0C4823009F0B5CF80914402E6
:1030100090914502892B09F4AECF26E12C9DC00189
:103020002D9D900D1124845B9C4FDC0150961C92C9
:103030000E94F00AA0CF882309F495C4F901818980
:10304000882309F490C4C5018E5A9C4F0E94AB0A94
:103050008AC480911801816080931801F701328140
:10306000332309F4D9C41092A0020230FCE51F07F3
:1030700008F406C506312CE5120730F0C8018A5F56
:103080009C45099708F0FCC40E94961090932F0469
:1030900080932E0400313CE5130709F473C108F056
:1030A00006C108305CE5150709F462C108F0D5C017
:1030B00004309CE5190709F453C108F0BBC0023085
:1030C000BCE51B0709F446C180912E0482600330E1
:1030D0001C4509F442C160912E0410912F0484E034
:1030E00090E00E94A72F612F82E290E00E94A72F1C
:1030F0000E94191375CE809118018E7F809318015C
:1031000082E00E94280AAACF0933110560F40D322B
:10311000110520F40B32110509F05FC480911804E9
:1031200082FD5BC408C004361105C1F356C480910A
:10313000180484FD52C4D70112968C91882309F497
:1031400045C08091180180FF48C49091180491FDFA
:1031500004C020914903211140C495FF26C096FD6B
:1031600002C081FD22C02091210430912204F60189
:10317000E21BF30BE83CF105C0F420911F043091F1
:1031800020040217130789F481FD09C0802F0E94D3
:103190008F0C26CE8091180483FD1FC4CCCF809164
:1031A000FC0382608093FC03F1CF10932004009312
:1031B0001F04D0922204C0922104809118018460DF
:1031C0008093180182E00E94FA0B0ACE40E0B6011B
:1031D000C8010E94D30D04CE053F8CE51807F1F01D
:1031E000B8F0063FACE51A0709F038CF07E225EE44
:1031F00046EE66EF7CE50CC407E225EE45EE68ED91
:103200007CE506C406E221EE40EE63EF7CE500C4F7
:1032100007E225EE44EE64EF7CE5FAC306E221EE18
:1032200042EE65EF7CE5F4C308E221E045EE69ED8E
:103230007CE5EEC380912E0480610630FCE51F071B
:1032400009F48BC080912E04886007301C4508F477
:1032500084C080912E04806280C080912E048D7F76
:103260000C303CE5130709F478C070F480912E040B
:103270008C600A305CE5150709F46FC008F47CC067
:1032800080912E048E7F69C080912E04877F0E303E
:103290009CE5190709F461C080912E048B7F0F30E3
:1032A0001C4508F45AC080912E048F7E56C00B3FF7
:1032B000BCE51B0709F458C030F50331FCE51F07D6
:1032C00009F468C078F401313CE5130709F45EC0E5
:1032D00002311C4509F0FFCE0E94191380912E0483
:1032E0008F773BC005315CE5150709F45BC008F436
:1032F0006FC080912F0481600A3F1C4509F0EBCE1E
:1033000080932F04E8CE0F3FACE51A0709F446C0BE
:1033100088F480912F048D7F0D3FECE51E0781F32B
:1033200080912F048E7F0E3F1C4550F380912F0417
:103330008360E6CF01302DE5120709F452C0F0F1A9
:1033400060E002301D4509F0C6CE8EE090E00E949C
:10335000A72FC1CE80912E04816080932E04BBCE16
:1033600080912E048460F9CF80912F048260C8CFB1
:1033700080912E048064F1CF0E94191380912E0455
:103380008068EBCF80912E048F7DE7CF80912E0453
:103390008F7BE3CF80912E04837FDFCF80912F043A
:1033A0008C7FAECF80912E0482FB992790F921E08B
:1033B000922790FB82F990FB83F9CFCF80912F0465
:1033C000982F909591708E7F892B90FB81F998CFE3
:1033D0000E94191390912E04892F97FB87F980582A
:1033E000BCCF61E0B2CF8091A20169E2811165E3B7
:1033F00082E891E00E94800540C30B35BDE51B07C4
:1034000001F10C351D4509F04FC380912F0482FB5B
:10341000882780F991E089270E94901145C30E9476
:103420001913FFEF24E33CE0F15020403040E1F776
:1034300000C000000E9454050E940016D1CC81E01B
:10344000EBCF80E0E9CF828100811181882369F090
:10345000C8010E94FD0FD82E682FC8010E94720B70
:10346000B8018D2D0E94E10F25C3C8010E94440BB5
:10347000D82EF6CF202F2F70B22E802F807F19F0FC
:10348000B29490EFB922CC20C9F0BB2069F080E261
:10349000810F883010F011110BC080914903B82AB8
:1034A000B09249030E94570A812F0E948F0C16C0C8
:1034B0008091FC03B82AB092FC03F4CF812F0E94C4
:1034C0005D0CBB2059F080E2810F883010F01111A3
:1034D00033C08B2D0E942F0A0E94570AA92DA85095
:1034E000BB0B149710F40E940B06812F902F0E94A3
:1034F000A30B811103C21092A4011092A301AA2070
:10350000B1F08091040280FD12C0D70112961C9286
:103510008595859585950E94160CC7010E946A16AF
:10352000809104028595859585950E94EE0B60E05B
:10353000C7010E946F1060CC8B2D0E94280ACCCF4F
:10354000302F3F70B32E802F807F803219F0B294DD
:1035500080EFB822112321F1113009F46DC0CC2085
:1035600009F476C0DD2009F448C020E0D7014C9171
:1035700011965C91119712966C91129713967C910B
:10358000139714968C910E94461080911A0481FD25
:103590008BCFF701858180FF87CF8F7085832DC00A
:1035A000CC2069F1D11006C0809108028B290E94BD
:1035B000530C94CF41E0D41213C080912F0482FDAC
:1035C0008DCF80910802B82AB81609F487CF0E94DF
:1035D00074059093070280930602B09208027ECF92
:1035E00080911904823000F3D812DECF0E941D0AA8
:1035F00080910102B812B09201028B2DD8CFD11068
:1036000006C00E941D0A8B2D0E944C0C67CF809132
:10361000190451E0D5120BC0823008F45FCF8091BD
:1036200049038B2109F45ACF0E94140BEACF823050
:1036300040F3D812E6CF52CFCC2029F085E08D158B
:1036400008F44CCFDACF94E09D1508F447CFDBCFD8
:10365000DD20C9F280911D0490911E04193321F0E0
:1036600080911B0490911C040E94C90D812F0E941F
:103670005D0C34CF802F86958695837069F08130FC
:1036800009F02CCF812F902F9370C11002C090E0D1
:1036900080E00E94DF0522CF812F902F9370C11010
:1036A00002C090E080E00E94F50518CF812FCC2069
:1036B00039F00E94D1070E948F060E948F060ECF1C
:1036C0000E94B606FACF802F837091F5C11006CF05
:1036D000412F429546954770440F440F812F8F70BC
:1036E000042E01C0880F0A94EAF7212F207114FFDD
:1036F00007C02FE030E001C0220F4A95EAF720957D
:10370000302F369536953370323069F050F4409151
:103710006204313029F0822B84230E94370CDECEE4
:10372000842B822BFACF282B809162048227F5CF3D
:103730008695CC2011F0802F8170882309F4CECE9D
:10374000412F429546954770440F440F812F8F704B
:10375000042E01C0880F0A94EAF7212F207114FF6C
:1037600007C02FE030E001C0220F4A95EAF720950C
:10377000302F369536953370323069F050F44091E1
:103780006304313029F0822B84230E94DF0BA6CE04
:10379000842B822BFACF282B809163048227F5CFCC
:1037A000F02FFF70BF2ECC2029F08F2F0E94160C17
:1037B000812FFDCE812F0E944C0C8B2D0E94EE0B91
:1037C0008DCE123F09F44AC060F4103F41F1113F21
:1037D000E9F1CC2009F48DC0D11066CE802F8F7115
:1037E0003AC0133F09F43FC0143F99F720911904E0
:1037F000223008F466C080910102CC2009F44EC04A
:103800000E942F0A8091040287708430C1F50E94C3
:10381000360A802F8F710E94EE0BA12C5FCECC2038
:1038200081F024E02D1508F459CE202F2F7181E06E
:1038300090E001C0880F2A95EAF7909163048927E8
:10384000A4CF35E03D1508F449CEEFCF802F8F711E
:10385000CC2009F4B3CF0E94160C40CE802F8F717C
:10386000CC20C9F3ABCF80E0CC2009F48ECF81E02F
:10387000902F9F7101C0880F9A95EAF786CF8091AB
:103880001904D81650F6402F4F71B42E842F0E9481
:10389000160C63E08B2D0E94210CBFCF9091490341
:1038A000982B90934903D21640F00E94360A0E944A
:1038B000140B64E0802F8F71EECF81E00E94FA0B31
:1038C000ACCFCC2059F0502F5F71B52E852F0E94C0
:1038D000160C63E08B2D0E94210C00CE81E00E942B
:1038E000FA0B81E08D1508F0F9CD82E00E94FA0B09
:1038F000F5CDD110AFCE802F8F7160CFCC2019F0D5
:10390000D110F9CDFCCDD110F6CD20E0F7014081EA
:1039100051816281738184810E94461080911A04D2
:1039200083FFE9CD8091A3019091A401029709F052
:10393000E2CD812F0E94330EDECD0031BFE51B07A3
:1039400009F4DBCA0131EFE51E0709F4E0CA68019A
:1039500027E5D21A882309F4DCCA3FEFC316D10445
:1039600009F008F408CB8091180480FF36C00E944B
:1039700074056C01D70112968C91882311F1809106
:10398000180182FF06C040E0B60190E080E00E948E
:10399000D30D82E00E94280A0B31BCE51B0709F415
:1039A00058CB0C31ECE51E0709F4A5CB909118011A
:1039B000892F8E7F90FF81600A31FCE51F0709F493
:1039C0009DCB0832110508F09FCB0E31110508F090
:1039D000E1CB0430110508F0AACB033FFCE51F073B
:1039E00009F410CC08F0F8CB083D3CE5130709F4C6
:1039F00003CC093D4CE5140709F416CC073D5CE502
:103A0000150709F02BCB06E221EE41EE67ED7CE5D0
:103A1000C7010E94540EE4C906311C4509F044C098
:103A200080914903982F9A7A2091170420FF04C0AF
:103A3000482F447409F090E021FF04C0482F4171E1
:103A400009F090E022FF04C0482F487809F090E088
:103A500023FF03C0827209F090E0332309F4C3CC42
:103A600081E0911101C080E08093A20169E291118F
:103A700065E382E891E00E94AA050E94570AB0C956
:103A800006315CE5150761F20A355DE5150709F4B5
:103A9000D6CC08F0B2CC01159CE5190709F4BFCCCF
:103AA0000E3D1C4509F4C8CCF7018681978100972B
:103AB00009F4C9CC0E949508182F092FF701C2807C
:103AC000D580D2943FE0D322809104028770A1F088
:103AD000AC2CCC2091F0892F807F803421F080E2C3
:103AE000810F883048F082E00E94FA0B8091040236
:103AF0008770AA24A3948111A12C902E92942FE078
:103B00009222FBE0F91508F4E9CCE92DF0E0E3504E
:103B1000F04D0C94562FCF92DF92EF92FF920F93BD
:103B20001F93CF93DF938091BC01807F31F480910C
:103B3000B901C091000281110BC0DF91CF911F919B
:103B40000F91FF90EF90DF90CF9008952196C7706E
:103B50008091BF018C1789F3F090B701E090B80114
:103B6000C090BA01D090BB01A6016E2D8F2D0E948E
:103B70001706D0E08111EACF8E0183E0000F111FFC
:103B80008A95E1F7F801E054FE4F81818E11DECF76
:103B900080818F11DBCF82818111D8CFE380F480C7
:103BA000EC18FD0860E087EB91E00E946F108091B7
:103BB000150490911604E816F90640F68091BC01B0
:103BC0008F7080618093BC01F801EB53FE4F8081C0
:103BD0008F708061808387EB91E00E946A16DF918D
:103BE000CF911F910F91FF90EF90DF90CF900C94A9
:103BF0003A0B5F926F927F928F929F92AF92BF9299
:103C0000CF92DF92EF92FF920F931F93CF93DF93A8
:103C1000CDB7DEB765970FB6F894DEBF0FBECDBF48
:103C20008C0185E0F801DE01519601900D928A9594
:103C3000E1F7D8011296EC9087EBA82E81E0B82E20
:103C40008090BA019090BB01A4016091B80180916D
:103C5000B7010E9417068111EAC1F801C380D48020
:103C6000F090B901C601881999094C01FF2009F4A7
:103C70007AC15080618060E0C5010E946F10809120
:103C80001504909116047090BC018816990608F0EE
:103C90001DC14091BA015091BB01B090B701A090F5
:103CA000B801872D807F6A2D09F0B7C08B2D0E9447
:103CB0001706FE2C811139C0D80111968C911197ED
:103CC0008A1133C08C918B1130C02091BD0130918D
:103CD000BE0116968D919C912817390731F5E11098
:103CE00024C0872D8F7080618093BC0187EB91E0A9
:103CF0000E946A168091BC01F80185838F2D65961C
:103D00000FB6F894DEBF0FBECDBFDF91CF911F91EC
:103D10000F91FF90EF90DF90CF90BF90AF909F906A
:103D20008F907F906F905F90089560E087EB91E0B7
:103D30000E946F108091150490911604843F914069
:103D4000F8F0A601662D852D0E94170681114CC042
:103D500081E08E2580FF1DC04E2D662D852D0E9491
:103D60001A0B8823B1F087EB91E00E946A1688E075
:103D7000E7EBF1E0DF011D928A95E9F7F12CBECF68
:103D800060E087EB91E00E946F1080911A0480FD43
:103D9000D8CFA601662D852D0E941706811126C059
:103DA00081E08E25B82FB170CB2E80FF2DC04E2D17
:103DB000662D852D0E941A0BD82E811125C0598A97
:103DC0006A8A89899A890E942C10292F22952F703E
:103DD000223070F0243098F49F7071F0F8019581D2
:103DE000907F51F4FD2C8ACF80E0B4CF80E0DACF11
:103DF0009F7011F08823B1F3805E883098F3C8017A
:103E00000E946A16DC2CEECFEE2009F477CF809169
:103E1000BC0181608093BC01B1CF8B2D0E9417063D
:103E2000811124C0D80111968C9111978A111EC05E
:103E30008C918B111BC02091BD013091BE01169653
:103E40008D919C9117972817390781F4E1100EC0C6
:103E500015967C92C8010E946A1688E0F801A7EBCB
:103E6000B1E001900D928A95E1F748CFC8010E9418
:103E70003810882339F1EE2029F18091BC0180327D
:103E8000A0F02091B7013091B8013A8729871B86AD
:103E9000DD86CC868E878091BD019091BE01988B86
:103EA0008F87CE0109960E946A1688E0F801A7EB79
:103EB000B1E001900D928A95E1F70E948B1DFF24DD
:103EC000F3941CCFC8010E946A16F9CF872D807F1A
:103ED00009F449CF9090B7018090B8014091BA01A0
:103EE0005091BB01682D892D0E94170681111CC0BD
:103EF000F8018181881118C08081891115C0209135
:103F0000BD013091BE01868197812817390761F480
:103F1000E1100AC07582C8010E946A1688E0D501C6
:103F20001D928A95E9F7EACEC8010E9438108823CD
:103F300049F2EE2039F28091BC01803208F4B5CF0D
:103F40002091B7013091B8013A8329831B82DD8229
:103F5000CC828E838091BD019091BE0198878F8322
:103F6000CE010196A0CF60E087EB91E00E946F1038
:103F700080911504909116048816990608F051C096
:103F8000FE2CEE2009F49ECFE090B701D090B8014E
:103F90004091BA015091BB016D2D8E2D0E941706E4
:103FA000811131C0F80181818D112DC080818E1168
:103FB0002AC02091BD013091BE01868197812817CA
:103FC000390709F560E087EB91E00E946F1080915E
:103FD0001A0482FD42CF9091BC0190FD3ECF907FAC
:103FE00009F43BCF8091BC01D80115968C931597AD
:103FF000903F09F42FCF982F907F905F8F70892B7F
:1040000015968C9327CFC8010E94381081114DCF8F
:104010008091BC0181608093BC01C8010E946A1636
:104020006DCE88E0F50111928A95E9F767CEEE2012
:1040300009F448CFC8010E943810F82E882309F4EB
:1040400041CF88E0F801A7EBB1E001900D928A958D
:10405000E1F78091B7019091B8010E942C100E9465
:104060008B1D4CCECF93DF93CDB7DEB760970FB6E5
:10407000F894DEBF0FBECDBF29873A874B875C8798
:104080006D877E878F87988BCE0109960E94F91DD8
:1040900081112FC088E0FE013996DE011196019052
:1040A0000D928A95E1F74C855D856A8589850E9428
:1040B000170681111EC0A091BF01B0E0CD0101968D
:1040C00087709927209100022817190609F193E0BB
:1040D000AA0FBB1F9A95E1F7A054BE4F98E0FE01CE
:1040E000319601900D929A95E1F78093BF010E945D
:1040F0003A0B809100029091BF01891317C060961E
:104100000FB6F894DEBF0FBECDBFDF91CF910895FB
:104110000E9419131092BF011092000288E0E7EB91
:10412000F1E0DF011D928A95E9F7E3CFB8E08B9FBC
:10413000C001112480549E4F0E94F91D8823F9F27A
:104140008091000290E00196877099278093000289
:10415000D0CFEF92FF920F931F93CF93DF93809175
:10416000A402882361F0C091A3028CE0F82E809114
:10417000A402C81758F01092A4021092A302DF9173
:10418000CF911F910F91FF90EF900895EE24E3944B
:10419000EC0EE092A3020C2F10E0CF9DE001112461
:1041A000CB55DD4F4B815C81698188810E94170668
:1041B00081111BC08E819F81892B21F4888599856F
:1041C000019651F4288139814A815B816C817D811E
:1041D0008E819F810E943220F09EF001F19EF00DB1
:1041E0001124EB55FD4F14821382CE2DC0CF1092B7
:1041F0004803109247031092150180914603809363
:1042000045030E9450060C94A9203F924F925F9262
:104210006F927F928F929F92AF92BF92CF92DF92D6
:10422000EF92FF920F931F93CF93DF93C0914503BB
:1042300097E0892E01E010E02CE0322E3EEF932E25
:1042400044244394809146038C1315C00E94A920F6
:10425000DF91CF911F910F91FF90EF90DF90CF9062
:10426000BF90AF909F908F907F906F905F904F9096
:104270003F900C945006D0E0FE01EE0FFF1FE35C70
:10428000FC4F80819181889ED001899EB00D1124C0
:10429000AB5FBC4F14962C911497211157C05090CE
:1042A000A402E5EAF2E030E020E0712C5D01251582
:1042B00008F04AC0E284F384D501CD90DC906FEF22
:1042C0007FEF612C462D50E0DA01AA0FBB1FAC0D29
:1042D000BD1D0D90BC91A02D109731F0EA16FB0684
:1042E00009F4BA016394EECF6F3F7607A1F1D801CC
:1042F00002C0AA0FBB1F6A95E2F77A2AB80102C072
:10430000660F771F6A94E2F7AB01415051097416AA
:104310001506F9F4329EF001339EF00D1124EB5591
:10432000FD4F889ED001899EB00D1124AB5FBC4F1C
:1043300012962D913C911397378326839082918218
:104340009187808715964C920E9422062196C37011
:1043500079CF148213822F5F3F4F3C96A8CF9F9254
:10436000AF92BF92CF92DF92EF92FF920F931F9383
:10437000CF93DF93CDB7DEB728970FB6F894DEBFA3
:104380000FBECDBF8E010F5F1F4F88E0F801119265
:104390008A95E9F783E5C82E81E0D82EF12CE12C2F
:1043A000AA24A394B12CF60181916F018F3F09F4E7
:1043B00049C0F894E82FE295EF70F0E021A18F70EA
:1043C000A50102C0440F551F8A95E2F7CA01922F3A
:1043D000982B91A392A18095892382A3789400C001
:1043E000EBE5F1E030E020E0912C41914F3F09F402
:1043F00066C0A42FA295AF70B0E090968C9190E02B
:104400004F7002C0959587954A95E2F780FD57C099
:104410008A2D022E01C0880F0A94EAF7982A2F5F8E
:104420003F4F2630310509F7F601319780818F3FE4
:1044300011F00E943B0850EA5A95F1F7F801EE0D91
:10444000FF1D90828FEFE81AF80AE8E0EE16F104FB
:1044500009F0A9CF48E050E0B8018CE092E00E945A
:104460006C2FDD24D394009709F4D12C892B49F1CA
:1044700088E0F801ACE0B2E001900D928A95E1F796
:1044800081E080930B020E94740590930A0280934E
:1044900009028091090290910A020E946505059720
:1044A000A0F0ECE0F2E0A3E2B2E084E192E021913E
:1044B0002D938E179F07D9F710920B0206C080E04C
:1044C000ADCF80910B028111E4CF8091000110E00B
:1044D00006E18F3F09F066C08091150181116DC022
:1044E0008091180480FF1CC08091180182FF18C0C1
:1044F0000E9474052091210430912204AC01421BDA
:10450000530B20911601309117014217530740F0C9
:1045100041E0BC0180911F04909120040E94D30DC2
:104520008D2D28960FB6F894DEBF0FBECDBFDF915C
:10453000CF911F910F91FF90EF90DF90CF90BF90A0
:10454000AF909F900895029FF001039FF00D1124FA
:10455000E45BFC4FE288F388E114F10421F4E0907D
:104560001504F0901604029FF001039FF00D112432
:10457000E45BFC4F86818823A1F0858596850E94A7
:104580006505E816F90668F4109F70011124C7014B
:10459000845B9C4F0E94F00AC7018E5A9C4F0E9478
:1045A000AB0A1F5F212F30E080910001082E000C24
:1045B000990B821793073CF68FCF80914703909118
:1045C0004803009709F48CCF0E9465052091A10251
:1045D0003091A2022817390708F082CF9091450345
:1045E00080914603981759F00E9405211092A2026B
:1045F0001092A102109248031092470371CF0E94BB
:10460000A92010924803109247030E94500668CFD9
:104610002F923F924F925F926F927F928F929F92D2
:10462000AF92BF92CF92DF92EF92FF920F931F93C0
:10463000CF93DF93CDB7DEB769970FB6F894DEBF9F
:104640000FBECDBF942F498B252F5A8B6B8B7C8B44
:104650008D8B4C895D89622F892F0E9417068111ED
:1046600009C08091A3019091A40101969093A401A7
:104670008093A3018B8981111092FC031D861E86F5
:104680001F86188A85E0FE017196DE011996019059
:104690000D928A95E1F78091FF0390910004892B98
:1046A000C1F00E9474052091020230910302821B26
:1046B000930B2091FF03309100048217930720F0A1
:1046C0008091040282FFF5C10E943D0A81110E947F
:1046D0001D0A4C855D856A8589850E9417068111B2
:1046E00011C061E0CE0109960E946F106C018B85AC
:1046F00027EFC2162CE5D20681F4882321F181E050
:104700008093150129853A854B855C856D857E856D
:104710008F8598890E943220C5C038EFC3163CE5CA
:10472000D30629F4882379F00E94F720EBCF49EFD4
:10473000C4164CE5D40639F4882329F0809115017C
:104740008111F2CFDCCF05E013E0512CB12CA12C6C
:1047500022242394312C2EEF422EF80140815181E6
:1047600088248A94982C20E0822F90E0FC01EE0FA0
:10477000FF1FE40FF51F608171816115710531F034
:10478000C616D70609F44C012F5FEECFF12CFFEFD0
:104790008F169F0609F448C0F8014481F090150176
:1047A0008F2D411180E0F82FF170FF2EF801E58088
:1047B00086819B85992309F40CC1FF2009F409C166
:1047C0006090130470901404E11012C0A10101C0A4
:1047D000440F8A94EAF7842B86838091A1029091FA
:1047E000A2028615970520F47092A2026092A1029F
:1047F000C10102C0880F991F2A95E2F70197F801BD
:1048000026812817190681F4809147039091480367
:10481000009709F460C00E9465056816790608F0E3
:104820005AC021E0F80124835F28FFEFAF1ABF0AC6
:10483000095F1F4F28E0A216B10409F08ECF8B85C7
:10484000882309F421C1552009F41EC10E94740572
:1048500090934803809347038091A402883010F519
:1048600091E0980F9093A40298E0FE013996DE0142
:10487000119601900D929A95E1F73CE0839FC0015B
:1048800011248B559D4F28E0FE013196DC010190EB
:104890000D922A95E1F72FEF3FEFFC01318720873A
:1048A000D386C28669960FB6F894DEBF0FBECDBF21
:1048B000DF91CF911F910F91FF90EF90DF90CF90FC
:1048C000BF90AF909F908F907F906F905F904F9030
:1048D0003F902F9008958091450350914603982F63
:1048E000F0E0E0E0851314C090934503E017F10772
:1048F00009F49ACF90E0FC01EE0FFF1FE35CFC4F40
:10490000B182A082019683709927809346038CCF51
:10491000682E712CF301EE0FFF1FE35CFC4F20812A
:10492000318147E0429FD001439FB00D1124AB5F1E
:10493000BC4F6D917C911197798F688F40E020E09A
:1049400030E0E32FF0E0EE0FFF1F688D798DE60F6A
:10495000F71F8080918081149104E1F0F8010190AB
:10496000F081E02DFF8BEE8B20E005C086169706C8
:1049700009F44F2D2F5FE22FF0E0EE0FFF1F6E893D
:104980007F89E60FF71F608171816115710571F7ED
:104990003F5FD7CF4423D1F0F801231708F0FD0182
:1049A00021E024830E171F0721F490934503F42E72
:1049B0003BCF981305C0AE17BF0711F49F5F9370EC
:1049C00093012F5F3F4F822F83708CCFF0E0E0E0A8
:1049D000F7CF90E0E1101FC0B10102C0660F771F52
:1049E0002A95E2F79B01215031098217930731F490
:1049F000442309F447C0C5010E942206C10101C039
:104A0000880F8A94EAF7982F9095F8018681892378
:104A10008683FE2C09CF9C01082C02C03595279572
:104A20000A94E2F7A90141705527BC016150710950
:104A300086239723892B11F5452B01F1F8018281FB
:104A40009381892BC1F01B821C821D821E824982A8
:104A50004A820E9474058160582F9D838C83F801DF
:104A6000828193818F83988729813A814B816D81DF
:104A70007E810E943220F8011582C0CFF22FF170A2
:104A8000EF2EBCCFEF2CBACF909145038091460317
:104A9000981731F00E940521552009F433CE02CF3A
:104AA0000E94A92010924803109247030E945006CA
:104AB000F3CF82E00E94FA0B07CE0F931F93CF93A0
:104AC000DF9300D000D00F92CDB7DEB78C0190936A
:104AD0009B0280939A02011580E2180720F5802F2F
:104AE0000E945D0CC8010E94050D9801205E3109ED
:104AF0002830310510F0012B59F40F900F900F90D2
:104B00000F900F90DF91CF911F910F910C944C0C4F
:104B10000F900F900F900F900F90DF91CF911F91FA
:104B20000F910C943B0C8EEF89838A831B820E9429
:104B300074058160782F9D838C8349815A816B81B4
:104B40008D810F900F900F900F900F90DF91CF916C
:104B50001F910F910C9408230F931F93CF93DF9312
:104B60008C01EB0160E472E08C2F0E945612892BBD
:104B7000A1F480911B0490911C040E94C90DDD27B3
:104B8000C85CDD4F8881F80110821882833009F1FA
:104B900048F4813059F0823081F0DF91CF911F913C
:104BA0000F9108958430D1F08530B9F7809140029B
:104BB00090914102009789F306C080914202909142
:104BC0004302009799F3DF91CF911F910F910C94BD
:104BD0005D258091440290914502F3CF8091460279
:104BE00090914702009779F720914002309141025D
:104BF000809142029091430221153105D9F200972C
:104C000011F7C901E0CF0F931F93CF93DF9300D02B
:104C100000D00F92CDB7DEB78C0190939B028093AA
:104C20009A02011580E21807E8F4C8010E94050DF8
:104C30009801205E31092830310518F00115110561
:104C400071F40E94530C802F0F900F900F900F90D3
:104C50000F90DF91CF911F910F910C948F0C0E94B8
:104C6000420CF1CF8EEF89838A8381E08B830E948F
:104C700074058160782F9D838C8349815A816B8173
:104C80008D810F900F900F900F900F90DF91CF912B
:104C90001F910F910C940823BF92CF92DF92EF9255
:104CA000FF920F931F93CF93DF93B82EC0906304AE
:104CB00080916204C82AC7E0D0E0D12CF12CE12C0D
:104CC000D701C6010C2E04C0B695A7959795879578
:104CD0000A94D2F780FF1FC04B2D60E08C2F0E94FA
:104CE000890F8C0181309105B1F00E9403268FE37A
:104CF0009CE90197F1F700C00000C8010E945D2502
:104D000081E0DF91CF911F910F91FF90EF90DF90A5
:104D1000CF90BF900895219798F64B2D60E080E0EA
:104D20000E94890FEC010E9403268FE39CE9019702
:104D3000F1F700C00000CE01E1CFCF93DF93EC018B
:104D40000E94032680911B0490911C040E94C90DAF
:104D5000CE01DF91CF910C945D250F931F93CF93DC
:104D6000DF938C01862F60E472E00E945612892B3B
:104D7000C9F4C0914002D0914102209799F0F80106
:104D80008081833069F4CE010E949D26CE010E946D
:104D90009D26CE01DF91CF911F910F910C949D26FE
:104DA0008430B8F7DF91CF911F910F9108950F9341
:104DB0001F93CF93DF938C01EB0160E472E08C2FA3
:104DC0000E945612892B09F064C0FE01FF27D8010A
:104DD0008C91E85CFD4F8130D9F419969C9119971C
:104DE000992311F080830CC01A969C919923D1F3DA
:104DF00082E0808380914202909143020097D9F42F
:104E00008091400290914102009709F442C013C082
:104E10008230E9F519968C91199781112DC01A9657
:104E20008C9181110EC083E0808380914402909127
:104E30004502009719F1DF91CF911F910F910C94CA
:104E4000032684E080838091460290914702009778
:104E500091F780914002909141020097F9F00E94F1
:104E60009D268091420290914302009721F7809104
:104E7000400290914102DFCF85E080838091400223
:104E800090914102009729F00E949D26F0CF86E084
:104E90008083DF91CF911F910F91089580914202FD
:104EA00090914302B1CF1F920F920FB60F9211242F
:104EB0002F933F934F935F936F937F938F939F9322
:104EC000AF93BF93CF93DF93EF93FF93D091E9001C
:104ED000DF708091EC00C82FC17080FDC0E8109297
:104EE000E9008091F000877F8093F00078940E9421
:104EF0002E131092E9008091F00088608093F000FA
:104F0000CD2BCF70C093E900FF91EF91DF91CF914E
:104F1000BF91AF919F918F917F916F915F914F91D1
:104F20003F912F910F900FBE0F901F9018951F92D9
:104F30000F920FB60F9211242F933F934F935F93CD
:104F40006F937F938F939F93AF93BF93EF93FF9351
:104F50008091E10082FF09C08091E20082FF05C0DC
:104F60008091E1008B7F8093E1008091DA0080FFE7
:104F700024C08091D80080FF20C08091DA008E7F0D
:104F80008093DA008091D90080FF9BC080E189BDC9
:104F900082E189BD09B400FEFDCF81E08093580411
:104FA00080913304811109C00E94C7030E949204BA
:104FB0008091E20084608093E2008091E10080FFB4
:104FC00017C08091E20080FF13C08091E2008E7FC5
:104FD0008093E2008091E20080618093E200809102
:104FE000D80080628093D80019BC85E08093580473
:104FF0008091E10084FF29C08091E20084FF25C0F8
:1050000080E189BD82E189BD89B5982F917080FFCB
:10501000FBCF8091D8008F7D8093D8008091E100F4
:105020008F7E8093E1008091E2008F7E8093E2008A
:105030008091E20081608093E2008091590488238E
:1050400009F445C084E0809358048091E10083FF17
:1050500027C08091E20083FF23C08091E100877F19
:105060008093E10082E0809358041092590480916B
:10507000E1008E7F8093E1008091E2008E7F80933B
:10508000E2008091E20080618093E20042E060E013
:1050900080E00E9460048091F00088608093F000BE
:1050A000FF91EF91BF91AF919F918F917F916F9100
:1050B0005F914F913F912F910F900FBE0F901F90D6
:1050C000189519BC109258041092330476CF809131
:1050D000E30087FD93E090935804B7CF78941F9234
:1050E0001FB61F9211248F939F93AF93BF9380910C
:1050F0002A0490912B04A0912C04B0912D040196C8
:10510000A11DB11D80932A0490932B04A0932C041D
:10511000B0932D04BF91AF919F918F911F901FBEAF
:105120001F9018951F921FB61F9211248F939F9363
:10513000AF93BF9380912904811113C080912A04F9
:1051400090912B04A0912C04B0912D044196A11DA7
:10515000B11D80932A0490932B04A0932C04B09348
:105160002D04BF91AF919F918F911F901FBE1F90F3
:105170001895CDB7DEB7E4970FB6F894DEBF0FBE33
:10518000CDBF84B7877F84BF0FB6F894A895809170
:105190006000886180936000109260000FBE80E81C
:1051A00090E00FB6F89480936100909361000FBE79
:1051B00085B7806885BF85B7806885BF89E398E03B
:1051C00090938101809380010E946A120E94C01214
:1051D0000E94630F0E94C7030E9492048091E20024
:1051E00084608093E2007894809158048823A1F031
:1051F0001091E9001F709091EC00892F817090FD53
:1052000080E8182B1092E9008091E80083FD0E944D
:105210002E131F701093E90082E084BD93E095BDCA
:105220009AEF97BD80936E000E947D10811102C09D
:105230000E94471203E511E09BE5E92E91E0F92E6B
:10524000D8018D918D018F3F11F00E943B08E0162F
:10525000F106B1F70BE511E081E6E82E81E0F82ECA
:10526000F80181918F018F3F11F00E943B08E016F9
:10527000F106B1F7ECE0F2E084E192E0A3E2B2E003
:1052800011921D928E179F07D9F790E080E00E943F
:10529000A12F8A3E9E4F21F40E947D10811102C0F1
:1052A0000E94001682E090E00E94992F80931802DD
:1052B0000E94961090932F0480932E040E94AF2199
:1052C0002FEF36E741E0215030404040E1F700C089
:1052D00000000E94AF218091230280FF08C06FEF81
:1052E0007FEF90E080E00E94C52F0E94540583E08C
:1052F00090E00E94992F0E94370C22982A9A2698B3
:105300002E9A83B182FB882780F91E9949C190E0CB
:10531000892B8093160281E091E09093260480937C
:105320002504A8E16A2E712CB0E43B2E1BE2A12ECD
:1053300012E0B12E8E010F5F1F4F80915804E0E103
:10534000EE2EF2E1FF2E853009F45FC10E94AF21FD
:10535000882359F08FB7F89440912A0450912B0478
:1053600060912C0470912D048FBFE9E1F2E0A3E27B
:10537000B2E0F12CE12C3E2D8D919191981709F41A
:1053800053C1292F282790E0DD24D3944D2D4223AB
:1053900009F445C19BA73CA78D2191E009F490E059
:1053A0009DA70E9474058160782F9FA78EA74BA5AB
:1053B0005CA56DA58FA50E940823F701E75EFD4F50
:1053C0008081D826D082E0911602EE0FEE0FE09396
:1053D000160283B182FB442440F81E993EC180E04E
:1053E0008429E82BE0931602EF70F0E0EF59FE4FAE
:1053F000808190911502890F8093150220E08430FE
:105400004CF0809114028F5F8093140280E00E9420
:105410004C2621E0809115028D3F4CF480911402BE
:1054200081508093140281E00E944C2621E08091FB
:105430001502082E000C990B64E070E00E94422FC8
:1054400080931502222359F08FB7F89440912A04D3
:1054500050912B0460912C0470912D048FBF86E035
:10546000E2E3F2E0D80101900D928A95E1F7C09055
:105470003402D0903502E0903602F090370210925C
:1054800034021092350210923602109237028C2D9F
:105490008D2991F080913002909131020E94650532
:1054A000AC0190912C02992309F4DAC08091130188
:1054B0008417150608F4E2C08E2D8F2991F0809193
:1054C0002E0290912F020E946505AC0190912B0253
:1054D000992309F412C180910F018417150608F46D
:1054E0001AC18091340290913502892B9091360235
:1054F000892B90913702892B11F00E948F0686E04C
:10550000F801A2E3B2E001900D928A95E1F70E94C2
:105510000B0690911702891721F00E940B068093C9
:10552000170280915804843009F007CF83E08093FC
:10553000E9008091E80082FF00CF8091E80090E0D0
:1055400085FF0AC00E94E60370E2E72EF12C680195
:10555000882309F429C191E08091E8008B7780933A
:10556000E800992309F4E9CEE0909C02F0909D02B6
:105570008981E114F10409F425C18E3F09F06DC160
:105580008A81833020F08550833008F066C1EA813B
:10559000EE3008F062C1F0E0E75FFF4C0C94562F4C
:1055A00092E0B6CE80915804843009F1109229041B
:1055B0000FB6F894A895609260000FBE309260001C
:1055C00083B7817F846083BF83B7816083BF789412
:1055D000889583B78E7F83BF0FB6F894A895809186
:1055E0006000886180936000109260000FBE80911F
:1055F0005704882351F00E94AF21E3E2F2E0819149
:105600008111D5C3AE16BF06D1F7809158048530FD
:1056100009F4C8CF0E9419130E940B0697CE9F5F12
:10562000DD0C963009F0B2CE8FEFE81AF80A98E058
:10563000E916F10409F09FCE8FEF88AB89AB1AAA67
:105640000E9474058160782F9CAB8BAB48A959A947
:105650006AA98CA90E940823B6CE82E090E0C0CE51
:1056600020911401AAE02A9F9001112424173507E4
:1056700008F022CF9F5F90932C0202C09F3FD1F78A
:10568000CC2059F00E9472079FEF1C140CF491E09B
:10569000899F802D112480933402DD2059F00E94CF
:1056A00072079FEF1D140CF491E0899F802D112447
:1056B0008093350230913402332309F4FDCE2091DA
:1056C0003502222309F4F8CE45EB3403C00111243E
:1056D000992359F09093340245EB2403900111244F
:1056E000332339F030933502E7CE81E080933402E2
:1056F000F3CF81E080933502DFCE209110018AE064
:10570000289F900111242417350708F0EACE9F5FE7
:1057100090932B0202C09F3FD1F7EE2059F00E94D8
:1057200039079FEF1E140CF491E0899F802D1124FE
:1057300080933602FF2059F00E9439079FEF1F1413
:105740000CF491E0899F802D1124809337023091D1
:105750003602332309F4C5CE20913702222309F4FF
:10576000C0CE45EB3403C0011124992359F0909326
:10577000360245EB240390011124332339F0309392
:105780003702AFCE81E080933602F3CF81E0809381
:105790003702A7CE8091F100D6018D936D01B1E063
:1057A000EB1AF10809F4D7CE8091E80085FDF2CF1D
:1057B0008091E8008B778093E8000E94E6038823BD
:1057C00099F3C9CE8D3009F4B8C0B0F4843009F42F
:1057D0009BC040F4823041F108F087C0813001F174
:1057E0008FEF11C3863009F4A5C008F498C08C303F
:1057F000B9F780E18A8331C0813109F4FAC040F4FD
:105800008F3009F4C8C008F49CC00E94021125C062
:10581000833109F419C108F4EEC08E3F09F7B7CE01
:105820001A8289E08B8319C08A81823009F40DC302
:105830008330E1F18130A1F62FB7F89460912A040A
:1058400070912B0480912C0490912D042FBF0E9405
:105850005C2F6B837C838D839E838091580484307E
:1058600009F06BCDF090E9002F2D2F70F22E909162
:10587000EC00892F817090FD80E8F82A82E0809307
:10588000E9008091E80080FF0CC050E040E060E259
:1058900070E0C8010E9417048091E8008E77809321
:1058A000E8008F2D8F708093E90047CD80910B0128
:1058B00090910C01892B89F2809123028B83809136
:1058C00024028C83809125028D83809126028E8311
:1058D000809127028F8380912802888780912902F6
:1058E000898780912A028A87B8CF8A81823009F01D
:1058F00077CF6B817C818D819E810E945C2F86E2B7
:1059000090E00E94A72FA9CF4C816B818A810E94D1
:10591000B20F9827892798279E838D839ECF2D814C
:105920003E813227232732274C816B818A810E9456
:10593000431193CF0E94AA1190CF81E08A8387E818
:1059400071CFEC80F12CEDE1EE16F10408F085CF7B
:10595000CA80DB80DC24CD24DC244801E00EF11E6B
:10596000C60187589D4F8E149F0409F476CFF7E83F
:10597000CF16F1E0DF0660F40E94992FD40114964F
:105980008C93FFEFCF1ADF0A2FEF821A920AE8CF2B
:10599000F4011482F6CF80910B0190910C01892BB8
:1059A00009F45BCFCC80D12C3DE1C316D10408F0C3
:1059B00054CFEA80FB80FE24EF24FE244801CE0C65
:1059C000DF1CC70187589D4FCE14DF0409F445CF73
:1059D00047E8E41641E0F40628F4D40114966C91EB
:1059E0000E94A72FBFEF8B1A9B0AEFEFEE1AFE0A59
:1059F000E8CF84E0FFCEEC80F12CFDE1EF16F1045E
:105A000008F02BCFCA80DB80DC24CD24DC244801C5
:105A1000E00EF11EC60187968E149F0409F41DCF77
:105A200020E8C21621E0D20660F40E94992FD4012A
:105A300014968C93FFEFCF1ADF0A2FEF821A920A87
:105A4000E9CFF4011482F6CFCC80D12C3DE1C3160E
:105A5000D10408F002CFEA80FB80FE24EF24FE246C
:105A600040E8E41641E0F40608F0F7CE80E891E063
:105A70008E199F098C159D0508F4EFCE4801CE0CB8
:105A8000DF1CC7018796EC14FD0409F4E6CEA0E8FC
:105A9000EA16A1E0FA0620F4F40164810E94A72F1F
:105AA000FFEF8F1A9F0A2FEFE21AF20AEACF88E07F
:105AB000EAE1F1E0DE01919601900D928A95E1F71D
:105AC00080E2D8011D928A95E9F784E0898388E015
:105AD000FE01B196DE01159601900D928A95E1F7CF
