:100000000C9499040C94E0040C94A52F0C94E00437
:100010000C94E0040C94E0040C94E0040C94E004D0
:100020000C94E0040C94E0040C948D260C94492666
:100030000C9488270C94E0040C94E0040C94E004E5
:100040000C94E0040C94E0040C94E0040C94E004A0
:100050000C94E0040C9464270C94E0040C94E004E9
:100060000C94E0040C94E0040C94E0040C94E00480
:100070000C94E0040C94E0040C94E0040C94E00470
:100080000C94E0040C94E0040C94E0040C94E00460
:100090000C94E0040C94E0040C94E0040C94E00450
:1000A0000C94E0040C94E0040C94E00405010902B3
:1000B000A10185020901A100050919012905150001
:1000C00025019505750181029501750381010501E1
:1000D000093009311581257F950275088106093897
:1000E0001581257F950175088106050C0A380215D2
:1000F00081257F950175088106C0C005010980A191
:1001000001850319012AB700150126B7009501756D
:10011000108100C0050C0901A101850419012AA064
:1001200002150126A002950175108100C005010984
:1001300006A1018505050719E029E71500250195A8
:1001400008750181020507190029EF1500250195A1
:10015000F0750181020508190129059505750191C0
:1001600002950175039101C00660FF0961A10109B3
:1001700062150026FF0095207508810209631500AD
:1001800026FF00952075089102C005010906A1010E
:10019000050719E029E71500250195087501810279
:1001A0009501750881010507190029FF150026FF33
:1001B0000095067508810005081901290595057542
:1001C000019102950175039101C00000000000003B
:1001D000000000000000000000000000000000001F
:1001E00000000000000000000000000000007E0F82
:1001F00000D4FFFFFFC700000078000000000000EF
:1002000000002A2B28000000000000000000000071
:10021000000000000029000000002C1E34202122D4
:1002200024342627252E362D3738271E1F2021223D
:10023000232425263333362E37381F0405060708B6
:10024000090A0B0C0D0E0F101112131415161718A6
:10025000191A1B1C1D2F3130232D350405060708E4
:10026000090A0B0C0D0E0F10111213141516171886
:10027000191A1B1C1D2F3130354C00047F3F1F64A1
:100280003214643214783C1E1E140A05FD377A5865
:100290005A000004E6D6B446020021011600000010
:1002A000742FE5A3E0069E01B15D003D8889C65428
:1002B00036C3174FE4DF23E37038242A43AA1956C4
:1002C0006A3EA89E5DD58D46B85A19F33F4A8C14F4
:1002D000BB6145910443D2239F0D0E80440ACFBCDD
:1002E0000236CCE9E797C3BA011278407AA2446794
:1002F000456E3D8532D01CB9BFD5D61ED84BEE3CDD
:1003000036B43A968AA143D7695C9FBE698D9594AD
:100310002EFFFA63A9537187E0F741CED3B734B407
:10032000612C3EF0C13902512A963ED6FDB78A288B
:10033000E3E740C2B178C9D02467410D86DC668A04
:1003400018145EAAAA5712302573AA3365998842F9
:10035000919660F6CAD56749AAEAE537C02D02F939
:100360001984498394B9014A2877EF01D320AA5B05
:10037000B3218B0D1BE1AAC7A8A0FFC561C5B64B71
:100380001A9753EB757937D9C2D952A594EFF14E2C
:10039000916DD63367A22E0BA035EE6709A7706565
:1003A0004212931BBD416F5ED1C2738341D26D3A3D
:1003B000416F60A9DF3F918BE29BF52F8148E38F6E
:1003C0001B9E2C5EDC2F9BEFCA220FE04D1EAD144E
:1003D000102A352C0BBEF32106368240CE385BAC9A
:1003E000755C3F2FFD694F7EA2E03EE73C38D79613
:1003F000D6263B598D99530B7E57CE3924E3711B7A
:100400001F2B697F2EF3998A0A0392279CCFD1D1A3
:1004100087A659CB1F1676F234D8C2C5E10FDBA9E7
:10042000F9A227D6C4BBB00D88FF9D98214EAB6DB5
:100430009B7D5D49E3F67A1D7346A49D8F3846D7B0
:10044000EFB600DF2CFE5768685E5EF977A794115F
:10045000EA236E7F2770D4AEA9A8356200000000A1
:10046000F9C7CCCD99E821C90001CD039F0D00004B
:10047000C6C178C4B1C467FB020000000004595A29
:100480000001010101010101010102020202020257
:10049000020202030303030303030304040404042A
:1004A00004040505050505060606060607070707F1
:1004B0000708080808090909090A0A0A0B0B0B0CA6
:1004C0000C0C0D0D0D0E0E0E0F0F0F101011111143
:1004D00012121313141415151616171718181919C4
:1004E0001A1A1B1B1C1D1D1E1E1F20202122222329
:1004F0002424252626272829292A2B2C2D2D2E2F6A
:1005000030313232333435363738393A3B3C3D3E80
:100510003F404142434445464748494A4C4D4E4F6F
:1005200050515354555658595A5B5D5E5F61626431
:10053000656668696B6C6D6F7072737577787A7BBE
:100540007D7E8082838587888A8C8E8F9193959615
:10055000989A9C9EA0A2A3A5A7A9ABADAFB1B3B535
:10056000B7BABCBEC0C2C4C6C9CBCDCFD1D4D6D811
:10057000DBDDDFE2E4E7E9EBEEF0F3F5F8FAFDFFAF
:10058000FFAA7F55402223252628292A2C2D2F30EB
:1005900032333536383A3B3D3E4042434547494A7F
:1005A0004C4E5051535557595A5C5E6062646668B0
:1005B000696B6D6F71737577797B7D7F81838587BB
:1005C000898A8C8E90929496989A9C9E9FA1A3A5BE
:1005D000A7A8AAACAEAFB1B3B4B6B8B9BBBCBEBFE6
:1005E000C1C2C3C5C6C7C9CACBCCCDCED0D1D2D269
:1005F000D3D4D5D6D7D7D8D9D9DADADBDBDBDCDC74
:10060000DCDCDCDDDDDDDDDCDCDCDCDCDBDBDBDA2B
:10061000DAD9D9D8D7D7D6D5D4D3D2D2D1D0CECD96
:10062000CCCBCAC9C7C6C5C3C2C1BFBEBCBBB9B8A3
:10063000B6B4B3B1AFAEACAAA8A7A5A3A19F9E9C28
:100640009A98969492908E8C8A89878583817F7DF3
:100650007B79777573716F6D6B6968666462605ED4
:100660005C5A5957555351504E4C4A49474543429D
:10067000403E3D3B3A3836353332302F2D2C2A2937
:1006800028262523222E001E001F002000210022E4
:100690000050004C0014001A00080015001700015B
:1006A000532A0004001600070009000A000000E1B8
:1006B000001D611B00060019000500E200354134F1
:1006C00000E10450004F000000000000004D002C2D
:1006D000002A004A006564E3002D0027002600255B
:1006E00000240023004F003100130012000C0018FA
:1006F000001C000153340033420F000E000D000BAC
:10070000000000E50038003700360010001100E658
:1007100000015830002F005100520000000000007E
:10072000004E0028002B004B002961E2000100016F
:1007300000010001000100010001000100010001B1
:1007400000010001000100010001000100010001A1
:100750000001000100000001000100010001000192
:100760000001000100010001000100010001000082
:100770000000000000010001000100010001000173
:100780000001000100010001000100010001000161
:100790000001000100010001000100010001000151
:1007A000000100010001000100000001000100AB98
:1007B00000AC000100010001000100010001000186
:1007C0000001000000000000000100010001000124
:1007D0000001000100010001000100010001000111
:1007E0000001000100010001000100010001000101
:1007F00000010001000100010001000100000001F2
:1008000000010001000100010001000100010001E0
:1008100000010001000100000000000000010001D3
:1008200000010001000100010001000100010001C0
:1008300000010001000100010001000100010001B0
:1008400000010001000100010001000100010001A0
:1008500000000001000100AB00AC0001000100013C
:100860000001000100010001000100000000000083
:100870000001000100010001000100010009025B0C
:1008800000030100A0FA09040000010301010009AE
:1008900021110100012240000705810308000A0917
:1008A00004010002030000000921110100012222BD
:1008B000000705820320000107050303200001094A
:1008C000040200010300000009211101000122BC03
:1008D000000705840320000A12010002000000083E
:1008E000276226310100010203011C037600690022
:1008F00061006C003A00660036003400630032008C
:1009000062003300630000001203450072006700BC
:100910006F00470072006900640000001003670068
:1009200072006C00640074006D006B000000040332
:10093000090411241FBECFEFDAE0DEBFCDBF04B63D
:1009400003FE27C08091880390918903A0918A03B8
:10095000B0918B038730904BA740B04BD1F41092ED
:1009600088031092890310928A0310928B0314BE9D
:1009700084B7877F84BF0FB6F894A89580916000F4
:10098000886180936000109260000FBEE0E0F8E3A1
:10099000099511E0A0E0B1E0E0EEF4E602C00590B8
:1009A0000D92A83FB107D9F723E0A8EFB1E001C04D
:1009B0001D92A838B207E1F70E94AF270C943C3291
:1009C0000C940000E8EDF0E080818E7F808310922F
:1009D000E2001092DA001092E100A0EEB0E08C91FB
:1009E00081608C9380818F77808319BCA7EDB0E004
:1009F0008C918E7F8C9380818F7E808310925503A3
:100A000008952091E4003091E50095E6A901209138
:100A1000EC00822F817020FF06C08091E80080FFEB
:100A200006C080E008952091E80022FD1AC0809160
:100A30007A03882389F0853089F08091EB0085FD69
:100A40000FC02091E4003091E50042175307F9F2FE
:100A50009150E1F684E0089582E0089583E00895DE
:100A600081E00895EF92FF920F931F93CF937C0143
:100A70008B010E940105C82F811117C08091E800E9
:100A800085FD0BC08091E8008E778093E8000E947E
:100A90000105882399F3C82F08C0F70181917F01D0
:100AA0008093F1000150110949F78C2FCF911F91CC
:100AB0000F91FF90EF90089580917C0387FF13C002
:100AC0008091E80082FF06C08091E8008B778093D8
:100AD000E80004C080917A038111F2CF08958091DB
:100AE0007A038823D9F38091E80080FFF8CF8091C2
:100AF000E8008E77ECCF982F9093E900242F762F83
:100B000050E0891731F07091EC002091ED00509188
:100B1000F00021FD07C09F5F973071F78093E900D7
:100B200081E008953091EB003E7F3093EB003091EF
:100B3000ED003D7F3093ED003091EB00316030935C
:100B4000EB007093EC002093ED005093F0002091A7
:100B5000EE0027FDE0CF80E00895CF92DF92EF9284
:100B6000FF920F931F93CF93DF93C8EDD0E088815E
:100B70008F7E8883E7EDF0E080818160808384E070
:100B800082BF81E08093550388818E7F888302EE47
:100B900010E0F80110821092DA0081EEC82ED12CFC
:100BA000F601108288818F778883888180688883A6
:100BB00088818F7D888319BC10927A0310927B0301
:100BC000109279031092780390EEE92EF12CF70140
:100BD00080818B7F808388818160888342E060E0B0
:100BE00080E00E947B05F60180818E7F8083F80182
:100BF000808181608083808188608083F70180812B
:100C00008E7F8083888180618883DF91CF911F915F
:100C10000F91FF90EF90DF90CF900895FC018091AD
:100C200082039091830386179707A0F061157105E1
:100C300029F49091E8009E779093E80090E0611588
:100C4000710551F4911108C08091E80082FF34C011
:100C500080E00895BC01F2CF80917A038823C1F12E
:100C60008530C1F18091E80083FD30C08091E800BB
:100C700082FDEACF8091E80080FFE1CF8091F30010
:100C80002091F200382F6115710519F028303105D7
:100C900058F091E02830310509F090E02091E8000B
:100CA0002E772093E800CBCF81918093F1006150A3
:100CB00071092F5F3F4FE7CF80917A03882341F07E
:100CC000853041F08091E80083FFBECF81E0089538
:100CD00082E0089583E0089580915703089587E79F
:100CE00097E7909301088093000888E19AE00FB697
:100CF000F894A895809360000FBE90936000FFCF9A
:100D00009C014FB7F89480914C0390914D03A091B2
:100D10004E03B0914F034FBF821B930B08952FB723
:100D2000F89460914C0370914D0380914E03909123
:100D30004F032FBF08952FB7F89480914C039091E3
:100D40004D03A0914E03B0914F032FBF0895209102
:100D50004503309146032817390771F090934603F5
:100D600080934503E0914303F0914403309721F0D1
:100D70000084F185E02D099408952091410330917C
:100D800042032817390771F090934203809341037F
:100D9000E0914303F0914403309721F00680F781FE
:100DA000E02D09940895FC01680F791F8FEF91E3FE
:100DB0002191822728E030E087FF09C0880F89272A
:100DC00021503109C9F7E617F70791F70895880F01
:100DD000F7CFFA01811101C0FB0109940895E5EFF5
:100DE000F2E01182828184608283089580913703CA
:100DF000982F9E7F29F48170826080933703089535
:100E00008A34E8F381708864F8CFAF92BF92DF92A2
:100E1000EF92FF920F931F93CF93DF93082F162F1C
:100E2000E901E42FF0E0E058FB4F611110C0E491BC
:100E30005E2F4E2F4983E8835A83DF91CF911F9114
:100E40000F91FF90EF90DF90BF90AF900895E62E46
:100E5000F12C4491D42EE42FF0E026E0829FC001D3
:100E600011242FEF30E0B9010E942D31802F90E046
:100E7000880F991F55E5569FD001579FB00D11243B
:100E80008A1B9B0B982F990F890F5901AE18BF0829
:100E9000AE9ED001AF9EB00DBE9EB00D11245B2F53
:100EA000189F80011124012F11275901A01AB10A9E
:100EB000AE9E8001AF9E100DBE9E100D11245901F3
:100EC000A81AB108AE9CC001AF9C900DBE9C900DBD
:100ED0001124892F9927281B390B2E9FC0012F9F82
:100EE000900D3E9F900D1124E92F62307105A1F005
:100EF00050F46115710509F49DCF6130710581F0E1
:100F0000EB2F512F97CF6430710569F080F0663078
:100F1000710509F48FCFF4CFE42F4B2F592F8ACFCF
:100F2000E42F412F87CFEB2F542F492F83CF4B2F07
:100F30005D2DE12F7FCF0E949B069C019091EB02DB
:100F40008091EC02982B21F03093E8022093E70285
:100F50009091ED028091EE02982B21F03093E60201
:100F60002093E502E0914303F0914403309749F068
:100F700082E08093E9020480F581E02D89EE92E021
:100F8000099408959091EB02803F59F48091EC020E
:100F900087FF0DC01092EC0291110BC01092E3027A
:100FA00008C0813F81F48091EC0218169CF39923CC
:100FB00081F08091ED029091EE02892B09F064C0DE
:100FC0001092E2020895823F49F497FFF0CF109209
:100FD000EB028091EC028111ECCFE0CF833F19F45A
:100FE0001916ACF3E4CF2091ED02893F29F41216D3
:100FF000F4F61092ED02DBCF8A3F19F427FFD7CF2A
:10100000F8CF2091EE028B3F29F427FFD0CF10922A
:10101000EE02CDCF8C3F19F41216CCF3C8CF843F2B
:1010200031F48091EA028E7F8093EA02C0CF853F3F
:1010300021F48091EA028D7FF7CF863F21F48091E1
:10104000EA028B7FF1CF873F21F48091EA02877F0C
:10105000EBCF883F21F48091EA028F7EE5CF8D3F70
:1010600031F48091E4028E7F8093E402A0CF8E3F22
:1010700021F48091E4028D7FF7CF8F3F09F097CF65
:101080008091E4028B7FF0CF08958091E40280FD8F
:1010900016C081FD16C082FD16C08091E202882331
:1010A000A1F0883280F428E0829FC001112468E218
:1010B00070E00E944131862F672B39F0089582E05D
:1010C000089584E0089588E0089581E0089580916E
:1010D000E40280FD14C081FD14C082FD16C0809121
:1010E000E302882381F0843180F422E3829FC001EF
:1010F000112464E170E00E944131862F08958CE054
:10110000089589E1089585E0089582E30895803F78
:1011100031F40E94670881958093EC020895813F25
:1011200019F40E946708F8CF823F31F40E946708E3
:1011300081958093EB020895833F19F40E9467081C
:10114000F8CF893F29F40E9445088093ED02089565
:101150008A3F21F40E9445088195F7CF8B3F31F4F7
:101160000E94450881958093EE0208958C3F19F402
:101170000E944508F8CF843F31F48091EA028160F3
:101180008093EA020895853F21F48091EA0282600B
:10119000F7CF863F21F48091EA028460F1CF873F48
:1011A00021F48091EA028860EBCF883F21F480919E
:1011B000EA028061E5CF8D3F31F48091E4028160E5
:1011C0008093E40208958E3F21F48091E4028260CE
:1011D000F7CF8F3FB9F78091E4028460F1CF80E0D0
:1011E000089578940895F894E82FE295EF70F0E070
:1011F00031A1282F2F7081E090E001C0880F2A953F
:10120000EAF7982F9095932391A392A1892B82A31B
:101210000C94F1089091500392FF06C0282F28717A
:101220002830F9F4877F846093FF06C0282F287147
:101230002831F1F4877E84612091510320FF06C09C
:10124000382F38713830D9F4877F816021FF06C08C
:10125000282F28712831D1F4877E816194FD877E03
:101260000895282F24712430F9F68B7F8860DCCF15
:10127000282F2471243101F78B7E8861DDCF382F30
:101280003171313019F78E7F8860E0CF282F2171BE
:10129000213121F78E7E8861E1CFCF93DF93EC017E
:1012A0008238910581F1B0F58133910509F491C03F
:1012B00020F58932910509F485C08A9709F490C018
:1012C000C11520E5D20708F0A7C0C11530E4D30747
:1012D00008F0F6C0CF3BD10508F089C0C83AD10567
:1012E00008F0E1C0C53AD10508F0D5C0C430D10539
:1012F000F8F4C130D105E1F040C08533910509F41F
:101300005AC0C997E9F680915003837089F0C0EE06
:10131000D0E00EC0833E910599F170F4803E9105B6
:1013200001F1823E910561F68091500382FD21C05A
:10133000CE01DF91CF910895863E910561F1873E00
:10134000910571F1843E910509F0BACF8091510366
:1013500081FFEECF80915003C7EED0E084FD0DC039
:10136000E7CF8091500380FDFEC09091510390FF24
:10137000DFCFC3EED0E084FFDBCFD0E0C0E0D8CF3A
:101380008091500382FDF2C09091510390FDBFCF38
:1013900084FFCECFF2CF8091500383FDDDCFC8CF45
:1013A0008091500383FDE5C09091510391FFF0CFF0
:1013B000C4EED0E0BDCF8091500385FFB9CFC9E224
:1013C000D0E0B6CF8091500385FFB2CFC5E3D0E027
:1013D000AFCF8091500386FFABCFCAE2D0E0A8CF59
:1013E0008091500386FFA4CFC1E3D0E0A1CFCF3FCF
:1013F000D10509F058F4C03FD10508F05FC0CE0117
:10140000805E9109089708F493CFB7CFC11540E2E9
:10141000D40708F48DCFB1CFC11584E5D807A0F467
:10142000C11593E5D90708F07CC0C11522E5D207A4
:1014300008F066C0C11531E5D30708F444C0DC2FBD
:10144000CC27C16FD06A74CFC1154AE5D40778F4B0
:10145000C11589E5D80708F078C0C11598E5D90706
:1014600008F48BCFDC2FCC27C06FD06A61CFCE01C0
:1014700090568115904208F080CF8D2F8F710E9479
:101480000A0990E0982F882788279F719C012C2BB0
:10149000E901D0624DCFC55AD0E0CB58DE4FC881AC
:1014A000D0E0D06445CFC85AD0E0CC0FDD1FC8587B
:1014B000DE4F0990D881C02DD4643ACFD06538CFA3
:1014C000DF70D06A35CFCE0164E0969587956A9536
:1014D000E1F783702C2F26952695237040E2249FF8
:1014E00090011124382B8C2F8370C1E0D0E002C012
:1014F000CC0FDD1F8A95E2F7C22BD32BDC6818CF07
:10150000CE018370992721E030E002C0220F331F03
:101510008A95E2F7C695C69580E2C89FE00111243E
:10152000EBCFCE018370992721E030E002C0220F7B
:10153000331F8A95E2F7C695C69590E2C99FE001F0
:101540001124C22BD32BDA68F3CE8C2F8F700E941C
:101550000A0934E0D695C7953A95E1F7CF709C2FEC
:10156000EC01D069E5CEC9E3D0E0E2CEC2EED0E036
:10157000DFCEC6EED0E0DCCE0C948F0680917702F1
:1015800090917602892B90917502892B8093FA01B4
:10159000E0914303F0914403309799F090916501F5
:1015A000992349F09091500397FF05C08093FB0168
:1015B00085E08093FA010280F381E02D8AEF91E0CB
:1015C00009940895909165019923D1F09091500369
:1015D00097FF16C0E82FE695E695E695EE31E0F424
:1015E000F0E0E650FE4F282F277081E090E001C028
:1015F000880F2A95EAF7809592818923828308953E
:10160000ECEFF1E09191891303C0DF0111971C9277
:1016100092E0E230F907B1F70895909165019923BE
:10162000C1F09091500397FF14C0E82FE695E6951E
:10163000E695EE31F8F4F0E0E650FE4F877021E0D9
:1016400030E001C0220F8A95EAF78281822B8283E3
:101650000895ACEFB1E0EFEF90E02D91821751F0DB
:10166000EF3F19F4211101C0E92F9F5F9630A9F7D0
:10167000EF3F09F408950E2E000CFF0BE650FE4FCD
:10168000E6CF8091740290914302981301C00895AF
:101690008F5F8770FACF9E3F49F1E82F27E0929F36
:1016A000E00D11249E2F9770E695E695E69583E070
:1016B000E89FF0011124E45EFD4F50E040E080E03F
:1016C000219130E0092E02C0369527950A94E2F761
:1016D00021703327042E01C0220F0A94EAF7822BCF
:1016E0004F5F5F4F4330510559F7089580E00895EB
:1016F0009E3F69F1E82F27E0929FE00D11248E2F85
:10170000877041E001C0440F8A95EAF7E695E695B7
:10171000E69583E0E89FF0011124E45EFD4F30E0A0
:1017200020E070E05191DF011197CB01022E02C041
:10173000969587950A94E2F7817081958527842391
:1017400085278C932F5F3F4F2330310559F708953C
:1017500090E080E00E94BD0690E080E00E94A70635
:1017600010927602109275020E94BE0A86E0E9EE9F
:10177000F2E0DF011D928A95E9F71092E3021092E0
:10178000E2021092E4020C949B07809387030C946E
:10179000A80B80918703982F9670963019F4886073
:1017A0000C94C50B877FFCCF21E030E001C0220FF5
:1017B0008A95EAF720958091870382230C94C50BC4
:1017C00021E030E001C0220F8A95EAF7809187037B
:1017D000822B0C94C50B80933C030C94A80B88239C
:1017E00041F08095909176028923809376020C9443
:1017F000BE0A0895882339F090917602982B909331
:1018000076020C94BE0A0895882341F08095909149
:1018100077028923809377020C94BE0A0895882367
:1018200039F090917702982B909377020C94BE0A2E
:1018300008959C013A9521153F4150F5FC01EE2792
:10184000F170BC0166277270AC01442754709C0192
:101850002227387094FF0EC080E1EF2B09F480E05E
:10186000672B09F08062452B09F08064232B89F0F7
:101870008068089581E0EF2B09F480E0672B09F080
:101880008260452B09F08460232B19F0886008954D
:1018900080E0089590917A03943029F58093520363
:1018A00070935403609353039093E9008FEF9091EA
:1018B000E800815095FD06C095ED9A95F1F700007E
:1018C0008111F5CF8091E80085FF0DC050E040E028
:1018D00063E070E082E593E00E9432058091E800C9
:1018E0008E778093E8000895BC0184E00C944A0C44
:1018F000BC0183E00C944A0C9C0184E08093E900D5
:101900009FEF8091E800915085FD06C085ED8A9596
:10191000F1F700009111F5CF8091E80085FF0CC030
:1019200050E040E066E070E0C9010E94320580911D
:10193000E8008E778093E8000895CF93DF93EC0161
:10194000809165018823B1F18091500387FF32C0F7
:1019500060E284E08093E9008FEF9091E80081508D
:1019600095FD06C095ED9A95F1F700008111F5CF30
:101970008091E80085FF1BC08091650170E050E018
:1019800040E0811104C050E040E068E070E0CE012A
:101990000E9432058091E8008E778093E80080E213
:1019A000FE01A8E5B3E001900D928A95E1F7DF9181
:1019B000CF91089568E081E0CDCF60915F01809183
:1019C000370380FF20C080915E0143E0849FC00107
:1019D000112485509D4F269A25B12F7B35B1306457
:1019E0005FB7F894FC01649FE00DF11D1124BF0165
:1019F00068177907D1F45FBF8FE594E00197F1F79D
:101A000000C000000895809160019091610123E081
:101A1000829FF0011124E550FD4F8917A0F6118235
:101A2000108212828F5F3396F8CFFC014191CF0173
:101A3000E8E035B9000000C047FF25B9440F0000B9
:101A400000C000C000C025B900C0EA9591F7D0CF12
:101A50000F931F93CF93DF93EC0110E000E0909180
:101A600062019017110609F06CF40E94DD0C8C8164
:101A700090E00196817099278C83DF91CF911F911F
:101A80000F91089520916001A801420F511D9A0104
:101A9000220F331F240F351F25503D4F4C8160917D
:101AA00039038091380396959017110651F04CF048
:101AB000442349F040913A030E9405070F5F1F4FEE
:101AC000CECF4423B9F340E0F7CF8F929F92AF92ED
:101AD000BF92CF92DF92EF92FF920F931F93CF931B
:101AE000DF93EC014C81042F10E09801D8010E9493
:101AF0008C319B01AC010E94A2314B015C01E0E200
:101B0000F0E0E01BF10BA5E5B0E0AC019B010E9409
:101B1000A2316B017C019F01DF010E9484319B0196
:101B2000AC010E94AD319B01AC01280D391D4A1D4D
:101B30005B1DC701B6010E945531F22E822F90E045
:101B400039E23F1560F143E0249F9001112435955F
:101B50002795122F109500E085E5E82EEF1880916B
:101B60006201081758F10E94DD0C9C8181E09923E5
:101B700019F0903219F48FEF80935D0180915D012F
:101B8000890F8C83DF91CF911F910F91FF90EF9080
:101B9000DF90CF90BF90AF909F908F90089525E5F4
:101BA00030E0B901681B790B9B01220F331F260F10
:101BB000371F37FFCCCF2F5F3F4FC9CF8E2D01FD91
:101BC0008F2D20916001622F600F7727771F9B0177
:101BD000220F331F260F371F25503D4F412F609195
:101BE00039030E9405070F5FBACFEF92FF920F9360
:101BF0001F93CF93DF93EC018C81811109C081E0A9
:101C00008C831092F90292E090935C0180935B01C7
:101C1000809160019091610123E0829FF001112485
:101C2000E550FD4F891768F110E003E06091620113
:101C3000161768F10E94DD0C80915B012091F9027A
:101C4000280F2093F90290915C01980F90935C010A
:101C5000191654F4022E000C330B409162014150CE
:101C6000550B2417350734F0819580935B01813043
:101C700009F41C82DF91CF911F910F91FF90EF909B
:101C800008951182108212828F5F3396CBCFE12E9E
:101C9000F12C70E0C7010E94413120916001820F58
:101CA000482F50E02091F902022E000C330BE2166F
:101CB000F306BCF020915C01022E000C330B2E15B4
:101CC0003F057CF0809F9001112425503D4F4091AD
:101CD0003A0360913903809138030E9405071F5F22
:101CE000A5CFFA01EE0FFF1FE40FF51FE550FD4FE2
:101CF000118210821282F3CF8F929F92AF92BF9285
:101D0000CF92DF92EF92FF920F931F93CF93DF93C7
:101D1000EC018A81BB24BA9480FD02C0BB24B39439
:101D2000A09062018C81811109C081E0B81228C0A5
:101D30008FEF8A0D8093F80281E08C83F12CE12CE7
:101D400044E1942EEA14F8F00E94DD0C8091F80230
:101D500091E0B9125FC0811158C080916201815039
:101D60008093F8021C82DF91CF911F910F91FF9019
:101D7000EF90DF90CF90BF90AF909F908F9008959D
:101D80001092F802D9CF009160010E0D1F2D111D88
:101D9000C801880F991F080F191F05501D4FF80122
:101DA00011821082128234E0C32ED12C812C8091BA
:101DB000F802880D85312CF1692D0E941F31892F81
:101DC000082E000C990B8E159F0591F480913A0313
:101DD0008C9DA0018D9D500D1124559547955595CD
:101DE0004795980160913903809138030E94050757
:101DF0008B0CF1E0CF1AD108D1F68FEFE81AF80A70
:101E0000A1CF87FFDDCF8A0DDBCF81508093F80211
:101E1000BC82A9CF90E001966091620170E00E94BF
:101E200041318093F8028C839ECFEF92FF921F93F3
:101E3000CF93DF93EC0110E0EE24EA94F12C609153
:101E40006201161770F00E94DD0C9A818C8190FF60
:101E500027C08F5F8C83DF91CF911F91FF90EF9010
:101E6000089520916001422F410F5527551FCA0147
:101E70009A01220F331F280F391F25503D4F70E064
:101E8000C7010E944131962F8C8140913A036091A5
:101E90003903199F800D11240E9405071F5FCFCFC2
:101EA0008150D8CF9091370390FF14C0909160017A
:101EB0002091610133E0939FF0011124E550FD4F23
:101EC000921710F00C94DD0C8183608342839F5F36
:101ED0003396F6CF08950F931F93CF93DF9300D0DF
:101EE0000F92CDB7DEB78C018091FA0281110AC042
:101EF0009E012F5F3F4F4FEF6FEF0E9405078A81D2
:101F00008093FA02F8016481613069F08091FA02ED
:101F100040E0662361F040E0623011F44091FA0243
:101F200080E060E004C06091FA0240E080E00E943E
:101F3000520FF801848190E0019663E070E00E9406
:101F4000413184830F900F900F90DF91CF911F91BB
:101F50000F910895CF93DF9300D00F92CDB7DEB7E6
:101F60009091370390FF0AC09E012F5F3F4F0E9460
:101F700005074B8169818A810E94520F0F900F9053
:101F80000F90DF91CF910895CF93DF93EC01E7E3BA
:101F9000F3E0438162818C810E94AA0F8C818F5F64
:101FA0008C83DF91CF910895CF93DF93EC01EC8187
:101FB000F0E0EB57FA4F4491E7E3F3E0628181816F
:101FC0000E94AA0F8C818F5F8C83DF91CF9108953F
:101FD000E7E3F3E080818E7F80830E94EF06E5EFE8
:101FE000F2E08281816082832FEF80E792E02150CE
:101FF00080409040E1F700C000000C94DD0C9F92FF
:10200000AF92BF92CF92DF92EF92FF920F931F9306
:10201000CF93DF937C015B016A018091AD0201E007
:1020200010E08A3010F40AE010E0C1E0D0E0F8944B
:10203000B501C701F6010995982E0E94F10891108B
:1020400004C021960C171D076CF4892DDF91CF91E8
:102050001F910F91FF90EF90DF90CF90BF90AF90C6
:102060009F900895CC9F9001CD9F300D300D11248D
:1020700090E080E045E34A95F1F700000196821771
:102080009307C1F7D4CF80918102811110C0809154
:10209000D80080618093D8008AE18A95F1F700C06A
:1020A0008091D90080FF0AC081E08093810281E0A5
:1020B00090918102913009F080E0089582E0809350
:1020C00081020E94E20410927A03F1CF0F931F93D2
:1020D0000E944310882321F01F910F910C948F06CA
:1020E0000E948F06009147031091480320914903F5
:1020F00030914A03600F711F821F931F1F910F9130
:1021000008950E94431081110C949B060E94661052
:10211000CB0108950E944310882351F0E0914303BE
:10212000F0914403309721F00190F081E02D099463
:1021300080E00895882309F459C0823871F40E9420
:102140008A1081FF53C089E30E940D0B0E94BE0AD2
:1021500089E30E94E20A0C94BE0A833859F40E9473
:102160008A1080FF43C083E50E940D0B0E94BE0AC7
:1021700083E5EFCF843859F40E948A1082FF36C07D
:1021800087E40E940D0B0E94BE0A87E4E2CF9CEF19
:10219000980F913AF0F290E2980F983088F4877097
:1021A00021E030E0A90102C0440F551F8A95E2F7F3
:1021B000CA01809590917702892380937702CBCFD3
:1021C0009BE5980F933020F490E080E00C94BD06DE
:1021D00098E5980F973120F490E080E00C94A706E2
:1021E000803F20F00E94C2070C949B070895CF9374
:1021F000C82F882309F4AEC08238C1F40E948A1027
:1022000081FDA8C089E30E940D0B0E94BE0A2FEF3A
:1022100081EE94E0215080409040E1F700C0000042
:1022200089E30E94E20ACF910C94BE0A8338A1F49C
:102230000E948A1080FD8EC083E50E940D0B0E94D3
:10224000BE0A2FEF81EE94E0215080409040E1F7EC
:1022500000C0000083E5E5CF8438A1F40E948A1015
:1022600082FD78C087E40E940D0B0E94BE0A2FEF0A
:1022700081EE94E0215080409040E1F700C00000E2
:1022800087E4CFCF8CEF8C0F813A88F58091650180
:10229000882301F18091500387FF1CC0EC2FE69545
:1022A000E695E695F0E0E650FE4F828190E04C2FF7
:1022B000477021E030E002C0220F331F4A95E2F759
:1022C00082239323892B79F08C2F0E94E20A0E94AB
:1022D000BE0A09C0ECEFF1E08191C817A9F322E032
:1022E000E230F207C9F78C2F0E940D0B9CCF80E2E1
:1022F0008C0F883068F4C77021E030E001C0220FF5
:10230000CA95EAF780917702822B809377028BCF70
:10231000EBE5EC0FE33040F4F0E0EB58FE4F80814A
:1023200090E0CF910C94BD06E8E5EC0FE73150F456
:10233000F0E0EE0FFF1FE858FE4F80819181CF91B2
:102340000C94A706C03F30F08C2F0E948708CF91D5
:102350000C949B07CF9108951F93CF93DF93182F71
:10236000CAE0D0E0893311F4C0E5D0E0812F0E94AB
:10237000F7108FE99FE00197F1F700C00000219767
:10238000C1F7812FDF91CF911F910C949A100F9379
:102390001F93CF93DF93C62FD42F022FFC0182818E
:1023A0008823A1F0609386030E949B069093850387
:1023B00080938403C77081E001C0880FCA95EAF753
:1023C000DF91CF911F910F910C940F0C8091860398
:1023D000681335C080918403909185030E94800624
:1023E000883C910560F510E21D0FCD17B9F080E231
:1023F0008C0F883040F4C77081E001C0880FCA9507
:10240000EAF70E94040C183048F481E09D2F977081
:1024100001C0880F9A95EAF70E940F0C802F0E9446
:10242000AC11183098F4D77081E001C0880FDA95AC
:10243000EAF7DF91CF911F910F910C94040CC770B4
:1024400081E001C0880FCA95EAF7F3CFDF91CF9101
:102450001F910F910895AF92BF92CF92DF92EF92AA
:10246000FF920F931F93CF93DF93EC018AE0A82E86
:102470002881222309F48CC02130C9F599818A81F1
:10248000913021F422960E94AC1105C0923029F4BB
:1024900022960E94F7102196EBCF933021F42296DA
:1024A0000E949A10F8CF943011F02196F4CF229622
:1024B00030E020E0AE014F5F5F4F8053990B8A30D0
:1024C000910550F02150310930F38FE99FE00197D9
:1024D000F1F700C00000F6CFA29EB001A39E700DE0
:1024E00011249C01260F371F8981EA01E3CFE22FD7
:1024F000F0E0E650FE4FB490822F86958695869543
:1025000090E0FC01E651FE4FE4902770F12C022E82
:1025100002C0F594E7940A94E2F731E0E322FF2445
:10252000FC01E652FE4FC490D12C022E02C0D5947D
:10253000C7940A94E2F731E0C322DD24FC01E6539C
:10254000FE4F049110E002C0159507952A95E2F719
:1025500001701127E114F10419F081EE0E94F710C7
:10256000C114D10419F086EE0E94F7108B2D0E9441
:10257000AC11CD2819F086EE0E949A10EF2819F0C0
:1025800081EE0E949A10012B09F485CF8CE27BCF5B
:10259000DF91CF911F910F91FF90EF90DF90CF903F
:1025A000BF90AF900895CF93DF93C7EED2E060E085
:1025B000CE010E9408322196C11584E0D807B9F7F0
:1025C000DF91CF9108950F931F93CF93DF938901EC
:1025D000843068F5623058F5423048F501152CE535
:1025E000120731F42091630130916401232BF9F03B
:1025F00028E0829FC001112424E0629FB0011124D1
:10260000860F971FC42FD0E0CC0FDD1FC80FD91F36
:10261000C953DD4F612FCE010E940832602FCE01D9
:102620000196DF91CF911F910F910C940832DF91A9
:10263000CF911F910F9108950F931F93CF93DF9325
:102640008901843048F56C3038F5473028F521157C
:102650003C4531F42091630130916401232BE1F07A
:10266000C42FD0E0CC0FDD1F9EE0699FC00DD11DAF
:10267000112498EA899FC00DD11D1124612FCE012C
:1026800087960E940832602FCE018896DF91CF9105
:102690001F910F910C940832DF91CF911F910F91F0
:1026A00008958F929F92AF92BF92CF92DF92EF9256
:1026B000FF921F93CF93DF9380906301909064010A
:1026C00081E090E0909364018093630185E8C82ED7
:1026D00086E0D82EC0E07601D0E014C0F501259147
:1026E0003491412F6D2F8C2F0E941C1382E0A80E75
:1026F000B11C1F5F173091F78EE0E80EF11CDF5F11
:10270000DC3019F0570110E0E9CF21E030E040E083
:1027100060E08C2F0E94E31221E030E041E060E0B5
:102720008C2F0E94E31221E030E040E061E08C2F2A
:102730000E94E31221E030E041E061E08C2F0E9432
:10274000E312CF5F88EAC80ED11CC43009F0C3CFB2
:102750009092640180926301DF91CF911F91FF906D
:10276000EF90DF90CF90BF90AF909F908F900895A3
:10277000CF93C82F6FEF81116FE283E290E00E9448
:1027800008326FEFC11167EE84E290E00E940832D8
:102790006FEFC11168E585E290E0CF910C940832AB
:1027A00080E00E94B81360E086E290E00E94083268
:1027B0000E9451130E94D31281E00C94B8130F931E
:1027C0001F93CF93DF93843038F5623028F528E0EB
:1027D000829FC001112434E0639FB0011124860F51
:1027E000971FC42FD0E0CC0FDD1FC80FD91FC953CE
:1027F000DD4FCE010E94F431082F10E0102F00278A
:10280000CE0101960E94F4319801282BC901DF9175
:10281000CF911F910F91089590E080E0F8CF0F9332
:102820001F93CF93DF93843030F56C3020F5473021
:1028300010F5C42FD0E0CC0FDD1F2EE0629FC00D3D
:10284000D11D112438EA839FC00DD11D1124CE0162
:1028500087960E94F431082F10E0102F0027CE0138
:1028600088960E94F4319801282BC901DF91CF91FD
:102870001F910F91089590E080E0F8CF462F2091AE
:102880003F0330914003232B91F47E3F39F46E3F98
:1028900071F480913D0390913E030895843038F4A3
:1028A0007C3028F4673018F4672F0C940F1490E0F4
:1028B00080E00895CF92DF92FF920F931F93CF9302
:1028C000DF936C010091870380913C03082BC7E0E4
:1028D000D0E010E0FC2EC8010C2E02C09595879523
:1028E0000A94E2F780FD0CC02197A0F7F12C8F2D00
:1028F000DF91CF911F910F91FF90DF90CF900895BE
:10290000B6018C2F0E943E140E944D09019761F37D
:10291000EECFCF93DF93EC010E945A14BE010E94C8
:102920003E14DF91CF910C944D09FC01808191817F
:102930000E948914292F2F7092959F7092509E307B
:1029400078F4E92FF0E0E25CFD4C0C947731803FA5
:1029500019F020F4883E20F481E00895843FE1F3EB
:1029600080E00895883EC0F3813FD1F7F5CF822FF4
:10297000869586958695089583E290E00E94F431CD
:102980008F3289F484E290E00E94F431873E59F45A
:1029900085E290E00E94F43191E0883509F090E002
:1029A000892F8170089580E0FCCFCF9384E090E080
:1029B0000E94F431C82F82E290E00E94F431982FF7
:1029C0008C2FCF91089560913703669570E04BE0AE
:1029D00050E080E591E00E94CA31892B19F481E032
:1029E0008093F6020E9481109093F0028093EF0290
:1029F0008091F70284608093F7020895CF92DF926E
:102A0000EF92FF926B017C010E94F606B701A601CE
:102A100088E090E0FF90EF90DF90CF900C941A3216
:102A2000AF92BF92CF92DF92EF92FF920F931F93DC
:102A3000CF93DF9300D00F92CDB7DEB7182FF62ECD
:102A4000042FE22E9091370390FF3AC0E92FE695CC
:102A5000AE2FB0E0AC53BE4F8C918093F5029E7FB9
:102A60009230E1F59E012F5F3F4F812F0E940507B5
:102A70004B8169818A810E94520F809138038113B2
:102A800008C0809139038F1104C080913A038017E8
:102A900029F08091F70282608093F7021093380347
:102AA000F092390300933A03EE2051F0609137031E
:102AB000709138038091390390913A030E94FE147B
:102AC0000F900F900F90DF91CF911F910F91FF907A
:102AD000EF90DF90CF90BF90AF900895823019F4BF
:102AE00000913A03CACF863019F410913803C5CF4C
:102AF0008930D9F3893109F6E9518E2F8170D82EAA
:102B0000E695F0E0E058FA4FA590B490C12CBB24B4
:102B100060916201C61618F00E94DD0CAECF2C2D1C
:102B200030E0A29EC001A39E900DB29E900D112494
:102B300070E00E942D31812FD11013C0860F40917B
:102B40006001420F532F511D9A01220F331F240F92
:102B5000351F25503D4F402F6F2D0E940507C39410
:102B6000D7CF861BECCFE7E3F3E0438121E1421BA3
:102B700008F440E021E0628181810C941015E7E3C4
:102B8000F3E0438121E1420F08F44FEF21E062813D
:102B900081810C941015E7E3F3E0628121E1621B6F
:102BA00008F460E021E0438181810C941015E7E393
:102BB000F3E0628121E1620F08F46FEF21E04381CD
:102BC00081810C941015E7E3F3E0818121E04381DA
:102BD000628188500C941015E7E3F3E0818121E0D5
:102BE00043816281885F0C94101580913B03882398
:102BF00019F0815080933B03609137037091380343
:102C00008091390390913A030C94FE1480913B0318
:102C1000833018F48F5F80933B036091370370918A
:102C200038038091390390913A030C94FE149091EB
:102C3000370390FF3BC0917081112EC0926090933A
:102C400037038091F70281608093F702662351F089
:102C500060913703709138038091390390913A0362
:102C60000E94FE1460913703669570E04BE050E0DF
:102C700080E591E00E94CA31892BA9F00E94EF06FD
:102C800081E08093F20220E040913A0360913903A1
:102C9000809138030C941015853210F09864CFCFD2
:102CA000880F982BCCCF0E94E314EACF089580912F
:102CB00037038695815009F484E261E00C9417167D
:102CC0008091370386958F5F853208F081E061E05F
:102CD0000C9417169091370390FF07C0969598179C
:102CE00020F0961710F40C94601661E00C941716FF
:102CF000E7E3F3E083E0808311828FEF82838383B5
:102D00001482A5EFB2E012968C911297836012960E
:102D10008C9360817181828193810C94FE14109256
:102D2000770280916501ECEFF1E0882359F0809102
:102D3000500387FF07C08EE1DF011D928A95E9F7F6
:102D40000C94A80B86E0F8CF1F93CF93DF93CDB7F9
:102D5000DEB7AA970FB6F894DEBF0FBECDBF8CE7E3
:102D600093E02091F100DC012D93CD01B3E0843894
:102D70009B07B9F780917D03833009F471C0B8F4E3
:102D8000813009F448C0823009F4B2C08091E80073
:102D900083FF3AC180917C0390917D039A3008F0C3
:102DA00033C1E92FF0E0E45BFD4C0C9477318A30BD
:102DB00009F48DC08B3009F470C0893039F78091E7
:102DC0007C03813219F780918003909181030097F1
:102DD00011F00297D9F68091E800877F8093E80090
:102DE0008091E80082FF37C09091F3008091F2005B
:102DF000029729F48091F1008B7F813021F480913A
:102E0000F100809357038091E8008B778093E8006E
:102E10000E945C05BBCF80917C03813A09F0B6CF5C
:102E20008091E800877F8093E800809180039091F3
:102E30008103892B61F460E288E593E070E00E94F1
:102E40000E068091E8008B778093E8009FCF60E0CA
:102E500090E080E0F3CF80917A038111C1CF96CFCB
:102E600080917C03813A09F091CF80918003909109
:102E70008103892B09F08ACF8091E800877F8093B6
:102E8000E8008091E80080FFFCCF8091650180938D
:102E9000F1008091E8008E77B9CF80917C03813278
:102EA00009F074CF8091800390918103892B09F000
:102EB0006DCF8091E800877F8093E8000E945C05D9
:102EC00080917E03809365010E948F165FCF809171
:102ED0007C03813209F05ACF8091E800877F80938C
:102EE000E8000E945C0580917F03809356034ECFDB
:102EF00080917C03813A09F049CF8091E800877F77
:102F00008093E8008091E80080FFFCCF8091560319
:102F1000BECF803899F0823809F076C08091800366
:102F20008F70873008F070C08093E9008091EB00CB
:102F300085FB882780F91092E90006C0809178030C
:102F400090917903911182609091E800977F90931E
:102F5000E8008093F1001092F1008091E8008E77F4
:102F6000C0C1882309F4ADC1823009F04DC0809101
:102F70007E038111B1C1809180038F702FEF280FE4
:102F8000263008F041C08093E9002091EB0020FF3B
:102F9000A3C1933031F48091EB0080628093EB0009
:102FA0009BC19091EB0090619093EB0021E030E0A9
:102FB00001C0220F8A95EAF72093EA001092EA00F6
:102FC0008091EB008860EACF81111EC010917E03D2
:102FD0001F778091E3008078812B8093E3008091BC
:102FE000E800877F8093E8000E945C058091E800FC
:102FF00080FFFCCF8091E30080688093E30082E053
:10300000111183E080937A038091E80083FF0AC066
:103010008091E800877F8093E8008091EB008062D8
:103020008093EB00AA960FB6F894DEBF0FBECDBF1B
:10303000DF91CF911F9108958058823028F7209119
:103040007E0330917F032C3DE3E03E07A1F583E052
:103050008A838AE289834FB7F894DE01139620E0D1
:103060003EE051E2E32FF0E050935700E49120FF5F
:1030700003C0E295EF703F5FEF708E2F90E0EA3073
:10308000C0F0C7968D939D932F5F243159F74FBFA2
:103090008091E800877F8093E8006AE270E0CE01CB
:1030A00001960E940E068091E8008B778093E800DD
:1030B000ABCFC096E7CF8091800390918103432FDF
:1030C00055274330510509F44AC078F54130510580
:1030D00009F485C08BE590E0EDE7F8E0423051055A
:1030E00009F092CF2091E800277F2093E8002091FB
:1030F0008203309183038217930708F49C0140E018
:103100002115310509F070C041116EC08091E800B1
:1031100082FDC9CF80917A03882329F2853019F284
:103120008091E80083FFF2CFBECF4132510509F410
:1031300047C04232510509F067CF8330910508F04E
:1031400063CFFC01EE0FFF1FE451FE4F0190F081B1
:10315000E02D87519E4FDC018C9190E01DC03327FC
:1031600021303105E9F02115310579F022303105A2
:10317000F9F02330310509F047CFEAEEF8E0E491A9
:103180008E2F90E0EAEEF8E007C0EEE2F9E0E4917D
:103190008E2F90E0EEE2F9E0009709F435CFA2CF50
:1031A000ECE1F9E0E4918E2F90E0ECE1F9E0F4CF6E
:1031B000E8E0F9E0E4918E2F90E0E8E0F9E0ECCF70
:1031C0008330910508F020CF880F991FFC01EE5045
:1031D000FE4F0190F081E02D89E090E083CF82E105
:1031E00090E0E8EDF8E07ECF80917A03882309F43F
:1031F0005ACF853009F457CF8091E80083FD53CF33
:103200008091E80082FD82CF8091E80080FF78CF36
:103210009091F3008091F2002115310519F088306A
:10322000910550F041E0089709F040E08091E800F6
:103230008E778093E80064CF44914093F1003196FB
:10324000215031090196E8CF803809F0DDCE809118
:10325000E800877F8093E80080917B038093F100F2
:103260007CCE8111D1CE10917E03123008F0CCCEED
:103270008091E800877F8093E80010937B030E9491
:103280005C05112311F084E005C08091E30087FD07
:10329000FACF81E080937A0342E061EC81E00E9402
:1032A0007B0542E261EC84E00E947B0542E261EC36
:1032B00082E00E947B0542E260EC83E00E947B0595
:1032C000A3CE80917E03813009F09ECE81E09330C1
:1032D00009F080E0809379031092E9008091E80082
:1032E000877F8093E8000E945C058ECE6AEE7EEFB9
:1032F00090E080E00E94263260E082E090E00E9450
:10330000083260E083E090E00E94083210923C03B3
:1033100060E084E090E00E94083260E082E290E0A9
:103320000E94083260E085E090E00E94083260E090
:1033300086E090E00E9408326FEF87E090E00E9404
:10334000083240E050E0BA0188E090E00E941A3272
:1033500060E08DE090E00E94083240E050E0BA0169
:1033600088E190E00E941A3260E087E190E00E94DC
:10337000083240E050E0BA018CE190E00E941A323D
:1033800070E060E080E290E00E94263240E050E091
:10339000BA0188E190E00E941A3280E00E94B813DE
:1033A0000E94D01340E050E0BA018FE090E00E940C
:1033B0001A3240E050E0BA0183E190E00C941A32F6
:1033C000AF92BF92CF92DF92EF92FF920F931F9333
:1033D000CF93DF9300D000D00F92CDB7DEB77C0142
:1033E000FC0183819481892B31F080819181892333
:1033F0008F3F09F03CC40F900F900F900F900F90EB
:10340000DF91CF911F910F91FF90EF90DF90CF90C0
:10341000BF90AF9008950E945A14182F682F898189
:103420009A810E94780B69817A81812F0E943E14D3
:103430008C01F7019281992309F40EC4980122515D
:103440003F452031310508F0E0C38FEF93E00E9443
:10345000F4318111D0CF025187EEA82E82E0B82E30
:10346000011135C019821A821B821C82DD24DA9474
:1034700085010F5F1F4FC5010E94F43189831A82B5
:10348000882309F4B8CF813009F056C0750142E0B5
:10349000E40EF11CC8010E94F431082F8A838823AE
:1034A00009F4A9CFC7010E94F431182F8FEF800FC4
:1034B0008330E0F4750153E0E50EF11C1B8311230A
:1034C00021F0CE0101960E942B125701D1CFA114F9
:1034D000F4E0BF0609F48FCFC5010E94F4318111D9
:1034E00001C001502FEFA21AB20ABACF043069F717
:1034F000750184E0E80EF11CC50103960E94F431C9
:10350000112309F478CF882309F475CF8150990BE2
:10351000D89E9001D99E300D1124E12FE150FF0B70
:10352000CF01820F931F019780F2EFE9FFE03197FF
:10353000F1F700C00000F7CFCE0101960E942B12D8
:103540007801C3CF81E00E94E00B03C081E00E94BC
:10355000D40B0E94C90B4FCF82E0F5CF053FFCE5AD
:103560001F0709F45EC008F458C0063F4CE5140775
:1035700009F45BC0992309F48BC3109286030230CF
:103580005CE5150708F433C106318CE5180738F0FF
:1035900098012A5F3C452930310508F028C10E9476
:1035A000D514909351038093500300319CE5190783
:1035B00009F4ECC008F07DC00830FCE51F0709F4F1
:1035C000D7C008F04CC004304CE5140709F4C8C05B
:1035D00098F502308CE5180709F4BCC080915003BF
:1035E000826003301C4509F4B8C06091500310910B
:1035F000510384E090E00E940832612F82E290E063
:103600000E9408320E948F16F6CE27E245EE65EE44
:103610001FC326E241EE60EE1BC327E245EE64EED7
:1036200017C326E241EE62EE13C327E245EE66EED3
:103630000FC328E241E0EBCF809150038061063058
:10364000ECE51E0709F489C08091500388600730BB
:103650001C4508F482C08091500380627EC0809136
:1036600050038D7F0C302CE5120709F476C070F4FE
:10367000809150038C600A305CE5150709F46DC039
:1036800008F47AC0809150038E7F67C08091500308
:10369000877F0E309CE5190709F45FC080915003C5
:1036A0008B7F0F301C4508F458C0809150038F7EEB
:1036B00054C00B3FFCE51F0709F456C030F5033139
:1036C0004CE5140709F46AC078F401318CE5180759
:1036D00009F460C002311C4509F087CF0E948F16A3
:1036E000809150038F7739C00531ECE51E0709F44E
:1036F0005DC008F471C08091510381600A3F1C4590
:1037000009F073CF8093510370CF0F3F4CE514073E
:1037100009F448C070F40D3F8CE5180799F18091C9
:1037200051038E7F0E3F1C4568F3809151038360E7
:10373000E9CF0130EDE51E0709F457C008F442C097
:1037400060E002301D4509F050CF8EE090E00E940D
:1037500008324BCF8091500381608093500345CF56
:10376000809150038460F9CF809151038260CACF69
:10377000809150038064F1CF0E948F168091500396
:103780008068EBCF809151038D7FBCCF8091500337
:103790008F7DE3CF809150038F7BDFCF80915003EB
:1037A000837FDBCF809151038C7FACCF809150031E
:1037B00082FB992790F921E0922790FB82F990FBF8
:1037C00083F9CBCF80915103982F909591708E7F84
:1037D000892B90FB81F996CF0E948F169091500310
:1037E000892F97FB87F98058B8CF61E0AECF0631BB
:1037F0004CE5140709F0FAC2809177028A7A91E0C9
:1038000009F490E090931B02811106C089E20E94A6
:103810000D0B0E94BE0AEFCD85E3F9CF80911B020C
:10382000811104C089E20E94E20AF3CF85E3FBCF55
:103830008091370380FF20C08E7F80933703609193
:103840003703709138038091390390913A030E94B5
:10385000FE140E94EF068091F70281608093F702C8
:103860005FEF80E792E0515080409040E1F700C068
:1038700000000E94DD0CBFCD81608093370361E0C2
:1038800086950E941716B7CD47E556E160E676E1CA
:103890000E94E906B0CD40E656E167E576E1F8CF53
:1038A0004CEE55E163EE75E1F3CF4BEC55E167ED7E
:1038B00075E1EECF43EB55E16FEB75E1E9CF4FEBEF
:1038C00055E163EB75E1E4CF46E056E165EF75E164
:1038D000DFCF61E081E0D5CF65E082E00E946A162B
:1038E0008ACD68E086E0FACF64E18FE0F7CF67E148
:1038F00085E1F4CF62E289E1F1CF61E083E2C1CFFB
:103900000E948F16EFEFF4E32CE0E150F0402040EE
:10391000E1F700C000000E946F06C8010E944B0B37
:10392000D82EE4C1092F0F70907F11F00295007F0F
:10393000812F2223C9F0002369F090E2910F983083
:1039400010F011110BC080917702082B00937702C1
:103950000E94BE0A812F0E94F71017C08091760244
:10396000082B00937602F4CF0E949A10002369F08E
:103970000095105E183010F0B11012C080917702DF
:103980000823009377020E94BE0A98E0C91AD10862
:10399000E4E0CE16D10408F02ECD0E948A102BCD83
:1039A00080917602082300937602EDCF892F8F70E5
:1039B000907F903211F08295807FF1E0BF120CC0B1
:1039C000222329F0363008F70E940F0CDECF353065
:1039D000E0F60E94040CD9CF222341F03323A1F357
:1039E00040FFB8CF4F70F7014583EECF332389F303
:1039F000193309F002C1FFEF27EE43E0F1502040F8
:103A00004040E1F700C00000812F0E949A10BDCF16
:103A1000892F86958695837061F0813009F0B5CF46
:103A2000812F9370211102C090E080E00E94A706D0
:103A3000ACCF812F9370211102C090E080E00E94F2
:103A4000BD06A3CF812F222339F00E9487080E9450
:103A50009B070E949B0799CF0E94C207FACF892F2C
:103A60008370A1F5211191CF812F82958695877062
:103A7000880F880F412F4F70082E01C0440F0A9401
:103A8000EAF7212F207114FF07C02FE030E001C0BA
:103A9000220F8A95EAF72095969596959370923025
:103AA00081F0822F842B933030F480913C0391304D
:103AB00029F0242B82230E94EB0B67CF842B822BCF
:103AC000FACF242B80913C038227F5CF86952223C1
:103AD00011F0892F8170882309F457CF812F8295A7
:103AE00086958770880F880F412F4F70082E01C070
:103AF000440F0A94EAF7212F207114FF07C02FE02A
:103B000030E001C0220F8A95EAF7209596959695A8
:103B10009370923081F0822F842B933030F4809117
:103B20008703913029F0242B82230E94C50B2DCFCF
:103B3000842B822BFACF242B809187038227F5CF09
:103B4000092F0F70222329F0802F0E94E00B812F74
:103B50003BCF812F0E94040C802F0E94D40B15CFE5
:103B6000812FE1EF1E1789F1E11750F0F0EF1F17D9
:103B7000B9F02223B1F13111EDCE892F8F7129C017
:103B800042EF141749F153EF1513F3CF80E02223CE
:103B900061F29F7181E001C0880F9A95EAF7C5CF65
:103BA000222379F0353008F0F0CE292F2F7181E0F3
:103BB00090E001C0880F2A95EAF790918703892742
:103BC000B4CF363008F0E1CEF0CF892F8F712223A9
:103BD00021F20E94E00BD9CE892F8F712223C9F3E5
:103BE000BCCF332379F0893341F48FEF97EEE3E0D4
:103BF00081509040E040E1F705CF8FE39CE90197C9
:103C0000F1F700CF892F8F71A8CF0031FFE51F0793
:103C100009F498CC01312FE5120709F49DCC033F3C
:103C20002CE5120709F4F5CC08F098CC083D5CE5CA
:103C3000150709F4EACC093D8CE5180709F4F9CC1D
:103C4000073DECE51E0709F095CC26E241EE61EE5A
:103C5000C7010E94C711CFCB00314FE5140709F40B
:103C600075CC01315FE51507D1F682E070CC85E0B7
:103C7000DE01119601900D928A95E1F7F7012281FC
:103C800089819A812111C7CB0E944B0B182FCBCB76
:103C90000631FCE51F0709F4C1CD809177028272DD
:103CA0000C3C2CE5120709F40FCE08F06AC0063C64
:103CB0005CE5150709F4F4CD08F041C0033CFCE5D0
:103CC0001F0709F4E1CD68F5023C1C4509F4B0CDAD
:103CD000F70100811181992309F41FCEC8010E94C8
:103CE0005A14D82E682FC8010E94780BB8018D2D68
:103CF0000E943E140E944D09182FB82EF701228110
:103D00004581342F32953F70892F82958F70C82E50
:103D1000D12C8C3008F039CEF601EA5AFD4C0C94C7
:103D20007731043C5CE5150709F4B5CD43EE55E168
:103D30006CEE75E1053C1C4509F4AACDC9CF093CE0
:103D4000FCE51F0709F4B6CD70F4073C4CE51407F9
:103D500009F4ABCD083C1C4509F0BACF47ED55E15D
:103D60006BEC75E195CD0A3CECE51E0709F4A7CD97
:103D700045EF55E166E076E10B3C1C4509F488CD42
:103D8000A7CF013D2CE5120709F4AECD98F40E3C07
:103D90005CE5150709F4A0CD08F49BCD0F3CECE5DC
:103DA0001E0709F49ECD6EE089E0003D1C4509F434
:103DB00095CD8ECF043D2CE5120709F49BCD60F420
:103DC000023D5CE5150709F492CD033D1C4509F061
:103DD0007FCF61E088E155CD053DECE51E0709F494
:103DE0008CCD0D351D4509F406CB72CF01152CE5A0
:103DF000120709F485CD0E3D1C4509F069CF0E94DC
:103E00007619F9CA1F93CF93DF9380914202807F86
:103E1000A9F480913F02882389F080917402D091A7
:103E2000430260913D0270913E02A0914002B09128
:103E30004102C62FC72316E0D81304C0DF91CF91EB
:103E40001F91089590E0109711F0CF3F19F401965B
:103E50008770F2CF189F9001199F300D1124F9013E
:103E6000EC5BFD4F41814713F2CF40814613EFCF0A
:103E700042814111ECCF438154814A1B5B0B483C8A
:103E8000510528F7809142028F7080618093420231
:103E9000F901E75BFD4F80818F70806180838DE346
:103EA00092E00E94E019DF91CF911F910C94410B99
:103EB000AF92BF92CF92DF92EF92FF920F931F9338
:103EC000CF93DF93CDB7DEB761970FB6F894DEBF1F
:103ED0000FBECDBF8C0185E0F801DE011D9601907B
:103EE0000D928A95E1F7F801E2808DE3A82E82E039
:103EF000B82E60914002709141026115710509F47C
:103F000032C190913D0240913E02892F84238F3F20
:103F100009F429C120813181C380D480F0903F020F
:103F2000F601E61BF70BFF2009F4E8C0809142027E
:103F3000582F507FE83CF10508F0ABC0511177C015
:103F4000FE2C431321C092131FC0E1101DC08F70BF
:103F5000806180934202C5010E94E0198091420273
:103F6000F80185838F2D61960FB6F894DEBF0FBEE2
:103F7000CDBFDF91CF911F910F91FF90EF90DF9018
:103F8000CF90BF90AF900895CD2829F0822F832342
:103F90008F3F09F003C180E0F82FF170DF2E80FF22
:103FA0003CC0809174024091430256E0841315C0D6
:103FB0002D873E878D859E850E948914292F229505
:103FC0002F702230F0F0243018F59F70F1F0F801D6
:103FD0009581907FD1F4D12C1EC090E0589FF001C4
:103FE000599FF00D1124EC5BFD4F6181361306C023
:103FF0006081261303C06281E6120FC001968770AC
:10400000D5CF9F7011F0882331F3805E883018F38C
:10401000C8010E94E019FD2CA5CFEE2009F4A2CF23
:1040200080914202816080934202F12C9BCF431326
:1040300006C0921304C0F801EE2009F479C0C8014B
:104040000E949514882309F1EE20F9F08091420234
:10405000803270F020913D0230913E0238872F83EC
:104060001986DB86CA868C87CE0107960E94E019E6
:1040700086E0F801ADE3B2E001900D928A95E1F798
:104080000E94021FFF24F3946DCFC8010E94E01923
:10409000F9CF51110AC08DE392E00E94E01986E049
:1040A000F50111928A95E9F7C0CF43130FC092131F
:1040B0000DC0E1100BC0F8018583C8010E94E01912
:1040C00086E0F50111928A95E9F74CCFC8010E946C
:1040D00095148823D1F2EE20C1F280914202803201
:1040E00038F220913D0230913E023A8329831B82AF
:1040F000DD82CC828E83CE010196B8CFE83CF105FB
:10410000F8F6FE2CEE2009F243131FC092131DC0D7
:104110008091420280FD10C0982F907F69F0F801D5
:104120008583903F31F0982F907F905F8F70892B1F
:104130008583C8010E94E01986E0F801ADE3B2E092
:1041400001900D928A95E1F70DCFC8010E94951458
:1041500081118ECF80914202816080934202C8011A
:104160000E94E019FFCEEE2009F48FCFC8010E9413
:104170009514F82E882309F488CF86E0F801ADE382
:10418000B2E001900D928A95E1F780913D02909105
:104190003E020E9489140E94021FE4CE81E08E2517
:1041A000FBCE1F93CF93DF93CDB7DEB767970FB6E4
:1041B000F894DEBF0FBECDBF4B8B5C8B6D8B7E8BBF
:1041C0008F8B6111109276021A8A198A85E0FE019E
:1041D0007396DE011D9601900D928A95E1F786E0B7
:1041E000FE013D96DE01179601900D928A95E1F74A
:1041F000CE0107960E94581F882389F016E080910F
:10420000740290914302891349C067960FB6F894DF
:10421000DEBF0FBECDBFDF91CF911F91089586E025
:10422000FE013796DE01119601900D928A95E1F715
:104230008A859B85892B11F38F81988589238F3FF0
:10424000E9F22091430230E0C90101968770992775
:10425000409174024817190671F40E948F1610924B
:1042600043021092740286E0EDE3F2E0DF011D925A
:104270008A95E9F7C3CF96E0929FD001939FB00D46
:104280001124AC5BBD4FFE01319601900D929A95C1
:10429000E1F7809343020E94410BB0CF819FC001A0
:1042A00011248C5B9D4F0E94581F882309F4ADCFC9
:1042B0008091740290E00196877099278093740230
:1042C0009ECF0F931F93CF93DF9300D000D00F9218
:1042D000CDB7DEB78C0190933E0380933D0301156B
:1042E00080E2180720F5802F0E949A10C8010E94D2
:1042F000190C9801205E31092830310510F0012B8E
:1043000059F40F900F900F900F900F90DF91CF9175
:104310001F910F910C94040C0F900F900F900F9021
:104320000F90DF91CF911F910F910C94EF0B8EEFB7
:1043300089838A831B820E949B068160782F9D83DC
:104340008C8349815A816B818D810F900F900F90E2
:104350000F900F90DF91CF911F910F910C94D1206E
:104360000F931F93CF93DF9300D000D00F92CDB760
:10437000DEB78C0190933E0380933D03011580E2EC
:104380001807E8F4C8010E94190C9801205E310951
:104390002830310518F00115110571F40E940F0C39
:1043A000802F0F900F900F900F900F90DF91CF9173
:1043B0001F910F910C94F7100E94FA0BF1CF8EEF22
:1043C00089838A8381E08B830E949B068160782F9A
:1043D0009D838C8349815A816B818D810F900F90D1
:1043E0000F900F900F90DF91CF911F910F910C9430
:1043F000D120AF92BF92CF92DF92EF92FF920F93B4
:104400001F93CF93DF93B82EA62EC0908703809181
:104410003C03C82AC7E0D0E0D12CF12CE12CD70115
:10442000C6010C2E04C0B695A795979587950A945A
:10443000D2F780FF20C04A2D6B2D8C2F0E94DF13F6
:104440008C0181309105B9F00E94B0218FE39CE985
:104450000197F1F700C00000C8010E94612181E0CE
:10446000DF91CF911F910F91FF90EF90DF90CF9050
:10447000BF90AF900895219790F64A2D6B2D80E064
:104480000E94DF13EC010E94B0218FE39CE90197A9
:10449000F1F700C00000CE01E0CFCF93DF93CDB79E
:1044A000DEB728970FB6F894DEBF0FBECDBF85E00C
:1044B000E7E3F3E0DE01119601900D928A95E1F7B2
:1044C0008091F5029091F602A091F7028E839F836E
:1044D000A88728854091A9025091AA026091AB0259
:1044E0007091AC023FB7F89480914C0390914D03CA
:1044F000A0914E03B0914F033FBF841B950BA60BB9
:10450000B70B84369105A105B10510F4222319F1EA
:1045100080913501909136018C569D4F4091340128
:1045200050E04930510510F048E050E0BE016F5FA7
:104530007F4F0E94E43185E090E00E946B30892B30
:10454000B1F40E948F066093A9027093AA0280932F
:10455000AB029093AC021092F70281E028960FB65E
:10456000F894DEBF0FBECDBFDF91CF91089580E0FC
:10457000F5CFCF93DF9300D000D0CDB7DEB7409119
:1045800090025091910260919202709193022FB724
:10459000F89480914C0390914D03A0914E03B091FB
:1045A0004F032FBF841B950BA60BB70B84369105C9
:1045B000A105B10568F10E9466106E5F7F4F8F4FB5
:1045C0009F4F69837A838B839C8380912B01909189
:1045D0002C018C569D4F40912A0150E045305105E9
:1045E00010F044E050E0BE016F5F7F4F0E94E43165
:1045F00084E090E00E946B30892B61F40E948F066A
:104600006093900270939102809392029093930230
:1046100081E001C080E00F900F900F900F90DF912C
:10462000CF9108956F927F928F929F92AF92BF9297
:10463000CF92DF92EF92FF920F931F93CF93DF936E
:104640000F92CDB7DEB7862E5A016901682E880F0A
:104650007708C3010E946B30892B09F088C08AE07B
:10466000869DF001879DF00D1124E050FF4F45819C
:1046700050E04115510511F041E050E08AE0869D7F
:10468000F001879DF00D1124E050FF4F6681778186
:104690006C567D4FCE0101960E94E431F5014081B8
:1046A0005181628173812FB7F89480914C0390916E
:1046B0004D03A0914E03B0914F032FBF841B950B68
:1046C000A60BB70B84369105A105B10540F4B701DF
:1046D000C8010E94D3069981891709F44FC0082C9C
:1046E000000C9908C4010E946B30892B91F0B12C09
:1046F0008B2D0F90DF91CF911F910F91FF90EF9035
:10470000DF90CF90BF90AF909F908F907F906F90F1
:1047100008958AE0889DF001899DF00D1124E050F4
:10472000FF4F458150E0E416F50608F4A7018AE042
:10473000889DF001899DF00D1124E050FF4F6681A6
:1047400077816C567D4FC6010E94E431B701C801E4
:104750000E94D30699818913CACF0E948F06F50162
:104760006083718382839383BB24B394C1CFB12CC4
:10477000A701B801C6010E94E431BACFBB24B394AB
:10478000F7CFCF92DF92EF92FF920F931F93CF93C9
:10479000DF930F92CDB7DEB7EE24E394F12C0CE952
:1047A00012E09E012F5F3F4F4CE852E063E082E051
:1047B0000E941223082F882321F1C090BD028C2D66
:1047C00090E09C012F533D4F79011981F9018081BF
:1047D000181BD12E80E00AC0DA94F70180818F5F28
:1047E000808360E08C2D0E94F921802F1D14A4F39A
:1047F000912F17FD90E0191B11110EC081110E941D
:10480000BC0A802F0F90DF91CF911F910F91FF90E5
:10481000EF90DF90CF9008951F5FF7018081815066
:10482000808361E08C2D0E94F921802FE5CFCF920B
:10483000DF92EF92FF920F931F93CF93DF9300D0FD
:1048400000D000D0CDB7DEB76B0186E0E82EF12CAA
:1048500005E912E09E012F5F3F4F48E852E061E01A
:1048600080E00E941223882349F096E0FE013196F1
:10487000A2E8B2E001900D929A95E1F796E0E2E8A5
:10488000F2E0D60101900D929A95E1F726960FB6C7
:10489000F894DEBF0FBECDBFDF91CF911F910F9176
:1048A000FF90EF90DF90CF9008959F92AF92BF92CC
:1048B000CF92DF92EF92FF920F931F93CF93DF93EC
:1048C000CDB7DEB762970FB6F894DEBF0FBECDBF8F
:1048D0008E010F5F1F4F8CE0D8011D928A95E9F77A
:1048E00088EAC82E81E0D82EF12CE12CAA24A394CA
:1048F000B12CF60181916F018F3F09F44AC0F89401
:10490000E82FE295EF70F0E021A18F70A50102C0C1
:10491000440F551F8A95E2F7CA01922F982B91A355
:1049200092A18095892382A30E94F10800C0ECE344
:10493000F1E030E020E0912C41914F3F09F46CC050
:10494000A42FA295AF70B0E090968C9190E04F703C
:1049500002C0959587954A95E2F780FD5DC08A2D46
:10496000022E01C0880F0A94EAF7982A2F5F3F4F62
:104970002730310509F7F601319780818F3F11F01B
:104980000E94F30850EA5A95F1F7F801EE0DFF1D69
:1049900090828FEFE81AF80A96E0E916F10409F020
:1049A000A8CF4CE050E0B8018EEA92E00E94D731E7
:1049B0007C01892B41F08CE0F801AEEAB2E0019075
:1049C0000D928A95E1F71091BB02E114F10431F1E7
:1049D00081E080937A020E949B06909379028093F3
:1049E000780280917802909179020E948006059762
:1049F00070F0AEEAB2E0E12FF0E0EA52FD4F8D91A7
:104A0000819322E0A43BB207D1F710927A02EF28FB
:104A100049F081E090E060C080E0A7CF80917A0209
:104A20008111DFCF0E944310D82EE091BB02AE016E
:104A3000435F5F4F7A01882309F488C086E0DA017A
:104A40001D928A95E9F70E2F10E00A521D4F8091B2
:104A5000AD028A3008F052C047E154E2B701C80104
:104A60000E94FF0F882309F460C041EC53E2B701B4
:104A7000C8010E94FF0F882309F457C049EB52E296
:104A8000B701C8010E94FF0F882309F44EC04DE40E
:104A900052E2B701C8010E94FF0F882309F445C004
:104AA0001092AD02E091BA02F0E0BF016A527D4F70
:104AB000D7019E012D5E3F4F80E0FB014191BF0178
:104AC0009D91491731F0AF0141505109FA0190838E
:104AD0008D2DA217B30789F762960FB6F894DEBF43
:104AE0000FBECDBFDF91CF911F910F91FF90EF903F
:104AF000DF90CF90BF90AF909F90089580917B0200
:104B000090917C020E948006843F914008F0A4CFDF
:104B1000E091BA02F0E0EA52FD4F90E080E011929D
:104B2000019686309105D9F774CF8091AD028F3F01
:104B300031F08F5F8093AD028A3008F4B3CF0E94CA
:104B40009B0690937C0280937B02E2CFF0E0EA52D6
:104B5000FD4FF89486E0A5E9B2E001900D928A95A8
:104B6000E1F766E070E085E992E00E94D306809369
:104B700094020E94F108F894E091C402F0E0EF532F
:104B8000FD4F80818D8780939C0261E070E0C701BA
:104B90000E94D30680939B020E94F108F894C09073
:104BA0009D02D0909E02E0909F02F090A002809122
:104BB0007D0290917E02A0917F02B0918002C81682
:104BC000D906EA06FB06D1F0C0927D02D0927E02A1
:104BD000E0927F02F09280020E94431081110EC089
:104BE0000E948F06C61AD70AE80AF90AC09247033C
:104BF000D0924803E0924903F0924A030E94F108E0
:104C0000F8948091A802882379F180FF0DC08091EB
:104C1000A10280FF2DC090913703916090933703DC
:104C200060E086950E9417168091A80281FF09C056
:104C300020E04091A4026091A3028091A2020E9410
:104C400010158091A80282FF06C08091A7028823D8
:104C500091F00E94E3148091A80283FF03C081E0D9
:104C60008093F2021092A8020E94F10880E034CFF3
:104C70000E94E80FD9CF0E94EF06EDCF90E080E0D0
:104C80000E9402328A3E9E4F11F40C94BC1480E0C4
:104C900008951F920F920FB60F9211242F933F93F6
:104CA0004F935F936F937F938F939F93AF93BF9334
:104CB000CF93DF93EF93FF93D091E900DF70809162
:104CC000EC00C82FC17080FDC0E81092E90080910F
:104CD000F000877F8093F00078940E94A4161092D1
:104CE000E9008091F00088608093F000CD2BCF70B8
:104CF000C093E900FF91EF91DF91CF91BF91AF9108
:104D00009F918F917F916F915F914F913F912F91E3
:104D10000F900FBE0F901F9018951F920F920FB615
:104D20000F9211242F933F934F935F936F937F9331
:104D30008F939F93AF93BF93EF93FF938091E10085
:104D400082FF09C08091E20082FF05C08091E100EE
:104D50008B7F8093E1008091DA0080FF24C08091F6
:104D6000D80080FF20C08091DA008E7F8093DA0027
:104D70008091D90080FF9BC080E189BD82E189BD1F
:104D800009B400FEFDCF81E080937A038091550342
:104D9000811109C00E94E2040E94AD058091E200E9
:104DA00084608093E2008091E10080FF17C08091D1
:104DB000E20080FF13C08091E2008E7F8093E200CA
:104DC0008091E20080618093E2008091D80080624F
:104DD0008093D80019BC85E080937A038091E1002C
:104DE00084FF29C08091E20084FF25C080E189BD55
:104DF00082E189BD89B5982F917080FFFBCF8091AA
:104E0000D8008F7D8093D8008091E1008F7E8093C1
:104E1000E1008091E2008F7E8093E2008091E200C9
:104E200081608093E20080917B03882309F445C070
:104E300084E080937A038091E10083FF27C0809112
:104E4000E20083FF23C08091E100877F8093E1002F
:104E500082E080937A0310927B038091E1008E7F41
:104E60008093E1008091E2008E7F8093E200809148
:104E7000E20080618093E20042E060E080E00E9416
:104E80007B058091F00088608093F000FF91EF91A6
:104E9000BF91AF919F918F917F916F915F914F9152
:104EA0003F912F910F900FBE0F901F90189519BC36
:104EB00010927A031092550376CF8091E30087FD1C
:104EC00093E090937A03B7CF78941F921FB61F9206
:104ED00011248F939F93AF93BF9380914C03909134
:104EE0004D03A0914E03B0914F030196A11DB11D3A
:104EF00080934C0390934D03A0934E03B0934F03C4
:104F0000BF91AF919F918F911F901FBE1F901895D9
:104F10001F921FB61F9211248F939F93AF93BF933D
:104F200080914B03811113C080914C0390914D03EC
:104F3000A0914E03B0914F034196A11DB11D8093E6
:104F40004C0390934D03A0934E03B0934F03BF9136
:104F5000AF919F918F911F901FBE1F901895CDB755
:104F6000DEB7E2970FB6F894DEBF0FBECDBF84B7B1
:104F7000877F84BF0FB6F894A89580916000886100
:104F800080936000109260000FBE80E890E00FB642
:104F9000F89480936100909361000FBE85B780689C
:104FA00085BF85B7806885BF8FEE98E09093F90143
:104FB0008093F8010E94E2040E94AD058091E20016
:104FC00084608093E200789480917A038823A1F032
:104FD0001091E9001F709091EC00892F817090FD75
:104FE00080E8182B1092E9008091E80083FD0E9470
:104FF000A4161F701093E90082E084BD93E095BD74
:105000009AEF97BD80936E00109247031092480369
:105010001092490310924A030E94BC14811102C0ED
:105020000E94D01352985A9889B182FB882780F940
:105030008093430180914301882309F480C010923A
:105040005E018AE080935F010E94431081110E94FB
:105050005E2F80914301811114C087E0E6E6F1E004
:10506000DE01119601900D928A95E1F7FE013196CD
:10507000ACE3B1E0CE01089621912D938E179F07E6
:10508000D9F78091430196E0811190E09093BB02A3
:1050900086E0891B8093BA0208EA11E05EEAE52EF9
:1050A00051E0F52EF80181918F018F3F11F00E94A0
:1050B000F308E016F106B1F70CE311E043E4E42E47
:1050C00041E0F42EF80181918F018F3F11F00E9491
:1050D000F308E016F106B1F7EEEAF2E08AEB92E0AF
:1050E000A6EDB2E011921D928E179F07D9F70E948C
:1050F0003E26811102C00E94761982E090E00E9453
:10510000F4318093C7020E94D51490935103809389
:1051100050030E9455248FE39CE90197F1F700C0EA
:1051200000000E9455248091D60280FF0CC06FEFD2
:105130007FEF90E080E00E9426320E946F068AE0B6
:1051400080935E017FCF83E090E00E94F4310E9463
:10515000EB0B0E944310811102C00E94612F8091CD
:10516000BC02811138C00E943E26811104C00E94F9
:1051700076190E94781688E090E00E94FC316093D6
:105180003703709338038093390390933A038091E7
:10519000F70283608093F7026E7F71F40E947816A5
:1051A00088E090E00E94FC316093370370933803ED
:1051B0008093390390933A030E94F6060E94EF060B
:1051C0008091370380FF04C060E086950E94171627
:1051D00081E08093BC0280914301811106C084E389
:1051E00080934F0185E380934E0120914F01A22FC0
:1051F000A295AF70B0E091963C9191972F7081E0AD
:1052000090E0BC01022E01C0660F0A94EAF7462F17
:105210004095432391964C93919792963C91929707
:10522000362B92963C93929740914E01E42FE29553
:10523000EF70F0E031A14F70042E01C0880F0A9486
:10524000EAF7982F9095932391A392A1892B82A39B
:1052500090968C9190E002C0959587952A95E2F7FB
:10526000817020A130E002C0359527954A95E2F77C
:1052700092E020FF90E0892B8093C502909143013A
:1052800081E098279093C402891B8093BD026091AE
:1052900050036068609350031091510384E090E0E4
:1052A0000E940832612F82E290E00E94083284E47A
:1052B00091E0909344038093430398E1692E712C0D
:1052C00020E4522E32EEA32E32E0B32EFE013196B0
:1052D0007F0180917A0300E112E1853009F44BC22D
:1052E0000E94552481110E948F06E8ECF2E0A6EDA1
:1052F000B2E010E000E0802ECD9081918C1509F491
:1053000049C28C25912CDD24D394982F9D2109F43A
:105310003CC20E944310882399F099A68AA6CD200A
:1053200081E009F480E08BA70E949B068160782FC2
:105330009DA78CA749A55AA56BA58DA50E94D12034
:10534000F801E853FD4F8081D826D0828091F60283
:10535000882309F464C08091F502E0913703E69553
:10536000E81BE093F102823009F02BC2F0E0E8572D
:10537000FD4FE4910E2F10E084EDC82E8FE0D82E63
:105380008091F202882361F01092F2020E94811053
:105390009093F0028093EF021092F4021092F302C5
:1053A0000E948110E091EF02F091F0029C012E1B0F
:1053B0003F0B2F3F3F4798F52091C0022223B1F0C9
:1053C0001092C0022091BE023091BF02821B930B4B
:1053D0008F3F9F4758F4205D3A483093BF02209397
:1053E000BE028091F70288608093F7028090F302FA
:1053F0009090F402E00FF11FF093F002E093EF02BF
:105400008FEE92E0F60109958091F3029091F402FB
:10541000892B29F4892819F081E08093C0028091BA
:10542000C502E82FEE0FEE0F90914F01A92FA29524
:10543000AF70B0E090962C9130E09F7002C035952F
:1054400027959A95E2F72170332790914E01A92F65
:10545000A295AF70B0E090964C9150E09F7002C062
:10546000559547959A95E2F7CA018170992740FFB3
:1054700002C082E090E0822B8E2B8093C5021091B7
:10548000C4028F70E82FF0E0EC54FE4F80819091C1
:10549000C302890F8093C30220E0843064F0E12FBF
:1054A000F0E0EF53FD4F80818F5F808360E0812FBC
:1054B0000E94F92121E08091C3028D3F64F4E12F25
:1054C000F0E0EF53FD4F80818150808361E0812FB8
:1054D0000E94F92121E08091C302082E000C990B53
:1054E00064E070E00E9441318093C30221110E9468
:1054F000BC0A86E0E9EEF2E0D70101900D928A95B0
:10550000E1F7D090EB02C090EC021091ED02009117
:10551000EE021092EB021092EC021092ED02109249
:10552000EE028D2D8C2909F448C08091E7029091FC
:10553000E8020E9480069C019091E302992309F4FD
:1055400058C423333105C8F19F3F19F09F5F9093F2
:10555000E302DD2059F00E9467089FEF1D140CF450
:1055600091E0899F802D11248093EB02CC2059F08B
:105570000E9467089FEF1C140CF491E0899F802D16
:1055800011248093EC023091EB023323B1F020918F
:10559000EC02222391F045EB3403C001112499233E
:1055A00009F469C19093EB0245EB240390011124A7
:1055B000332309F464C13093EC02812F802B09F46A
:1055C00048C08091E5029091E6020E9480069C010D
:1055D0009091E202992309F407C425363105C8F1F8
:1055E0009F3F19F09F5F9093E202112359F00E94B0
:1055F00045089FEF11160CF491E0899F802D11242E
:105600008093ED02002359F00E9445089FEF101689
:105610000CF491E0899F802D11248093EE0230914B
:10562000ED023323B1F02091EE02222391F045EBFD
:105630003403C0011124992309F425C19093ED028C
:1056400045EB240390011124332309F420C1309346
:10565000EE028091EB029091EC02892B9091ED0289
:10566000892B9091EE02892B11F00E949B0786E016
:10567000F701A9EEB2E001900D928A95E1F70E9440
:105680008A109091C602891721F00E948A10809397
:10569000C60280917A03843009F01BCE83E08093A8
:1056A000E9008091E80082FF14CE8091E80090E04C
:1056B00085FF0AC00E94010530E2C32ED12C87016C
:1056C000882309F4F2C091E08091E8008B77809301
:1056D000E800992309F4FDCD00913F0310914003A8
:1056E00089810115110509F4EEC08E3F09F070C1E2
:1056F0008A81833020F08550833008F069C1EA81C7
:10570000EE3008F065C1F0E0EE59FD4C0C947731B5
:1057100080917A03843009F110924B030FB6F8940C
:10572000A895609260000FBE5092600083B7817FA1
:10573000846083BF83B7816083BF7894889583B783
:105740008E7F83BF0FB6F894A89580916000886122
:1057500080936000109260000FBE809179038823CF
:1057600051F00E945524E6EDF2E0819181111DC3B4
:10577000AE16BF06D1F780917A03853009F4C8CF01
:105780000E948F160E948A10ABCD9394DD0C27E007
:105790009212BBCD0F5F1F4F0C30110509F0ABCD3E
:1057A0008FEF8EA78FA718AA0E949B068160782F83
:1057B0009AAB89AB4EA55FA568A98AA90E94D120A2
:1057C000C5CD863059F4F0E0EB57FD4FE4910E2F34
:1057D00010E0B4ECCB2EBFE0DB2ED2CD893061F4EB
:1057E000E695F0E0EE57FD4FE4910E2F10E0A5E1B5
:1057F000CA2EAFE0DA2EC4CD8F3061F4E695F0E02A
:10580000E158FD4FE4910E2F10E0FCE7CF2EFEE0B3
:10581000DF2EB6CD853159F4F0E0E458FD4FE49128
:105820000E2F10E0E5EFCE2EEDE0DE2EA9CD08E242
:1058300010E055E6C52E5DE0D52E883109F4A0CDE7
:10584000833249F4EAE7F2E0059114917BE6C72E32
:105850007FE0D72E95CD04EF11E068E2C62E6DE013
:10586000D62E843209F48CCD00ED17E04EEEC42E16
:1058700046E0D42E85CD81E08093EB0295CE81E089
:105880008093EC029ACE81E08093ED02D9CE81E044
:105890008093EE02DECE8091F100F80181938F01BA
:1058A000F1E0CF1AD10809F40ECF8091E80085FD10
:1058B000F2CF8091E8008B778093E8000E94010589
:1058C000882399F300CF893009F42BC128F584305F
:1058D00009F4C4C058F4823009F469C008F0AFC0BC
:1058E000813009F460C08FEF898372C0863009F47B
:1058F000CBC008F4BEC0873009F4C9C0883099F71E
:105900008A81813809F402C108F0F4C0803809F0B6
:105910005FC080913A0349C0803109F439C1B8F5BC
:105920008D3009F409C128F48C30E9F680E18A83CE
:105930004FC08E3009F404C18F30A9F68091630105
:1059400090916401892B09F443C0CC80D12C4DE1A6
:10595000C416D104E8F50A811B81102701271027FE
:105960004701C00ED11EC80189519D4F0C151D0560
:1059700079F10931E1E01E0720F4F40164810E940D
:105980000832FFEF8F1A9F0A0F5F1F4FECCF823153
:1059900009F403C108F4FFC0833109F425C18E3F27
:1059A00009F0A1CFACCE1A8289E08B8311C08A8125
:1059B000823009F410C2833089F1813009F093CF2D
:1059C0000E948F060E947D316B837C838D839E8332
:1059D00080917A03843009F07CCC1091E9001F702B
:1059E0009091EC00892F817090FD80E8182B82E067
:1059F0008093E9008091E80080FF0CC050E040E017
:105A000060E270E0C7010E9432058091E8008E7765
:105A10008093E8001F701093E9005BCC80916301D4
:105A200090916401892BA1F2DE011396E6EDF2E07C
:105A300081918D9322E0E23EF207D1F7C9CF8A81AE
:105A4000823009F050CF6B817C818D819E810E94D4
:105A50007D3186E290E00E940832BACF4C816B81A2
:105A60008A810E940F149827892798279E838D8307
:105A7000AFCF2D813E813227232732274C816B8186
:105A80008A810E941C13A4CF0E945113A1CF8A8146
:105A90008138C1F060F4803809F09ACF20E04B8162
:105AA00060913903809138030E94101591CF82389C
:105AB000E9F0833809F08CCF20E040913A036C8103
:105AC0008B81F2CF60E08B810E9417168B81811150
:105AD00003C00E94E80F7CCF8091370381608093E0
