:100000000C9461020C94A8020C94A8020C94A8020F
:100010000C94A8020C94A8020C94A8020C94A802B8
:100020000C94A8020C94A8020C943F270C94FB2675
:100030000C943A280C94A8020C94A8020C94A802E0
:100040000C94A8020C94A8020C94A8020C94A80288
:100050000C94A8020C9416280C94A8020C94A802E4
:100060000C94A8020C94A8020C94A8020C94A80268
:100070000C94A8020C94A8020C94A8020C94A80258
:100080000C94A8020C94A8020C94A8020C94A80248
:100090000C94A8020C94A8020C94A8020C94A80238
:1000A0000C94A8020C94A8020C94A8020501090261
:1000B000A10185020901A100050919012905150001
:1000C00025019505750181029501750381010501E1
:1000D000093009311581257F950275088106093897
:1000E0001581257F950175088106050C0A380215D2
:1000F00081257F950175088106C0C005010980A191
:1001000001850319012AB700150126B7009501756D
:10011000108100C0050C0901A101850419012AA064
:1001200002150126A002950175108100C005010984
:1001300006A1018505050719E029E71500250195A8
:1001400008750181020507190029EF1500250195A1
:10015000F0750181020508190129059505750191C0
:1001600002950175039101C00660FF0961A10109B3
:1001700062150026FF0095207508810209631500AD
:1001800026FF00952075089102C005010906A1010E
:10019000050719E029E71500250195087501810279
:1001A0009501750881010507190029FF150026FF33
:1001B0000095067508810005081901290595057542
:1001C000019102950175039101C00000000000003B
:1001D000000000000000000000000000000000001F
:1001E00000000000000000000000000000007E0F82
:1001F00000D4FFFFFFC700000078000000000000EF
:1002000000002A2B28000000000000000000000071
:10021000000000000029000000002C1E34202122D4
:1002200024342627252E362D3738271E1F2021223D
:10023000232425263333362E37381F0405060708B6
:10024000090A0B0C0D0E0F101112131415161718A6
:10025000191A1B1C1D2F3130232D350405060708E4
:10026000090A0B0C0D0E0F10111213141516171886
:10027000191A1B1C1D2F3130354CFD377A585A0086
:100280000004E6D6B4460200210116000000742FD7
:10029000E5A3E000B900895D003D8889C65436C3F6
:1002A000174FE4D61A1F4211555F1D9AD635CF005D
:1002B0005243C94E3E5FDB9F2C62D1E83FAE81EFD7
:1002C000EBE8BCE188AFECE88FE7A1B6F9F0E0AE6F
:1002D000E23175E6A848EF328CE179189710FB3EC1
:1002E00008D155053548A222A4AD8C713679F71690
:1002F000B03E75B86233E66DE09668EEB0480D4BDF
:1003000045D3C648DCB57210EF2DBC98D91698A518
:1003100020438DCC434D0D8A5D53DA75383F0D1562
:10032000FE6F00000000A54C26EEA1C4183C0001A1
:10033000A501BA010000F9B9E9C4B1C467FB020024
:1003400000000004595A3A003B003C003D003E00CA
:100350003F00400041004200010001000100010097
:100360000100010001000100010001000100010085
:100370000100010001000100010001000100010075
:10038000E603000002000200E20300000300010097
:10039000E703000004000200CC030A050500010089
:1003A000E803000006000200CE0300000700020080
:1003B000E403000008000100E90300000900020056
:1003C000D003E5040A000200D203E5040B0002009A
:1003D000D403E5040C000200D603E5040D0002007E
:1003E000D803E5040E000200DA03E5040F00020062
:1003F000DC03E50410000200DE03E5041100020046
:10040000E003E50412000200EA030000130002000A
:10041000EC03000009025B00030100A0FA090400DC
:100420000001030101000921110100012240000720
:1004300005810308000A0904010002030000000905
:10044000211101000122220007058203200001077B
:100450000503032000010904020001030000000954
:10046000211101000122BC000705840320000A12AB
:100470000100020000000827629C00000101020345
:10048000011C037600690061006C003A00660036CA
:100490000034006300320062003300630000000A91
:1004A00003390050004D0043000000100367007244
:1004B000006C00640074006D006B00000004030910
:1004C000040011241FBECFEFDAE0DEBFCDBF04B6BB
:1004D00003FE27C08091320490913304A09134042C
:1004E000B09135048730904BA740B04BD1F41092B7
:1004F000320410923304109234041092350414BE66
:1005000084B7877F84BF0FB6F894A8958091600068
:10051000886180936000109260000FBEE0E0F8E315
:10052000099511E0A0E0B1E0EEEAFEE502C0059019
:100530000D92A836B107D9F724E0A8E6B1E001C0D2
:100540001D92A233B207E1F70E9461280C94E42EB9
:100550000C940000E8EDF0E080818E7F80831092A3
:10056000E2001092DA001092E100A0EEB0E08C916F
:1005700081608C9380818F77808319BCA7EDB0E078
:100580008C918E7F8C9380818F7E80831092020469
:1005900008952091E4003091E50095E6A9012091AD
:1005A000EC00822F817020FF06C08091E80080FF60
:1005B00006C080E008952091E80022FD1AC08091D5
:1005C0002704882389F0853089F08091EB0085FD30
:1005D0000FC02091E4003091E50042175307F9F273
:1005E0009150E1F684E0089582E0089583E0089553
:1005F00081E00895EF92FF920F931F93CF937C01B8
:100600008B010E94C902C82F811117C08091E80098
:1006100085FD0BC08091E8008E778093E8000E94F2
:10062000C902882399F3C82F08C0F70181917F017F
:100630008093F1000150110949F78C2FCF911F9140
:100640000F91FF90EF9008958091290487FF13C0C8
:100650008091E80082FF06C08091E8008B7780934C
:10066000E80004C0809127048111F2CF08958091A1
:1006700027048823D9F38091E80080FFF8CF809188
:10068000E8008E77ECCF982F9093E900242F762FF7
:1006900050E0891731F07091EC002091ED005091FD
:1006A000F00021FD07C09F5F973071F78093E9004C
:1006B00081E008953091EB003E7F3093EB00309164
:1006C000ED003D7F3093ED003091EB0031603093D1
:1006D000EB007093EC002093ED005093F00020911C
:1006E000EE0027FDE0CF80E00895CF92DF92EF92F9
:1006F000FF920F931F93CF93DF93C8EDD0E08881D3
:100700008F7E8883E7EDF0E080818160808384E0E4
:1007100082BF81E08093020488818E7F888302EE0D
:1007200010E0F80110821092DA0081EEC82ED12C70
:10073000F601108288818F7788838881806888831A
:1007400088818F7D888319BC109227041092280419
:10075000109226041092250490EEE92EF12CF70158
:1007600080818B7F808388818160888342E060E024
:1007700080E00E944303F60180818E7F8083F80130
:10078000808181608083808188608083F70180819F
:100790008E7F8083888180618883DF91CF911F91D4
:1007A0000F91FF90EF90DF90CF900895FC01809122
:1007B0002F049091300486179707A0F061157105FA
:1007C00029F49091E8009E779093E80090E06115FD
:1007D000710551F4911108C08091E80082FF34C086
:1007E00080E00895BC01F2CF809127048823C1F1F5
:1007F0008530C1F18091E80083FD30C08091E80030
:1008000082FDEACF8091E80080FFE1CF8091F30084
:100810002091F200382F6115710519F0283031054B
:1008200058F091E02830310509F090E02091E8007F
:100830002E772093E800CBCF81918093F100615017
:1008400071092F5F3F4FE7CF80912704882341F044
:10085000853041F08091E80083FFBECF81E00895AC
:1008600082E0089583E0089580910404089587E765
:1008700097E7909301088093000888E19AE00FB60B
:10088000F894A895809360000FBE90936000FFCF0E
:100890009C014FB7F8948091F9039091FA03A091CD
:1008A000FB03B091FC034FBF821B930B08952FB73E
:1008B000F8948091F9039091FA03A091FB03B09111
:1008C000FC032FBF08952091F6033091F7032817FA
:1008D000390771F09093F7038093F603E091F403E6
:1008E000F091F503309721F00084F185E02D099413
:1008F00008952091F2033091F3032817390771F01E
:100900009093F3038093F203E091F403F091F503E5
:10091000309721F00680F781E02D09940895E09149
:10092000F403F091F503309721F00190F081E02D70
:10093000099480E00895452B39F0682381E06F3FEA
:1009400009F080E08170089581E0FCCFDC016091C6
:10095000140380911503962F891301C00895292F40
:1009600030E0F901EE0FFF1FE45FFC4F4081518141
:100970004A175B07A1F487E08A9FA0018B9F500D67
:1009800011244C525D4F81E0FA0184839613E6CF27
:100990002F5F3F4F237033272093140308952F5F59
:1009A0003F4F922F9370D8CF109271021092700225
:1009B000E4EDF2E08581811102C01482168237963F
:1009C00083E0EC30F807B1F70895ECECF3E08481B4
:1009D00095812AE030E0B9010E942F2E6093140126
:1009E0008681809313018285809312018485809390
:1009F000110186859785B9010E942F2E6093100101
:100A0000808980930F01828980930E01848980936D
:100A10000D0108958091CC039091CD03909317011F
:100A20008093160108950E9457049C01909103023F
:100A300080910402982B21F0309300022093FF0153
:100A40009091050280910602982B21F03093FE01CF
:100A50002093FD01E091F403F091F503309749F004
:100A600082E0809301020480F581E02D81E092E034
:100A70000994089590910302803F59F480910402F3
:100A800087FF0DC01092040291110BC01092FB0160
:100A900008C0813F81F48091040218169CF39923C9
:100AA00081F08091050290910602892B09F064C0C3
:100AB0001092FA010895823F49F497FFF0CF109207
:100AC0000302809104028111ECCFE0CF833F19F43F
:100AD0001916ACF3E4CF20910502893F29F41216D0
:100AE000F4F610920502DBCF8A3F19F427FFD7CF27
:100AF000F8CF209106028B3F29F427FFD0CF109228
:100B00000602CDCF8C3F19F41216CCF3C8CF843F28
:100B100031F4809102028E7F80930202C0CF853F24
:100B200021F4809102028D7FF7CF863F21F48091DE
:100B300002028B7FF1CF873F21F480910202877FF1
:100B4000EBCF883F21F4809102028F7EE5CF8D3F6D
:100B500031F48091FC018E7F8093FC01A0CF8E3F09
:100B600021F48091FC018D7FF7CF8F3F09F097CF63
:100B70008091FC018B7FF0CF08958091FC0180FF74
:100B80000CC060910E0170E075956795759567953D
:100B90006115710549F1862F089581FF06C06091A6
:100BA0000E0170E075956795F3CF60910E0182FD9F
:100BB0000BC09091FA019923A1F060910D018091F1
:100BC0000E01961738F0682F70E06038710500F359
:100BD0008FE70895899FC001112470E00E94432E81
:100BE000F4CF61E070E0D7CF81E008958091FC01FF
:100BF0006091D4037091D50380FF16C0209112013B
:100C0000269FC001279F900D1124BC017695679502
:100C1000769567956038710508F043C061157105D8
:100C200009F441C0862F089581FF0BC02091120165
:100C3000269FC001279F900D1124BC0176956795D2
:100C4000E9CF82FF09C0809112019B01829FB00110
:100C5000839F700D1124DECF2091FB012223D1F25E
:100C60009091110180911201482F50E0291748F00E
:100C7000CB01849FB001859F700D949F700D11244E
:100C8000C9CF289F90011124269FA001279F500DB6
:100C9000369F500D1124692F70E0CA010E942F2E3B
:100CA000B9CF8FE7089581E00895803F31F40E9425
:100CB000F6058195809304020895813F19F40E94FE
:100CC000F605F8CF823F31F40E94F60581958093B6
:100CD00003020895833F19F40E94F605F8CF893F77
:100CE00029F40E94BD058093050208958A3F21F4EE
:100CF0000E94BD058195F7CF8B3F31F40E94BD0561
:100D000081958093060208958C3F19F40E94BD05D9
:100D1000F8CF843F31F48091020281608093020217
:100D20000895853F21F4809102028260F7CF863FCB
:100D300021F4809102028460F1CF873F21F48091F9
:100D400002028860EBCF883F21F48091020280612B
:100D5000E5CF8D3F31F48091FC0181608093FC01EF
:100D600008958E3F21F48091FC018260F7CF8F3F80
:100D7000B9F78091FC018460F1CF80E00895F89488
:100D8000E82FE295EF70F0E031A1282F2F7081E07D
:100D900090E001C0880F2A95EAF7982F9095932349
:100DA00091A392A1892B82A3789408959091FD0339
:100DB00092FF06C0282F28712830F9F4877F8460BD
:100DC00093FF06C0282F28712831F1F4877E8461B3
:100DD0002091FE0320FF06C0382F38713830D9F437
:100DE000877F816021FF06C0282F28712831D1F428
:100DF000877E816194FD877E0895282F2471243099
:100E0000F9F68B7F8860DCCF282F2471243101F71D
:100E10008B7E8861DDCF382F3171313019F78E7FAD
:100E20008860E0CF282F2171213121F78E7E8861E3
:100E3000E1CFCF93DF93EC0182389105A9F1D8F58A
:100E40008133910509F496C048F58932910509F47A
:100E50008AC08A9709F495C0C11521E5D20708F028
:100E6000BCC0C11530E5D30708F014C1C83ED10598
:100E700008F09CC0C03ED10560F5C83AD10508F025
:100E800087C0C53AD10508F0FDC0C130D10509F1D0
:100E90002097F9F0C430D105E0F440C085339105C6
:100EA00009F45AC0C997C1F68091FD03837089F097
:100EB000C0EED0E00EC0833E910599F170F4803E03
:100EC000910501F1823E910539F68091FD0382FD85
:100ED00021C0CE01DF91CF910895863E910561F149
:100EE000873E910571F1843E910509F0B5CF80915F
:100EF000FE0381FFEECF8091FD03C7EED0E084FDBD
:100F00000DC0E7CF8091FD0380FD12C19091FE03DB
:100F100090FFDFCFC3EED0E084FFDBCFD0E0C0E0B6
:100F2000D8CF8091FD0382FD06C19091FE0390FD14
:100F3000BFCF84FFCECFF2CF8091FD0383FDDDCF05
:100F4000C8CF8091FD0383FDF9C09091FE0391FF0E
:100F5000F0CFC4EED0E0BDCF8091FD0385FFB9CFC7
:100F6000C9E2D0E0B6CF8091FD0385FFB2CFC5E3E3
:100F7000D0E0AFCF8091FD0386FFABCFCAE2D0E0D7
:100F8000A8CF8091FD0386FFA4CFC1E3D0E0A1CF1D
:100F9000CF3BD10518F6C85AD0E0CC0FDD1FCB5D92
:100FA000DE4F0990D881C02DD46493CFC11540E2A3
:100FB000D40758F4C11581E0D80708F08ACFC03FA4
:100FC000D10508F4ABCFD06584CFC11590E4D90723
:100FD00008F4A4CFDF70D06A7CCFC11525E5D20715
:100FE00000F5C11534E5D30708F08AC0C11543E503
:100FF000D40708F071C0C11582E5D80708F467C0AE
:10100000CE018370992721E030E002C0220F331F08
:101010008A95E2F7C695C69580E2C89FE001112443
:1010200052C0C11599E5D907A8F4C11528E5D20722
:1010300008F06BC0C11536E5D30708F06FCF8C2FD1
:101040000E94D606C82FD0E0DC2FCC27CC27DF713A
:10105000D0623FCFC1154AE5D40708F45BC0CE018A
:1010600090568115904208F059CF8D2F8F710E94B4
:10107000D60690E0982F882788279F719C012C2BFB
:10108000E901E6CFC55AD0E0CE5DDE4FC881D0E0A1
:10109000D0641FCFCE01E4E096958795EA95E1F7FD
:1010A00083702C2F26952695237040E2249F900173
:1010B0001124382B8C2F8370C1E0D0E002C0CC0FFC
:1010C000DD1F8A95E2F7C22BD32BDC6802CFDC2F21
:1010D000CC27C16FD06AFDCECE018370992721E065
:1010E00030E002C0220F331F8A95E2F7C695C695FD
:1010F00090E2C99FE0011124C22BD32BDA68E9CE1C
:10110000DC2FCC27C46FD06AE4CEDC2FCC27C06F95
:10111000D06ADFCE8C2F8F700E94D60634E0D69531
:10112000C7953A95E1F7CF709C2FEC01D069D1CEED
:10113000C9E3D0E0CECEC2EED0E0CBCEC6EED0E05A
:10114000C8CE8091E701882331F01092E701109218
:10115000E6011092E501089580959091CB039823C4
:101160009093CB03089580959091180398239093C2
:10117000180308951092E3011092E2011092E10128
:1011800008958091CE039091CF03892B89F00E941E
:1011900057042091E5013091E601AC01421B530B4D
:1011A00081E02091CE033091CF034217530708F41A
:1011B00080E081700895809118039091CB03892B72
:1011C0009091E401892B80936A018091E701882343
:1011D00019F18091CE039091CF03892B29F00E94C1
:1011E000C10881110E94A10880916A019091E701D4
:1011F000892B80936A0180911901882341F18091A4
:10120000FD0387FF24C08EE1ECE6F1E090E0815021
:1012100000F591110E94A108E091F403F091F5030B
:101220003097E1F080911901882359F08091FD03F6
:1012300087FF07C080916A0180936B0185E08093EE
:101240006A010280F381E02D8AE691E0099486E04C
:10125000DBCF21912223D9F29F5FD9CF0895EF925E
:10126000FF920F931F93CF93DF93EC018A85811137
:1012700034C0EB80FC8087E5F81A26E12E9DC00182
:101280002F9D900D1124DC01A55EBC4F1496ED91AD
:10129000FC911597309731F054966D917C918F5D4C
:1012A0009C4F099586E18E9D80018F9D100D112424
:1012B000055E1C4FF80187810E94B308F801808504
:1012C0000E94AC080E94DB08188219861B861E82C9
:1012D0001D8210921A0310921903DF91CF911F9172
:1012E0000F91FF90EF900895CF93DF93EC018989E0
:1012F00081111BC081E0898B809118039F81892B0C
:10130000809318038091CB039885892B8093CB031E
:101310000E94DB08EA81FB81309739F06C897D8976
:10132000CE010696DF91CF910994DF91CF91089578
:101330008091E00181111092E001089590911901CE
:101340009923D1F09091FD0397FF16C0E82FE69501
:10135000E695E695EE31E0F4F0E0E659FE4F282FF1
:10136000277081E090E001C0880F2A95EAF7809508
:101370009281892382830895ECE6F1E091918913AB
:1013800003C0DF0111971C9291E0E237F907B1F732
:101390000895909119019923C1F09091FD0397FF51
:1013A00014C0E82FE695E695E695EE31F8F4F0E006
:1013B000E659FE4F877021E030E001C0220F8A9588
:1013C000EAF78281822B82830895ACE6B1E0EFEFE9
:1013D00090E02D91821751F0EF3F19F4211101C0D7
:1013E000E92F9F5F9630A9F7EF3F09F408950E2E7D
:1013F000000CFF0BE659FE4FE6CF2091DF019091E4
:101400009E01291302C080E0089530E0F90153E005
:10141000EE0FFF1F5A95E1F7E156FE4F518156132B
:1014200006C05081581303C05281541304C02F5F6B
:101430003F4F2770E6CF81E008958091DF019091C2
:101440009E01981301C008958F5F8770FACF9E3F69
:1014500049F1292F220FE22FE90FE80F9E2F9770F5
:10146000E695E695E69583E0E89FF0011124E057C4
:10147000FE4F50E040E080E0219130E0092E02C0B4
:10148000369527950A94E2F721703327042E01C080
:10149000220F0A94EAF7822B4F5F5F4F43305105CA
:1014A00059F7089580E008959E3F69F1292F220F92
:1014B000E22FE90FE80F8E2F877041E001C0440F43
:1014C0008A95EAF7E695E695E69583E0E89FF001D0
:1014D0001124E057FE4F30E020E070E05191DF0131
:1014E0001197CB01022E02C0969587950A94E2F7D8
:1014F000817081958527842385278C932F5F3F4FAB
:101500002330310559F70895E92FE295EF70E25045
:10151000EE3070F4F0E0EA51F14D0C94572E803F1C
:1015200019F020F4883E20F481E00895843FE1F32F
:1015300080E00895883EC0F3813FD1F7F5CF93FB5B
:10154000882780F9089590E080E00E94790490E077
:1015500080E00E9463041092CB031092E4010E9489
:10156000DB0886E0E1E0F2E0DF011D928A95E9F711
:101570001092FB011092FA011092FC010C941305D9
:10158000809331040C94A30A80913104982F9670B3
:10159000963019F488600C94C00A877FFCCF21E054
:1015A00030E001C0220F8A95EAF72095809131043E
:1015B00082230C94C00A9091E30180958923809343
:1015C000E301282F277039F4282F082E000C330B45
:1015D0009217130621F49091FE0392FF07C08595A0
:1015E000859585950E94CF0A0C94BA08089521E04C
:1015F00030E001C0220F8A95EAF780913104822BF6
:101600000C94C00A9091FE0392FD10C098E0899F4F
:1016100090011124622B6093E3010E94F70A0E945B
:1016200057049093E2018093E10108950C94F70A26
:101630008093E8010C94A30A882321F00E94AC084F
:101640000C94DB080895882339F09091CB03982BF4
:101650009093CB030C94DB080895882321F00E941B
:10166000B3080C94DB080895882339F0909118038F
:10167000982B909318030C94DB080895882309F4A1
:1016800052C0823871F40E948F0481FF4CC089E3FC
:101690000E94C9090E94DB0889E30E949E090C94FC
:1016A000DB08833859F40E948F0480FF3CC083E537
:1016B0000E94C9090E94DB0883E5EFCF843859F402
:1016C0000E948F0482FF2FC087E40E94C9090E94F4
:1016D000DB0887E4E2CF9CEF980F913AF0F290E2BA
:1016E000980F983050F4877091E001C0990F8A9557
:1016F000EAF7892F0E94B308D2CF9BE5980F933069
:1017000020F490E080E00C94790498E5980F9731EC
:1017100020F490E080E00C946304803F20F00E946D
:101720003A050C94130508959C013A9521153F4103
:1017300050F5FC01EE27F170BC0166277270AC0118
:10174000442754709C012227387094FF0EC080E11A
:10175000EF2B09F480E0672B09F08062452B09F03C
:101760008064232B89F08068089581E0EF2B09F4D1
:1017700080E0672B09F08260452B09F08460232B01
:1017800019F08860089580E00895909127049430BE
:1017900029F58093FF0370930104609300049093F4
:1017A000E9008FEF9091E800815095FD06C095ED1E
:1017B0009A95F1F700008111F5CF8091E80085FF3F
:1017C0000DC050E040E063E070E08FEF93E00E94D6
:1017D000FA028091E8008E778093E8000895BC01BA
:1017E00084E00C94C50BBC0183E00C94C50B9C01F8
:1017F00084E08093E9009FEF8091E800915085FD9F
:1018000006C085ED8A95F1F700009111F5CF809122
:10181000E80085FF0CC050E040E066E070E0C901E0
:101820000E94FA028091E8008E778093E800089584
:10183000CF93DF93EC01809119018823B1F180915E
:10184000FD0387FF32C060E284E08093E9008FEF00
:101850009091E800815095FD06C095ED9A95F1F7BD
:1018600000008111F5CF8091E80085FF1BC08091B9
:10187000190170E050E040E0811104C050E040E008
:1018800068E070E0CE010E94FA028091E8008E7755
:101890008093E80080E2FE01A5E0B4E001900D92A3
:1018A0008A95E1F7DF91CF91089568E081E0CDCF8F
:1018B000019708F40895EFE9FFE03197F1F700C0D0
:1018C0000000F6CF0F931F93CF93DF930CEC13E040
:1018D000CFE6D0E0CE010E949A2EF80181938F01CD
:1018E0002196C139D105B1F7C2E8D3E0FE01859157
:1018F0009491009711F0FC0109952896F4E0CA3103
:10190000DF07A1F7DF91CF911F910F9108950F93FA
:101910001F93CF93DF93843030F5633020F543304D
:1019200010F5C42FD0E0CC0FDD1F26E0629FC00D64
:10193000D11D112432E1839FC00DD11D1124CE0190
:1019400087960E949A2E082F10E0102F0027CE01B4
:1019500088960E949A2E9801282BC901DF91CF9179
:101960001F910F91089590E080E0F8CF462F2091CD
:101970006B0230916C02232B91F47E3F39F46E3F61
:1019800071F48091690290916A020895843038F46C
:10199000733028F4633018F4672F0C94870C90E0B0
:1019A00080E00895CF92DF92FF920F931F93CF9321
:1019B000DF936C01009131048091E801082BC7E0AE
:1019C000D0E010E0FC2EC8010C2E02C09595879542
:1019D0000A94E2F780FD0CC02197A0F7F12C8F2D1F
:1019E000DF91CF911F910F91FF90DF90CF900895DD
:1019F000B6018C2F0E94B60C0E941907019761F363
:101A0000EECFCF93DF93EC010E94D20CBE010E9477
:101A1000B60CDF91CF910C941907FC018681978158
:101A2000009721F00E9419070C94840A808191810B
:101A30000E94010DF9CF1F93CF93DF9300D000D008
:101A40000F92CDB7DEB749835A8389819A81662385
:101A5000B9F02223A9F00E94D20C182F682F898197
:101A60009A810E94540A69817A81812F0F900F9088
:101A70000F900F900F90DF91CF911F910C94B60CA7
:101A80000E94270A182FEFCFFC01262F868197810D
:101A9000009739F4408151816281738184810C9473
:101AA0001B0D089583E290E00E949A2E813F89F4F5
:101AB00084E290E00E949A2E8F3E59F485E290E0F5
:101AC0000E949A2E91E08F3709F090E0892F817063
:101AD000089580E0FCCFCF9384E090E00E949A2E9E
:101AE000C82F82E290E00E949A2E982F8C2FCF91DF
:101AF00008950F931F93CF93DF930CEC13E0CFE681
:101B0000D0E0CE010E949A2EF80161918F016817F2
:101B100019F0CE010E94A82E2196C139D10589F76E
:101B2000DF91CF911F910F910895ECECF3E0128EAD
:101B3000138E8FEA90E09183808385E0848F88E81C
:101B400093E1938382834CE251E05583448322E303
:101B500030E03783268385E090E0918780878AE0B4
:101B600090E09387828764E170E075876487578788
:101B7000468744E650E0518B408B48E050E0538B61
:101B8000428B48E250E0558B448B378B268B28ECF8
:101B900030E0318F208F158E978F868F80E590E013
:101BA00091A380A30E94790D0C94620CCF93DF93D4
:101BB000C1E3D1E060E0CE010E94A82E2196C115BC
:101BC00084E0D807B9F7DF91CF9108950F931F9361
:101BD000CF93DF938901843048F5633038F5433083
:101BE00028F521153C4531F420910B0130910C0171
:101BF000232BE1F0C42FD0E0CC0FDD1F96E0699FCE
:101C0000C00DD11D112492E1899FC00DD11D112459
:101C1000612FCE0187960E94A82E602FCE01889654
:101C2000DF91CF911F910F910C94A82EDF91CF914E
:101C30001F910F910895CF93C82F6FEF811161EF1E
:101C400083E290E00E94A82E6FEFC1116FEE84E254
:101C500090E00E94A82E6FEFC1116FE785E290E03F
:101C6000CF910C94A82ECF93C091FE03C2FB99276D
:101C700090F9981781F080FBC2F9C093FE03609140
:101C8000FD0384E090E00E94A82E6C2F82E290E099
:101C9000CF910C94A82ECF9108957F928F929F920E
:101CA000AF92BF92CF92DF92EF92FF920F931F936A
:101CB000CF93DF93CDB7DEB764970FB6F894DEBF4E
:101CC0000FBECDBFA0900B01B0900C0181E090E061
:101CD00090930C0180930B0186E4C82E83E0D82EEC
:101CE00000E0760110E015C0F40125913491472DF4
:101CF000612F802F0E94E60D82E0880E911C739464
:101D0000E3E07E12F1CFF6E0EF0EF11C1F5F13301F
:101D100019F04701712CE8CF0F5F82E1C80ED11C8A
:101D20000430F9F60E94950D1A8219821C821B82DA
:101D30001E821D8218861F8288EC90E09A87898710
:101D400001E910E04AE050E0B801CE0101960E949E
:101D5000CC2E065F1F4F013E1105A1F77E01EBE07F
:101D6000EE0EF11C8AE0F70111928A95E9F74AE03C
:101D700050E0B801C7010E94CC2E065F1F4F01330F
:101D8000F1E01F07A1F7B0920C01A0920B0164963D
:101D90000FB6F894DEBF0FBECDBFDF91CF911F917C
:101DA0000F91FF90EF90DF90CF90BF90AF909F90FA
:101DB0008F907F90089580E00E941B0E60E086E285
:101DC00090E00E94A82E0E944D0E0E94D60D81E048
:101DD0000C941B0E9B01883070F49AE0899FB0012F
:101DE00011246F567F4F4AE050E0C9010E948A2EAD
:101DF00090E080E008958FEF9FEF08958F929F927B
:101E0000AF92BF92CF92DF92EF92FF920F931F9308
:101E1000CF93DF93CDB7DEB72A970FB6F894DEBF26
:101E20000FBECDBF0BE113E0F12CE12C85E5C82EF0
:101E300086E2D82E9FE7A92E96E2B92E25EA822EB9
:101E400025E2922EF801D182C082B382A2829582CD
:101E50008482F58AE48ABE016F5F7F4F8E2D0E94D7
:101E6000EA0E892B29F489859A85F801938B828B58
:101E7000FFEFEF1AFF0A0A5E1F4F88E0E816F10431
:101E800009F72A960FB6F894DEBF0FBECDBFDF91DB
:101E9000CF911F910F91FF90EF90DF90CF90BF9067
:101EA000AF909F908F900895CF92DF92EF92FF9224
:101EB0000F931F93CF93DF93CDB7DEB72A970FB65B
:101EC000F894DEBF0FBECDBFE9E1F2E080E5DF01AF
:101ED0001D928A95E9F7E4EDF2E088E3DF011D92B7
:101EE0008A95E9F789E1C82E82E0D82E7F0101EEBC
:101EF00010E0F701D182C0824AE050E0B801CE0183
:101F000001960E948A2E88E0FE013196D60101904A
:101F10000D928A95E1F789859A85D70113969C934E
:101F20008E931297BAE0CB0ED11CE7E0EE0EF11CB7
:101F3000065F1F4F0133F1E01F07D9F62A960FB64F
:101F4000F894DEBF0FBECDBFDF91CF911F910F91EF
:101F5000FF90EF90DF90CF9008951092180380913A
:101F60001901ECE6F1E0882359F08091FD0387FF29
:101F700007C08EE1DF011D928A95E9F70C94A30A50
:101F800086E0F8CF1F93CF93DF93CDB7DEB7AA9744
:101F90000FB6F894DEBF0FBECDBF89E294E020916A
:101FA000F100DC012D93CD01B4E081339B07B9F73B
:101FB00080912A04833009F471C0B8F4813009F4A7
:101FC00048C0823009F4B2C08091E80083FF3AC172
:101FD0008091290490912A049A3008F033C1E92FA6
:101FE000F0E0EC50F14D0C94572E8A3009F48DC07E
:101FF0008B3009F470C0893039F78091290481321F
:1020000019F780912D0490912E04009711F00297FA
:10201000D9F68091E800877F8093E8008091E800FE
:1020200082FF37C09091F3008091F200029729F46B
:102030008091F1008B7F813021F48091F1008093B9
:1020400004048091E8008B778093E8000E942403C9
:10205000BBCF80912904813A09F0B6CF8091E80086
:10206000877F8093E80080912D0490912E04892B26
:1020700061F460E285E094E070E00E94D603809114
:10208000E8008B778093E8009FCF60E090E080E0ED
:10209000F3CF809127048111C1CF96CF809129047D
:1020A000813A09F091CF80912D0490912E04892BD3
:1020B00009F08ACF8091E800877F8093E8008091C3
:1020C000E80080FFFCCF809119018093F10080919E
:1020D000E8008E77B9CF80912904813209F074CF5E
:1020E00080912D0490912E04892B09F06DCF809161
:1020F000E800877F8093E8000E94240380912B04EE
:10210000809319010E94AD0F5FCF80912904813225
:1021100009F05ACF8091E800877F8093E8000E9401
:10212000240380912C04809303044ECF80912904D2
:10213000813A09F049CF8091E800877F8093E800D9
:102140008091E80080FFFCCF80910304BECF8038EF
:1021500099F0823809F076C080912D048F70873015
:1021600008F070C08093E9008091EB0085FB882720
:1021700080F91092E90006C0809125049091260410
:10218000911182609091E800977F9093E80080938E
:10219000F1001092F1008091E8008E77C0C1882391
:1021A00009F4ADC1823009F04DC080912B0481113A
:1021B000B1C180912D048F702FEF280F263008F0C9
:1021C00041C08093E9002091EB0020FFA3C1933030
:1021D00031F48091EB0080628093EB009BC1909181
:1021E000EB0090619093EB0021E030E001C0220F02
:1021F0008A95EAF72093EA001092EA008091EB00BA
:102200008860EACF81111EC010912B041F77809146
:10221000E3008078812B8093E3008091E800877F42
:102220008093E8000E9424038091E80080FFFCCFA7
:102230008091E30080688093E30082E0111183E0E5
:10224000809327048091E80083FF0AC08091E80012
:10225000877F8093E8008091EB0080628093EB00A1
:10226000AA960FB6F894DEBF0FBECDBFDF91CF9117
:102270001F9108958058823028F720912B043091C7
:102280002C042C3DE3E03E07A1F583E08A838AE23B
:1022900089834FB7F894DE01139620E03EE051E2C7
:1022A000E32FF0E050935700E49120FF03C0E29544
:1022B000EF703F5FEF708E2F90E0EA30C0F0C7966E
:1022C0008D939D932F5F243159F74FBF8091E80084
:1022D000877F8093E8006AE270E0CE0101960E9459
:1022E000D6038091E8008B778093E800ABCFC0964F
:1022F000E7CF80912D0490912E04432F5527433032
:10230000510509F44AC078F54130510509F485C0FA
:102310008BE590E0E4E1F4E04230510509F092CF22
:102320002091E800277F2093E80020912F0430912E
:1023300030048217930708F49C0140E02115310511
:1023400009F070C041116EC08091E80082FDC9CFD4
:1023500080912704882329F2853019F28091E800C2
:1023600083FFF2CFBECF4132510509F447C042325C
:10237000510509F067CF8330910508F063CFFC0168
:10238000EE0FFF1FE45AFE4F0190F081E02D875AB7
:102390009E4FDC018C9190E01DC033272130310528
:1023A000E9F02115310579F022303105F9F02330BB
:1023B000310509F047CFE1E8F4E0E4918E2F90E099
:1023C000E1E8F4E007C0EDEBF4E0E4918E2F90E05B
:1023D000EDEBF4E0009709F435CFA2CFEBEAF4E09F
:1023E000E4918E2F90E0EBEAF4E0F4CFEFE9F4E033
:1023F000E4918E2F90E0EFE9F4E0ECCF833091058B
:1024000008F020CF880F991FFC01EE59FE4F019074
:10241000F081E02D89E090E083CF82E190E0EFE66B
:10242000F4E07ECF80912704882309F45ACF8530C9
:1024300009F457CF8091E80083FD53CF8091E800E5
:1024400082FD82CF8091E80080FF78CF9091F300E9
:102450008091F2002115310519F08830910550F076
:1024600041E0089709F040E08091E8008E77809382
:10247000E80064CF44914093F10031962150310936
:102480000196E8CF803809F0DDCE8091E800877FA3
:102490008093E800809128048093F1007CCE811124
:1024A000D1CE10912B04123008F0CCCE8091E800F0
:1024B000877F8093E800109328040E94240311234F
:1024C00011F084E005C08091E30087FDFACF81E040
:1024D0008093270442E061EC81E00E94430342E2E2
:1024E00061EC84E00E94430342E261EC82E00E94DE
:1024F000430342E260EC83E00E944303A3CE809159
:102500002B04813009F09ECE81E0933009F080E009
:10251000809326041092E9008091E800877F8093E1
:10252000E8000E9424038ECE6AEE7EEF90E080E009
:102530000E94C62E60E082E090E00E94A82E60E03B
:1025400083E090E00E94A82E1092E80160E084E011
:1025500090E00E94A82E60E082E290E00E94A82E07
:1025600060E085E090E00E94A82E60E086E090E0C8
:102570000E94A82E6FEF87E090E00E94A82E40E016
:1025800050E0BA0188E090E00E94BA2E60E08DE051
:1025900090E00E94A82E40E050E0BA0188E190E06F
:1025A0000E94BA2E60E087E190E00E94A82E40E0F1
:1025B00050E0BA018CE190E00E94BA2E70E060E039
:1025C00080E290E00E94C62E40E050E0BA0188E12F
:1025D00090E00E94BA2E80E00E941B0E0E94DB0E4B
:1025E00040E050E0BA018FE090E00E94BA2E40E057
:1025F00050E0BA0183E190E00C94BA2EEBEFE80FC3
:10260000EF3308F072C0F0E0E250F14D0C94572E19
:102610000E94941281E008958091F901807F809357
:10262000F90181E08093F801089580910B01909168
:102630000C01892B79F30E94AD0F2FEF84E39CE00E
:10264000215080409040E1F700C000000E94370414
:102650009091F901892F8E7F90FF81608093F9011D
:1026600080FDD8CF817F8093F901D4CF9091F9017B
:10267000892F8D7F91FF82608093F90181FFCACFFE
:102680008091F9018160EFCF9091F901892F8B7FC3
:1026900092FF84608093F90182FDF2CFBBCF9091CD
:1026A000F901892F877F93FF88608093F90183FD6B
:1026B000E7CFB0CF0E94AD0F9091FD03892F97FB1C
:1026C00087F980588093FD03A5CF81E00E94180B05
:1026D0000E94AD0F9FCF895391E001C0990F8A9559
:1026E000EAF7892FF3CF8D51F7CF80E00895CF938C
:1026F000C82F882309F4ABC08238C1F40E948F042C
:1027000081FDA5C089E30E94C9090E94DB082FEF63
:1027100081EE94E0215080409040E1F700C000003D
:1027200089E30E949E09CF910C94DB088338A1F4C1
:102730000E948F0480FD8BC083E50E94C9090E941E
:10274000DB082FEF81EE94E0215080409040E1F7CC
:1027500000C0000083E5E5CF8438A1F40E948F0417
:1027600082FD75C087E40E94C9090E94DB082FEF33
:1027700081EE94E0215080409040E1F700C00000DD
:1027800087E4CFCF8CEF8C0F813A08F0E5C08091C1
:10279000F8018130B9F1882359F1823009F44DC034
:1027A0001092F80180911901882309F4C6C0809124
:1027B000FD0387FFC2C0EC2FE695E695E695F0E0B5
:1027C000E659FE4F828190E04C2F477021E030E0C7
:1027D00002C0220F331F4A95E2F782239323892BED
:1027E00009F4B6C08C2F0E949E090E94DB08B0C07D
:1027F000809118038232B1F68C2F0E94FE12811153
:1028000026C0D0CF809118038232B1F3C43171F069
:1028100038F4CB3049F0C03161F080E08170EFCF07
:10282000C93221F0C833C9F781E0F8CF1092F8011E
:10283000F4CF82E08093F801F7CFC93209F43FC0AA
:10284000E8F4C431E1F128F4C73009F45BC0CF915A
:10285000089582EE8C0F8A30D0F7CD51C0938F014E
:10286000C33009F446C0B0F5C13009F43FC083E17C
:1028700091E0C230B1F110928F01E9CFC03509F477
:1028800054C0B8F48AE0CF3411F7E0918D01F09193
:102890008E013097E1F22081082E000C990B820FF7
:1028A000911D8F3F910509F00CF443C08FEF808399
:1028B000CECFC135E1F181E0C23539F3C8CF809187
:1028C0008F01882321F210928F0110928E011092B5
:1028D0008D01BDCFC53099F078F08DE091E0C63024
:1028E00051F690938E0180938D01B1CF84E191E0F8
:1028F000F8CF82E191E0F5CF81E191E0F2CF8EE077
:1029000091E0EFCF8EE18093140182E38093130175
:102910008AE08093120184E18093110188E0809322
:102920000E0188E280930D0192CF86EFAECF8FEF3C
:10293000ACCF97FFBCCF10828ACFECE6F1E082E704
:1029400091E02191C21709F44DCF8E179F07C9F767
:102950008C2F0E94C909E7CE80E28C0F883068F482
:10296000C77021E030E001C0220FCA95EAF78091DC
:102970001803822B80931803D6CEEBE5EC0FE330DF
:1029800040F4F0E0EE5DFE4F808190E0CF910C943A
:102990007904E8E5EC0FE73150F4F0E0EE0FFF1FAB
:1029A000EB5DFE4F80819181CF910C946304C03F19
:1029B00008F44DCF8C2F0E945506CF910C9413052F
:1029C000FF920F931F93CF93DF938C01EB01F42EB3
:1029D0008091180182FF43C08B7F80931801809102
:1029E000EE032091F0033091F103AB01421B530B36
:1029F0009A01409116015091170124173507A8F448
:102A00000E947713809118018D7F80931801809127
:102A1000EA039091EB030E94580C8091EE030E9410
:102A20003E0B82E00E94AC0824C09091CB039260E0
:102A30009093CB030E94771380911801826080935A
:102A400018018091E70385FFE2CF86FDE0CFFF20EC
:102A5000F1F2DF91CF911F910F91FF900895802F98
:102A60000E943E0B8091EE039091EF038017910737
:102A7000C1F20E94DB08D093F103C093F003E9CFC9
:102A80001F93CF93DF93182FC091EC03D091ED03E8
:102A9000893321F0C091EA03D091EB03812F0E948A
:102AA0007713209731F4812FDF91CF911F910C94F0
:102AB0003E0B8FE99FE00197F1F700C000002197DE
:102AC000F0CF0F931F93CF93DF93C42FD22FFC012E
:102AD00082818823A1F040936F020E945704909353
:102AE0006E0280936D02C77081E001C0880FCA95A5
:102AF000EAF7DF91CF911F910F910C94340B109155
:102B00006F02141339C080916D0290916E020E9481
:102B100048042091E4033091E5038217930760F5A0
:102B2000C0E2CD0F1D17B9F080E2810F883040F46C
:102B3000177081E001C0880F1A95EAF70E942D0BEB
:102B4000C83048F481E09D2F977001C0880F9A9596
:102B5000EAF70E94340B802F0E944015C83098F489
:102B6000D77081E001C0880FDA95EAF7DF91CF9145
:102B70001F910F910C942D0BC77081E001C0880F3D
:102B8000CA95EAF7F3CFDF91CF911F910F91089586
:102B9000AF92BF92CF92DF92EF92FF920F931F936B
:102BA000CF93DF93EC018AE0A82E2881222309F439
:102BB0008CC02130C9F599818A81913021F4229607
:102BC0000E94401505C0923029F422960E94771386
:102BD0002196EBCF933021F422960E943E0BF8CF42
:102BE000943011F02196F4CF229630E020E0AE012F
:102BF0004F5F5F4F8053990B8A30910550F0215001
:102C0000310930F38FE99FE00197F1F700C0000030
:102C1000F6CFA29EB001A39E700D11249C01260F39
:102C2000371F8981EA01E3CFE22FF0E0E650FE4F43
:102C3000B490822F86958695869590E0FC01E651AA
:102C4000FE4FE4902770F12C022E02C0F594E79419
:102C50000A94E2F731E0E322FF24FC01E652FE4F42
:102C6000C490D12C022E02C0D594C7940A94E2F7E6
:102C700031E0C322DD24FC01E653FE4F049110E055
:102C800002C0159507952A95E2F701701127E11406
:102C9000F10419F081EE0E947713C114D10419F0E8
:102CA00086EE0E9477138B2D0E944015CD2819F0D7
:102CB00086EE0E943E0BEF2819F081EE0E943E0B3B
:102CC000012B09F485CF8CE27BCFDF91CF911F914F
:102CD0000F91FF90EF90DF90CF90BF90AF9008954D
:102CE0008F929F92AF92BF92CF92DF92EF92FF921C
:102CF0000F931F93CF93DF9300D000D0CDB7DEB7F3
:102D00007C01DC0113964D915C91149711966C91A6
:102D100011978C910E949B04811174C061E0C701DE
:102D20000E94440D8C01F7018281811111C0D701ED
:102D300012968C91811148C00031FFE51F0709F4FC
:102D4000E8C001312FE5120709F007C682E0E2C0B2
:102D5000809100018F3F59F35BE1C52E53E0D52EE2
:102D6000B12CA12C9924939480910001082E000C81
:102D7000990B8A159B05DCF2F60186818823E9F020
:102D8000818592850817190739F48091190390916C
:102D90001A030817190789F0D6011F969C921F97EE
:102DA0001C961C930E931B97C6010E947409C601C2
:102DB00006960E942F091092CB03BFEFAB1ABB0AF5
:102DC000E6E1CE0ED11CD0CF980122513F452031F3
:102DD000310508F0B8C58FEF93E00E949A2E4EEEB1
:102DE000D42ED00E01E311E0882349F18091E30154
:102DF000877041F0D70112968C91882319F082E0F8
:102E00000E94DB0A0F900F900F900F90DF91CF91EF
:102E10001F910F91FF90EF90DF90CF90BF90AF90F8
:102E20009F908F9008950115F4E01F07F9F2C801F3
:102E30000E949A2E811101C0DA940F5F1F4FD110AA
:102E4000F2CF19821A821B821C82CC24CA944801B8
:102E50002FEF821A920AC8010E949A2E89831A8241
:102E6000882321F2813009F048C0580132E0A30ED6
:102E7000B11CC4010E949A2E982E8A83882309F4DB
:102E8000B5CFC5010E949A2ED82E8FEF890D8330C1
:102E900068F4580143E0A40EB11CDB82DD2021F070
:102EA000CE0101960E94C8158501D1CF54E095123C
:102EB000FBCF580184E0A80EB11CC80103960E9404
:102EC0009A2EDD2009F492CF882309F48FCF815008
:102ED000990BC89E9001C99E300D1124AD2DA150B3
:102EE000BB0BCD01820F931F0197F0F2EFE9FFE0DA
:102EF0003197F1F700C00000F7CFCE0101960E9494
:102F0000C8155401D1CF81E00E94F70A0E94C40A7B
:102F10006DCF81E00E94CF0AF9CF82E0F5CF4FEF6D
:102F2000C416D10411F008F024C56FE072E08C2DB6
:102F30000E94EA0E892B29F586E18C9DF0018D9D7A
:102F4000F00D1124E55EFC4F8681813009F061C0EF
:102F500080910F0290911002892B99F080911102BB
:102F600090911202892B69F08091130290911402C2
:102F70002091150230911602822B932B892B09F494
:102F800052C080910001082E000C990B8C159D05F4
:102F900014F4C0920001F701828196E19C9D5001DA
:102FA0009D9DB00C11249501255E3C4F6901D9010E
:102FB00050968C935097928116968C9116979923E0
:102FC00009F43FC01A961C930E9319978F5F1696BB
:102FD0008C930E945704F601968785878091E701BC
:102FE00087838091CB0390911803892B8087019070
:102FF000F081E02D309741F0D60154966D917C918F
:10300000C5018F5D9C4F099510931A030093190316
:10301000B0C4823009F0B5CF8091130290911402B0
:10302000892B09F4AECF26E12C9DC0012D9D900D7A
:103030001124855E9C4FDC0150961C920E947409FD
:10304000A0CF882309F495C4F9018189882309F464
:1030500090C4C5018F5D9C4F0E942F098AC4809146
:103060001801816080931801F7013281332309F43C
:10307000D9C410926F020230FCE51F0708F404C5A2
:1030800006312CE5120730F0C8018A5F9C4509978C
:1030900008F0FAC40E946B0D9093FE038093FD0329
:1030A00000313CE5130709F473C108F006C108308C
:1030B0005CE5150709F462C108F0D5C004309CE551
:1030C000190709F453C108F0BBC00230BCE51B0767
:1030D00009F446C18091FD03826003301C4509F468
:1030E00042C16091FD031091FE0384E090E00E94D4
:1030F000A82E612F82E290E00E94A82E0E94AD0FC0
:1031000075CE809118018E7F8093180182E00E9415
:10311000AC08AACF0933110560F40D32110520F473
:103120000B32110509F05FC48091E70382FD5BC497
:1031300008C004361105C1F356C48091E70384FD2D
:1031400052C4D70112968C91882309F445C080910E
:10315000180180FF48C49091E70391FD04C02091BD
:103160001803211140C495FF26C096FD02C081FDC1
:1031700022C02091F0033091F103F601E21BF30B22
:10318000E83CF105C0F42091EE033091EF03021703
:10319000130789F481FD09C0802F0E94771326CE82
:1031A0008091E70383FD1FC4CCCF8091CB03826065
:1031B0008093CB03F1CF1093EF030093EE03D092F3
:1031C000F103C092F003809118018460809318018C
:1031D00082E00E94DB0A0ACE40E0B601C8010E94EC
:1031E000E01404CE053F8CE51807F1F0B8F0063F77
:1031F000ACE51A0709F038CF07E225EE46EE66EF98
:103200007CE50CC407E225EE45EE68ED7CE506C4DE
:1032100006E221EE40EE63EF7CE500C407E225EE16
:1032200044EE64EF7CE5FAC306E221EE42EE65EF80
:103230007CE5F4C308E221E045EE69ED7CE5EEC3F0
:103240008091FD0380610630FCE51F0709F48BC007
:103250008091FD03886007301C4508F484C080918C
:10326000FD03806280C08091FD038D7F0C303CE5C2
:10327000130709F478C070F48091FD038C600A3064
:103280005CE5150709F46FC008F47CC08091FD036C
:103290008E7F69C08091FD03877F0E309CE5190702
:1032A00009F461C08091FD038B7F0F301C4508F449
:1032B0005AC08091FD038F7E56C00B3FBCE51B07B3
:1032C00009F458C030F50331FCE51F0709F468C064
:1032D00078F401313CE5130709F45EC002311C4566
:1032E00009F0FFCE0E94AD0F8091FD038F773BC0A8
:1032F00005315CE5150709F45BC008F46FC08091E7
:10330000FE0381600A3F1C4509F0EBCE8093FE036B
:10331000E8CE0F3FACE51A0709F446C088F4809167
:10332000FE038D7F0D3FECE51E0781F38091FE03C8
:103330008E7F0E3F1C4550F38091FE038360E6CFE5
:1033400001302DE5120709F452C0F0F160E00230BF
:103350001D4509F0C6CE8EE090E00E94A82EC1CE99
:103360008091FD0381608093FD03BBCE8091FD03BE
:103370008460F9CF8091FE038260C8CF8091FD0305
:103380008064F1CF0E94AD0F8091FD038068EBCF88
:103390008091FD038F7DE7CF8091FD038F7BE3CF8D
:1033A0008091FD03837FDFCF8091FE038C7FAECFC2
:1033B0008091FD0382FB992790F921E0922790FBF1
:1033C00082F990FB83F9CFCF8091FE03982F9095DF
:1033D00091708E7F892B90FB81F998CF0E94AD0F61
:1033E0009091FD03892F97FB87F98058BCCF61E04E
:1033F000B2CF80918A01811104C089E20E949E09A6
:1034000040C385E3FBCF0B35BDE51B0701F10C3550
:103410001D4509F04DC38091FE0382FB882780F98A
:1034200091E089270E94330E43C30E94AD0FFFEF46
:1034300024E33CE0F15020403040E1F700C00000C0
:103440000E9437040E949412D1CC81E0EBCF80E03F
:10345000E9CF828100811181882369F0C8010E942F
:10346000D20CD82E682FC8010E94540AB8018D2DA5
:103470000E94B60C23C3C8010E94270AD82EF6CF9B
:10348000202F2F70B22E802F807F19F0B29490EFF2
:10349000B922CC20C9F0BB2069F080E2810F8830CE
:1034A00010F011110BC080911803B82AB0921803C4
:1034B0000E94DB08812F0E94771316C08091CB03F6
:1034C000B82AB092CB03F4CF812F0E943E0BBB20D1
:1034D00059F080E2810F883010F0111133C08B2D2C
:1034E0000E94B3080E94DB08A92DA850BB0B1497BB
:1034F00010F40E948F04812F902F0E94840A811162
:1035000003C210928C0110928B01AA20B1F080911D
:10351000E30180FD12C0D70112961C928595859516
:1035200085950E94F70AC7010E9470168091E301F9
:103530008595859585950E94CF0A60E0C7010E9418
:10354000440D60CC8B2D0E94AC08CCCF302F3F7047
:10355000B32E802F807F803219F0B29480EFB82292
:10356000112321F1113009F46DC0CC2009F476C08B
:10357000DD2009F448C020E0D7014C9111965C9100
:10358000119712966C91129713967C91139714963B
:103590008C910E941B0D8091E90381FD8BCFF70177
:1035A000858180FF87CF8F7085832DC0CC2069F106
:1035B000D11006C08091E7018B290E94340B94CF73
:1035C00041E0D41213C08091FE0382FD8DCF809123
:1035D000E701B82AB81609F487CF0E9457049093E0
:1035E000E6018093E501B092E7017ECF8091E80388
:1035F000823000F3D812DECF0E94A1088091E00152
:10360000B812B092E0018B2DD8CFD11006C00E9425
:10361000A1088B2D0E942D0B67CF8091E80351E00C
:10362000D5120BC0823008F45FCF809118038B2134
:1036300009F45ACF0E949809EACF823040F3D81299
:10364000E6CF52CFCC2029F085E08D1508F44CCF81
:10365000DACF94E09D1508F447CFDBCFDD20C9F227
:103660008091EC039091ED03193321F08091EA03EE
:103670009091EB030E94580C812F0E943E0B34CF97
:10368000802F86958695837069F0813009F02CCF64
:10369000812F902F9370C11002C090E080E00E94B3
:1036A000630422CF812F902F9370C11002C090E04D
:1036B00080E00E94790418CF812FCC2039F00E943D
:1036C00055060E9413050E9413050ECF0E943A056D
:1036D000FACF802F837091F5C11006CF412F42950C
:1036E00046954770440F440F812F8F70042E01C000
:1036F000880F0A94EAF7212F207114FF07C02FE0EA
:1037000030E001C0220F4A95EAF72095302F369518
:1037100036953370323069F050F44091E801313021
:1037200029F0822B84230E94180BDECE842B822B5F
:10373000FACF282B8091E8018227F5CF8695CC20FF
:1037400011F0802F8170882309F4CECE412F42954D
:1037500046954770440F440F812F8F70042E01C08F
:10376000880F0A94EAF7212F207114FF07C02FE079
:1037700030E001C0220F4A95EAF72095302F3695A8
:1037800036953370323069F050F440913104313065
:1037900029F0822B84230E94C00AA6CE842B822B80
:1037A000FACF282B809131048227F5CFF02FFF70BC
:1037B000BF2ECC2029F08F2F0E94F70A812FFDCE3B
:1037C000812F0E942D0B8B2D0E94CF0A8DCE123F90
:1037D00009F44AC060F4103F41F1113FE9F1CC20F7
:1037E00009F48DC0D11066CE802F8F713AC0133F7F
:1037F00009F43FC0143F99F72091E803223008F400
:1038000066C08091E001CC2009F44EC00E94B3084C
:103810008091E30187708430C1F50E94BA08802F3F
:103820008F710E94CF0AA12C5FCECC2081F024E0C2
:103830002D1508F459CE202F2F7181E090E001C0A2
:10384000880F2A95EAF7909131048927A4CF35E0B3
:103850003D1508F449CEEFCF802F8F71CC2009F4AD
:10386000B3CF0E94F70A40CE802F8F71CC20C9F3CE
:10387000ABCF80E0CC2009F48ECF81E0902F9F71F8
:1038800001C0880F9A95EAF786CF8091E803D81691
:1038900050F6402F4F71B42E842F0E94F70A63E038
:1038A0008B2D0E94020BBFCF90911803982B909301
:1038B0001803D21640F00E94BA080E94980964E0EA
:1038C000802F8F71EECF81E00E94DB0AACCFCC203D
:1038D00059F0502F5F71B52E852F0E94F70A63E0D3
:1038E0008B2D0E94020B00CE81E00E94DB0A81E05A
:1038F0008D1508F0F9CD82E00E94DB0AF5CDD110DC
:10390000AFCE802F8F7160CFCC2019F0D110F9CDC0
:10391000FCCDD110F6CD20E0F701408151816281CC
:10392000738184810E941B0D8091E90383FFE9CD9F
:1039300080918B0190918C01029709F0E2CD812F4B
:103940000E944015DECD0031BFE51B0709F4DBCA3C
:103950000131EFE51E0709F4E0CA680127E5D21A34
:10396000882309F4DCCA3FEFC316D10409F008F438
:1039700008CB8091E70380FF36C00E9457046C019A
:10398000D70112968C91882311F18091180182FF42
:1039900006C040E0B60190E080E00E94E01482E0C2
:1039A0000E94AC080B31BCE51B0709F458CB0C3165
:1039B000ECE51E0709F4A5CB90911801892F8E7FA5
:1039C00090FF81600A31FCE51F0709F49DCB0832A6
:1039D000110508F09FCB0E31110508F0E1CB043042
:1039E000110508F0AACB033FFCE51F0709F410CC32
:1039F00008F0F8CB083D3CE5130709F403CC093D7A
:103A00004CE5140709F416CC073D5CE5150709F0F1
:103A10002BCB06E221EE41EE67ED7CE5C7010E946B
:103A20006115E4C906311C4509F042C080911803B4
:103A3000982F9A7A2091E60320FF04C0482F4474FF
:103A400009F090E021FF04C0482F417109F090E097
:103A500022FF04C0482F487809F090E023FF03C0FC
:103A6000827209F090E0332309F4C3CC81E0911114
:103A700001C080E080938A0189E2911185E30E9470
:103A8000C9090E94DB08B2C906315CE5150771F26D
:103A90000A355DE5150709F4D8CC08F0B4CC01155A
:103AA0009CE5190709F4C1CC0E3D1C4509F4CACCAC
:103AB000F70186819781009709F4CBCC0E94190702
:103AC000182F092FF701C280D580D2943FE0D3226E
:103AD0008091E3018770A1F0AC2CCC2091F0892F6C
:103AE000807F803421F080E2810F883048F082E0CE
:103AF0000E94DB0A8091E3018770AA24A3948111BC
:103B0000A12C902E92942FE09222FBE0F91508F45C
:103B1000EBCCE92DF0E0E35CF04D0C94572ECF9206
:103B2000DF92EF92FF920F931F93CF93DF938091D9
:103B30009B01807F31F480919801C091DF01811158
:103B40000BC0DF91CF911F910F91FF90EF90DF900D
:103B5000CF9008952196C77080919E018C1789F3AC
:103B6000F0909601E0909701C0909901D0909A0151
:103B7000A6016E2D8F2D0E949B04D0E08111EACF0B
:103B80008E0183E0000F111F8A95E1F7F801E156DD
:103B9000FE4F81818E11DECF80818F11DBCF82813C
:103BA0008111D8CFE380F480EC18FD0860E086E94D
:103BB00091E00E94440D8091E4039091E503E816A2
:103BC000F90640F680919B018F70806180939B0184
:103BD000F801EC55FE4F80818F708061808386E90B
:103BE00091E00E947016DF91CF911F910F91FF908D
:103BF000EF90DF90CF900C941D0A5F926F927F92AE
:103C00008F929F92AF92BF92CF92DF92EF92FF92EC
:103C10000F931F93CF93DF93CDB7DEB765970FB6A2
:103C2000F894DEBF0FBECDBF8C0185E0F801DE0148
:103C3000519601900D928A95E1F7D8011296EC9079
:103C400086E9A82E81E0B82E8090990190909A0183
:103C5000A40160919701809196010E949B048111BB
:103C6000EAC1F801C380D480F0909801C601881998
:103C700099094C01FF2009F47AC15080618060E00D
:103C8000C5010E94440D8091E4039091E50370907A
:103C90009B018816990608F01DC140919901509129
:103CA0009A01B0909601A0909701872D807F6A2D90
:103CB00009F0B7C08B2D0E949B04FE2C811139C0E6
:103CC000D80111968C9111978A1133C08C918B1168
:103CD00030C020919C0130919D0116968D919C9150
:103CE0002817390731F5E11024C0872D8F708061C6
:103CF00080939B0186E991E00E94701680919B0160
:103D0000F80185838F2D65960FB6F894DEBF0FBE40
:103D1000CDBFDF91CF911F910F91FF90EF90DF907A
:103D2000CF90BF90AF909F908F907F906F905F905B
:103D3000089560E086E991E00E94440D8091E403DB
:103D40009091E503843F9140F8F0A601662D852D02
:103D50000E949B0481114CC081E08E2580FF1DC014
:103D60004E2D662D852D0E94FD098823B1F086E930
:103D700091E00E94701688E0E6E9F1E0DF011D9213
:103D80008A95E9F7F12CBECF60E086E991E00E94C8
:103D9000440D8091E90380FDD8CFA601662D852DC5
:103DA0000E949B04811126C081E08E25B82FB1703E
:103DB000CB2E80FF2DC04E2D662D852D0E94FD0936
:103DC000D82E811125C0598A6A8A89899A890E94C8
:103DD000010D292F22952F70223070F0243098F495
:103DE0009F7071F0F8019581907F51F4FD2C8ACF7E
:103DF00080E0B4CF80E0DACF9F7011F08823B1F378
:103E0000805E883098F3C8010E947016DC2CEECFDB
:103E1000EE2009F477CF80919B01816080939B0114
:103E2000B1CF8B2D0E949B04811124C0D801119623
:103E30008C9111978A111EC08C918B111BC02091FF
:103E40009C0130919D0116968D919C911797281792
:103E5000390781F4E1100EC015967C92C8010E94CA
:103E6000701688E0F801A6E9B1E001900D928A95FC
:103E7000E1F748CFC8010E940D0D882339F1EE20EB
:103E800029F180919B018032A0F020919601309120
:103E900097013A8729871B86DD86CC868E8780919D
:103EA0009C0190919D01988B8F87CE0109960E946D
:103EB000701688E0F801A6E9B1E001900D928A95AC
:103EC000E1F70E948F1DFF24F3941CCFC8010E94CC
:103ED0007016F9CF872D807F09F449CF9090960115
:103EE000809097014091990150919A01682D892DF8
:103EF0000E949B0481111CC0F8018181881118C0A7
:103F00008081891115C020919C0130919D0186818D
:103F100097812817390761F4E1100AC07582C8013A
:103F20000E94701688E0D5011D928A95E9F7EACEC5
:103F3000C8010E940D0D882349F2EE2039F28091CC
:103F40009B01803208F4B5CF209196013091970102
:103F50003A8329831B82DD82CC828E8380919C01EF
:103F600090919D0198878F83CE010196A0CF60E04C
:103F700086E991E00E94440D8091E4039091E5036D
:103F80008816990608F051C0FE2CEE2009F49ECF49
:103F9000E0909601D09097014091990150919A013B
:103FA0006D2D8E2D0E949B04811131C0F8018181FD
:103FB0008D112DC080818E112AC020919C013091DD
:103FC0009D01868197812817390709F560E086E908
:103FD00091E00E94440D8091E90382FD42CF9091CF
:103FE0009B0190FD3ECF907F09F43BCF80919B01D8
:103FF000D80115968C931597903F09F42FCF982FE1
:10400000907F905F8F70892B15968C9327CFC80176
:104010000E940D0D81114DCF80919B018160809395
:104020009B01C8010E9470166DCE88E0F5011192C7
:104030008A95E9F767CEEE2009F448CFC8010E94BF
:104040000D0DF82E882309F441CF88E0F801A6E988
:10405000B1E001900D928A95E1F7809196019091DF
:1040600097010E94010D0E948F1D4CCECF93DF93CC
:10407000CDB7DEB760970FB6F894DEBF0FBECDBFE9
:1040800029873A874B875C876D877E878F87988BD8
:10409000CE0109960E94FD1D81112FC088E0FE010E
:1040A0003996DE01119601900D928A95E1F74C85C3
:1040B0005D856A8589850E949B0481111EC0A0913F
:1040C0009E01B0E0CD010196877099272091DF0114
:1040D0002817190609F193E0AA0FBB1F9A95E1F77B
:1040E000A156BE4F98E0FE01319601900D929A952F
:1040F000E1F780939E010E941D0A8091DF0190915B
:104100009E01891317C060960FB6F894DEBF0FBEEC
:10411000CDBFDF91CF9108950E94AD0F10929E0107
:104120001092DF0188E0E6E9F1E0DF011D928A9557
:10413000E9F7E3CFB8E08B9FC001112481569E4F71
:104140000E94FD1D8823F9F28091DF0190E0019625
:10415000877099278093DF01D0CFEF92FF920F9362
:104160001F93CF93DF9380917302882361F0C091F6
:1041700072028CE0F82E80917302C81758F01092EA
:10418000730210927202DF91CF911F910F91FF90F5
:10419000EF900895EE24E394EC0EE09272020C2F5F
:1041A00010E0CF9DE0011124CC58DD4F4B815C81A4
:1041B000698188810E949B0481111BC08E819F812F
:1041C000892B21F488859985019651F428813981BC
:1041D0004A815B816C817D818E819F810E94362026
:1041E000F09EF001F19EF00D1124EC58FD4F148269
:1041F0001382CE2DC0CF1092170310921603109287
:10420000150180911503809314030E94D4040C942B
:10421000AD203F924F925F926F927F928F929F92CA
:10422000AF92BF92CF92DF92EF92FF920F931F93C4
:10423000CF93DF93C091140397E0892E01E010E043
:104240002CE0322E3EEF932E4424439480911503AC
:104250008C1315C00E94AD20DF91CF911F910F915B
:10426000FF90EF90DF90CF90BF90AF909F908F9096
:104270007F906F905F904F903F900C94D404D0E06B
:10428000FE01EE0FFF1FE45FFC4F80819181889E4D
:10429000D001899EB00D1124AC52BD4F14962C91C3
:1042A0001497211157C050907302E4E7F2E030E018
:1042B00020E0712C5D01251508F04AC0E284F384EA
:1042C000D501CD90DC906FEF7FEF612C462D50E053
:1042D000DA01AA0FBB1FAC0DBD1D0D90BC91A02D26
:1042E000109731F0EA16FB0609F4BA016394EECF99
:1042F0006F3F7607A1F1D80102C0AA0FBB1F6A95D4
:10430000E2F77A2AB80102C0660F771F6A94E2F7D3
:10431000AB014150510974161506F9F4329EF001B3
:10432000339EF00D1124EC58FD4F889ED001899EDC
:10433000B00D1124AC52BD4F12962D913C911397A4
:1043400037832683908291829187808715964C923D
:104350000E94A6042196C37079CF148213822F5F26
:104360003F4F3C96A8CFBF92CF92DF92EF92FF9241
:104370000F931F93CF93DF9300D00F92CDB7DEB78B
:1043800019821A821B8283E5C82E81E0D82E10E0A4
:1043900000E0EE24E394F12CF60181916F018F3F50
:1043A00009F44CC0F894E82FE295EF70F0E021A1F9
:1043B0008F70A70102C0440F551F8A95E2F7CA010A
:1043C000922F982B91A392A18095892382A3789410
:1043D00000C0E6E5F1E030E020E0B12C41914F3F34
:1043E00009F46BC0A42FA295AF70B0E090968C91A9
:1043F00090E04F7002C0959587954A95E2F780FD51
:104400005CC08E2D022E01C0880F0A94EAF7B82AEC
:104410002F5F3F4F2330310509F7F6013197808137
:104420008F3F11F00E94BF0650EA5A95F1F7E1E084
:10443000F0E0EC0FFD1FE00FF11FB0820F5F1F4F88
:104440000330110509F0A8CF43E050E0BE016F5FD3
:104450007F4F8CEE91E00E946D2EDD24D394009767
:1044600009F4D12C892B59F189819A81AB818093F0
:10447000EC019093ED01A093EE0181E08093EB01BC
:104480000E9457049093EA018093E9018091E90129
:104490009091EA010E9448040597A8F08091EC01F0
:1044A0008093F5018091ED018093F6018091EE01FA
:1044B0008093F7011092EB0106C080E0A8CF8091B5
:1044C000EB018111E3CF8091000110E006E18F3F05
:1044D00009F061C080911501811168C08091E703E6
:1044E00080FF1CC08091180182FF18C00E945704F1
:1044F0002091F0033091F103AC01421B530B20914A
:104500001601309117014217530740F041E0BC01FA
:104510008091EE039091EF030E94E0148D2D0F9097
:104520000F900F90DF91CF911F910F91FF90EF901F
:10453000DF90CF90BF900895029FF001039FF00D90
:104540001124E55EFC4FE288F388E114F10421F4C4
:10455000E090E403F090E503029FF001039FF00D6B
:104560001124E55EFC4F86818823A1F08585968520
:104570000E944804E816F90668F4109F700111249F
:10458000C701855E9C4F0E947409C7018F5D9C4FD7
:104590000E942F091F5F212F30E080910001082E1B
:1045A000000C990B821793073CF694CF8091160369
:1045B00090911703009709F491CF0E94480420912D
:1045C0007002309171022817390708F087CF909157
:1045D000140380911503981759F00E940921109235
:1045E000710210927002109217031092160376CF88
:1045F0000E94AD2010921703109216030E94D4045B
:104600006DCF2F923F924F925F926F927F928F92D7
:104610009F92AF92BF92CF92DF92EF92FF920F9351
:104620001F93CF93DF93CDB7DEB769970FB6F8949A
:10463000DEBF0FBECDBF942F498B252F5A8B6B8BBE
:104640007C8B8D8B4C895D89622F892F0E949B0406
:10465000811109C080918B0190918C0101969093FA
:104660008C0180938B018B8981111092CB031D8665
:104670001E861F86188A85E0FE017196DE01199656
:1046800001900D928A95E1F78091CE039091CF032E
:10469000892BC1F00E9457042091E1013091E20181
:1046A000821B930B2091CE033091CF038217930787
:1046B00020F08091E30182FFF5C10E94C1088111C1
:1046C0000E94A1084C855D856A8589850E949B04AE
:1046D000811111C061E0CE0109960E94440D6C0168
:1046E0008B8527EFC2162CE5D20681F4882321F1B1
:1046F00081E08093150129853A854B855C856D8520
:104700007E858F8598890E943620C5C038EFC316F4
:104710003CE5D30629F4882379F00E94FB20EBCFF7
:1047200049EFC4164CE5D40639F4882329F080916A
:1047300015018111F2CFDCCF04ED12E0512CB12C28
:10474000A12C22242394312C2EEF422EF8014081FB
:10475000518188248A94982C20E0822F90E0FC01DB
:10476000EE0FFF1FE40FF51F608171816115710568
:1047700031F0C616D70609F44C012F5FEECFF12CAD
:10478000FFEF8F169F0609F448C0F8014481F090AE
:1047900015018F2D411180E0F82FF170FF2EF801E7
:1047A000E58086819B85992309F40CC1FF2009F4DB
:1047B00009C16090E2037090E303E11012C0A1010F
:1047C00001C0440F8A94EAF7842B8683809170029B
:1047D000909171028615970520F470927102609293
:1047E0007002C10102C0880F991F2A95E2F7019754
:1047F000F80126812817190681F4809116039091FB
:104800001703009709F460C00E94480468167906EF
:1048100008F05AC021E0F80124835F28FFEFAF1AA7
:10482000BF0A095F1F4F28E0A216B10409F08ECF1E
:104830008B85882309F421C1552009F41EC10E94EB
:104840005704909317038093160380917302883066
:1048500010F591E0980F9093730298E0FE0139965D
:10486000DE01119601900D929A95E1F73CE0839F4D
:10487000C00111248C589D4F28E0FE013196DC01C7
:1048800001900D922A95E1F72FEF3FEFFC01318760
:104890002087D386C28669960FB6F894DEBF0FBE16
:1048A000CDBFDF91CF911F910F91FF90EF90DF90DF
:1048B000CF90BF90AF909F908F907F906F905F90C0
:1048C0004F903F902F9008958091140350911503BD
:1048D000982FF0E0E0E0851314C090931403E017E4
:1048E000F10709F49ACF90E0FC01EE0FFF1FE45F9F
:1048F000FC4FB182A08201968370992780931503A3
:104900008CCF682E712CF301EE0FFF1FE45FFC4F7C
:104910002081318147E0429FD001439FB00D112497
:10492000AC52BD4F6D917C911197798F688F40E0AB
:1049300020E030E0E32FF0E0EE0FFF1F688D798D6F
:10494000E60FF71F8080918081149104E1F0F80157
:104950000190F081E02DFF8BEE8B20E005C08616E4
:10496000970609F44F2D2F5FE22FF0E0EE0FFF1FA7
:104970006E897F89E60FF71F60817181611571056E
:1049800071F73F5FD7CF4423D1F0F801231708F028
:10499000FD0121E024830E171F0721F490931403D7
:1049A000F42E3BCF981305C0AE17BF0711F49F5FDD
:1049B000937093012F5F3F4F822F83708CCFF0E075
:1049C000E0E0F7CF90E0E1101FC0B10102C0660F38
:1049D000771F2A95E2F79B0121503109821793072F
:1049E00031F4442309F447C0C5010E94A604C10163
:1049F00001C0880F8A94EAF7982F9095F801868174
:104A000089238683FE2C09CF9C01082C02C0359592
:104A100027950A94E2F7A90141705527BC0161501E
:104A2000710986239723892B11F5452B01F1F80194
:104A300082819381892BC1F01B821C821D821E8280
:104A400049824A820E9457048160582F9D838C833B
:104A5000F801828193818F83988729813A814B81E4
:104A60006D817E810E943620F8011582C0CFF22F21
:104A7000F170EF2EBCCFEF2CBACF90911403809140
:104A80001503981731F00E940921552009F433CEFF
:104A900002CF0E94AD2010921703109216030E94BD
:104AA000D404F3CF82E00E94DB0A07CE0F931F935A
:104AB000CF93DF9300D000D00F92CDB7DEB78C013B
:104AC00090936A0280936902011580E2180720F52D
:104AD000802F0E943E0BC8010E94940B9801205E1B
:104AE00031092830310510F0012B59F40F900F9047
:104AF0000F900F900F90DF91CF911F910F910C9419
:104B00002D0B0F900F900F900F900F90DF91CF9182
:104B10001F910F910C941C0B8EEF89838A831B824B
:104B20000E9457048160782F9D838C8349815A812C
:104B30006B818D810F900F900F900F900F90DF91F0
:104B4000CF911F910F910C9401230F931F93CF933B
:104B5000DF938C01EB016FE072E08C2F0E94EA0E74
:104B6000892BA1F48091EA039091EB030E94580CE9
:104B7000DD27C95FDD4F8881F801108218828330FC
:104B800009F148F4813059F0823081F0DF91CF9102
:104B90001F910F9108958430D1F08530B9F780913D
:104BA0000F0290911002009789F306C080911102C4
:104BB00090911202009799F3DF91CF911F910F917D
:104BC0000C9456258091130290911402F3CF80919A
:104BD000150290911602009779F720910F023091FB
:104BE0001002809111029091120221153105D9F223
:104BF000009711F7C901E0CF0F931F93CF93DF9375
:104C000000D000D00F92CDB7DEB78C0190936A022E
:104C100080936902011580E21807E8F4C8010E9438
:104C2000940B9801205E31092830310518F00115E8
:104C3000110571F40E94340B802F0F900F900F908C
:104C40000F900F90DF91CF911F910F910C947713DC
:104C50000E94230BF1CF8EEF89838A8381E08B83BF
:104C60000E9457048160782F9D838C8349815A81EB
:104C70006B818D810F900F900F900F900F90DF91AF
:104C8000CF911F910F910C940123CF93DF93EC01EF
:104C90000E94FC258091EA039091EB030E94580C3E
:104CA000CE01DF91CF910C9456250F931F93CF9394
:104CB000DF938C01862F6FE072E00E94EA0E892B51
:104CC000C9F4C0910F02D0911002209799F0F80119
:104CD0008081833069F4CE010E944526CE010E9476
:104CE0004526CE01DF91CF911F910F910C9445265F
:104CF0008430B8F7DF91CF911F910F9108950F93F2
:104D00001F93CF93DF938C01EB016FE072E08C2F48
:104D10000E94EA0E892B09F064C0FE01FF27D8012A
:104D20008C91E95FFD4F8130D9F419969C911997C8
:104D3000992311F080830CC01A969C919923D1F38A
:104D400082E0808380911102909112020097D9F441
:104D500080910F0290911002009709F442C013C095
:104D60008230E9F519968C91199781112DC01A9608
:104D70008C9181110EC083E0808380911302909109
:104D80001402009719F1DF91CF911F910F910C94AC
:104D9000FC2584E080838091150290911602009793
:104DA00091F780910F02909110020097F9F00E9404
:104DB00045268091110290911202009721F780916F
:104DC0000F0290911002DFCF85E0808380910F0267
:104DD00090911002009729F00E944526F0CF86E0BE
:104DE0008083DF91CF911F910F91089580911102DF
:104DF00090911202B1CF1F920F920FB60F92112411
:104E00002F933F934F935F936F937F938F939F93D2
:104E1000AF93BF93CF93DF93EF93FF93D091E900CC
:104E2000DF708091EC00C82FC17080FDC0E8109247
:104E3000E9008091F000877F8093F00078940E94D1
:104E4000C20F1092E9008091F00088608093F0001A
:104E5000CD2BCF70C093E900FF91EF91DF91CF91FF
:104E6000BF91AF919F918F917F916F915F914F9182
:104E70003F912F910F900FBE0F901F9018951F928A
:104E80000F920FB60F9211242F933F934F935F937E
:104E90006F937F938F939F93AF93BF93EF93FF9302
:104EA0008091E10082FF09C08091E20082FF05C08D
:104EB0008091E1008B7F8093E1008091DA0080FF98
:104EC00024C08091D80080FF20C08091DA008E7FBE
:104ED0008093DA008091D90080FF9BC080E189BD7A
:104EE00082E189BD09B400FEFDCF81E080932704F3
:104EF00080910204811109C00E94AA020E947503D8
:104F00008091E20084608093E2008091E10080FF64
:104F100017C08091E20080FF13C08091E2008E7F75
:104F20008093E2008091E20080618093E2008091B2
:104F3000D80080628093D80019BC85E08093270454
:104F40008091E10084FF29C08091E20084FF25C0A8
:104F500080E189BD82E189BD89B5982F917080FF7C
:104F6000FBCF8091D8008F7D8093D8008091E100A5
:104F70008F7E8093E1008091E2008F7E8093E2003B
:104F80008091E20081608093E20080912804882370
:104F900009F445C084E0809327048091E10083FFF9
:104FA00027C08091E20083FF23C08091E100877FCA
:104FB0008093E10082E0809327041092280480917E
:104FC000E1008E7F8093E1008091E2008E7F8093EC
:104FD000E2008091E20080618093E20042E060E0C4
:104FE00080E00E9443038091F00088608093F0008D
:104FF000FF91EF91BF91AF919F918F917F916F91B1
:105000005F914F913F912F910F900FBE0F901F9086
:10501000189519BC109227041092020476CF809143
:10502000E30087FD93E090932704B7CF78941F9215
:105030001FB61F9211248F939F93AF93BF938091BC
:10504000F9039091FA03A091FB03B091FC03019640
:10505000A11DB11D8093F9039093FA03A093FB0364
:10506000B093FC03BF91AF919F918F911F901FBE92
:105070001F9018951F921FB61F9211248F939F9314
:10508000AF93BF938091F803811113C08091F9030E
:105090009091FA03A091FB03B091FC034196A11DEE
:1050A000B11D8093F9039093FA03A093FB03B0938F
:1050B000FC03BF91AF919F918F911F901FBE1F90D6
:1050C0001895CDB7DEB7E4970FB6F894DEBF0FBEE4
:1050D000CDBF84B7877F84BF0FB6F894A895809121
:1050E0006000886180936000109260000FBE80E8CD
:1050F00090E00FB6F89480936100909361000FBE2A
:1051000085B7806885BF85B7806885BF8DEB96E0E1
:1051100090936901809368010E94FE0E0E94540FD3
:105120000E94620C0E94AA020E9475038091E20014
:1051300084608093E2007894809127048823A1F012
:105140001091E9001F709091EC00892F817090FD03
:1051500080E8182B1092E9008091E80083FD0E94FE
:10516000C20F1F701093E90082E084BD93E095BDEB
:105170009AEF97BD80936E000E94520D811102C07C
:105180000E94DB0E86EF0E94BF0683E30E94BF06EB
:1051900086E30E94BF0681E30E94BF0687EF0E945C
:1051A000BF0682E30E94BF061092EC011092F50147
:1051B0001092ED011092F6011092EE011092F7019B
:1051C00090E080E00E94A22E8A3E9E4F21F40E9431
:1051D000520D811102C00E94941282E090E00E9460
:1051E0009A2E8093F9010E946B0D9093FE03809399
:1051F000FD030E94B3218FE39CE90197F1F700C002
:1052000000000E94B3218091F50180FF08C06FEF7C
:105210007FEF90E080E00E94C62E0E94370483E07A
:1052200090E00E949A2E0E94180B81E091E09093EA
:10523000F5038093F403B8E16B2E712C10E4312E4A
:1052400000E1402E80E1582E8E010F5F1F4F5E015E
:1052500093E0A90EB11C80912704A2E1FA2E8530BB
:1052600009F42BC10E94B321882359F08FB7F89419
:105270004091F9035091FA036091FB037091FC0394
:105280008FBFA5EFB1E0E0EFF1E0F12CE12C2E2D86
:105290009D918191891709F420C18927382F317098
:1052A000D32E80FD14C181FD14C182FF16C1F4E02C
:1052B000DF2E82E08BA72CA79D2181E009F480E0FE
:1052C0008DA70E9457048160782F9FA78EA74BA5BA
:1052D0005CA56DA58FA50E940123F701E051FE4F4B
:1052E0008081D826D08286E0E1E0F2E0D80101900A
:1052F0000D928A95E1F7C0900302D0900402E090ED
:105300000502F0900602109203021092040210921D
:105310000502109206028C2D8D2991F08091FF01DB
:10532000909100020E944804AC019091FB019923E6
:1053300009F4ECC0809113018417150608F4F4C039
:105340008E2D8F2991F08091FD019091FE010E9498
:105350004804AC019091FA01992309F424C1809189
:105360000F018417150608F42CC180910302909157
:105370000402892B90910502892B90910602892BBA
:1053800011F00E94130586E0F801A1E0B2E001905F
:105390000D928A95E1F70E948F049091EF01891791
:1053A00021F00E948F048093EF01809127048430C4
:1053B00009F051CF83E08093E9008091E80082FFFB
:1053C0004ACF8091E80090E085FF0AC00E94C902A0
:1053D00070E2C72ED12C7801882309F43BC191E0FB
:1053E0008091E8008B778093E800992309F433CF0C
:1053F000E0906B02F0906C028981E114F10409F4F1
:1054000037C18E3F09F07EC18A81833020F08550FC
:10541000833008F077C1EA81EE3008F073C1F0E024
:10542000E75BF04D0C94572E80912704843009F1EE
:105430001092F8030FB6F894A895609260000FBE22
:105440003092600083B7817F846083BF83B78160BF
:1054500083BF7894889583B78E7F83BF0FB6F89407
:10546000A895809160008861809360001092600030
:105470000FBE80912604882301F10E94B321809100
:10548000F6019091F501892B9091F701892BA9F0F4
:1054900049BCF9BC09B400FEFDCF8091D8008F7DD6
:1054A0008093D8008091E00082608093E00080913A
:1054B000E00081FDFCCF0E94AD0F80912704853074
:1054C00009F4B2CF0E94AD0F0E948F04CBCE80E0D2
:1054D000F1CEE2E0DE2E81E0EDCE4FEFE41AF40AE9
:1054E00083E0E816F10409F0D2CE8FEF88AB89ABE8
:1054F0001AAA0E9457048160782F9CAB8BAB48A9F5
:1055000059A96AA98CA90E940123EDCE209114010A
:10551000EAE02E9F900111242417350708F010CFE0
:105520009F5F9093FB0102C09F3FD1F7CC2059F0C1
:105530000E94F6059FEF1C140CF491E0899F802DCA
:10554000112480930302DD2059F00E94F6059FEF9D
:105550001D140CF491E0899F802D11248093040286
:1055600030910302332309F4EBCE2091040222236D
:1055700009F4E6CE45EB3403C0011124992359F018
:105580009093030245EB240390011124332339F057
:1055900030930402D5CE81E080930302F3CF81E003
:1055A00080930402CDCE209110018AE0289F9001C3
:1055B00011242417350708F0D8CE9F5F9093FA0185
:1055C00002C09F3FD1F7EE2059F00E94BD059FEF2A
:1055D0001E140CF491E0899F802D11248093050204
:1055E000FF2059F00E94BD059FEF1F140CF491E0BD
:1055F000899F802D11248093060230910502332368
:1056000009F4B3CE20910602222309F4AECE45EB75
:105610003403C0011124992359F09093050245EBFE
:10562000240390011124332339F0309306029DCED8
:1056300081E080930502F3CF81E08093060295CE4E
:105640008091F100F70181937F01F1E0CF1AD10839
:1056500009F4C5CE8091E80085FDF2CF8091E80085
:105660008B778093E8000E94C902882399F3B7CE14
:105670008D3009F4A8C0A8F4843009F48BC040F43C
:10568000823039F108F077C08130F9F08FEFBCC279
:10569000863009F495C008F488C08C30B9F75A8276
:1056A00031C0813109F4E9C040F48F3009F4B8C049
:1056B00008F48DC00E94D60D25C0833109F407C1BE
:1056C00008F4DEC08E3F11F7A6CE1A8289E08B83E4
:1056D00019C08A81823009F4B9C28330E1F1813086
:1056E000A9F62FB7F8946091F9037091FA038091AD
:1056F000FB039091FC032FBF0E945D2E6B837C8384
:105700008D839E8380912704843009F0A4CDF0908E
:10571000E9008F2D8F70F82E9091EC00892F817009
:1057200090FD80E8F82A82E08093E9008091E8000B
:1057300080FF0CC050E040E060E270E0C8010E94D1
:10574000FA028091E8008E778093E8008F2D8F70A9
:105750008093E90080CD80910B0190910C01892B01
:1057600089F28091F5018B838091F6018C83809181
:10577000F7018D83C7CF8A81823009F087CF6B8193
:105780007C818D819E810E945D2E86E290E00E9448
:10579000A82EB8CF4C816B818A810E94870C9827F4
:1057A000892798279E838D83ADCF2D813E81322717
:1057B000232732274C816B818A810E94E60DA2CF7C
:1057C0000E944D0E9FCF82E08A838FEC80CFEC80C9
:1057D000F12C2DE1E216F10408F094CFCA80DB80B1
:1057E000DC24CD24DC244801E00EF11EC6018F5CD0
:1057F0009E4F8E149F0409F485CF3FECC31632E010
:10580000D30658F40E949A2EF4018483FFEFCF1A36
:10581000DF0A2FEF821A920AE9CFF4011482F6CF41
:1058200080910B0190910C01892B09F46BCFCC80F6
:10583000D12C3DE1C316D10408F064CFEA80FB808F
:10584000FE24EF24FE244801CE0CDF1CC7018F5C30
:105850009E4FCE14DF0409F455CF4FECE41642E01E
:10586000F40620F4F40164810E94A82EFFEF8F1A41
:105870009F0A2FEFE21AF20AE9CF84E08A8342CF2F
:10588000EC80F12C3DE1E316F10408F03BCFCA8037
:10589000DB80DC24CD24DC244801E00EF11EC601AF
:1058A00087968E149F0409F42DCF48E4C416D104C2
:1058B00058F40E949A2EF4018483FFEFCF1ADF0A76
:1058C0002FEF821A920AEBCFF4011482F6CFCC802C
:1058D000D12C3DE1C316D10408F014CFEA80FB803F
:1058E000FE24EF24FE2448E4E416F10408F00ACF75
:1058F00088E490E08E199F098C159D0508F402CF6D
:105900004801CE0CDF1CC7018796CE14DF0409F4D2
:10591000F9CEE8E4EE16F10420F4F40164810E946B
:10592000A82EFFEF8F1A9F0A2FEFE21AF20AEBCF91
:1059300088E0EAE1F1E0DE01919601900D928A950E
:10594000E1F780E2F80111928A95E9F784E0898312
:1059500088E0FE01B196DE01159601900D928A95C0
:10596000E1F7D0CE8CEC89831A821B821C82CACECE
:105970008C81682F70E0762F66278B81860F972F9A
:10598000911D092E000CAA0BBB0B65E0880F991F17
:10599000AA1FBB1F6A95D1F7AC01BD01405E5F4FE6
:1059A0006F4F7F4F481759076A077B0708F4AACE45
:1059B0008C3C9105A105B10508F0A4CE4D3C5105E4
:1059C0006105710520F04CEC50E060E070E0481B90
:1059D000590BBC0166587D4FC8010E94642E92CEBF
:1059E0004EE150E06FEF70E0C5010E94832E809180
:1059F0000B018983EA8286CE81E090E090936C026D
:105A000080936B0282E390E09093F4018093F30122
:105A10000E94570477CE80910B018983EA8280919E
:105A2000F30155CEEB80FC8040E250E06FEF70E078
:105A3000C8010E94832E2CE733E090E080E0AC01A7
:105A40004E5F5F4F4132510508F05CCEF901659120
:105A50007491E616F70630F4800F911FFC017183F4
:105A60006083CA01285F3F4FF4E024313F0739F7D4
:105A700049CE2B813C818CE793E0FC014591549108
:105A80002417350709F4AAC0089644E08431940726
:105A9000A1F7FCCD2B813C814CE7E42E43E0F42EB2
:105AA00084E194E0F701459154912417350709F4F6
:105AB000ADC0E8E0EE0EF11C8E159F0599F7E6CD1E
:105AC0000E94950D1FCE8B81823009F44BC0F0F4FB
:105AD000882309F43FC0813009F014CE8C819AE00C
