:100000000C94F2040C9439050C9439050C943905C0
:100010000C9439050C9439050C9439050C94390568
:100020000C9439050C9439050C94182A0C94D42995
:100030000C94132B0C9439050C9439050C94390548
:100040000C9439050C9439050C9439050C94390538
:100050000C9439050C94EF2A0C9439050C9439054D
:100060000C9439050C9439050C9439050C94390518
:100070000C9439050C9439050C9439050C94390508
:100080000C9439050C9439050C9439050C943905F8
:100090000C9439050C9439050C9439050C943905E8
:1000A0000C9439050C9439050C94390505010902A5
:1000B000A10185020901A100050919012905150001
:1000C00025019505750181029501750381010501E1
:1000D000093009311581257F950275088106093897
:1000E0001581257F950175088106050C0A380215D2
:1000F00081257F950175088106C0C005010980A191
:1001000001850319012AB700150126B7009501756D
:10011000108100C0050C0901A101850419012AA064
:1001200002150126A002950175108100C005010984
:1001300006A1018505050719E029E71500250195A8
:1001400008750181020507190029EF1500250195A1
:10015000F0750181020508190129059505750191C0
:1001600002950175039101C00660FF0961A10109B3
:1001700062150026FF0095207508810209631500AD
:1001800026FF00952075089102C005010906A1010E
:10019000050719E029E71500250195087501810279
:1001A0009501750881010507190029FF150026FF33
:1001B0000095067508810005081901290595057542
:1001C000019102950175039101C00000000000003B
:1001D000000000000000000000000000000000001F
:1001E00000000000000000000000000000007E0F82
:1001F00000D4FFFFFFC700000078000000000000EF
:1002000000002A2B28000000000000000000000071
:10021000000000000029000000002C1E34202122D4
:1002200024342627252E362D3738271E1F2021223D
:10023000232425263333362E37381F0405060708B6
:10024000090A0B0C0D0E0F101112131415161718A6
:10025000191A1B1C1D2F3130232D350405060708E4
:10026000090A0B0C0D0E0F10111213141516171886
:10027000191A1B1C1D2F3130354C00047F3F1F64A1
:100280003214643214783C1E1E140A05FD377A5865
:100290005A000004E6D6B446020021011600000010
:1002A000742FE5A3E00635022A5D003D8889C65417
:1002B00036C3174FE4E33D496D9840674548C84E43
:1002C000A73679390E10AB05B23D50A1C4DF101925
:1002D0004CD4EEDE69280FAE43E8E974B2CDC16EAE
:1002E000DE6E383F4F03DBA27A86B3BBC986D0836C
:1002F000BF7333476292291ADDED599500E60D4927
:10030000606928C93CF3F66C06E2E0A171AC37F4F1
:100310007FC1B01F9C12A61C44847A1CF2C778F4DB
:1003200001D890E2BCB387BDD3D338E9731FEF6C1B
:1003300025DA6D4346CAF6A0C86E1FF4411AE18F54
:10034000D643327BB1B9C85E96D1DC2162C9646BF9
:10035000B4163DB923920DB5F4EEF03A7ED8A0A2C2
:10036000D8DE2392F0DDA6ED6CCD6EAC8B250B4B69
:10037000036AF509D6B289C8919187F6E7F39EC062
:100380005728C6BA177A379C19A7A70FBE18D80DD9
:10039000C1688BC0050F9BD7BE84F1690EFAFCD4EF
:1003A00048544898617C9EEEA1B9328B783A42A2BB
:1003B000C1F1B6BF112DB0BCB4D8D48268F663E2E7
:1003C0002A34CBD5EFF03A7C20D6EB5FA069E3E38B
:1003D0008E7EDE819B7EF6FA6C3CF4EEB8FBD1B4E7
:1003E000328070012906C901BF52A5502FD5E45BA8
:1003F000A1D7A9A8EEEA2B189453BB20D07AA29DCE
:10040000C338D81084DA994703CAE4532CF586C55B
:100410007A9DA870022781AF678786BD39F1B53E06
:10042000C73EAD0C9E3625802A4CA2FBC79239539D
:10043000A81F7305F56039C55D10140352AA29265B
:10044000AAF167326891D5867FEB71DDC0D40A4F7F
:10045000B0782E2E5BCE96290FB59081D9F9D40BAA
:10046000C5527A8DB9DDD0A22E4165801952CDFDDD
:10047000F9C6C9B1EFA1C069AA44431FD533BCBCBA
:10048000B3DC24A66DC687B4E5EB188D18F4BE3A2C
:10049000CD437F11C2FB6B57FB36D7DDFC64DE1208
:1004A000A947C08AB01CBCD116E2CF8D5ABBDDA7CC
:1004B000C3FFC5F068EFE17C04A1F0BED5A60955E5
:1004C000F2459D94FF94FFC6F9764FC064BDDAF9FA
:1004D000A90C120E000000002E4C3FD79F60BE1EDC
:1004E0000001C604B60C0000966767C0B1C467FB84
:1004F000020000000004595A00010101010101013C
:1005000001010202020202020202020303030303C8
:100510000303030404040404040405050505050697
:100520000606060607070707070808080809090955
:10053000090A0A0A0B0B0B0C0C0C0D0D0D0E0E0EFE
:100540000F0F0F101011111112121313141415158F
:1005500016161717181819191A1A1B1B1C1D1D1E01
:100560001E1F202021222223242425262627282955
:10057000292A2B2C2D2D2E2F303132323334353683
:100580003738393A3B3C3D3E3F4041424344454683
:100590004748494A4C4D4E4F50515354555658595F
:1005A0005A5B5D5E5F616264656668696B6C6D6F06
:1005B0007072737577787A7B7D7E80828385878879
:1005C0008A8C8E8F91939596989A9C9EA0A2A3A5B3
:1005D000A7A9ABADAFB1B3B5B7BABCBEC0C2C4C6B4
:1005E000C9CBCDCFD1D4D6D8DBDDDFE2E4E7E9EB70
:1005F000EEF0F3F5F8FAFDFFFFAA7F554022232520
:100600002628292A2C2D2F3032333536383A3B3DD7
:100610003E4042434547494A4C4E50515355575925
:100620005A5C5E6062646668696B6D6F7173757742
:10063000797B7D7F81838587898A8C8E9092949641
:10064000989A9C9E9FA1A3A5A7A8AAACAEAFB1B350
:10065000B4B6B8B9BBBCBEBFC1C2C3C5C6C7C9CAA0
:10066000CBCCCDCED0D1D2D2D3D4D5D6D7D7D8D962
:10067000D9DADADBDBDBDCDCDCDCDCDDDDDDDDDCC0
:10068000DCDCDCDCDBDBDBDADAD9D9D8D7D7D6D5D2
:10069000D4D3D2D2D1D0CECDCCCBCAC9C7C6C5C394
:1006A000C2C1BFBEBCBBB9B8B6B4B3B1AFAEACAAE1
:1006B000A8A7A5A3A19F9E9C9A98969492908E8C91
:1006C0008A89878583817F7D7B79777573716F6D6B
:1006D0006B6968666462605E5C5A59575553515045
:1006E0004E4C4A4947454342403E3D3B3A383635F9
:1006F0003332302F2D2C2A29282625232235001E7F
:100700000020002200240026002D0029001F0021C7
:10071000002300250027002E004B001400080017BE
:1007200000180012002F002B001A0015001C000CEE
:1007300000130030004E00040007000A000D000FF7
:100740000034003900160009000B000E00330028A9
:1007500000E0001D0006000500110036003800E131
:10076000001B001900050010003700E500E2002C16
:1007700000E3412C00E600E400000031004C002AB8
:10078000005200500051004F0001003A003C003E72
:100790000040004200440001003B003D003F00419A
:1007A00000430045000100010001000100010001BB
:1007B0000001000100010001000100010001000131
:1007C00000005C01000100010001000100010001C6
:1007D0000001000100010001000100010001000111
:1007E0000001000100010001000100010001000101
:1007F00000010001000100010001000100010001F1
:1008000000010001000000010001000100010001E1
:1008100000010001000100010001000100010001D0
:1008200000010001000100010001000100010001C0
:1008300000010001000100010001000100010001B0
:1008400000010001000100010001000100010001A0
:100850000001000100010001000100010001000190
:100860000001000100010001000100010001000180
:100870000001000100010001000100010001000170
:100880000001000100010001000100010001000160
:100890000000000100010001000100010001000151
:1008A0000001000100010001000100010001000140
:1008B0000001000100010001000100010001000130
:1008C0000001000100010001000100010001000120
:1008D0000001000100010001000100010001000110
:1008E0000001000100010001000100010001000100
:1008F00000010001000100010001000100010001F0
:1009000000010001000100010001000100010001DF
:1009100000010001000100010001000100000001D0
:100920000001000100010001000100010009025B5B
:1009300000030100A0FA09040000010301010009FD
:1009400021110100012240000705810308000A0966
:10095000040100020300000009211101000122220C
:100960000007058203200001070503032000010999
:10097000040200010300000009211101000122BC52
:10098000000705840320000A12010002000000088D
:10099000276269E00100010203011C03760069007F
:1009A00061006C003A0066003600340063003200DB
:1009B000620033006300000014034E006F006D00FE
:1009C000690063002D0045007800740000001003EA
:1009D000670072006C00640074006D006B00000022
:1009E0000403090411241FBECFEFDAE0DEBFCDBF40
:1009F00004B603FE27C08091B3049091B404A09183
:100A0000B504B091B6048730904BA740B04BD1F4F9
:100A10001092B3041092B4041092B5041092B6046C
:100A200014BE84B7877F84BF0FB6F894A8958091D1
:100A30006000886180936000109260000FBEE0E06B
:100A4000F8E3099511E0A0E0B1E0E4ECF6E602C0BD
:100A500005900D92AC39B107D9F724E0ACE9B1E0CB
:100A600001C01D92A33BB207E1F70E943A2B0C9400
:100A70002E330C940000E8EDF0E080818E7F8083BF
:100A80001092E2001092DA001092E100A0EEB0E0C5
:100A90008C9181608C9380818F77808319BCA7EDC6
:100AA000B0E08C918E7F8C9380818F7E80831092BA
:100AB000800408952091E4003091E50095E6A901B5
:100AC0002091EC00822F817020FF06C08091E80009
:100AD00080FF06C080E008952091E80022FD1AC042
:100AE0008091A504882389F0853089F08091EB00FE
:100AF00085FD0FC02091E4003091E50042175307B7
:100B0000F9F29150E1F684E0089582E0089583E0DF
:100B1000089581E00895EF92FF920F931F93CF9372
:100B20007C018B010E945A05C82F811117C080914A
:100B3000E80085FD0BC08091E8008E778093E80087
:100B40000E945A05882399F3C82F08C0F7018191A4
:100B50007F018093F1000150110949F78C2FCF914B
:100B60001F910F91FF90EF9008958091A70487FF48
:100B700013C08091E80082FF06C08091E8008B7767
:100B80008093E80004C08091A5048111F2CF0895FC
:100B90008091A5048823D9F38091E80080FFF8CFE5
:100BA0008091E8008E77ECCF982F9093E900242F66
:100BB000762F50E0891731F07091EC002091ED0014
:100BC0005091F00021FD07C09F5F973071F780932F
:100BD000E90081E008953091EB003E7F3093EB0017
:100BE0003091ED003D7F3093ED003091EB003160AE
:100BF0003093EB007093EC002093ED005093F000E5
:100C00002091EE0027FDE0CF80E00895CF92DF92A3
:100C1000EF92FF920F931F93CF93DF93C8EDD0E035
:100C200088818F7E8883E7EDF0E08081816080831A
:100C300084E082BF81E08093800488818E7F8883F6
:100C400002EE10E0F80110821092DA0081EEC82E58
:100C5000D12CF601108288818F7788838881806803
:100C6000888388818F7D888319BC1092A504109297
:100C7000A6041092A4041092A30490EEE92EF12C85
:100C8000F70180818B7F808388818160888342E047
:100C900060E080E00E94D405F60180818E7F808331
:100CA000F801808181608083808188608083F70182
:100CB00080818E7F8083888180618883DF91CF915E
:100CC0001F910F91FF90EF90DF90CF900895FC015E
:100CD0008091AD049091AE0486179707A0F061153E
:100CE000710529F49091E8009E779093E80090E0D8
:100CF0006115710551F4911108C08091E80082FFDF
:100D000034C080E00895BC01F2CF8091A50488230F
:100D1000C1F18530C1F18091E80083FD30C0809140
:100D2000E80082FDEACF8091E80080FFE1CF80916A
:100D3000F3002091F200382F6115710519F0283069
:100D4000310558F091E02830310509F090E020910C
:100D5000E8002E772093E800CBCF81918093F100BB
:100D6000615071092F5F3F4FE7CF8091A504882321
:100D700041F0853041F08091E80083FFBECF81E0F3
:100D8000089582E0089583E0089580918204089593
:100D900087E797E7909301088093000888E19AE03D
:100DA0000FB6F894A895809360000FBE90936000F2
:100DB000FFCF9C014FB7F89480917704909178040D
:100DC000A0917904B0917A044FBF821B930B0895D0
:100DD0002FB7F8948091770490917804A0917904CA
:100DE000B0917A042FBF089520911C012223C9F0ED
:100DF00020917B0427FF15C0E62FE695E695E69542
:100E0000EE31D8F4E80FF92FF11D677021E030E0E2
:100E100001C0220F6A95EAF7209582812823228358
:100E20000895FC01329608962191621303C0DF01F8
:100E300011971C92E817F907B9F7089520911C0142
:100E40002223C1F020917B0427FF14C0E62FE695F2
:100E5000E695E695EE31F8F4E80FF92FF11D67708D
:100E600021E030E001C0220F6A95EAF78281822BEF
:100E700082830895FC0132962FEF30E04191641790
:100E800051F02F3F19F4411101C0232F3F5F36303D
:100E9000A9F72F3F09F40895820F911D27FD9A9518
:100EA000FC01628308952091740430917504281721
:100EB000390771F09093750480937404E091720483
:100EC000F0917304309721F00084F185E02D0994AE
:100ED000089520917004309171042817390771F03A
:100EE0009093710480937004E0917204F091730404
:100EF000309721F00680F781E02D09940895E09164
:100F00007204F0917304309721F00190F081E02D8C
:100F1000099480E00895DC016091B8038091B903E1
:100F2000962F891301C00895292F30E0F901EE0FA3
:100F3000FF1FE055FC4F408151814A175B07A1F428
:100F400087E08A9FA0018B9F500D112448585C4F69
:100F500081E0FA0184839613E6CF2F5F3F4F237021
:100F600033272093B80308952F5F3F4F922F93703C
:100F7000D8CF1092150310921403E8E7F3E08581AF
:100F8000811102C014821682379683E0E03BF80795
:100F9000B1F70895FA01811101C0FB010994089588
:100FA0008091A902982F9E7F29F48170826080939E
:100FB000A90208958A34E8F381708864F8CFAF926B
:100FC000BF92DF92EF92FF920F931F93CF93DF9325
:100FD000082F162FE901E42FF0E0E850FB4F6111D4
:100FE00010C0E4915E2F4E2F4983E8835A83DF912E
:100FF000CF911F910F91FF90EF90DF90BF90AF9036
:101000000895E62EF12C4491D42EE42FF0E026E052
:10101000829FC00111242FEF30E0B9010E941032ED
:10102000802F90E0880F991F55E5569FD001579F5C
:10103000B00D11248A1B9B0B982F990F890F590112
:10104000AE18BF08AE9ED001AF9EB00DBE9EB00DD3
:1010500011245B2F189F80011124012F11275901A2
:10106000A01AB10AAE9E8001AF9E100DBE9E100D5B
:1010700011245901A81AB108AE9CC001AF9C900D73
:10108000BE9C900D1124892F9927281B390B2E9F68
:10109000C0012F9F900D3E9F900D1124E92F6230CB
:1010A0007105A1F050F46115710509F49DCF61300F
:1010B000710581F0EB2F512F97CF6430710569F0E6
:1010C00080F06630710509F48FCFF4CFE42F4B2FF9
:1010D000592F8ACFE42F412F87CFEB2F542F492F41
:1010E00083CF4B2F5D2DE12F7FCF0E94E8069C011F
:1010F00090915E0280915F02982B21F030935B0209
:1011000020935A029091600280916102982B21F005
:101110003093590220935802E0917204F0917304C5
:10112000309749F082E080935C020480F581E02DE5
:101130008CE592E00994089590915E02803F59F405
:1011400080915F0287FF0DC010925F0291110BC06A
:101150001092560208C0813F81F480915F021816F8
:101160009CF3992381F08091600290916102892B18
:1011700009F064C0109255020895823F49F497FF28
:10118000F0CF10925E0280915F028111ECCFE0CF30
:10119000833F19F41916ACF3E4CF20916002893F24
:1011A00029F41216F4F610926002DBCF8A3F19F48C
:1011B00027FFD7CFF8CF209161028B3F29F427FF7B
:1011C000D0CF10926102CDCF8C3F19F41216CCF320
:1011D000C8CF843F31F480915D028E7F80935D02A1
:1011E000C0CF853F21F480915D028D7FF7CF863F90
:1011F00021F480915D028B7FF1CF873F21F48091B4
:101200005D02877FEBCF883F21F480915D028F7E66
:10121000E5CF8D3F31F4809157028E7F8093570246
:10122000A0CF8E3F21F4809157028D7FF7CF8F3F63
:1012300009F097CF809157028B7FF0CF089580916E
:10124000570280FD16C081FD16C082FD16C0809138
:1012500055028823A1F0883280F428E0829FC001E3
:10126000112468E270E00E942432862F672B39F047
:10127000089582E0089584E0089588E0089581E06B
:1012800008958091570280FD14C081FD14C082FD35
:1012900016C080915602882381F0843180F422E3C5
:1012A000829FC001112464E170E00E942432862FE5
:1012B00008958CE0089589E1089585E0089582E31A
:1012C0000895803F31F40E944109819580935F0227
:1012D0000895813F19F40E944109F8CF823F31F40B
:1012E0000E944109819580935E020895833F19F41D
:1012F0000E944109F8CF893F29F40E941F09809379
:10130000600208958A3F21F40E941F098195F7CF5A
:101310008B3F31F40E941F098195809361020895EB
:101320008C3F19F40E941F09F8CF843F31F480915B
:101330005D02816080935D020895853F21F4809174
:101340005D028260F7CF863F21F480915D02846068
:10135000F1CF873F21F480915D028860EBCF883F19
:1013600021F480915D028061E5CF8D3F31F4809161
:10137000570281608093570208958E3F21F4809137
:1013800057028260F7CF8F3FB9F780915702846090
:10139000F1CF80E00895F894E82FE295EF70F0E047
:1013A00031A1282F2F7081E090E001C0880F2A958D
:1013B000EAF7982F9095932391A392A1892B82A36A
:1013C0007894089590917B0492FF06C0282F28718D
:1013D0002830F9F4877F846093FF06C0282F287196
:1013E0002831F1F4877E846120917C0420FF06C0BF
:1013F000382F38713830D9F4877F816021FF06C0DB
:10140000282F28712831D1F4877E816194FD877E51
:101410000895282F24712430F9F68B7F8860DCCF63
:10142000282F2471243101F78B7E8861DDCF382F7E
:101430003171313019F78E7F8860E0CF282F21710C
:10144000213121F78E7E8861E1CFCF93DF93EC01CC
:1014500082389105A9F1D8F58133910509F496C038
:1014600048F58932910509F48AC08A9709F495C034
:10147000C11521E5D20708F0BCC0C11530E5D3077E
:1014800008F014C1C83ED10508F09CC0C03ED1058B
:1014900060F5C83AD10508F087C0C53AD10508F013
:1014A000FDC0C130D10509F12097F9F0C430D10554
:1014B000E0F440C08533910509F45AC0C997C1F6DC
:1014C00080917B04837089F0C0EED0E00EC0833E33
:1014D000910599F170F4803E910501F1823E9105EC
:1014E00039F680917B0482FD21C0CE01DF91CF913E
:1014F0000895863E910561F1873E910571F1843E24
:10150000910509F0B5CF80917C0481FFEECF8091E9
:101510007B04C7EED0E084FD0DC0E7CF80917B0453
:1015200080FD12C190917C0490FFDFCFC3EED0E02C
:1015300084FFDBCFD0E0C0E0D8CF80917B0482FD78
:1015400006C190917C0490FDBFCF84FFCECFF2CF37
:1015500080917B0483FDDDCFC8CF80917B0483FD28
:10156000F9C090917C0491FFF0CFC4EED0E0BDCFE4
:1015700080917B0485FFB9CFC9E2D0E0B6CF8091DE
:101580007B0485FFB2CFC5E3D0E0AFCF80917B0471
:1015900086FFABCFCAE2D0E0A8CF80917B0486FF64
:1015A000A4CFC1E3D0E0A1CFCF3BD10518F6C85AF4
:1015B000D0E0CC0FDD1FC85DDE4F0990D881C02D73
:1015C000D46493CFC11540E2D40758F4C11581E02B
:1015D000D80708F08ACFC03FD10508F4ABCFD0655B
:1015E00084CFC11590E4D90708F4A4CFDF70D06A86
:1015F0007CCFC11525E5D20700F5C11534E5D30729
:1016000008F08AC0C11543E5D40708F071C0C115C0
:1016100082E5D80708F467C0CE018370992721E0DE
:1016200030E002C0220F331F8A95E2F7C695C695B7
:1016300080E2C89FE001112452C0C11599E5D90785
:10164000A8F4C11528E5D20708F06BC0C11536E52E
:10165000D30708F06FCF8C2F0E94E209C82FD0E08B
:10166000DC2FCC27CC27DF71D0623FCFC1154AE5F4
:10167000D40708F45BC0CE0190568115904208F063
:1016800059CF8D2F8F710E94E20990E0982F882703
:1016900088279F719C012C2BE901E6CFC55AD0E029
:1016A000CB5DDE4FC881D0E0D0641FCFCE01E4E037
:1016B00096958795EA95E1F783702C2F26952695C8
:1016C000237040E2249F90011124382B8C2F8370CB
:1016D000C1E0D0E002C0CC0FDD1F8A95E2F7C22B3B
:1016E000D32BDC6802CFDC2FCC27C16FD06AFDCEB4
:1016F000CE018370992721E030E002C0220F331F12
:101700008A95E2F7C695C69590E2C99FE00111243B
:10171000C22BD32BDA68E9CEDC2FCC27C46FD06A7A
:10172000E4CEDC2FCC27C06FD06ADFCE8C2F8F7039
:101730000E94E20934E0D695C7953A95E1F7CF705B
:101740009C2FEC01D069D1CEC9E3D0E0CECEC2EE61
:10175000D0E0CBCEC6EED0E0C8CE80912B0288235D
:1017600031F010922B0210922A0210922902089551
:1017700080959091BC0398239093BC030895809129
:10178000BC039091BD03892B90912802892B8093F3
:101790009E0180912B02882329F10E94E806209166
:1017A000290230912A02821B930B8838934110F052
:1017B0000E94AD0B80919E0190912B02892B80930A
:1017C0009E0180911C01882341F180917B0487FF59
:1017D00024C08EE1E0EAF1E090E0815000F5911143
:1017E0000E94AD0BE0917204F09173043097E1F028
:1017F00080911C01882359F080917B0487FF07C0EA
:1018000080919E0180939F0185E080939E010280DC
:10181000F381E02D8EE991E0099486E0DBCF219100
:101820002223D9F29F5FD9CF0895EF92FF920F93B1
:101830001F93CF93DF93EC018A85811139C0EB8030
:10184000FC8087E5F81A26E12E9DC0012F9D900DA2
:101850001124DC01A054BC4F1496ED91FC91159716
:10186000309731F054966D917C918A539C4F099535
:1018700086E18E9D80018F9D100D112400541C4F18
:10188000F80187810E94B80BF8018085982F909508
:101890008091BD0389238093BD030E94BF0B1882F2
:1018A00019861B861E821D821092BF031092BE03F2
:1018B000DF91CF911F910F91FF90EF900895CF93FB
:1018C000DF93EC01898981111BC081E0898B8091B4
:1018D000BC039F81892B8093BC038091BD039885B5
:1018E000892B8093BD030E94BF0BEA81FB81309757
:1018F00039F06C897D89CE010696DF91CF910994EC
:10190000DF91CF9108951092270210922602109233
:1019100025020895809124028111109224020895D5
:10192000809123029091E201981301C008958F5F86
:101930008770FACF9E3F49F1E82F27E0929FE00D94
:1019400011249E2F9770E695E695E69583E0E89F33
:10195000F0011124E154FE4F50E040E080E021917D
:1019600030E0092E02C0369527950A94E2F72170DF
:101970003327042E01C0220F0A94EAF7822B4F5F0F
:101980005F4F4330510559F7089580E008959E3F19
:1019900069F1E82F27E0929FE00D11248E2F8770C8
:1019A00041E001C0440F8A95EAF7E695E695E69591
:1019B00083E0E89FF0011124E154FE4F30E020E085
:1019C00070E05191DF011197CB01022E02C0969574
:1019D00087950A94E2F7817081958527842385276E
:1019E0008C932F5F3F4F2330310559F7089590E0D6
:1019F00080E00E94690790E080E00E945307109207
:101A0000BD03109228020E94BF0B86E0ECE5F2E0D5
:101A1000DF011D928A95E9F7109256021092550245
:101A2000109257020C9475088093AF040C94F70C35
:101A30008091AF04982F9670963019F488600C94BA
:101A4000140D877FFCCF21E030E001C0220F8A9582
:101A5000EAF720958091AF0482230C94140D9091A5
:101A600027028095892380932702282F277039F435
:101A7000282F082E000C330B9217130621F4909197
:101A80007C0492FF07C08595859585950E94230D5E
:101A90000C94830C089521E030E001C0220F8A9558
:101AA000EAF78091AF04822B0C94140D90917C0482
:101AB00092FD10C098E0899F90011124622B6093E1
:101AC00027020E944B0D0E94E80690932602809305
:101AD000250208950C944B0D80932C020C94F70C66
:101AE000882341F080959091BD0389238093BD03A5
:101AF0000C94BF0B0895882339F09091BD03982B67
:101B00009093BD030C94BF0B0895882321F00E948D
:101B1000B80B0C94BF0B0895882339F09091BC0347
:101B2000982B9093BC030C94BF0B0895882379F1F4
:101B30009CEF980F913A38F4682F8EE991E00E945B
:101B4000F4060C94BF0B90E2980F983050F4877015
:101B500091E001C0990F8A95EAF7892F0E94B80B8E
:101B6000F0CF9BE5980F933020F490E080E00C9448
:101B7000690798E5980F973120F490E080E00C9485
:101B80005307803F20F00E949C080C94750808952C
:101B9000CF93C82F882309F46FC08CEF8C0F813A44
:101BA000C0F580911C01882311F180917B0487FF8F
:101BB0001EC0EC2FE695E695E695F0E0E256FE4F66
:101BC000828190E04C2F477021E030E002C0220F6C
:101BD000331F4A95E2F782239323892B91F06C2FD0
:101BE0008EE991E00E94F4060E94BF0B0AC0E0EA71
:101BF000F1E086EA91E02191C21789F38E179F07E1
:101C0000D1F76C2F8EE991E00E941E07CF910C94C2
:101C1000BF0B80E28C0F883068F4C77021E030E0A1
:101C200001C0220FCA95EAF78091BC03822B8093F2
:101C3000BC03ECCFEBE5EC0FE33040F4F0E0EB5D00
:101C4000FE4F808190E0CF910C946907E8E5EC0F9E
:101C5000E73150F4F0E0EE0FFF1FE85DFE4F8081AA
:101C60009181CF910C945307C03F30F08C2F0E948C
:101C70006109CF910C947508CF9108959C013A9514
:101C800021153F4150F5FC01EE27F170BC0166279C
:101C90007270AC01442754709C012227387094FF65
:101CA0000EC080E1EF2B09F480E0672B09F0806221
:101CB000452B09F08064232B89F08068089581E02A
:101CC000EF2B09F480E0672B09F08260452B09F0C7
:101CD0008460232B19F08860089580E00895909126
:101CE000A504943029F580937D0470937F0460935C
:101CF0007E049093E9008FEF9091E800815095FD6C
:101D000006C095ED9A95F1F700008111F5CF80910D
:101D1000E80085FF0DC050E040E063E070E08DE733
:101D200094E00E948B058091E8008E778093E80014
:101D30000895BC0184E00C946F0EBC0183E00C9408
:101D40006F0E9C0184E08093E9009FEF8091E80092
:101D5000915085FD06C085ED8A95F1F7000091113F
:101D6000F5CF8091E80085FF0CC050E040E066E0D0
:101D700070E0C9010E948B058091E8008E77809306
:101D8000E8000895CF93DF93EC0180911C01882334
:101D9000B1F180917B0487FF32C060E284E08093E0
:101DA000E9008FEF9091E800815095FD06C095ED18
:101DB0009A95F1F700008111F5CF8091E80085FF39
:101DC0001BC080911C0170E050E040E0811104C014
:101DD00050E040E068E070E0CE010E948B05809109
:101DE000E8008E778093E80080E2FE01A3E8B4E08B
:101DF00001900D928A95E1F7DF91CF91089568E007
:101E000081E0CDCF8091A90280FD0AC0EDE6F2E02D
:101E1000118210821282339652E0E93AF507C1F737
:101E2000259A35B13F7D25B120624FB7F8948DE6F4
:101E300092E0FC015191CF0168E025B9000000C09B
:101E400057FF35B9550F000000C000C000C035B9BC
:101E500000C06A9591F7F2E0893A9F0751F74FBFAA
:101E60008FE594E00197F1F700C000000895EF922C
:101E7000FF920F931F93CF93DF938C01CDE6D2E0B7
:101E8000F12CE12CF80194816091AB028091AA02BF
:101E9000FAE0EF16F104FCF49923F9F09E01409169
:101EA000AC020E94DF072FEFE21AF20A239684E1C8
:101EB000E816F10439F70E94020FF801848190E0DE
:101EC0000196817099278483DF91CF911F910F91A3
:101ED000FF90EF900895992309F39E0140E0E1CF30
:101EE0008F929F92AF92BF92CF92DF92EF92FF922A
:101EF0000F931F93CF93DF93EC014C81042F10E0DD
:101F00009801D8010E946F329B01AC010E9485327A
:101F10004B015C01E0E2F0E0E01BF10BA5E5B0E075
:101F2000AC019B010E9485326B017C019F01DF01A6
:101F30000E9467329B01AC010E9490329B01AC0170
:101F4000280D391D4A1D5B1DC701B6010E9438329C
:101F5000F22E822F90E039E23F15D8F143E0249F22
:101F60009001112435952795122F10959DE6C92EC5
:101F700092E0D92E00E085E5E82EEF188E2D01FDC8
:101F80008F2D9601412F6091AB020E94DF070F5FFA
:101F900053E0C50ED11C043189F70E94020F9C81C9
:101FA00081E0992319F0903219F48FEF8093180192
:101FB00080911801890F8C83DF91CF911F910F9130
:101FC000FF90EF90DF90CF90BF90AF909F908F9059
:101FD000089525E530E0A901481B590BCA019A0173
:101FE000220F331F280F391F37FFBCCF2F5F3F4F02
:101FF000B9CF0F931F93CF93DF93CDE6D2E0FE01CD
:10200000118210821282339682E0E93AF807C1F712
:1020100010E000E080916B02082E000C990B08176D
:1020200019078CF180911701082E000C990B80176D
:1020300091074CF19E014091AC026091AB028091FE
:10204000AA020E94DF070F5F1F4F2396043111057C
:1020500009F70E94020F8091160190916B02980F70
:1020600090936B0220911701280F209317011216ED
:1020700014F493311CF0819580931601DF91CF9178
:102080001F910F910895198218821A82DCCFBF9296
:10209000CF92DF92EF92FF920F931F93CF93DF9334
:1020A000FC018281DD24DA9480FD02C0DD24D3941A
:1020B0000DE612E0D0E0C0E024E1B22EF80111827A
:1020C0001082128294E0E92EF12CC12C80916A02D8
:1020D0008C0D85310CF43DC06B2D0E940232892F8E
:1020E000082E000C990B8C179D0791F48091AC027F
:1020F0008E9DA0018F9D500D1124559547955595A6
:10210000479598016091AB028091AA020E94DF0777
:10211000CD0CF1E0EF1AF108C9F621960D5F1F4FC3
:10212000C431D10559F60E94020F80916A0291E0F4
:10213000D91215C0811111C083E180936A02DF9129
:10214000CF911F910F91FF90EF90DF90CF90BF90B4
:10215000089587FFC5CF8C5EC3CF8150EECF90E04E
:102160000196BE010E942432E8CFEF92FF921F93A6
:10217000CF93DF93EC018DE6E82E82E0F82E10E09D
:102180008C8197014091AC026091AB02810F0E945B
:10219000DF07145F83E0E80EF11C103F89F70E940F
:1021A000020F9A818C8190FF08C08F5F8C83DF9132
:1021B000CF911F91FF90EF9008958150F7CF9091AC
:1021C000A90290FF0CC0EDE6F2E0818360834283B8
:1021D000339692E0E93AF907C1F70C94020F08959B
:1021E0000F931F93CF93DF9300D00F92CDB7DEB73D
:1021F0008C0180916C0281110AC09E012F5F3F4FBC
:102200004FEF6FEF0E94DF078A8180936C02F80125
:102210006481613069F080916C0240E0662361F076
:1022200040E0623011F440916C0280E060E004C054
:1022300060916C0240E080E00E94DF10F801848130
:1022400090E0019663E070E00E94243284830F9056
:102250000F900F90DF91CF911F910F910895CF9321
:10226000DF9300D00F92CDB7DEB79091A90290FF17
:102270000AC09E012F5F3F4F0E94DF074B8169819B
:102280008A810E94DF100F900F900F90DF91CF9105
:102290000895CF93DF93EC01E9EAF2E04381628194
:1022A0008C810E942F118C818F5F8C83DF91CF9165
:1022B0000895CF93DF93EC01EC81F0E0E350FA4F07
:1022C0004491E9EAF2E0628181810E942F118C81C0
:1022D0008F5F8C83DF91CF9108951F93CF93DF930E
:1022E000182FCAE0D0E0893311F4C0E5D0E0812F87
:1022F0000E94C80D8FE99FE00197F1F700C0000030
:102300002197C1F7812FDF91CF911F910C94960DEA
:102310000F931F93CF93DF93C62FD42F022FFC016F
:1023200082818823A1F06093B2040E94E806909312
:10233000B1048093B004C77081E001C0880FCA95D2
:10234000EAF7DF91CF911F910F910C948C0D809142
:10235000B204681335C08091B0049091B1040E941A
:10236000D906883C910560F510E21D0FCD17B9F034
:1023700080E28C0F883040F4C77081E001C0880F84
:10238000CA95EAF70E94850D183048F481E09D2F28
:10239000977001C0880F9A95EAF70E948C0D802FE4
:1023A0000E946D11183098F4D77081E001C0880F39
:1023B000DA95EAF7DF91CF911F910F910C94850D7B
:1023C000C77081E001C0880FCA95EAF7F3CFDF91AB
:1023D000CF911F910F910895AF92BF92CF92DF924C
:1023E000EF92FF920F931F93CF93DF93EC018AE05C
:1023F000A82E2881222309F48CC02130C9F59981A7
:102400008A81913021F422960E946D1105C092308C
:1024100029F422960E94C80D2196EBCF933021F427
:1024200022960E94960DF8CF943011F02196F4CFA9
:10243000229630E020E0AE014F5F5F4F8053990B52
:102440008A30910550F02150310930F38FE99FE037
:102450000197F1F700C00000F6CFA29EB001A39E45
:10246000700D11249C01260F371F8981EA01E3CFEB
:10247000E22FF0E0E650FE4FB490822F86958695CD
:10248000869590E0FC01E651FE4FE4902770F12C18
:10249000022E02C0F594E7940A94E2F731E0E322B9
:1024A000FF24FC01E652FE4FC490D12C022E02C044
:1024B000D594C7940A94E2F731E0C322DD24FC01ED
:1024C000E653FE4F049110E002C0159507952A953A
:1024D000E2F701701127E114F10419F081EE0E9476
:1024E000C80DC114D10419F086EE0E94C80D8B2DC1
:1024F0000E946D11CD2819F086EE0E94960DEF28EE
:1025000019F081EE0E94960D012B09F485CF8CE223
:102510007BCFDF91CF911F910F91FF90EF90DF90D4
:10252000CF90BF90AF900895CF93DF93C7EFD2E0E5
:1025300060E0CE010E94F2322196C11584E0D807F6
:10254000B9F7DF91CF9108950F931F93CF93DF9346
:102550008901843048F56A3038F5473028F521156F
:102560003C4531F42091190130911A01232BE1F0FF
:10257000C42FD0E0CC0FDD1F9EE0699FC00DD11DA0
:1025800011249CE8899FC00DD11D1124612FCE011B
:1025900087960E94F232602FCE018896DF91CF910C
:1025A0001F910F910C94F232DF91CF911F910F91F7
:1025B0000895CF93C82F6FEF81116FE683E290E00B
:1025C0000E94F2326FEFC11168E684E290E00E944F
:1025D000F2326FEFC11160E185E290E0CF910C948F
:1025E000F232CF93C0917C04C2FB992790F99817DF
:1025F00081F080FBC2F9C0937C0460917B0484E08D
:1026000090E00E94F2326C2F82E290E0CF910C9425
:10261000F232CF9108957F928F929F92AF92BF92A4
:10262000CF92DF92EF92FF920F931F93CF93DF939E
:10263000CDB7DEB764970FB6F894DEBF0FBECDBF3F
:10264000A0901901B0901A0181E090E090931A01D6
:10265000809319018DEFC82E86E0D82E00E0760118
:1026600010E015C0F40125913491472D612F802F82
:102670000E94A41282E0880E911C7394E7E07E12FF
:10268000F1CFFEE0EF0EF11C1F5F1A3019F0470189
:10269000712CE8CF0F5F8CE8C80ED11C0430F9F61E
:1026A0001A8219821C821B821E821D8218861F823A
:1026B00088EC90E09A87898707E512E04AE050E0CD
:1026C000B801CE0101960E941633065F1F4F073AEC
:1026D000E2E01E0799F77E01FBE0EF0EF11C8AE0B5
:1026E000F70111928A95E9F74AE050E0B801C70175
:1026F0000E941633065F1F4F073FF2E01F07A1F746
:10270000B0921A01A092190164960FB6F894DEBF38
:102710000FBECDBFDF91CF911F910F91FF90EF9032
:10272000DF90CF90BF90AF909F908F907F90089553
:1027300080E00E94D91260E086E290E00E94F232CE
:102740000E940B130E94941281E00C94D9129B01F9
:10275000883070F49AE0899FB0011124695A7D4F46
:102760004AE050E0C9010E94CE3290E080E0089536
:102770008FEF9FEF08958F929F92AF92BF92CF926B
:10278000DF92EF92FF920F931F93CF93DF93CDB71A
:10279000DEB72A970FB6F894DEBF0FBECDBF00ECB0
:1027A00013E0F12CE12C8CEEC82E87E2D82E96E1B6
:1027B000A92E98E2B92E2CE3822E27E2922EF80160
:1027C000D182C082B382A28295828482F58AE48A11
:1027D000BE016F5F7F4F8E2D0E94A713892B29F4B6
:1027E00089859A85F801938B828BFFEFEF1AFF0A98
:1027F0000A5E1F4F88E0E816F10409F72A960FB623
:10280000F894DEBF0FBECDBFDF91CF911F910F9126
:10281000FF90EF90DF90CF90BF90AF909F908F9000
:1028200008950F931F93CF93DF93843030F56A3070
:1028300020F5473010F5C42FD0E0CC0FDD1F2EE07F
:10284000629FC00DD11D11243CE8839FC00DD11D96
:102850001124CE0187960E94DE32082F10E0102F3F
:102860000027CE0188960E94DE329801282BC901EC
:10287000DF91CF911F910F91089590E080E0F8CF04
:10288000462F2091120330911303232B91F47E3FA6
:1028900039F46E3F71F48091100390911103089503
:1028A000843038F47A3028F4673018F4672F0C94A9
:1028B000111490E080E00895CF92DF92FF920F9381
:1028C0001F93CF93DF936C010091AF0480912C0292
:1028D000082BC7E0D0E010E0FC2EC8010C2E02C08F
:1028E000959587950A94E2F780FD0CC02197A0F793
:1028F000F12C8F2DDF91CF911F910F91FF90DF90E1
:10290000CF900895B6018C2F0E9440140E94250A92
:10291000019761F3EECFCF93DF93EC010E945C143B
:10292000BE010E944014DF91CF910C94250AFC0156
:1029300086819781009779F00E94250A292F2F70B0
:1029400092959F7092509E30A0F4E92FF0E0E05DE8
:10295000FC4C0C945A32808191810E948B14EECFF2
:10296000803F19F020F4883E20F481E00895843FF0
:10297000E1F380E00895883EC0F3813FD1F7F5CFC1
:10298000822F86958695869508951F93CF93DF9322
:1029900000D000D00F92CDB7DEB7FC012681378181
:1029A0002115310541F525E0DE01119601900D92CA
:1029B0002A95E1F7FC01228189819A812223B9F0CD
:1029C0006623A9F00E945C14182F682F89819A81D0
:1029D0000E94C70C69817A81812F0F900F900F9010
:1029E0000F900F90DF91CF911F910C9440140E9493
:1029F0009A0C182FEFCFC9010F900F900F900F90E6
:102A00000F90DF91CF911F91089583E290E00E9493
:102A1000DE328F3689F484E290E00E94DE3288361E
:102A200059F485E290E00E94DE3291E0803109F0B5
:102A300090E0892F8170089580E0FCCFCF9384E0EF
:102A400090E00E94DE32C82F82E290E00E94DE32E7
:102A5000982F8C2FCF910895CF92DF92EF92FF9213
:102A60000F931F93CF93DF93CDB7DEB72A970FB69F
:102A7000F894DEBF0FBECDBFE0ECF2E080E5DF01F1
:102A80001D928A95E9F7E8E7F3E088E3DF011D92FC
:102A90008A95E9F780ECC82E82E0D82E7F0107EAFC
:102AA00012E0F701D182C0824AE050E0B801CE01C5
:102AB00001960E94CE3288E0FE013196D601019047
:102AC0000D928A95E1F789859A85D70113969C9393
:102AD0008E931297BAE0CB0ED11CE7E0EE0EF11CFC
:102AE000065F1F4F073FF2E01F07D9F62A960FB681
:102AF000F894DEBF0FBECDBFDF91CF911F910F9134
:102B0000FF90EF90DF90CF9008951092BC038091DA
:102B10001C01E0EAF1E0882359F080917B0487FFF3
:102B200007C08EE1DF011D928A95E9F70C94F70C3E
:102B300086E0F8CF1F93CF93DF93CDB7DEB7AA9788
:102B40000FB6F894DEBF0FBECDBF87EA94E02091A8
:102B5000F100DC012D93CD01B4E08F3A9B07B9F76A
:102B60008091A804833009F471C0B8F4813009F46D
:102B700048C0823009F4B2C08091E80083FF3AC1B6
:102B80008091A7049091A8049A3008F033C1E92FEE
:102B9000F0E0E25CFC4C0C945A328A3009F48DC0AF
:102BA0008B3009F470C0893039F78091A7048132E5
:102BB00019F78091AB049091AC04009711F0029743
:102BC000D9F68091E800877F8093E8008091E80043
:102BD00082FF37C09091F3008091F200029729F4B0
:102BE0008091F1008B7F813021F48091F1008093FE
:102BF00082048091E8008B778093E8000E94B505FD
:102C0000BBCF8091A704813A09F0B6CF8091E8004C
:102C1000877F8093E8008091AB049091AC04892B6E
:102C200061F460E283E894E070E00E9467068091BE
:102C3000E8008B778093E8009FCF60E090E080E031
:102C4000F3CF8091A5048111C1CF96CF8091A704C5
:102C5000813A09F091CF8091AB049091AC04892B1B
:102C600009F08ACF8091E800877F8093E800809107
:102C7000E80080FFFCCF80911C018093F1008091DF
:102C8000E8008E77B9CF8091A704813209F074CF24
:102C90008091AB049091AC04892B09F06DCF8091A9
:102CA000E800877F8093E8000E94B5058091A90421
:102CB00080931C010E9485155FCF8091A70481320B
:102CC00009F05ACF8091E800877F8093E8000E9446
:102CD000B5058091AA04809381044ECF8091A7040A
:102CE000813A09F049CF8091E800877F8093E8001E
:102CF0008091E80080FFFCCF80918104BECF8038B6
:102D000099F0823809F076C08091AB048F708730DB
:102D100008F070C08093E9008091EB0085FB882764
:102D200080F91092E90006C08091A3049091A40458
:102D3000911182609091E800977F9093E8008093D2
:102D4000F1001092F1008091E8008E77C0C18823D5
:102D500009F4ADC1823009F04DC08091A904811100
:102D6000B1C18091AB048F702FEF280F263008F08F
:102D700041C08093E9002091EB0020FFA3C1933074
:102D800031F48091EB0080628093EB009BC19091C5
:102D9000EB0090619093EB0021E030E001C0220F46
:102DA0008A95EAF72093EA001092EA008091EB00FE
:102DB0008860EACF81111EC01091A9041F7780910D
:102DC000E3008078812B8093E3008091E800877F87
:102DD0008093E8000E94B5058091E80080FFFCCF59
:102DE0008091E30080688093E30082E0111183E02A
:102DF0008093A5048091E80083FF0AC08091E800D9
:102E0000877F8093E8008091EB0080628093EB00E5
:102E1000AA960FB6F894DEBF0FBECDBFDF91CF915B
:102E20001F9108958058823028F72091A90430918D
:102E3000AA042C3DE3E03E07A1F583E08A838AE201
:102E400089834FB7F894DE01139620E03EE051E20B
:102E5000E32FF0E050935700E49120FF03C0E29588
:102E6000EF703F5FEF708E2F90E0EA30C0F0C796B2
:102E70008D939D932F5F243159F74FBF8091E800C8
:102E8000877F8093E8006AE270E0CE0101960E949D
:102E900067068091E8008B778093E800ABCFC096FF
:102EA000E7CF8091AB049091AC04432F552743307A
:102EB000510509F44AC078F54130510509F485C03F
:102EC0008BE590E0EDE2F9E04230510509F092CF58
:102ED0002091E800277F2093E8002091AD043091F5
:102EE000AE048217930708F49C0140E021153105D8
:102EF00009F070C041116EC08091E80082FDC9CF19
:102F00008091A504882329F2853019F28091E80088
:102F100083FFF2CFBECF4132510509F447C04232A0
:102F2000510509F067CF8330910508F063CFFC01AC
:102F3000EE0FFF1FE157FE4F0190F081E02D845707
:102F40009E4FDC018C9190E01DC03327213031056C
:102F5000E9F02115310579F022303105F9F02330FF
:102F6000310509F047CFEAE9F9E0E4918E2F90E0CE
:102F7000EAE9F9E007C0E0EEF9E0E4918E2F90E095
:102F8000E0EEF9E0009709F435CFA2CFEEECF9E0DE
:102F9000E4918E2F90E0EEECF9E0F4CFE8EBF9E06D
:102FA000E4918E2F90E0E8EBF9E0ECCF83309105CF
:102FB00008F020CF880F991FFC01EB56FE4F0190BF
:102FC000F081E02D89E090E083CF82E190E0E8E8B5
:102FD000F9E07ECF8091A504882309F45ACF85308B
:102FE00009F457CF8091E80083FD53CF8091E8002A
:102FF00082FD82CF8091E80080FF78CF9091F3002E
:103000008091F2002115310519F08830910550F0BA
:1030100041E0089709F040E08091E8008E778093C6
:10302000E80064CF44914093F1003196215031097A
:103030000196E8CF803809F0DDCE8091E800877FE7
:103040008093E8008091A6048093F1007CCE8111EA
:10305000D1CE1091A904123008F0CCCE8091E800B6
:10306000877F8093E8001093A6040E94B505112382
:1030700011F084E005C08091E30087FDFACF81E084
:103080008093A50442E061EC81E00E94D40542E215
:1030900061EC84E00E94D40542E261EC82E00E948F
:1030A000D40542E260EC83E00E94D405A3CE809177
:1030B000A904813009F09ECE81E0933009F080E0D0
:1030C0008093A4041092E9008091E800877F8093A8
:1030D000E8000E94B5058ECE6091A902669570E069
:1030E0004BE050E08BE091E00E94AD32892B19F467
:1030F00081E0809369020E94E806909363028093C6
:1031000062020895CF92DF92EF92FF926B017C01F1
:103110000E94D007B701A60188E090E0FF90EF90F1
:10312000DF90CF900C9404335F926F927F928F92D6
:103130009F92AF92BF92CF92DF92EF92FF920F9346
:103140001F93CF93DF9300D00F92CDB7DEB7182F28
:10315000762E042F622E9091A90290FF29C0E92FAC
:10316000E695AE2FB0E0A959BE4F8C9180936802CE
:103170009E7F923081F59E012F5F3F4F812F0E94ED
:10318000DF074B8169818A810E94DF101093AA02B8
:103190007092AB020093AC02662051F06091A902DC
:1031A0007091AA028091AB029091AC020E948218A9
:1031B0000F900F900F90DF91CF911F910F91FF9083
:1031C000EF90DF90CF90BF90AF909F908F907F90C7
:1031D0006F905F900895823019F40091AC02D6CFC1
:1031E000863019F41091AA02D1CF8930D9F38931F0
:1031F00069F6E9518E2F8170582EE695F0E0E8507F
:10320000FA4FA590B490BB248DE6E82E82E0F82E0C
:10321000D12CC12C94E1892E912CC601B4010E94BD
:103220001032812F511013C0860F9701402F672D48
:103230000E94DF07CA0CDB1C83E0E80EF11C89EA60
:10324000E81682E0F80649F70E94020F9FCF861B1E
:10325000ECCFE9EAF2E0438120E1421B08F440E0D0
:1032600021E0628181810C949418E9EAF2E04381C3
:1032700020E1420F08F44FEF21E0628181810C943C
:103280009418E9EAF2E0628120E1621B08F460E050
:1032900021E0438181810C949418E9EAF2E0628193
:1032A00020E1620F08F46FEF21E0438181810C94EB
:1032B0009418E9EAF2E0818121E043816281805142
:1032C0000C949418E9EAF2E0818121E04381628163
:1032D000805F0C9494188091AD02882319F081507E
:1032E0008093AD026091A9027091AA028091AB0215
:1032F0009091AC020C9482188091AD02833018F446
:103300008F5F8093AD026091A9027091AA028091B3
:10331000AB029091AC020C9482189091A90290FF9C
:1033200036C09170811129C092609093A9026623E2
:1033300051F06091A9027091AA028091AB02909124
:10334000AC020E9482186091A902669570E04BE081
:1033500050E08BE091E00E94AD32892BA9F01092F1
:10336000690281E08093650220E04091AC026091A7
:10337000AB028091AA020C949418853210F09864E4
:10338000D4CF880F982BD1CF0E946C18EACF089524
:103390008091A9028695815009F484E261E00C9441
:1033A0008D198091A90286958F5F853208F081E0A2
:1033B00061E00C948D199091A90290FF07C0969539
:1033C000981720F0961710F40C94D11961E00C9422
:1033D0008D19E9EAF2E083E0808311828FEF828326
:1033E0008383148260817181828193810C9482181D
:1033F0006AEE7EEF90E080E00E94103360E082E0B1
:1034000090E00E94F23260E083E090E00E94F232AD
:1034100010922C0260E084E090E00E94F23260E0C2
:1034200082E290E00E94F23260E085E090E00E944B
:10343000F23260E086E090E00E94F2326FEF87E0C7
:1034400090E00E94F23240E050E0BA0188E090E063
:103450000E94043360E08DE090E00E94F23240E090
:1034600050E0BA0188E190E00E94043360E087E117
:1034700090E00E94F23240E050E0BA018CE190E02E
:103480000E94043370E060E080E290E00E9410331C
:1034900040E050E0BA0188E190E00E94043380E00F
:1034A0000E94D9120E94981340E050E0BA018FE0C8
:1034B00090E00E94043340E050E0BA0183E190E0E4
:1034C0000C9404338F929F92AF92BF92CF92DF926F
:1034D000EF92FF920F931F93CF93DF9300D000D012
:1034E000CDB7DEB77C01DC0113968D919C911497CA
:1034F000892B39F08C9111969C9189238F3F09F08B
:103500009EC50F900F900F900F90DF91CF911F915C
:103510000F91FF90EF90DF90CF90BF90AF909F9072
:103520008F900895D60116968C9116978823D1F026
:1035300019968D919C910817190739F48091BE0353
:103540009091BF030817190769F0F6019786148751
:103550000387C6010E945F0CC60106960E94150CE7
:103560001092BD03FFEFAF1ABF0A26E1C20ED11CB5
:103570007CC5980122513F452031310508F02FC507
:103580008FEF93E00E94DE324EEED42ED00E07EF86
:1035900012E08823D9F080912702877009F4B1CF17
:1035A000D70112968C91882309F4ABCF82E00E9458
:1035B0002F0DA7CF011534E0130769F3C8010E944E
:1035C000DE32811101C0DA940F5F1F4FD110F2CFAC
:1035D00019821A821B821C82CC24CA9448014FEFA4
:1035E000841A940AC8010E94DE3289831A828823D1
:1035F00091F2813009F047C0580152E0A50EB11C8C
:10360000C4010E94DE32982E8A83882321F2C501EC
:103610000E94DE32D82E8FEF890D833068F4580176
:1036200083E0A80EB11CDB82DD2021F0CE010196E3
:103630000E94EC118501D2CF94E09912FBCF580182
:10364000A4E0AA0EB11CC80103960E94DE32DD2060
:1036500009F4A1CF882309F49ECF8150990BC89E0D
:103660009001C99E300D1124ED2DE150FF0BCF01CB
:10367000820F931F0197F0F2AFE9BFE01197F1F7C6
:1036800000C00000F7CFCE0101960E94EC1154015A
:10369000D1CF81E00E944B0D0E94180D7CCF81E0BC
:1036A0000E94230DF9CF82E0F5CF2FEFC216D1048F
:1036B00011F008F0AAC466EB72E08C2D0E94A713EB
:1036C000892B29F586E18C9DF0018D9DF00D11244B
:1036D000E054FC4F8681813009F0ADC08091B60284
:1036E0009091B702892B99F08091B8029091B9021C
:1036F000892B69F08091BA029091BB022091BC02A3
:103700003091BD02822B932B892B09F49EC08091AE
:103710000001082E000C990B8C159D0514F4C09225
:103720000001F701828196E19C9D50019D9DB00CA6
:103730001124950120543C4F6901D90150968C9376
:103740005097928116968C911697992309F48BC005
:103750001A961C930E9319978F5F16968C930E945E
:10376000E806F6019687858780912B0287838091F2
:10377000BD039091BC03892B80870190F081E02DDF
:10378000309741F0D60154966D917C91C5018A53D2
:103790009C4F09951093BF030093BE03F7018281EC
:1037A000882309F47BC41092B2040230FCE51F07A1
:1037B00008F464C106312CE5120730F0C8018A5FB5
:1037C0009C45099708F05AC10E941E1590937C04ED
:1037D00080937B0400313CE5130709F41EC108F017
:1037E000B1C008305CE5150709F40DC108F080C0D0
:1037F00004309CE5190709F4FEC008F066C00230E9
:10380000BCE51B0709F4F1C080917B0482600330A2
:103810001C4509F4EDC060917B0410917C0484E0A8
:1038200090E00E94F232612F82E290E00E94F23238
:103830000E948515B0CE823009F069CF8091BA021E
:103840009091BB02892B09F462CF26E12C9DC00127
:103850002D9D900D112480549C4FDC0150961C929C
:103860000E945F0C54CF882309F498CFF901818915
:10387000882309F493CFC5018A539C4F0E94150CED
:103880008DCF053F8CE51807C9F0A0F027E245EE83
:1038900066EE063FACE51A0709F080CFC7010E942B
:1038A000881179CE27E245EE65EEF8CF26E241EEAB
:1038B00060EEF4CF27E245EE64EEF0CF26E241EE73
:1038C00062EEECCF28E241E0EFCF80917B04806193
:1038D0000630FCE51F0709F48BC080917B048860EB
:1038E00007301C4508F484C080917B04806280C04E
:1038F00080917B048D7F0C303CE5130709F478C080
:1039000070F480917B048C600A305CE5150709F443
:103910006FC008F47CC080917B048E7F69C0809169
:103920007B04877F0E309CE5190709F461C0809104
:103930007B048B7F0F301C4508F45AC080917B04B8
:103940008F7E56C00B3FBCE51B0709F458C030F50D
:103950000331FCE51F0709F468C078F401313CE548
:10396000130709F45EC002311C4509F054CF0E94D0
:10397000851580917B048F773BC005315CE5150789
:1039800009F45BC008F46FC080917C0481600A3F39
:103990001C4509F040CF80937C043DCF0F3FACE540
:1039A0001A0709F446C088F480917C048D7F0D3F8E
:1039B000ECE51E0781F380917C048E7F0E3F1C4551
:1039C00050F380917C048360E6CF01302DE512072F
:1039D00009F452C0F0F160E002301D4509F01BCF40
:1039E0008EE090E00E94F23216CF80917B048160DD
:1039F00080937B0410CF80917B048460F9CF809109
:103A00007C048260C8CF80917B048064F1CF0E94E7
:103A1000851580917B048068EBCF80917B048F7D3E
:103A2000E7CF80917B048F7BE3CF80917B04837F02
:103A3000DFCF80917C048C7FAECF80917B0482FBB2
:103A4000992790F921E0922790FB82F990FB83F966
:103A5000CFCF80917C04982F909591708E7F892B89
:103A600090FB81F998CF0E94851590917B04892F56
:103A700097FB87F98058BCCF61E0B2CF8091BC033F
:103A800006315CE5150709F016C38A7A91E009F45E
:103A900090E09093BE0169E2811165E38EE991E0C7
:103AA0000E941E070E94BF0B76CD8091A90280FF65
:103AB0001BC08E7F8093A9026091A9027091AA0217
:103AC0008091AB029091AC020E9482181092690220
:103AD0008FEF90E7A2E081509040A040E1F700C056
:103AE00000000E94020F57CD81608093A90261E01F
:103AF00086950E948D194FCD48EC59E161ED79E131
:103B00000E94CA0748CD41ED59E168EC79E1F8CF50
:103B100042E659E169E579E1F3CF41E459E16DE429
:103B200079E1EECF49E259E165E379E1E9CF45E397
:103B300059E169E279E1E4CF4CE759E16BE679E1DB
:103B4000DFCF61E081E0D5CF65E082E00E94DB1944
:103B500022CD68E086E0FACF64E18FE0F7CF67E13D
:103B600085E1F4CF62E289E1F1CF61E083E2C1CF88
:103B70000B353DE5130701F10C351D4509F0C6C2B3
:103B800080917C0482FB882780F991E089270E943C
:103B9000F112BCC20E9485155FEF84E39CE0515096
:103BA00080409040E1F700C000000E94C8060E94DB
:103BB000F819F1CC81E0EBCF80E0E9CF8281008180
:103BC0001181882369F0C8010E945C14D82E682FE7
:103BD000C8010E94C70CB8018D2D0E9440149CC2E0
:103BE000C8010E949A0CD82EF6CF212F2F70D22E0A
:103BF000107F19F0D29490EFD922BB20C9F0DD20BC
:103C000069F080E2800F883010F001110BC08091C4
:103C1000BC03D82AD092BC030E94BF0B802F0E9405
:103C2000C80D16C08091BD03D82AD092BD03F4CF31
:103C3000802F0E94960DDD2059F080E2800F8830A1
:103C400010F0011128C08D2D0E94B80B0E94BF0BEF
:103C5000A92DA850BB0B149710F40E947F07AA202F
:103C6000A9F08091270280FD11C0F701128285958D
:103C7000859585950E944B0DC7010E94621A80911F
:103C800027028595859585950E94230D60E0C701E3
:103C90000E94C51436CCD0948091BD03D822D09216
:103CA000BD03D4CF312F3F70D32E107F103219F0C7
:103CB000D29480EFD822002379F0013009F450C06B
:103CC000BB2009F459C0CC2079F1F701858180FF30
:103CD000A5CF8F70858328C0BB2051F1C11004C0CF
:103CE00080912B028D2921C041E0C41213C0809124
:103CF0007C0482FDADCF80912B02D82AD81609F41E
:103D0000A7CF0E94E80690932A0280932902D092BE
:103D10002B029ECF55E0C512E3CF0E94AD0B8091E0
:103D20002402D812D09224028D2D0E948C0D90CFA7
:103D3000C11006C00E94AD0B8D2D0E94850D88CF4D
:103D400081E0C81208C08091BC038D2109F480CFA6
:103D50000E948A0CEFCF95E0C91609F479CFEACF1B
:103D6000BB2029F0A5E0AC1508F472CFDDCFB4E09C
:103D7000BC1508F46DCFE0CFCC20F1F2093309F087
:103D800029C1FFEF27EE33E0F15020403040E1F74A
:103D900000C00000802F0E94960D5ACF812F86957B
:103DA0008695837061F0813009F052CFC80193701D
:103DB000B11002C090E080E00E94530749CFC801D3
:103DC0009370B11002C090E080E00E94690740CF7C
:103DD000802FBB2039F00E9461090E9475080E9463
:103DE000750836CF0E949C08FACF812F837089F521
:103DF000B1102ECF402F429546954770440F440F87
:103E0000802F8F70042E01C0880F0A94EAF7202FAC
:103E1000207104FF07C02FE030E001C0220F4A9557
:103E2000EAF72095169516951370123069F050F444
:103E300030912C02113029F0822B83230E946C0DCB
:103E400007CF832B822BFACF282B80912C0282273D
:103E5000F5CF8695BB2011F0812F8170882309F45E
:103E6000F7CE402F429546954770440F440F802F60
:103E70008F70042E01C0880F0A94EAF7202F20715A
:103E800004FF07C02FE030E001C0220F4A95EAF797
:103E90002095169516951370123069F050F43091F4
:103EA000AF04113029F0822B83230E94140DD0CE51
:103EB000832B822BFACF282B8091AF048227F5CF5A
:103EC0001F70BB2029F0812F0E944B0D802F2DCF1A
:103ED000802F0E94850D812F0E94230DB9CE023FB5
:103EE00009F443C060F4003F11F1013FB1F1BB2080
:103EF00009F46BC0C11092CE812F8F7133C0033F84
:103F0000C9F1043FA1F780912402BB2009F449C004
:103F10000E94B80B8091270287708430B1F50E940F
:103F2000830C812F8F710E94230DA12C91CEBB2079
:103F300079F094E09C1508F48BCE1F7181E090E03D
:103F400001C0880F1A95EAF79091AF048927ADCF89
:103F5000A5E0AC1508F47CCEF0CF812F8F71BB208B
:103F600009F4BACF0E944B0D73CE812F8F71BB2005
:103F7000C9F3B2CF80E0BB2009F497CF1F7181E075
:103F800001C0880F1A95EAF790CFB4E0BC1568F22B
:103F90001F71812F0E944B0D63E0812F0E94560DEF
:103FA000C4CF9091BC03982B9093BC03E4E0EC1534
:103FB00040F40E94830C0E948A0C64E0812F8F7170
:103FC000EDCF81E00E942F0DB0CFC110D7CE812F51
:103FD0008F7182CF8FE39CE90197F1F7D9CE003141
:103FE000FFE51F0709F455CB01312FE5120709F44E
:103FF0005ACB6801E7E5DE1A882309F456CBFFEFB8
:10400000CF16D10409F008F482CB033FFCE51F076B
:1040100009F44CCC08F035CC083D3CE5130709F415
:1040200041CC093D4CE5140709F44CCC073D5CE557
:10403000150709F0B3CB26E241EE61EE2FCC61E02B
:10404000C7010E94C5148C01D70112968C91882358
:10405000A9F0809100018F3F89F050ECC52E53E00C
:10406000D52EB12CA12C9924939480910001082E77
:10407000000C990B8A159B050CF054CAF70182813C
:10408000811177CA00313FE5130709F408CB0131EC
:104090004FE5140709F0ADCF82E002CB06311C4595
:1040A000A9F58091BE0169E2811165E38EE991E095
:1040B0000E94F406F7CC82720C3CECE51E0709F472
:1040C0003BCD08F08CC0063C2CE5120709F420CD4E
:1040D00008F061C0033C4CE5140709F40DCD08F06D
:1040E0004BC0023C8CE5180709F4DFCC0A35BDE56E
:1040F0001B0709F45FCD08F03BCD0115FCE51F0758
:1041000009F448CD0E3D1C4509F451CDF7018681D7
:104110009781009709F452CD0E94250A8C01F7017E
:10412000B280C580C2943FE0C3228091270287708D
:10413000A1F0AB2CBB2091F0812F807F803421F047
:1041400080E2800F883048F082E00E942F0D80913D
:1041500027028770AA24A3948111A12C912E9294F6
:104160002FE09222FBE0F91508F472CDE92DF0E082
:10417000E85BFC4C0C945A32043C9CE5190709F4AA
:10418000C2CC49E559E162E679E1053CACE51A07A4
:1041900009F4B6CCABCF093CBCE51B0709F4C2CC93
:1041A00078F4073CFCE51F0709F4B7CC4DE459E16E
:1041B00061E479E1083C2CE5120709F4A1CC96CF23
:1041C0000A3C3CE5130709F4B2CC0B3C4CE5140760
:1041D00009F08CCF4BE659E16CE779E191CC013DD8
:1041E0005CE5150709F4B8CCA0F40E3C9CE5190772
:1041F00009F4AACC08F4A5CC0F3CBCE51B0709F4D4
:10420000A8CC6EE089E0003DECE51E0709F49ECCE9
:104210006DCF043DFCE51F0709F4A4CC68F4023D12
:104220003CE5130709F49BCC61E088E1033D4CE5D4
:10423000140709F45ECC5ACF053D5CE5150709F477
:1042400094CC0D35100709F4A6C950CFCF93DF9356
:104250008091DF01807FA1F48091DC01882381F0CF
:1042600080912302D091E2016091DA017091DB012B
:10427000A091DD01B091DE01C62FC723D81303C082
:10428000DF91CF91089590E0109711F0CF3F19F48E
:1042900001968770F3CF9C0143E0220F331F4A95AC
:1042A000E1F7F901ED51FE4F41814713F1CF408114
:1042B0004613EECF42814111EBCF438154814A1B1B
:1042C0005B0B483C510520F78091DF018F708061C6
:1042D0008093DF01F901E851FE4F80818F7080618A
:1042E00080838AED91E00E94621ADF91CF910C9455
:1042F000900CAF92BF92CF92DF92EF92FF920F930A
:104300001F93CF93DF93CDB7DEB765970FB6F894C1
:10431000DEBF0FBECDBF8C0185E0F801DE015196F6
:1043200001900D928A95E1F7F801E2806AEDA62EE0
:1043300061E0B62E6091DD017091DE0161157105BD
:1043400009F468C19091DA014091DB01892F84233F
:104350008F3F09F45FC120813181C380D480F09008
:10436000DC01F601E61BF70BFF2009F41DC180916B
:10437000DF01582F507FE83CF10508F0D0C0511103
:1043800081C0FE2C43132BC0921329C06091E00121
:104390007091E101F8014681578164177507F9F4BE
:1043A000E1101DC08F7080618093DF01C5010E9404
:1043B000621A8091DF01F80185838F2D65960FB613
:1043C000F894DEBF0FBECDBFDF91CF911F910F914B
:1043D000FF90EF90DF90CF90BF90AF900895CD28E1
:1043E00029F0822F83238F3F09F02FC180E0F82F1F
:1043F000F170DF2E80FF3CC0809123024091E201EA
:10440000841315C0298B3A8B89899A890E948B1451
:10441000292F22952F702230F8F0243020F59F703C
:10442000F9F0F8019581907FD9F4D12C1FC090E06C
:10443000FC0153E0EE0FFF1F5A95E1F7ED51FE4FDF
:104440005181351306C05081251303C05281E512F6
:104450000FC001968770D4CF9F7011F0882329F385
:10446000805E883010F3C8010E94621AFD2CA5CF2F
:10447000EE2009F4A2CF8091DF0181608093DF01FB
:10448000F12C9BCF43131BC0921319C04091E00144
:104490005091E101F801268137814217530779F4E1
:1044A000E1100DC08583C8010E94621A88E0F801FE
:1044B000AAEDB1E001900D928A95E1F77ECFC80197
:1044C0000E949714882339F1EE2029F18091DF01B1
:1044D0008032A0F02091DA013091DB013A87298700
:1044E0001B86DD86CC868E878091E0019091E1016C
:1044F000988B8F87CE0109960E94621A88E0F80196
:10450000AAEDB1E001900D928A95E1F70E94262173
:10451000FF24F39452CFC8010E94621AF9CF5111BF
:104520000AC08AED91E00E94621A88E0F5011192BA
:104530008A95E9F7A5CF431318C0921316C040918E
:10454000E0015091E101F8012681378142175307BC
:1045500061F4E1100AC08583C8010E94621A88E0F4
:10456000F50111928A95E9F728CFC8010E949714A6
:10457000882389F2EE2079F28091DF01803208F4FD
:10458000BDCF2091DA013091DB013A8329831B8270
:10459000DD82CC828E838091E0019091E101988749
:1045A0008F83CE010196A8CFE83CF105C0F6FE2C22
:1045B000EE2009F4B0CF43131FC092131DC0209109
:1045C000E0013091E101F8018681978128173907D0
:1045D00099F49091DF0190FD69CF907F09F466CF47
:1045E0008091DF018583903F09F45DCF982F907F04
:1045F000905F8F70892B56CFC8010E94971481114C
:104600007DCF8091DF0181608093DF01C8010E942E
:10461000621AD3CEEE2009F47ECFC8010E9497140F
:10462000F82E882309F477CF88E0F801AAEDB1E0ED
:1046300001900D928A95E1F78091DA019091DB016A
:104640000E948B140E942621B8CE81E08E25CFCE09
:10465000CF93DF93CDB7DEB760970FB6F894DEBF88
:104660000FBECDBF29873A874B875C876D877E87D2
:104670008F87988BCE0109960E947921811112C0F3
:1046800088E0FE013996DE01119601900D928A951F
:10469000E1F78C859D85892B29F089859A85892369
:1046A0008F3FA9F5809123029091E20189131CC0EC
:1046B00060960FB6F894DEBF0FBECDBFDF91CF91ED
:1046C000089593E0AA0FBB1F9A95E1F7AD51BE4F35
:1046D00098E0FE01319601900D929A95E1F7809352
:1046E000E2010E94900CDECFB8E08B9FC001112444
:1046F0008D519E4F0E9479218823D1F2809123020F
:1047000090E001968770992780932302CBCFA091E8
:10471000E201B0E0CD010196877099272091230234
:104720002817190671F60E9485151092E201109261
:10473000230288E0EAEDF1E0DF011D928A95E9F7B6
:10474000B1CF0F931F93CF93DF9380911703E09125
:104750001603CCE081111AC0DF91CF911F910F9108
:104760000895D1E0DE0FD09316030E2F10E0EC9FDA
:10477000F0011124E85EFC4F83819481892B29F09C
:104780008081918189238F3F51F4ED2F8091170310
:10479000E81738F31092170310921603DDCFC09F6D
:1047A000D001C19FB00D1124A85EBC4F16968D910B
:1047B0009C911797892B29F418968D919C910196BD
:1047C00051F42081318142815381648175818681D8
:1047D00097810E942823C09FF001C19FF00D1124F2
:1047E000E85EFC4F14821382D0CF1092BB0310926C
:1047F000BA0310921B018091B9038093B8030E9401
:10480000B9070C94A1233F924F925F926F927F92CF
:104810008F929F92AF92BF92CF92DF92EF92FF92D0
:104820000F931F93CF93DF93C091B80397E0892E26
:1048300001E010E02CE0322E3EEF932E442443940E
:104840008091B9038C1315C00E94A123DF91CF91F1
:104850001F910F91FF90EF90DF90CF90BF90AF909E
:104860009F908F907F906F905F904F903F900C94AF
:10487000B907D0E0FE01EE0FFF1FE055FC4F80812D
:104880009181889ED001899EB00D1124A858BC4FFB
:1048900014962C911497211157C050901703E8E1FA
:1048A000F3E030E020E0712C5D01251508F04AC0EE
:1048B000E284F384D501CD90DC906FEF7FEF612C23
:1048C000462D50E0DA01AA0FBB1FAC0DBD1D0D90A7
:1048D000BC91A02D109731F0EA16FB0609F4BA013D
:1048E0006394EECF6F3F7607A1F1D80102C0AA0F03
:1048F000BB1F6A95E2F77A2AB80102C0660F771FDC
:104900006A94E2F7AB014150510974161506F9F4A7
:10491000329EF001339EF00D1124E85EFC4F889E1C
:10492000D001899EB00D1124A858BC4F12962D912C
:104930003C91139737832683908291829187808759
:1049400015964C920E948B072196C37079CF1482E2
:1049500013822F5F3F4F3C96A8CF2F923F924F92EA
:104960005F926F927F928F929F92AF92BF92CF92FF
:10497000DF92EF92FF920F931F93CF93DF93CDB708
:10498000DEB769970FB6F894DEBF0FBECDBF498B77
:104990005A8B6B8B7C8B8D8B61111092BD031D86A6
:1049A0001E861F86188A85E0FE017196DE01199623
:1049B00001900D928A95E1F70E94E8062091250268
:1049C00030912602821B930B8838934120F080910E
:1049D000270282FFFEC10E94E80620912902309141
:1049E0002A02821B930B8838934110F00E94AD0B72
:1049F0008C859D85892B31F089859A8589238F3F08
:104A000009F0D3C129853A854B855C856D857E8506
:104A10008F8598890E942823C2C048EFC4164CE5B0
:104A2000D40629F4882379F00E94F523EBCF69EFAF
:104A3000C6166CE5D60639F4882329F080911B014F
:104A40008111F2CFC2C108E713E0E12CB12CA12CF7
:104A500088248394912C2EEF522E44244394F80101
:104A60004081518166246A94762C20E0822F90E068
:104A7000FC01EE0FFF1FE40FF51F608171816115CE
:104A8000710531F0C616D70609F43C012F5FEECF51
:104A9000F12CFFEF6F167F0609F443C0F801448143
:104AA000F0901B018F2D411180E0F82FF170FF2E47
:104AB000F801258086819B85992309F406C1FF2092
:104AC00009F403C1211013C0A40101C0440F6A946A
:104AD000EAF7842B86838091140390911503C29783
:104AE00030F462E370E07093150360931403C40123
:104AF00002C0880F991F2A95E2F70197F8012681D5
:104B00002817190671F48091BA039091BB0300979E
:104B100009F45EC00E94D906C39708F459C0F80191
:104B20004482EF28FFEFAF1ABF0A095F1F4F28E04A
:104B3000A216B10409F093CF8B85882309F420C114
:104B4000EE2009F41DC10E94E8069093BB038093F8
:104B5000BA0380911703883010F591E0980F909375
:104B6000170398E0FE013996DE01119601900D922F
:104B70009A95E1F73CE0839FC0011124885E9C4F29
:104B800028E0FE013196DC0101900D922A95E1F7B3
:104B90002FEF3FEFFC0131872087D386C2866996CD
:104BA0000FB6F894DEBF0FBECDBFDF91CF911F913E
:104BB0000F91FF90EF90DF90CF90BF90AF909F90BC
:104BC0008F907F906F905F904F903F902F900895BF
:104BD0008091B8035091B903982FF0E0E0E085137D
:104BE00014C09093B8030E171F0709F49ACF90E0F2
:104BF000FC01EE0FFF1FE055FC4FB182A082019631
:104C0000837099278093B9038CCF282E312CF10122
:104C1000EE0FFF1FE055FC4F20813181F7E0F29F3E
:104C2000D001F39FB00D1124A858BC4F2D913C9199
:104C30001197398F288F40E020E030E0E32FF0E03B
:104C4000EE0FFF1F688D798DE60FF71F6080718072
:104C500061147104E1F0F8010190F081E02DFF8B07
:104C6000EE8B20E005C06616770609F44F2D2F5F06
:104C7000E22FF0E0EE0FFF1F6E897F89E60FF71F2E
:104C8000608171816115710571F73F5FD7CF442352
:104C9000C9F0F801231708F0FD014482E017F1077D
:104CA00021F49093B803F42E3CCF981305C0EA1773
:104CB000FB0711F49F5F937091012F5F3F4F822F8D
:104CC00083708DCFF0E0E0E0F7CF90E021101FC0BF
:104CD000B40102C0660F771F2A95E2F79B012150AD
:104CE00031098217930731F4442309F447C0C50101
:104CF0000E948B07C40101C0880F6A94EAF7982FBD
:104D00009095F801868189238683F22C0ACF9C0135
:104D1000062C02C0359527950A94E2F7A901417047
:104D20005527BC016150710986239723892B11F502
:104D3000452B01F1F80182819381892BC1F01B82FF
:104D40001C821D821E8259825A820E94E80681605E
:104D5000582F9D838C83F801828193818F8398875C
:104D600029813A814B816D817E810E942823F8013F
:104D70001582C0CFF22FF1702F2EBCCF2F2CBACFBF
:104D80009091B8038091B903981731F00E940324E1
:104D9000EE2009F437CE03CF0E94A1231092BB036B
:104DA0001092BA030E94B907F3CF61E0CE010996D1
:104DB0000E94C5146C018B85F7EFCF16FCE5DF066A
:104DC00009F02BCE882309F43ECE81E080931B01AD
:104DD00019CE82E00E942F0DFECD0F931F93CF932B
:104DE000DF9300D000D00F92CDB7DEB78C01909347
:104DF000110380931003011580E2180720F5802F1E
:104E00000E94960DC8010E943E0E9801205E310955
:104E10002830310510F0012B59F40F900F900F90AE
:104E20000F900F90DF91CF911F910F910C94850DF2
:104E30000F900F900F900F900F90DF91CF911F91D7
:104E40000F910C94700D8EEF89838A831B820E94D0
:104E5000E8068160782F9D838C8349815A816B811C
:104E60008D810F900F900F900F900F90DF91CF9149
:104E70001F910F910C94AD240F931F93CF93DF9349
:104E80008C01EB0166EB72E08C2F0E94A713892B3B
:104E9000A1F48FE39CE90197F1F700C00000DD2742
:104EA000C255DD4F8881F80110821882833009F1E4
:104EB00048F4813059F0823081F0DF91CF911F9119
:104EC0000F9108958430D1F08530B9F78091B60202
:104ED0009091B702009789F306C08091B802909133
:104EE000B902009799F3DF91CF911F910F910C9424
:104EF000ED268091BA029091BB02F3CF8091BC0263
:104F00009091BD02009779F72091B6023091B702D7
:104F10008091B8029091B90221153105D9F200971C
:104F200011F7C901E0CF0F931F93CF93DF9300D008
:104F300000D00F92CDB7DEB78C0190931103809310
:104F40001003011580E21807E8F4C8010E943E0E24
:104F50009801205E31092830310518F0011511053E
:104F600071F40E948C0D802F0F900F900F900F9076
:104F70000F90DF91CF911F910F910C94C80D0E945B
:104F80007B0DF1CF8EEF89838A8381E08B830E9432
:104F9000E8068160782F9D838C8349815A816B81DB
:104FA0008D810F900F900F900F900F90DF91CF9108
:104FB0001F910F910C94AD24CF93DF93EC010E94CD
:104FC00093278FE39CE90197F1F700C00000CE0121
:104FD000DF91CF910C94ED260F931F93CF93DF9326
:104FE0008C01862F66EB72E00E94A713892BC9F40F
:104FF000C091B602D091B702209799F0F801808154
:10500000833069F4CE010E94DC27CE010E94DC27A8
:10501000CE01DF91CF911F910F910C94DC2784304A
:10502000B8F7DF91CF911F910F9108950F931F93C0
:10503000CF93DF938C01EB0166EB72E08C2F0E9423
:10504000A713892B09F064C0FE01FF27D8018C91BA
:10505000E255FD4F8130D9F419969C911997992307
:1050600011F080830CC01A969C919923D1F382E0B1
:1050700080838091B8029091B9020097D9F4809111
:10508000B6029091B702009709F442C013C0823073
:10509000E9F519968C91199781112DC01A968C916A
:1050A00081110EC083E080838091BA029091BB028F
:1050B000009719F1DF91CF911F910F910C949327D5
:1050C00084E080838091BC029091BD02009791F7AB
:1050D0008091B6029091B7020097F9F00E94DC2708
:1050E0008091B8029091B902009721F78091B602A1
:1050F0009091B702DFCF85E080838091B6029091D6
:10510000B702009729F00E94DC27F0CF86E0808369
:10511000DF91CF911F910F9108958091B8029091E6
:10512000B902B1CF9F92AF92BF92CF92DF92EF922E
:10513000FF920F931F93CF93DF93CDB7DEB72A97DC
:105140000FB6F894DEBF0FBECDBF8E010F5F1F4FAD
:105150008AE0F80111928A95E9F796E5C92E91E067
:10516000D92EF12CE12CAA24A394B12CF601819123
:105170006F018F3F09F449C0F894E82FE295EF7072
:10518000F0E021A18F70A50102C0440F551F8A9540
:10519000E2F7CA01922F982B91A392A180958923BF
:1051A00082A3789400C0E0E6F1E030E020E0912CAA
:1051B00041914F3F09F465C0A42FA295AF70B0E0B4
:1051C00090968C9190E04F7002C0959587954A9586
:1051D000E2F780FD56C08A2D022E01C0880F0A9486
:1051E000EAF7982A2F5F3F4F2730310509F7F6017C
:1051F000319780818F3F11F00E94CB0950EA5A9578
:10520000F1F7F801EE0DFF1D90828FEFE81AF80A12
:10521000EAE0EE16F10409F0A9CF4AE050E0B80147
:1052200080E392E00E94BA32DD24D394009709F41F
:10523000D12C892B41F18AE0F801A0E3B2E0019082
:105240000D928A95E1F781E080932F020E94E80693
:1052500090932E0280932D0280912D0290912E0228
:105260000E94D906059798F0E0E3F2E0ABE4B2E0E3
:1052700081918D9342E0EA33F407D1F710922F0227
:1052800006C080E0AECF80912F028111E5CF8091E2
:10529000000110E006E18F3F09F045C080911B013D
:1052A00081114CC08D2D2A960FB6F894DEBF0FBE2B
:1052B000CDBFDF91CF911F910F91FF90EF90DF90C5
:1052C000CF90BF90AF909F900895029FF001039FF1
:1052D000F00D1124E054FC4FE288F388E114F1044E
:1052E00019F488ECE82EF12C029FF001039FF00DD9
:1052F0001124E054FC4F86818823A1F08585968592
:105300000E94D906E816F90668F4109F700111246E
:10531000C70180549C4F0E945F0CC7018A539C4F69
:105320000E94150C1F5F212F30E080910001082E94
:10533000000C990B8217930744F6B0CF8091BA0303
:105340009091BB03009709F4ADCF0E94D90620913C
:105350001403309115032817390708F0A3CF909153
:10536000B8038091B903981759F00E940324109252
:105370001503109214031092BB031092BA0392CF3C
:105380000E94A1231092BB031092BA030E94B90796
:1053900089CF90E080E00E94EC328A3E9E4F11F46B
:1053A0000C94051580E008951F920F920FB60F928E
:1053B00011242F933F934F935F936F937F938F931A
:1053C0009F93AF93BF93CF93DF93EF93FF93D091CE
:1053D000E900DF708091EC00C82FC17080FDC0E84B
:1053E0001092E9008091F000877F8093F00078941C
:1053F0000E949A151092E9008091F00088608093D5
:10540000F000CD2BCF70C093E900FF91EF91DF91B9
:10541000CF91BF91AF919F918F917F916F915F914C
:105420004F913F912F910F900FBE0F901F901895A5
:105430001F920F920FB60F9211242F933F934F9309
:105440005F936F937F938F939F93AF93BF93EF93EC
:10545000FF938091E10082FF09C08091E20082FF0A
:1054600005C08091E1008B7F8093E1008091DA009C
:1054700080FF24C08091D80080FF20C08091DA0096
:105480008E7F8093DA008091D90080FF9BC080E1FD
:1054900089BD82E189BD09B400FEFDCF81E0809322
:1054A000A50480918004811109C00E943B050E94DF
:1054B00006068091E20084608093E2008091E10022
:1054C00080FF17C08091E20080FF13C08091E2004E
:1054D0008E7F8093E2008091E20080618093E20001
:1054E0008091D80080628093D80019BC85E08093B9
:1054F000A5048091E10084FF29C08091E20084FF2F
:1055000025C080E189BD82E189BD89B5982F917060
:1055100080FFFBCF8091D8008F7D8093D800809151
:10552000E1008F7E8093E1008091E2008F7E809386
:10553000E2008091E20081608093E2008091A60405
:10554000882309F445C084E08093A5048091E1009C
:1055500083FF27C08091E20083FF23C08091E10098
:10556000877F8093E10082E08093A5041092A604D7
:105570008091E1008E7F8093E1008091E2008E7F38
:105580008093E2008091E20080618093E20042E03B
:1055900060E080E00E94D4058091F00088608093F4
:1055A000F000FF91EF91BF91AF919F918F917F910B
:1055B0006F915F914F913F912F910F900FBE0F9080
:1055C0001F90189519BC1092A5041092800476CFF4
:1055D0008091E30087FD93E09093A504B7CF789482
:1055E0001F921FB61F9211248F939F93AF93BF9367
:1055F0008091770490917804A0917904B0917A0415
:105600000196A11DB11D8093770490937804A09317
:105610007904B0937A04BF91AF919F918F911F90BD
:105620001FBE1F9018951F921FB61F9211248F93B3
:105630009F93AF93BF9380917604811113C08091A3
:10564000770490917804A0917904B0917A044196FE
:10565000A11DB11D8093770490937804A0937904E1
:10566000B0937A04BF91AF919F918F911F901FBE0D
:105670001F901895CDB7DEB7E4970FB6F894DEBF4C
:105680000FBECDBF84B7877F84BF0FB6F894A895AF
:1056900080916000886180936000109260000FBE6E
:1056A00080E890E00FB6F8948093610090936100D9
:1056B0000FBE85B7806885BF85B7806885BF89ECD8
:1056C00099E090939D0180939C010E94BB130E94DE
:1056D0002C150E943B050E9406068091E200846022
:1056E0008093E20078948091A5048823A1F0109122
:1056F000E9001F709091EC00892F817090FD80E887
:10570000182B1092E9008091E80083FD0E949A1501
:105710001F701093E90082E084BD93E095BD9AEF7D
:1057200097BD80936E000E940515811102C00E94F2
:10573000981306E511E0A0E6EA2EA1E0FA2ED801C2
:105740008D918D018F3F11F00E94CB09E016F1067B
:10575000B1F700E611E0F80181918F018F3F11F060
:105760000E94CB09F1E007361F07A9F7E0E3F2E05A
:105770008AE392E0ABE4B2E011921D928E179F078C
:10578000D9F70E94C929811102C00E94F81982E04C
:1057900090E00E94DE3280933E020E941E1590939C
:1057A0007C0480937B040E9492282FEF36E741E02F
:1057B000215030404040E1F700C000000E94922894
:1057C00080914B0280FF08C06FEF7FEF90E080E098
:1057D0000E9410330E94C80683E090E00E94DE32EF
:1057E0000E946C0D80913A02811133C00E94C92938
:1057F000811104C00E94F8190E94E91988E090E024
:105800000E94E6326093A9027093AA028093AB02D1
:105810009093AC026E7F71F40E94E91988E090E0E9
:105820000E94E6326093A9027093AA028093AB02B1
:105830009093AC020E94D007109269028091A90255
:1058400080FF04C060E086950E948D1981E08093FE
:105850003A0281E091E0909373048093720478E1BE
:10586000672E712CE0E45E2EF5E5AF2EF2E0BF2E40
:105870008E010F5F1F4F8091A504DD24D39450E16A
:10588000E52E62E1F62E853009F4DAC10E949228F5
:10589000882359F08FB7F894409177045091780499
:1058A0006091790470917A048FBFEFE3F2E0ABE48A
:1058B000B2E0F12CE12C3E2D8D919191981709F4D5
:1058C000DFC1292F282790E0DD24D394422F4D21DA
:1058D00009F4D1C19BA73CA78D2191E009F490E088
:1058E0009DA70E94E8068160782F9FA78EA74BA5F1
:1058F0005CA56DA58FA50E94AD24F701E15CFD4F6D
:105900008081D826D082809169028823D1F180914C
:105910006802E091A902E695E81BE09364028230F8
:1059200009F0C7C1F0E0E857FD4FE491EE2EF12CED
:1059300049E5C42E41E1D42E80916502882361F0AF
:10594000109265020E94E8069093630280936202BF
:1059500010926702109266020E94E806E0916202CD
:10596000F09163028E1B9F0B8F3F9F4750F4EE0D0B
:10597000FF1DF0936302E093620282E692E0F6017B
:10598000099586E0ECE5F2E0D80101900D928A9548
:10599000E1F7D0905E02C0905F02F0906002E0906C
:1059A000610210925E0210925F02109260021092E9
:1059B00061028D2D8C2909F448C080915A02909182
:1059C0005B020E94D9069C0190915602992309F42A
:1059D00014C523333105C8F19F3F19F09F5F9093A1
:1059E0005602DD2059F00E9441099FEF1D140CF46E
:1059F00091E0899F802D112480935E02CC2059F084
:105A00000E9441099FEF1C140CF491E0899F802DA6
:105A1000112480935F0230915E023323B1F0209114
:105A20005F02222391F045EB3403C0011124992336
:105A300009F49EC190935E0245EB2403900111246A
:105A4000332309F499C130935F028F2D8E2909F415
:105A500048C080915802909159020E94D9069C0139
:105A600090915502992309F4C3C425363105C8F134
:105A70009F3F19F09F5F90935502FF2059F00E94BD
:105A80001F099FEF1F140CF491E0899F802D1124B2
:105A900080936002EE2059F00E941F099FEF1E14B0
:105AA0000CF491E0899F802D112480936102309144
:105AB00060023323B1F020916102222391F045EB83
:105AC0003403C0011124992309F45AC19093600250
:105AD00045EB240390011124332309F455C130937D
