:100000000C945F030C94A6030C94A6030C94A60313
:100010000C94A6030C94A6030C94A6030C94A603BC
:100020000C94A6030C94A6030C9423290C94DF28AB
:100030000C941B2A0C94A6030C94A6030C94A60300
:100040000C94A6030C94A6030C94A6030C94A6038C
:100050000C94A6030C94F7290C94A6030C94A60305
:100060000C94A6030C94A6030C94A6030C94A6036C
:100070000C94A6030C94A6030C94A6030C94A6035C
:100080000C94A6030C94A6030C94A6030C94A6034C
:100090000C94A6030C94A6030C94A6030C94A6033C
:1000A0000C94A6030C94A6030C94A6030501090264
:1000B000A10185020901A100050919012905150001
:1000C00025019505750181029501750381010501E1
:1000D000093009311581257F950275088106093897
:1000E0001581257F950175088106050C0A380215D2
:1000F00081257F950175088106C0C005010980A191
:1001000001850319012AB700150126B7009501756D
:10011000108100C0050C0901A101850419012AA064
:1001200002150126A002950175108100C005010984
:1001300006A1018505050719E029E71500250195A8
:1001400008750181020507190029EF1500250195A1
:10015000F0750181020508190129059505750191C0
:1001600002950175039101C00660FF0961A10109B3
:1001700062150026FF0095207508810209631500AD
:1001800026FF00952075089102C005010906A1010E
:10019000050719E029E71500250195087501810279
:1001A0009501750881010507190029FF150026FF33
:1001B0000095067508810005081901290595057542
:1001C000019102950175039101C00000000000003B
:1001D000000000000000000000000000000000001F
:1001E00000000000000000000000000000007E0F82
:1001F00000D4FFFFFFC700000078000000000000EF
:1002000000002A2B28000000000000000000000071
:10021000000000000029000000002C1E34202122D4
:1002200024342627252E362D3738271E1F2021223D
:10023000232425263333362E37381F0405060708B6
:10024000090A0B0C0D0E0F101112131415161718A6
:10025000191A1B1C1D2F3130232D350405060708E4
:10026000090A0B0C0D0E0F10111213141516171886
:10027000191A1B1C1D2F3130354C00047F3F1F64A1
:100280003214643214783C1E1E140A05FD377A5865
:100290005A000004E6D6B446020021011600000010
:1002A000742FE5A3E0020B00ED5D003D8889C65484
:1002B00036C3174FE4E292AA943498A008108CB683
:1002C0002A8284695FD4EAEE9D743EFF7AB182751A
:1002D0003459CE38E98E7DB83442DBEEEB05BD3FB4
:1002E00059D98D43BC6F6BDB8B50DDE2EE0C763958
:1002F0008F5C1D3970A6477C16BF20F5579D89C0BD
:100300005F98A5BA135F69D09643A3162EBFC52A7E
:100310005644DCF33A8E09F43EBC5AC1A58B99EAE7
:1003200035E85B2D66DE27D0AE61ABBD1F31D6BB95
:1003300068FDECB6FB22A147712851331F47528A52
:10034000425CB6293A56ECECF0B3C96CE56223DBAB
:1003500050E578AD1777890CE4CC8E799CF9BA60BA
:100360003050DBE4F0BF527C97DC7B0F48A612379D
:10037000EAE8C4780AC60337C09D3DC088E7C11AC1
:1003800025DAA507DEA8921B3DED9E19CD2D028E24
:10039000359ECE7D24D0C60000000000573E5E2171
:1003A0001E91C47E000189028C040000F263AC201F
:1003B000B1C467FB020000000004595A00010101AA
:1003C0000101010101010202020202020202020312
:1003D00003030303030303040404040404040505E2
:1003E00005050506060606060707070707080808A5
:1003F00008090909090A0A0A0B0B0B0C0C0C0D0D54
:100400000D0E0E0E0F0F0F101011111112121313EB
:100410001414151516161717181819191A1A1B1B64
:100420001C1D1D1E1E1F20202122222324242526C0
:1004300026272829292A2B2C2D2D2E2F30313232F8
:10044000333435363738393A3B3C3D3E3F40414204
:10045000434445464748494A4C4D4E4F50515354EA
:10046000555658595A5B5D5E5F616264656668699E
:100470006B6C6D6F7072737577787A7B7D7E80821E
:10048000838587888A8C8E8F91939596989A9C9E67
:10049000A0A2A3A5A7A9ABADAFB1B3B5B7BABCBE77
:1004A000C0C2C4C6C9CBCDCFD1D4D6D8DBDDDFE244
:1004B000E4E7E9EBEEF0F3F5F8FAFDFFFFAA7F556C
:1004C000402223252628292A2C2D2F303233353659
:1004D000383A3B3D3E4042434547494A4C4E5051D5
:1004E000535557595A5C5E6062646668696B6D6FFC
:1004F00071737577797B7D7F81838587898A8C8EFF
:1005000090929496989A9C9E9FA1A3A5A7A8AAAC06
:10051000AEAFB1B3B4B6B8B9BBBCBEBFC1C2C3C540
:10052000C6C7C9CACBCCCDCED0D1D2D2D3D4D5D6E2
:10053000D7D7D8D9D9DADADBDBDBDCDCDCDCDCDD15
:10054000DDDDDDDCDCDCDCDCDBDBDBDADAD9D9D8F9
:10055000D7D7D6D5D4D3D2D2D1D0CECDCCCBCAC991
:10056000C7C6C5C3C2C1BFBEBCBBB9B8B6B4B3B1C0
:10057000AFAEACAAA8A7A5A3A19F9E9C9A9896945B
:1005800092908E8C8A89878583817F7D7B79777530
:1005900073716F6D6B6968666462605E5C5A59570F
:1005A000555351504E4C4A4947454342403E3D3BCE
:1005B0003A3836353332302F2D2C2A292826252358
:1005C0002214001A00080015001700040016000786
:1005D0000009000A00010001000100010001000102
:1005E0000001000100010001000100010001000103
:1005F00000010001000100010001000100010001F3
:1006000000010001000100010001000100010001E2
:100610000009025B00030100A0FA090400000103C5
:100620000101000921110100012240000705810399
:1006300008000A0904010002030000000921110159
:1006400000012222000705820320000107050303A1
:10065000200001090402000103000000092111012A
:10066000000122BC000705840320000A12010002D9
:10067000000000082762644D0100010203011C0311
:100680007600690061006C003A00660036003400B4
:100690006300320062003300630000000A034D0073
:1006A0002D003600340000001003670072006C005B
:1006B000640074006D006B00000004030904112441
:1006C0001FBECFEFDAE0DEBFCDBF04B603FE27C00A
:1006D0008091720490917304A0917404B091750498
:1006E0008730904BA740B04BD1F410927204109217
:1006F0007304109274041092750414BE84B7877F3B
:1007000084BF0FB6F894A8958091600088618093AB
:100710006000109260000FBEE0E0F8E3099511E080
:10072000A0E0B1E0E0E9F6E602C005900D92A63A3D
:10073000B107D9F724E0A6EAB1E001C01D92A237C3
:10074000B207E1F70E94422A0C9414330C94000083
:10075000E8EDF0E080818E7F80831092E2001092BD
:10076000DA001092E100A0EEB0E08C9181608C93F1
:1007700080818F77808319BCA7EDB0E08C918E7F4C
:100780008C9380818F7E808310923F040895209106
:10079000E4003091E50095E6A9012091EC00822F5C
:1007A000817020FF06C08091E80080FF06C080E0D5
:1007B00008952091E80022FD1AC0809164048823E6
:1007C00089F0853089F08091EB0085FD0FC0209184
:1007D000E4003091E50042175307F9F29150E1F639
:1007E00084E0089582E0089583E0089581E008950B
:1007F000EF92FF920F931F93CF937C018B010E9486
:10080000C703C82F811117C08091E80085FD0BC078
:100810008091E8008E778093E8000E94C7038823C8
:1008200099F3C82F08C0F70181917F018093F100EF
:100830000150110949F78C2FCF911F910F91FF9013
:10084000EF9008958091660487FF13C08091E800BF
:1008500082FF06C08091E8008B778093E80004C097
:10086000809164048111F2CF0895809164048823FB
:10087000D9F38091E80080FFF8CF8091E8008E776F
:10088000ECCF982F9093E900242F762F50E0891712
:1008900031F07091EC002091ED005091F00021FDBD
:1008A00007C09F5F973071F78093E90081E008955A
:1008B0003091EB003E7F3093EB003091ED003D7FB7
:1008C0003093ED003091EB0031603093EB0070938A
:1008D000EC002093ED005093F0002091EE0027FDF6
:1008E000E0CF80E00895CF92DF92EF92FF920F93D6
:1008F0001F93CF93DF93C8EDD0E088818F7E8883EC
:10090000E7EDF0E080818160808384E082BF81E058
:1009100080933F0488818E7F888302EE10E0F80187
:1009200010821092DA0081EEC82ED12CF6011082CE
:1009300088818F77888388818068888388818F7D8C
:10094000888319BC109264041092650410926304A9
:100950001092620490EEE92EF12CF70180818B7FDA
:10096000808388818160888342E060E080E00E942B
:100970004104F60180818E7F8083F801808181604F
:100980008083808188608083F70180818E7F80836F
:10099000888180618883DF91CF911F910F91FF90B3
:1009A000EF90DF90CF900895FC0180916C049091BE
:1009B0006D0486179707A0F06115710529F49091D1
:1009C000E8009E779093E80090E06115710551F47E
:1009D000911108C08091E80082FF34C080E0089542
:1009E000BC01F2CF809164048823C1F18530C1F14C
:1009F0008091E80083FD30C08091E80082FDEACF5D
:100A00008091E80080FFE1CF8091F3002091F20017
:100A1000382F6115710519F02830310558F091E033
:100A20002830310509F090E02091E8002E772093DE
:100A3000E800CBCF81918093F100615071092F5F65
:100A40003F4FE7CF80916404882341F0853041F027
:100A50008091E80083FFBECF81E0089582E0089591
:100A600083E0089580914104089587E797E7909384
:100A700001088093000888E19AE00FB6F894A895E1
:100A8000809360000FBE90936000FFCF9C014FB732
:100A9000F8948091360490913704A0913804B09175
:100AA00039044FBF821B930B08952FB7F8948091A0
:100AB000360490913704A0913804B09139042FBFC7
:100AC000089520911C012223C9F020913A0427FFA8
:100AD00015C0E62FE695E695E695EE31D8F4E80FD9
:100AE000F92FF11D677021E030E001C0220F6A95F7
:100AF000EAF720958281282322830895FC0132960B
:100B000008962191621303C0DF0111971C92E81728
:100B1000F907B9F7089520911C012223C1F0209113
:100B20003A0427FF14C0E62FE695E695E695EE31E8
:100B3000F8F4E80FF92FF11D677021E030E001C0F3
:100B4000220F6A95EAF78281822B82830895FC0145
:100B500032962FEF30E04191641751F02F3F19F496
:100B6000411101C0232F3F5F3630A9F72F3F09F411
:100B70000895820F911D27FD9A95FC0162830895C7
:100B800020913304309134042817390771F0909381
:100B9000340480933304E0913104F09132043097AF
:100BA00021F00084F185E02D0994089520912F040F
:100BB000309130042817390771F0909330048093F6
:100BC0002F04E0913104F0913204309721F0068037
:100BD000F781E02D09940895E0913104F0913204F9
:100BE000309721F00190F081E02D099480E0089584
:100BF000DC016091770380917803962F891301C0FF
:100C00000895292F30E0F901EE0FFF1FE159FC4F45
:100C1000408151814A175B07A1F487E08A9FA001B8
:100C20008B9F500D1124495C5C4F81E0FA01848355
:100C30009613E6CF2F5F3F4F237033272093770320
:100C400008952F5F3F4F922F9370D8CF1092D40208
:100C50001092D302E7E3F3E08581811102C0148290
:100C60001682379683E0EF36F807B1F70895FA0158
:100C7000811101C0FB010994089580916702982FAA
:100C80009E7F29F4817082608093670208958A3480
:100C9000E8F381708864F8CFAF92BF92DF92EF9251
:100CA000FF920F931F93CF93DF93082F162FE90125
:100CB000E42FF0E0E454FC4F611110C0E4915E2F8A
:100CC0004E2F4983E8835A83DF91CF911F910F9173
:100CD000FF90EF90DF90BF90AF900895E62EF12C3B
:100CE0004491D42EE42FF0E026E0829FC00111242D
:100CF0002FEF30E0B9010E940232802F90E0880F80
:100D0000991F55E5569FD001579FB00D11248A1B9E
:100D10009B0B982F990F890F5901AE18BF08AE9EF3
:100D2000D001AF9EB00DBE9EB00D11245B2F189F59
:100D300080011124012F11275901A01AB10AAE9E7A
:100D40008001AF9E100DBE9E100D11245901A81AEE
:100D5000B108AE9CC001AF9C900DBE9C900D1124BB
:100D6000892F9927281B390B2E9FC0012F9F900D8B
:100D70003E9F900D1124E92F62307105A1F050F4CF
:100D80006115710509F49DCF6130710581F0EB2F7C
:100D9000512F97CF6430710569F080F0663071058E
:100DA00009F48FCFF4CFE42F4B2F592F8ACFE42FA4
:100DB000412F87CFEB2F542F492F83CF4B2F5D2D02
:100DC000E12F7FCF0E9455059C01909140028091B8
:100DD0004102982B21F030933D0220933C029091E8
:100DE000420280914302982B21F030933B022093E2
:100DF0003A02E0913104F0913204309749F082E0F8
:100E000080933E020480F581E02D8EE392E0099408
:100E1000089590914002803F59F48091410287FFEC
:100E20000DC01092410291110BC01092380208C0FF
:100E3000813F81F48091410218169CF3992381F03F
:100E40008091420290914302892B09F064C0109274
:100E500037020895823F49F497FFF0CF1092400285
:100E6000809141028111ECCFE0CF833F19F4191634
:100E7000ACF3E4CF20914202893F29F41216F4F634
:100E800010924202DBCF8A3F19F427FFD7CFF8CF69
:100E9000209143028B3F29F427FFD0CF10924302C9
:100EA000CDCF8C3F19F41216CCF3C8CF843F31F468
:100EB00080913F028E7F80933F02C0CF853F21F417
:100EC00080913F028D7FF7CF863F21F480913F02D2
:100ED0008B7FF1CF873F21F480913F02877FEBCF5B
:100EE000883F21F480913F028F7EE5CF8D3F31F422
:100EF000809139028E7F80933902A0CF8E3F21F4FA
:100F0000809139028D7FF7CF8F3F09F097CF809185
:100F100039028B7FF0CF08958091390280FD16C091
:100F200081FD16C082FD16C0809137028823A1F092
:100F3000883280F428E0829FC001112468E270E0CA
:100F40000E941632862F672B39F0089582E00895AB
:100F500084E0089588E0089581E008958091390241
:100F600080FD14C081FD14C082FD16C0809138023E
:100F7000882381F0843180F422E3829FC001112410
:100F800064E170E00E941632862F08958CE0089587
:100F900089E1089585E0089582E30895803F31F462
:100FA0000E94AE078195809341020895813F19F414
:100FB0000E94AE07F8CF823F31F40E94AE078195C0
:100FC000809340020895833F19F40E94AE07F8CF42
:100FD000893F29F40E948C078093420208958A3F3A
:100FE00021F40E948C078195F7CF8B3F31F40E944A
:100FF0008C0781958093430208958C3F19F40E94D9
:101000008C07F8CF843F31F480913F028160809358
:101010003F020895853F21F480913F028260F7CF1F
:10102000863F21F480913F028460F1CF873F21F415
:1010300080913F028860EBCF883F21F480913F028E
:101040008061E5CF8D3F31F48091390281608093DA
:10105000390208958E3F21F4809139028260F7CFE2
:101060008F3FB9F7809139028460F1CF80E0089515
:10107000F894E82FE295EF70F0E031A1282F2F705F
:1010800081E090E001C0880F2A95EAF7982F9095AB
:10109000932391A392A1892B82A378940895909190
:1010A0003A0492FF06C0282F28712830F9F4877F70
:1010B000846093FF06C0282F28712831F1F4877EC1
:1010C000846120913B0420FF06C0382F38713830EE
:1010D000D9F4877F816021FF06C0282F287128312D
:1010E000D1F4877E816194FD877E0895282F247135
:1010F0002430F9F68B7F8860DCCF282F24712431CF
:1011000001F78B7E8861DDCF382F3171313019F7CF
:101110008E7F8860E0CF282F2171213121F78E7ECC
:101120008861E1CFCF93DF93EC0182389105A9F17B
:10113000D8F58133910509F496C048F589329105B7
:1011400009F48AC08A9709F495C0C11521E5D20730
:1011500008F0BCC0C11530E5D30708F014C1C83E83
:10116000D10508F09CC0C03ED10560F5C83AD10554
:1011700008F087C0C53AD10508F0FDC0C130D105DF
:1011800009F12097F9F0C430D105E0F440C085336F
:10119000910509F45AC0C997C1F680913A04837049
:1011A00089F0C0EED0E00EC0833E910599F170F455
:1011B000803E910501F1823E910539F680913A0415
:1011C00082FD21C0CE01DF91CF910895863E910529
:1011D00061F1873E910571F1843E910509F0B5CF2B
:1011E00080913B0481FFEECF80913A04C7EED0E0BE
:1011F00084FD0DC0E7CF80913A0480FD12C190912B
:101200003B0490FFDFCFC3EED0E084FFDBCFD0E024
:10121000C0E0D8CF80913A0482FD06C190913B0492
:1012200090FDBFCF84FFCECFF2CF80913A0483FDF3
:10123000DDCFC8CF80913A0483FDF9C090913B0483
:1012400091FFF0CFC4EED0E0BDCF80913A0485FF8E
:10125000B9CFC9E2D0E0B6CF80913A0485FFB2CFD2
:10126000C5E3D0E0AFCF80913A0486FFABCFCAE2AE
:10127000D0E0A8CF80913A0486FFA4CFC1E3D0E0AC
:10128000A1CFCF3BD10518F6C85AD0E0CC0FDD1F57
:10129000C85DDE4F0990D881C02DD46493CFC115AD
:1012A00040E2D40758F4C11581E0D80708F08ACF8E
:1012B000C03FD10508F4ABCFD06584CFC11590E411
:1012C000D90708F4A4CFDF70D06A7CCFC11525E51B
:1012D000D20700F5C11534E5D30708F08AC0C1155F
:1012E00043E5D40708F071C0C11582E5D80708F4BA
:1012F00067C0CE018370992721E030E002C0220F41
:10130000331F8A95E2F7C695C69580E2C89FE00133
:10131000112452C0C11599E5D907A8F4C11528E5D3
:10132000D20708F06BC0C11536E5D30708F06FCFC0
:101330008C2F0E944F08C82FD0E0DC2FCC27CC2761
:10134000DF71D0623FCFC1154AE5D40708F45BC016
:10135000CE0190568115904208F059CF8D2F8F7194
:101360000E944F0890E0982F882788279F719C0142
:101370002C2BE901E6CFC55AD0E0CB5DDE4FC8810A
:10138000D0E0D0641FCFCE01E4E096958795EA9532
:10139000E1F783702C2F26952695237040E2249F39
:1013A00090011124382B8C2F8370C1E0D0E002C053
:1013B000CC0FDD1F8A95E2F7C22BD32BDC6802CF5E
:1013C000DC2FCC27C16FD06AFDCECE018370992768
:1013D00021E030E002C0220F331F8A95E2F7C69564
:1013E000C69590E2C99FE0011124C22BD32BDA6885
:1013F000E9CEDC2FCC27C46FD06AE4CEDC2FCC271B
:10140000C06FD06ADFCE8C2F8F700E944F0834E0FF
:10141000D695C7953A95E1F7CF709C2FEC01D0692E
:10142000D1CEC9E3D0E0CECEC2EED0E0CBCEC6EE78
:10143000D0E0C8CE80912002882331F010922002A3
:1014400010921F0210921E020895809590917B03C6
:10145000982390937B03089580917B0390917C0364
:10146000892B90911D02892B8093A80180912002E5
:10147000882329F10E94550520911E0230911F02F8
:10148000821B930B8838934110F00E941A0A8091B6
:10149000A80190912002892B8093A80180911C01C2
:1014A000882341F180913A0487FF24C08EE1EAEA63
:1014B000F1E090E0815000F591110E941A0AE0914C
:1014C0003104F09132043097E1F080911C018823BF
:1014D00059F080913A0487FF07C08091A80180935A
:1014E000A90185E08093A8010280F381E02D88EABC
:1014F00091E0099486E0DBCF21912223D9F29F5F0E
:10150000D9CF0895EF92FF920F931F93CF93DF935C
:10151000EC018A85811139C0EB80FC8087E5F81ADF
:1015200026E12E9DC0012F9D900D1124DC01A158B4
:10153000BC4F1496ED91FC911597309731F054966D
:101540006D917C918B579C4F099586E18E9D800112
:101550008F9D100D112401581C4FF80187810E94A6
:10156000250AF8018085982F909580917C03892326
:1015700080937C030E942C0A188219861B861E8287
:101580001D8210927E0310927D03DF91CF911F91F7
:101590000F91FF90EF900895CF93DF93EC0189892D
:1015A00081111BC081E0898B80917B039F81892BF6
:1015B00080937B0380917C039885892B80937C03A7
:1015C0000E942C0AEA81FB81309739F06C897D8971
:1015D000CE010696DF91CF910994DF91CF910895C6
:1015E00010921C0210921B0210921A020895809110
:1015F0001902811110921902089580911802909198
:10160000D701981301C008958F5F8770FACF9E3F6E
:1016100051F1292F220F220FE22FE90FE80F9E2F01
:101620009770E695E695E69583E0E89FF001112432
:10163000E753FE4F50E040E080E0219130E0092E7A
:1016400002C0369527950A94E2F721703327042EBD
:1016500001C0220F0A94EAF7822B4F5F5F4F43309D
:10166000510559F7089580E008959E3F71F1292FA3
:10167000220F220FE22FE90FE80F8E2F877041E033
:1016800001C0440F8A95EAF7E695E695E69583E072
:10169000E89FF0011124E753FE4F30E020E070E0B6
:1016A0005191DF011197CB01022E02C096958795CB
:1016B0000A94E2F7817081958527842385278C938E
:1016C0002F5F3F4F2330310559F7089590E080E0B8
:1016D0000E94D60590E080E00E94C00510927C0335
:1016E00010921D020E942C0A86E0EEE3F2E0DF0178
:1016F0001D928A95E9F710923802109237021092E3
:1017000039020C94E20680936E040C94660B80916F
:101710006E04982F9670963019F488600C94830BA1
:10172000877FFCCF21E030E001C0220F8A95EAF7E5
:10173000209580916E0482230C94830B90911C025F
:101740008095892380931C02282F277039F4282F35
:10175000082E000C330B9217130621F490913B04D2
:1017600092FF07C08595859585950E94920B0C94F4
:10177000F00A089521E030E001C0220F8A95EAF7CF
:1017800080916E04822B0C94830B90913B0492FD0C
:1017900010C098E0899F90011124622B60931C0275
:1017A0000E94BA0B0E94550590931B0280931A0267
:1017B00008950C94BA0B80936C020C94660B8823EA
:1017C00041F0809590917C03892380937C030C9455
:1017D0002C0A0895882339F090917C03982B9093DC
:1017E0007C030C942C0A0895882321F00E94250A7A
:1017F0000C942C0A0895882339F090917B03982B40
:1018000090937B030C942C0A0895882379F19CEF24
:10181000980F913A38F4682F88EA91E00E946105A8
:101820000C942C0A90E2980F983050F4877091E055
:1018300001C0990F8A95EAF7892F0E94250AF0CFF7
:101840009BE5980F933020F490E080E00C94D6054F
:1018500098E5980F973120F490E080E00C94C00553
:10186000803F20F00E9409070C94E2060895CF9370
:10187000C82F882309F46FC08CEF8C0F813AC0F514
:1018800080911C01882311F180913A0487FF1EC0CA
:10189000EC2FE695E695E695F0E0E855FE4F82815F
:1018A00090E04C2F477021E030E002C0220F331F40
:1018B0004A95E2F782239323892B91F06C2F88EAD3
:1018C00091E00E9461050E942C0A0AC0EAEAF1E058
:1018D00080EB91E02191C21789F38E179F07D1F712
:1018E0006C2F88EA91E00E948B05CF910C942C0A12
:1018F00080E28C0F883068F4C77021E030E001C0CE
:10190000220FCA95EAF780917B03822B80937B0399
:10191000ECCFEBE5EC0FE33040F4F0E0EB5DFE4F95
:10192000808190E0CF910C94D605E8E5EC0FE7318B
:1019300050F4F0E0EE0FFF1FE85DFE4F80819181D3
:10194000CF910C94C005C03F30F08C2F0E94CE0781
:10195000CF910C94E206CF9108959C013A95211500
:101960003F4150F5FC01EE27F170BC016627727013
:10197000AC01442754709C012227387094FF0EC09C
:1019800080E1EF2B09F480E0672B09F08062452BA2
:1019900009F08064232B89F08068089581E0EF2BA3
:1019A00009F480E0672B09F08260452B09F0846020
:1019B000232B19F08860089580E0089590916404C5
:1019C000943029F580933C0470933E0460933D0469
:1019D0009093E9008FEF9091E800815095FD06C04B
:1019E0009AE69A95F1F700C08111F5CF8091E80051
:1019F00085FF0DC050E040E063E070E08CE394E0D0
:101A00000E94F8038091E8008E778093E8000895A3
:101A1000BC0184E00C94DE0CBC0183E00C94DE0C71
:101A20009C0184E08093E9009FEF8091E800915051
:101A300085FD06C08AE68A95F1F700C09111F5CFC1
:101A40008091E80085FF0CC050E040E066E070E067
:101A5000C9010E94F8038091E8008E778093E80026
:101A60000895CF93DF93EC0180911C018823B1F19D
:101A700080913A0487FF32C060E284E08093E900FD
:101A80008FEF9091E800815095FD06C09AE69A95F7
:101A9000F1F700C08111F5CF8091E80085FF1BC0F0
:101AA00080911C0170E050E040E0811104C050E0E2
:101AB00040E068E070E0CE010E94F8038091E80009
:101AC0008E778093E80080E2FE01A2E4B4E001900A
:101AD0000D928A95E1F7DF91CF91089568E081E05A
:101AE000CDCF8091670280FD0AC0EFE4F2E0118261
:101AF00010821282339652E0E736F507C1F7259A35
:101B000035B13F7D25B120624FB7F8948FE492E064
:101B1000FC015191CF0168E025B957FF35B9550F48
:101B2000000000C035B96A95B9F7F2E087369F0723
:101B300079F74FBF8FE292E00197F1F700C0000004
:101B40000895EF92FF920F931F93CF93DF938C0131
:101B5000CFE4D2E0F12CE12CF8019481609169028C
:101B600080916802F4E0EF16F104FCF49923F9F097
:101B70009E0140916A020E944C062FEFE21AF20A7F
:101B8000239688E0E816F10439F70E94710DF801F8
:101B9000848190E00196817099278483DF91CF91B1
:101BA0001F910F91FF90EF900895992309F39E01E3
:101BB00040E0E1CF8F929F92AF92BF92CF92DF929F
:101BC000EF92FF920F931F93CF93DF93EC014C8121
:101BD000042F10E09801D8010E9461329B01AC01F2
:101BE0000E9477324B015C01E0E2F0E0E01BF10B78
:101BF000A5E5B0E0AC019B010E9477326B017C014E
:101C00009F01DF010E9459329B01AC010E94823288
:101C10009B01AC01280D391D4A1D5B1DC701B60192
:101C20000E942A32F22E822F90E039E23F15D8F13D
:101C300043E0249F9001112435952795122F10958C
:101C40009FE4C92E92E0D92E00E085E5E82EEF183A
:101C50008E2D01FD8F2D9601412F609169020E940A
:101C60004C060F5F53E0C50ED11C083089F70E9467
:101C7000710D9C8181E0992319F0903219F48FEF56
:101C80008093180180911801890F8C83DF91CF9187
:101C90001F910F91FF90EF90DF90CF90BF90AF908A
:101CA0009F908F90089525E530E0A901481B590BBE
:101CB000CA019A01220F331F280F391F37FFBCCFEB
:101CC0002F5F3F4FB9CF0F931F93CF93DF93CFE495
:101CD000D2E0FE01118210821282339682E0E73652
:101CE000F807C1F710E000E080914D02082E000CCB
:101CF000990B081719078CF180911701082E000C19
:101D0000990B801791074CF19E0140916A026091F6
:101D10006902809168020E944C060F5F1F4F239654
:101D20000830110509F70E94710D809116019091FC
:101D30004D02980F90934D0220911701280F209388
:101D40001701121614F497301CF081958093160138
:101D5000DF91CF911F910F910895198218821A82F5
:101D6000DCCFCF92DF92EF92FF920F931F93CF932E
:101D7000DF93FC018281DD24DA9480FD02C0DD2442
:101D8000D394CFE4D2E010E000E0198218821A82E6
:101D900094E0E92EF12CC12C80914C028C0D8930FD
:101DA000CCF18770082E000C990B8017910791F4E5
:101DB00080916A028E9DA0018F9D500D1124559532
:101DC0004795559547959E016091690280916802FB
:101DD0000E944C06CD0CF1E0EF1AF108E9F60F5F16
:101DE0001F4F23960830110581F60E94710D8091D6
:101DF0004C0291E0D91214C0811110C087E0809389
:101E00004C02DF91CF911F910F91FF90EF90DF90E7
:101E1000CF90089587FFC6CF885FC4CF8150EFCFA2
:101E200090E0019687709927EACFEF92FF921F9377
:101E3000CF93DF93EC018FE4E82E82E0F82E10E0E0
:101E40008C81970140916A0260916902810F0E9422
:101E50004C06115E83E0E80EF11C183F89F70E94E2
:101E6000710D9A818C8190FF08C08F5F8C83DF9108
:101E7000CF911F91FF90EF9008958150F7CF9091EF
:101E8000670290FF0CC0EFE4F2E08183608342833D
:101E9000339692E0E736F907C1F70C94710D089577
:101EA0000F931F93CF93DF9300D00F92CDB7DEB780
:101EB0008C0180914E0281110AC09E012F5F3F4F1D
:101EC0004FEF6FEF0E944C068A8180934E02F8011B
:101ED0006481613069F080914E0240E0662361F0D8
:101EE00040E0623011F440914E0280E060E004C0B6
:101EF00060914E0240E080E00E943F0FF801848133
:101F000090E0019663E070E00E94163284830F90A7
:101F10000F900F90DF91CF911F910F910895CF9364
:101F2000DF9300D00F92CDB7DEB79091670290FF9C
:101F30000AC09E012F5F3F4F0E944C064B81698172
:101F40008A810E943F0F0F900F900F90DF91CF91E9
:101F50000895CF93DF93EC01E7E6F2E043816281DD
:101F60008C810E948F0F8C818F5F8C83DF91CF914A
:101F70000895CF93DF93EC01EC81F0E0EF53FB4F3A
:101F80004491E7E6F2E0628181810E948F0F8C81AB
:101F90008F5F8C83DF91CF9108951F93CF93DF9351
:101FA000182FCAE0D0E0893311F4C0E5D0E0812FCA
:101FB0000E94370C8FEC97E00197F1F700C000000A
:101FC0002197C1F7812FDF91CF911F910C94050CC0
:101FD0000F931F93CF93DF93C62FD42F022FFC01B3
:101FE00082818823A1F0609371040E94550590932B
:101FF000700480936F04C77081E001C0880FCA9598
:10200000EAF7DF91CF911F910F910C94FB0B809118
:102010007104681335C080916F04909170040E9420
:102020004605883C910560F510E21D0FCD17B9F00B
:1020300080E28C0F883040F4C77081E001C0880FC7
:10204000CA95EAF70E94F40B183048F481E09D2FFE
:10205000977001C0880F9A95EAF70E94FB0B802FBA
:102060000E94CD0F183098F4D77081E001C0880F1E
:10207000DA95EAF7DF91CF911F910F910C94F40B51
:10208000C77081E001C0880FCA95EAF7F3CFDF91EE
:10209000CF911F910F910895AF92BF92CF92DF928F
:1020A000EF92FF920F931F93CF93DF93EC018AE09F
:1020B000A82E2881222309F48CC02130C9F59981EA
:1020C0008A81913021F422960E94CD0F05C0923072
:1020D00029F422960E94370C2196EBCF933021F4FD
:1020E00022960E94050CF8CF943011F02196F4CF7F
:1020F000229630E020E0AE014F5F5F4F8053990B96
:102100008A30910550F02150310930F38FEC97E07F
:102110000197F1F700C00000F6CFA29EB001A39E88
:10212000700D11249C01260F371F8981EA01E3CF2E
:10213000E22FF0E0E650FE4FB490822F8695869510
:10214000869590E0FC01E651FE4FE4902770F12C5B
:10215000022E02C0F594E7940A94E2F731E0E322FC
:10216000FF24FC01E652FE4FC490D12C022E02C087
:10217000D594C7940A94E2F731E0C322DD24FC0130
:10218000E653FE4F049110E002C0159507952A957D
:10219000E2F701701127E114F10419F081EE0E94B9
:1021A000370CC114D10419F086EE0E94370C8B2D28
:1021B0000E94CD0FCD2819F086EE0E94050CEF2865
:1021C00019F081EE0E94050C012B09F485CF8CE2F9
:1021D0007BCFDF91CF911F910F91FF90EF90DF9018
:1021E000CF90BF90AF900895CF93DF93C7E3D1E036
:1021F00060E0CE010E94D8322196C11584E0D80754
:10220000B9F7DF91CF9108950F931F93CF93DF9389
:102210008901843068F5623058F5423048F501157F
:102220002CE5120731F42091190130911A01232B6A
:10223000F9F028E0829FC001112424E0629FB001E0
:102240001124860F971FC42FD0E0CC0FDD1FC80FBD
:10225000D91FC958DF4F612FCE010E94D832602F9D
:10226000CE010196DF91CF911F910F910C94D8323E
:10227000DF91CF911F910F9108950F931F93CF93EB
:10228000DF938901843048F5623038F5453028F510
:1022900021153C4531F42091190130911A01232B6D
:1022A000E1F0C42FD0E0CC0FDD1F9AE0699FC00D94
:1022B000D11D112494E1899FC00DD11D1124612FDE
:1022C000CE0187960E94D832602FCE018896DF918A
:1022D000CF911F910F910C94D832DF91CF911F9124
:1022E0000F910895CF93C82F6FEF81116AE283E2B7
:1022F00090E00E94D8326FEFC1116BEA84E290E067
:102300000E94D8326FEFC1116FE685E290E0CF9165
:102310000C94D832CF93C0913B04C2FB992790F91B
:10232000981781F080FBC2F9C0933B0460913A0496
:1023300084E090E00E94D8326C2F82E290E0CF914E
:102340000C94D832CF910895AF92BF92CF92DF9282
:10235000EF92FF920F931F93CF93DF93CDB7DEB72A
:1023600064970FB6F894DEBF0FBECDBFC0901901C1
:10237000D0901A0181E090E090931A0180931901A6
:1023800081ECE82E85E0F82E10E0570100E0F50121
:1023900025913491402F60E0812F0E943D11E2E0B1
:1023A000AE0EB11C0F5F053091F75701FAE0AF0E8A
:1023B000B11C00E0F50125913491402F61E0812F9F
:1023C0000E943D1182E0A80EB11C0F5F053091F70D
:1023D00021E030E040E060E0812F0E94041121E024
:1023E00030E041E060E0812F0E94041121E030E004
:1023F00040E061E0812F0E94041121E030E041E0E3
:1024000061E0812F0E9404111F5F84E1E80EF11C3E
:10241000143009F0BACF1A8219821C821B821E82E4
:102420001D8218861F8288EC90E09A87898707E9C9
:1024300010E04AE050E0B801CE0101960E94FC3263
:10244000065F1F4F073E1105A1F77E01EBE0EE0E80
:10245000F11C8AE0F70111928A95E9F74AE050E011
:10246000B801C7010E94FC32065F1F4F0733F1E03D
:102470001F07A1F7D0921A01C092190164960FB6F6
:10248000F894DEBF0FBECDBFDF91CF911F910F91AA
:10249000FF90EF90DF90CF90BF90AF90089580E0D5
:1024A0000E94721160E086E290E00E94D8320E94A1
:1024B000A4110E94F41081E00C9472119B018830E9
:1024C00070F49AE0899FB001112469567F4F4AE069
:1024D00050E0C9010E94B43290E080E008958FEF8F
:1024E0009FEF08958F929F92AF92BF92CF92DF920B
:1024F000EF92FF920F931F93CF93DF93CDB7DEB789
:102500002A970FB6F894DEBF0FBECDBF0FE713E0DA
:10251000F12CE12C8BE0C82E87E2D82E95E3A92E72
:1025200097E2B92E2FE1822E26E2922EF801D18277
:10253000C082B382A28295828482F58AE48ABE0137
:102540006F5F7F4F8E2D0E945E12892B29F4898543
:102550009A85F801938B828BFFEFEF1AFF0A0A5ED0
:102560001F4F88E0E816F10409F72A960FB6F89491
:10257000DEBF0FBECDBFDF91CF911F910F91FF90B6
:10258000EF90DF90CF90BF90AF909F908F90089585
:102590000F931F93CF93DF93843038F5623028F583
:1025A00028E0829FC001112434E0639FB001112410
:1025B000860F971FC42FD0E0CC0FDD1FC80FD91F87
:1025C000C958DF4FCE010E94C432082F10E0102FEF
:1025D0000027CE0101960E94C4329801282BC90120
:1025E000DF91CF911F910F91089590E080E0F8CF97
:1025F0000F931F93CF93DF93843030F5623020F533
:10260000453010F5C42FD0E0CC0FDD1F2AE0629FCB
:10261000C00DD11D112434E1839FC00DD11D1124A3
:10262000CE0187960E94C432082F10E0102F002799
:10263000CE0188960E94C4329801282BC901DF91EF
:10264000CF911F910F91089590E080E0F8CF462F31
:102650002091D1023091D202232B91F47E3F39F4A4
:102660006E3F71F48091CF029091D0020895843032
:1026700038F4723028F4653018F4672F0C94F8128F
:1026800090E080E00895CF92DF92FF920F931F9326
:10269000CF93DF936C0100916E0480916C02082B44
:1026A000C7E0D0E010E0FC2EC8010C2E02C09595CA
:1026B00087950A94E2F780FD0CC02197A0F7F12CD2
:1026C0008F2DDF91CF911F910F91FF90DF90CF90D1
:1026D0000895B6018C2F0E9427130E94920801973B
:1026E00061F3EECFCF93DF93EC010E944313BE0161
:1026F0000E942713DF91CF910C949208FC018681F0
:102700009781009779F00E949208292F2F70929557
:102710009F7092509E30A0F4E92FF0E0EA5EFC4CEE
:102720000C944C32808191810E947213EECF803FD5
:1027300019F020F4883E20F481E00895843FE1F30D
:1027400080E00895883EC0F3813FD1F7F5CF822F16
:1027500086958695869508951F93CF93DF9300D035
:1027600000D00F92CDB7DEB7FC012681378121154D
:10277000310541F525E0DE01119601900D922A9573
:10278000E1F7FC01228189819A812223B9F0662335
:10279000A9F00E944313182F682F89819A810E9403
:1027A000350B69817A81812F0F900F900F900F90D8
:1027B0000F90DF91CF911F910C9427130E94070B6C
:1027C000182FEFCFC9010F900F900F900F900F901F
:1027D000DF91CF911F91089583E290E00E94C4326F
:1027E0008A3289F484E290E00E94C4328B3A59F430
:1027F00085E290E00E94C43291E08F3609F090E0CB
:10280000892F8170089580E0FCCFCF9384E090E021
:102810000E94C432C82F82E290E00E94C432982FF6
:102820008C2FCF910895CF92DF92EF92FF920F936A
:102830001F93CF93DF93CDB7DEB72A970FB6F894E7
:10284000DEBF0FBECDBFEFE7F2E080E5DF011D92F6
:102850008A95E9F7E7E3F3E088E3DF011D928A95C3
:10286000E9F78FE7C82E82E0D82E7F0107EE10E04F
:10287000F701D182C0824AE050E0B801CE01019652
:102880000E94B43288E0FE013196D60101900D928B
:102890008A95E1F789859A85D70113969C938E9343
:1028A0001297BAE0CB0ED11CE7E0EE0EF11C065FEA
:1028B0001F4F0733F1E01F07D9F62A960FB6F89499
:1028C000DEBF0FBECDBFDF91CF911F910F91FF9063
:1028D000EF90DF90CF90089510927B0380911C01C0
:1028E000EAEAF1E0882359F080913A0487FF07C0B3
:1028F0008EE1DF011D928A95E9F70C94660B86E064
:10290000F8CF1F93CF93DF93CDB7DEB7AA970FB65B
:10291000F894DEBF0FBECDBF86E694E02091F100B3
:10292000DC012D93CD01B4E08E369B07B9F7809181
:102930006704833009F471C0B8F4813009F448C0E9
:10294000823009F4B2C08091E80083FF3AC18091DF
:102950006604909167049A3008F033C1E92FF0E0E3
:10296000EC5DFC4C0C944C328A3009F48DC08B30F9
:1029700009F470C0893039F780916604813219F703
:1029800080916A0490916B04009711F00297D9F638
:102990008091E800877F8093E8008091E80082FFC3
:1029A00037C09091F3008091F200029729F4809152
:1029B000F1008B7F813021F48091F10080934104FC
:1029C0008091E8008B778093E8000E942204BBCFBF
:1029D00080916604813A09F0B6CF8091E800877F44
:1029E0008093E80080916A0490916B04892B61F4D4
:1029F00060E282E494E070E00E94D4048091E800F8
:102A00008B778093E8009FCF60E090E080E0F3CF89
:102A1000809164048111C1CF96CF80916604813A80
:102A200009F091CF80916A0490916B04892B09F091
:102A30008ACF8091E800877F8093E8008091E8004A
:102A400080FFFCCF80911C018093F1008091E80011
:102A50008E77B9CF80916604813209F074CF80916E
:102A60006A0490916B04892B09F06DCF8091E80086
:102A7000877F8093E8000E942204809168048093FD
:102A80001C010E946C145FCF80916604813209F0B2
:102A90005ACF8091E800877F8093E8000E9422044B
:102AA00080916904809340044ECF80916604813AFE
:102AB00009F049CF8091E800877F8093E8008091FA
:102AC000E80080FFFCCF80914004BECF803899F0B1
:102AD000823809F076C080916A048F70873008F0E0
:102AE00070C08093E9008091EB0085FB882780F916
:102AF0001092E90006C080916204909163049111E4
:102B000082609091E800977F9093E8008093F100B5
:102B10001092F1008091E8008E77C0C1882309F4FB
:102B2000ADC1823009F04DC0809168048111B1C1FE
:102B300080916A048F702FEF280F263008F041C073
:102B40008093E9002091EB0020FFA3C1933031F482
:102B50008091EB0080628093EB009BC19091EB0031
:102B600090619093EB0021E030E001C0220F8A9544
:102B7000EAF72093EA001092EA008091EB00886067
:102B8000EACF81111EC0109168041F778091E30085
:102B90008078812B8093E3008091E800877F809389
:102BA000E8000E9422048091E80080FFFCCF809121
:102BB000E30080688093E30082E0111183E080935A
:102BC00064048091E80083FF0AC08091E800877F59
:102BD0008093E8008091EB0080628093EB00AA96DE
:102BE0000FB6F894DEBF0FBECDBFDF91CF911F911E
:102BF00008958058823028F7209168043091690444
:102C00002C3DE3E03E07A1F583E08A838AE28983D5
:102C10004FB7F894DE01139620E03EE051E2E32F37
:102C2000F0E050935700E49120FF03C0E295EF706D
:102C30003F5FEF708E2F90E0EA30C0F0C7968D9323
:102C40009D932F5F243159F74FBF8091E800877F14
:102C50008093E8006AE270E0CE0101960E94D404FD
:102C60008091E8008B778093E800ABCFC096E7CFE8
:102C700080916A0490916B04432F5527433051058E
:102C800009F44AC078F54130510509F485C08BE557
:102C900090E0E1E1F6E04230510509F092CF209159
:102CA000E800277F2093E80020916C0430916D04A8
:102CB0008217930708F49C0140E02115310509F0C3
:102CC00070C041116EC08091E80082FDC9CF809133
:102CD0006404882329F2853019F28091E80083FF8B
:102CE000F2CFBECF4132510509F447C042325105FF
:102CF00009F067CF8330910508F063CFFC01EE0F38
:102D0000FF1FE756FE4F0190F081E02D8A569E4F3F
:102D1000DC018C9190E01DC0332721303105E9F0B2
:102D20002115310579F022303105F9F023303105D4
:102D300009F047CFEEE7F6E0E4918E2F90E0EEE762
:102D4000F6E007C0EAEBF6E0E4918E2F90E0EAEBC4
:102D5000F6E0009709F435CFA2CFE8EAF6E0E49177
:102D60008E2F90E0E8EAF6E0F4CFECE9F6E0E491AB
:102D70008E2F90E0ECE9F6E0ECCF8330910508F07F
:102D800020CF880F991FFC01E156FE4F0190F08182
:102D9000E02D89E090E083CF82E190E0ECE6F6E080
:102DA0007ECF80916404882309F45ACF853009F4DA
:102DB00057CF8091E80083FD53CF8091E80082FDDA
:102DC00082CF8091E80080FF78CF9091F3008091CE
:102DD000F2002115310519F08830910550F041E0DD
:102DE000089709F040E08091E8008E778093E80032
:102DF00064CF44914093F1003196215031090196FE
:102E0000E8CF803809F0DDCE8091E800877F80939D
:102E1000E800809165048093F1007CCE8111D1CED1
:102E200010916804123008F0CCCE8091E800877FC2
:102E30008093E800109365040E942204112311F08E
:102E400084E005C08091E30087FDFACF81E08093A4
:102E5000640442E061EC81E00E94410442E261ECE2
:102E600084E00E94410442E261EC82E00E9441045D
:102E700042E260EC83E00E944104A3CE80916804AA
:102E8000813009F09ECE81E0933009F080E080939C
:102E900063041092E9008091E800877F8093E80046
:102EA0000E9422048ECE60916702669570E04BE02E
:102EB00050E08BE091E00E949332892B19F481E07D
:102EC00080934B020E9455059093450280934402E3
:102ED0000895CF92DF92EF92FF926B017C010E94E6
:102EE0003D06B701A60188E090E0FF90EF90DF90EB
:102EF000CF900C94EA327F928F929F92AF92BF92C2
:102F0000CF92DF92EF92FF920F931F93CF93DF93B5
:102F100000D00F92CDB7DEB7182FD62E042FC22EB9
:102F20009091670290FF29C0E92FE695AE2FB0E09F
:102F3000AF58BE4F8C9180934A029E7F923071F5BC
:102F40009E012F5F3F4F812F0E944C064B8169816C
:102F50008A810E943F0F10936802D0926902009309
:102F60006A02CC2051F060916702709168028091F2
:102F7000690290916A020E9469170F900F900F905A
:102F8000DF91CF911F910F91FF90EF90DF90CF9045
:102F9000BF90AF909F908F907F900895823019F4EA
:102FA00000916A02D8CF863019F410916802D3CF0D
:102FB0008930D9F3893179F6E9512E2F2170722E9B
:102FC000E695F0E0E454FB4F8590949099243FE41B
:102FD000E32E32E0F32EB12CA12CC50123E096950F
:102FE00087952A95E1F7711013C0810F9701402F43
:102FF0006D2D0E944C06A80CB91C83E0E80EF11C54
:1030000027E6E21622E0F20641F70E94710DA3CFF7
:10301000212F281B822FEACFE7E6F2E0438120E14F
:10302000421B08F440E021E0628181810C947B170F
:10303000E7E6F2E0438120E1420F08F44FEF21E0A0
:10304000628181810C947B17E7E6F2E0628120E1E6
:10305000621B08F460E021E0438181810C947B17BE
:10306000E7E6F2E0628120E1620F08F46FEF21E011
:10307000438181810C947B17E7E6F2E0818121E0B6
:103080004381628180510C947B17E7E6F2E08181F5
:1030900021E043816281805F0C947B1780916B02F9
:1030A000882319F0815080936B02609167027091C0
:1030B00068028091690290916A020C94691780916C
:1030C0006B02833018F48F5F80936B02609167020C
:1030D000709168028091690290916A020C9469175C
:1030E0009091670290FF36C09170811129C0926063
:1030F00090936702662351F06091670270916802B5
:103100008091690290916A020E946917609167023A
:10311000669570E04BE050E08BE091E00E949332C6
:10312000892BA9F010924B0281E08093470220E0A6
:1031300040916A0260916902809168020C947B1749
:10314000853210F09864D4CF880F982BD1CF0E948D
:103150005317EACF0895809167028695815009F44C
:1031600084E261E00C9470188091670286958F5F0D
:10317000853208F081E061E00C947018909167024C
:1031800090FF07C09695981720F0961710F40C94AE
:10319000B41861E00C947018E7E6F2E083E08083F5
:1031A00011828FEF82838383148260817181828197
:1031B00093810C9469176AEE7EEF90E080E00E94A4
:1031C000F63260E082E090E00E94D83260E083E076
:1031D00090E00E94D83210926C0260E084E090E0AF
:1031E0000E94D83260E082E290E00E94D83260E033
:1031F00085E090E00E94D83260E086E090E00E9496
:10320000D8326FEF87E090E00E94D83240E050E083
:10321000BA0188E090E00E94EA3260E08DE090E040
:103220000E94D83240E050E0BA0188E190E00E946C
:10323000EA3260E087E190E00E94D83240E050E05E
:10324000BA018CE190E00E94EA3270E060E080E236
:1032500090E00E94F63240E050E0BA0188E190E050
:103260000E94EA3280E00E9472110E944F1240E0F8
:1032700050E0BA018FE090E00E94EA3240E050E076
:10328000BA0183E190E00C94EA328F929F92AF9260
:10329000BF92CF92DF92EF92FF920F931F93CF9343
:1032A000DF9300D000D0CDB7DEB77C01DC011396F0
:1032B0008D919C911497892B39F08C9111969C914A
:1032C00089238F3F09F09EC50F900F900F900F90AC
:1032D000DF91CF911F910F91FF90EF90DF90CF90F2
:1032E000BF90AF909F908F900895D60116968C91C5
:1032F00016978823D1F019968D919C91081719077C
:1033000039F480917D0390917E030817190769F0C5
:10331000F601978614870387C6010E94CC0AC6016E
:1033200006960E94820A10927C03FFEFAF1ABF0A32
:1033300026E1C20ED11C7CC5980122513F452031A7
:10334000310508F02FC58FEF93E00E94C4324EEE96
:10335000D42ED00E07E311E08823D9F080911C020F
:10336000877009F4B1CFD70112968C91882309F4A4
:10337000ABCF82E00E949E0BA7CF011534E013076C
:1033800069F3C8010E94C432811101C0DA940F5F51
:103390001F4FD110F2CF19821A821B821C82CC24BB
:1033A000CA9448014FEF841A940AC8010E94C4329B
:1033B00089831A82882391F2813009F047C058012D
:1033C00052E0A50EB11CC4010E94C432982E8A831B
:1033D000882321F2C5010E94C432D82E8FEF890DB7
:1033E000833068F4580183E0A80EB11CDB82DD2035
:1033F00021F0CE0101960E944C108501D2CF94E0BD
:103400009912FBCF5801A4E0AA0EB11CC801039683
:103410000E94C432DD2009F4A1CF882309F49ECF95
:103420008150990BC89E9001C99E300D1124ED2D3D
:10343000E150FF0BCF01820F931F0197F0F2AFEC29
:10344000B7E01197F1F700C00000F7CFCE01019669
:103450000E944C105401D1CF81E00E94BA0B0E940F
:10346000870B7CCF81E00E94920BF9CF82E0F5CFF1
:103470002FEFC216D10411F008F0AAC465E772E07C
:103480008C2D0E945E12892B29F586E18C9DF0011E
:103490008D9DF00D1124E158FC4F8681813009F09B
:1034A000ADC08091750290917602892B99F0809140
:1034B000770290917802892B69F08091790290913E
:1034C0007A0220917B0230917C02822B932B892BF4
:1034D00009F49EC080910001082E000C990B8C15F8
:1034E0009D0514F4C0920001F701828196E19C9D34
:1034F00050019D9DB00C1124950121583C4F69014C
:10350000D90150968C935097928116968C9116976C
:10351000992309F48BC01A961C930E9319978F5F09
:1035200016968C930E945505F601968785878091A3
:103530002002878380917C0390917B03892B808775
:103540000190F081E02D309741F0D60154966D91B5
:103550007C91C5018B579C4F099510937E03009376
:103560007D03F7018281882309F47BC410927104E2
:103570000230FCE51F0708F464C106312CE5120790
:1035800030F0C8018A5F9C45099708F05AC10E9433
:10359000051490933B0480933A0400313CE51307F3
:1035A00009F41EC108F0B1C008305CE5150709F444
:1035B0000DC108F080C004309CE5190709F4FEC075
:1035C00008F066C00230BCE51B0709F4F1C0809129
:1035D0003A04826003301C4509F4EDC060913A045E
:1035E00010913B0484E090E00E94D832612F82E287
:1035F00090E00E94D8320E946C14B0CE823009F064
:1036000069CF8091790290917A02892B09F462CF77
:1036100026E12C9DC0012D9D900D112481589C4FB9
:10362000DC0150961C920E94CC0A54CF882309F4E6
:1036300098CFF9018189882309F493CFC5018B576D
:103640009C4F0E94820A8DCF053F8CE51807C9F078
:10365000A0F027E245EE66EE063FACE51A0709F05A
:1036600080CFC7010E94E80F79CE27E245EE65EED4
:10367000F8CF26E241EE60EEF4CF27E245EE64EEAD
:10368000F0CF26E241EE62EEECCF28E241E0EFCF50
:1036900080913A0480610630FCE51F0709F48BC075
:1036A00080913A04886007301C4508F484C08091FA
:1036B0003A04806280C080913A048D7F0C303CE5F2
:1036C000130709F478C070F480913A048C600A30D2
:1036D0005CE5150709F46FC008F47CC080913A04DA
:1036E0008E7F69C080913A04877F0E309CE5190770
:1036F00009F461C080913A048B7F0F301C4508F4B7
:103700005AC080913A048F7E56C00B3FBCE51B0720
:1037100009F458C030F50331FCE51F0709F468C00F
:1037200078F401313CE5130709F45EC002311C4511
:1037300009F054CF0E946C1480913A048F773BC0FB
:1037400005315CE5150709F45BC008F46FC0809192
:103750003B0481600A3F1C4509F040CF80933B0445
:103760003DCF0F3FACE51A0709F446C088F48091BD
:103770003B048D7F0D3FECE51E0781F380913B04F8
:103780008E7F0E3F1C4550F380913B048360E6CF53
:1037900001302DE5120709F452C0F0F160E002306B
:1037A0001D4509F01BCF8EE090E00E94D83216CF65
:1037B00080913A04816080933A0410CF80913A045A
:1037C0008460F9CF80913B048260C8CF80913A0435
:1037D0008064F1CF0E946C1480913A048068EBCF32
:1037E00080913A048F7DE7CF80913A048F7BE3CFBD
:1037F00080913A04837FDFCF80913B048C7FAECFF2
:1038000080913A0482FB992790F921E0922790FB5E
:1038100082F990FB83F9CFCF80913B04982F90954C
:1038200091708E7F892B90FB81F998CF0E946C1448
:1038300090913A04892F97FB87F98058BCCF61E0BB
:10384000B2CF80917B0306315CE5150709F016C302
:103850008A7A91E009F490E09093C80169E28111BD
:1038600065E388EA91E00E948B050E942C0A76CDE0
:103870008091670280FF1BC08E7F809367026091FA
:103880006702709168028091690290916A020E94B9
:10389000691710924B028FE798E3A1E081509040A6
:1038A000A040E1F700C000000E94710D57CD81607B
:1038B0008093670261E086950E9470184FCD4BEAB5
:1038C00058E164EB78E10E94370648CD44EB58E1BB
:1038D0006BEA78E1F8CF45E458E16CE378E1F3CFA7
:1038E00044E258E160E378E1EECF4CE058E168E172
:1038F00078E1E9CF48E158E16CE078E1E4CF4FE5C9
:1039000058E16EE478E1DFCF61E081E0D5CF65E09A
:1039100082E00E94BE1822CD68E086E0FACF64E122
:103920008FE0F7CF67E185E1F4CF62E289E1F1CF83
:1039300061E083E2C1CF0B353DE5130701F10C35A2
:103940001D4509F0C6C280913B0482FB882780F99F
:1039500091E089270E948A11BCC20E946C145FE723
:103960008AE196E0515080409040E1F700C00000AD
:103970000E9435050E94DB18F1CC81E0EBCF80E09E
:10398000E9CF828100811181882369F0C8010E94FA
:103990004313D82E682FC8010E94350BB8018D2D16
:1039A0000E9427139CC2C8010E94070BD82EF6CF95
:1039B000212F2F70D22E107F19F0D29490EFD922A0
:1039C000BB20C9F0DD2069F080E2800F883010F064
:1039D00001110BC080917B03D82AD0927B030E94F7
:1039E0002C0A802F0E94370C16C080917C03D82AA5
:1039F000D0927C03F4CF802F0E94050CDD2059F07B
:103A000080E2800F883010F0011128C08D2D0E94B7
:103A1000250A0E942C0AA92DA850BB0B149710F45C
:103A20000E94EC05AA20A9F080911C0280FD11C023
:103A3000F70112828595859585950E94BA0BC7017D
:103A40000E94451980911C028595859585950E9457
:103A5000920B60E0C7010E94AC1336CCD0948091E9
:103A60007C03D822D0927C03D4CF312F3F70D32E49
:103A7000107F103219F0D29480EFD822002379F011
:103A8000013009F450C0BB2009F459C0CC2079F1B1
:103A9000F701858180FFA5CF8F70858328C0BB206B
:103AA00051F1C11004C0809120028D2921C041E054
:103AB000C41213C080913B0482FDADCF80912002DF
:103AC000D82AD81609F4A7CF0E94550590931F0253
:103AD00080931E02D09220029ECF55E0C512E3CF04
:103AE0000E941A0A80911902D812D09219028D2DC3
:103AF0000E94FB0B90CFC11006C00E941A0A8D2DA8
:103B00000E94F40B88CF81E0C81208C080917B032B
:103B10008D2109F480CF0E94F70AEFCF95E0C916F6
:103B200009F479CFEACFBB2029F0A5E0AC1508F461
:103B300072CFDDCFB4E0BC1508F46DCFE0CFCC2060
:103B4000F1F2093309F029C1FFEF23EF31E0F15021
:103B500020403040E1F700C00000802F0E94050C9B
:103B60005ACF812F86958695837061F0813009F058
:103B700052CFC8019370B11002C090E080E00E9463
:103B8000C00549CFC8019370B11002C090E080E039
:103B90000E94D60540CF802FBB2039F00E94CE076F
:103BA0000E94E2060E94E20636CF0E940907FACF81
:103BB000812F837089F5B1102ECF402F4295469505
:103BC0004770440F440F802F8F70042E01C0880F60
:103BD0000A94EAF7202F207104FF07C02FE030E09D
:103BE00001C0220F4A95EAF7209516951695137095
:103BF000123069F050F430916C02113029F0822BB0
:103C000083230E94DB0B07CF832B822BFACF282B39
:103C100080916C028227F5CF8695BB2011F0812F11
:103C20008170882309F4F7CE402F4295469547705E
:103C3000440F440F802F8F70042E01C0880F0A9408
:103C4000EAF7202F207104FF07C02FE030E001C009
:103C5000220F4A95EAF720951695169513701230A3
:103C600069F050F430916E04113029F0822B8323D7
:103C70000E94830BD0CE832B822BFACF282B8091EE
:103C80006E048227F5CF1F70BB2029F0812F0E9480
:103C9000BA0B802F2DCF802F0E94F40B812F0E9412
:103CA000920BB9CE023F09F443C060F4003F11F11A
:103CB000013FB1F1BB2009F46BC0C11092CE812F3E
:103CC0008F7133C0033FC9F1043FA1F780911902FE
:103CD000BB2009F449C00E94250A80911C0287700C
:103CE0008430B1F50E94F00A812F8F710E94920BEF
:103CF000A12C91CEBB2079F094E09C1508F48BCEDA
:103D00001F7181E090E001C0880F1A95EAF7909149
:103D10006E048927ADCFA5E0AC1508F47CCEF0CFBA
:103D2000812F8F71BB2009F4BACF0E94BA0B73CEDA
:103D3000812F8F71BB20C9F3B2CF80E0BB2009F483
:103D400097CF1F7181E001C0880F1A95EAF790CFD5
:103D5000B4E0BC1568F21F71812F0E94BA0B63E0BA
:103D6000812F0E94C50BC4CF90917B03982B909319
:103D70007B03E4E0EC1540F40E94F00A0E94F70A8D
:103D800064E0812F8F71EDCF81E00E949E0BB0CF58
:103D9000C110D7CE812F8F7182CF8FE19EE4019722
:103DA000F1F7D9CE0031FFE51F0709F455CB0131FA
:103DB0002FE5120709F45ACB6801E7E5DE1A8823DC
:103DC00009F456CBFFEFCF16D10409F008F482CBEB
:103DD000033FFCE51F0709F44CCC08F035CC083D47
:103DE0003CE5130709F441CC093D4CE5140709F4FF
:103DF0004CCC073D5CE5150709F0B3CB26E241EE5C
:103E000061EE2FCC61E0C7010E94AC138C01D70199
:103E100012968C918823A9F0809100018F3F89F040
:103E20005FE7C52E53E0D52EB12CA12C9924939495
:103E300080910001082E000C990B8A159B050CF04F
:103E400054CAF7018281811177CA00313FE5130717
:103E500009F408CB01314FE5140709F0ADCF82E03A
:103E600002CB06311C45A9F58091C80169E2811198
:103E700065E388EA91E00E946105F7CC82720C3C10
:103E8000ECE51E0709F43BCD08F08CC0063C2CE5A0
:103E9000120709F420CD08F061C0033C4CE514077B
:103EA00009F40DCD08F04BC0023C8CE5180709F46D
:103EB000DFCC0A35BDE51B0709F45FCD08F03BCD2B
:103EC0000115FCE51F0709F448CD0E3D1C4509F41A
:103ED00051CDF70186819781009709F452CD0E9458
:103EE00092088C01F701B280C580C2943FE0C322E2
:103EF00080911C028770A1F0AB2CBB2091F0812F28
:103F0000807F803421F080E2800F883048F082E0AA
:103F10000E949E0B80911C028770AA24A394811199
:103F2000A12C912E92942FE09222FBE0F91508F437
:103F300072CDE92DF0E0E25DFC4C0C944C32043C77
:103F40009CE5190709F4C2CC4CE358E165E478E13B
:103F5000053CACE51A0709F4B6CCABCF093CBCE58F
:103F60001B0709F4C2CC78F4073CFCE51F0709F4F1
:103F7000B7CC40E358E164E278E1083C2CE5120755
:103F800009F4A1CC96CF0A3C3CE5130709F4B2CC66
:103F90000B3C4CE5140709F08CCF4EE458E16FE57B
:103FA00078E191CC013D5CE5150709F4B8CCA0F4AB
:103FB0000E3C9CE5190709F4AACC08F4A5CC0F3CEB
:103FC000BCE51B0709F4A8CC6EE089E0003DECE5F8
:103FD0001E0709F49ECC6DCF043DFCE51F0709F4D4
:103FE000A4CC68F4023D3CE5130709F49BCC61E0E6
:103FF00088E1033D4CE5140709F45ECC5ACF053D3A
:104000005CE5150709F494CC0D35100709F4A6C931
:1040100050CFCF93DF938091D401807FA1F4809122
:10402000D101882381F080911802D091D70160914D
:10403000CF017091D001A091D201B091D301C62FD0
:10404000C723D81303C0DF91CF91089590E0109754
:1040500011F0CF3F19F401968770F3CF9C0143E034
:10406000220F331F4A95E1F7F901E852FE4F4181D3
:104070004713F1CF40814613EECF42814111EBCF80
:10408000438154814A1B5B0B483C510520F78091CA
:10409000D4018F7080618093D401F901E352FE4F07
:1040A00080818F70806180838FEC91E00E94451940
:1040B000DF91CF910C94FD0AAF92BF92CF92DF9225
:1040C000EF92FF920F931F93CF93DF93CDB7DEB79D
:1040D00065970FB6F894DEBF0FBECDBF8C0185E0AB
:1040E000F801DE01519601900D928A95E1F7F801F1
:1040F000E2806FECA62E61E0B62E6091D201709145
:10410000D3016115710509F468C19091CF01409107
:10411000D001892F84238F3F09F45FC12081318131
:10412000C380D480F090D101F601E61BF70BFF208D
:1041300009F41DC18091D401582F507FE83CF1054E
:1041400008F0D0C0511181C0FE2C43132BC0921334
:1041500029C06091D5017091D601F801468157813F
:1041600064177507F9F4E1101DC08F7080618093AA
:10417000D401C5010E9445198091D401F8018583BD
:104180008F2D65960FB6F894DEBF0FBECDBFDF91C1
:10419000CF911F910F91FF90EF90DF90CF90BF9044
:1041A000AF900895CD2829F0822F83238F3F09F007
:1041B0002FC180E0F82FF170DF2E80FF3CC080918E
:1041C00018024091D701841315C0298B3A8B898935
:1041D0009A890E947213292F22952F702230F8F0AD
:1041E000243020F59F70F9F0F8019581907FD9F483
:1041F000D12C1FC090E0FC0153E0EE0FFF1F5A9539
:10420000E1F7E852FE4F5181351306C05081251366
:1042100003C05281E5120FC001968770D4CF9F7002
:1042200011F0882329F3805E883010F3C8010E94C2
:104230004519FD2CA5CFEE2009F4A2CF8091D40121
:1042400081608093D401F12C9BCF43131BC0921348
:1042500019C04091D5015091D601F80126813781CE
:104260004217530779F4E1100DC08583C8010E94FD
:10427000451988E0F801AFECB1E001900D928A9504
:10428000E1F77ECFC8010E947E13882339F1EE202A
:1042900029F18091D4018032A0F02091CF0130919A
:1042A000D0013A8729871B86DD86CC868E87809150
:1042B000D5019091D601988B8F87CE0109960E94E7
:1042C000451988E0F801AFECB1E001900D928A95B4
:1042D000E1F70E940920FF24F39452CFC8010E9405
:1042E0004519F9CF51110AC08FEC91E00E94451990
:1042F00088E0F50111928A95E9F7A5CF431318C01C
:10430000921316C04091D5015091D601F801268133
:1043100037814217530761F4E1100AC08583C80151
:104320000E94451988E0F50111928A95E9F728CF96
:10433000C8010E947E13882389F2EE2079F28091D1
:10434000D401803208F4BDCF2091CF013091D0014B
:104350003A8329831B82DD82CC828E838091D501B2
:104360009091D60198878F83CE010196A8CFE83C23
:10437000F105C0F6FE2CEE2009F4B0CF43131FC0A8
:1043800092131DC02091D5013091D601F80186818C
:1043900097812817390799F49091D40190FD69CF3E
:1043A000907F09F466CF8091D4018583903F09F412
:1043B0005DCF982F907F905F8F70892B56CFC8016B
:1043C0000E947E1381117DCF8091D4018160809302
:1043D000D401C8010E944519D3CEEE2009F47ECF46
:1043E000C8010E947E13F82E882309F477CF88E055
:1043F000F801AFECB1E001900D928A95E1F7809160
:10440000CF019091D0010E9472130E940920B8CE72
:1044100081E08E25CFCECF93DF93CDB7DEB7609707
:104420000FB6F894DEBF0FBECDBF29873A874B8702
:104430005C876D877E878F87988BCE0109960E9457
:104440005C20811112C088E0FE013996DE011196D0
:1044500001900D928A95E1F78C859D85892B29F035
:1044600089859A8589238F3FA9F5809118029091BB
:10447000D70189131CC060960FB6F894DEBF0FBE3B
:10448000CDBFDF91CF91089593E0AA0FBB1F9A95FE
:10449000E1F7A852BE4F98E0FE01319601900D92CF
:1044A0009A95E1F78093D7010E94FD0ADECFB8E02C
:1044B0008B9FC001112488529E4F0E945C2088234C
:1044C000D1F28091180290E001968770992780932D
:1044D0001802CBCFA091D701B0E0CD010196877033
:1044E0009927209118022817190671F60E946C145A
:1044F0001092D7011092180288E0EFECF1E0DF0192
:104500001D928A95E9F7B1CF0F931F93CF93DF9355
:104510008091D602E091D502CCE081111AC0DF91E2
:10452000CF911F910F910895D1E0DE0FD093D50266
:104530000E2F10E0EC9FF0011124E952FD4F838112
:104540009481892B29F08081918189238F3F51F4B7
:10455000ED2F8091D602E81738F31092D602109210
:10456000D502DDCFC09FD001C19FB00D1124A9524B
:10457000BD4F16968D919C911797892B29F418960B
:104580008D919C91019651F420813181428153811A
:1045900064817581868197810E940B22C09FF00102
:1045A000C19FF00D1124E952FD4F14821382D0CF28
:1045B00010927A031092790310921B018091780374
:1045C000809377030E9426060C9484223F924F9298
:1045D0005F926F927F928F929F92AF92BF92CF9293
:1045E000DF92EF92FF920F931F93CF93DF93C091CF
:1045F000770397E0892E01E010E02CE0322E3EEFA9
:10460000932E44244394809178038C1315C00E9408
:104610008422DF91CF911F910F91FF90EF90DF9057
:10462000CF90BF90AF909F908F907F906F905F9052
:104630004F903F900C942606D0E0FE01EE0FFF1F36
:10464000E159FC4F80819181889ED001899EB00DF7
:104650001124A95CBC4F14962C911497211157C0BA
:104660005090D602E7EDF2E030E020E0712C5D01E1
:10467000251508F04AC0E284F384D501CD90DC9082
:104680006FEF7FEF612C462D50E0DA01AA0FBB1FC0
:10469000AC0DBD1D0D90BC91A02D109731F0EA1608
:1046A000FB0609F4BA016394EECF6F3F7607A1F1E0
:1046B000D80102C0AA0FBB1F6A95E2F77A2AB80197
:1046C00002C0660F771F6A94E2F7AB0141505109AF
:1046D00074161506F9F4329EF001339EF00D112484
:1046E000E952FD4F889ED001899EB00D1124A95C2E
:1046F000BC4F12962D913C9113973783268390825D
:1047000091829187808715964C920E94F805219698
:10471000C37079CF148213822F5F3F4F3C96A8CF8E
:104720002F923F924F925F926F927F928F929F92C1
:10473000AF92BF92CF92DF92EF92FF920F931F93AF
:10474000CF93DF93CDB7DEB769970FB6F894DEBF8E
:104750000FBECDBF498B5A8B6B8B7C8B8D8B6111C0
:1047600010927C031D861E861F86188A85E0FE0136
:104770007196DE01199601900D928A95E1F70E94DB
:10478000550520911A0230911B02821B930B883829
:10479000934120F080911C0282FFFEC10E945505CA
:1047A00020911E0230911F02821B930B8838934187
:1047B00010F00E941A0A8C859D85892B31F089851D
:1047C0009A8589238F3F09F0D3C129853A854B8586
:1047D0005C856D857E858F8598890E940B22C2C07D
:1047E00048EFC4164CE5D40629F4882379F00E94DA
:1047F000D822EBCF69EFC6166CE5D60639F48823CC
:1048000029F080911B018111F2CFC2C107E313E0AF
:10481000E12CB12CA12C88248394912C2EEF522EC4
:1048200044244394F8014081518166246A94762C93
:1048300020E0822F90E0FC01EE0FFF1FE40FF51F38
:10484000608171816115710531F0C616D70609F4D2
:104850003C012F5FEECFF12CFFEF6F167F0609F4BE
:1048600043C0F8014481F0901B018F2D411180E07D
:10487000F82FF170FF2EF801258086819B85992302
:1048800009F406C1FF2009F403C1211013C0A401DB
:1048900001C0440F6A94EAF7842B86838091D30287
:1048A0009091D402C29730F462E370E07093D40226
:1048B0006093D302C40102C0880F991F2A95E2F7C2
:1048C0000197F80126812817190671F48091790360
:1048D00090917A03009709F45EC00E944605C39741
:1048E00008F459C0F8014482EF28FFEFAF1ABF0A5D
:1048F000095F1F4F28E0A216B10409F093CF8B8502
:10490000882309F420C1EE2009F41DC10E94550539
:1049100090937A03809379038091D602883010F5C2
:1049200091E0980F9093D60298E0FE013996DE014F
:10493000119601900D929A95E1F73CE0839FC0019A
:10494000112489529D4F28E0FE013196DC0101902F
:104950000D922A95E1F72FEF3FEFFC013187208779
:10496000D386C28669960FB6F894DEBF0FBECDBF60
:10497000DF91CF911F910F91FF90EF90DF90CF903B
:10498000BF90AF909F908F907F906F905F904F906F
:104990003F902F9008958091770350917803982F3E
:1049A000F0E0E0E0851314C0909377030E171F0723
:1049B00009F49ACF90E0FC01EE0FFF1FE159FC4F84
:1049C000B182A082019683709927809378038CCF5F
:1049D000282E312CF101EE0FFF1FE159FC4F2081F1
:1049E0003181F7E0F29FD001F39FB00D1124A95C53
:1049F000BC4F2D913C911197398F288F40E020E0DA
:104A000030E0E32FF0E0EE0FFF1F688D798DE60FA9
:104A1000F71F6080718061147104E1F0F80101906A
:104A2000F081E02DFF8BEE8B20E005C06616770647
:104A300009F44F2D2F5FE22FF0E0EE0FFF1F6E897C
:104A40007F89E60FF71F608171816115710571F72C
:104A50003F5FD7CF4423C9F0F801231708F0FD01C9
:104A60004482E017F10721F490937703F42E3CCFB2
:104A7000981305C0EA17FB0711F49F5F937091012B
:104A80002F5F3F4F822F83708DCFF0E0E0E0F7CFB4
:104A900090E021101FC0B40102C0660F771F2A9555
:104AA000E2F79B01215031098217930731F4442327
:104AB00009F447C0C5010E94F805C40101C0880F70
:104AC0006A94EAF7982F9095F80186818923868366
:104AD000F22C0ACF9C01062C02C0359527950A942A
:104AE000E2F7A90141705527BC0161507109862385
:104AF0009723892B11F5452B01F1F80182819381D0
:104B0000892BC1F01B821C821D821E8259825A820F
:104B10000E9455058160582F9D838C83F801828106
:104B200093818F83988729813A814B816D817E8122
:104B30000E940B22F8011582C0CFF22FF1702F2EA8
:104B4000BCCF2F2CBACF9091770380917803981720
:104B500031F00E94E622EE2009F437CE03CF0E9406
:104B6000842210927A03109279030E942606F3CFD2
:104B700061E0CE0109960E94AC136C018B85F7EFC2
:104B8000CF16FCE5DF0609F02BCE882309F43ECED4
:104B900081E080931B0119CE82E00E949E0BFECD26
:104BA0000F931F93CF93DF9300D000D00F92CDB718
:104BB000DEB78C019093D0028093CF02011580E282
:104BC000180720F5802F0E94050CC8010E94AD0C2B
:104BD0009801205E31092830310510F0012B59F47D
:104BE0000F900F900F900F900F90DF91CF911F912A
:104BF0000F910C94F40B0F900F900F900F900F905B
:104C0000DF91CF911F910F910C94DF0B8EEF898371
:104C10008A831B820E9455058160782F9D838C8337
:104C200049815A816B818D810F900F900F900F9069
:104C30000F90DF91CF911F910F910C9490230F93C0
:104C40001F93CF93DF938C01EB0165E772E08C2F0C
:104C50000E945E12892BA1F48FE19EE40197F1F787
:104C600000C00000DD27C359DD4F8881F8011082A4
:104C70001882833009F148F4813059F0823081F094
:104C8000DF91CF911F910F9108958430D1F085303D
:104C9000B9F78091750290917602009789F306C06A
:104CA0008091770290917802009799F3DF91CF91EC
:104CB0001F910F910C94D0258091790290917A02E6
:104CC000F3CF80917B0290917C02009779F720913D
:104CD00075023091760280917702909178022115C9
:104CE0003105D9F2009711F7C901E0CF0F931F9357
:104CF000CF93DF9300D000D00F92CDB7DEB78C01F9
:104D00009093D0028093CF02011580E21807E8F457
:104D1000C8010E94AD0C9801205E31092830310590
:104D200018F00115110571F40E94FB0B802F0F90F4
:104D30000F900F900F900F90DF91CF911F910F91D7
:104D40000C94370C0E94EA0BF1CF8EEF89838A8393
:104D500081E08B830E9455058160782F9D838C8331
:104D600049815A816B818D810F900F900F900F9028
:104D70000F90DF91CF911F910F910C949023CF93BF
:104D8000DF93EC010E9476268FE19EE40197F1F714
:104D900000C00000CE01DF91CF910C94D025CF92BE
:104DA000DF92EF92FF920F931F93CF93DF93182F11
:104DB000062FC0906E0480916C02C82AC7E0D0E034
:104DC000D12CF12CE12CD701C6010C2E04C0B695D4
:104DD000A795979587950A94D2F780FF14C0402F26
:104DE000612F8C2F0E94C8128130910561F00E94C2
:104DF000BF2681E0DF91CF911F910F91FF90EF903F
:104E0000DF90CF9008952197F0F6402F612F80E03A
:104E10000E94C812ECCF0F931F93CF93DF938C01A6
:104E2000862F65E772E00E945E12892BC9F4C0915B
:104E30007502D0917602209799F0F8018081833035
:104E400069F4CE010E94BF26CE010E94BF26CE018A
:104E5000DF91CF911F910F910C94BF268430B8F74A
:104E6000DF91CF911F910F9108950F931F93CF93CF
:104E7000DF938C01EB0165E772E08C2F0E945E12DC
:104E8000892B09F064C0FE01FF27D8018C91E359FA
:104E9000FD4F8130D9F419969C911997992311F0FF
:104EA00080830CC01A969C919923D1F382E0808371
:104EB00080917702909178020097D9F480917502E1
:104EC00090917602009709F442C013C08230E9F550
:104ED00019968C91199781112DC01A968C91811178
:104EE0000EC083E080838091790290917A020097CE
:104EF00019F1DF91CF911F910F910C94762684E0E8
:104F0000808380917B0290917C02009791F7809141
:104F10007502909176020097F9F00E94BF26809169
:104F2000770290917802009721F780917502909115
:104F30007602DFCF85E080838091750290917602C2
:104F4000009729F00E94BF26F0CF86E08083DF9192
:104F5000CF911F910F9108958091770290917802DF
:104F6000B1CFBF92CF92DF92EF92FF920F931F9338
:104F7000CF93DF9300D0CDB7DEB71A82198296E5C2
:104F8000C92E91E0D92E10E000E0EE24E394F12C3C
:104F9000F60181916F018F3F09F44CC0F894E82F1E
:104FA000E295EF70F0E021A18F70A70102C0440FDD
:104FB000551F8A95E2F7CA01922F982B91A392A1CF
:104FC0008095892382A3789400C0E8E5F1E030E081
:104FD00020E0B12C41914F3F09F464C0A42FA29569
:104FE000AF70B0E090968C9190E04F7002C09595B4
:104FF00087954A95E2F780FD55C08E2D022E01C09F
:10500000880F0A94EAF7B82A2F5F3F4F2530310501
:1050100009F7F601319780818F3F11F00E9438081F
:1050200050E55A95F1F7E1E0F0E0EC0FFD1FE00FDD
:10503000F11FB0820130110591F542E050E0BE0150
:105040006F5F7F4F84E292E00E94A032DD24D39410
:10505000009709F4D12C892B39F189819A81909399
:1050600025028093240281E0809323020E9455054B
:10507000909322028093210280912102909122023A
:105080000E9446050597A0F0809124028093350286
:1050900080912502809336021092230209C001E01C
:1050A00010E076CF80E0AFCF809123028111E4CF72
:1050B0008091000110E006E18F3F09F03FC0809130
:1050C0001B01811146C08D2D0F900F90DF91CF9164
:1050D0001F910F91FF90EF90DF90CF90BF900895B8
:1050E000029FF001039FF00D1124E158FC4FE2886C
:1050F000F388E114F10419F488ECE82EF12C029FF6
:10510000F001039FF00D1124E158FC4F86818823A4
:10511000A1F0858596850E944605E816F90668F493
:10512000109F70011124C70181589C4F0E94CC0A26
:10513000C7018B579C4F0E94820A1F5F212F30E0CE
:1051400080910001082E000C990B8217930744F6FA
:10515000B6CF8091790390917A03009709F4B3CF89
:105160000E9446052091D3023091D40228173907B6
:1051700008F0A9CF9091770380917803981759F0A0
:105180000E94E6221092D4021092D30210927A0367
:105190001092790398CF0E94842210927A03109281
:1051A00079030E9426068FCF90E080E00E94D232E1
:1051B0008A3E9E4F11F40C94EC1380E008951F92E8
:1051C0000F920FB60F9211242F933F934F935F933B
:1051D0006F937F938F939F93AF93BF93CF93DF93FF
:1051E000EF93FF93D091E900DF708091EC00C82F1E
:1051F000C17080FDC0E81092E9008091F000877FC7
:105200008093F00078940E9481141092E9008091BC
:10521000F00088608093F000CD2BCF70C093E90040
:10522000FF91EF91DF91CF91BF91AF919F918F91BE
:105230007F916F915F914F913F912F910F900FBE92
:105240000F901F9018951F920F920FB60F92112476
:105250002F933F934F935F936F937F938F939F937E
:10526000AF93BF93EF93FF938091E10082FF09C05A
:105270008091E20082FF05C08091E1008B7F8093E6
:10528000E1008091DA0080FF23C08091D80080FF88
:105290001FC08091DA008E7F8093DA008091D90060
:1052A00019BC80FF98C082E089BD09B400FEFDCF23
:1052B00081E08093640480913F04811109C00E94C1
:1052C000A8030E9473048091E20084608093E2004E
:1052D0008091E10080FF17C08091E20080FF13C041
:1052E0008091E2008E7F8093E2008091E2008061F5
:1052F0008093E2008091D80080628093D80019BC2E
:1053000085E0809364048091E10084FF28C080914F
:10531000E20084FF24C019BC82E089BD89B5982FC2
:10532000917080FFFBCF8091D8008F7D8093D80053
:105330008091E1008F7E8093E1008091E2008F7E7A
:105340008093E2008091E20081608093E20080918E
:105350006504882309F444C084E080936404809148
:10536000E10083FF27C08091E20083FF23C080918A
:10537000E100877F8093E10082E0809364041092D3
:1053800065048091E1008E7F8093E1008091E200CE
:105390008E7F8093E2008091E20080618093E20042
:1053A00042E060E080E00E9441048091F00088606B
:1053B0008093F000FF91EF91BF91AF919F918F91FA
:1053C0007F916F915F914F913F912F910F900FBE01
:1053D0000F901F9018951092640410923F0478CF9C
:1053E0008091E30087FD93E090936404B8CF7894B4
:1053F0001F921FB61F9211248F939F93AF93BF9359
:105400008091360490913704A0913804B09139040A
:105410000196A11DB11D8093360490933704A0938B
:105420003804B0933904BF91AF919F918F911F9031
:105430001FBE1F9018951F921FB61F9211248F93A5
:105440009F93AF93BF9380913504811113C08091D6
:10545000360490913704A0913804B09139044196F4
:10546000A11DB11D8093360490933704A093380496
:10547000B0933904BF91AF919F918F911F901FBE40
:105480001F901895CDB7DEB7E4970FB6F894DEBF3E
:105490000FBECDBF84B7877F84BF0FB6F894A895A1
:1054A00080916000886180936000109260000FBE60
:1054B00080E890E00FB6F8948093610090936100CB
:1054C0000FBE85B7806885BF85B7806885BF86E3D6
:1054D00098E09093A7018093A6010E9472120E9407
:1054E00013140E94A8030E9473048091E200846058
:1054F0008093E2007894809164048823A1F0109155
:10550000E9001F709091EC00892F817090FD80E878
:10551000182B1092E9008091E80083FD0E9481140D
:105520001F701093E90082E084BD93E095BD9DE774
:1055300097BD80936E000E94EC13811102C00E94FF
:105540004F1286EC0E94380884E30E94380808E570
:1055500011E0FDE5EF2EF1E0FF2ED8018D918D01D8
:105560008F3F11F00E943808E016F106B1F7109253
:1055700024021092350210922502109236020E94E7
:10558000D428811102C00E94DB1882E090E00E94C2
:10559000C432809330020E94051490933B048093A0
:1055A0003A040E94B127EFE5FAEE3197F1F700C017
:1055B00000000E94B1278091350280FF08C06FEF84
:1055C0007FEF90E080E00E94F6320E94350583E094
:1055D00090E00E94C4320E94DB0B80912602811170
:1055E00033C00E94D428811104C00E94DB180E949D
:1055F000CC1888E090E00E94CC32609367027093F0
:1056000068028093690290936A026E7F71F40E942F
:10561000CC1888E090E00E94CC32609367027093CF
:1056200068028093690290936A020E943D0610927C
:105630004B028091670280FF04C060E086950E9463
:10564000701881E08093260261E771E04DE252E03C
:10565000EDE68E2EE1E09E2EEFE6F1E021E030E077
:105660001191812F82958F7090E0DC019196FC90D2
:1056700091971F70E12E690101C0CC0C1A95EAF7D1
:105680000C2D00950F2191960C93919792961C9159
:1056900092971C2992961C93D401FD904D010F2DD9
:1056A00002950F7010E0D8019196BC90BF2DBF708D
:1056B000FB2E690101C0CC0CBA95EAF7DC2CD09422
:1056C000DB20D8019196DC9291979296DC9092978C
:1056D000DC289296DC92DC0190968C9190E002C0DE
:1056E00095958795EA94E2F78170D80190960C9190
:1056F00010E002C015950795FA94E2F790E000FDDE
:1057000092E0892BDA018D93AD016E177F0709F0C6
:10571000A7CF81E091E09093320480933104442438
:105720004394222423948091640412E0853009F488
:105730008DC20E94B127882359F08FB7F894409109
:1057400036045091370460913804709139048FBF4A
:105750009091350280913102981761F0292F282706
:1057600080E011E0322F312309F08BC28F5F110FDF
:105770008530C1F79091360280913202891709F481
:1057800089C2282F292780E011E0322F312309F424
:105790007CC221E0EE24E394F12C8BA72CA791236B
:1057A00081E009F480E08DA70E9455058160782F83
:1057B0009FA78EA74BA55CA56DA58FA50E949023E2
:1057C000F701EF5CFD4F80811827108380914B0219
:1057D0008823D1F180914A02E0916702E695E81BA7
:1057E000E0934602823009F066C2F0E0E857FD4FD0
:1057F000E4910E2F10E069EBE62E6FE0F62E80911B
:105800004702882361F0109247020E945505909349
:1058100045028093440210924902109248020E946D
:105820005505E0914402F09145028E1B9F0B8F3F7E
:105830009F4750F4E00FF11FF0934502E0934402BC
:1058400084E492E0F70109955BE2E52E52E0F52E43
:1058500009E212E06DE6A62E61E0B62E7FE6872E05
:1058600071E0972EEDE2CE2EE2E0DE2E512C312CAF
:10587000F4E06F2E712CD601ED916D01EE0FEE0F5D
:10588000D4012D914D01A22FA295AF70B0E090965A
:105890008C9190E02F7002C0959587952A95E2F73C
:1058A00081709927D5014D915D01A42FA295AF700C
:1058B000B0E090962C9130E04F7002C0359527955E
:1058C0004A95E2F7A9014170552720FF02C042E046
:1058D00050E0842BE82BD6011197EC93EF70F0E0A9
:1058E000E35AFE4F8081F7019081890F808320E089
:1058F00084304CF0D8018C918F5F8C9360E0852DC3
:105900000E94CF2621E0F70180818D3F4CF4D80121
:105910008C9181508C9361E0852D0E94CF2621E0EF
:10592000F7018081082E000C990BB3010E941632FA
:10593000D7018D937D01322A0F5F1F4FB1E05B12BB
:1059400014C2332059F08FB7F89440913604509127
:10595000370460913804709139048FBF86E0EEE31C
:10596000F2E08E010F5F1F4FD80101900D928A95D2
:10597000E1F7D0904002C0904102F0904202E090E6
:105980004302109240021092410210924202109281
:1059900043028D2D8C2909F448C080913C029091DE
:1059A0003D020E9446059C0190913802992309F41A
:1059B00024C523333105C8F19F3F19F09F5F9093B1
:1059C0003802DD2059F00E94AE079FEF1D140CF441
:1059D00091E0899F802D112480934002CC2059F0C2
:1059E0000E94AE079FEF1C140CF491E0899F802D5C
:1059F000112480934102309140023323B1F0209171
:105A00004102222391F045EB3403C0011124992374
:105A100009F4AEC19093400245EB24039001112498
:105A2000332309F4A8C1309341028F2D8E2909F444
:105A300048C080913A0290913B020E9446059C0129
:105A400090913702992309F4D3C425363105C8F162
:105A50009F3F19F09F5F90933702FF2059F00E94FB
:105A60008C079FEF1F140CF491E0899F802D112467
:105A700080934202EE2059F00E948C071E1414F00D
:105A800055245A94859D502C1124509243023091F4
:105A900042023323B1F020914302222391F045EBDF
:105AA0003403C0011124992309F468C19093420280
:105AB00045EB240390011124332309F462C1309390
:105AC00043028091400290914102892B90914202C1
:105AD000892B90914302892B11F00E94E20686E007
