:100000000C9411040C9458040C9458040C94580447
:100010000C9458040C9458040C9458040C945804F0
:100020000C9458040C9458040C94B0230C946C2336
:100030000C94AB240C9458040C9458040C9458045D
:100040000C9458040C9458040C9458040C945804C0
:100050000C9458040C9487240C9458040C94580461
:100060000C9458040C9458040C9458040C945804A0
:100070000C9458040C9458040C9458040C94580490
:100080000C9458040C9458040C9458040C94580480
:100090000C9458040C9458040C9458040C94580470
:1000A0000C9458040C9458040C945804050109024B
:1000B000A10185020901A100050919012905150001
:1000C00025019505750181029501750381010501E1
:1000D000093009311581257F950275088106093897
:1000E0001581257F950175088106050C0A380215D2
:1000F00081257F950175088106C0C005010980A191
:1001000001850319012AB700150126B7009501756D
:10011000108100C0050C0901A101850419012AA064
:1001200002150126A002950175108100C005010984
:1001300006A1018505050719E029E71500250195A8
:1001400008750181020507190029EF1500250195A1
:10015000F0750181020508190129059505750191C0
:1001600002950175039101C00660FF0961A10109B3
:1001700062150026FF0095207508810209631500AD
:1001800026FF00952075089102C005010906A1010E
:10019000050719E029E71500250195087501810279
:1001A0009501750881010507190029FF150026FF33
:1001B0000095067508810005081901290595057542
:1001C000019102950175039101C00000000000003B
:1001D000000000000000000000000000000000001F
:1001E00000000000000000000000000000007E0F82
:1001F00000D4FFFFFFC700000078000000000000EF
:1002000000002A2B28000000000000000000000071
:10021000000000000029000000002C1E34202122D4
:1002200024342627252E362D3738271E1F2021223D
:10023000232425263333362E37381F0405060708B6
:10024000090A0B0C0D0E0F101112131415161718A6
:10025000191A1B1C1D2F3130232D350405060708E4
:10026000090A0B0C0D0E0F10111213141516171886
:10027000191A1B1C1D2F3130354CFD377A585A0086
:100280000004E6D6B4460200210116000000742FD7
:10029000E5A3E0063B022D5D003D8889C65436C3C8
:1002A000174FE4E33D496D9840674548C84EA7366F
:1002B00079390E10AB05B23D50A1C4DF10194CD4F2
:1002C000EEDE69280FAE43E8E974B2CDC1663609A7
:1002D000B597F19EC0A2BD6C9D25F282000AEA5B33
:1002E000D1FCEB6A05EC4C7BA071D74D88AC079133
:1002F000558EDEEAEC85BB48FA17A57A853C4E2878
:10030000766567DEC5831EF7A9B6ED2E9FB776F733
:10031000BDF6E0D0B1D93091BF8930EBE62B487EF5
:10032000E67617BD945B6D4A94658F4189F44BBFA7
:10033000BE6D4BF0D05DA262AB96E74CB7D514CC46
:10034000BCAA6CAB45F7E5EDE876156A68C7FD46D3
:100350006C967C9D343A3BB2FD7F26BD1C55DB0D6F
:100360009BA3D8B9E5F1D456FB8871A62DF5BCFE48
:100370001F7C09005C7EBCBC12F352D08BFB5D502D
:100380006ED8C46A32980F781C085F4E19A0F8C95D
:10039000D9E5339170E09D4100BCCCC260BEEF1145
:1003A00034F723B65BB6AAB1895C505245CEA97C1E
:1003B0007C18FA6345C1F4DDA148AEEE3A00D1FCE9
:1003C00085460EB32E382AF67B564C55FE7C467D6C
:1003D0005D0C8B4689C8247CB1B04A8A51DCA0F3FD
:1003E0007D37FF069444915C055F691E14C8AF7F9A
:1003F0006EEB4C9EEB0790A3F200FCF6C2507C28FB
:1004000072372307A457071CB2B170B41885E8B738
:100410005BCEAD542912C80E7F13209014E823DE62
:1004200092BEA0BC418B0B69AEAE574E08CCF10218
:10043000C809934C9A89BC84A417705FF0B9E3A3F0
:10044000BF1A5B1EA046EF9A8FA0E4E264AE2ED6E0
:100450007B9E7E037E7DB9572FF85266982F207AB7
:10046000369A039108E7628F1EC163257A613D2A9F
:100470004663FD39841D3137638F92A48FED2FFBC6
:10048000064329FE2CCED931C3712FA224AA9C1871
:100490007F0DFAAD46D653CC78D17BB43404DD461B
:1004A000FD207AEC360DCABD15FD526E87BE7EF971
:1004B0005E597981592EEAEEBA9138EFEFAF3B01E0
:1004C0007DF6331A6E1400000000C62E3D1ED6F3D2
:1004D00071E10001C904BC0C000027358C5EB1C479
:1004E00067FB020000000004595A29001E001F008B
:1004F0002000210022002300000035002B00140002
:100500001A0008001500170000004B003900040015
:100510001600070009000A0000004E00E1001D005F
:100520001B0006001900050000000000E0000000AC
:10053000E2002C000000E34100004C0031002E00DE
:100540002D0027002600250024002A0030002F005F
:10055000130012000C0018001C00000028003400DA
:1005600033000F000E000D000B005200E5003800B4
:10057000370036001000110005004F0051005000F8
:10058000E400E600000000002C0001003A003B00FF
:100590003C003D003E003F00000001000100010062
:1005A0000100010001000100000001000100010044
:1005B00001000100010001000000005C01000100D9
:1005C0000100010001000100000000000100000026
:1005D00001000100000001000000010001004500D1
:1005E00044004300420041004000010001000100BE
:1005F00001000100010001000100000001000100F4
:1006000001000100010001000100010001000100E2
:1006100001000100010001000100010001000100D2
:1006200001000100000000000100010001000100C4
:1006300001000100010001000000010001000100B3
:1006400001000100010001000000010001000100A3
:100650000100010001000100000001000100010093
:100660000100010001000100000000000100000085
:100670000100010000000100000001000100010074
:100680000100010001000100010001000100010062
:100690000100010001000100010000000100010053
:1006A0000100010001000100010001000100010042
:1006B0000100010001000100010001000100010032
:1006C0000100010000000000010001000100010024
:1006D0000100010001000100000001000100010013
:1006E0000100010001000100000001000100010003
:1006F00001000100010001000000010001000100F3
:1007000001000100010001000000000001000000E4
:1007100001000100000001000000010001000100D3
:1007200001000100010001000100010001000100C1
:1007300001000100010001000100000001000100B2
:1007400001000100010001000100010001000100A1
:100750000100010001000100010001000100010091
:100760000100010000000000010009025B0003011C
:1007700000A0FA0904000001030101000921110190
:1007800000012240000705810308000A0904010056
:1007900002030000000921110100012222000705C7
:1007A0008203200001070503032000010904020061
:1007B000010300000009211101000122BC0007050E
:1007C000840320000A1201000200000008276207CB
:1007D000E00100010203011C037600690061006C66
:1007E000003A0066003600340063003200620033D5
:1007F000006300000014034E006F006D0069006389
:10080000002D00450078007400000010036700729E
:10081000006C00640074006D006B000000040309AC
:10082000040011241FBECFEFDAE0DEBFCDBF04B657
:1008300003FE27C08091350490913604A0913704BF
:10084000B09138048730904BA740B04BD1F4109250
:10085000350410923604109237041092380414BEF6
:1008600084B7877F84BF0FB6F894A8958091600005
:10087000886180936000109260000FBEE0E0F8E3B2
:10088000099511E0A0E0B1E0ECEFF5E502C00590BC
:100890000D92AA36B107D9F724E0AAE6B1E001C06B
:1008A0001D92A533B207E1F70E94D2240C94CA2A04
:1008B0000C940000E8EDF0E080818E7F8083109240
:1008C000E2001092DA001092E100A0EEB0E08C910C
:1008D00081608C9380818F77808319BCA7EDB0E015
:1008E0008C918E7F8C9380818F7E80831092020406
:1008F00008952091E4003091E50095E6A90120914A
:10090000EC00822F817020FF06C08091E80080FFFC
:1009100006C080E008952091E80022FD1AC0809171
:100920002704882389F0853089F08091EB0085FDCC
:100930000FC02091E4003091E50042175307F9F20F
:100940009150E1F684E0089582E0089583E00895EF
:1009500081E00895EF92FF920F931F93CF937C0154
:100960008B010E947904C82F811117C08091E80083
:1009700085FD0BC08091E8008E778093E8000E948F
:100980007904882399F3C82F08C0F70181917F016A
:100990008093F1000150110949F78C2FCF911F91DD
:1009A0000F91FF90EF9008958091290487FF13C065
:1009B0008091E80082FF06C08091E8008B778093E9
:1009C000E80004C0809127048111F2CF089580913E
:1009D00027048823D9F38091E80080FFF8CF809125
:1009E000E8008E77ECCF982F9093E900242F762F94
:1009F00050E0891731F07091EC002091ED0050919A
:100A0000F00021FD07C09F5F973071F78093E900E8
:100A100081E008953091EB003E7F3093EB00309100
:100A2000ED003D7F3093ED003091EB00316030936D
:100A3000EB007093EC002093ED005093F0002091B8
:100A4000EE0027FDE0CF80E00895CF92DF92EF9295
:100A5000FF920F931F93CF93DF93C8EDD0E088816F
:100A60008F7E8883E7EDF0E080818160808384E081
:100A700082BF81E08093020488818E7F888302EEAA
:100A800010E0F80110821092DA0081EEC82ED12C0D
:100A9000F601108288818F778883888180688883B7
:100AA00088818F7D888319BC1092270410922804B6
:100AB000109226041092250490EEE92EF12CF701F5
:100AC00080818B7F808388818160888342E060E0C1
:100AD00080E00E94F304F60180818E7F8083F8011C
:100AE000808181608083808188608083F70180813C
:100AF0008E7F8083888180618883DF91CF911F9171
:100B00000F91FF90EF90DF90CF900895FC018091BE
:100B10002F049091300486179707A0F06115710596
:100B200029F49091E8009E779093E80090E0611599
:100B3000710551F4911108C08091E80082FF34C022
:100B400080E00895BC01F2CF809127048823C1F191
:100B50008530C1F18091E80083FD30C08091E800CC
:100B600082FDEACF8091E80080FFE1CF8091F30021
:100B70002091F200382F6115710519F028303105E8
:100B800058F091E02830310509F090E02091E8001C
:100B90002E772093E800CBCF81918093F1006150B4
:100BA00071092F5F3F4FE7CF80912704882341F0E1
:100BB000853041F08091E80083FFBECF81E0089549
:100BC00082E0089583E0089580910404089587E702
:100BD00097E7909301088093000888E19AE00FB6A8
:100BE000F894A895809360000FBE90936000FFCFAB
:100BF0009C014FB7F8948091F9039091FA03A0916A
:100C0000FB03B091FC034FBF821B930B08952FB7DA
:100C1000F8948091F9039091FA03A091FB03B091AD
:100C2000FC032FBF089520910E012223C9F02091CB
:100C3000FD0327FF15C0E62FE695E695E695EE3114
:100C4000D8F4E80FF92FF11D677021E030E001C002
:100C5000220F6A95EAF7209582812823228308953E
:100C6000FC01329608962191621303C0DF011197AF
:100C70001C92E817F907B9F7089520910E01222375
:100C8000C1F02091FD0327FF14C0E62FE695E695FD
:100C9000E695EE31F8F4E80FF92FF11D677021E0C9
:100CA00030E001C0220F6A95EAF78281822B8283AD
:100CB0000895FC0132962FEF30E04191641751F016
:100CC0002F3F19F4411101C0232F3F5F3630A9F7A0
:100CD0002F3F09F40895820F911D27FD9A95FC017D
:100CE000628308952091F6033091F703281739079E
:100CF00071F09093F7038093F603E091F403F09181
:100D0000F503309721F00084F185E02D09940895D2
:100D10002091F2033091F3032817390771F0909373
:100D2000F3038093F203E091F403F091F50330971D
:100D300021F00680F781E02D09940895E091F403F5
:100D4000F091F503309721F00190F081E02D0994A6
:100D500080E00895DC0160913A0380913B03962F77
:100D6000891301C00895292F30E0F901EE0FFF1F0C
:100D7000EE5CFC4F408151814A175B07A1F487E08C
:100D80008A9FA0018B9F500D112446505D4F81E03A
:100D9000FA0184839613E6CF2F5F3F4F23703327EA
:100DA00020933A0308952F5F3F4F922F9370D8CF2F
:100DB0001092970210929602EAEFF2E0858181117B
:100DC00002C014821682379683E0E233F807B1F747
:100DD00008950E9407069C0190912C0280912D029B
:100DE000982B21F0309329022093280290912E0213
:100DF00080912F02982B21F0309327022093260216
:100E0000E091F403F091F503309749F082E080938C
:100E10002A020480F581E02D8AE292E00994089587
:100E200090912C02803F59F480912D0287FF0DC0D4
:100E300010922D0291110BC01092240208C0813F24
:100E400081F480912D0218169CF3992381F08091F2
:100E50002E0290912F02892B09F064C01092230278
:100E60000895823F49F497FFF0CF10922C028091B1
:100E70002D028111ECCFE0CF833F19F41916ACF3AA
:100E8000E4CF20912E02893F29F41216F4F6109235
:100E90002E02DBCF8A3F19F427FFD7CFF8CF20915E
:100EA0002F028B3F29F427FFD0CF10922F02CDCFF6
:100EB0008C3F19F41216CCF3C8CF843F31F48091E3
:100EC0002B028E7F80932B02C0CF853F21F480912F
:100ED0002B028D7FF7CF863F21F480912B028B7FF1
:100EE000F1CF873F21F480912B02877FEBCF883FA2
:100EF00021F480912B028F7EE5CF8D3F31F48091DC
:100F000025028E7F80932502A0CF8E3F21F4809111
:100F100025028D7FF7CF8F3F09F097CF8091250273
:100F20008B7FF0CF08958091250280FD16C081FD52
:100F300016C082FD16C0809123028823A1F088325A
:100F400080F428E0829FC001112468E270E00E94D2
:100F50001E2A862F672B39F0089582E0089584E0D9
:100F6000089588E0089581E008958091250280FD2C
:100F700014C081FD14C082FD16C080912402882314
:100F800081F0843180F422E3829FC001112464E166
:100F900070E00E941E2A862F08958CE0089589E152
:100FA000089585E0089582E30895803F31F40E941A
:100FB000B507819580932D020895813F19F40E9411
:100FC000B507F8CF823F31F40E94B5078195809331
:100FD0002C020895833F19F40E94B507F8CF893F8A
:100FE00029F40E94930780932E0208958A3F21F4EA
:100FF0000E9493078195F7CF8B3F31F40E949307AE
:10100000819580932F0208958C3F19F40E949307D5
:10101000F8CF843F31F480912B02816080932B02C2
:101020000895853F21F480912B028260F7CF863F9F
:1010300021F480912B028460F1CF873F21F48091CD
:101040002B028860EBCF883F21F480912B028061D6
:10105000E5CF8D3F31F48091250281608093250298
:1010600008958E3F21F4809125028260F7CF8F3F53
:10107000B9F7809125028460F1CF80E00895F8945B
:10108000E82FE295EF70F0E031A1282F2F7081E07A
:1010900090E001C0880F2A95EAF7982F9095932346
:1010A00091A392A1892B82A3789408959091FD0336
:1010B00092FF06C0282F28712830F9F4877F8460BA
:1010C00093FF06C0282F28712831F1F4877E8461B0
:1010D0002091FE0320FF06C0382F38713830D9F434
:1010E000877F816021FF06C0282F28712831D1F425
:1010F000877E816194FD877E0895282F2471243096
:10110000F9F68B7F8860DCCF282F2471243101F71A
:101110008B7E8861DDCF382F3171313019F78E7FAA
:101120008860E0CF282F2171213121F78E7E8861E0
:10113000E1CFCF93DF93EC0182389105A9F1D8F587
:101140008133910509F496C048F58932910509F477
:101150008AC08A9709F495C0C11521E5D20708F025
:10116000BCC0C11530E5D30708F014C1C83ED10595
:1011700008F09CC0C03ED10560F5C83AD10508F022
:1011800087C0C53AD10508F0FDC0C130D10509F1CD
:101190002097F9F0C430D105E0F440C085339105C3
:1011A00009F45AC0C997C1F68091FD03837089F094
:1011B000C0EED0E00EC0833E910599F170F4803E00
:1011C000910501F1823E910539F68091FD0382FD82
:1011D00021C0CE01DF91CF910895863E910561F146
:1011E000873E910571F1843E910509F0B5CF80915C
:1011F000FE0381FFEECF8091FD03C7EED0E084FDBA
:101200000DC0E7CF8091FD0380FD12C19091FE03D8
:1012100090FFDFCFC3EED0E084FFDBCFD0E0C0E0B3
:10122000D8CF8091FD0382FD06C19091FE0390FD11
:10123000BFCF84FFCECFF2CF8091FD0383FDDDCF02
:10124000C8CF8091FD0383FDF9C09091FE0391FF0B
:10125000F0CFC4EED0E0BDCF8091FD0385FFB9CFC4
:10126000C9E2D0E0B6CF8091FD0385FFB2CFC5E3E0
:10127000D0E0AFCF8091FD0386FFABCFCAE2D0E0D4
:10128000A8CF8091FD0386FFA4CFC1E3D0E0A1CF1A
:10129000CF3BD10518F6C85AD0E0CC0FDD1FC65E93
:1012A000DE4F0990D881C02DD46493CFC11540E2A0
:1012B000D40758F4C11581E0D80708F08ACFC03FA1
:1012C000D10508F4ABCFD06584CFC11590E4D90720
:1012D00008F4A4CFDF70D06A7CCFC11525E5D20712
:1012E00000F5C11534E5D30708F08AC0C11543E500
:1012F000D40708F071C0C11582E5D80708F467C0AB
:10130000CE018370992721E030E002C0220F331F05
:101310008A95E2F7C695C69580E2C89FE001112440
:1013200052C0C11599E5D907A8F4C11528E5D2071F
:1013300008F06BC0C11536E5D30708F06FCF8C2FCE
:101340000E945608C82FD0E0DC2FCC27CC27DF71B5
:10135000D0623FCFC1154AE5D40708F45BC0CE0187
:1013600090568115904208F059CF8D2F8F710E94B1
:10137000560890E0982F882788279F719C012C2B76
:10138000E901E6CFC55AD0E0C95EDE4FC881D0E0A2
:10139000D0641FCFCE01E4E096958795EA95E1F7FA
:1013A00083702C2F26952695237040E2249F900170
:1013B0001124382B8C2F8370C1E0D0E002C0CC0FF9
:1013C000DD1F8A95E2F7C22BD32BDC6802CFDC2F1E
:1013D000CC27C16FD06AFDCECE018370992721E062
:1013E00030E002C0220F331F8A95E2F7C695C695FA
:1013F00090E2C99FE0011124C22BD32BDA68E9CE19
:10140000DC2FCC27C46FD06AE4CEDC2FCC27C06F92
:10141000D06ADFCE8C2F8F700E94560834E0D695AC
:10142000C7953A95E1F7CF709C2FEC01D069D1CEEA
:10143000C9E3D0E0CECEC2EED0E0CBCEC6EED0E057
:10144000C8CE8091FC01882331F01092FC011092EB
:10145000FB011092FA010895809590913E03982324
:1014600090933E03089580913E0390913F03892B12
:101470009091F901892B80936C018091FC01882364
:1014800029F10E9407062091FA013091FB01821B8D
:10149000930B8838934110F00E94210A80916C01CF
:1014A0009091FC01892B80936C0180910E0188231F
:1014B00041F18091FD0387FF24C08EE1EEE6F1E06B
:1014C00090E0815000F591110E94210AE091F4030F
:1014D000F091F5033097E1F080910E01882359F0E7
:1014E0008091FD0387FF07C080916C0180936D019F
:1014F00085E080936C010280F381E02D8CE691E021
:10150000099486E0DBCF21912223D9F29F5FD9CFC6
:101510000895EF92FF920F931F93CF93DF93EC0107
:101520008A85811139C0EB80FC8087E5F81A26E1B5
:101530002E9DC0012F9D900D1124DC01AE5BBC4F90
:101540001496ED91FC911597309731F054966D916A
:101550007C91885B9C4F099586E18E9D80018F9DD3
:10156000100D11240E5B1C4FF80187810E942C0A7C
:10157000F8018085982F909580913F03892380936F
:101580003F030E94330A188219861B861E821D8221
:101590001092410310924003DF91CF911F910F9160
:1015A000FF90EF900895CF93DF93EC01898981112B
:1015B0001BC081E0898B80913E039F81892B8093A2
:1015C0003E0380913F039885892B80933F030E94BF
:1015D000330AEA81FB81309739F06C897D89CE012D
:1015E0000696DF91CF910994DF91CF9108951092E3
:1015F000F8011092F7011092F60108958091F5011B
:1016000081111092F50108958091F4019091B30138
:10161000981301C008958F5F8770FACF9E3F49F1FC
:10162000990F990F990FE92FE80F9E2F9770E69564
:10163000E695E69583E0E89FF0011124E357FE4F1D
:1016400050E040E080E0219130E0092E02C0369564
:1016500027950A94E2F721703327042E01C0220F48
:101660000A94EAF7822B4F5F5F4F4330510559F7D9
:10167000089580E008959E3F69F1990F990F990FA1
:10168000E92FE80F8E2F877041E001C0440F8A9543
:10169000EAF7E695E695E69583E0E89FF0011124E8
:1016A000E357FE4F30E020E070E05191DF011197E9
:1016B000CB01022E02C0969587950A94E2F78170BD
:1016C00081958527842385278C932F5F3F4F233077
:1016D000310559F7089590E080E00E94880690E077
:1016E00080E00E94720610923F031092F9010E945E
:1016F000330A86E0EAE2F2E0DF011D928A95E9F71B
:101700001092240210922302109225020C94E906F2
:10171000809331040C946B0B80913104982F967058
:10172000963019F488600C94880B877FFCCF21E0F9
:1017300030E001C0220F8A95EAF7209580913104AC
:1017400082230C94880B9091F801809589238093D3
:10175000F801282F277039F4282F082E000C330B9E
:101760009217130621F49091FE0392FF07C085950E
:10177000859585950E94970B0C94F70A089521E0B2
:1017800030E001C0220F8A95EAF780913104822B64
:101790000C94880B9091FE0392FD10C098E0899FF5
:1017A00090011124622B6093F8010E94BF0B0E94EC
:1017B00007069093F7018093F60108950C94BF0BF0
:1017C0008093FD010C946B0B882341F080959091E0
:1017D0003F03892380933F030C94330A08958823A1
:1017E00039F090913F03982B90933F030C94330A68
:1017F0000895882321F00E942C0A0C94330A08953E
:10180000882339F090913E03982B90933E030C94DB
:10181000330A0895882379F19CEF980F913A38F4B0
:10182000682F8CE691E00E9413060C94330A90E234
:10183000980F983050F4877091E001C0990F8A9505
:10184000EAF7892F0E942C0AF0CF9BE5980F93307E
:1018500020F490E080E00C94880698E5980F97318A
:1018600020F490E080E00C947206803F20F00E940B
:1018700010070C94E9060895CF93C82F882309F424
:101880006FC08CEF8C0F813AC0F580910E018823D8
:1018900011F18091FD0387FF1EC0EC2FE695E695C0
:1018A000E695F0E0E459FE4F828190E04C2F4770BE
:1018B00021E030E002C0220F331F4A95E2F7822375
:1018C0009323892B91F06C2F8CE691E00E941306F4
:1018D0000E94330A0AC0EEE6F1E084E791E021912C
:1018E000C21789F38E179F07D1F76C2F8CE691E012
:1018F0000E943D06CF910C94330A80E28C0F883011
:1019000068F4C77021E030E001C0220FCA95EAF701
:1019100080913E03822B80933E03ECCFEBE5EC0FEE
:10192000E33040F4F0E0E95EFE4F808190E0CF913B
:101930000C948806E8E5EC0FE73150F4F0E0EE0F88
:10194000FF1FE65EFE4F80819181CF910C9472065D
:10195000C03F30F08C2F0E94D507CF910C94E90640
:10196000CF9108959C013A9521153F4150F5FC0116
:10197000EE27F170BC0166277270AC0144275470E9
:101980009C012227387094FF0EC080E1EF2B09F4F0
:1019900080E0672B09F08062452B09F08064232BDF
:1019A00089F08068089581E0EF2B09F480E0672BCF
:1019B00009F08260452B09F08460232B19F08860C0
:1019C000089580E0089590912704943029F580933C
:1019D000FF0370930104609300049093E9008FEF7C
:1019E0009091E800815095FD06C095ED9A95F1F72C
:1019F00000008111F5CF8091E80085FF0DC050E017
:101A000040E063E070E08FEF93E00E94AA048091D1
:101A1000E8008E778093E8000895BC0184E00C9480
:101A2000E30CBC0183E00C94E30C9C0184E0809304
:101A3000E9009FEF8091E800915085FD06C085ED9B
:101A40008A95F1F700009111F5CF8091E80085FFAC
:101A50000CC050E040E066E070E0C9010E94AA04BA
:101A60008091E8008E778093E8000895CF93DF930C
:101A7000EC0180910E018823B1F18091FD0387FF75
:101A800032C060E284E08093E9008FEF9091E8003B
:101A9000815095FD06C095ED9A95F1F700008111F2
:101AA000F5CF8091E80085FF1BC080910E0170E0AA
:101AB00050E040E0811104C050E040E068E070E098
:101AC000CE010E94AA048091E8008E778093E800FE
:101AD00080E2FE01A5E0B4E001900D928A95E1F765
:101AE000DF91CF91089568E081E0CDCF1F93CF9330
:101AF000DF93182FCAE0D0E0893311F4C0E5D0E0BD
:101B0000812F0E943C0C8FE99FE00197F1F700C004
:101B100000002197C1F7812FDF91CF911F910C9485
:101B20000A0C0F931F93CF93DF93C62FD42F022F4E
:101B3000FC0182818823A1F0609334040E9407068F
:101B40009093330480933204C77081E001C0880F02
:101B5000CA95EAF7DF91CF911F910F910C94000C79
:101B600080913404681335C080913204909133041D
:101B70000E94F805883C910560F510E21D0FCD1715
:101B8000B9F080E28C0F883040F4C77081E001C06A
:101B9000880FCA95EAF70E94F90B183048F481E0E3
:101BA0009D2F977001C0880F9A95EAF70E94000C4C
:101BB000802F0E94760D183098F4D77081E001C014
:101BC000880FDA95EAF7DF91CF911F910F910C946E
:101BD000F90BC77081E001C0880FCA95EAF7F3CF0F
:101BE000DF91CF911F910F910895AF92BF92CF9245
:101BF000DF92EF92FF920F931F93CF93DF93EC014D
:101C00008AE0A82E2881222309F48CC02130C9F54E
:101C100099818A81913021F422960E94760D05C027
:101C2000923029F422960E943C0C2196EBCF9330FF
:101C300021F422960E940A0CF8CF943011F02196DC
:101C4000F4CF229630E020E0AE014F5F5F4F80532B
:101C5000990B8A30910550F02150310930F38FE90A
:101C60009FE00197F1F700C00000F6CFA29EB001FF
:101C7000A39E700D11249C01260F371F8981EA0154
:101C8000E3CFE22FF0E0E650FE4FB490822F86952E
:101C90008695869590E0FC01E651FE4FE490277012
:101CA000F12C022E02C0F594E7940A94E2F731E099
:101CB000E322FF24FC01E652FE4FC490D12C022EF9
:101CC00002C0D594C7940A94E2F731E0C322DD2420
:101CD000FC01E653FE4F049110E002C015950795F4
:101CE0002A95E2F701701127E114F10419F081EE51
:101CF0000E943C0CC114D10419F086EE0E943C0CE9
:101D00008B2D0E94760DCD2819F086EE0E940A0CCC
:101D1000EF2819F081EE0E940A0C012B09F485CFFF
:101D20008CE27BCFDF91CF911F910F91FF90EF90CD
:101D3000DF90CF90BF90AF900895CF93DF93C7E42B
:101D4000D3E060E0CE010E948E2A2196C11584E086
:101D5000D807B9F7DF91CF9108950F931F93CF93D1
:101D6000DF938901843048F56A3038F5483028F52A
:101D700021153C4531F420910B0130910C01232BAE
:101D8000E1F090E1699FE001112450E0440F551FFC
:101D9000C40FD51F90EA899FC00DD11D1124612F5A
:101DA000CE0187960E948E2A602FCE018896DF9101
:101DB000CF911F910F910C948E2ADF91CF911F919B
:101DC0000F910895CF93C82F61E06827619583E252
:101DD00090E00E948E2A6FEFC11168EE84E290E0DD
:101DE0000E948E2A6FEFC11169E885E290E0CF91E1
:101DF0000C948E2ACF93C091FE03C2FB992790F9D1
:101E0000981781F080FBC2F9C093FE036091FD0337
:101E100084E090E00E948E2A6C2F82E290E0CF91C5
:101E20000C948E2ACF9108957F928F929F92AF92B9
:101E3000BF92CF92DF92EF92FF920F931F93CF93B7
:101E4000DF93CDB7DEB764970FB6F894DEBF0FBE51
:101E5000CDBFA0900B01B0900C0181E090E0909379
:101E60000C0180930B018AEEC82E84E0D82E00E08E
:101E7000760110E015C0F40125913491472D612FB2
:101E8000802F0E94AD0E82E0880E911C7394E8E0D2
:101E90007E12F1CFF0E1EF0EF11C1F5F1A3019F046
:101EA0004701712CE8CF0F5F80EAC80ED11C0430C7
:101EB000F9F61A8219821C821B821E821D821886E4
:101EC0001F8288EC90E09A87898707EA12E04AE04F
:101ED00050E0B801CE0101960E94B22A065F1F4F62
:101EE000073FE2E01E0799F77E01FBE0EF0EF11CD1
:101EF0008AE0F70111928A95E9F74AE050E0B801CB
:101F0000C7010E94B22A065F1F4F0734F3E01F0784
:101F1000A1F7B0920C01A0920B0164960FB6F89451
:101F2000DEBF0FBECDBFDF91CF911F910F91FF900C
:101F3000EF90DF90CF90BF90AF909F908F907F9069
:101F4000089580E00E94E20E60E086E290E00E9448
:101F50008E2A0E94140F0E949D0E81E00C94E20EC6
:101F60009B01883070F49AE0899FB0011124695573
:101F70007D4F4AE050E0C9010E94702A90E080E065
:101F800008958FEF9FEF08958F929F92AF92BF9227
:101F9000CF92DF92EF92FF920F931F93CF93DF9335
:101FA000CDB7DEB72A970FB6F894DEBF0FBECDBF10
:101FB00002E413E0F12CE12C86ECC82E82E2D82E4C
:101FC00090EFA92E92E2B92E26E1822E22E2922EE5
:101FD000F801D182C082B382A28295828482F58A7E
:101FE000E48ABE016F5F7F4F8E2D0E94B00F892B58
:101FF00029F489859A85F801938B828BFFEFEF1A7C
:10200000FF0A0A5E1F4F88E0E816F10409F72A96D6
:102010000FB6F894DEBF0FBECDBFDF91CF911F91F9
:102020000F91FF90EF90DF90CF90BF90AF909F9077
:102030008F9008950F931F93CF93DF93843030F5E3
:102040006A3020F5483010F520E1629F80011124AC
:1020500050E0440F551F040F151F30EA839F000DF9
:10206000111D1124C80187960E94802AC82FD0E034
:10207000DC2FCC27C80188960E94802A9E01282B3D
:10208000C901DF91CF911F910F91089590E080E0F9
:10209000F8CF462F2091940230919502232B91F492
:1020A0007E3F39F46E3F71F48091920290919302D9
:1020B0000895843038F47A3028F4683018F4672FA3
:1020C0000C941A1090E080E00895CF92DF92FF9276
:1020D0000F931F93CF93DF936C0100913104809194
:1020E000FD01082BC7E0D0E010E0FC2EC8010C2E4B
:1020F00002C0959587950A94E2F780FD0CC0219760
:10210000A0F7F12C8F2DDF91CF911F910F91FF90B0
:10211000DF90CF900895B6018C2F0E9449100E9445
:102120009908019761F3EECFCF93DF93EC010E9402
:102130006510BE010E944910DF91CF910C9499085F
:10214000FC0186819781009779F00E949908292FD8
:102150002F7092959F7092509E30A0F4E92FF0E07E
:10216000E453F54D0C94322A808191810E949410A1
:10217000EECF803F19F020F4883E20F481E00895EE
:10218000843FE1F380E00895883EC0F3813FD1F7BA
:10219000F5CF822F86958695869508951F93CF93C8
:1021A000DF9300D000D00F92CDB7DEB7FC012681BF
:1021B00037812115310541F525E0DE0111960190A9
:1021C0000D922A95E1F7FC01228189819A812223CF
:1021D000B9F06623A9F00E946510182F682F898135
:1021E0009A810E943B0B69817A81812F0F900F9019
:1021F0000F900F900F90DF91CF911F910C94491089
:102200000E940E0B182FEFCFC9010F900F900F9067
:102210000F900F90DF91CF911F91089583E290E08E
:102220000E94802A811111C084E290E00E94802ADD
:10223000883E59F485E290E00E94802A91E0893836
:1022400009F090E0892F8170089580E0FCCFCF9352
:1022500084E090E00E94802AC82F82E290E00E94F1
:10226000802A982F8C2FCF910895CF92DF92EF92F2
:10227000FF920F931F93CF93DF93CDB7DEB72A97CB
:102280000FB6F894DEBF0FBECDBFE2E4F2E080E50A
:10229000DF011D928A95E9F7EAEFF2E088E3DF01BA
:1022A0001D928A95E9F782E4C82E82E0D82E7F013C
:1022B00007EF12E0F701D182C0824AE050E0B80196
:1022C000CE0101960E94702A88E0FE013196D60167
:1022D00001900D928A95E1F789859A85D701139629
:1022E0009C938E931297BAE0CB0ED11CE7E0EE0ED2
:1022F000F11C065F1F4F0734F3E01F07D9F62A963B
:102300000FB6F894DEBF0FBECDBFDF91CF911F9106
:102310000F91FF90EF90DF90CF90089510923E03C1
:1023200080910E01EEE6F1E0882359F08091FD03E3
:1023300087FF07C08EE1DF011D928A95E9F70C94B3
:102340006B0B86E0F8CF1F93CF93DF93CDB7DEB74B
:10235000AA970FB6F894DEBF0FBECDBF89E294E016
:102360002091F100DC012D93CD01B4E081339B0776
:10237000B9F780912A04833009F471C0B8F4813030
:1023800009F448C0823009F4B2C08091E80083FFAC
:102390003AC18091290490912A049A3008F033C1FF
:1023A000E92FF0E0E652F54D0C94322A8A3009F418
:1023B0008DC08B3009F470C0893039F780912904C1
:1023C000813219F780912D0490912E04009711F01D
:1023D0000297D9F68091E800877F8093E80080918A
:1023E000E80082FF37C09091F3008091F2000297DD
:1023F00029F48091F1008B7F813021F48091F100EC
:10240000809304048091E8008B778093E8000E9419
:10241000D404BBCF80912904813A09F0B6CF8091D2
:10242000E800877F8093E80080912D0490912E042E
:10243000892B61F460E285E094E070E00E948605FB
:102440008091E8008B778093E8009FCF60E090E078
:1024500080E0F3CF809127048111C1CF96CF809186
:102460002904813A09F091CF80912D0490912E0496
:10247000892B09F08ACF8091E800877F8093E8005C
:102480008091E80080FFFCCF80910E018093F100E5
:102490008091E8008E77B9CF80912904813209F0CC
:1024A00074CF80912D0490912E04892B09F06DCF6B
:1024B0008091E800877F8093E8000E94D404809197
:1024C0002B0480930E010E948E115FCF809129040E
:1024D000813209F05ACF8091E800877F8093E8002D
:1024E0000E94D40480912C04809303044ECF8091E9
:1024F0002904813A09F049CF8091E800877F8093D1
:10250000E8008091E80080FFFCCF80910304BECFFB
:10251000803899F0823809F076C080912D048F7050
:10252000873008F070C08093E9008091EB0085FB54
:10253000882780F91092E90006C0809125049091C7
:102540002604911182609091E800977F9093E800B3
:102550008093F1001092F1008091E8008E77C0C165
:10256000882309F4ADC1823009F04DC080912B045D
:102570008111B1C180912D048F702FEF280F26306B
:1025800008F041C08093E9002091EB0020FFA3C137
:10259000933031F48091EB0080628093EB009BC11B
:1025A0009091EB0090619093EB0021E030E001C04E
:1025B000220F8A95EAF72093EA001092EA008091B0
:1025C000EB008860EACF81111EC010912B041F77A9
:1025D0008091E3008078812B8093E3008091E80074
:1025E000877F8093E8000E94D4048091E80080FFF8
:1025F000FCCF8091E30080688093E30082E01111BA
:1026000083E0809327048091E80083FF0AC08091D3
:10261000E800877F8093E8008091EB0080628093E0
:10262000EB00AA960FB6F894DEBF0FBECDBFDF91C8
:10263000CF911F9108958058823028F720912B0464
:1026400030912C042C3DE3E03E07A1F583E08A8322
:102650008AE289834FB7F894DE01139620E03EE0CA
:1026600051E2E32FF0E050935700E49120FF03C0C4
:10267000E295EF703F5FEF708E2F90E0EA30C0F090
:10268000C7968D939D932F5F243159F74FBF80914B
:10269000E800877F8093E8006AE270E0CE0101964F
:1026A0000E9486058091E8008B778093E800ABCF8D
:1026B000C096E7CF80912D0490912E04432F55278B
:1026C0004330510509F44AC078F54130510509F409
:1026D00085C08BE590E0EAE6F7E04230510509F06D
:1026E00092CF2091E800277F2093E80020912F04CB
:1026F000309130048217930708F49C0140E02115C3
:10270000310509F070C041116EC08091E80082FD72
:10271000C9CF80912704882329F2853019F280914E
:10272000E80083FFF2CFBECF4132510509F447C024
:102730004232510509F067CF8330910508F063CF2D
:10274000FC01EE0FFF1FE35AFE4F0190F081E02DD8
:10275000865A9E4FDC018C9190E01DC033272130BA
:102760003105E9F02115310579F022303105F9F014
:102770002330310509F047CFE7EDF7E0E4918E2FE4
:1027800090E0E7EDF7E007C0EDE1F8E0E4918E2F8F
:1027900090E0EDE1F8E0009709F435CFA2CFEBE04F
:1027A000F8E0E4918E2F90E0EBE0F8E0F4CFE5EF75
:1027B000F7E0E4918E2F90E0E5EFF7E0ECCF833087
:1027C000910508F020CF880F991FFC01ED59FE4FAD
:1027D0000190F081E02D89E090E083CF82E190E0EC
:1027E000E5ECF7E07ECF80912704882309F45ACFE7
:1027F000853009F457CF8091E80083FD53CF809155
:10280000E80082FD82CF8091E80080FF78CF909130
:10281000F3008091F2002115310519F088309105FF
:1028200050F041E0089709F040E08091E8008E7791
:102830008093E80064CF44914093F1003196215099
:1028400031090196E8CF803809F0DDCE8091E800AB
:10285000877F8093E800809128048093F1007CCEEC
:102860008111D1CE10912B04123008F0CCCE809182
:10287000E800877F8093E800109328040E94D40426
:10288000112311F084E005C08091E30087FDFACFA9
:1028900081E08093270442E061EC81E00E94F30430
:1028A00042E261EC84E00E94F30442E261EC82E0E7
:1028B0000E94F30442E260EC83E00E94F304A3CEA2
:1028C00080912B04813009F09ECE81E0933009F095
:1028D00080E0809326041092E9008091E800877FD1
:1028E0008093E8000E94D4048ECE6AEE7EEF90E0E2
:1028F00080E00E94AC2A60E082E090E00E948E2A94
:1029000060E083E090E00E948E2A1092FD0160E07A
:1029100084E090E00E948E2A60E082E290E00E94D3
:102920008E2A60E085E090E00E948E2A60E086E0DA
:1029300090E00E948E2A6FEF87E090E00E948E2A3E
:1029400040E050E0BA0188E090E00E94A02A60E0F8
:102950008DE090E00E948E2A40E050E0BA0188E1CC
:1029600090E00E94A02A60E087E190E00E948E2A19
:1029700040E050E0BA018CE190E00E94A02A70E0B3
:1029800060E080E290E00E94AC2A40E050E0BA01B2
:1029900088E190E00E94A02A80E00E94E20E0E945E
:1029A000A10F40E050E0BA018FE090E00E94A02A21
:1029B00040E050E0BA0183E190E00C94A02A8F92AD
:1029C0009F92AF92BF92CF92DF92EF92FF920F93BE
:1029D0001F93CF93DF9300D000D0CDB7DEB77C013B
:1029E000DC0113968D919C911497892B39F08C9171
:1029F00011969C9189238F3F09F033C50F900F905A
:102A00000F900F90DF91CF911F910F91FF90EF905A
:102A1000DF90CF90BF90AF909F908F900895D60198
:102A200016968C9116978823D1F019968D919C91CA
:102A30000817190739F48091400390914103081752
:102A4000190769F0F601978614870387C6010E946B
:102A5000D30AC60106960E94890A10923F03FFEF2F
:102A6000AF1ABF0A26E1C20ED11C11C5980122512E
:102A70003F452031310508F0C4C48FEF93E00E9438
:102A8000802A4EEED42ED00E07E413E08823D1F036
:102A90008091F801877009F4B1CFF7018281882312
:102AA00009F4ACCF82E00E94A30BA8CF011534E05B
:102AB000130771F3C8010E94802A811101C0DA94C2
:102AC0000F5F1F4FD110F2CF19821A821B821C8216
:102AD000CC24CA9448014FEF841A940AC8010E947A
:102AE000802A89831A82882399F2813009F047C0AD
:102AF000580152E0A50EB11CC4010E94802A982EF4
:102B00008A83882329F2C5010E94802AD82E8FEF5C
:102B1000890D833068F4580183E0A80EB11CDB8274
:102B2000DD2021F0CE0101960E94F50D8501D2CF66
:102B300094E09912FBCF5801A4E0AA0EB11CC80181
:102B400003960E94802ADD2009F4A2CF882309F48D
:102B50009FCF8150990BC89E9001C99E300D1124C2
:102B6000ED2DE150FF0BCF01820F931F0197F0F283
:102B7000AFE9BFE01197F1F700C00000F7CFCE0139
:102B800001960E94F50D5401D1CF81E00E94BF0B48
:102B90000E948C0B7DCF81E00E94970BF9CF82E0E1
:102BA000F5CF2FEFC216D10411F008F040C468E34E
:102BB00072E08C2D0E94B00F892B29F586E18C9D47
:102BC000F0018D9DF00D1124EE5BFC4F868181306C
:102BD00009F0ADC08091380290913902892B99F0AB
:102BE00080913A0290913B02892B69F080913C02DE
:102BF00090913D0220913E0230913F02822B932B17
:102C0000892B09F49EC080910001082E000C990BBD
:102C10008C159D0514F4C0920001F701828196E1A4
:102C20009C9D50019D9DB00C112495012E5B3C4F45
:102C30006901D90150968C935097928116968C9188
:102C40001697992309F48BC01A961C930E93199723
:102C50008F5F16968C930E940706F60196878587EC
:102C60008091FC01878380913F0390913E03892BE3
:102C700080870190F081E02D309741F0D601549685
:102C80006D917C91C501885B9C4F09951093410320
:102C900000934003F7018281882309F411C4109244
:102CA00034040230FCE51F0708F464C106312CE54A
:102CB000120730F0C8018A5F9C45099708F05AC195
:102CC0000E9427119093FE038093FD0300313CE5A1
:102CD000130709F41EC108F0B1C008305CE5150700
:102CE00009F40DC108F080C004309CE5190709F40F
:102CF000FEC008F066C00230BCE51B0709F4F1C055
:102D00008091FD03826003301C4509F4EDC06091A1
:102D1000FD031091FE0384E090E00E948E2A612F53
:102D200082E290E00E948E2A0E948E11B1CE823003
:102D300009F069CF80913C0290913D02892B09F402
:102D400062CF26E12C9DC0012D9D900D11248E5B3C
:102D50009C4FDC0150961C920E94D30A54CF8823CA
:102D600009F498CFF9018189882309F493CFC5012B
:102D7000885B9C4F0E94890A8DCF053F8CE5180720
:102D8000C9F0A0F027E245EE66EE063FACE51A0773
:102D900009F080CFC7010E94910D7ACE27E245EE5F
:102DA00065EEF8CF26E241EE60EEF4CF27E245EE85
:102DB00064EEF0CF26E241EE62EEECCF28E241E095
:102DC000EFCF8091FD0380610630FCE51F0709F419
:102DD0008BC08091FD03886007301C4508F484C0D7
:102DE0008091FD03806280C08091FD038D7F0C3057
:102DF0003CE5130709F478C070F48091FD038C6002
:102E00000A305CE5150709F46FC008F47CC08091B6
:102E1000FD038E7F69C08091FD03877F0E309CE5A6
:102E2000190709F461C08091FD038B7F0F301C45A9
:102E300008F45AC08091FD038F7E56C00B3FBCE55D
:102E40001B0709F458C030F50331FCE51F0709F4EE
:102E500068C078F401313CE5130709F45EC0023123
:102E60001C4509F054CF0E948E118091FD038F778D
:102E70003BC005315CE5150709F45BC008F46FC081
:102E80008091FE0381600A3F1C4509F040CF80938A
:102E9000FE033DCF0F3FACE51A0709F446C088F4A6
:102EA0008091FE038D7F0D3FECE51E0781F380913D
:102EB000FE038E7F0E3F1C4550F38091FE0383601E
:102EC000E6CF01302DE5120709F452C0F0F160E0C1
:102ED00002301D4509F01BCF8EE090E00E948E2A43
:102EE00016CF8091FD0381608093FD0310CF809108
:102EF000FD038460F9CF8091FE038260C8CF80918A
:102F0000FD038064F1CF0E948E118091FD038068E3
:102F1000EBCF8091FD038F7DE7CF8091FD038F7B09
:102F2000E3CF8091FD03837FDFCF8091FE038C7F11
:102F3000AECF8091FD0382FB992790F921E0922783
:102F400090FB82F990FB83F9CFCF8091FE03982FFD
:102F5000909591708E7F892B90FB81F998CF0E947C
:102F60008E119091FD03892F97FB87F98058BCCF74
:102F700061E0B2CF06315CE5150709F0AEC2809181
:102F80003E038A7A91E009F490E090938C0169E223
:102F9000811165E38CE691E00E943D060E94330AB0
:102FA00077CD0E948E118FEF94E3ACE0815090407A
:102FB000A040E1F700C000000E94E70581E0ADC23B
:102FC00080E0ABC2F701828100811181882369F022
:102FD000C8010E946510D82E682FC8010E943B0BC3
:102FE000B8018D2D0E944910A1C2C8010E940E0B8C
:102FF000D82EF6CFE12FEF70DE2E107F19F0D2948D
:1030000090EFD922BB20C9F0DD2069F080E2800F6B
:10301000883010F001110BC080913E03D82AD09265
:103020003E030E94330A802F0E943C0C16C0809100
:103030003F03D82AD0923F03F4CF802F0E940A0C7E
:10304000DD2059F080E2800F883010F0011128C097
:103050008D2D0E942C0A0E94330AA92DA850BB0B6B
:10306000149710F40E949E06AA20A9F08091F801FE
:1030700080FD11C0F70112828595859585950E9486
:10308000BF0BC7010E94DF148091F80185958595DB
:1030900085950E94970B60E0C7010E94CE10AECCD0
:1030A000D09480913F03D822D0923F03D4CFF12F08
:1030B000FF70DF2E107F103219F0D29480EFD822EB
:1030C000002391F0013009F453C0BB2009F45CC027
:1030D000CC2091F1D70115968C91159780FFA3CF45
:1030E0008F7015968C9328C0BB2051F1C11004C07D
:1030F0008091FC018D2921C021E0C21213C0809172
:10310000FE0382FDAACF8091FC01D82AD81609F4CB
:10311000A4CF0E9407069093FB018093FA01D092FE
:10312000FC019BCF35E0C312E3CF0E94210A8091BE
:10313000F501D812D092F5018D2D0E94000C8DCF93
:10314000C11006C00E94210A8D2D0E94F90B85CF67
:1031500041E0C41208C080913E038D2109F47DCF67
:103160000E94FE0AEFCF55E0C51609F476CFEACFEC
:10317000BB2029F085E08C1508F46FCFDDCF94E0FB
:103180009C1508F46ACFE0CFCC20F1F2093309F0A6
:1031900030C1BFEFE7EEF3E0B150E040F040E1F7BF
:1031A00000C00000802F0E940A0C57CF812F869507
:1031B0008695837061F0813009F04FCFC80193701C
:1031C000B11002C090E080E00E94720646CFC801B4
:1031D0009370B11002C090E080E00E9488063DCF5D
:1031E000802FBB2039F00E94D5070E94E9060E947B
:1031F000E90633CF0E941007FACF812F837089F53B
:10320000B1102BCF402F429546954770440F440F85
:10321000802F8F70042E01C0880F0A94EAF7202FA8
:10322000207104FF07C02FE030E001C0220F4A9553
:10323000EAF72095169516951370123069F050F440
:103240003091FD01113029F0822B83230E94E00B85
:1032500004CF832B822BFACF282B8091FD0182276C
:10326000F5CF8695BB2011F0812F8170882309F45A
:10327000F4CE402F429546954770440F440F802F5F
:103280008F70042E01C0880F0A94EAF7202F207156
:1032900004FF07C02FE030E001C0220F4A95EAF793
:1032A0002095169516951370123069F050F43091F0
:1032B0003104113029F0822B83230E94880BCDCE5C
:1032C000832B822BFACF282B809131048227F5CFD4
:1032D0001F70BB2029F0812F0E94BF0B802F2DCFA4
:1032E000802F0E94F90B812F0E94970BB6CE023FD0
:1032F00009F443C060F4003F11F1013FB1F1BB207C
:1033000009F46BC0C1108FCE812F8F7133C0033F82
:10331000C9F1043FA1F78091F501BB2009F449C030
:103320000E942C0A8091F80187708430B1F50E94C8
:10333000F70A812F8F710E94970BA12C8ECEBB2094
:1033400079F094E09C1508F488CE1F7181E090E03C
:1033500001C0880F1A95EAF7909131048927ADCF03
:10336000A5E0AC1508F479CEF0CF812F8F71BB208A
:1033700009F4BACF0E94BF0B70CE812F8F71BB2092
:10338000C9F3B2CF80E0BB2009F497CF1F7181E071
:1033900001C0880F1A95EAF790CFB4E0BC1568F227
:1033A0001F71812F0E94BF0B63E0812F0E94CA0B07
:1033B000C4CF90913E03982B90933E03E4E0EC152C
:1033C00040F40E94F70A0E94FE0A64E0812F8F7188
:1033D000EDCF81E00E94A30BB0CFCC2079F0093370
:1033E00041F4FFEF27EE33E0F15020403040E1F7A9
:1033F000D7CE8FE39CE90197F1F7D2CE812F8F7161
:1034000073CF0031FFE51F0709F4BFCB01312FE572
:10341000120709F4C4CB6801E7E5DE1A882309F432
:10342000C0CBFFEFCF16D10409F008F4ECCB033F7B
:10343000FCE51F0709F4B6CC08F09FCC083D3CE53D
:10344000130709F4ABCC093D4CE5140709F4B6CCDD
:10345000073D5CE5150709F01DCC26E241EE61EE63
:1034600099CC61E0C7010E94CE108C01D701129661
:103470008C918823A9F0809100018F3F89F052E45C
:10348000C52E53E0D52EB12CA12C99249394809174
:103490000001082E000C990B8A159B050CF0BFCA81
:1034A000F70182818111E2CA00313FE5130709F477
:1034B00072CB01314FE5140709F0ADCF82E06CCB40
:1034C00006311C4561F580918C0169E2811165E34B
:1034D0008CE691E00E94130661CD0A35EDE51E07EA
:1034E00009F46CCD58F401152CE5120709F459CDF7
:1034F0000E3D1C45A1F40E947514CACA0B354DE55A
:10350000140709F45DCD0C351D4549F48091FE0387
:1035100082FB882780F991E089270E94FA0ED70163
:1035200016968D919C91009709F44CCD0E949908B4
:103530008C01D7011296BC9012971596CC90C2942C
:103540003FE0C3228091F8018770A1F0AB2CBB2033
:1035500091F0812F807F803421F080E2800F8830CD
:1035600048F082E00E94A30B8091F8018770AA24A2
:10357000A3948111A12C912E92942FE09222BBE072
:10358000B91508F46ACDE92DF0E0EC51F54D0C9435
:10359000322ACF93DF938091B001807FA1F4809194
:1035A000AD01882381F08091F401D091B301609145
:1035B000AB017091AC01A091AE01B091AF01C62FEB
:1035C000C723D81303C0DF91CF91089590E01097DF
:1035D00011F0CF3F19F401968770F3CF9C0143E0BF
:1035E000220F331F4A95E1F7F901EC54FE4F418158
:1035F0004713F1CF40814613EECF42814111EBCF0B
:10360000438154814A1B5B0B483C510520F7809154
:10361000B0018F7080618093B001F901E754FE4FD3
:1036200080818F70806180838BEA91E00E94DF143B
:10363000DF91CF910C94040BAF92BF92CF92DF92A7
:10364000EF92FF920F931F93CF93DF93CDB7DEB727
:1036500065970FB6F894DEBF0FBECDBF8C0185E035
:10366000F801DE01519601900D928A95E1F7F8017B
:10367000E2806BEAA62E61E0B62E6091AE017091F9
:10368000AF016115710509F468C19091AB014091DA
:10369000AC01892F84238F3F09F45FC120813181E0
:1036A000C380D480F090AD01F601E61BF70BFF203C
:1036B00009F41DC18091B001582F507FE83CF105FD
:1036C00008F0D0C0511181C0FE2C43132BC09213BF
:1036D00029C06091B1017091B201F8014681578112
:1036E00064177507F9F4E1101DC08F708061809335
:1036F000B001C5010E94DF148091B001F8018583FB
:103700008F2D65960FB6F894DEBF0FBECDBFDF914B
:10371000CF911F910F91FF90EF90DF90CF90BF90CE
:10372000AF900895CD2829F0822F83238F3F09F091
:103730002FC180E0F82FF170DF2E80FF3CC0809118
:10374000F4014091B301841315C0298B3A8B898908
:103750009A890E949410292F22952F702230F8F018
:10376000243020F59F70F9F0F8019581907FD9F40D
:10377000D12C1FC090E0FC0153E0EE0FFF1F5A95C3
:10378000E1F7EC54FE4F5181351306C050812513EB
:1037900003C05281E5120FC001968770D4CF9F708D
:1037A00011F0882329F3805E883010F3C8010E944D
:1037B000DF14FD2CA5CFEE2009F4A2CF8091B0013B
:1037C00081608093B001F12C9BCF43131BC09213F7
:1037D00019C04091B1015091B201F80126813781A1
:1037E0004217530779F4E1100DC08583C8010E9488
:1037F000DF1488E0F801ABEAB1E001900D928A9500
:10380000E1F77ECFC8010E94A010882339F1EE2095
:1038100029F18091B0018032A0F02091AB0130916C
:10382000AC013A8729871B86DD86CC868E878091FE
:10383000B1019091B201988B8F87CE0109960E94B9
:10384000DF1488E0F801ABEAB1E001900D928A95AF
:10385000E1F70E94C91AFF24F39452CFC8010E94D5
:10386000DF14F9CF51110AC08BEA91E00E94DF14F6
:1038700088E0F50111928A95E9F7A5CF431318C0A6
:10388000921316C04091B1015091B201F801268106
:1038900037814217530761F4E1100AC08583C801DC
:1038A0000E94DF1488E0F50111928A95E9F728CF8C
:1038B000C8010E94A010882389F2EE2079F280913D
:1038C000B001803208F4BDCF2091AB013091AC0142
:1038D0003A8329831B82DD82CC828E838091B10161
:1038E0009091B20198878F83CE010196A8CFE83CD2
:1038F000F105C0F6FE2CEE2009F4B0CF43131FC033
:1039000092131DC02091B1013091B201F80186815E
:1039100097812817390799F49091B00190FD69CFEC
:10392000907F09F466CF8091B0018583903F09F4C0
:103930005DCF982F907F905F8F70892B56CFC801F5
:103940000E94A01081117DCF8091B0018160809391
:10395000B001C8010E94DF14D3CEEE2009F47ECF5F
:10396000C8010E94A010F82E882309F477CF88E0C0
:10397000F801ABEAB1E001900D928A95E1F78091F0
:10398000AB019091AC010E9494100E94C91AB8CE6C
:1039900081E08E25CFCECF93DF93CDB7DEB7609792
:1039A0000FB6F894DEBF0FBECDBF29873A874B878D
:1039B0005C876D877E878F87988BCE0109960E94E2
:1039C0001C1B811112C088E0FE013996DE011196A0
:1039D00001900D928A95E1F78C859D85892B29F0C0
:1039E00089859A8589238F3FA9F58091F40190916B
:1039F000B30189131CC060960FB6F894DEBF0FBEEA
:103A0000CDBFDF91CF91089593E0AA0FBB1F9A9588
:103A1000E1F7AC54BE4F98E0FE01319601900D9253
:103A20009A95E1F78093B3010E94040BDECFB8E0D2
:103A30008B9FC00111248C549E4F0E941C1B882315
:103A4000D1F28091F40190E00196877099278093DC
:103A5000F401CBCFA091B301B0E0CD010196877006
:103A600099272091F4012817190671F60E948E11EA
:103A70001092B3011092F40188E0EBEAF1E0DF016B
:103A80001D928A95E9F7B1CF0F931F93CF93DF93E0
:103A900080919902E0919802CCE081111AC0DF91E7
:103AA000CF911F910F910895D1E0DE0FD09398022E
:103AB0000E2F10E0EC9FF0011124E656FD4F83819C
:103AC0009481892B29F08081918189238F3F51F442
:103AD000ED2F80919902E81738F310929902109215
:103AE0009802DDCFC09FD001C19FB00D1124A65612
:103AF000BD4F16968D919C911797892B29F4189696
:103B00008D919C91019651F42081318142815381A4
:103B100064817581868197810E94CB1CC09FF001D2
:103B2000C19FF00D1124E656FD4F14821382D0CFB1
:103B300010923D0310923C0310920D0180913B03C3
:103B400080933A030E94D8060C94441D3F924F92F2
:103B50005F926F927F928F929F92AF92BF92CF921D
:103B6000DF92EF92FF920F931F93CF93DF93C09159
:103B70003A0397E0892E01E010E02CE0322E3EEF70
:103B8000932E4424439480913B038C1315C00E94D0
:103B9000441DDF91CF911F910F91FF90EF90DF9027
:103BA000CF90BF90AF909F908F907F906F905F90DD
:103BB0004F903F900C94D806D0E0FE01EE0FFF1F0F
:103BC000EE5CFC4F80819181889ED001899EB00D72
:103BD0001124A650BD4F14962C911497211157C053
:103BE00050909902EAE9F2E030E020E0712C5D01AA
:103BF000251508F04AC0E284F384D501CD90DC900D
:103C00006FEF7FEF612C462D50E0DA01AA0FBB1F4A
:103C1000AC0DBD1D0D90BC91A02D109731F0EA1692
:103C2000FB0609F4BA016394EECF6F3F7607A1F16A
:103C3000D80102C0AA0FBB1F6A95E2F77A2AB80121
:103C400002C0660F771F6A94E2F7AB014150510939
:103C500074161506F9F4329EF001339EF00D11240E
:103C6000E656FD4F889ED001899EB00D1124A650C6
:103C7000BD4F12962D913C911397378326839082E6
:103C800091829187808715964C920E94AA06219670
:103C9000C37079CF148213822F5F3F4F3C96A8CF19
:103CA0009F92AF92BF92CF92DF92EF92FF920F93CB
:103CB0001F93CF93DF93CDB7DEB72A970FB6F89453
:103CC000DEBF0FBECDBF8E010F5F1F4F8AE0F80130
:103CD00011928A95E9F798E4C92E91E0D92EF12C3A
:103CE000E12CAA24A394B12CF60181916F018F3F9E
:103CF00009F449C0F894E82FE295EF70F0E021A1B3
:103D00008F70A50102C0440F551F8A95E2F7CA01C2
:103D1000922F982B91A392A18095892382A37894C6
:103D200000C0E2E5F1E030E020E0912C41914F3F0E
:103D300009F465C0A42FA295AF70B0E090968C9165
:103D400090E04F7002C0959587954A95E2F780FD07
:103D500056C08A2D022E01C0880F0A94EAF7982ACD
:103D60002F5F3F4F2830310509F7F60131978081E9
:103D70008F3F11F00E943F0850EA5A95F1F7F80181
:103D8000EE0DFF1D90828FEFE81AF80AEAE0EE16BA
:103D9000F10409F0A9CF4AE050E0B80181E092E0D7
:103DA0000E945C2ADD24D394009709F4D12C892B3E
:103DB00041F18AE0F801A1E0B2E001900D928A950C
:103DC000E1F781E0809300020E9407069093FF01D3
:103DD0008093FE018091FE019091FF010E94F80501
:103DE000059798F0E1E0F2E0A9E1B2E081918D93CE
:103DF00042E0EB30F407D1F71092000206C080E0F9
:103E0000AECF809100028111E5CF8091000110E0DA
:103E100006E18F3F09F045C080910D0181114CC032
:103E20008D2D2A960FB6F894DEBF0FBECDBFDF9161
:103E3000CF911F910F91FF90EF90DF90CF90BF90A7
:103E4000AF909F900895029FF001039FF00D112401
:103E5000EE5BFC4FE288F388E114F10419F488EC7E
:103E6000E82EF12C029FF001039FF00D1124EE5B70
:103E7000FC4F86818823A1F0858596850E94F805F0
:103E8000E816F90668F4109F70011124C7018E5BD3
:103E90009C4F0E94D30AC701885B9C4F0E94890AED
:103EA0001F5F212F30E080910001082E000C990B3C
:103EB0008217930744F6B0CF80913C0390913D0365
:103EC000009709F4ADCF0E94F80520919602309139
:103ED00097022817390708F0A3CF90913A038091F1
:103EE0003B03981759F00E94A61D1092970210925A
:103EF000960210923D0310923C0392CF0E94441D03
:103F000010923D0310923C030E94D80689CF2F9255
:103F10003F924F925F926F927F928F929F92AF9259
:103F2000BF92CF92DF92EF92FF920F931F93CF93A6
:103F3000DF93CDB7DEB769970FB6F894DEBF0FBE3B
:103F4000CDBF498B5A8B6B8B7C8B8D8B6111109203
:103F50003F031D861E861F86188A85E0FE01719626
:103F6000DE01199601900D928A95E1F70E940706ED
:103F70002091F6013091F701821B930B8838934111
:103F800020F08091F80182FFFEC10E940706209177
:103F9000FA013091FB01821B930B8838934110F09A
:103FA0000E94210A8C859D85892B31F089859A850F
:103FB00089238F3F09F0D3C129853A854B855C85DC
:103FC0006D857E858F8598890E94CB1CC2C048EF85
:103FD000C4164CE5D40629F4882379F00E94981D74
:103FE000EBCF69EFC6166CE5D60639F4882329F0C5
:103FF00080910D018111F2CFC2C10AEF12E0E12CD4
:10400000B12CA12C88248394912C2EEF522E442481
:104010004394F8014081518166246A94762C20E013
:10402000822F90E0FC01EE0FFF1FE40FF51F60816F
:1040300071816115710531F0C616D70609F43C018E
:104040002F5FEECFF12CFFEF6F167F0609F443C010
:10405000F8014481F0900D018F2D411180E0F82F7F
:10406000F170FF2EF801258086819B85992309F444
:1040700006C1FF2009F403C1211013C0A40101C02F
:10408000440F6A94EAF7842B86838091960290917C
:104090009702C29730F462E370E0709397026093E6
:1040A0009602C40102C0880F991F2A95E2F7019772
:1040B000F80126812817190671F480913C0390912C
:1040C0003D03009709F45EC00E94F805C39708F409
:1040D00059C0F8014482EF28FFEFAF1ABF0A095F09
:1040E0001F4F28E0A216B10409F093CF8B858823D7
:1040F00009F420C1EE2009F41DC10E940706909327
:104100003D0380933C0380919902883010F591E043
:10411000980F9093990298E0FE013996DE0111966E
:1041200001900D929A95E1F73CE0839FC001112424
:1041300086569D4F28E0FE013196DC0101900D92DC
:104140002A95E1F72FEF3FEFFC0131872087D386D7
:10415000C28669960FB6F894DEBF0FBECDBFDF9161
:10416000CF911F910F91FF90EF90DF90CF90BF9074
:10417000AF909F908F907F906F905F904F903F9007
:104180002F90089580913A0350913B03982FF0E0CF
:10419000E0E0851314C090933A030E171F0709F44B
:1041A0009ACF90E0FC01EE0FFF1FEE5CFC4FB18256
:1041B000A08201968370992780933B038CCF282E91
:1041C000312CF101EE0FFF1FEE5CFC4F208131819D
:1041D000F7E0F29FD001F39FB00D1124A650BD4F20
:1041E0002D913C911197398F288F40E020E030E0ED
:1041F000E32FF0E0EE0FFF1F688D798DE60FF71FBC
:104200006080718061147104E1F0F8010190F08127
:10421000E02DFF8BEE8B20E005C06616770609F4D3
:104220004F2D2F5FE22FF0E0EE0FFF1F6E897F8989
:10423000E60FF71F608171816115710571F73F5FAE
:10424000D7CF4423C9F0F801231708F0FD014482B9
:10425000E017F10721F490933A03F42E3CCF981322
:1042600005C0EA17FB0711F49F5F937091012F5F60
:104270003F4F822F83708DCFF0E0E0E0F7CF90E0EA
:1042800021101FC0B40102C0660F771F2A95E2F704
:104290009B01215031098217930731F4442309F41B
:1042A00047C0C5010E94AA06C40101C0880F6A94D4
:1042B000EAF7982F9095F801868189238683F22C5E
:1042C0000ACF9C01062C02C0359527950A94E2F787
:1042D000A90141705527BC016150710986239723BC
:1042E000892B11F5452B01F1F80182819381892BEE
:1042F000C1F01B821C821D821E8259825A820E943A
:1043000007068160582F9D838C83F80182819381F9
:104310008F83988729813A814B816D817E810E94AC
:10432000CB1CF8011582C0CFF22FF1702F2EBCCF1D
:104330002F2CBACF90913A0380913B03981731F01C
:104340000E94A61DEE2009F437CE03CF0E94441D23
:1043500010923D0310923C030E94D806F3CF61E017
:10436000CE0109960E94CE106C018B85F7EFCF1617
:10437000FCE5DF0609F02BCE882309F43ECE81E070
:1043800080930D0119CE82E00E94A30BFECD0F9306
:104390001F93CF93DF9300D000D00F92CDB7DEB73D
:1043A0008C019093930280939202011580E218078A
:1043B00020F5802F0E940A0CC8010E94B20C9801BF
:1043C000205E31092830310510F0012B59F40F908F
:1043D0000F900F900F900F90DF91CF911F910F9141
:1043E0000C94F90B0F900F900F900F900F90DF919E
:1043F000CF911F910F910C94E40B8EEF89838A83E8
:104400001B820E9407068160782F9D838C834981DF
:104410005A816B818D810F900F900F900F900F90AC
:10442000DF91CF911F910F910C94871F0F931F93D2
:10443000CF93DF938C01EB0168E372E08C2F0E9435
:10444000B00F892BA1F48FE39CE90197F1F700C02D
:104450000000DD27C05DDD4F8881F80110821882E1
:10446000833009F148F4813059F0823081F0DF91D6
:10447000CF911F910F9108958430D1F08530B9F715
:104480008091380290913902009789F306C080919B
:104490003A0290913B02009799F3DF91CF911F91DF
:1044A0000F910C94C72180913C0290913D02F3CF73
:1044B00080913E0290913F02009779F72091380257
:1044C0003091390280913A0290913B0221153105D9
:1044D000D9F2009711F7C901E0CF0F931F93CF9343
:1044E000DF9300D000D00F92CDB7DEB78C01909350
:1044F000930280939202011580E21807E8F4C80144
:104500000E94B20C9801205E31092830310518F064
:104510000115110571F40E94000C802F0F900F906F
:104520000F900F900F90DF91CF911F910F910C94EE
:104530003C0C0E94EF0BF1CF8EEF89838A8381E0E0
:104540008B830E9407068160782F9D838C8349812D
:104550005A816B818D810F900F900F900F900F906B
:10456000DF91CF911F910F910C94871FCF93DF9311
:10457000EC010E946D228FE39CE90197F1F700C0E6
:104580000000CE01DF91CF910C94C7210F931F93B0
:10459000CF93DF938C01862F68E372E00E94B00F07
:1045A000892BC9F4C0913802D0913902209799F033
:1045B000F8018081833069F4CE010E94B622CE01D9
:1045C0000E94B622CE01DF91CF911F910F910C94E2
:1045D000B6228430B8F7DF91CF911F910F910895E3
:1045E0000F931F93CF93DF938C01EB0168E372E08D
:1045F0008C2F0E94B00F892B09F064C0FE01FF27A9
:10460000D8018C91E05DFD4F8130D9F419969C91D1
:104610001997992311F080830CC01A969C919923C5
:10462000D1F382E0808380913A0290913B0200971F
:10463000D9F48091380290913902009709F442C070
:1046400013C08230E9F519968C91199781112DC00C
:104650001A968C9181110EC083E0808380913C0278
:1046600090913D02009719F1DF91CF911F910F9129
:104670000C946D2284E0808380913E0290913F02F1
:10468000009791F780913802909139020097F9F0E4
:104690000E94B62280913A0290913B02009721F746
:1046A0008091380290913902DFCF85E0808380913C
:1046B000380290913902009729F00E94B622F0CF7B
:1046C00086E08083DF91CF911F910F9108958091B3
:1046D0003A0290913B02B1CF1F920F920FB60F9208
:1046E00011242F933F934F935F936F937F938F93F7
:1046F0009F93AF93BF93CF93DF93EF93FF93D091AB
:10470000E900DF708091EC00C82FC17080FDC0E827
:104710001092E9008091F000877F8093F0007894F8
:104720000E94A3111092E9008091F00088608093AC
:10473000F000CD2BCF70C093E900FF91EF91DF9196
:10474000CF91BF91AF919F918F917F916F915F9129
:104750004F913F912F910F900FBE0F901F90189582
:104760001F920F920FB60F9211242F933F934F93E6
:104770005F936F937F938F939F93AF93BF93EF93C9
:10478000FF938091E10082FF09C08091E20082FFE7
:1047900005C08091E1008B7F8093E1008091DA0079
:1047A00080FF24C08091D80080FF20C08091DA0073
:1047B0008E7F8093DA008091D90080FF9BC080E1DA
:1047C00089BD82E189BD09B400FEFDCF81E08093FF
:1047D000270480910204811109C00E945A040E949A
:1047E00025058091E20084608093E2008091E100E1
:1047F00080FF17C08091E20080FF13C08091E2002B
:104800008E7F8093E2008091E20080618093E200DD
:104810008091D80080628093D80019BC85E0809395
:1048200027048091E10084FF29C08091E20084FF89
:1048300025C080E189BD82E189BD89B5982F91703D
:1048400080FFFBCF8091D8008F7D8093D80080912E
:10485000E1008F7E8093E1008091E2008F7E809363
:10486000E2008091E20081608093E2008091280460
:10487000882309F445C084E0809327048091E100F7
:1048800083FF27C08091E20083FF23C08091E10075
:10489000877F8093E10082E08093270410922804B0
:1048A0008091E1008E7F8093E1008091E2008E7F15
:1048B0008093E2008091E20080618093E20042E018
:1048C00060E080E00E94F3048091F00088608093B3
:1048D000F000FF91EF91BF91AF919F918F917F91E8
:1048E0006F915F914F913F912F910F900FBE0F905D
:1048F0001F90189519BC109227041092020476CFCD
:104900008091E30087FD93E090932704B7CF7894DC
:104910001F921FB61F9211248F939F93AF93BF9343
:104920008091F9039091FA03A091FB03B091FC03ED
:104930000196A11DB11D8093F9039093FA03A093F2
:10494000FB03B093FC03BF91AF919F918F911F9098
:104950001FBE1F9018951F921FB61F9211248F9390
:104960009F93AF93BF938091F803811113C08091FF
:10497000F9039091FA03A091FB03B091FC034196D7
:10498000A11DB11D8093F9039093FA03A093FB033B
:10499000B093FC03BF91AF919F918F911F901FBE69
:1049A0001F901895CDB7DEB7E4970FB6F894DEBF29
:1049B0000FBECDBF84B7877F84BF0FB6F894A8958C
:1049C00080916000886180936000109260000FBE4B
:1049D00080E890E00FB6F8948093610090936100B6
:1049E0000FBE85B7806885BF85B7806885BF8DE3BA
:1049F00098E090936B0180936A010E94C40F0E941B
:104A000035110E945A040E9425058091E2008460BD
:104A10008093E2007894809127048823A1F010917C
:104A2000E9001F709091EC00892F817090FD80E863
:104A3000182B1092E9008091E80083FD0E94A311D9
:104A40001F701093E90082E084BD93E095BD9AEF5A
:104A500097BD80936E000E940E11811102C00E94CA
:104A6000A10F08E411E0B2E5EB2EB1E0FB2ED80176
:104A70008D918D018F3F11F00E943F08E016F106E5
:104A8000B1F702E511E0AAE5EA2EA1E0FA2EF8015D
:104A900081918F018F3F11F00E943F08E016F106CF
:104AA000B1F7E1E0F2E0A9E1B2E011921D9222E05B
:104AB000EB30F207D1F790E080E00E94882A8A3E2E
:104AC0009E4F21F40E940E11811102C00E947514A4
:104AD00082E090E00E94802A80930C020E942711BD
:104AE0009093FE038093FD030E94501E4FEF86E7D4
:104AF00091E0415080409040E1F700C000000E94EA
:104B0000501E8091190280FF08C06FEF7FEF90E088
:104B100080E00E94AC2A0E94E70583E090E00E94BA
:104B2000802A0E94E00B81E091E09093F50380934E
:104B3000F40378E1672E712CE0E45E2EF3E2AF2EF1
:104B4000F2E0BF2E8E010F5F1F4F8091270450E1CE
:104B5000E52E62E1F62E853009F47FC10E94501ED9
:104B6000882359F08FB7F8944091F9035091FA03D4
:104B70006091FB037091FC038FBFEDE0F2E0A9E1CF
:104B8000B2E0F12CE12C3E2D8D919191981709F412
:104B900073C1292F282790E0DD24D3944D2D422383
:104BA00009F465C19BA73CA78D2191E009F490E031
:104BB0009DA70E9407068160782F9FA78EA74BA50F
:104BC0005CA56DA58FA50E94871FF701E35FFD4FD0
:104BD0008081D826D08286E0EAE2F2E0D801019016
:104BE0000D928A95E1F7D0902C02C0902D02F090A2
:104BF0002E02E0902F0210922C0210922D021092A1
:104C00002E0210922F028D2D8C2909F448C080911C
:104C10002802909129020E94F8059C01909124029B
:104C2000992309F406C423333105C8F19F3F19F0D5
:104C30009F5F90932402DD2059F00E94B5079FEFFB
:104C40001D140CF491E0899F802D112480932C0277
:104C5000CC2059F00E94B5079FEF1C140CF491E092
:104C6000899F802D112480932D0230912C023323B3
:104C7000B1F020912D02222391F045EB3403C001C5
:104C80001124992309F411C190932C0245EB2403BC
:104C900090011124332309F40CC130932D028F2D80
:104CA0008E2909F448C080912602909127020E9423
:104CB000F8059C0190912302992309F4B5C3253688
:104CC0003105C8F19F3F19F09F5F90932302FF20A9
:104CD00059F00E9493079FEF1F140CF491E0899FF5
:104CE000802D112480932E02EE2059F00E9493070C
:104CF0009FEF1E140CF491E0899F802D1124809366
:104D00002F0230912E023323B1F020912F02222363
:104D100091F045EB3403C0011124992309F4CDC06F
:104D200090932E0245EB240390011124332309F4C0
:104D3000C8C030932F0280912C0290912D02892BB4
:104D400090912E02892B90912F02892B11F00E94B5
:104D5000E90686E0F801AAE2B2E001900D928A9598
:104D6000E1F70E949E0690910B02891721F00E94A4
:104D70009E0680930B0280912704843009F0E5CED3
:104D800083E08093E9008091E80082FFDECE80918D
:104D9000E80090E085FF0AC00E94790440E2C42E3A
:104DA000D12C7801882309F49AC091E08091E80021
:104DB0008B778093E800992309F4C7CEE0909402A2
:104DC000F09095028981E114F10409F496C08E3FB8
:104DD00009F0DFC08A81833020F08550833008F0ED
:104DE000D8C0EA81EE3008F0D4C0F0E0E051F54DD3
:104DF0000C94322A80912704843009F11092F80330
:104E00000FB6F894A895609260000FBE50926000B3
:104E100083B7817F846083BF83B7816083BF7894C9
:104E2000889583B78E7F83BF0FB6F894A89580913D
:104E30006000886180936000109260000FBE8091D6
:104E40002604882351F00E94501EE9E1F2E081918E
:104E50008111CBC2AE16BF06D1F7809127048530F1
:104E600009F4C8CF0E948E110E949E0677CE9F5FE4
:104E7000DD0C983009F092CE2FEFE21AF20A3AE0F8
:104E8000E316F10409F07FCE8FEF88AB89AB1AAA45
:104E90000E9407068160782F9CAB8BAB48A959A96B
:104EA0006AA98CA90E94871F96CE81E080932C026C
:104EB000EDCE81E080932D02F2CE81E080932E0230
:104EC00031CF81E080932F0236CF8091F100D7015E
:104ED0008D937D01B1E0CB1AD10809F466CF8091A2
:104EE000E80085FDF2CF8091E8008B778093E800A1
:104EF0000E947904882399F358CF8D3009F4ABC010
:104F0000B8F4843009F48EC048F4823049F108F0D6
:104F10007AC0813009F18FEF89833BC0863009F474
:104F200097C008F48AC08C30B1F780E18A8331C021
:104F3000813109F4E9C040F48F3009F4B8C008F4B5
:104F40008DC00E949D0E25C0833109F408C108F46C
:104F5000DDC08E3F01F745CF1A8289E08B8319C0EF
:104F60008A81823009F457C28330E1F1813099F6A9
:104F70002FB7F8946091F9037091FA038091FB03C5
:104F80009091FC032FBF0E94382A6B837C838D8312
:104F90009E8380912704843009F0D7CDF090E900FA
:104FA0002F2D2F70F22E9091EC00892F817090FDA3
:104FB00080E8F82A82E08093E9008091E80080FF91
:104FC0000CC050E040E060E270E0C8010E94AA041A
:104FD0008091E8008E778093E8008F2D8F7080930A
:104FE000E900B3CD80910B0190910C01892B89F2DE
:104FF000DE011396E9E1F2E081918D9322E0E33244
:10500000F207D1F7C6CF8A81823009F084CF6B8155
:105010007C818D819E810E94382A86E290E00E94E8
:105020008E2AB7CF4C816B818A810E941A109827F3
:10503000892798279E838D83ACCF2D813E8132278F
:10504000232732274C816B818A810E94AD0EA1CF2C
:105050000E94140F9ECF1A8289EB80CFEC80F12C36
:105060003DE1E316F10408F094CFCA80DB80DC2434
:10507000CD24DC244801E00EF11EC601895B9C4F63
:10508000E814F90409F485CF49EBC416D10460F49F
:105090000E94802AD40114968C93FFEFCF1ADF0A66
:1050A0002FEF821A920AE9CFF4011482F6CF809191
:1050B0000B0190910C01892B09F46BCFCC80D12C82
:1050C0003DE1C316D10408F064CFEA80FB80FE24E2
:1050D000EF24FE244801CE0CDF1CC701895B9C4FE6
:1050E000CE14DF0409F455CF49EBE416F10428F49B
:1050F000D40114966C910E948E2ABFEF8B1A9B0AE2
:10510000EFEFEE1AFE0AE9CF84E010CFEC80F12C2D
:10511000FDE1EF16F10408F03CCFCA80DB80DC240F
:10512000CD24DC244801E00EF11EC60187968E14C2
:105130009F0409F42ECF20E8C21622E0D20660F4C4
:105140000E94802AD40114968C93FFEFCF1ADF0AB5
:105150002FEF821A920AE9CFF4011482F6CFCC80A5
:10516000D12C3DE1C316D10408F013CFEA80FB80B7
:10517000FE24EF24FE2440E8E41642E0F40608F0A2
:1051800008CF80E892E08E199F098C159D0508F4E0
:1051900000CF4801CE0CDF1CC7018796CE14DF0478
:1051A00009F4F7CEA0E8EA16A2E0FA0620F4F4012A
:1051B00064810E948E2AFFEF8F1A9F0A2FEFE21A56
:1051C000F20AEACF88E0EFE0F1E0DE01919601908B
:1051D0000D928A95E1F780E2D8011D928A95E9F750
:1051E00084E0898388E0FE01B196DE011596019086
:1051F0000D928A95E1F7CDCE80E7898382E08A839C
:105200001B821C82C6CE8C81682F70E0762F6627A9
:105210008B81860F972F911D092E000CAA0BBB0BBB
:1052200035E0880F991FAA1FBB1F3A95D1F7AC0133
:10523000BD01405E5F4F6F4F7F4F481759076A07A8
:105240007B0708F4A6CE8037E2E09E07A105B105F2
:1052500008F09FCE4137F2E05F076105710520F04D
:1052600040E752E060E070E0481B590BBC01665813
:105270007D4FC8010E94532A8CCE4EE150E06FEF63
:1052800070E0CE0103960E94692A80910B01898308
:10529000EA827FCE81E090E0909395028093940221
:1052A00082E390E090931802809317020E94070611
:1052B00070CE80910B018983EA82809117024ECED5
:1052C00040E250E06FEF70E0C8010E94692A61CEB1
:1052D0008B81823009F44DC0F0F4882309F43FC07B
:1052E000813009F056CE8C819AE0F92E6E01B1E240
:1052F000CB0ED11CF6012F2D11922A95E9F7B6019C
:105300000E94B00F8983F601DE01129601900D9282
:10531000FA94E1F73ECE833009F449C0843009F0B5
:1053200038CE6C818AE0FE013596DE0191960190BF
:105330000D928A95E1F78FEF683068F4FAE06F9F7D
:10534000B001112469507D4F4AE050E0CE018196B2
:105350000E94B22A80E089830E9435111ACEFE0194
:1053600033968EE1DF011D928A95E9F788E0898303
:10537000DDCD6C818AE0FE013596DE0191960190CB
:105380000D928A95E1F78FEF683068F43AE0639FF9
:10539000B001112469557D4F4AE050E0CE0181965D
:1053A0000E94B22A80E089830E94C40FF2CD6C81F2
:1053B0002AE0CE018196DC01E22F1D92EA95E9F701
:1053C000683088F4629FB001112469507D4F4AE033
:1053D00050E00E94702A80E089838AE0FE01B19645
:1053E000DE01129604CF8FEFF7CFE9BCF9BC09B408
:1053F00000FEFDCF8091D8008F7D8093D8008091F2
:10540000E00082608093E0008091E00081FDFCCFAD
:105410000E948E1122CD86E290E00E94802A1B829B
:105420001C821D828E83B5CD2D32314008F04CCCCC
:1054300082CC2D32314008F0FBCB31CC97FB072ECC
:1054400016F4009407D077FD09D00E943F2A07FC8C
:1054500005D03EF4909581959F4F08957095619584
:105460007F4F0895EE0FFF1F0590F491E02D0994F2
:105470006927962769277827872778270895AA1B01
:10548000BB1B51E107C0AA1FBB1FA617B70710F02F
:10549000A61BB70B881F991F5A95A9F78095909561
:1054A000BC01CD010895FB01DC0102C005900D9205
:1054B00041505040D8F70895FB01DC0104C08D91A4
:1054C0000190801921F441505040C8F7881B990B76
:1054D0000895DC0101C06D9341505040E0F70895FC
:1054E000DC01CB01FC01F999FECF06C0F2BDE1BDA4
:1054F000F89A319600B40D9241505040B8F7089593
:10550000F999FECF92BD81BDF89A992780B508958B
:10551000A8E1B0E042E050E00C94722A262FF999FD
:10552000FECF92BD81BDF89A019700B4021639F002
:105530001FBA20BD0FB6F894FA9AF99A0FBE0895D3
:105540000396272F0E948F2A0E948E2A252F0E94C1
:105550008F2A242F0C948F2A0196272F0E948F2A9E
:105560000C948E2ADC01CB0103C02D910E94BD2A30
:1055700041505040D0F70895262FF999FECF1FBA19
:1055800092BD81BD20BD0FB6F894FA9AF99A0FBE6C
:1055900001960895F894FFCFB910B910C210C21047
:1055A000C410C210C210C210B910B910C910C21074
:1055B000C210C9108812B0120313B0120313E31201
:1055C0001B13031323143014FA17FA17571857181C
:1055D000D618F0182D182D18FD1868197719771995
:1055E000E228FC280329C927C9273D294A29592926
:0C55F000C9276029C927C927C9276829D5
:1055FC00FFE405360D150D110D0D0D010001015CBB
:10560C00319F3004E6595C818283E200E900EA00B4
:10561C00B500B600B700CD008301CC008A01920121
:10562C0094012102230224022502260227022A02C7
:10563C00B300B4006F007000F5F7333635F4F63173
:10564C00323493929190946697C64022BC8A01683A
:0A565C0001AC007C079507B50700BC
:00000001FF
