:100000000C94D9030C9420040C9420040C94200428
:100010000C9420040C9420040C9420040C942004D0
:100020000C9420040C9420040C947E220C943A220C
:100030000C94A32A0C9420040C9420040C94200407
:100040000C9420040C9420040C9420040C942004A0
:100050000C9420040C947F2A0C9420040C9420040B
:100060000C9420040C9420040C9420040C94200480
:100070000C9420040C9420040C9420040C94200470
:100080000C9420040C9420040C9420040C94200460
:100090000C9420040C9420040C9420040C94200450
:1000A0000C9420040C9420040C94200405010902F3
:1000B000A10185020901A100050919012905150001
:1000C00025019505750181029501750381010501E1
:1000D000093009311581257F950275088106093897
:1000E0001581257F950175088106050C0A380215D2
:1000F00081257F950175088106C0C005010980A191
:1001000001850319012AB700150126B7009501756D
:10011000108100C0050C0901A101850419012AA064
:1001200002150126A002950175108100C005010984
:1001300006A1018505050719E029E71500250195A8
:1001400008750181020507190029EF1500250195A1
:10015000F0750181020508190129059505750191C0
:1001600002950175039101C00660FF0961A10109B3
:1001700062150026FF0095207508810209631500AD
:1001800026FF00952075089102C005010906A1010E
:10019000050719E029E71500250195087501810279
:1001A0009501750881010507190029FF150026FF33
:1001B0000095067508810005081901290595057542
:1001C000019102950175039101C00000000000003B
:1001D000000000000000000000000000000000001F
:1001E00000000000000000000000000000007E0F82
:1001F00000D4FFFFFFC700000078000000000000EF
:1002000000002A2B28000000000000000000000071
:10021000000000000029000000002C1E34202122D4
:1002200024342627252E362D3738271E1F2021223D
:10023000232425263333362E37381F0405060708B6
:10024000090A0B0C0D0E0F101112131415161718A6
:10025000191A1B1C1D2F3130232D350405060708E4
:10026000090A0B0C0D0E0F10111213141516171886
:10027000191A1B1C1D2F3130354C000101010101E1
:10028000010101010202020202020202020303034F
:10029000030303030304040404040404050505051F
:1002A00005060606060607070707070808080809DF
:1002B0000909090A0A0A0B0B0B0C0C0C0D0D0D0E8B
:1002C0000E0E0F0F0F101011111112121313141420
:1002D000151516161717181819191A1A1B1B1C1D95
:1002E0001D1E1E1F202021222223242425262627EE
:1002F0002829292A2B2C2D2D2E2F30313232333420
:1003000035363738393A3B3C3D3E3F404142434425
:1003100045464748494A4C4D4E4F50515354555607
:1003200058595A5B5D5E5F616264656668696B6CB3
:100330006D6F7072737577787A7B7D7E808283852E
:1003400087888A8C8E8F91939596989A9C9EA0A26E
:10035000A3A5A7A9ABADAFB1B3B5B7BABCBEC0C278
:10036000C4C6C9CBCDCFD1D4D6D8DBDDDFE2E4E73C
:10037000E9EBEEF0F3F5F8FAFDFFFFAA7F55402216
:1003800023252628292A2C2D2F3032333536383A8A
:100390003B3D3E4042434547494A4C4E50515355E0
:1003A00057595A5C5E6062646668696B6D6F717301
:1003B0007577797B7D7F81838587898A8C8E909202
:1003C0009496989A9C9E9FA1A3A5A7A8AAACAEAF0D
:1003D000B1B3B4B6B8B9BBBCBEBFC1C2C3C5C6C752
:1003E000C9CACBCCCDCED0D1D2D2D3D4D5D6D7D703
:1003F000D8D9D9DADADBDBDBDCDCDCDCDCDDDDDD4B
:10040000DDDCDCDCDCDCDBDBDBDADAD9D9D8D7D746
:10041000D6D5D4D3D2D2D1D0CECDCCCBCAC9C7C6F3
:10042000C5C3C2C1BFBEBCBBB9B8B6B4B3B1AFAE31
:10043000ACAAA8A7A5A3A19F9E9C9A9896949290D7
:100440008E8C8A89878583817F7D7B7977757371AF
:100450006F6D6B6968666462605E5C5A595755538C
:1004600051504E4C4A4947454342403E3D3B3A3845
:1004700036353332302F2D2C2A29282625232229C0
:100480000014001A000800150017001C0018000CCA
:1004900000120013002B0004001600070009000AD8
:1004A000000B000D000E000F002800E1001D001BD6
:1004B000000600190005001100100036003700A8E2
:1004C00000E200015100002C00000000002A0000A2
:1004D000000251E000000001001E001F002000216A
:1004E000002200230024002500260027002D002ED6
:1004F000003500010001000100010001000100348D
:10050000003300E100500051004F000100010001E4
:10051000000100380031000100010001000000016D
:1005200000000000004C000000010001000000532A
:10053000003A003B003C003D003E003F00400041CF
:100540000042004300440045005200010001000148
:10055000000100010001002F003000E100500051B7
:10056000004F0057005A00620059000100010001CD
:1005700000C25CC75C0000C55C00000000C95C00F4
:10058000000100C35C00001E0F0500047F3F1F64D4
:100590003214643214783C1E1E140A05FD377A5852
:1005A0005A000004E6D6B4460200210116000000FD
:1005B000742FE5A3E002C101225D003D8889C65485
:1005C00036C3174FE4E176CB8CA35F35DF54DF727F
:1005D0004F2CC6321BC6BEA6618586E6E64344CDD7
:1005E000E5BF602A9512C6101523C144FB1AB6D880
:1005F000A610EB476818B6DFD309DC40999FF308D3
:1006000015F67EA81A98D52C9F7B08FD7A0F72AF3D
:1006100084798FFC71E84D8CF8FC824E300A4A9543
:10062000BC77FA0FAF26F9418C28E26D78D9CBB2AE
:10063000244F848BB2589751FCADB9AA78388FC635
:1006400038C708EB78A4462BA023180DC4E0FCF8AB
:100650001A719DDC8A792A56330426A030157BBD99
:10066000A2434613325DB0C413B5AECF7E698B4151
:10067000102EAE3150C3ABA7DF4E841D6E4EFAF480
:10068000AE04A362E75FEEA0C90CCBD5AE30C77253
:100690002F2B255AAD16AD631D7DEFF318A1ECE8A5
:1006A000E4653B45AAAFB997643FBD1BE599542269
:1006B00058FB5D3BD799AB454C279ADDE67AF1C0F4
:1006C000032672BAF49FC2C2260C92B193516F6096
:1006D000DCBBC60E1229BE01E00A255476000000DC
:1006E0002F6867520FC099F10001BE02C2050000D9
:1006F000DE11DA43B1C467FB020000000004595A5E
:1007000009025B00030100A0FA09040000010301D3
:1007100001000921110100012240000705810308A1
:10072000000A090401000203000000092111010070
:100730000122220007058203200001070503032090
:100740000001090402000103000000092111010059
:100750000122BC000705840320000A1201100100D9
:10076000000008276235000100010203011C037626
:1007700000690061006C003A0066003600340063D6
:1007800000320062003300630000000E034B006182
:1007900000720069006E00610000001003470072E3
:1007A000006C00640074006D006B0000000403091D
:1007B000040011241FBECFEFDAE0DEBFCDBF04B6C8
:1007C00003FE27C08091770390917803A09179036D
:1007D000B0917A038730904BA740B04BD1F4109280
:1007E0007703109278031092790310927A0314BE63
:1007F00084B7877F84BF0FB6F894A8958091600076
:10080000886180936000109260000FBEE0E0F8E322
:10081000099523E0A6EDB1E001C01D92A737B2070C
:10082000E1F711E0A0E0B1E0ECE1F9E502C00590EC
:100830000D92A63DB107D9F70E9455230C944C2C7C
:100840000C940000E8EDF0E080818E7F80831092B0
:10085000E2001092DA001092E100A0EEB0E08C917C
:1008600081608C9380818F77808319BCA7EDB0E085
:100870008C918E7F8C9380818F7E80831092410338
:1008800008952091E4003091E50095E6A9012091BA
:10089000EC00822F817020FF06C08091E80080FF6D
:1008A00006C080E008952091E80022FD1AC08091E2
:1008B0006603882389F0853089F08091EB0085FDFF
:1008C0000FC02091E4003091E50042175307F9F280
:1008D0009150E1F684E0089582E0089583E0089560
:1008E00081E00895EF92FF920F931F93CF937C01C5
:1008F0008B010E944104C82F811117C08091E8002C
:1009000085FD0BC08091E8008E778093E8000E94FF
:100910004104882399F3C82F08C0F70181917F0112
:100920008093F1000150110949F78C2FCF911F914D
:100930000F91FF90EF9008958091680387FF13C097
:100940008091E80082FF06C08091E8008B77809359
:10095000E80004C0809166038111F2CF0895809170
:1009600066038823D9F38091E80080FFF8CF809157
:10097000E8008E77ECCF982F9093E900242F762F04
:1009800050E0891731F07091EC002091ED0050910A
:10099000F00021FD07C09F5F973071F78093E90059
:1009A00081E008953091EB003E7F3093EB00309171
:1009B000ED003D7F3093ED003091EB0031603093DE
:1009C000EB007093EC002093ED005093F000209129
:1009D000EE0027FDE0CF80E00895CF92DF92EF9206
:1009E000FF920F931F93CF93DF93C8EDD0E08881E0
:1009F0008F7E8883E7EDF0E080818160808384E0F2
:100A000082BF81E08093410388818E7F888302EEDC
:100A100010E0F80110821092DA0081EEC82ED12C7D
:100A2000F601108288818F77888388818068888327
:100A300088818F7D888319BC1092660310926703AA
:100A4000109265031092640390EEE92EF12CF701E9
:100A500080818B7F808388818160888342E060E031
:100A600080E00E94BB04F60180818E7F8083F801C4
:100A7000808181608083808188608083F7018081AC
:100A80008E7F8083888180618883DF91CF911F91E1
:100A90000F91FF90EF90DF90CF900895FC0180912F
:100AA0006E0390916F0386179707A0F0611571058B
:100AB00029F49091E8009E779093E80090E061150A
:100AC000710551F4911108C08091E80082FF34C093
:100AD00080E00895BC01F2CF809166038823C1F1C4
:100AE0008530C1F18091E80083FD30C08091E8003D
:100AF00082FDEACF8091E80080FFE1CF8091F30092
:100B00002091F200382F6115710519F02830310558
:100B100058F091E02830310509F090E02091E8008C
:100B20002E772093E800CBCF81918093F100615024
:100B300071092F5F3F4FE7CF80916603882341F013
:100B4000853041F08091E80083FFBECF81E00895B9
:100B500082E0089583E00895089580E008958091EB
:100B6000430308959C014FB7F89480913B03909103
:100B70003C03A0913D03B0913E034FBF821B930BFA
:100B800008952FB7F89480913B0390913C03A09176
:100B90003D03B0913E032FBF089520911F012223F2
:100BA000C9F02091050327FF15C0E62FE695E695CD
:100BB000E695EE31D8F4E80FF92FF11D677021E0CA
:100BC00030E001C0220F6A95EAF720958281282340
:100BD00022830895FC01329608962191621303C086
:100BE000DF0111971C92E817F907B9F708952091D2
:100BF0001F012223C1F02091050327FF14C0E62F17
:100C0000E695E695E695EE31F8F4E80FF92FF11D3B
:100C1000677021E030E001C0220F6A95EAF7828117
:100C2000822B82830895FC0132962FEF30E04191B0
:100C3000641751F02F3F19F4411101C0232F3F5F7A
:100C40003630A9F72F3F09F40895820F911D27FD33
:100C50009A95FC01628308958091F70281111092A8
:100C6000F70208958091F6029091F502892B9091F8
:100C7000F402892B8093D8019091F7029923A1F077
:100C8000892B8093D80180911F01882341F18091A5
:100C9000050387FF24C08EE1EAEDF1E090E081508A
:100CA00000F591110E942C06E0910703F0910803D2
:100CB0003097E1F080911F01882359F0809105035E
:100CC00087FF07C08091D8018093D90185E0809388
:100CD000D8010280F381E02D88ED91E0099486E04F
:100CE000DBCF21912223D9F29F5FD9CF08952BE04A
:100CF000929F800D1124982F9770869586958695E2
:100D000025E0829FF0011124EB52FD4F50E040E0BE
:100D100080E0219130E0092E02C0369527950A9493
:100D2000E2F721703327042E01C0220F0A94EAF75C
:100D3000822B4F5F5F4F4530510559F708952BE0E7
:100D4000929F800D1124982F977041E001C0440FAD
:100D50009A95EAF786958695869595E0899FF001A4
:100D60001124EB52FD4F90E080E070E05191DF01E3
:100D700011979B01082E02C0369527950A94E2F739
:100D8000217021952527242325272C930196853032
:100D9000910561F708958091D4029091A302981370
:100DA00001C008958F5F8770FACF882341F0809546
:100DB0009091F50289238093F5020C9432060895F0
:100DC000882339F09091F502982B9093F5020C94BA
:100DD00032060895882341F080959091F602892388
:100DE0008093F6020C9432060895882339F090918E
:100DF000F602982B9093F6020C94320608952091F7
:100E00009B0230919C022817390771F090939C0245
:100E100080939B02E0910703F0910803309721F043
:100E20000084F185E02D0994089520919902309174
:100E30009A022817390771F090939A0280939902C9
:100E4000E0910703F0910803309721F00680F781C5
:100E5000E02D09940895E0910703F091080330977D
:100E600021F00190F081E02D099480E00895FA01CD
:100E7000811101C0FB01099480912E03982F9E7F60
:100E800029F48170826080932E0308958635E8F3FB
:100E900081708465F8CFAF92BF92DF92EF92FF929C
:100EA0000F931F93CF93DF93082F162FE901E42FA1
:100EB000F0E0E658FD4F611110C0E4915E2F4E2F17
:100EC0004983E8835A83DF91CF911F910F91FF905F
:100ED000EF90DF90BF90AF900895E62EF12C4491F3
:100EE000D42EE42FF0E026E0829FC00111242FEFE2
:100EF00030E0B9010E94E42A802F90E0880F991F0A
:100F000055E5569FD001579FB00D11248A1B9B0BAE
:100F1000982F990F890F5901AE18BF08AE9ED001C6
:100F2000AF9EB00DBE9EB00D11245B2F189F8001A7
:100F30001124012F11275901A01AB10AAE9E800178
:100F4000AF9E100DBE9E100D11245901A81AB108B4
:100F5000AE9CC001AF9C900DBE9C900D1124892FBA
:100F60009927281B390B2E9FC0012F9F900D3E9F64
:100F7000900D1124E92F62307105A1F050F4611534
:100F8000710509F49DCF6130710581F0EB2F512F70
:100F900097CF6430710569F080F06630710509F40F
:100FA0008FCFF4CFE42F4B2F592F8ACFE42F412F2F
:100FB00087CFEB2F542F492F83CF4B2F5D2DE12F60
:100FC0007FCF0E94C1059C0190911C0380911D035D
:100FD000982B21F0309319032093180390911E034E
:100FE00080911F03982B21F0309317032093160351
:100FF000E0910703F0910803309749F082E0809375
:101000001A030480F581E02D8AE193E009940895A4
:1010100090E080E00E94150790E080E00E94FF06CB
:101020001092F5021092F4020E94320686E0EAE184
:10103000F3E0DF011D928A95E9F70C94E1076093D4
:1010400073037093740380937503909376030C94E9
:1010500008080F931F93609173037091740380913C
:101060007503909176038B019C010670112722274E
:101070003327063011052105310529F468601F91D9
:101080000F910C941F08677FFACF0F931F9341E0D5
:1010900050E060E070E004C0440F551F661F771FEA
:1010A0008A95D2F7CB01BA0160957095809590959D
:1010B00000917303109174032091750330917603AE
:1010C00060237123822393231F910F910C941F0897
:1010D0009091F302809589238093F302282F277043
:1010E00071F4282F082E000C330B9217130639F0D9
:1010F0008595859585950E9445081092F30208957F
:101100000F931F9341E050E060E070E004C0440F93
:10111000551F661F771F8A95D2F7809173039091B0
:101120007403A0917503B09176038A019B01082B8B
:10113000192B2A2B3B2BC901B8011F910F910C943D
:101140001F086093F8027093F9028093FA0290935B
:10115000FB020C940808803F39F480911D0387FF3F
:1011600029C010921D030895813F29F480911D0329
:101170001816BCF30895823F39F480911C0387FF51
:1011800019C010921C030895833F29F480911C0319
:101190001816BCF30895893F39F480911E03181680
:1011A0004CF410921E0308958A3F29F480911E0387
:1011B00087FDF7CF08958B3F39F480911F0387FF98
:1011C000F9CF10921F0308958C3F29F480911F03DB
:1011D0001816BCF30895843F31F480911B038E7F71
:1011E00080931B03E7CF853F21F480911B038D7F04
:1011F000F7CF863F21F480911B038B7FF1CF873F90
:1012000021F480911B03877FEBCF883F99F6809173
:101210001B038F7EE5CF8823B1F19CEF980F913AA5
:1012200038F4682F88ED91E00E94CD050C943206C9
:1012300090E2980F983088F4877021E030E0A9019F
:1012400002C0440F551F8A95E2F7CA01809590911C
:10125000F60289238093F602E9CF9BE5980F93303D
:1012600020F490E080E00C94150798E5980F9731F2
:1012700020F490E080E00C94FF06803F20F00E9474
:10128000AB080C94E107089540911201242F30E03F
:10129000220F331FF901E05DFE4F9081803F09F07E
:1012A00077C0919590931D0380911201481709F41E
:1012B0006EC090E0880F991FFC01E05DFE4F208119
:1012C000885D9E4FFC01808190911C03191614F4D7
:1012D00020931C0390911C0397FF04C0922F9195BB
:1012E00090931C0390911D03191614F420931D0371
:1012F00090911D0397FF03C0219520931D039091AA
:101300001F03191614F480931F0390911F0397FF76
:1013100004C0982F919590931F0390911E03191666
:1013200014F480931E0390911E0397FF03C08195D0
:1013300080931E0330911C033323B1F020911D03D1
:10134000222391F045EB3403C0011124992309F4C1
:101350006EC090931C0345EB2403900111243323AA
:1013600009F469C030931D0340911F03442379F0B1
:1013700030911E03332359F025EB4203A0011124C1
:1013800050931F0332039001112430931E030895DC
:10139000813F09F487CF823F21F4919590931C03FC
:1013A00083CF833FD9F3285D3E4FF9019081893F78
:1013B00019F490931E0378CF8A3F11F49195F9CFD9
:1013C0008B3F21F4919590931F036ECF8C3FD9F3FF
:1013D000843F31F480911B03816080931B0364CFB1
:1013E000853F21F480911B038260F7CF863F21F473
:1013F00080911B038460F1CF873F21F480911B0310
:101400008860EBCF883F21F480911B038061E5CF9A
:101410008D3F21F481E08093120146CF8E3F11F47D
:1014200082E0F9CF8F3F09F03FCF83E0F4CF81E036
:1014300080931C0390CF81E080931D0395CFCF93C1
:10144000C82F882309F46FC08CEF8C0F813AC0F548
:1014500080911F01882311F18091050387FF1EC031
:10146000EC2FE695E695E695F0E0E852FE4F828196
:1014700090E04C2F477021E030E002C0220F331F74
:101480004A95E2F782239323892B91F06C2F88ED04
:1014900091E00E94CD050E9432060AC0EAEDF1E01B
:1014A00080EE91E02191C21789F38E179F07D1F743
:1014B0006C2F88ED91E00E94F705CF910C943206D5
:1014C00080E28C0F883068F4C77021E030E001C002
:1014D000220FCA95EAF78091F602822B8093F602DA
:1014E000ECCFEBE5EC0FE33040F4F0E0ED59FE4FCC
:1014F000808190E0CF910C941507E8E5EC0FE7317F
:1015000050F4F0E0EE0FFF1FEA59FE4F8081918109
:10151000CF910C94FF06C03F30F08C2F0E944409FD
:10152000CF910C94E107CF910895F894E82FE295BC
:10153000EF70F0E031A1282F2F7081E090E001C022
:10154000880F2A95EAF7982F9095932391A392A15B
:10155000892B82A3789408959091050392FF06C089
:10156000282F28712830F9F4877F846093FF06C004
:10157000282F28712831F1F4877E84612091060399
:1015800020FF06C0382F38713830D9F4877F81604A
:1015900021FF06C0282F28712831D1F4877E816170
:1015A00094FD877E0895282F24712430F9F68B7FCF
:1015B0008860DCCF282F2471243101F78B7E88616D
:1015C000DDCF382F3171313019F78E7F8860E0CF51
:1015D000282F2171213121F78E7E8861E1CFCF93B1
:1015E000DF939C013A9521153F4168F5EC01CC272A
:1015F000D170DC01AA27B270AC01442754709C0161
:101600002227387094FF11C080E1CD2B09F480E0CF
:10161000AB2B09F08062452B09F08064232B09F085
:101620008068FB01DF91CF91099481E0CD2B09F413
:1016300080E0AB2B09F08260452B09F08460232BFE
:1016400081F38860EECFDF91CF910895CF9384E04E
:1016500090E00E94A12BC82F81E290E00E94A12B74
:10166000982F8C2FCF9108950F931F93CF93DF93D3
:10167000843038F5623028F528E0829FC0011124BB
:1016800034E0639FB0011124860F971FC42FD0E070
:10169000CC0FDD1FC80FD91FCA57DE4FCE010E94E5
:1016A000A12B082F10E0102F0027CE0101960E94D9
:1016B000A12B9801282BC901DF91CF911F910F9188
:1016C000089590E080E0F8CF0F931F93CF93DF93BE
:1016D000843030F5643020F54B3010F5C42FD0E065
:1016E000CC0FDD1F26E1629FC00DD11D112438E50E
:1016F000839FC00DD11D1124CE0186960E94A12B7F
:10170000082F10E0102F0027CE0187960E94A12BF2
:101710009801282BC901DF91CF911F910F91089556
:1017200090E080E0F8CF462F20913F0330914003B6
:10173000232B91F47E3F39F46E3F71F48091970230
:10174000909198020895843038F4743028F46B3006
:1017500018F4672F0C94640B90E080E00895CF9309
:10176000DF930E94930BEC0182389105A9F1D8F523
:101770008133910509F496C048F58932910509F441
:101780008AC08A9709F495C0C11521E5D20708F0EF
:10179000BCC0C11530E5D30708F014C1C83ED1055F
:1017A00008F09CC0C03ED10560F5C83AD10508F0EC
:1017B00087C0C53AD10508F0FDC0C130D10509F197
:1017C0002097F9F0C430D105E0F440C0853391058D
:1017D00009F45AC0C997C1F680910503837089F056
:1017E000C0EED0E00EC0833E910599F170F4803ECA
:1017F000910501F1823E910539F68091050382FD44
:1018000021C0CE01DF91CF910895863E910561F10F
:10181000873E910571F1843E910509F0B5CF809125
:10182000060381FFEECF80910503C7EED0E084FD73
:101830000DC0E7CF8091050380FD12C19091060392
:1018400090FFDFCFC3EED0E084FFDBCFD0E0C0E07D
:10185000D8CF8091050382FD06C19091060390FDCB
:10186000BFCF84FFCECFF2CF8091050383FDDDCFC4
:10187000C8CF8091050383FDF9C09091060391FFC5
:10188000F0CFC4EED0E0BDCF8091050385FFB9CF86
:10189000C9E2D0E0B6CF8091050385FFB2CFC5E3A2
:1018A000D0E0AFCF8091050386FFABCFCAE2D0E096
:1018B000A8CF8091050386FFA4CFC1E3D0E0A1CFDC
:1018C000CF3BD10518F6C85AD0E0CC0FDD1FCA595E
:1018D000DE4F0990D881C02DD46493CFC11540E26A
:1018E000D40758F4C11581E0D80708F08ACFC03F6B
:1018F000D10508F4ABCFD06584CFC11590E4D907EA
:1019000008F4A4CFDF70D06A7CCFC11525E5D207DB
:1019100000F5C11534E5D30708F08AC0C11543E5C9
:10192000D40708F071C0C11582E5D80708F467C074
:10193000CE018370992721E030E002C0220F331FCF
:101940008A95E2F7C695C69580E2C89FE00111240A
:1019500052C0C11599E5D907A8F4C11528E5D207E9
:1019600008F06BC0C11536E5D30708F06FCF8C2F98
:101970000E94AC0AC82FD0E0DC2FCC27CC27DF7127
:10198000D0623FCFC1154AE5D40708F45BC0CE0151
:1019900090568115904208F059CF8D2F8F710E947B
:1019A000AC0A90E0982F882788279F719C012C2BE8
:1019B000E901E6CFC55AD0E0CD59DE4FC881D0E06D
:1019C000D0641FCFCE01E4E096958795EA95E1F7C4
:1019D00083702C2F26952695237040E2249F90013A
:1019E0001124382B8C2F8370C1E0D0E002C0CC0FC3
:1019F000DD1F8A95E2F7C22BD32BDC6802CFDC2FE8
:101A0000CC27C16FD06AFDCECE018370992721E02B
:101A100030E002C0220F331F8A95E2F7C695C695C3
:101A200090E2C99FE0011124C22BD32BDA68E9CEE2
:101A3000DC2FCC27C46FD06AE4CEDC2FCC27C06F5C
:101A4000D06ADFCE8C2F8F700E94AC0A34E0D6951E
:101A5000C7953A95E1F7CF709C2FEC01D069D1CEB4
:101A6000C9E3D0E0CECEC2EED0E0CBCEC6EED0E021
:101A7000C8CEBF92CF92DF92EF92FF920F931F9347
:101A8000CF93DF938C01C0907303D0907403E090E8
:101A90007503F09076038091F8029091F902A0917D
:101AA000FA02B091FB02C82AD92AEA2AFB2ACFE11E
:101AB000D0E0BC2ED701C6010C2E04C0B695A79568
:101AC000979587950A94D2F780FD0EC0219788F7E5
:101AD000B12C8B2DDF91CF911F910F91FF90EF9043
:101AE000DF90CF90BF900895B8018C2F0E94AF0B6C
:101AF000019761F3EECFCF93DF93EC010E94390D94
:101B0000BE01DF91CF910C94AF0B0E947B0D292F6A
:101B10002F7092959F7092509E3078F4E92FF0E0EC
:101B2000E25BF34D0C940C2B803F19F020F4883EBF
:101B300020F481E00895843FE1F380E00895883E39
:101B4000C0F3813FD1F7F5CF822F86958695869594
:101B50000895CF93DF93C6EAD1E060E0CE010E9402
:101B6000B52B2196C11584E0D807B9F7DF91CF9145
:101B700008950F931F93CF93DF938901843068F505
:101B8000623058F5423048F501152CE5120731F462
:101B90002091130130911401232BF9F028E0829F4A
:101BA000C001112424E0629FB0011124860F971F09
:101BB000C42FD0E0CC0FDD1FC80FD91FCA57DE4F8E
:101BC000612FCE010E94B52B602FCE010196DF91CF
:101BD000CF911F910F910C94B52BDF91CF911F9155
:101BE0000F9108950F931F93CF93DF938901843052
:101BF00048F5643038F54B3028F521153C4531F473
:101C00002091130130911401232BE1F0C42FD0E077
:101C1000CC0FDD1F96E1699FC00DD11D112498E501
:101C2000899FC00DD11D1124612FCE0186960E947F
:101C3000B52B602FCE018796DF91CF911F910F9129
:101C40000C94B52BDF91CF911F910F9108958F9236
:101C50009F92AF92BF92CF92DF92EF92FF921F932B
:101C6000CF93DF93809013019090140181E090E076
:101C700090931401809313018FE7C82E84E0D82E2F
:101C8000C0E07601D0E014C0F50125913491412FD8
:101C90006D2F8C2F0E94F20D82E0A80EB11C1F5FE9
:101CA0001B3091F786E1E80EF11CDF5FD43019F0AC
:101CB000570110E0E9CF21E030E040E060E08C2FF8
:101CC0000E94B90D21E030E041E060E08C2F0E94DD
:101CD000B90D21E030E040E061E08C2F0E94B90DA9
:101CE00021E030E041E061E08C2F0E94B90DCF5F30
:101CF00088E5C80ED11CC43009F0C3CF90921401FE
:101D000080921301DF91CF911F91FF90EF90DF90B0
:101D1000CF90BF90AF909F908F900895CF93DF9317
:101D200000D00F92CDB7DEB790916603943011F5D5
:101D300089837B836A839093E9008FEF9091E80019
:101D4000815095FD06C095ED9A95F1F7000081113F
:101D5000F5CF8091E80085FF0DC050E040E063E0E2
:101D600070E0CE0101960E9472048091E8008E77A7
:101D70008093E8000F900F900F90DF91CF9108951E
:101D8000BC0184E00C948E0EBC0183E00C948E0E9A
:101D90009C0184E08093E9009FEF8091E8009150DE
:101DA00085FD06C085ED8A95F1F700009111F5CF0C
:101DB0008091E80085FF0CC050E040E066E070E0F4
:101DC000C9010E9472048091E8008E778093E80038
:101DD0000895CF93DF93EC0180911F018823B1F127
:101DE0008091050387FF32C060E284E08093E900C0
:101DF0008FEF9091E800815095FD06C095ED9A9582
:101E0000F1F700008111F5CF8091E80085FF1BC03C
:101E100080911F0170E050E040E0811104C050E06B
:101E200040E068E070E0CE010E9472048091E8001A
:101E30008E778093E80080E2FE01A4E4B3E0019095
:101E40000D928A95E1F7DF91CF91089568E081E0E6
:101E5000CDCF81E08093E00080E28093D8001092A3
:101E6000C9008FE19EE40197F1F700C0000087E010
:101E700090EBDC018093770390937803A093790330
:101E8000B0937A0388E19CE00FB6F894A89580930C
:101E900060000FBE90936000FFCF1F93CF93DF933E
:101EA000182FD0E0C0E0893311F4C0E5D0E0812FD5
:101EB0000E941F0A209731F4812FDF91CF911F914B
:101EC0000C940B098FE99FE00197F1F700C0000027
:101ED0002197F0CF0F931F93CF93DF93C62FD42F6B
:101EE000022FFC0182818823A1F0609372030E947B
:101EF000C1059093710380937003C77081E001C0A6
:101F0000880FCA95EAF7DF91CF911F910F910C943A
:101F1000F50680917203681335C08091700390912B
:101F200071030E94B205883C910560F510E21D0F17
:101F3000CD17B9F080E28C0F883040F4C77081E093
:101F400001C0880FCA95EAF70E94EA06183048F4E3
:101F500081E09D2F977001C0880F9A95EAF70E9443
:101F6000F506802F0E944D0F183098F4D77081E04D
:101F700001C0880FDA95EAF7DF91CF911F910F9199
:101F80000C94EA06C77081E001C0880FCA95EAF791
:101F9000F3CFDF91CF911F910F91089580912E0380
:101FA00080FD0AC0EFEFF1E01182108212823396B9
:101FB00052E0E833F507C1F7519A3BB13D7F2BB1B1
:101FC00022604FB7F8948FEF91E0FC015191CF015F
:101FD00068E02BB9000000C057FF3BB9550F000067
:101FE00000C000C000C03BB900C06A9591F7F2E0A4
:101FF00088339F0751F74FBF8FE594E00197F1F7C2
:1020000000C000000895EF92FF921F93CF93DF93DB
:10201000EC018FEFE82E81E0F82E10E08C81970123
:102020004091310360913003810F0E944B07135F91
:1020300083E0E80EF11C173F89F70E94CE0F9A81CA
:102040008C8190FF08C08F5F8C83DF91CF911F91AF
:10205000FF90EF9008958150F7CFBF92CF92DF921B
:10206000EF92FF920F931F93CF93DF93FC01828136
:10207000DD24DA9480FD02C0DD24D3940FEF11E05B
:10208000D0E0C0E023E1B22EF8011182108212826A
:1020900094E0E92EF12CC12C8091FC018C0D84314F
:1020A0000CF43DC06B2D0E94D62A892F082E000CFF
:1020B000990B8C179D0791F4809131038E9DA0019F
:1020C0008F9D500D1124559547955595479598012D
:1020D0006091300380912F030E944B07CD0CF1E0FB
:1020E000EF1AF108C9F621960D5F1F4FC331D105D4
:1020F00059F60E94CE0F8091FC0191E0D91215C0D3
:10210000811111C082E18093FC01DF91CF911F9179
:102110000F91FF90EF90DF90CF90BF90089587FFD1
:10212000C5CF8D5EC3CF8150EECF90E00196BE014A
:102130000E94F82AE8CF0F931F93CF93DF93CFEF3E
:10214000D1E0FE01118210821282339682E0E833E0
:10215000F807C1F710E000E08091FD01082E000CA7
:10216000990B081719078CF180911001082E000CAB
:10217000990B801791074CF19E01409131036091BA
:10218000300380912F030E944B070F5F1F4F239650
:102190000331110509F70E94CE0F80910F01909134
:1021A000FD01980F9093FD0120911001280F2093BD
:1021B0001001121614F492311CF0819580930F01D6
:1021C000DF91CF911F910F910895198218821A8281
:1021D000DCCF8F929F92AF92BF92CF92DF92EF921D
:1021E000FF920F931F93CF93DF93EC014C81042F49
:1021F00010E09801D8010E943D2C9B01AC010E9487
:10220000082C4B015C01E0E2F0E0E01BF10BA5E5DE
:10221000B0E0AC019B010E94082C6B017C019F0186
:10222000DF010E94192B9B01AC010E94132C9B0122
:10223000AC01280D391D4A1D5B1DC701B6010E9466
:102240001B2CF22E822F90E039E23F15D8F143E0AB
:10225000249F9001112435952795122F10959FEFFB
:10226000C92E91E0D92E00E085E5E82EEF188E2DDD
:1022700001FD8F2D9601412F609130030E944B0785
:102280000F5F53E0C50ED11C033189F70E94CE0FBA
:102290009C8181E0992319F0903219F48FEF80939B
:1022A000110180911101890F8C83DF91CF911F91D2
:1022B0000F91FF90EF90DF90CF90BF90AF909F90E5
:1022C0008F90089525E530E0A901481B590BCA01FC
:1022D0009A01220F331F280F391F37FFBCCF2F5F02
:1022E0003F4FB9CFEF92FF920F931F93CF93DF939E
:1022F0008C01CFEFD1E0F12CE12CF80194816091B9
:10230000300380912F03F9E0EF16F104FCF49923D8
:10231000F9F09E01409131030E944B072FEFE21A22
:10232000F20A239683E1E816F10439F70E94CE0FF2
:10233000F801848190E00196817099278483DF9170
:10234000CF911F910F91FF90EF900895992309F37A
:102350009E0140E0E1CF90912E0390FF0CC0EFEF83
:10236000F1E0818360834283339692E0E833F9079A
:10237000C1F70C94CE0F08950F931F93CF93DF9363
:1023800000D00F92CDB7DEB78C018091FE01811194
:102390000AC09E012F5F3F4F4FEF6FEF0E944B0728
:1023A0008A818093FE01F8016481613069F0809137
:1023B000FE0140E0662361F040E0623011F440919C
:1023C000FE0180E060E004C06091FE0140E080E03A
:1023D0000E94AB11F801848190E0019663E070E007
:1023E0000E94F82A84830F900F900F90DF91CF9175
:1023F0001F910F910895CF93DF9300D00F92CDB727
:10240000DEB790912E0390FF0AC09E012F5F3F4FD1
:102410000E944B074B8169818A810E94AB110F900A
:102420000F900F90DF91CF910895CF93DF93EC0140
:10243000EC81F0E0E158FC4F4491EEE2F3E0628180
:1024400081810E94FB118C818F5F8C83DF91CF9102
:102450000895CF93DF93EC01EEE2F3E043816281D4
:102460008C810E94FB118C818F5F8C83DF91CF91D7
:102470000895AF92BF92CF92DF92EF92FF920F93A7
:102480001F93CF93DF9304E911E0CCEFD2E0C12C8E
:10249000D12CEE24E394F12CF80181918F01F89472
:1024A000E82FE295EF70F0E021A18F70A70102C044
:1024B000440F551F8A95E2F7CA01922F982B91A3DA
:1024C00092A18095892382A3789400C0E8E9F1E085
:1024D00030E020E0B12CA12C4191A42FA295AF7047
:1024E000B0E090968C9190E04F7002C095958795E2
:1024F0004A95E2F780FD5EC0C701022E02C0880F38
:10250000991F0A94E2F7A82AB92A2F5F3F4F2B3070
:10251000310511F7F801319780810E94950A53E047
:10252000C51619F080EA8A95F1F788819981A81675
:10253000B90609F442C0B982A88281E0D82AC394BE
:102540002296E4E0CE12A8CFDD20C9F181E080938D
:10255000FB010E94C1059093FA018093F9018091DB
:10256000F9019091FA010E94B205069760F18091FD
:10257000FC029091FD029093340380933303809189
:10258000FE029091FF029093360380933503809171
:102590000003909101039093380380933703809157
:1025A00002039091030390933A03809339031092AE
:1025B000FB0109C090E080E0A6CF80E0BFCF809112
:1025C000FB018111CCCF8D2DDF91CF911F910F9108
:1025D000FF90EF90DF90CF90BF90AF900895AF92B3
:1025E000BF92CF92DF92EF92FF920F931F93CF9300
:1025F000DF93EC018AE0A82E2881222309F48CC005
:102600002130C9F599818A81913021F422960E9466
:102610004D0F05C0923029F422960E941F0A219680
:10262000EBCF933021F422960E940B09F8CF94301F
:1026300011F02196F4CF229630E020E0AE014F5FFA
:102640005F4F8053990B8A30910550F0215031092A
:1026500030F38FE99FE00197F1F700C00000F6CF5B
:10266000A29EB001A39E700D11249C01260F371F5E
:102670008981EA01E3CFE22FF0E0E650FE4FB4900B
:10268000822F86958695869590E0FC01E651FE4F57
:10269000E4902770F12C022E02C0F594E7940A947E
:1026A000E2F731E0E322FF24FC01E652FE4FC49042
:1026B000D12C022E02C0D594C7940A94E2F731E0DF
:1026C000C322DD24FC01E653FE4F049110E002C05A
:1026D000159507952A95E2F701701127E114F10489
:1026E00019F081EE0E941F0AC114D10419F086EE80
:1026F0000E941F0A8B2D0E944D0FCD2819F086EEE7
:102700000E940B09EF2819F081EE0E940B09012BA2
:1027100009F485CF8CE27BCFDF91CF911F910F9190
:10272000FF90EF90DF90CF90BF90AF900895109200
:10273000F60280911F01EAEDF1E0882359F08091C3
:10274000050387FF07C08EE1DF011D928A95E9F737
:102750000C94080886E0F8CF1F93CF93DF93CDB792
:10276000DEB7AA970FB6F894DEBF0FBECDBF88E6DE
:1027700093E02091F100DC012D93CD01B3E080378F
:102780009B07B9F780916903833009F471C0B8F4ED
:10279000813009F448C0823009F4B2C08091E80069
:1027A00083FF3AC180916803909169039A3008F0E1
:1027B00033C1E92FF0E0E45AF34D0C940C2B8A302E
:1027C00009F48DC08B3009F470C0893039F78091DD
:1027D0006803813219F780916C0390916D03009723
:1027E00011F00297D9F68091E800877F8093E80086
:1027F0008091E80082FF37C09091F3008091F20051
:10280000029729F48091F1008B7F813021F480912F
:10281000F100809343038091E8008B778093E80078
:102820000E949C04BBCF80916803813A09F0B6CF27
:102830008091E800877F8093E80080916C039091FD
:102840006D03892B61F460E284E493E070E00E9400
:102850004E058091E8008B778093E8009FCF60E081
:1028600090E080E0F3CF809166038111C1CF96CFD5
:1028700080916803813A09F091CF80916C03909127
:102880006D03892B09F08ACF8091E800877F8093C0
:10289000E8008091E80080FFFCCF80911F018093C9
:1028A000F1008091E8008E77B9CF80916803813282
:1028B00009F074CF80916C0390916D03892B09F01E
:1028C0006DCF8091E800877F8093E8000E949C0490
:1028D00080916A0380931F010E9497135FCF8091BC
:1028E0006803813209F05ACF8091E800877F809396
:1028F000E8000E949C0480916B03809342034ECFBA
:1029000080916803813A09F049CF8091E800877F80
:102910008093E8008091E80080FFFCCF8091420323
:10292000BECF803899F0823809F076C080916C0370
:102930008F70873008F070C08093E9008091EB00C1
:1029400085FB882780F91092E90006C08091640316
:1029500090916503911182609091E800977F909328
:10296000E8008093F1001092F1008091E8008E77EA
:10297000C0C1882309F4ADC1823009F04DC08091F7
:102980006A038111B1C180916C038F702FEF280F02
:10299000263008F041C08093E9002091EB0020FF31
:1029A000A3C1933031F48091EB0080628093EB00FF
:1029B0009BC19091EB0090619093EB0021E030E09F
:1029C00001C0220F8A95EAF72093EA001092EA00EC
:1029D0008091EB008860EACF81111EC010916A03DC
:1029E0001F778091E3008078812B8093E3008091B2
:1029F000E800877F8093E8000E949C048091E800B3
:102A000080FFFCCF8091E30080688093E30082E048
:102A1000111183E0809366038091E80083FF0AC070
:102A20008091E800877F8093E8008091EB008062CE
:102A30008093EB00AA960FB6F894DEBF0FBECDBF11
:102A4000DF91CF911F9108958058823028F720910F
:102A50006A0330916B032C3DE3E03E07A1F583E070
:102A60008A838AE289834FB7F894DE01139620E0C7
:102A70003EE051E2E32FF0E050935700E49120FF55
:102A800003C0E295EF703F5FEF708E2F90E0EA3069
:102A9000C0F0C7968D939D932F5F243159F74FBF98
:102AA0008091E800877F8093E8006AE270E0CE01C1
:102AB00001960E944E058091E8008B778093E80094
:102AC000ABCFC096E7CF80916C0390916D03432FFD
:102AD00055274330510509F44AC078F54130510576
:102AE00009F485C08BE590E0E0E0F7E04230510565
:102AF00009F092CF2091E800277F2093E8002091F1
:102B00006E0330916F038217930708F49C0140E035
:102B10002115310509F070C041116EC08091E800A7
:102B200082FDC9CF80916603882329F2853019F28E
:102B30008091E80083FFF2CFBECF4132510509F406
:102B400047C04232510509F067CF8330910508F044
:102B500063CFFC01EE0FFF1FE653FE4F0190F081A3
:102B6000E02D89539E4FDC018C9190E01DC03327EE
:102B700021303105E9F02115310579F02230310598
:102B8000F9F02330310509F047CFEDE6F7E0E491A5
:102B90008E2F90E0EDE6F7E007C0EDEAF7E0E49174
:102BA0008E2F90E0EDEAF7E0009709F435CFA2CF41
:102BB000EBE9F7E0E4918E2F90E0EBE9F7E0F4CF5A
:102BC000EBE8F7E0E4918E2F90E0EBE8F7E0ECCF54
:102BD0008330910508F020CF880F991FFC01E05346
:102BE000FE4F0190F081E02D89E090E083CF82E1FB
:102BF00090E0EBE5F7E07ECF80916603882309F44F
:102C00005ACF853009F457CF8091E80083FD53CF28
:102C10008091E80082FD82CF8091E80080FF78CF2C
:102C20009091F3008091F2002115310519F0883060
:102C3000910550F041E0089709F040E08091E800EC
:102C40008E778093E80064CF44914093F1003196F1
:102C5000215031090196E8CF803809F0DDCE80910E
:102C6000E800877F8093E800809167038093F100FC
:102C70007CCE8111D1CE10916A03123008F0CCCEF7
:102C80008091E800877F8093E800109367030E949B
:102C90009C04112311F084E005C08091E30087FDBE
:102CA000FACF81E08093660342E061EC81E00E940C
:102CB000BB0442E261EC84E00E94BB0442E261ECAE
:102CC00082E00E94BB0442E260EC83E00E94BB040D
:102CD000A3CE80916A03813009F09ECE81E09330CB
:102CE00009F080E0809365031092E9008091E8008C
:102CF000877F8093E8000E949C048ECE4F925F9263
:102D00006F927F928F929F92AF92BF92CF92DF92FB
:102D1000EF92FF920F931F93CF93DF93FC0162809A
:102D2000448081E08483EFE7F3E07490EEEFF3E01A
:102D3000E491C8E3D2E03FEFE32E31E0F32E47E920
:102D4000C42E42E0D42E52E0A52EBB24B394882496
:102D50008A94912C55245A94E7190E2F10E082E0A2
:102D6000861530F080912F0388838091300389830A
:102D7000411021C01B821A8297014A816981888192
:102D80000E944B07259683E0E80EF11CCC16DD0669
:102D900031F7DF91CF911F910F91FF90EF90DF906E
:102DA000CF90BF90AF909F908F907F906F905F90EB
:102DB0004F900C94CE0F8B818823E9F081508B8348
:102DC000859DC00111246C8170E00E94E42AFB0102
:102DD000FF27E158FC4F8491E82FE719E59DC001DA
:102DE0001124B8010E94E42A80913103689FB00148
:102DF00011247A83C1CF0E94742B20913103269530
:102E000021582A9DA0012B9D500D1124452F552797
:102E1000841795070CF0B0CF82E0861588F40E94E5
:102E2000742BB4010E94F82A88830E94742B20918D
:102E300030032695622F70E00E94F82A280F29831C
:102E40001A8280913103893C20F088EC8C838B833B
:102E500093CF8431D8F784E1F9CF6BEE7EEF90E029
:102E600080E00E94D32B60E082E090E00E94B52BCE
:102E700060E083E090E00E94B52B1092F80210927F
:102E8000F9021092FA021092FB0260E084E090E0F6
:102E90000E94B52B60E081E290E00E94B52B60E0DB
:102EA00085E090E00E94B52B60E086E090E00E9413
:102EB000B52B6FEF87E090E00E94B52B40E050E02B
:102EC000BA0188E090E00E94C72B60E08DE090E0BE
:102ED0000E94B52B40E050E0BA0188E190E00E94EA
:102EE000C72B60E087E190E00E94B52B40E050E006
:102EF000BA018CE190E00E94C72B60E080E290E094
:102F00000E94B52B40E050E0BA0188E190E00E94B9
:102F1000C72B40E050E0BA018FE090E00E94C72B41
:102F200040E050E0BA0183E190E00C94C72BCF92CF
:102F3000DF92EF92FF926B017C010E943C07B70188
:102F4000A60188E090E0FF90EF90DF90CF900C9486
:102F5000C72B5F926F927F928F929F92AF92BF9298
:102F6000CF92DF92EF92FF920F931F93CF93DF9355
:102F700000D00F92CDB7DEB7182F762E042F622E19
:102F800090912E0390FF29C0E92FE695AE2FB0E077
:102F9000A85CBE4F8C9180932C039E7F923081F56C
:102FA0009E012F5F3F4F812F0E944B074B8169810C
:102FB0008A810E94AB1110932F037092300300930B
:102FC0003103662051F060912E0370912F038091A0
:102FD0003003909131030E9497170F900F900F903C
:102FE000DF91CF911F910F91FF90EF90DF90CF90E5
:102FF000BF90AF909F908F907F906F905F9008955B
:10300000823019F400913103D6CF863019F4109133
:103010002F03D1CF8930D9F3893169F6E9518E2F49
:103020008170582EE695F0E0E658FC4FA590B490DC
:10303000BB248FEFE82E81E0F82ED12CC12C93E138
:10304000892E912CC601B4010E94E42A812F5110CF
:1030500013C0860F9701402F672D0E944B07CA0CA3
:10306000DB1C83E0E80EF11C88E3E81682E0F8063A
:1030700049F70E94CE0F9FCF861BECCFEEE2F3E024
:10308000438121E1421B08F440E021E0628181811B
:103090000C94A917EEE2F3E0438121E1420F08F41A
:1030A0004FEF21E0628181810C94A917EEE2F3E0F9
:1030B000628121E1621B08F460E021E043818181AB
:1030C0000C94A917EEE2F3E0628121E1620F08F4AB
:1030D0006FEF21E0438181810C94A917EEE2F3E0C8
:1030E000818121E04381628188500C94A917EEE22E
:1030F000F3E0818121E043816281885F0C94A9170C
:1031000080913203882319F08150809332036091BB
:103110002E0370912F0380913003909131030C9412
:10312000971780913203833018F48F5F80933203B6
:1031300060912E0370912F038091300390913103A1
:103140000C949717EEE2F3E083E0808311828FEF17
:1031500082838383148260817181828193810C9444
:10316000971790912E0390FF3DC09170811129C057
:10317000926090932E03662351F060912E0370911C
:103180002F0380913003909131030E949717609133
:103190002E03669570E04BE050E084E091E00E94E1
:1031A0008D2B892BA9F010922D0381E080930D03C4
:1031B00020E0409131036091300380912F030C9403
:1031C000A9178B3210F09465D4CF880F982BD1CFEC
:1031D00081E080932D030E94C10590930B0380939F
:1031E0000A03E3CF089580912E038695815009F458
:1031F0008AE261E00C94B11880912E0386958F5F6E
:103200008B3208F081E061E00C94B11890912E03AC
:1032100090FF07C09695981720F0961710F40C941D
:10322000FC1861E00C94B118AF92BF92DF92EF925C
:10323000FF920F931F93CF93DF9300D000D0CDB7B1
:10324000DEB78C01CB01FB01F280FF2009F4B2C292
:10325000980122513F452031310508F085C28FEF9A
:1032600093E00E94A12B811179C0025186EAA82E19
:10327000BB24B394011135C019821A821B821C82AF
:10328000DD24DA9485010F5F1F4FC5010E94A12B39
:1032900089831A82882309F461C0813009F053C000
:1032A000750142E0E40EF11CC8010E94A12B082F19
:1032B0008A83882309F452C0C7010E94A12B182FCA
:1032C0008FEF800F8330D8F4750153E0E50EF11CC9
:1032D0001B83112321F0CE0101960E94EF125701AA
:1032E000D1CFA114F4E0BF06C9F1C5010E94A12B02
:1032F000811101C001502FEFA21AB20ABBCF0430D6
:1033000071F7750184E0E80EF11CC50103960E9477
:10331000A12B112319F1882309F18150990BD89E13
:103320009001D99E300D1124E12FE150FF0BCF0108
:10333000820F931F019798F2EFE9FFE03197F1F7C1
:1033400000C00000F7CFCE0101960E94EF12780175
:10335000C6CF81E00E9480080E942908F12C05C098
:1033600081E00E9445080E9429088F2D0F900F9040
:103370000F900F90DF91CF911F910F91FF90EF90E1
:10338000DF90BF90AF90089582E0E4CF053F2CE539
:10339000120709F460C008F45AC027E245EE66EE51
:1033A000063F5CE5150709F402C2FF2009F40DC2CF
:1033B0001092720302308CE5180708F42EC1063112
:1033C0009CE5190730F0C8018A5F9C45099708F011
:1033D00024C10E94260B90930603809305030031BD
:1033E000ECE51E0709F4E8C008F076C008302CE5CB
:1033F000120709F4D3C008F048C004305CE5150793
:1034000009F4C4C078F502309CE5190709F4B8C086
:1034100080910503826003301C4509F4B4C06091BB
:1034200005031091060384E090E00E94B52B612F04
:1034300081E290E00E94B52B0E9497138FCF27E284
:1034400045EE65EEB4C126E241EE60EEB0C127E282
:1034500045EE64EEACC126E241EE62EEA8C128E280
:1034600041E0EFCF8091050380610630FCE51F0746
:1034700009F489C080910503886007301C4508F471
:1034800082C08091050380627EC0809105038D7F9C
:103490000C304CE5140709F476C058F40A308CE57A
:1034A000180709F485C008F47DC0809105038E7F5C
:1034B0006AC080910503877F0E30ECE51E0709F492
:1034C00062C0809105038B7F0F301C4508F45BC000
:1034D000809105038F7E57C00B3F2CE5120709F43E
:1034E00059C030F503315CE5150709F46DC078F477
:1034F00001319CE5190709F463C002311C4509F04C
:103500008ECF0E949713809105038F773CC00531C1
:10351000FCE51F0709F460C008F474C0809106033D
:1035200081600A3F1C4509F07ACF8093060377CF6C
:103530000F3F5CE5150709F44BC088F48091060342
:103540008D7F0D3F9CE5190781F3809106038E7FE7
:103550000E3F1C4550F3809106038360E6CF013097
:10356000FDE51F0709F457C008F442C060E00230CF
:103570001D4509F054CF8EE090E00E94B52B4FCF4F
:103580008091050381608093050349CF80910503F5
:103590008460F9CF809106038260C7CF80910503D4
:1035A0008064F1CF0E949713809105038068EBCF70
:1035B000809105038C60E7CF809105038F7DE3CF79
:1035C000809105038F7BDFCF80910503837FDBCF65
:1035D000809106038C7FA9CF8091050382FB9927F8
:1035E00090F921E0922790FB82F990FB83F9CBCFF1
:1035F00080910603982F909591708E7F892B90FB78
:1036000081F993CF0E94971390910503892F97FB1F
:1036100087F98058B8CF61E0AECF8091F6020631CD
:103620005CE5150709F0E1C08A7A91E009F490E0C1
:103630009093F80169E2811165E388ED91E00E94C1
:10364000F7050E9432068ACE80912E0380FF1BC0B0
:103650008E7F80932E0360912E0370912F038091B3
:103660003003909131030E94971710922D038FEF32
:1036700090E7E2E081509040E040E1F700C00000B8
:103680000E94CE0F6BCE816080932E0361E0869501
:103690000E94B11863CE43EF58E16CEF78E10E94CD
:1036A00037075CCE4CEF58E163EF78E1F8CF4EE698
:1036B00058E167E778E1F3CF47E758E16EE678E154
:1036C000EECF46E558E162E678E1E9CF42E658E11F
:1036D00066E578E1E4CF4EE358E16AE478E1DFCFD4
:1036E0004AE458E16EE378E1DACF40E858E161E975
:1036F00078E1D5CF41E958E160E878E1D0CF61E0E9
:1037000081E0C6CF65E082E00E94061927CE68E01E
:1037100086E0FACF6EE089E0F7CF64E18FE0F4CF86
:1037200067E185E1F1CF61E088E1B2CF62E289E152
:10373000EBCF61E083E2ACCF0115FCE51F0739F068
:103740000E3D1C4509F011CE0E942D1707CE0E9498
:1037500097134FEF54E38CE0415050408040E1F725
:1037600000C000000E94290F0031EFE51E0709F498
:10377000F0CD0131FFE51F0709F406CE033F2CE52C
:10378000120709F460CE08F001CE083D5CE515078C
:1037900009F455CE093DECE51E0709F460CE073D5E
:1037A000FCE51F0709F001CE26E241EE61EE0E9422
:1037B0006A0FD4CD00312FE5120709F4D1CD0131C4
:1037C0004FE51407D9F682E0CCCDFF24F3940631FF
:1037D0001C4509F0CACD8091F80169E2811165E3C9
:1037E00088ED91E00E94CD052CCF8272F801E25C59
:1037F000FC45E431F10508F09FCFEA59F34D0C94F4
:103800000C2B4F925F926F927F928F929F92AF920A
:10381000BF92CF92DF92EF92FF920F931F93CF93BD
:10382000DF9300D000D00F92CDB7DEB76C01FC0162
:1038300083819481892B31F08081918189238F3F0D
:1038400009F0E3C20F900F900F900F900F90DF914F
:10385000CF911F910F91FF90EF90DF90CF90BF908D
:10386000AF909F908F907F906F905F904F90089552
:103870000E94390D182F682F89819A810E949F0616
:1038800069817A81812F0E94930BB6010E941419DD
:10389000811120C08091F3028770A1F2F60182812C
:1038A000882381F282E00F900F900F900F900F907D
:1038B000DF91CF911F910F91FF90EF90DF90CF900C
:1038C000BF90AF909F908F907F906F905F904F9040
:1038D0000C946808F6018281008111818823D9F156
:1038E000C8010E94390DF82E682FC8010E949F065A
:1038F000B8018F2D0E94AF0B8C01882EF601F2804B
:10390000A580A2943FE0A3228091F3028770A1F0EA
:10391000EF2CFF2091F0812F807F803421F080E216
:10392000800F883048F082E00E9468088091F3029E
:103930008770EE24E3948111E12CB12EB2942FE034
:10394000B222FBE0FB1508F440C0EB2DF0E0E65896
:10395000F34D0C940C2BC8010E947706F82EC8CFAB
:10396000212F2F70A22E107F19F0A29490EFA92280
:10397000FF20C9F0AA2069F080E2800F883010F0A3
:1039800081100BC08091F602A82AA092F6020E9434
:103990003206802F0E941F0A18C08091F502A82AC3
:1039A000A092F502F4CF802F0E940B09AA2069F0A3
:1039B000A094005E083010F081103BC08091F602A8
:1039C000A822A092F6020E943206EB2DE850FF0BCF
:1039D000349710F40E942B07EE2009F433CF809126
:1039E000F30280FD2FCFF60112828595859585958E
:1039F0000E948008C6010E94011C8091F3028595F7
:103A0000859585950F900F900F900F900F90DF91F7
:103A1000CF911F910F91FF90EF90DF90CF90BF90CB
:103A2000AF909F908F907F906F905F904F900C948D
:103A300045088091F502A822A092F502C4CF312F4B
:103A40003F70932E107F103219F0929480EF9822DD
:103A5000882071F081E0881661F1FF20B9F1AA2079
:103A600071F1F601858180FF94CF8F70858327C027
:103A7000FF2091F09091F702892D892BA11003C0AE
:103A80000E94F506A2CFE1E0AE12FACF891709F441
:103A90009CCF8093F70299CFA11006C00E942C06FC
:103AA000892D0E94EA0691CFF1E0AF1609F48DCF7F
:103AB000F5CFFF2031F025E02A1508F486CF892DB7
:103AC000DFCF34E03A1508F480CFEACFAA2041F3E3
:103AD000F9E38F1293C12FEF37EE83E0215030408E
:103AE0008040E1F700C0000089C1812F869586954E
:103AF000837061F0813009F068CFC8019370F110D4
:103B000002C090E080E00E94FF065FCFC801937082
:103B1000F11002C090E080E00E94150756CF802F80
:103B2000FF2039F00E9444090E94E1070E94E1074A
:103B30004CCF0E94AB08FACF812F837009F066C08A
:103B4000F11043CF802F829586958770880F880F5C
:103B5000602F6F70462E512C712C612C082E04C0E2
:103B6000440C551C661C771C0A94D2F740E050E0C8
:103B7000BA0104FF0FC04FE050E060E070E004C005
:103B8000440F551F661F771F8A95D2F740955095B1
:103B900060957095812F869586958370823019F196
:103BA000D8F40091F8021091F9022091FA023091B4
:103BB000FB02813069F04429552966297729CB0118
:103BC000BA0160237123822393230E94A108FDCEB2
:103BD000402A512A622A732ACB01BA016429752925
:103BE00086299729F2CF44295529662977290091FA
:103BF000F8021091F9022091FA023091FB02CB01F8
:103C0000BA016027712782279327DFCF8695FF208F
:103C100011F0812F8170882309F4D7CE802F8295EF
:103C200086958770880F880F602F6F70462E512CF5
:103C3000712C612C082E04C0440C551C661C771C8A
:103C40000A94D2F740E050E0BA0104FF0FC04FE001
:103C500050E060E070E004C0440F551F661F771FFE
:103C60008A95D2F74095509560957095812F8695ED
:103C700086958370823019F1D8F400917303109106
:103C800074032091750330917603813069F04429E3
:103C9000552966297729CB01BA0160237123822334
:103CA00093230E941F0891CE402A512A622A732A28
:103CB000CB01BA016429752986299729F2CF4429B5
:103CC0005529662977290091730310917403209177
:103CD000750330917603CB01BA01602771278227E3
:103CE0009327DFCF1F70FF2029F0812F0E948008CB
:103CF000802FC6CE802F0E94EA06812F0E944508A1
:103D000064CE802F92EF891609F450C0981578F090
:103D1000E0EF8E1619F1F1EF8F1609F43FC0FF2086
:103D200009F467C0A11035CE812F8F713CC023EFFD
:103D3000821609F440C034EF8312F1CFFF2009F45A
:103D40004DC01F71812F0E948008E8E01E9FC001B6
:103D5000112483608093F302812F25C0FF20C9F0D6
:103D600084E08A1508F431CE1F7161E070E080E0D4
:103D700090E004C0660F771F881F991F1A95D2F72D
:103D800000917303109174032091750330917603B1
:103D9000A4CF95E09A1508F418CEE6CF812F8F7145
:103DA000FF2009F4ABCF0E9480080FCE812F8F71C6
:103DB000FF20C9F3A3CF60E070E0CB01FF2009F43E
:103DC00070CF1F7161E070E080E090E004C0660F8A
:103DD000771F881F991F1A95D2F763CF81E00E9441
:103DE0006808F1E0FA1508F0F0CD82E00E9468085A
:103DF000ECCDAA2039F0893309F46DCE802F0E94D2
:103E00000B09E3CD812F8F7179CF85E0DE0111960B
:103E100001900D928A95E1F7F601228189819A81BC
:103E2000211126CD0E947706182F2ACD1F93CF93FC
:103E3000DF938091A202807FA9F480919F02882362
:103E400089F08091D402D091A30260919D0270917B
:103E50009E02A091A002B091A102C62FC72316E036
:103E6000D81304C0DF91CF911F91089590E010976F
:103E700011F0CF3F19F401968770F2CF189F90018F
:103E8000199F300D1124F901EC55FD4F4181471365
:103E9000F2CF40814613EFCF42814111ECCF4381F5
:103EA00054814A1B5B0B483C510528F78091A202C4
:103EB0008F7080618093A202F901E755FD4F8081E8
:103EC0008F70806180838DE992E00E94011CDF91F8
:103ED000CF911F910C94CB06AF92BF92CF92DF92FD
:103EE000EF92FF920F931F93CF93DF93CDB7DEB77F
:103EF00061970FB6F894DEBF0FBECDBF8C0185E091
:103F0000F801DE011D9601900D928A95E1F7F80106
:103F100080819181E2802DE9A22E22E0B22E609173
:103F2000A0027091A1026115710509F43EC13091A2
:103F30009D0240919E02232F24232F3F09F435C177
:103F4000C380D480F0909F02F601E61BF70BFF20A0
:103F500009F4FBC02091A202522F507FE83CF105EA
:103F600008F0BBC0511178C0FE2C491321C0381392
:103F70001FC0E1101DC02F7020612093A202C50157
:103F80000E94011C8091A202F80185838F2D619609
:103F90000FB6F894DEBF0FBECDBFDF91CF911F915A
:103FA0000F91FF90EF90DF90CF90BF90AF9008956A
:103FB000CD2829F0282F29232F3F09F014C120E014
:103FC000F22FF170DF2E20FF3DC02091D4024091EE
:103FD000A30256E0241315C08D879E878D859E858C
:103FE0000E947B0D292F22952F702230F8F024306B
:103FF00020F59F70F9F0F8019581907FD9F4D12CCC
:104000001FC030E0529FF001539FF00D1124EC557A
:10401000FD4F6181961306C06081861303C06281E3
:10402000E61210C02F5F3F4F2770D4CF9F7011F062
:10403000882329F3805E883010F3C8010E94011C98
:10404000FD2CA4CFEE2009F4A1CF8091A2028160C3
:104050008093A202F12C9ACF491312C0381310C0DA
:10406000E1100EC0F8012583C8010E94011C86E002
:10407000F801ADE9B2E001900D928A95E1F786CFA3
:104080008D879E878D859E850E94850D882309F1E9
:10409000EE20F9F08091A202803270F020919D0212
:1040A00030919E0238872F831986DB86CA868C87DB
:1040B000CE0107960E94011C86E0F801ADE9B2E04E
:1040C00001900D928A95E1F70E94161FFF24F39448
:1040D0005DCFC8010E94011CF9CF51110AC08DE9C2
:1040E00092E00E94011C86E0F50111928A95E9F7A1
:1040F000B1CF49130FC038130DC0E1100BC0F80148
:104100002583C8010E94011C86E0F50111928A9561
:10411000E9F73CCF8D879E878D859E850E94850D12
:104120008823B9F2EE20A9F28091A202803220F217
:1041300020919D0230919E023A8329831B82DD8269
:10414000CC828E83CE010196B5CFE83CF105E0F636
:10415000FE2CEE2009F4BDCF491316C0381314C04D
:104160008091A20280FD83CF982F907F09F47FCFAA
:10417000F8018583903F09F477CF982F907F905F67
:104180008F70892B858370CF8D879E878D859E85C7
:104190000E94850D811190CF8091A2028160809351
:1041A000A202C8010E94011CF1CEEE2009F491CFB9
:1041B0008D879E878D859E850E94850DF82E88238C
:1041C00009F487CF86E0F801ADE9B2E001900D92E5
:1041D0008A95E1F780919D0290919E020E947B0D4D
:1041E0000E94161FD3CE21E02E25EACE1F93CF9337
:1041F000DF93CDB7DEB767970FB6F894DEBF0FBE7B
:10420000CDBF342F4B8B252F5C8B6D8B7E8B8F8B93
:104210008E899F8961111092F5021A8A198A3D8749
:104220002E876F87998B888B86E0FE013D96DE0195
:10423000179601900D928A95E1F7CE0107960E949C
:104240006C1F882389F016E08091D4029091A3021C
:10425000891349C067960FB6F894DEBF0FBECDBF75
:10426000DF91CF911F91089586E0FE013796DE0120
:10427000119601900D928A95E1F78A859B85892B8D
:1042800011F38F81988589238F3FE9F22091A30252
:1042900030E0C9010196877099274091D4024817F0
:1042A000190671F40E9497131092A3021092D4027F
:1042B00086E0EDE9F2E0DF011D928A95E9F7C3CFD0
:1042C00096E0929FD001939FB00D1124AC55BD4F45
:1042D000FE01319601900D929A95E1F78093A30229
:1042E0000E94CB06B0CF819FC00111248C559D4FF9
:1042F0000E946C1F882309F4ADCF8091D40290E016
:104300000196877099278093D4029ECF0F931F93B5
:10431000CF93DF9300D000D000D0CDB7DEB78C01B3
:1043200090939802809397021B821C821D821E82AA
:104330008EEF89838A8381E08B830E94C10581602F
:104340009D838C83011580E2180708F03FC0C801E7
:10435000805E9109089728F060EE76E0011511055E
:1043600011F465EF76E0C8010E94EF0A802F0E94E9
:104370001F0A8FE39CE90197F1F700C000000E943B
:10438000C10581609D838C831B82011590E2190712
:1043900020F5802F0E940B09C801805E91090897C3
:1043A00028F065ED76E00115110511F46AEE76E06E
:1043B000C8010E94EF0A26960FB6F894DEBF0FBE22
:1043C000CDBFDF91CF911F910F910895BE016F5F17
:1043D0007F4FC8010E941419CCCFBE016F5F7F4F81
:1043E000C8010E941419E7CFCF92DF92EF92FF929B
:1043F0000F931F93CF93DF93182F062FC090730353
:10440000D0907403E0907503F09076038091F802E9
:104410009091F902A091FA02B091FB02C82AD92A20
:10442000EA2AFB2ACFE1D0E0D701C6010C2E04C056
:10443000B695A795979587950A94D2F780FF12C0F5
:10444000402F612F8C2F0E94340B8130910551F049
:10445000DF91CF911F910F91FF90EF90DF90CF9060
:104460000C948621219700F7402F612F80E00E9455
:10447000340BEECF1F920F920FB60F9211242F9391
:104480003F934F935F936F937F938F939F93AF93DC
:10449000BF93CF93DF93EF93FF93D091E900DF7049
:1044A0008091EC00C82FC17080FDC0E81092E90037
:1044B0008091F000877F8093F00078940E94AC1385
:1044C0001092E9008091F00088608093F000CD2B7D
:1044D000CF70C093E900FF91EF91DF91CF91BF9131
:1044E000AF919F918F917F916F915F914F913F918C
:1044F0002F910F900FBE0F901F9018951F920F9243
:104500000FB60F9211242F933F934F935F936F93A6
:104510007F938F939F93AF93BF93EF93FF9380917C
:10452000E10082FF09C08091E20082FF05C0809116
:10453000E1008B7F8093E1008091DA0080FF24C04E
:104540008091D80080FF20C08091DA008E7F809318
:10455000DA008091D90080FF9BC080E189BD82E1B3
:1045600089BD09B400FEFDCF81E080936603809190
:104570004103811109C00E9422040E94ED04809130
:10458000E20084608093E2008091E10080FF17C028
:104590008091E20080FF13C08091E2008E7F8093C3
:1045A000E2008091E20080618093E2008091D80077
:1045B00080628093D80019BC85E080936603809167
:1045C000E10084FF29C08091E20084FF25C080E1E2
:1045D00089BD82E189BD89B5982F917080FFFBCF9D
:1045E0008091D8008F7D8093D8008091E1008F7EEC
:1045F0008093E1008091E2008F7E8093E2008091C1
:10460000E20081608093E20080916703882309F4CF
:1046100045C084E0809366038091E10083FF27C05A
:104620008091E20083FF23C08091E100877F809327
:10463000E10082E080936603109267038091E100BD
:104640008E7F8093E1008091E2008E7F8093E20074
:104650008091E20080618093E20042E060E080E0CF
:104660000E94BB048091F00088608093F000FF916D
:10467000EF91BF91AF919F918F917F916F915F91DA
:104680004F913F912F910F900FBE0F901F90189553
:1046900019BC109266031092410376CF8091E3001B
:1046A00087FD93E090936603B7CFCDB7DEB7E2976F
:1046B0000FB6F894DEBF0FBECDBF84B7877F84BF2F
:1046C0000FB6F894A895809160008861809360008F
:1046D000109260000FBE80E890E00FB6F8948093CF
:1046E0006100909361000FBE85B7806885BF85B774
:1046F000806885BF8DEA95E09093D7018093D601BD
:104700000E9422040E94ED048091E2008460809364
:10471000E2007894809166038823A1F01091E9006B
:104720001F709091EC00892F817090FD80E8182B0C
:104730001092E9008091E80083FD0E94AC131F7085
:104740001093E90082E084BD93E095BD9AEF97BD98
:1047500080936E0082E90E94950A83E90E94950A7F
:1047600085E90E94950A80EF0E94950A08E911E008
:10477000F3EAEF2EF1E0FF2ED8018D918D010E941A
:10478000950AE016F106C1F71092FD021092FC02A4
:1047900010923403109233031092FF021092FE0223
:1047A0001092360310923503109201031092000309
:1047B00010923803109237031092030310920203F1
:1047C00010923A03109239030E943912EFE3FCE988
:1047D0003197F1F700C000000E9439128091330335
:1047E00080FF17C06FEF82E290E00E94B52B6FEF61
:1047F00083E290E00E94B52B6FEF84E290E00E948C
:10480000B52B6FEF7FEF90E080E00E94D32B0E94EA
:10481000290F90E080E00E94AF2B8B3E9E4F11F05D
:104820000E942D1782E290E00E94A12B873209F0AE
:1048300044C683E290E00E94A12B843109F03DC67A
:1048400084E290E00E94A12B8B3309F036C690E001
:1048500080E00E94AF2B8B3E9E4F11F00E942D17DF
:1048600082E090E00E94A12B809321030E94260BFE
:10487000909306038093050383E090E00E94A12BB0
:10488000682F70E090E080E00E94A108809104030E
:10489000811136C090E080E00E94AF2B8B3E9E4F8E
:1048A00021F00E942D170E94A21888E090E00E943B
:1048B000A92B60932E0370932F0380933003909362
:1048C00031036E7F71F40E94A21888E090E00E948C
:1048D000A92B60932E0370932F0380933003909342
:1048E00031030E943C0710922D0380912E0380FF1C
:1048F00004C060E086950E94B11881E080930403B3
:1049000067EB71E044E153E0E3EB8E2EE1E09E2E95
:10491000E5EBF1E021E030E01191812F82958F707D
:1049200090E0DC019196FC9091971F70E12E690157
:1049300001C0CC0C1A95EAF70C2D00950F21919629
:104940000C93919792961C9192971C2992961C9386
:10495000D401FD904D010F2D02950F7010E0D8018C
:104960009196BC90BF2DBF70FB2E690101C0CC0C8D
:10497000BA95EAF7DC2CD094DB20D8019196DC9232
:1049800091979296DC909297DC289296DC92DC01CB
:1049900090968C9190E002C095958795EA94E2F705
:1049A0008170D80190960C9110E002C01595079582
:1049B000FA94E2F790E000FD92E0892BDA018D9302
:1049C000AD016E177F0709F0A7CF609105036068FE
:1049D000609305031091060384E090E00E94B52BDC
:1049E000612F81E290E00E94B52B85E191E09093E8
:1049F0000803809307035BE3452E53E0552E809117
:104A0000660300E112E1853009F4F2C10E94391217
:104A1000882359F08FB7F89440913B0350913C03A1
:104A200060913D0370913E038FBFA3E3B3E0E2E2E8
:104A3000F3E010E000E0702F8D919D912191319174
:104A40002817390709F4E4C12827392760E0EE2444
:104A5000E394F12CA9014E215F21452B09F4D2C129
:104A600069A77AA79C012E213F2191E0232B09F40D
:104A700090E09BA70E94C1058160782F9DA78CA71D
:104A800049A55AA56BA58DA50E94F620000F111F00
:104A9000F801EE5DFC4F80819181E826F926F182D4
:104AA000E08280912D038823D1F180912C03E09145
:104AB0002E03E695E81BE0930C03823009F0BFC19A
:104AC000F0E0E856FA4FE4910E2F10E075E1E72E82
:104AD00072E1F72E80910D03882361F010920D038F
:104AE0000E94C10590930B0380930A0310920F0359
:104AF00010920E030E94C105E0910A03F0910B038E
:104B00008E1B9F0B8F3F9F4750F4E00FF11FF093D8
:104B10000B03E0930A038AE093E0F701099552E161
:104B2000E52E53E0F52E00E113E063EBA62E61E0E5
:104B3000B62E75EB872E71E0972EE4E1CE2EE3E0E2
:104B4000DE2E212C312CF3E06F2E712CD601ED914D
:104B50006D01EE0FEE0FD4012D914D01A22FA29504
:104B6000AF70B0E090968C9190E02F7002C0959558
:104B700087952A95E2F781709927D5014D915D01BE
:104B8000A42FA295AF70B0E090962C9130E04F70BA
:104B900002C0359527954A95E2F7A901417055273E
:104BA00020FF02C042E050E0842BE82BD601119791
:104BB000EC93EF70F0E0ED55FE4F8081F7019081AE
:104BC000890F808320E083304CF0D8018C918F5F77
:104BD0008C9360E0832D0E94F42121E0F701808115
:104BE0008E3F4CF4D8018C9181508C9361E0832DE1
:104BF0000E94F42121E0F7018081082E000C990B1E
:104C0000B3010E94F82AD7018D937D01222A0F5FFC
:104C10001F4FB1E03B127FC1222059F08FB7F894AB
:104C200040913B0350913C0360913D0370913E03E2
:104C30008FBF86E0EAE1F3E0DE01119601900D926C
:104C40008A95E1F7E0901C03F0901D0300911E038C
:104C500010911F0310921C0310921D0310921E034B
:104C600010921F038E2D8F29B1F08091180390911F
:104C700019030E94B205E0911201F0E0EE0FFF1F50
:104C8000E154FE4F208131812817390720F4E0924A
:104C90001C03F0921D03802F812BB1F0809116032D
:104CA000909117030E94B205E0911201F0E0EE0F1F
:104CB000FF1FE954FE4F208131812817390720F466
:104CC00000931E0310931F0380911C0390911D03FA
:104CD000892B90911E03892B90911F03892B11F032
:104CE0000E94E10786E0FE013196AAE1B3E001905F
:104CF0000D928A95E1F70E942B0790912003891766
:104D000021F00E942B07809320038091660384305A
:104D100009F075CE83E08093E9008091E80082FF7E
:104D20006ECE8091E80090E085FF06C00E944104AD
:104D3000882309F4F3C091E08091E8008B77809399
:104D4000E800992309F45BCE00913F0310914003E2
:104D500089810115110509F4FDC08E3F09F08BC151
:104D60008A81833020F08550833008F084C1EA8145
:104D7000E83008F080C1F0E0EA57F34D0C940C2BBA
:104D800080916603843021F110920903E8E1F0E09C
:104D900020E40FB6F894A895E09360000FBE20932E
:104DA000600083B7817F846083BF83B7816083BFE6
:104DB0007894889583B78E7F83BF0FB6F894A895B3
:104DC00080916000886180936000109260000FBE47
:104DD00080916503882361F00E943912E3E3F3E0D8
:104DE00081919191892B09F052C34E165F06C1F74C
:104DF00080916603853009F4C3CF0E9497130E9407
:104E00002B0704CE6F5FEE0CFF1C6B3009F022CE37
:104E10000F5F1F4F0430110509F00DCE8FEF8EA7E5
:104E20008FA718AA0E94C1058160782F9AAB89AB21
:104E30004EA55FA568A98AA90E94F62032CE8630C9
:104E400059F4F0E0EB56FA4FE4910E2F10E069E2CE
:104E5000E62E62E1F62E3ECE893061F4E695F0E072
:104E6000EE56FA4FE4910E2F10E053E0E52E50E19C
:104E7000F52E30CE8F3061F4E695F0E0E157FA4F31
:104E8000E4910E2F10E04DE2E42E40E1F42E22CE0C
:104E9000853159F4F0E0E457FA4FE4910E2F10E019
:104EA0003BE9E32E30E1F32E15CE883169F18332F0
:104EB00049F4EAE8F5E0059114912CEBE22E21E1AA
:104EC000F22E08CE04EF11E0B2E7EB2EB1E1FB2E9B
:104ED000843209F4FFCD00ED17E0ACEAEA2EA5E03C
:104EE000FA2E853209F0F6CD8E2F63E00E94CA2A91
:104EF000E92FF0E0E957FA4FE4910E2F10E09EE71A
:104F0000E92E96E1F92EE6CD08E210E089EEE82ED2
:104F100080E1F82EDFCD3324339418CE00E210E088
:104F2000FE0131967F018091E80085FD0AC08091E5
:104F3000E8008B778093E8000E944104882399F36E
:104F4000FACE8091F100D7018D937D0101501109B6
:104F500051F7F1CE893009F460C128F5843009F4A5
:104F6000EBC058F4823009F46CC008F0D6C0813030
:104F700009F463C08FEF89837EC0863009F4F2C0E4
:104F800008F4E5C0873009F4F0C0883099F78A81C9
:104F9000813809F437C108F029C1803809F06BC0A5
:104FA000809131034CC0803109F471C1D0F58D304E
:104FB00009F43EC128F48C30E9F680E18A835BC0B5
:104FC0008E3009F439C18F30A9F680911301909188
:104FD0001401892B09F44FC0EC80F12CFDE1EF1690
:104FE000F10408F048C00A811B811027012710270F
:104FF000CE0101966C01E00EF11EC8018A559E4F4C
:105000000E151F05C1F10A35A2E01A0720F4F601BA
:1050100064810E94B52BFFEFCF1ADF0A0F5F1F4F8D
:10502000ECCF823109F438C108F434C1833109F47A
:105030005DC18E3F09F09ECF9ACE1A8289E08B83A4
:105040001AC08A81823009F451C28330D9F181308B
:1050500009F090CF2FB7F89460913B0370913C0317
:1050600080913D0390913E032FBF0E94122B6B83D2
:105070007C838D839E8380916603843009F0BFCC4E
:105080001091E9001F709091EC00892F817090FDC4
:1050900080E8182B82E08093E9008091E80080FF8F
:1050A0000DC050E040E060E270E0CE0101960E9449
:1050B00072048091E8008E778093E8001F7010934F
:1050C000E9009DCC8091130190911401892B99F2F4
:1050D00080913303909134039827892798279C83E4
:1050E0008B838091350390913603982789279827E1
:1050F0009E838D8380913703909138039827892769
:10510000982798878F838091390390913A03982745
:10511000892798279A878987AECF8A81823009F0BC
:1051200029CF6B817C818D819E810E94122B85E22B
:1051300090E00E94B52B9FCF4C816B818A810E94A9
:10514000640B9827892798279E838D8394CF2D8180
:105150003E813227232732274C816B818A810E942E
:10516000F20D89CF0E94270E86CF8A818138C1F047
:1051700060F4803809F07FCF20E04B8160913003EC
:1051800080912F030E94A91776CF823859F1833876
:1051900009F071CF20E0409131036C818B81F2CF17
:1051A00060E08B810E94B1189B8180912E03911148
:1051B00011C08E7F80932E0310922D03BFEFE0E786
:1051C000F2E0B150E040F040E1F700C000000E9482
:1051D000CE0F51CF816080932E0360E086950E94B0
:1051E000B11849CF8B818093320345CF823891F03B
:1051F000833809F040CF80912F038B838091300357
:105200008C8339CF80912E0380FF02C0869517CF03
:1052100080E015CF8091320312CF60912E03709100
:105220002F0380913003909131030E94971723CF71
:1052300082E08A838AE503CF0C8110E00D311105ED
:1052400008F019CFEA80FB80FE24EF24FE24CE0173
:1052500001966C01080F191FC7018A559E4FC01691
:10526000D10609F408CFBAE5EB16B2E0FB0658F414
:105270000E94A12BF6018483BFEFEB1AFB0AEFEF2C
:10528000CE1ADE0AE9CFD60114961C92F5CF0E9401
:10529000A90DF1CE84E092CE0C8110E00D31110504
:1052A00008F0E9CEEA80FB80FE24EF24FE24CE0144
:1052B00001966C01080F191FC70186960C151D0574
:1052C00009F4D9CEB0E6EB16B1E0FB0658F40E9423
:1052D000A12BF6018483BFEFEB1AFB0AEFEFCE1A86
:1052E000DE0AEACFD60114961C92F5CFEC80F12CA1
:1052F000FDE1EF16F10408F0BECE0A811B811027F4
:1053000001271027003621E0120708F0B4CE80E60E
:1053100091E0801B910B8E159F0508F4ACCECE0159
:1053200001966C01E00EF11EC8018696E016F106AA
:1053300009F4A1CE0036A1E01A0720F4F601648139
:105340000E94B52BFFEFCF1ADF0A0F5F1F4FECCF84
:1053500088E0E0E2F1E0DE01919601900D928A95FD
:10536000E1F783E089831A821B821C8288E0FE01B8
:10537000B196DE01159601900D928A95E1F77BCEEC
:1053800084E6898381E08A831B821C8274CE8C81AF
:10539000682F70E0762F66278B81860F972F911DDF
:1053A000092E000CAA0BBB0B25E0880F991FAA1F22
:1053B000BB1F2A95D1F7AC01BD01405E5F4F6F4F17
:1053C0007F4F481759076A077B0708F454CE843685
:1053D00021E09207A105B10508F04DCE4536E1E088
:1053E0005E076105710520F044E651E060E070E081
:1053F000481B590BBC0164567A4FCE0101960E949E
:10540000842B39CE1B810C8140E0602F812F0E94BC
:10541000340B9827892798279A83898341E0602F46
:10542000812F0E94340B9827892798279C838B8390
:1054300022CE2E813F813227232732274D816C8156
:105440008B810E94B90D17CE4EE150E06FEF70E0F6
:10545000CE0103960E949A2B8091130189830A83BF
:105460000ACE81E090E09093400380933F0382E373
:1054700090E090932B0380932A030E94C105FBCDFB
:105480008091130189830A8380912A03D8CD09BDB5
:1054900019BD09B400FEFDCF8091D8008F7D8093A7
:1054A000D8008091E00082608093E0008091E0006D
:1054B00081FDFCCF0E9497139BCC60E085E290E0D9
:1054C0000E94B52B0E94270E0E94A90D67E282E27E
:1054D00090E00E94B52B64E183E290E00E94B52B3E
:1054E0006BE384E290E00E94B52BB1C985E290E0C5
:1054F0000E94A12B1B821C821D828E83BCCD7894BE
:105500001F921FB61F9211248F939F93AF93BF9347
:1055100080913B0390913C03A0913D03B0913E03E9
:105520000196A11DB11D80933B0390933C03A09372
:105530003D03B0933E03BF91AF919F918F911F9018
:105540001FBE1F9018951F921FB61F9211248F9394
:105550009F93AF93BF9380910903811113C08091F2
:105560003B0390913C03A0913D03B0913E034196D3
:10557000A11DB11D80933B0390933C03A0933D0379
:10558000B0933E03BF91AF919F918F911F901FBE2B
:105590001F901895991B79E004C0991F961708F081
:1055A000961B881F7A95C9F78095089587FB082E6A
:1055B000062687FD819567FD61950E94CA2A0EF433
:1055C000919507FC81950895AA1BBB1B51E107C06B
:1055D000AA1FBB1FA617B70710F0A61BB70B881F83
:1055E000991F5A95A9F780959095BC01CD01089512
:1055F00097FB072E16F4009407D077FD09D00E9480
:10560000E42A07FC05D03EF4909581959F4F0895BC
:10561000709561957F4F0895EE0FFF1F0590F491EF
:10562000E02D099469279627692778278727782707
:1056300008950E943D2C332312F48A1B9B0B0C947B
:10564000232B0E943D2CB7FF0895821B930B0895D6
:105650008F929F92AF92BF92CF92DF92EF92FF9282
:10566000CF93DF93EC01688179818A819B816115F9
:1056700071058105910521F464E279ED8BE597E0F0
:105680002DE133EF41E050E00E94E92B49015A013E
:105690009B01AC01A7EAB1E40E94082C6B017C01DC
:1056A000ACEEB4EFA50194010E94162CDC01CB01F5
:1056B0008C0D9D1DAE1DBF1DB7FF03C00197A10935
:1056C000B04888839983AA83BB839F77DF91CF916A
:1056D000FF90EF90DF90CF90BF90AF909F908F9012
:1056E00008950E94282B089580E091E00E94282BC5
:1056F0000895B0E0A0E08093000190930101A09391
:105700000201B09303010895FB01DC0102C0059082
:105710000D9241505040D8F70895FC01415050403F
:1057200030F001900616D1F73197CF010895882700
:1057300099270895DC0101C06D9341505040E0F776
:105740000895F999FECF92BD81BDF89A992780B549
:105750000895A6E1B0E044E050E00C94DB2BA8E112
:10576000B0E042E050E00C94DB2B262FF999FECFFD
:1057700092BD81BDF89A019700B4021639F01FBAA4
:1057800020BD0FB6F894FA9AF99A0FBE08950396C1
:10579000272F0E94B62B0E94B52B252F0E94B62BD7
:1057A000242F0C94B62B0196272F0E94B62B0C9415
:1057B000B52BDC01CB01FC01F999FECF06C0F2BD8F
:1057C000E1BDF89A319600B40D9241505040B8F7BF
:1057D0000895052E97FB1EF400940E94002C57FD9F
:1057E00007D00E941B2C07FC03D04EF40C94002C15
:1057F00050954095309521953F4F4F4F5F4F0895FD
:1058000090958095709561957F4F8F4F9F4F08952C
:105810000E943D2CA59F900DB49F900DA49F800DDC
:10582000911D11240895B7FF0C94082C0E94082C98
:10583000821B930B0895A1E21A2EAA1BBB1BFD012C
:105840000DC0AA1FBB1FEE1FFF1FA217B307E4075F
:10585000F50720F0A21BB30BE40BF50B661F771FB7
:10586000881F991F1A9469F7609570958095909597
:105870009B01AC01BD01CF010895A29FB001B39F70
:10588000C001A39F700D811D1124911DB29F700D49
:10589000811D1124911D0895F894FFCF940D940D4E
:1058A0009D0D9D0D9F0D9D0D9D0D9D0D940D940DB8
:1058B000A40D9D0D9D0DA40D9114B9140C15B914D2
:1058C0000C15EC1424150C152C163916241B4B1B27
:1058D000521B571B5C1B611B661B6B1B701B751BD4
:1058E0007A1B7F1B821B871B8A1B8D1B901B931BA4
:1058F000961B991BB01CB01C1F1D1F1D751D8F1DF5
:10590000E51CE51C9C1D721E811E811EA829C02954
:0C591000C729022A192A242A312A402A19
:10591C000100000001191A1B1C1D1E1F2021220151
:10592C000201020100AF05E90EC80EC40EC00E0143
:10593C0037FF90F7574739BB010001000100010008
:10594C001000010004002000000102020202060601
:10595C00060909090909090F0F0F0F0F0F15151566
:10596C001819191919191919191919232425252563
:10597C00252525818283E200E900EA00B500B60006
:10598C00B700CD008301CC008A0192019401210261
:10599C00230224022502260227022A02B300B400A5
:1059AC006F007000929395F0339496973435366669
:1059BC0067F7F600FF0100010000FFFF0000010087
:1059CC0001FF0031F532F428006801780014001052
:1059DC00002000100010004022BC8A016801AC00BD
:0659EC0012072B074B0718
:00000001FF
