:100000000C9495030C94DC030C94DC030C94DC033B
:100010000C94DC030C94DC030C94DC030C94DC03E4
:100020000C94DC030C94DC030C946F1A0C942B1AC4
:100030000C946E200C94DC030C94DC030C94DC0315
:100040000C94DC030C94DC030C94DC030C94DC03B4
:100050000C94DC030C944A200C94DC030C94DC0319
:100060000C94DC030C94DC030C94DC030C94DC0394
:100070000C94DC030C94DC030C94DC030C94DC0384
:100080000C94DC030C94DC030C94DC030C94DC0374
:100090000C94DC030C94DC030C94DC030C94DC0364
:1000A0000C94DC030C94DC030C94DC0305010902C2
:1000B000A10185020901A100050919012905150001
:1000C00025019505750181029501750381010501E1
:1000D000093009311581257F950275088106093897
:1000E0001581257F950175088106050C0A380215D2
:1000F00081257F950175088106C0C005010980A191
:1001000001850319012AB700150126B7009501756D
:10011000108100C0050C0901A101850419012AA064
:1001200002150126A002950175108100C005010984
:1001300006A1018505050719E029E71500250195A8
:1001400008750181020507190029EF1500250195A1
:10015000F0750181020508190129059505750191C0
:1001600002950175039101C00660FF0961A10109B3
:1001700062150026FF0095207508810209631500AD
:1001800026FF00952075089102C005010906A1010E
:10019000050719E029E71500250195087501810279
:1001A0009501750881010507190029FF150026FF33
:1001B0000095067508810005081901290595057542
:1001C000019102950175039101C00000000000003B
:1001D000000000000000000000000000000000001F
:1001E00000000000000000000000000000007E0F82
:1001F00000D4FFFFFFC700000078000000000000EF
:1002000000002A2B28000000000000000000000071
:10021000000000000029000000002C1E34202122D4
:1002200024342627252E362D3738271E1F2021223D
:10023000232425263333362E37381F0405060708B6
:10024000090A0B0C0D0E0F101112131415161718A6
:10025000191A1B1C1D2F3130232D350405060708E4
:10026000090A0B0C0D0E0F10111213141516171886
:10027000191A1B1C1D2F3130354C29001A0015008E
:100280001C000C0013004C0014000800170018009C
:1002900012004C0000002B00160009000B000E009D
:1002A00033003400040007000A000D000F0028008E
:1002B0000000E1001B0019000500100037002A00B3
:1002C0001D0006006A001100360001510000E00028
:1002D00000002C002C0050004F000151E300E20010
:1002E000E300025151005200000035001F002100C0
:1002F0002300250027004C001E00200022002400BF
:1003000026004C00000039000100010001002D0012
:100310003300340001000100010001002E00310013
:100320000000E100690001000500100030002A0013
:10033000680001006A0011002F0001510000E00078
:1003400000002C002C0050004F000151E300E2009F
:10035000E300025151005200000035003B003D0017
:100360003F00410043004C003A003C003E0040008A
:1003700042004C00000039000100010001000100B2
:10038000010034000100010001000100010028000B
:100390000000E100010001000100010001002A004D
:1003A0000100010001000100010001510000145C86
:1003B00000002C002C0050004F000151E300E2002F
:1003C000E300025151005200000029001A001500FC
:1003D0001C000C0013004C0014000800170018004B
:1003E00012004C0000002B00160009000B000E004C
:1003F00033003400040007000A000D000F0028003D
:100400000000E1001B0019000500100037002A0061
:100410001D0006006A001100360001510000E000D6
:1004200000002C002C0050004F000151E300E200BE
:10043000E3000251510052000000FD377A585A0083
:100440000004E6D6B4460200210116000000742F15
:10045000E5A3E005AA01FE5D003D8889C65436C3C8
:10046000174FE4DDF86A80ACC768E626B24520295C
:10047000007BC891C5126784DF08995E35CF69B7E4
:100480002D6260BDDFE17199A2471E50BD84E1C0BD
:100490006D081E3729104003095FEFA4E40F36935F
:1004A0001C3D79A130F7380D47E1CF22D0E83E1F3F
:1004B0007B2C4DA385CCC0BC3BA36C98D3939F3EB3
:1004C000B9658B4A7CA66AFFC91997485A9B73364F
:1004D0005743DC7962F22A0E527E61E60A74F91DF6
:1004E0002AD41E1180E0AC90A8D230496448D5FFD0
:1004F000A10B4E15A6B078D42DB0A176EFC5413B27
:10050000FCE03008443027FC58837A21CE39D6BF2E
:10051000997B0B2C61960F733BCAC507A4C633E8C1
:10052000D81D7C27DDFC66CB6F063F912E07B838BF
:10053000D4619B72E4B5F6B415D455AC6D2CEF1BA9
:100540001A44B408B885879D3044F0855F89E3EA92
:10055000C0DF3F4865143A06A6FBA9C7C346EE09AB
:10056000B1CD6C181E142BC5522D40F4356A27B836
:100570003F7260DDBD38F60F8D77C1901C73D48259
:100580002F00CD82F2E3B5C4798FF0E4DC93A97E2D
:10059000D16BAE31277E9ABFFD1BC36D07C82C11EE
:1005A00068E3BB49E4A65C0019DE3585DD11F4D7AC
:1005B0008B9CF403E7AC0C45BE22F8480EF53AFCE0
:1005C000C78B6F949760E74C7FBA2C20EAC14EAC82
:1005D00053228C7D5EDB48D34DC2210247F857D1B0
:1005E00026B960819E0DA7C713DA3BE09738EC640B
:1005F00064339FCEF0F81F9DFB3C990763D6B3D7B9
:10060000F65BD785906CFE82449DEC92C93BFD89D8
:1006100043BB285F42ED592FD09325E21E25C51418
:100620001FFC659F263D303B1FB5B952CA22336E71
:100630006435862CD8DCADBD5438557D7550ED4AF7
:1006400095459C15432761A4FF078113800705A6E4
:100650005DAC17CE6087AA000000B829B5E96F101D
:10066000942600019A04AB0B0000DD36171CB1C4C0
:1006700067FB020000000004595A09025B000301F5
:1006800000A0FA0904000001030101000921110181
:1006900000012240000705810308000A0904010047
:1006A00002030000000921110100012222000705B8
:1006B0008203200001070503032000010904020052
:1006C000010300000009211101000122BC000705FF
:1006D000840320000A120110010000000827624074
:1006E000060200010203011C037600690061006C30
:1006F000003A0066003600340063003200620033C6
:1007000000630000000C034500740068006500727F
:100710000000001003670072006C00640074006D3C
:10072000006B000000040309040011241FBECFEF7A
:10073000DAE0DEBFCDBF04B603FE27C080915C02C5
:1007400090915D02A0915E02B0915F028730904B64
:10075000A740B04BD1F410925C0210925D0210924F
:100760005E0210925F0214BE84B7877F84BF0FB60B
:10077000F894A89580916000886180936000109241
:1007800060000FBEE0E0F8E3099511E0A0E0B1E001
:10079000E4E8F2E402C005900D92A436B107D9F75F
:1007A00022E0A4E6B1E001C01D92AC35B207E1F74A
:1007B0000E94461B0C941C210C940000E8EDF0E014
:1007C00080818E7F80831092E2001092DA00109276
:1007D000E100A0EEB0E08C9181608C9380818F77F6
:1007E000808319BCA7EDB0E08C918E7F8C938081C3
:1007F0008F7E80831092260208952091E40030912C
:10080000E50095E6A9012091EC00822F817020FF80
:1008100006C08091E80080FF06C080E00895209126
:10082000E80022FD1AC080914B02882389F08530B0
:1008300089F08091EB0085FD0FC02091E40030919C
:10084000E50042175307F9F29150E1F684E008956C
:1008500082E0089583E0089581E00895EF92FF9289
:100860000F931F93CF937C018B010E94FD03C82F30
:10087000811117C08091E80085FD0BC08091E800D0
:100880008E778093E8000E94FD03882399F3C82F98
:1008900008C0F70181917F018093F1000150110997
:1008A00049F78C2FCF911F910F91FF90EF900895F2
:1008B00080914D0287FF13C08091E80082FF06C03F
:1008C0008091E8008B778093E80004C080914B0210
:1008D0008111F2CF089580914B028823D9F3809142
:1008E000E80080FFF8CF8091E8008E77ECCF982F5A
:1008F0009093E900242F762F50E0891731F0709102
:10090000EC002091ED005091F00021FD07C09F5FA9
:10091000973071F78093E90081E008953091EB0002
:100920003E7F3093EB003091ED003D7F3093ED0042
:100930003091EB0031603093EB007093EC0020932A
:10094000ED005093F0002091EE0027FDE0CF80E015
:100950000895CF92DF92EF92FF920F931F93CF9360
:10096000DF93C8EDD0E088818F7E8883E7EDF0E0EB
:1009700080818160808384E082BF81E08093260251
:1009800088818E7F888302EE10E0F8011082109239
:10099000DA0081EEC82ED12CF601108288818F7783
:1009A000888388818068888388818F7D888319BC4B
:1009B00010924B0210924C0210924A02109249027D
:1009C00090EEE92EF12CF70180818B7F8083888166
:1009D0008160888342E060E080E00E947704F60155
:1009E00080818E7F8083F801808181608083808117
:1009F00088608083F70180818E7F80838881806119
:100A00008883DF91CF911F910F91FF90EF90DF903E
:100A1000CF900895FC018091530290915402861763
:100A20009707A0F06115710529F49091E8009E7771
:100A30009093E80090E06115710551F4911108C0A0
:100A40008091E80082FF34C080E00895BC01F2CFBD
:100A500080914B028823C1F18530C1F18091E8007B
:100A600083FD30C08091E80082FDEACF8091E800EC
:100A700080FFE1CF8091F3002091F200382F6115C3
:100A8000710519F02830310558F091E02830310512
:100A900009F090E02091E8002E772093E800CBCF7A
:100AA00081918093F100615071092F5F3F4FE7CF33
:100AB00080914B02882341F0853041F08091E8001D
:100AC00083FFBECF81E0089582E0089583E008951A
:100AD00080E0089580912802089587E797E7909332
:100AE00001088093000888E19AE00FB6F894A89571
:100AF000809360000FBE90936000FFCF9C014FB7C2
:100B0000F8948091200290912102A0912202B0914C
:100B100023024FBF821B930B08952FB7F894809147
:100B2000200290912102A0912202B09123022FBFB6
:100B3000089520910C012223C9F02091FB0127FF89
:100B400015C0E62FE695E695E695EE31D8F4E80F68
:100B5000F92FF11D677021E030E001C0220F6A9586
:100B6000EAF720958281282322830895FC0132969A
:100B700008962191621303C0DF0111971C92E817B8
:100B8000F907B9F7089520910C012223C1F02091B3
:100B9000FB0127FF14C0E62FE695E695E695EE31BA
:100BA000F8F4E80FF92FF11D677021E030E001C083
:100BB000220F6A95EAF78281822B82830895FC01D5
:100BC00032962FEF30E04191641751F02F3F19F426
:100BD000411101C0232F3F5F3630A9F72F3F09F4A1
:100BE0000895820F911D27FD9A95FC016283089557
:100BF0008091EE0181111092EE0108958091ED0136
:100C00009091EC01892B9091EB01892B80936601E7
:100C10009091EE019923A1F0892B80936601809138
:100C20000C01882341F18091FB0187FF24C08EE1F4
:100C3000E8E6F1E090E0815000F591110E94F8059E
:100C4000E091FD01F091FE013097E1F080910C01FF
:100C5000882359F08091FB0187FF07C080916601CE
:100C60008093670185E0809366010280F381E02D27
:100C700086E691E0099486E0DBCF21912223D9F228
:100C80009F5FD9CF089527E0929F800D1124982F60
:100C9000977086958695869525E0829FF0011124B0
:100CA000E953FE4F50E040E080E0219130E0092E12
:100CB00002C0369527950A94E2F721703327042E57
:100CC00001C0220F0A94EAF7822B4F5F5F4F453035
:100CD000510559F7089527E0929F800D1124982F10
:100CE000977041E001C0440F9A95EAF78695869582
:100CF000869595E0899FF0011124E953FE4F90E01D
:100D000080E070E05191DF0111979B01082E02C035
:100D1000369527950A94E2F72170219525272423FB
:100D200025272C9301968530910561F708958091D0
:100D3000C60190919501981301C008958F5F877047
:100D4000FACF882341F080959091ED01892380931B
:100D5000ED010C94FE050895882339F09091ED0182
:100D6000982B9093ED010C94FE05089520918B0132
:100D700030918C012817390771F090938C01809382
:100D80008B01E091FD01F091FE01309721F000848C
:100D9000F185E02D099408952091890130918A010F
:100DA0002817390771F090938A0180938901E091A7
:100DB000FD01F091FE01309721F00680F781E02DD2
:100DC00009940895E091FD01F091FE01309721F022
:100DD0000190F081E02D099480E008950E948D0536
:100DE0009C019091080280910902982B21F0309388
:100DF00005022093040290910A0280910B02982B25
:100E000021F03093020220930102E091FD01F09164
:100E1000FE01309749F082E0809306020480F5815C
:100E2000E02D86E092E00994089590E080E00E9431
:100E3000CC0690E080E00E94B6061092EC01109281
:100E4000EB010E94FE0586E0E6E0F2E0DF011D9284
:100E50008A95E9F7109203021092000210928E0117
:100E60000C94EE06609358027093590280935A02D4
:100E700090935B020C9415070F931F936091580297
:100E80007091590280915A0290915B028B019C01F2
:100E90000670112722273327063011052105310559
:100EA00029F468601F910F910C943207677FFACF85
:100EB0000F931F9341E050E060E070E004C0440FE6
:100EC000551F661F771F8A95D2F7CB01BA0160952F
:100ED000709580959095009158021091590220913B
:100EE0005A0230915B0260237123822393231F9166
:100EF0000F910C9432079091EA0180958923809399
:100F0000EA01282F277071F4282F082E000C330BCC
:100F10009217130639F08595859585950E94580797
:100F20001092EA0108950F931F9341E050E060E0B2
:100F300070E004C0440F551F661F771F8A95D2F7D3
:100F40008091580290915902A0915A02B0915B028F
:100F50008A019B01082B192B2A2B3B2BC901B801B5
:100F60001F910F910C9432076093EF017093F00181
:100F70008093F1019093F2010C941507909108026F
:100F8000803F59F48091090287FF0DC01092090239
:100F900091110BC01092030208C0813F81F480912F
:100FA000090218169CF3992381F080910A0290910E
:100FB0000B02892B09F064C0109200020895823F51
:100FC00049F497FFF0CF1092080280910902811135
:100FD000ECCFE0CF833F19F41916ACF3E4CF2091A6
:100FE0000A02893F29F41216F4F610920A02DBCFA6
:100FF0008A3F19F427FFD7CFF8CF20910B028B3F00
:1010000029F427FFD0CF10920B02CDCF8C3F19F4DB
:101010001216CCF3C8CF843F31F4809107028E7F43
:1010200080930702C0CF853F21F4809107028D7F16
:10103000F7CF863F21F4809107028B7FF1CF873F66
:1010400021F480910702877FEBCF883F21F48091C4
:1010500007028F7EE5CF8D3F31F480918E018E7F28
:1010600080938E01A0CF8E3F21F480918E018D7FE1
:10107000F7CF8F3F09F097CF80918E018B7FF0CF14
:1010800008958823B1F19CEF980F913A38F4682FB6
:1010900086E691E00E9499050C94FE0590E2980F77
:1010A000983088F4877021E030E0A90102C0440F35
:1010B000551F8A95E2F7CA0180959091ED01892329
:1010C0008093ED01E9CF9BE5980F933020F490E0F9
:1010D00080E00C94CC0698E5980F973120F490E0CE
:1010E00080E00C94B606803F20F00E94BE070C946E
:1010F000EE06089580918E0180FD16C081FD16C018
:1011000082FD16C0809100028823A1F0883280F40D
:1011100028E0829FC001112468E270E00E949520BF
:10112000862F672B39F0089582E0089584E00895B2
:1011300088E0089581E0089580918E0180FD14C0BB
:1011400081FD14C082FD16C080910302882381F0C6
:10115000843180F422E3829FC001112464E170E0B5
:101160000E949520862F08958CE0089589E10895C6
:1011700085E0089582E30895803F31F40E949C0841
:101180008195809309020895813F19F40E949C087B
:10119000F8CF823F31F40E949C0881958093080229
:1011A0000895833F19F40E949C08F8CF893F29F4E1
:1011B0000E947A0880930A0208958A3F21F40E94CF
:1011C0007A088195F7CF8B3F31F40E947A08819598
:1011D00080930B0208958C3F19F40E947A08F8CF8F
:1011E000843F31F480910702816080930702089563
:1011F000853F21F4809107028260F7CF863F21F47A
:10120000809107028460F1CF873F21F4809107022B
:101210008860EBCF883F21F4809107028061E5CFA1
:101220008D3F31F480918E01816080938E0108950D
:101230008E3F21F480918E018260F7CF8F3FB9F706
:1012400080918E018460F1CFCF93C82F882309F459
:101250006FC08CEF8C0F813AC0F580910C01882310
:1012600011F18091FB0187FF1EC0EC2FE695E695FA
:10127000E695F0E0EA59FE4F828190E04C2F4770EE
:1012800021E030E002C0220F331F4A95E2F78223AB
:101290009323892B91F06C2F86E691E00E949905AB
:1012A0000E94FE050AC0E8E6F1E08EE691E0219199
:1012B000C21789F38E179F07D1F76C2F86E691E04E
:1012C0000E94C305CF910C94FE0580E28C0F8830FC
:1012D00068F4C77021E030E001C0220FCA95EAF738
:1012E0008091ED01822B8093ED01ECCFEBE5EC0FCB
:1012F000E33040F4F0E0EB5EFE4F808190E0CF9170
:101300000C94CC06E8E5EC0FE73150F4F0E0EE0F7A
:10131000FF1FE85EFE4F80819181CF910C94B6064D
:10132000C03F30F08C2F0E94BC08CF910C94EE0689
:10133000CF910895F894E82FE295EF70F0E031A195
:10134000282F2F7081E090E001C0880F2A95EAF7DE
:10135000982F9095932391A392A1892B82A378949F
:1013600008959091FB0192FF06C0282F2871283024
:10137000F9F4877F846093FF06C0282F28712831F5
:10138000F1F4877E84612091FC0120FF06C0382F94
:1013900038713830D9F4877F816021FF06C0282F4B
:1013A00028712831D1F4877E816194FD877E08956C
:1013B000282F24712430F9F68B7F8860DCCF282F0A
:1013C0002471243101F78B7E8861DDCF382F317194
:1013D000313019F78E7F8860E0CF282F21712131BD
:1013E00021F78E7E8861E1CFCF9384E090E00E9468
:1013F000DA20C82F81E290E00E94DA20982F8C2F0B
:10140000CF9108950F931F93CF93DF93843030F5DE
:10141000683020F5473010F5C42FD0E0CC0FDD1F29
:101420002EE0629FC00DD11D112430E7839FC00DB7
:10143000D11D1124CE0186960E94DA20082F10E0DB
:10144000102F0027CE0187960E94DA209801282BC2
:10145000C901DF91CF911F910F91089590E080E035
:10146000F8CF462F2091240230912502232B49F4F6
:10147000843038F4783028F4673018F4672F0C94EF
:10148000020A90E080E00895CF93DF930E94310A32
:10149000EC0182389105A9F1D8F58133910509F461
:1014A00096C048F58932910509F48AC08A9709F4F3
:1014B00095C0C11521E5D20708F0BCC0C11530E5C3
:1014C000D30708F014C1C83ED10508F09CC0C03E47
:1014D000D10560F5C83AD10508F087C0C53AD105F5
:1014E00008F0FDC0C130D10509F12097F9F0C430F2
:1014F000D105E0F440C08533910509F45AC0C9977D
:10150000C1F68091FB01837089F0C0EED0E00EC07F
:10151000833E910599F170F4803E910501F1823E80
:10152000910539F68091FB0182FD21C0CE01DF914A
:10153000CF910895863E910561F1873E910571F145
:10154000843E910509F0B5CF8091FC0181FFEECF7B
:101550008091FB01C7EED0E084FD0DC0E7CF809104
:10156000FB0180FD12C19091FC0190FFDFCFC3EE23
:10157000D0E084FFDBCFD0E0C0E0D8CF8091FB018A
:1015800082FD06C19091FC0190FDBFCF84FFCECFBC
:10159000F2CF8091FB0183FDDDCFC8CF8091FB01AD
:1015A00083FDF9C09091FC0191FFF0CFC4EED0E033
:1015B000BDCF8091FB0185FFB9CFC9E2D0E0B6CFA6
:1015C0008091FB0185FFB2CFC5E3D0E0AFCF809122
:1015D000FB0186FFABCFCAE2D0E0A8CF8091FB0130
:1015E00086FFA4CFC1E3D0E0A1CFCF3BD10518F651
:1015F000C85AD0E0CC0FDD1FC85EDE4F0990D881FD
:10160000C02DD46493CFC11540E2D40758F4C1155E
:1016100081E0D80708F08ACFC03FD10508F4ABCFEE
:10162000D06584CFC11590E4D90708F4A4CFDF704A
:10163000D06A7CCFC11525E5D20700F5C11534E588
:10164000D30708F08AC0C11543E5D40708F071C07C
:10165000C11582E5D80708F467C0CE0183709927C9
:1016600021E030E002C0220F331F8A95E2F7C695D1
:10167000C69580E2C89FE001112452C0C11599E5CA
:10168000D907A8F4C11528E5D20708F06BC0C11529
:1016900036E5D30708F06FCF8C2F0E94B109C82F11
:1016A000D0E0DC2FCC27CC27DF71D0623FCFC11533
:1016B0004AE5D40708F45BC0CE01905681159042EC
:1016C00008F059CF8D2F8F710E94B10990E0982FAB
:1016D000882788279F719C012C2BE901E6CFC55AEA
:1016E000D0E0CB5EDE4FC881D0E0D0641FCFCE010A
:1016F000E4E096958795EA95E1F783702C2F26957F
:101700002695237040E2249F90011124382B8C2FC2
:101710008370C1E0D0E002C0CC0FDD1F8A95E2F7F4
:10172000C22BD32BDC6802CFDC2FCC27C16FD06A51
:10173000FDCECE018370992721E030E002C0220F58
:10174000331F8A95E2F7C695C69590E2C99FE001DE
:101750001124C22BD32BDA68E9CEDC2FCC27C46F3F
:10176000D06AE4CEDC2FCC27C06FD06ADFCE8C2FBE
:101770008F700E94B10934E0D695C7953A95E1F78C
:10178000CF709C2FEC01D069D1CEC9E3D0E0CECE92
:10179000C2EED0E0CBCEC6EED0E0C8CEBF92CF92A4
:1017A000DF92EF92FF920F931F93CF93DF938C0101
:1017B000C0905802D0905902E0905A02F0905B021B
:1017C0008091EF019091F001A091F101B091F201AF
:1017D000C82AD92AEA2AFB2ACFE1D0E0BC2ED701B9
:1017E000C6010C2E04C0B695A795979587950A94C7
:1017F000D2F780FD0EC0219788F7B12C8B2DDF9199
:10180000CF911F910F91FF90EF90DF90CF90BF90FD
:101810000895B8018C2F0E94440A019761F3EECF1E
:10182000CF93DF93EC010E94CE0BBE01DF91CF91ED
:101830000C94440A0E94100C292F2F7092959F70CF
:1018400092509E3078F4E92FF0E0E25EFE4D0C9469
:10185000A920803F19F020F4883E20F481E008950B
:10186000843FE1F380E00895883EC0F3813FD1F7E3
:10187000F5CF822F8695869586950895CF93DF9331
:10188000C6EED1E060E0CE010E94E8202196C115AD
:1018900084E0D807B9F7DF91CF9108950F931F9394
:1018A000CF93DF938901843048F5683038F54730AD
:1018B00028F521153C4531F42091000130910101BA
:1018C000232BE1F0C42FD0E0CC0FDD1F9EE0699FF9
:1018D000C00DD11D112490E7899FC00DD11D112489
:1018E000612FCE0186960E94E820602FCE01879658
:1018F000DF91CF911F910F910C94E820DF91CF9150
:101900001F910F9108958F929F92AF92BF92CF92A5
:10191000DF92EF92FF921F93CF93DF9380900001AD
:101920009090010181E090E090930101809300018B
:101930008AE7C82E82E0D82ED0E07601C0E014C03D
:10194000F50125913491412F6C2F8D2F0E944E0C63
:1019500082E0A80EB11C1F5F173091F78EE0E80EF1
:10196000F11CCF5FC83019F0570110E0E9CFDF5FFD
:1019700080E7C80ED11CD43001F79092010180920B
:101980000001DF91CF911F91FF90EF90DF90CF90FA
:10199000BF90AF909F908F9008951092ED0180912D
:1019A0000C01E8E6F1E0882359F08091FB0187FF04
:1019B00007C08EE1DF011D928A95E9F70C941507A7
:1019C00086E0F8CF1F93CF93DF93CDB7DEB7AA970A
:1019D0000FB6F894DEBF0FBECDBF8DE492E020912C
:1019E000F100DC012D93CD01B2E085359B07B9F7FD
:1019F00080914E02833009F471C0B8F4813009F44B
:101A000048C0823009F4B2C08091E80083FF3AC137
:101A100080914D0290914E029A3008F033C1E92F27
:101A2000F0E0E45DFE4D0C94A9208A3009F48DC0ED
:101A30008B3009F470C0893039F780914D028132C2
:101A400019F78091510290915202009711F002977C
:101A5000D9F68091E800877F8093E8008091E800C4
:101A600082FF37C09091F3008091F200029729F431
:101A70008091F1008B7F813021F48091F10080937F
:101A800028028091E8008B778093E8000E94580438
:101A9000BBCF80914D02813A09F0B6CF8091E8002A
:101AA000877F8093E8008091510290915202892BA8
:101AB00061F460E289E292E070E00E940A058091A0
:101AC000E8008B778093E8009FCF60E090E080E0B3
:101AD000F3CF80914B028111C1CF96CF80914D02FF
:101AE000813A09F091CF8091510290915202892B55
:101AF00009F08ACF8091E800877F8093E800809189
:101B0000E80080FFFCCF80910C018093F100809170
:101B1000E8008E77B9CF80914D02813209F074CF01
:101B20008091510290915202892B09F06DCF8091E2
:101B3000E800877F8093E8000E94580480914F025C
:101B400080930C010E94CD0C5FCF80914D028132B9
:101B500009F05ACF8091E800877F8093E8000E94C7
:101B6000580480915002809327024ECF80914D02FD
:101B7000813A09F049CF8091E800877F8093E8009F
:101B80008091E80080FFFCCF80912702BECF803893
:101B900099F0823809F076C0809151028F708730B9
:101BA00008F070C08093E9008091EB0085FB8827E6
:101BB00080F91092E90006C08091490290914A0292
:101BC000911182609091E800977F9093E800809354
:101BD000F1001092F1008091E8008E77C0C1882357
:101BE00009F4ADC1823009F04DC080914F028111DE
:101BF000B1C1809151028F702FEF280F263008F06D
:101C000041C08093E9002091EB0020FFA3C19330F5
:101C100031F48091EB0080628093EB009BC1909146
:101C2000EB0090619093EB0021E030E001C0220FC7
:101C30008A95EAF72093EA001092EA008091EB007F
:101C40008860EACF81111EC010914F021F778091EA
:101C5000E3008078812B8093E3008091E800877F08
:101C60008093E8000E9458048091E80080FFFCCF38
:101C70008091E30080688093E30082E0111183E0AB
:101C800080934B028091E80083FF0AC08091E800B6
:101C9000877F8093E8008091EB0080628093EB0067
:101CA000AA960FB6F894DEBF0FBECDBFDF91CF91DD
:101CB0001F9108958058823028F720914F0230916B
:101CC00050022C3DE3E03E07A1F583E08A838AE2DF
:101CD00089834FB7F894DE01139620E03EE051E28D
:101CE000E32FF0E050935700E49120FF03C0E2950A
:101CF000EF703F5FEF708E2F90E0EA30C0F0C79634
:101D00008D939D932F5F243159F74FBF8091E80049
:101D1000877F8093E8006AE270E0CE0101960E941E
:101D20000A058091E8008B778093E800ABCFC096DE
:101D3000E7CF8091510290915202432F55274330B3
:101D4000510509F44AC078F54130510509F485C0C0
:101D50008BE590E0EAE7F6E04230510509F092CFDA
:101D60002091E800277F2093E800209153023091D2
:101D700054028217930708F49C0140E021153105B5
:101D800009F070C041116EC08091E80082FDC9CF9A
:101D900080914B02882329F2853019F28091E80066
:101DA00083FFF2CFBECF4132510509F447C0423222
:101DB000510509F067CF8330910508F063CFFC012E
:101DC000EE0FFF1FE85AFE4F0190F081E02D8B5A75
:101DD0009E4FDC018C9190E01DC0332721303105EE
:101DE000E9F02115310579F022303105F9F0233081
:101DF000310509F047CFE7EEF6E0E4918E2F90E051
:101E0000E7EEF6E007C0E5E2F7E0E4918E2F90E020
:101E1000E5E2F7E0009709F435CFA2CFE3E1F7E080
:101E2000E4918E2F90E0E3E1F7E0F4CFE5E0F7E016
:101E3000E4918E2F90E0E5E0F7E0ECCF8330910560
:101E400008F020CF880F991FFC01E25AFE4F019045
:101E5000F081E02D89E090E083CF82E190E0E5ED34
:101E6000F6E07ECF80914B02882309F45ACF85306B
:101E700009F457CF8091E80083FD53CF8091E800AB
:101E800082FD82CF8091E80080FF78CF9091F300AF
:101E90008091F2002115310519F08830910550F03C
:101EA00041E0089709F040E08091E8008E77809348
:101EB000E80064CF44914093F100319621503109FC
:101EC0000196E8CF803809F0DDCE8091E800877F69
:101ED0008093E80080914C028093F1007CCE8111C8
:101EE000D1CE10914F02123008F0CCCE8091E80094
:101EF000877F8093E80010934C020E9458041123BE
:101F000011F084E005C08091E30087FDFACF81E005
:101F100080934B0242E061EC81E00E94770442E250
:101F200061EC84E00E94770442E261EC82E00E946E
:101F3000770442E260EC83E00E947704A3CE8091B4
:101F40004F02813009F09ECE81E0933009F080E0AD
:101F500080934A021092E9008091E800877F809385
:101F6000E8000E9458048ECECF93DF9300D00F92EA
:101F7000CDB7DEB790914B02943011F589837B8306
:101F80006A839093E9008FEF9091E800815095FD6E
:101F900006C095ED9A95F1F700008111F5CF80917B
:101FA000E80085FF0DC050E040E063E070E0CE0146
:101FB00001960E942E048091E8008E778093E800BD
:101FC0000F900F900F90DF91CF910895BC0184E0A6
:101FD0000C94B40FBC0183E00C94B40F9C0184E01A
:101FE0008093E9009FEF8091E800915085FD06C045
:101FF00085ED8A95F1F700009111F5CF8091E80009
:1020000085FF0CC050E040E066E070E0C9010E942E
:102010002E048091E8008E778093E8000895CF9396
:10202000DF93EC0180910C018823B1F18091FB01D9
:1020300087FF32C060E284E08093E9008FEF9091E7
:10204000E800815095FD06C095ED9A95F1F70000E6
:102050008111F5CF8091E80085FF1BC080910C01B4
:1020600070E050E040E0811104C050E040E068E0E2
:1020700070E0CE010E942E048091E8008E7780935C
:10208000E80080E2FE01A9E2B2E001900D928A959B
:10209000E1F7DF91CF91089568E081E0CDCF1F9304
:1020A000CF93DF93182FD0E0C0E0893311F4C0E55F
:1020B000D0E0812F0E942409209731F4812FDF91F5
:1020C000CF911F910C9441088FE99FE00197F1F7A0
:1020D00000C000002197F0CF0F931F93CF93DF93A1
:1020E000C62FD42F022FFC0182818823A1F0609398
:1020F00057020E948D059093560280935502C77037
:1021000081E001C0880FCA95EAF7DF91CF911F9156
:102110000F910C94AC0680915702681335C08091E2
:102120005502909156020E947E05883C910560F50B
:1021300010E21D0FCD17B9F080E28C0F883040F40B
:10214000C77081E001C0880FCA95EAF70E94A10616
:10215000183048F481E09D2F977001C0880F9A9540
:10216000EAF70E94AC06802F0E944F10183098F4B6
:10217000D77081E001C0880FDA95EAF7DF91CF913F
:102180001F910F910C94A106C77081E001C0880FC8
:10219000CA95EAF7F3CFDF91CF911F910F91089580
:1021A0009F92AF92BF92CF92DF92EF92FF920F93E6
:1021B0001F93CF93DF9386E4C82E81E0D82E03EFE0
:1021C00011E0E801A12CB12CEE24E394F12CD6010E
:1021D0008D916D01F894E82FE295EF70F0E021A168
:1021E0008F70A70102C0440F551F8A95E2F7CA01FC
:1021F000922F982B91A392A18095892382A3789402
:1022000000C0EEE4F1E030E020E0912C4191A42FF9
:10221000A295AF70B0E090968C9190E04F7002C0A4
:10222000959587954A95E2F780FD43C08E2D022E45
:1022300001C0880F0A94EAF7982A2F5F3F4F273092
:10224000310521F7F601319780810E949A0957E004
:10225000A51619F080EA8A95F1F78881981659F148
:10226000988281E0B82AA3942196A8E0AA12AFCF61
:10227000BB2019F181E0809388010E948D05909325
:1022800087018093860180918601909187010E9449
:102290007E050697B0F0E8E1F2E08BEF91E0D8011F
:1022A0002D918D0121938A179B07C9F71092880100
:1022B00008C080E0C1CF80E0D5CF80918801811136
:1022C000E2CF8B2DDF91CF911F910F91FF90EF9077
:1022D000DF90CF90BF90AF909F900895AF92BF9244
:1022E000CF92DF92EF92FF920F931F93CF93DF93E2
:1022F000EC018AE0A82E2881222309F48CC0213029
:10230000C9F599818A81913021F422960E944F105B
:1023100005C0923029F422960E9424092196EBCF21
:10232000933021F422960E944108F8CF943011F0A6
:102330002196F4CF229630E020E0AE014F5F5F4F50
:102340008053990B8A30910550F02150310930F3B8
:102350008FE99FE00197F1F700C00000F6CFA29E41
:10236000B001A39E700D11249C01260F371F898197
:10237000EA01E3CFE22FF0E0E650FE4FB490822F67
:1023800086958695869590E0FC01E651FE4FE49097
:102390002770F12C022E02C0F594E7940A94E2F71C
:1023A00031E0E322FF24FC01E652FE4FC490D12C21
:1023B000022E02C0D594C7940A94E2F731E0C322FA
:1023C000DD24FC01E653FE4F049110E002C0159598
:1023D00007952A95E2F701701127E114F10419F02D
:1023E00081EE0E942409C114D10419F086EE0E94E6
:1023F00024098B2D0E944F10CD2819F086EE0E94E3
:102400004108EF2819F081EE0E944108012B09F4E0
:1024100085CF8CE27BCFDF91CF911F910F91FF9001
:10242000EF90DF90CF90BF90AF9008956BEE7EEF6E
:1024300090E080E00E94062160E082E090E00E944F
:10244000E82060E083E090E00E94E8201092EF0135
:102450001092F0011092F1011092F20160E084E01C
:1024600090E00E94E82060E081E290E00E94E82095
:1024700060E085E090E00E94E82060E086E090E087
:102480000E94E8206FEF87E090E00E94E82040E0A3
:1024900050E0BA0188E090E00E94FA2060E08DE010
:1024A00090E00E94E82040E050E0BA0188E190E02E
:1024B0000E94FA2060E087E190E00E94E82040E07E
:1024C00050E0BA018CE190E00E94FA2060E080E2E6
:1024D00090E00E94E82040E050E0BA0188E190E0FE
:1024E0000E94FA2040E050E0BA018FE090E00E94A4
:1024F000FA2040E050E0BA0183E190E00C94FA2029
:102500004F925F926F927F928F929F92AF92BF9203
:10251000CF92DF92EF92FF920F931F93CF93DF93AF
:1025200000D000D00F92CDB7DEB77C01FC018381D3
:102530009481892B31F08081918189238F3F09F02B
:10254000B2C40F900F900F900F900F90DF91CF912A
:102550001F910F91FF90EF90DF90CF90BF90AF90C1
:102560009F908F907F906F905F904F9008950E9402
:10257000CE0B182F682F89819A810E946B06698182
:102580007A81812F0E94310A8C01F7018281882390
:1025900009F47EC4980122513F452031310508F0ED
:1025A00050C48FEF93E00E94DA20025146EEC42E11
:1025B000DD24D3948823D9F08091EA01877009F44F
:1025C000C0CFF7018281882309F4BBCF82E00E944B
:1025D0007B07B7CFC114F4E0DF0671F3C6010E9498
:1025E000DA20811101C001502FEFC21AD20A011165
:1025F000F1CF19821A821B821C820FEF46013FEF36
:10260000831A930AC6010E94DA2089831A828823DA
:1026100099F2813009F047C0560142E0A40EB11C86
:10262000C4010E94DA20982E8A83882329F2C501EA
:102630000E94DA20182F8FEF890D833068F456013D
:1026400053E0A50EB11C1B83112321F0CE0101968E
:102650000E946E116501D2CF84E09812FBCF560123
:1026600094E0A90EB11CC60103960E94DA20112342
:1026700009F4A2CF882309F49FCF8150990B089FBA
:102680009001099F300D1124E12FE150FF0BCF0184
:10269000820F931F0197F0F2EFE9FFE03197F1F716
:1026A00000C00000F7CFCE0101960E946E115401C8
:1026B000D1CF81E00E9493070E943C077DCF81E04B
:1026C0000E945807F9CF82E0F5CF053FECE51E07E1
:1026D00009F45EC008F458C0063F2CE5120709F45F
:1026E0005BC0882309F4F0C31092570202303CE526
:1026F000130708F431C106314CE5140738F098018E
:102700002A5F3C452930310508F026C10E94F409B2
:102710009093FC018093FB0100315CE5150709F4FF
:10272000EAC008F078C008309CE5190709F4D9C060
:1027300008F047C00430FCE51F0709F4C6C098F54F
:1027400002303CE5130709F4BAC08091FB018260B6
:1027500003301C4509F4B6C06091FB011091FC01E7
:1027600084E090E00E94E820612F81E290E00E94E6
:10277000E8200E94CD0C20CF27E245EE65EE84C311
:1027800026E241EE60EE80C327E245EE64EE7CC3B4
:1027900026E241EE62EE78C327E245EE66EE74C3B0
:1027A00028E241E0EBCF8091FB01806106305CE5DF
:1027B000150709F487C008F48CC08091FB01806282
:1027C00081C08091FB018D7F0C309CE5190709F4D5
:1027D00079C070F48091FB018C600A30FCE51F0722
:1027E00009F470C008F481C08091FB018E7F6AC03B
:1027F0008091FB01877F0E303CE5130709F462C02E
:102800008091FB018B7F0F301C4508F45BC08091E9
:10281000FB018F7E57C00B3F5CE5150709F45DC0D7
:1028200030F503319CE5190709F46DC078F40131E6
:10283000FCE51F0709F463C002311C4509F08CCF89
:102840000E94CD0C8091FB018F773CC005313CE5A7
:10285000130709F460C008F474C08091FC01816022
:102860000A3F1C4509F078CF8093FC0175CF0F3FDC
:102870008CE5180709F44BC088F48091FC018D7F2A
:102880000D3FECE51E0781F38091FC018E7F0E3F2A
:102890001C4550F38091FC018360E6CF01302DE5AB
:1028A000120709F457C008F442C060E002301D4529
:1028B00009F052CF8EE090E00E94E8204DCF809149
:1028C000FB0181608093FB0147CF8091FB01846015
:1028D000F9CF8091FB018860F5CF8091FC01826087
:1028E000C3CF8091FB018064EDCF0E94CD0C80911D
:1028F000FB018068E7CF8091FB018F7DE3CF809162
:10290000FB018F7BDFCF8091FB01837FDBCF809149
:10291000FC018C7FA9CF8091FB0182FB992790F964
:1029200021E0922790FB82F990FB83F9CBCF809135
:10293000FC01982F909591708E7F892B90FB81F9E7
:1029400093CF0E94CD0C9091FB01892F97FB87F9C3
:102950008058B8CF61E0AECF06315CE5150709F0CD
:10296000C0C28091ED018A7A91E009F490E09093E1
:102970008D0169E2811165E386E691E00E94C3055D
:102980000E94FE0519CE0E94CD0C8FEF94E3ECE07F
:1029900081509040E040E1F700C000000E946D05CA
:1029A0000E94161209CEC8010E944306D82EB0C25A
:1029B000212F2F70A22E107F19F0A29490EFA92240
:1029C000DD20C9F0AA2069F080E2800F883010F085
:1029D00081100BC08091ED01A82AA092ED010E9408
:1029E000FE05802F0E94240918C08091EC01A82ABE
:1029F000A092EC01F4CF802F0E944108AA2069F038
:102A0000A094005E083010F0811028C08091ED0184
:102A1000A822A092ED010E94FE052B2D2850330B19
:102A20002430310510F40E94E206CC2009F489CD4F
:102A30008091EA0180FD85CDF7011282859585950B
:102A400085950E949307C7010E9480128091EA0138
:102A50008595859585950E94580773CD8091EC01E9
:102A6000A822A092EC01D7CF312F3F70932E107F78
:102A7000103219F0929480EF9822882071F041E092
:102A8000841661F1DD20B9F1AA2071F1F701858189
:102A900080FFA7CF8F70858327C0DD2091F09091B4
:102AA000EE01892D892BA11003C00E94AC06B5CF81
:102AB00051E0A512FACF981709F4AFCF8093EE0139
:102AC000ACCFA11006C00E94F805892D0E94A10676
:102AD000A4CF81E0A81609F4A0CFF5CFDD2031F016
:102AE00095E09A1508F499CF892DDFCFE4E0EA1537
:102AF00008F493CFEACFAA2041F3F9E38F1209C07B
:102B00002FEF37EE43E0215030404040E1F700C066
:102B10000000802F0E94410880CF812F86958695E6
:102B2000837061F0813009F078CFC8019370D110C3
:102B300002C090E080E00E94B6066FCFC80193709B
:102B4000D11002C090E080E00E94CC0666CF802FBA
:102B5000DD2039F00E94BC080E94EE060E94EE06BD
:102B60005CCF0E94BE07FACF812F837009F066C048
:102B7000D11053CF802F829586958770880F880F4C
:102B8000602F6F70462E512C712C612C082E04C0C2
:102B9000440C551C661C771C0A94D2F740E050E0A8
:102BA000BA0104FF0FC04FE050E060E070E004C0E5
:102BB000440F551F661F771F8A95D2F74095509591
:102BC00060957095812F869586958370823019F176
:102BD000D8F40091EF011091F0012091F1013091B2
:102BE000F201813069F04429552966297729CB0102
:102BF000BA0160237123822393230E94B4070DCF6F
:102C0000402A512A622A732ACB01BA016429752904
:102C100086299729F2CF44295529662977290091D9
:102C2000EF011091F0012091F1013091F201CB01FF
:102C3000BA016027712782279327DFCF8695DD2091
:102C400011F0812F8170882309F4E7CE802F8295BF
:102C500086958770880F880F602F6F70462E512CD5
:102C6000712C612C082E04C0440C551C661C771C6A
:102C70000A94D2F740E050E0BA0104FF0FC04FE0E1
:102C800050E060E070E004C0440F551F661F771FDE
:102C90008A95D2F74095509560957095812F8695CD
:102CA00086958370823019F1D8F400915802109102
:102CB000590220915A0230915B02813069F0442917
:102CC000552966297729CB01BA0160237123822314
:102CD00093230E943207A1CE402A512A622A732AE6
:102CE000CB01BA016429752986299729F2CF442995
:102CF000552966297729009158021091590220918F
:102D00005A0230915B02CB01BA01602771278227FA
:102D10009327DFCF1F70DD2029F0812F0E949307BA
:102D2000802FC3CE802F0E94A106812F0E945807BA
:102D300074CE802F52EF851609F450C0581578F0E4
:102D400090EF891619F1E1EF8E1609F43FC0DD20EE
:102D500009F467C0A11045CE812F8F713CC0F3EFFD
:102D60008F1609F440C024EF8212F1CFDD2009F460
:102D70004DC01F71812F0E94930758E0159FC0011D
:102D8000112483608093EA01812F25C0DD20C9F0E2
:102D900034E03A1508F441CE1F7161E070E080E044
:102DA00090E004C0660F771F881F991F1A95D2F70D
:102DB000009158021091590220915A0230915B0201
:102DC000A4CF45E04A1508F428CEE6CF812F8F71B5
:102DD000DD2009F4ABCF0E9493071FCE812F8F71A6
:102DE000DD20C9F3A3CF60E070E0CB01DD2009F462
:102DF00070CF1F7161E070E080E090E004C0660F6A
:102E0000771F881F991F1A95D2F763CF81E00E9420
:102E10007B0781E08A1508F000CE82E00E947B07E4
:102E2000FCCDAA2059F0893309F073CE9FEFE7EE6D
:102E3000F3E09150E040F040E1F769CE812F8F71CF
:102E400075CF0031FFE51F0709F433CC01312FE5C1
:102E5000120709F438CC033F2CE5120709F490CC93
:102E600008F033CC083D4CE5140709F485CC093D46
:102E70005CE5150709F494CC073D9CE5190709F0BA
:102E800030CC26E241EE61EEC7010E946C1094CB7B
:102E900000313FE5130709F412CC01314FE5140767
:102EA000D1F682E00DCC85E0DE01119601900D9205
:102EB0008A95E1F7F701228189819A81211157CB07
:102EC0000E944306182F5BCB06311C4599F4809174
:102ED0008D0169E2811165E386E691E00E94990522
:102EE0004FCD01152CE5120709F44DCD0E3D1C45C3
:102EF00009F456CDF70100811181882309F453CDDF
:102F0000C8010E94CE0BD82E682FC8010E946B0604
:102F1000B8018D2D0E94440A8C01882EF701D280C1
:102F2000A580A2943FE0A3228091EA018770A1F0DE
:102F3000CD2CDD2091F0812F807F803421F080E244
:102F4000800F883048F082E00E947B078091EA0180
:102F50008770CC24C3948111C12CB12EB2942FE080
:102F6000B222FBE0FB1508F458CDEB2DF0E0EA5C53
:102F7000FE4D0C94A9201F93CF93DF938091940171
:102F8000807FA9F480919101882389F08091C60106
:102F9000D091950160918F0170919001A091920163
:102FA000B0919301C62FC72316E0D81304C0DF9158
:102FB000CF911F91089590E0109711F0CF3F19F431
:102FC00001968770F2CF189F9001199F300D112440
:102FD000F901EA56FE4F41814713F2CF4081461373
:102FE000EFCF42814111ECCF438154814A1B5B0BEF
:102FF000483C510528F7809194018F70806180933F
:103000009401F901E556FE4F80818F7080618083C5
:103010008FE891E00E948012DF91CF911F910C9474
:103020009706AF92BF92CF92DF92EF92FF920F93EB
:103030001F93CF93DF93CDB7DEB761970FB6F894A8
:10304000DEBF0FBECDBF8C0185E0F801DE011D960D
:1030500001900D928A95E1F7F80180819181E280DB
:103060002FE8A22E21E0B22E60919201709193017F
:103070006115710509F43EC130918F0140919001B5
:10308000232F24232F3F09F435C1C380D480F0902F
:103090009101F601E61BF70BFF2009F4FBC020911C
:1030A0009401522F507FE83CF10508F0BBC051114C
:1030B00078C0FE2C491321C038131FC0E1101DC079
:1030C0002F70206120939401C5010E94801280918D
:1030D0009401F80185838F2D61960FB6F894DEBFB9
:1030E0000FBECDBFDF91CF911F910F91FF90EF9059
:1030F000DF90CF90BF90AF900895CD2829F0282F72
:1031000029232F3F09F014C120E0F22FF170DF2EA8
:1031100020FF3DC02091C6014091950156E0241347
:1031200015C08D879E878D859E850E94100C292F46
:1031300022952F702230F8F0243020F59F70F9F09E
:10314000F8019581907FD9F4D12C1FC030E0529FB7
:10315000F001539FF00D1124EA56FE4F6181961342
:1031600006C06081861303C06281E61210C02F5F23
:103170003F4F2770D4CF9F7011F0882329F3805ED2
:10318000883010F3C8010E948012FD2CA4CFEE20DD
:1031900009F4A1CF80919401816080939401F12C76
:1031A0009ACF491312C0381310C0E1100EC0F801B5
:1031B0002583C8010E94801286E0F801AFE8B1E0E3
:1031C00001900D928A95E1F786CF8D879E878D8538
:1031D0009E850E941A0C882309F1EE20F9F0809157
:1031E0009401803270F020918F01309190013887E6
:1031F0002F831986DB86CA868C87CE0107960E94AC
:10320000801286E0F801AFE8B1E001900D928A9556
:10321000E1F70E94BB17FF24F3945DCFC8010E9421
:103220008012F9CF51110AC08FE891E00E948012FC
:1032300086E0F50111928A95E9F7B1CF49130FC0E5
:1032400038130DC0E1100BC0F8012583C8010E949E
:10325000801286E0F50111928A95E9F73CCF8D87BF
:103260009E878D859E850E941A0C8823B9F2EE20D8
:10327000A9F280919401803220F220918F01309147
:1032800090013A8329831B82DD82CC828E83CE011A
:103290000196B5CFE83CF105E0F6FE2CEE2009F4EE
:1032A000BDCF491316C0381314C08091940180FD1E
:1032B00083CF982F907F09F47FCFF8018583903FCB
:1032C00009F477CF982F907F905F8F70892B85833B
:1032D00070CF8D879E878D859E850E941A0C8111E7
:1032E00090CF80919401816080939401C8010E94E5
:1032F0008012F1CEEE2009F491CF8D879E878D85C7
:103300009E850E941A0CF82E882309F487CF86E048
:10331000F801AFE8B1E001900D928A95E1F7809154
:103320008F01909190010E94100C0E94BB17D3CE88
:1033300021E02E25EACE1F93CF93DF93CDB7DEB7E2
:1033400067970FB6F894DEBF0FBECDBF342F4B8BFF
:10335000252F5C8B6D8B7E8B8F8B8E899F89611166
:103360001092EC011A8A198A3D872E876F87998BF4
:10337000888B86E0FE013D96DE01179601900D9246
:103380008A95E1F7CE0107960E941118882389F0EB
:1033900016E08091C60190919501891349C0679606
:1033A0000FB6F894DEBF0FBECDBFDF91CF911F9156
:1033B000089586E0FE013796DE01119601900D9288
:1033C0008A95E1F78A859B85892B11F38F819885F2
:1033D00089238F3FE9F22091950130E0C9010196E0
:1033E000877099274091C6014817190671F40E9409
:1033F000CD0C109295011092C60186E0EFE8F1E045
:10340000DF011D928A95E9F7C3CF96E0929FD00124
:10341000939FB00D1124AA56BE4FFE013196019024
:103420000D929A95E1F7809395010E949706B0CF8F
:10343000819FC00111248A569E4F0E941118882333
:1034400009F4ADCF8091C60190E00196877099276D
:103450008093C6019ECF1F920F920FB60F92112438
:103460002F933F934F935F936F937F938F939F938C
:10347000AF93BF93CF93DF93EF93FF93D091E90086
:10348000DF708091EC00C82FC17080FDC0E8109201
:10349000E9008091F000877F8093F00078940E948B
:1034A000E20C1092E9008091F00088608093F000B7
:1034B000CD2BCF70C093E900FF91EF91DF91CF91B9
:1034C000BF91AF919F918F917F916F915F914F913C
:1034D0003F912F910F900FBE0F901F9018951F9244
:1034E0000F920FB60F9211242F933F934F935F9338
:1034F0006F937F938F939F93AF93BF93EF93FF93BC
:103500008091E10082FF09C08091E20082FF05C046
:103510008091E1008B7F8093E1008091DA0080FF51
:1035200024C08091D80080FF20C08091DA008E7F77
:103530008093DA008091D90080FF9BC080E189BD33
:1035400082E189BD09B400FEFDCF81E080934B028A
:1035500080912602811109C00E94DE030E94A90405
:103560008091E20084608093E2008091E10080FF1E
:1035700017C08091E20080FF13C08091E2008E7F2F
:103580008093E2008091E20080618093E20080916C
:10359000D80080628093D80019BC85E080934B02EC
:1035A0008091E10084FF29C08091E20084FF25C062
:1035B00080E189BD82E189BD89B5982F917080FF36
:1035C000FBCF8091D8008F7D8093D8008091E1005F
:1035D0008F7E8093E1008091E2008F7E8093E200F5
:1035E0008091E20081608093E20080914C02882308
:1035F00009F445C084E080934B028091E10083FF91
:1036000027C08091E20083FF23C08091E100877F83
:103610008093E10082E080934B0210924C028091F3
:10362000E1008E7F8093E1008091E2008E7F8093A5
:10363000E2008091E20080618093E20042E060E07D
:1036400080E00E9477048091F00088608093F00011
:10365000FF91EF91BF91AF919F918F917F916F916A
:103660005F914F913F912F910F900FBE0F901F9040
:10367000189519BC10924B021092260276CF8091B9
:10368000E30087FD93E090934B02B7CFCDB7DEB751
:10369000E2970FB6F894DEBF0FBECDBF84B7877F29
:1036A00084BF0FB6F894A8958091600088618093DC
:1036B0006000109260000FBE80E890E00FB6F894B2
:1036C00080936100909361000FBE85B7806885BFCD
:1036D00085B7806885BF88E695E090936501809303
:1036E00064010E94DE030E94A9048091E2008460CC
:1036F0008093E200789480914B028823A1F010918E
:10370000E9001F709091EC00892F817090FD80E896
:10371000182B1092E9008091E80083FD0E94E20CD2
:103720001F701093E90082E084BD93E095BD9AEF8D
:1037300097BD80936E0006E411E0EEE4EE2EE1E02A
:10374000FE2EF80181918F010E949A09E016F10680
:10375000C1F70EE411E075E5E72E71E0F72EF801F0
:1037600081918F010E949A09E016F106C1F7E3EFFB
:10377000F1E08BEF91E0A8E1B2E011921D928E177B
:103780009F07D9F70E94D010FFEF26E741E0F150E4
:1037900020404040E1F700C000000E94D01080911E
:1037A000180280FF17C06FEF82E290E00E94E820CD
:1037B0006FEF83E290E00E94E8206FEF84E290E0F8
:1037C0000E94E8206FEF7FEF90E080E00E940621EA
:1037D0000E946D0590E080E00E94E2208B3E9E4FAB
:1037E00011F00E94161282E290E00E94DA208F3FD0
:1037F00009F024C483E290E00E94DA20893009F0C5
:103800001DC484E290E00E94DA20843B09F016C4D3
:1038100090E080E00E94E2208B3E9E4F11F00E94DB
:10382000161282E090E00E94DA2080930D020E943E
:10383000F4099093FC018093FB0183E090E00E94E7
:10384000DA20682F70E090E080E00E94B40782E008
:1038500091E09093FE018093FD0138E1C32ED12CBD
:1038600040E4742E50E4A52E88E192E068E0B62E84
:10387000B80E80914B0200E112E1853009F485C158
:103880000E94D010882359F08FB7F89440912002FD
:103890005091210260912202709123028FBFAEE00D
:1038A000B2E0E8E1F2E010E000E0302F81919D917C
:1038B000981709F479C1292F282790E0FF24F39461
:1038C000422F4F2109F46BC199A73AA78F2191E0AC
:1038D00009F490E09BA70E948D058160782F9DA739
:1038E0008CA749A55AA56BA58DA50E949B19F80127
:1038F000E25FFD4F8081F826F08286E0E6E0F2E0AC
:10390000DE01119601900D928A95E1F7F090080280
:10391000E090090210910A0200910B021092080235
:103920001092090210920A0210920B028F2D8E291A
:1039300009F448C080910402909105020E947E051E
:103940009C0190910302992309F49FC3233331050D
:10395000C8F19F3F19F09F5F90930302FF2059F039
:103960000E949C089FEF1F140CF491E0899F802D0A
:10397000112480930802EE2059F00E949C089FEFCA
:103980001E140CF491E0899F802D1124809309026C
:10399000309108023323B1F020910902222391F0E3
:1039A00045EB3403C0011124992309F414C1909309
:1039B000080245EB240390011124332309F40FC1BD
:1039C00030930902812F802B09F448C080910102B5
:1039D000909102020E947E059C0190910002992321
:1039E00009F44EC325363105C8F19F3F19F09F5F9A
:1039F00090930002112359F00E947A089FEF11164C
:103A00000CF491E0899F802D112480930A020023F9
:103A100059F00E947A089FEF10160CF491E0899FEC
:103A2000802D112480930B0230910A023323B1F0D0
:103A300020910B02222391F045EB3403C0011124A5
:103A4000992309F4D0C090930A0245EB2403900116
:103A50001124332309F4CBC030930B028091080268
:103A600090910902892B90910A02892B90910B0267
:103A7000892B11F00E94EE0686E0FE013196A6E049
:103A8000B2E001900D928A95E1F70E94E2069091D2
:103A90000C02891721F00E94E20680930C028091AB
:103AA0004B02843009F0E5CE83E08093E9008091F9
:103AB000E80082FFDECE8091E80090E085FF06C03E
:103AC0000E94FD03882309F496C091E08091E800EC
:103AD0008B778093E800992309F4CBCE00912402E0
:103AE0001091250289810115110509F4A0C08E3FAE
:103AF00009F0E9C08A81833020F08550833008F0D6
:103B0000E2C08A81823009F432C208F002C28823FE
:103B100009F415C2813009F0D6C0A98282E08A83F7
:103B20001B821C82D0C080914B02843009F110921C
:103B3000FF010FB6F894A895C09260000FBE709276
:103B4000600083B7817F846083BF83B7816083BF58
:103B50007894889583B78E7F83BF0FB6F894A89525
:103B600080916000886180936000109260000FBEB9
:103B700080914A02882349F00E94D010E8E1F2E0E7
:103B80008191811145C2BE12FBCF80914B028530DD
:103B900009F4C9CF0E94CD0C0E94E20671CE9F5F4E
:103BA000FF0C973009F08CCE0F5F1F4F08301105C6
:103BB00009F07BCE8FEF8EA78FA718AA0E948D05E4
:103BC0008160782F9AAB89AB4EA55FA568A98AA9B9
:103BD0000E949B1992CE81E080930802EACE81E098
:103BE00080930902EFCE81E080930A022ECF81E01C
:103BF00080930B0233CF00E210E0CE0101967C01EE
:103C00008091E80085FD0AC08091E8008B77809361
:103C1000E8000E94FD03882399F357CF8091F100BB
:103C2000F70181937F010150110951F74ECF8D307B
:103C300009F4B7C0B8F4843009F49AC048F482306B
:103C400049F108F086C0813009F18FEF89833BC0CC
:103C5000863009F4A3C008F496C08C30B1F780E137
:103C60008A8331C0813109F4F7C040F48F3009F400
:103C7000C6C008F49AC00E943E0C25C0833109F4E6
:103C800016C108F4EBC08E3F01F73BCF1A8289E0E2
:103C90008B8319C08A81823009F4E9C18330D1F164
:103CA000813099F62FB7F89460912002709121022B
:103CB00080912202909123022FBF0E94AF206B833C
:103CC0007C838D839E8380914B02843009F0D1CD1B
:103CD0001091E9001F709091EC00892F817090FD88
:103CE00080E8182B82E08093E9008091E80080FF53
:103CF0000DC050E040E060E270E0CE0101960E940D
:103D00002E048091E8008E778093E8001F70109356
:103D1000E900AFCD8091000190910101892B99F2CA
:103D2000809118028B83809119028C8380911A02F2
:103D30008D8380911B028E8380911C028F838091E2
:103D40001D02888780911E02898780911F028A87C1
:103D5000BACF8A81823009F078CF6B817C818D81E6
:103D60009E810E94AF2085E290E00E94E820ABCFC8
:103D70004C816B818A810E94020A982789279827A3
:103D80009E838D83A0CF2D813E813227232732272A
:103D90004C816B818A810E944E0C95CF0E94830CCE
:103DA00092CF82E08A838AE173CF0C8110E00D31DB
:103DB000110508F088CFEA80FB80FE24EF24FE2462
:103DC000CE0101964C01080F191FC7018A519E4F61
:103DD0008016910609F477CFFAE1EF16F2E0FF06BC
:103DE00058F40E94DA20F4018483FFEFEF1AFF0AEF
:103DF0002FEF821A920AE9CFF4011482F6CF809154
:103E0000000190910101892B09F45DCFEC80F12C28
:103E10004DE1E416F10408F056CF0A811B8110270A
:103E200001271027CE0101964C01E00EF11EC801BA
:103E30008A519E4F0E151F0509F445CF0A31E2E065
:103E40001E0720F4F40164810E94E820FFEF8F1A1E
:103E50009F0A0F5F1F4FEBCF84E002CF0C8110E071
:103E60000D31110508F02FCFEA80FB80FE24EF24EE
:103E7000FE24CE0101964C01080F191FC70186963A
:103E80008016910609F41FCFF0ECEF16F1E0FF0663
:103E900058F40E94DA20F4018483FFEFEF1AFF0A3E
:103EA0002FEF821A920AEACFF4011482F6CFEC8047
:103EB000F12C4DE1E416F10408F005CF0A811B81D5
:103EC000102701271027003C81E0180708F0FBCEDF
:103ED00080EC91E0801B910B8E159F0508F4F3CECA
:103EE000FE0131964F01E00EF11EC80186960E15B7
:103EF0001F0509F4E8CE003CF1E01F0720F4F401AF
:103F000064810E94E820FFEF8F1A9F0A0F5F1F4F06
:103F1000ECCF863009F466C0873009F472C0853072
:103F200009F0D1CE4EE150E06FEF70E0CE01039684
:103F30000E94D3208091000189830A83C4CE88E047
:103F4000EDE0F1E0DE01919601900D928A95E1F7A6
:103F500083E089831A821B821C8288E0FE01B1966D
:103F6000DE01159601900D928A95E1F7ACCE8C8119
:103F7000682F70E0762F66278B81860F972F911D13
:103F8000092E000CAA0BBB0B25E0880F991FAA1F56
:103F9000BB1F2A95D1F7AC01BD01405E5F4F6F4F4B
:103FA0007F4F481759076A077B0708F48CCE803487
:103FB00022E09207A105B10508F085CE4134E2E088
:103FC0005E076105710520F040E452E060E070E0BA
:103FD000481B590BBC01665C7B4FCE0101960E94C9
:103FE000CA2071CE81E090E0909325028093240254
:103FF00082E390E090931702809316020E948D0551
:1040000062CE8091000189830A838091160240CE9E
:1040100009BD19BD09B400FEFDCF8091D8008F7D88
:104020008093D8008091E00082608093E0008091CE
:10403000E00081FDFCCF0E94CD0CA7CD60E085E2C1
:1040400090E00E94E8200E94830C0E943E0C6FEFDB
:1040500082E290E00E94E82069E083E290E00E9422
:10406000E82064EB84E290E00E94E820D1CB85E276
:1040700090E00E94DA201B821C821D828E8323CE58
:104080002D32314008F0B3CCE9CC2D32314008F06C
:1040900062CC98CC78941F921FB61F9211248F93F4
:1040A0009F93AF93BF938091200290912102A091A2
:1040B0002202B09123020196A11DB11D809320021E
:1040C00090932102A0932202B0932302BF91AF915B
:1040D0009F918F911F901FBE1F9018951F921FB622
:1040E0001F9211248F939F93AF93BF938091FF01F1
:1040F000811113C08091200290912102A09122028F
:10410000B09123024196A11DB11D8093200290938E
:104110002102A0932202B0932302BF91AF919F91FD
:104120008F911F901FBE1F90189597FB072E16F4B6
:10413000009407D077FD09D00E94B62007FC05D077
:104140003EF4909581959F4F0895709561957F4FAE
:104150000895EE0FFF1F0590F491E02D0994692753
:10416000962769277827872778270895AA1BBB1BDE
:1041700051E107C0AA1FBB1FA617B70710F0A61B67
:10418000B70B881F991F5A95A9F780959095BC0188
:10419000CD010895FB01DC0102C005900D92415054
:1041A0005040D8F70895DC0101C06D934150504054
:1041B000E0F70895F999FECF92BD81BDF89A99274D
:1041C00080B50895A8E1B0E042E050E00C940E21E3
:1041D000262FF999FECF92BD81BDF89A019700B4C0
:1041E000021639F01FBA20BD0FB6F894FA9AF99A60
:1041F0000FBE08950396272F0E94E9200E94E82011
:10420000252F0E94E920242F0C94E9200196272FC6
:104210000E94E9200C94E820DC01CB01FC01F99913
:10422000FECF06C0F2BDE1BDF89A319600B40D9202
:1042300041505040B8F70895F894FFCF290C290C4D
:10424000320C320C340C320C320C320C290C290C8E
:10425000390C320C320C390CC70DEF0D420EEF0D3C
:10426000420E220E5A0E420E620F6F0FD814D8144F
:10427000341534158D15A7150D150D15B4158A16A1
:0442800099169916DC
:1042840001006A050F10EE0FEA0FE60F011FDFDAD7
:1042940030153C3F52818283E200E900EA00B50018
:1042A400B600B700CD008301CC008A0192019401CD
:1042B4002102230224022502260227022A02B30035
:1042C400B4006F0070009392F49190946697C63492
:1042D40035F5F6F7314022BC8A016801AC008C0642
:0442E400A506C50660
:00000001FF
