:100000000C949D030C94E4030C94E4030C94E4031B
:100010000C94E4030C94E4030C94E4030C94E403C4
:100020000C94E4030C94E4030C94DD230C949923C6
:100030000C94D8240C94E4030C94E4030C94E4038F
:100040000C94E4030C94E4030C94E4030C94E40394
:100050000C94E4030C94B4240C94E4030C94E40393
:100060000C94E4030C94E4030C94E4030C94E40374
:100070000C94E4030C94E4030C94E4030C94E40364
:100080000C94E4030C94E4030C94E4030C94E40354
:100090000C94E4030C94E4030C94E4030C94E40344
:1000A0000C94E4030C94E4030C94E40305010902AA
:1000B000A10185020901A100050919012905150001
:1000C00025019505750181029501750381010501E1
:1000D000093009311581257F950275088106093897
:1000E0001581257F950175088106050C0A380215D2
:1000F00081257F950175088106C0C005010980A191
:1001000001850319012AB700150126B7009501756D
:10011000108100C0050C0901A101850419012AA064
:1001200002150126A002950175108100C005010984
:1001300006A1018505050719E029E71500250195A8
:1001400008750181020507190029EF1500250195A1
:10015000F0750181020508190129059505750191C0
:1001600002950175039101C00660FF0961A10109B3
:1001700062150026FF0095207508810209631500AD
:1001800026FF00952075089102C005010906A1010E
:10019000050719E029E71500250195087501810279
:1001A0009501750881010507190029FF150026FF33
:1001B0000095067508810005081901290595057542
:1001C000019102950175039101C00000000000003B
:1001D000000000000000000000000000000000001F
:1001E00000000000000000000000000000007E0F82
:1001F00000D4FFFFFFC700000078000000000000EF
:1002000000002A2B28000000000000000000000071
:10021000000000000029000000002C1E34202122D4
:1002200024342627252E362D3738271E1F2021223D
:10023000232425263333362E37381F0405060708B6
:10024000090A0B0C0D0E0F101112131415161718A6
:10025000191A1B1C1D2F3130232D350405060708E4
:10026000090A0B0C0D0E0F10111213141516171886
:10027000191A1B1C1D2F3130354CFD377A585A0086
:100280000004E6D6B4460200210116000000742FD7
:10029000E5A3E00602020D5D003D8889C65436C321
:1002A000174FE4DDF86A80ACC768E626B24520291E
:1002B000007BC891C5126784DF08995E35CF69B7A6
:1002C0002D6260BDDFE17199A2471E50BD84E1C07F
:1002D0006D081E3729104003095FEFA4E40F369321
:1002E0001C3D79A130F7380D47E1CF22D0E83E1F01
:1002F0007B2C4DA385CCC0BC3BA36C98D3939F3E75
:10030000B9658B4A7CA66AFFC91997485A9B733610
:100310005743DC7962F22A0E527E61E60A74F91DB7
:100320002AD41E1180E0AC90A8D230496448D5FF91
:10033000A10B4E15A6B078D42DB0A176EFC5413BE8
:10034000FCE03008443027FC58837A21CE39D6BFF0
:10035000997B0B2C61960F733BCAC507A4C633E883
:10036000D81D7C27DDFC66CB6F063F912E07B83881
:10037000D4619B72E4B5F6B415D455AC6D2CEF1B6B
:100380001A44B408B885879CC905F17BD3E95FB4EA
:1003900060C2CB972DDC84DC94FF4F2631C0314BFB
:1003A00049A034C6AD597F380015836D76EA2CDD3F
:1003B0003B0904A76D482AE8D86AB35722D9C60773
:1003C000F7741FE4B8150FF247A8F701249FD31D57
:1003D00056C323F73DA889021A1E88DE24B076652D
:1003E000E260F104933314D88334ED16541170672E
:1003F000F7ABA6FD27F348131F15AD69011CBFE835
:10040000558E2299B5580BA95FDFE2FFBC39F999E7
:10041000502692E33BAE26DC66ABAABA00D8271C76
:100420004CE7A5B259DCF607FDF6B23D6D5A96B31E
:10043000464DEC4F51542B11E7A1A07D4871DE5879
:10044000AE06F6255F5EC93444F8E462CCC5CD9CA7
:10045000E9E5DDE617EDA9A815B48F039D583F9394
:10046000BBFA673BC3F5E37A0BE6CD78CA02A7393E
:10047000B7DF5C821A1E6A59A29FCA198318AEC3DD
:10048000BA7ECFD948A88296FFC2BD58E23D01CBC3
:100490000373BFB1B57FF5BBBD78957D81CF9DBAA4
:1004A0005C1A3772450000000000AC1F42312EA3D9
:1004B0007F650001A904830C00008AD230FEB1C41C
:1004C00067FB020000000004595A29001A001500B9
:1004D0001C000C0013004C0014000800170018004A
:1004E00012004C0000002B00160009000B000E004B
:1004F00033003400040007000A000D000F0028003C
:100500000000E1001B0019000500100037002A0060
:100510001D0006006A001100360001510000E000D5
:1005200000002C002C0050004F000151E300E200BD
:10053000E300025151005200000035001F0021006D
:100540002300250027004C001E002000220024006C
:1005500026004C00000039000100010001002D00C0
:100560003400340001000100010001002E003100C0
:100570000000E100690001000500100030002A00C1
:10058000680001006A0011002F0001510000E00026
:1005900000002C002C0050004F000151E300E2004D
:1005A000E300025151005200000035003B003D00C5
:1005B0003F00410043004C003A003C003E00400038
:1005C00042004C0000003900010001000100010060
:1005D00001003400010001000100010001002800B9
:1005E0000000E100010001000100010001002A00FB
:1005F0000100010001000100010001510000145C34
:1006000000002C002C0050004F000151E300E200DC
:10061000E300025151005200000029001A001500A9
:100620001C000C0013004C001400080017001800F8
:1006300012004C0000002B00160009000B000E00F9
:1006400033003400040007000A000D000F002800EA
:100650000000E1001B0019000500100037002A000F
:100660001D0006006A001100360001510000E00084
:1006700000002C002C0050004F000151E300E2006C
:10068000E300025151005200000009025B00030127
:1006900000A0FA0904000001030101000921110171
:1006A00000012240000705810308000A0904010037
:1006B00002030000000921110100012222000705A8
:1006C0008203200001070503032000010904020042
:1006D000010300000009211101000122BC000705EF
:1006E000840320000A120100020000000827624073
:1006F000060200010203011C037600690061006C20
:10070000003A0066003600340063003200620033B5
:1007100000630000000C034500740068006500726F
:100720000000001003670072006C00640074006D2C
:10073000006B000000040309040011241FBECFEF6A
:10074000DAE0DEBFCDBF04B603FE27C080913504DA
:1007500090913604A0913704B09138048730904BC3
:10076000A740B04BD1F41092350410923604109289
:1007700037041092380414BE84B7877F84BF0FB645
:10078000F894A89580916000886180936000109231
:1007900060000FBEE0E0F8E3099511E0A0E0B1E0F1
:1007A000EAE7F7E502C005900D92A637B107D9F741
:1007B00024E0A6E7B1E001C01D92A533B207E1F73E
:1007C0000E94FF240C94892B0C940000E8EDF0E0CB
:1007D00080818E7F80831092E2001092DA00109266
:1007E000E100A0EEB0E08C9181608C9380818F77E6
:1007F000808319BCA7EDB0E08C918E7F8C938081B3
:100800008F7E80831092010408952091E40030913E
:10081000E50095E6A9012091EC00822F817020FF70
:1008200006C08091E80080FF06C080E00895209116
:10083000E80022FD1AC080912604882389F08530C3
:1008400089F08091EB0085FD0FC02091E40030918C
:10085000E50042175307F9F29150E1F684E008955C
:1008600082E0089583E0089581E00895EF92FF9279
:100870000F931F93CF937C018B010E940504C82F17
:10088000811117C08091E80085FD0BC08091E800C0
:100890008E778093E8000E940504882399F3C82F7F
:1008A00008C0F70181917F018093F1000150110987
:1008B00049F78C2FCF911F910F91FF90EF900895E2
:1008C0008091280487FF13C08091E80082FF06C052
:1008D0008091E8008B778093E80004C08091260423
:1008E0008111F2CF0895809126048823D9F3809155
:1008F000E80080FFF8CF8091E8008E77ECCF982F4A
:100900009093E900242F762F50E0891731F07091F1
:10091000EC002091ED005091F00021FD07C09F5F99
:10092000973071F78093E90081E008953091EB00F2
:100930003E7F3093EB003091ED003D7F3093ED0032
:100940003091EB0031603093EB007093EC0020931A
:10095000ED005093F0002091EE0027FDE0CF80E005
:100960000895CF92DF92EF92FF920F931F93CF9350
:10097000DF93C8EDD0E088818F7E8883E7EDF0E0DB
:1009800080818160808384E082BF81E08093010464
:1009900088818E7F888302EE10E0F8011082109229
:1009A000DA0081EEC82ED12CF601108288818F7773
:1009B000888388818068888388818F7D888319BC3B
:1009C00010922604109227041092250410922404F9
:1009D00090EEE92EF12CF70180818B7F8083888156
:1009E0008160888342E060E080E00E947F04F6013D
:1009F00080818E7F8083F801808181608083808107
:100A000088608083F70180818E7F80838881806108
:100A10008883DF91CF911F910F91FF90EF90DF902E
:100A2000CF900895FC0180912E0490912F04861799
:100A30009707A0F06115710529F49091E8009E7761
:100A40009093E80090E06115710551F4911108C090
:100A50008091E80082FF34C080E00895BC01F2CFAD
:100A6000809126048823C1F18530C1F18091E8008E
:100A700083FD30C08091E80082FDEACF8091E800DC
:100A800080FFE1CF8091F3002091F200382F6115B3
:100A9000710519F02830310558F091E02830310502
:100AA00009F090E02091E8002E772093E800CBCF6A
:100AB00081918093F100615071092F5F3F4FE7CF23
:100AC00080912604882341F0853041F08091E80030
:100AD00083FFBECF81E0089582E0089583E008950A
:100AE00080910304089587E797E790930108809326
:100AF000000888E19AE00FB6F894A895809360000A
:100B00000FBE90936000FFCF9C014FB7F894809187
:100B1000F8039091F903A091FA03B091FB034FBF42
:100B2000821B930B08952FB7F8948091F80390914E
:100B3000F903A091FA03B091FB032FBF0895209110
:100B40000E012223C9F02091FC0327FF15C0E62FD8
:100B5000E695E695E695EE31D8F4E80FF92FF11D0C
:100B6000677021E030E001C0220F6A95EAF7209516
:100B70008281282322830895FC01329608962191D0
:100B8000621303C0DF0111971C92E817F907B9F748
:100B9000089520910E012223C1F02091FC0327FF2C
:100BA00014C0E62FE695E695E695EE31F8F4E80FE9
:100BB000F92FF11D677021E030E001C0220F6A9526
:100BC000EAF78281822B82830895FC0132962FEF0F
:100BD00030E04191641751F02F3F19F4411101C0E9
:100BE000232F3F5F3630A9F72F3F09F40895820F76
:100BF000911D27FD9A95FC01628308952091F503CC
:100C00003091F6032817390771F09093F60380931B
:100C1000F503E091F303F091F403309721F00084A1
:100C2000F185E02D099408952091F1033091F203AC
:100C30002817390771F09093F2038093F103E09144
:100C4000F303F091F403309721F00680F781E02D53
:100C500009940895E091F303F091F403309721F0A3
:100C60000190F081E02D099480E00895DC0160910D
:100C7000390380913A03962F891301C00895292FD3
:100C800030E0F901EE0FFF1FEF5CFC4F4081518116
:100C90004A175B07A1F487E08A9FA0018B9F500D44
:100CA000112447505D4F81E0FA0184839613E6CF0B
:100CB0002F5F3F4F237033272093390308952F5F11
:100CC0003F4F922F9370D8CF1092960210929502B8
:100CD000E9EFF2E08581811102C014821682379615
:100CE00083E0E133F807B1F708950E9493059C0172
:100CF00090912B0280912C02982B21F030932802A6
:100D00002093270290912D0280912E02982B21F0A2
:100D10003093260220932502E091F303F091F4032F
:100D2000309749F082E0809329020480F581E02D1C
:100D300089E292E00994089590912B02803F59F442
:100D400080912C0287FF0DC010922C0291110BC0D4
:100D50001092230208C0813F81F480912C02181662
:100D60009CF3992381F080912D0290912E02892B82
:100D700009F064C0109222020895823F49F497FF5F
:100D8000F0CF10922B0280912C028111ECCFE0CF9A
:100D9000833F19F41916ACF3E4CF20912D02893F5B
:100DA00029F41216F4F610922D02DBCF8A3F19F4C3
:100DB00027FFD7CFF8CF20912E028B3F29F427FFB2
:100DC000D0CF10922E02CDCF8C3F19F41216CCF357
:100DD000C8CF843F31F480912A028E7F80932A020B
:100DE000C0CF853F21F480912A028D7FF7CF863FC7
:100DF00021F480912A028B7FF1CF873F21F48091EB
:100E00002A02877FEBCF883F21F480912A028F7ED0
:100E1000E5CF8D3F31F4809124028E7F80932402B0
:100E2000A0CF8E3F21F4809124028D7FF7CF8F3F9A
:100E300009F097CF809124028B7FF0CF08958091A5
:100E4000240280FD16C081FD16C082FD16C080916F
:100E500022028823A1F0883280F428E0829FC0011A
:100E6000112468E270E00E94DD2A862F672B39F09A
:100E7000089582E0089584E0089588E0089581E06F
:100E800008958091240280FD14C081FD14C082FD6C
:100E900016C080912302882381F0843180F422E3FC
:100EA000829FC001112464E170E00E94DD2A862F38
:100EB00008958CE0089589E1089585E0089582E31E
:100EC0000895803F31F40E944107819580932C0260
:100ED0000895813F19F40E944107F8CF823F31F411
:100EE0000E944107819580932B020895833F19F456
:100EF0000E944107F8CF893F29F40E941F07809381
:100F00002D0208958A3F21F40E941F078195F7CF93
:100F10008B3F31F40E941F07819580932E02089524
:100F20008C3F19F40E941F07F8CF843F31F4809161
:100F30002A02816080932A020895853F21F48091DE
:100F40002A028260F7CF863F21F480912A028460D2
:100F5000F1CF873F21F480912A028860EBCF883F50
:100F600021F480912A028061E5CF8D3F31F4809198
:100F7000240281608093240208958E3F21F48091A1
:100F800024028260F7CF8F3FB9F7809124028460FA
:100F9000F1CF80E00895F894E82FE295EF70F0E04B
:100FA00031A1282F2F7081E090E001C0880F2A9591
:100FB000EAF7982F9095932391A392A1892B82A36E
:100FC000789408959091FC0392FF06C0282F287111
:100FD0002830F9F4877F846093FF06C0282F28719A
:100FE0002831F1F4877E84612091FD0320FF06C043
:100FF000382F38713830D9F4877F816021FF06C0DF
:10100000282F28712831D1F4877E816194FD877E55
:101010000895282F24712430F9F68B7F8860DCCF67
:10102000282F2471243101F78B7E8861DDCF382F82
:101030003171313019F78E7F8860E0CF282F217110
:10104000213121F78E7E8861E1CFCF93DF93EC01D0
:1010500082389105A9F1D8F58133910509F496C03C
:1010600048F58932910509F48AC08A9709F495C038
:10107000C11521E5D20708F0BCC0C11530E5D30782
:1010800008F014C1C83ED10508F09CC0C03ED1058F
:1010900060F5C83AD10508F087C0C53AD10508F017
:1010A000FDC0C130D10509F12097F9F0C430D10558
:1010B000E0F440C08533910509F45AC0C997C1F6E0
:1010C0008091FC03837089F0C0EED0E00EC0833EB7
:1010D000910599F170F4803E910501F1823E9105F0
:1010E00039F68091FC0382FD21C0CE01DF91CF91C2
:1010F0000895863E910561F1873E910571F1843E28
:10110000910509F0B5CF8091FD0381FFEECF80916D
:10111000FC03C7EED0E084FD0DC0E7CF8091FC0357
:1011200080FD12C19091FD0390FFDFCFC3EED0E0B0
:1011300084FFDBCFD0E0C0E0D8CF8091FC0382FDFC
:1011400006C19091FD0390FDBFCF84FFCECFF2CFBB
:101150008091FC0383FDDDCFC8CF8091FC0383FD2C
:10116000F9C09091FD0391FFF0CFC4EED0E0BDCF68
:101170008091FC0385FFB9CFC9E2D0E0B6CF809162
:10118000FC0385FFB2CFC5E3D0E0AFCF8091FC0375
:1011900086FFABCFCAE2D0E0A8CF8091FC0386FFE8
:1011A000A4CFC1E3D0E0A1CFCF3BD10518F6C85AF8
:1011B000D0E0CC0FDD1FC65EDE4F0990D881C02D78
:1011C000D46493CFC11540E2D40758F4C11581E02F
:1011D000D80708F08ACFC03FD10508F4ABCFD0655F
:1011E00084CFC11590E4D90708F4A4CFDF70D06A8A
:1011F0007CCFC11525E5D20700F5C11534E5D3072D
:1012000008F08AC0C11543E5D40708F071C0C115C4
:1012100082E5D80708F467C0CE018370992721E0E2
:1012200030E002C0220F331F8A95E2F7C695C695BB
:1012300080E2C89FE001112452C0C11599E5D90789
:10124000A8F4C11528E5D20708F06BC0C11536E532
:10125000D30708F06FCF8C2F0E94E207C82FD0E091
:10126000DC2FCC27CC27DF71D0623FCFC1154AE5F8
:10127000D40708F45BC0CE0190568115904208F067
:1012800059CF8D2F8F710E94E20790E0982F882709
:1012900088279F719C012C2BE901E6CFC55AD0E02D
:1012A000C95EDE4FC881D0E0D0641FCFCE01E4E03C
:1012B00096958795EA95E1F783702C2F26952695CC
:1012C000237040E2249F90011124382B8C2F8370CF
:1012D000C1E0D0E002C0CC0FDD1F8A95E2F7C22B3F
:1012E000D32BDC6802CFDC2FCC27C16FD06AFDCEB8
:1012F000CE018370992721E030E002C0220F331F16
:101300008A95E2F7C695C69590E2C99FE00111243F
:10131000C22BD32BDA68E9CEDC2FCC27C46FD06A7E
:10132000E4CEDC2FCC27C06FD06ADFCE8C2F8F703D
:101330000E94E20734E0D695C7953A95E1F7CF7061
:101340009C2FEC01D069D1CEC9E3D0E0CECEC2EE65
:10135000D0E0CBCEC6EED0E0C8CE8091FF0188238E
:1013600031F01092FF011092FE011092FD010895DC
:10137000809590913D03982390933D03089580912B
:101380003D0390913E03892B9091FC01892B809322
:1013900078018091FF01882329F10E949305209113
:1013A000FD013091FE01821B930B8838934110F0B0
:1013B0000E94AD09809178019091FF01892B809363
:1013C000780180910E01882341F18091FC0387FF11
:1013D00024C08EE1EAE7F1E090E0815000F5911140
:1013E0000E94AD09E091F303F091F4033097E1F02E
:1013F00080910E01882359F08091FC0387FF07C07C
:10140000809178018093790185E080937801028052
:10141000F381E02D88E791E0099486E0DBCF21910C
:101420002223D9F29F5FD9CF0895EF92FF920F93B5
:101430001F93CF93DF93EC018A85811139C0EB8034
:10144000FC8087E5F81A26E12E9DC0012F9D900DA6
:101450001124DC01AF5BBC4F1496ED91FC91159704
:10146000309731F054966D917C91895B9C4F099532
:1014700086E18E9D80018F9D100D11240F5B1C4F06
:10148000F80187810E94B809F8018085982F90950E
:1014900080913E03892380933E030E94BF091882F6
:1014A00019861B861E821D821092400310923F03F4
:1014B000DF91CF911F910F91FF90EF900895CF93FF
:1014C000DF93EC01898981111BC081E0898B8091B8
:1014D0003D039F81892B80933D0380913E03988536
:1014E000892B80933E030E94BF09EA81FB813097DC
:1014F00039F06C897D89CE010696DF91CF910994F0
:10150000DF91CF9108951092FB011092FA01109291
:10151000F90108958091F80181111092F801089560
:101520008091F7019091B601981301C008958F5FE3
:101530008770FACF9E3F49F1E82F27E0929FE00D98
:1015400011249E2F9770E695E695E69583E0E89F37
:10155000F0011124E756FE4F50E040E080E0219179
:1015600030E0092E02C0369527950A94E2F72170E3
:101570003327042E01C0220F0A94EAF7822B4F5F13
:101580005F4F4330510559F7089580E008959E3F1D
:1015900069F1E82F27E0929FE00D11248E2F8770CC
:1015A00041E001C0440F8A95EAF7E695E695E69595
:1015B00083E0E89FF0011124E756FE4F30E020E081
:1015C00070E05191DF011197CB01022E02C0969578
:1015D00087950A94E2F78170819585278423852772
:1015E0008C932F5F3F4F2330310559F7089590E0DA
:1015F00080E00E94140690E080E00E94FE051092B8
:101600003E031092FC010E94BF0986E0E9E2F2E08D
:10161000DF011D928A95E9F71092230210922202AF
:10162000109224020C947506809331040C94F70AEE
:1016300080913104982F9670963019F488600C943C
:10164000140B877FFCCF21E030E001C0220F8A9588
:10165000EAF720958091310482230C94140B909129
:10166000FB01809589238093FB01282F277039F493
:10167000282F082E000C330B9217130621F490919B
:10168000FD0392FF07C08595859585950E94230BE4
:101690000C94830A089521E030E001C0220F8A955E
:1016A000EAF780913104822B0C94140B9091FD0386
:1016B00092FD10C098E0899F90011124622B6093E5
:1016C000FB010E944B0B0E9493059093FA018093BB
:1016D000F90108950C944B0B809330040C94F70A95
:1016E000882341F0809590913E03892380933E03A7
:1016F0000C94BF090895882339F090913E03982BEC
:1017000090933E030C94BF090895882321F00E9412
:10171000B8090C94BF090895882339F090913D03CE
:10172000982B90933D030C94BF090895882379F179
:101730009CEF980F913A38F4682F88E791E00E9467
:101740009F050C94BF0990E2980F983050F4877071
:1017500091E001C0990F8A95EAF7892F0E94B80994
:10176000F0CF9BE5980F933020F490E080E00C944C
:10177000140698E5980F973120F490E080E00C94DF
:10178000FE05803F20F00E949C060C94750608958B
:10179000CF93C82F882309F46FC08CEF8C0F813A48
:1017A000C0F580910E01882311F18091FC0387FF21
:1017B0001EC0EC2FE695E695E695F0E0E858FE4F62
:1017C000828190E04C2F477021E030E002C0220F70
:1017D000331F4A95E2F782239323892B91F06C2FD4
:1017E00088E791E00E949F050E94BF090AC0EAE7CE
:1017F000F1E080E891E02191C21789F38E179F07ED
:10180000D1F76C2F88E791E00E94C905CF910C9425
:10181000BF0980E28C0F883068F4C77021E030E0A7
:1018200001C0220FCA95EAF780913D03822B809375
:101830003D03ECCFEBE5EC0FE33040F4F0E0E95E84
:10184000FE4F808190E0CF910C941406E8E5EC0FF8
:10185000E73150F4F0E0EE0FFF1FE65EFE4F8081AF
:101860009181CF910C94FE05C03F30F08C2F0E94E7
:101870006107CF910C947506CF9108959C013A951C
:1018800021153F4150F5FC01EE27F170BC016627A0
:101890007270AC01442754709C012227387094FF69
:1018A0000EC080E1EF2B09F480E0672B09F0806225
:1018B000452B09F08064232B89F08068089581E02E
:1018C000EF2B09F480E0672B09F08260452B09F0CB
:1018D0008460232B19F08860089580E0089590912A
:1018E0002604943029F58093FE03709300046093DE
:1018F000FF039093E9008FEF9091E800815095FDF0
:1019000006C095ED9A95F1F700008111F5CF809111
:10191000E80085FF0DC050E040E063E070E08EEF2E
:1019200093E00E9436048091E8008E778093E8006F
:101930000895BC0184E00C946F0CBC0183E00C940E
:101940006F0C9C0184E08093E9009FEF8091E80098
:10195000915085FD06C085ED8A95F1F70000911143
:10196000F5CF8091E80085FF0CC050E040E066E0D4
:1019700070E0C9010E9436048091E8008E77809360
:10198000E8000895CF93DF93EC0180910E01882346
:10199000B1F18091FC0387FF32C060E284E0809364
:1019A000E9008FEF9091E800815095FD06C095ED1C
:1019B0009A95F1F700008111F5CF8091E80085FF3D
:1019C0001BC080910E0170E050E040E0811104C026
:1019D00050E040E068E070E0CE010E943604809163
:1019E000E8008E778093E80080E2FE01A4E0B4E096
:1019F00001900D928A95E1F7DF91CF91089568E00B
:101A000081E0CDCF1F93CF93DF93182FCAE0D0E0B2
:101A1000893311F4C0E5D0E0812F0E94C80B8FE913
:101A20009FE00197F1F700C000002197C1F7812FD7
:101A3000DF91CF911F910C94960B0F931F93CF932F
:101A4000DF93C62FD42F022FFC0182818823A1F0BF
:101A5000609334040E94930590933304809332047E
:101A6000C77081E001C0880FCA95EAF7DF91CF9176
:101A70001F910F910C948C0B80913404681335C026
:101A800080913204909133040E948405883C910532
:101A900060F510E21D0FCD17B9F080E28C0F883091
:101AA00040F4C77081E001C0880FCA95EAF70E9430
:101AB000850B183048F481E09D2F977001C0880F86
:101AC0009A95EAF70E948C0B802F0E94020D183025
:101AD00098F4D77081E001C0880FDA95EAF7DF91BA
:101AE000CF911F910F910C94850BC77081E001C0BD
:101AF000880FCA95EAF7F3CFDF91CF911F910F912D
:101B00000895AF92BF92CF92DF92EF92FF920F9320
:101B10001F93CF93DF93EC018AE0A82E2881222324
:101B200009F48CC02130C9F599818A81913021F462
:101B300022960E94020D05C0923029F422960E943E
:101B4000C80B2196EBCF933021F422960E94960B7E
:101B5000F8CF943011F02196F4CF229630E020E0B7
:101B6000AE014F5F5F4F8053990B8A30910550F063
:101B70002150310930F38FE99FE00197F1F700C060
:101B80000000F6CFA29EB001A39E700D11249C010F
:101B9000260F371F8981EA01E3CFE22FF0E0E650FC
:101BA000FE4FB490822F86958695869590E0FC0135
:101BB000E651FE4FE4902770F12C022E02C0F594FE
:101BC000E7940A94E2F731E0E322FF24FC01E652B5
:101BD000FE4FC490D12C022E02C0D594C7940A9413
:101BE000E2F731E0C322DD24FC01E653FE4F04910D
:101BF00010E002C0159507952A95E2F701701127AC
:101C0000E114F10419F081EE0E94C80BC114D10453
:101C100019F086EE0E94C80B8B2D0E94020DCD2874
:101C200019F086EE0E94960BEF2819F081EE0E94C3
:101C3000960B012B09F485CF8CE27BCFDF91CF91FE
:101C40001F910F91FF90EF90DF90CF90BF90AF90DA
:101C50000895CF93DF93C7E9D2E060E0CE010E9400
:101C60004D2B2196C11584E0D807B9F7DF91CF91AC
:101C700008950F931F93CF93DF938901843028F544
:101C8000611123C0423008F521153C4531F4209103
:101C90000B0130910C01232BC1F094E0899FE001EE
:101CA000112450E0440F551FC40FD51FC951DE4FFA
:101CB000612FCE010E944D2B602FCE010196DF9146
:101CC000CF911F910F910C944D2BDF91CF911F91CC
:101CD0000F9108950F931F93CF93DF938901843061
:101CE00048F5683038F5473028F521153C4531F482
:101CF00020910B0130910C01232BE1F0C42FD0E097
:101D0000CC0FDD1F9EE0699FC00DD11D112490E70F
:101D1000899FC00DD11D1124612FCE0187960E948D
:101D20004D2B602FCE018896DF91CF911F910F919F
:101D30000C944D2BDF91CF911F910F910895CF936C
:101D4000C82F6FEF811160E183E290E00E944D2B7C
:101D50006FEFC11162ED84E290E00E944D2B6FEFB6
:101D6000C11164EC85E290E0CF910C944D2BCF93A0
:101D7000C091FD03C2FB992790F9981781F080FB71
:101D8000C2F9C093FD036091FC0384E090E00E94DF
:101D90004D2B6C2F82E290E0CF910C944D2BCF9184
:101DA00008957F928F929F92AF92BF92CF92DF92CF
:101DB000EF92FF920F931F93CF93DF93CDB7DEB7D0
:101DC00064970FB6F894DEBF0FBECDBFA0900B0195
:101DD000B0900C0181E090E090930C0180930B0196
:101DE0008AECC82E84E0D82E10E0760100E015C001
:101DF000F40125913491472D602F812F0E946A0EA6
:101E000082E0880E911C7394E7E07E12F1CFFEE031
:101E1000EF0EF11C0F5F083019F04701712CE8CF6D
:101E200021E030E040E060E0812F0E94390E21E0A7
:101E300030E041E060E0812F0E94390E1F5F80E7B3
:101E4000C80ED11C143089F61A8219821C821B829A
:101E50001E821D8218861F8288EC90E09A878987EF
:101E600007EF11E04AE050E0B801CE0101960E9470
:101E7000712B065F1F4F0734E2E01E0799F77E01C2
:101E8000FBE0EF0EF11C8AE0F70111928A95E9F769
:101E90004AE050E0B801C7010E94712B065F1F4F56
:101EA0000739F2E01F07A1F7B0920C01A0920B01D5
:101EB00064960FB6F894DEBF0FBECDBFDF91CF9111
:101EC0001F910F91FF90EF90DF90CF90BF90AF9058
:101ED0009F908F907F90089580E00E949F0E60E019
:101EE00086E290E00E944D2B0E94D10E0E94290EA6
:101EF00081E00C949F0E9B01883070F49AE0899FDA
:101F0000B001112469507E4F4AE050E0C9010E949F
:101F10002F2B90E080E008958FEF9FEF08958F9230
:101F20009F92AF92BF92CF92DF92EF92FF920F9368
:101F30001F93CF93DF93CDB7DEB72A970FB6F894F0
:101F4000DEBF0FBECDBF01E413E0F12CE12C83EF27
:101F5000C82E82E2D82E9DE1A92E93E2B92E2AE066
:101F6000822E22E2922EF801D182C082B382A28216
:101F700095828482F58AE48ABE016F5F7F4F8E2D41
:101F80000E947B0F892B29F489859A85F801938B10
:101F9000828BFFEFEF1AFF0A0A5E1F4F88E0E816F8
:101FA000F10409F72A960FB6F894DEBF0FBECDBF35
:101FB000DF91CF911F910F91FF90EF90DF90CF9025
:101FC000BF90AF909F908F9008950F931F93CF93E2
:101FD000DF93843000F561111EC024E0829F8001F0
:101FE000112450E0440F551F040F151F09511E4FB7
:101FF000C8010E943F2BC82FD0E0DC2FCC27C8019E
:1020000001960E943F2B9E01282BC901DF91CF91A1
:102010001F910F91089590E080E0F8CF0F931F93E8
:10202000CF93DF93843030F5683020F5473010F5DA
:10203000C42FD0E0CC0FDD1F2EE0629FC00DD11D5C
:10204000112430E7839FC00DD11D1124CE01879646
:102050000E943F2B082F10E0102F0027CE018896FA
:102060000E943F2B9801282BC901DF91CF911F912E
:102070000F91089590E080E0F8CF462F20919302D1
:1020800030919402232B91F47E3F39F46E3F71F42A
:1020900080919102909192020895843038F47830C2
:1020A00028F4673018F4672F0C940E1090E080E04D
:1020B0000895CF92DF92FF920F931F93CF93DF93F8
:1020C0006C010091310480913004082BC7E0D0E00E
:1020D00010E0FC2EC8010C2E02C0959587950A943D
:1020E000E2F780FD0CC02197A0F7F12C8F2DDF9136
:1020F000CF911F910F91FF90DF90CF900895B6017F
:102100008C2F0E943D100E942508019761F3EECFAD
:10211000CF93DF93EC010E945910BE010E943D1045
:10212000DF91CF910C942508FC018681978100975F
:1021300079F00E942508292F2F7092959F70925058
:102140009E30A0F4E92FF0E0E557F44D0C94F12A0D
:10215000808191810E948810EECF803F19F020F499
:10216000883E20F481E00895843FE1F380E0089503
:10217000883EC0F3813FD1F7F5CF822F86958695B3
:10218000869508951F93CF93DF9300D000D00F92D0
:10219000CDB7DEB7FC01268137812115310541F528
:1021A00025E0DE01119601900D922A95E1F7FC01E0
:1021B000228189819A812223B9F06623A9F00E94A5
:1021C0005910182F682F89819A810E94C70A698146
:1021D0007A81812F0F900F900F900F900F90DF91C9
:1021E000CF911F910C943D100E949A0A182FEFCFA7
:1021F000C9010F900F900F900F900F90DF91CF912A
:102200001F91089583E290E00E943F2B803189F472
:1022100084E290E00E943F2B823D59F485E290E0F9
:102220000E943F2B91E0843C09F090E0892F81705F
:10223000089580E0FCCFCF9384E090E00E943F2B94
:10224000C82F82E290E00E943F2B982F8C2FCF91D5
:102250000895CF92DF92EF92FF920F931F93CF9347
:10226000DF93CDB7DEB72A970FB6F894DEBF0FBE67
:10227000CDBFE1E4F2E080E5DF011D928A95E9F748
:10228000E9EFF2E088E3DF011D928A95E9F781E446
:10229000C82E82E0D82E7F0107E412E0F701D18238
:1022A000C0824AE050E0B801CE0101960E942F2B77
:1022B00088E0FE013196D60101900D928A95E1F7F2
:1022C00089859A85D70113969C938E931297BAE0CD
:1022D000CB0ED11CE7E0EE0EF11C065F1F4F073955
:1022E000F2E01F07D9F62A960FB6F894DEBF0FBEAC
:1022F000CDBFDF91CF911F910F91FF90EF90DF90B5
:10230000CF90089510923D0380910E01EAE7F1E02D
:10231000882359F08091FC0387FF07C08EE1DF011D
:102320001D928A95E9F70C94F70A86E0F8CF1F937F
:10233000CF93DF93CDB7DEB7AA970FB6F894DEBF81
:102340000FBECDBF88E294E02091F100DC012D9317
:10235000CD01B4E080339B07B9F780912904833025
:1023600009F471C0B8F4813009F448C0823009F42E
:10237000B2C08091E80083FF3AC180912804909117
:1023800029049A3008F033C1E92FF0E0E756F44D04
:102390000C94F12A8A3009F48DC08B3009F470C096
:1023A000893039F780912804813219F780912C0403
:1023B00090912D04009711F00297D9F68091E800D2
:1023C000877F8093E8008091E80082FF37C090917A
:1023D000F3008091F200029729F48091F1008B7F45
:1023E000813021F48091F100809303048091E80012
:1023F0008B778093E8000E946004BBCF8091280413
:10240000813A09F0B6CF8091E800877F8093E80099
:1024100080912C0490912D04892B61F460E284E07A
:1024200094E070E00E9412058091E8008B77809321
:10243000E8009FCF60E090E080E0F3CF8091260439
:102440008111C1CF96CF80912804813A09F091CFB4
:1024500080912C0490912D04892B09F08ACF8091D2
:10246000E800877F8093E8008091E80080FFFCCF40
:1024700080910E018093F1008091E8008E77B9CFB2
:1024800080912804813209F074CF80912C049091BE
:102490002D04892B09F06DCF8091E800877F809310
:1024A000E8000E94600480912A0480930E010E943B
:1024B00082115FCF80912804813209F05ACF809138
:1024C000E800877F8093E8000E94600480912B04DD
:1024D000809302044ECF80912804813A09F049CFBD
:1024E0008091E800877F8093E8008091E80080FF7A
:1024F000FCCF80910204BECF803899F0823809F079
:1025000076C080912C048F70873008F070C0809363
:10251000E9008091EB0085FB882780F91092E900A3
:1025200006C08091240490912504911182609091BD
:10253000E800977F9093E8008093F1001092F100FB
:102540008091E8008E77C0C1882309F4ADC1823044
:1025500009F04DC080912A048111B1C180912C04F1
:102560008F702FEF280F263008F041C08093E900CC
:102570002091EB0020FFA3C1933031F48091EB0058
:1025800080628093EB009BC19091EB0090619093EF
:10259000EB0021E030E001C0220F8A95EAF720939A
:1025A000EA001092EA008091EB008860EACF811186
:1025B0001EC010912A041F778091E3008078812B40
:1025C0008093E3008091E800877F8093E8000E9479
:1025D00060048091E80080FFFCCF8091E300806878
:1025E0008093E30082E0111183E0809326048091C0
:1025F000E80083FF0AC08091E800877F8093E800AD
:102600008091EB0080628093EB00AA960FB6F8945D
:10261000DEBF0FBECDBFDF91CF911F9108958058CF
:10262000823028F720912A0430912B042C3DE3E0DE
:102630003E07A1F583E08A838AE289834FB7F89445
:10264000DE01139620E03EE051E2E32FF0E05093EC
:102650005700E49120FF03C0E295EF703F5FEF70F9
:102660008E2F90E0EA30C0F0C7968D939D932F5F38
:10267000243159F74FBF8091E800877F8093E800AD
:102680006AE270E0CE0101960E9412058091E80096
:102690008B778093E800ABCFC096E7CF80912C0476
:1026A00090912D04432F55274330510509F44AC01A
:1026B00078F54130510509F485C08BE590E0EAE8F2
:1026C000F6E04230510509F092CF2091E800277FD3
:1026D0002093E80020912E0430912F048217930755
:1026E00008F49C0140E02115310509F070C041114A
:1026F0006EC08091E80082FDC9CF809126048823B6
:1027000029F2853019F28091E80083FFF2CFBECF25
:102710004132510509F447C04232510509F067CFF3
:102720008330910508F063CFFC01EE0FFF1FE659DF
:10273000FE4F0190F081E02D89599E4FDC018C9174
:1027400090E01DC0332721303105E9F02115310516
:1027500079F022303105F9F02330310509F047CF07
:10276000E7EFF6E0E4918E2F90E0E7EFF6E007C0A8
:10277000E5E3F7E0E4918E2F90E0E5E3F7E00097E2
:1027800009F435CFA2CFE3E2F7E0E4918E2F90E099
:10279000E3E2F7E0F4CFE5E1F7E0E4918E2F90E09B
:1027A000E5E1F7E0ECCF8330910508F020CF880F0A
:1027B000991FFC01E059FE4F0190F081E02D89E066
:1027C00090E083CF82E190E0E5EEF6E07ECF80916D
:1027D0002604882309F45ACF853009F457CF809115
:1027E000E80083FD53CF8091E80082FD82CF809185
:1027F000E80080FF78CF9091F3008091F2002115DE
:10280000310519F08830910550F041E0089709F042
:1028100040E08091E8008E778093E80064CF449197
:102820004093F1003196215031090196E8CF80386C
:1028300009F0DDCE8091E800877F8093E8008091E9
:1028400027048093F1007CCE8111D1CE10912A040F
:10285000123008F0CCCE8091E800877F8093E800AA
:10286000109327040E946004112311F084E005C036
:102870008091E30087FDFACF81E08093260442E057
:1028800061EC81E00E947F0442E261EC84E00E94FE
:102890007F0442E261EC82E00E947F0442E260EC4D
:1028A00083E00E947F04A3CE80912A04813009F046
:1028B0009ECE81E0933009F080E080932504109251
:1028C000E9008091E800877F8093E8000E9460041F
:1028D0008ECE6AEE7EEF90E080E00E946B2B60E08F
:1028E00082E090E00E944D2B60E083E090E00E9447
:1028F0004D2B1092300460E084E090E00E944D2B5C
:1029000060E082E290E00E944D2B60E085E090E084
:102910000E944D2B60E086E090E00E944D2B6FEF0F
:1029200087E090E00E944D2B40E050E0BA0188E043
:1029300090E00E945F2B60E08DE090E00E944D2BC4
:1029400040E050E0BA0188E190E00E945F2B60E037
:1029500087E190E00E944D2B40E050E0BA018CE10D
:1029600090E00E945F2B70E060E080E290E00E94C7
:102970006B2B40E050E0BA0188E190E00E945F2BB1
:1029800080E00E949F0E0E946C0F40E050E0BA0170
:102990008FE090E00E945F2B40E050E0BA0183E1BD
:1029A00090E00C945F2B8F929F92AF92BF92CF9248
:1029B000DF92EF92FF920F931F93CF93DF9300D09C
:1029C00000D0CDB7DEB77C01DC0113968D919C91D0
:1029D0001497892B39F08C9111969C9189238F3F04
:1029E00009F033C50F900F900F900F90DF91CF91AA
:1029F0001F910F91FF90EF90DF90CF90BF90AF901D
:102A00009F908F900895D60116968C9116978823E3
:102A1000D1F019968D919C910817190739F480917E
:102A20003F03909140030817190769F0F601978654
:102A300014870387C6010E945F0AC60106960E949A
:102A4000150A10923E03FFEFAF1ABF0A26E1C20E2D
:102A5000D11C11C5980122513F452031310508F0A4
:102A6000C4C48FEF93E00E943F2B4EEED42ED00EC5
:102A700007E912E08823D1F08091FB01877009F407
:102A8000B1CFF7018281882309F4ACCF82E00E94A4
:102A90002F0BA8CF011534E0130771F3C8010E9472
:102AA0003F2B811101C0DA940F5F1F4FD110F2CF7D
:102AB00019821A821B821C82CC24CA9448014FEFCF
:102AC000841A940AC8010E943F2B89831A828823A2
:102AD00099F2813009F047C0580152E0A50EB11CAF
:102AE000C4010E943F2B982E8A83882329F2C501B6
:102AF0000E943F2BD82E8FEF890D833068F4580148
:102B000083E0A80EB11CDB82DD2021F0CE0101960E
:102B10000E94810D8501D2CF94E09912FBCF58011C
:102B2000A4E0AA0EB11CC80103960E943F2BDD2031
:102B300009F4A2CF882309F49FCF8150990BC89E36
:102B40009001C99E300D1124ED2DE150FF0BCF01F6
:102B5000820F931F0197F0F2AFE9BFE01197F1F7F1
:102B600000C00000F7CFCE0101960E94810D5401F4
:102B7000D1CF81E00E944B0B0E94180B7DCF81E0EA
:102B80000E94230BF9CF82E0F5CF2FEFC216D104BC
:102B900011F008F040C467E372E08C2D0E947B0FB7
:102BA000892B29F586E18C9DF0018D9DF00D112476
:102BB000EF5BFC4F8681813009F0ADC08091370218
:102BC00090913802892B99F08091390290913A02C4
:102BD000892B69F080913B0290913C0220913D024B
:102BE00030913E02822B932B892B09F49EC0809159
:102BF0000001082E000C990B8C159D0514F4C09251
:102C00000001F701828196E19C9D50019D9DB00CD1
:102C1000112495012F5B3C4F6901D90150968C938B
:102C20005097928116968C911697992309F48BC030
:102C30001A961C930E9319978F5F16968C930E9489
:102C40009305F601968785878091FF0187838091A0
:102C50003E0390913D03892B80870190F081E02D08
:102C6000309741F0D60154966D917C91C501895BF6
:102C70009C4F09951093400300933F03F701828115
:102C8000882309F411C4109234040230FCE51F07B4
:102C900008F464C106312CE5120730F0C8018A5FE0
:102CA0009C45099708F05AC10E941B119093FD039F
:102CB0008093FC0300313CE5130709F41EC108F0C2
:102CC000B1C008305CE5150709F40DC108F080C0FB
:102CD00004309CE5190709F4FEC008F066C0023014
:102CE000BCE51B0709F4F1C08091FC03826003304E
:102CF0001C4509F4EDC06091FC031091FD0384E0D4
:102D000090E00E944D2B612F82E290E00E944D2BBB
:102D10000E948211B1CE823009F069CF80913B02CE
:102D200090913C02892B09F462CF26E12C9DC001D1
:102D30002D9D900D11248F5B9C4FDC0150961C92B1
:102D40000E945F0A54CF882309F498CFF901818942
:102D5000882309F493CFC501895B9C4F0E94150A13
:102D60008DCF053F8CE51807C9F0A0F027E245EEAE
:102D700066EE063FACE51A0709F080CFC7010E9456
:102D80001D0D7ACE27E245EE65EEF8CF26E241EE44
:102D900060EEF4CF27E245EE64EEF0CF26E241EE9E
:102DA00062EEECCF28E241E0EFCF8091FC0380613E
:102DB0000630FCE51F0709F48BC08091FC03886096
:102DC00007301C4508F484C08091FC03806280C0F9
:102DD0008091FC038D7F0C303CE5130709F478C02B
:102DE00070F48091FC038C600A305CE5150709F4EF
:102DF0006FC008F47CC08091FC038E7F69C0809115
:102E0000FC03877F0E309CE5190709F461C08091AF
:102E1000FC038B7F0F301C4508F45AC08091FC03E3
:102E20008F7E56C00B3FBCE51B0709F458C030F538
:102E30000331FCE51F0709F468C078F401313CE573
:102E4000130709F45EC002311C4509F054CF0E94FB
:102E500082118091FC038F773BC005315CE515073B
:102E600009F45BC008F46FC08091FD0381600A3FE4
:102E70001C4509F040CF8093FD033DCF0F3FACE5EB
:102E80001A0709F446C088F48091FD038D7F0D3F39
:102E9000ECE51E0781F38091FD038E7F0E3F1C45FC
:102EA00050F38091FD038360E6CF01302DE51207DA
:102EB00009F452C0F0F160E002301D4509F01BCF6B
:102EC0008EE090E00E944D2B16CF8091FC03816034
:102ED0008093FC0310CF8091FC038460F9CF809134
:102EE000FD038260C8CF8091FC038064F1CF0E9413
:102EF00082118091FC038068EBCF8091FC038F7D71
:102F0000E7CF8091FC038F7BE3CF8091FC03837F2D
:102F1000DFCF8091FD038C7FAECF8091FC0382FBDD
:102F2000992790F921E0922790FB82F990FB83F991
:102F3000CFCF8091FD03982F909591708E7F892B34
:102F400090FB81F998CF0E9482119091FC03892F08
:102F500097FB87F98058BCCF61E0B2CF06315CE5C2
:102F6000150709F0AEC280913D038A7A91E009F419
:102F700090E09093980169E2811165E388E791E020
:102F80000E94C9050E94BF0977CD0E9482118FEF70
:102F900094E3ACE081509040A040E1F700C0000015
:102FA0000E94730581E0ADC280E0ABC2F70182816F
:102FB00000811181882369F0C8010E945910D82E20
:102FC000682FC8010E94C70AB8018D2D0E943D10CC
:102FD000A1C2C8010E949A0AD82EF6CFE12FEF7045
:102FE000DE2E107F19F0D29490EFD922BB20C9F0C9
:102FF000DD2069F080E2800F883010F001110BC0F5
:1030000080913D03D82AD0923D030E94BF09802FB2
:103010000E94C80B16C080913E03D82AD0923E036E
:10302000F4CF802F0E94960BDD2059F080E2800FB4
:10303000883010F0011128C08D2D0E94B8090E941F
:10304000BF09A92DA850BB0B149710F40E942A06A3
:10305000AA20A9F08091FB0180FD11C0F701128226
:103060008595859585950E944B0BC7010E94D314C9
:103070008091FB018595859585950E94230B60E0E5
:10308000C7010E94C210AECCD09480913E03D822DA
:10309000D0923E03D4CFF12FFF70DF2E107F10327D
:1030A00019F0D29480EFD822002391F0013009F476
:1030B00053C0BB2009F45CC0CC2091F1D701159618
:1030C0008C91159780FFA3CF8F7015968C9328C095
:1030D000BB2051F1C11004C08091FF018D2921C096
:1030E00021E0C21213C08091FD0382FDAACF80911E
:1030F000FF01D82AD81609F4A4CF0E949305909313
:10310000FE018093FD01D092FF019BCF35E0C312F9
:10311000E3CF0E94AD098091F801D812D092F80156
:103120008D2D0E948C0B8DCFC11006C00E94AD0961
:103130008D2D0E94850B85CF41E0C41208C080917F
:103140003D038D2109F47DCF0E948A0AEFCF55E01F
:10315000C51609F476CFEACFBB2029F085E08C159F
:1031600008F46FCFDDCF94E09C1508F46ACFE0CF70
:10317000CC20F1F2093309F030C1BFEFE7EEF3E004
:10318000B150E040F040E1F700C00000802F0E9405
:10319000960B57CF812F86958695837061F081308D
:1031A00009F04FCFC8019370B11002C090E080E0E9
:1031B0000E94FE0546CFC8019370B11002C090E096
:1031C00080E00E9414063DCF802FBB2039F00E9482
:1031D00061070E9475060E94750633CF0E949C0607
:1031E000FACF812F837089F5B1102BCF402F4295F4
:1031F00046954770440F440F802F8F70042E01C0F6
:10320000880F0A94EAF7202F207104FF07C02FE0EF
:1032100030E001C0220F4A95EAF7209516951695E1
:103220001370123069F050F430913004113029F0ED
:10323000822B83230E946C0B04CF832B822BFACF2B
:10324000282B809130048227F5CF8695BB2011F082
:10325000812F8170882309F4F4CE402F4295469542
:103260004770440F440F802F8F70042E01C0880FC9
:103270000A94EAF7202F207104FF07C02FE030E006
:1032800001C0220F4A95EAF72095169516951370FE
:10329000123069F050F430913104113029F0822B52
:1032A00083230E94140BCDCE832B822BFACF282BA5
:1032B000809131048227F5CF1F70BB2029F0812F28
:1032C0000E944B0B802F2DCF802F0E94850B812FCA
:1032D0000E94230BB6CE023F09F443C060F4003FC6
:1032E00011F1013FB1F1BB2009F46BC0C1108FCEC9
:1032F000812F8F7133C0033FC9F1043FA1F7809143
:10330000F801BB2009F449C00E94B8098091FB0173
:1033100087708430B1F50E94830A812F8F710E94DB
:10332000230BA12C8ECEBB2079F094E09C1508F4E1
:1033300088CE1F7181E090E001C0880F1A95EAF7EE
:10334000909131048927ADCFA5E0AC1508F479CE72
:10335000F0CF812F8F71BB2009F4BACF0E944B0BA5
:1033600070CE812F8F71BB20C9F3B2CF80E0BB201C
:1033700009F497CF1F7181E001C0880F1A95EAF711
:1033800090CFB4E0BC1568F21F71812F0E944B0BE7
:1033900063E0812F0E94560BC4CF90913D03982B80
:1033A00090933D03E4E0EC1540F40E94830A0E94F0
:1033B0008A0A64E0812F8F71EDCF81E00E942F0B8C
:1033C000B0CFCC2079F0093341F4FFEF27EE33E0A2
:1033D000F15020403040E1F7D7CE8FE39CE90197D0
:1033E000F1F7D2CE812F8F7173CF0031FFE51F0728
:1033F00009F4BFCB01312FE5120709F4C4CB6801F2
:10340000E7E5DE1A882309F4C0CBFFEFCF16D1041D
:1034100009F008F4ECCB033FFCE51F0709F4B6CC38
:1034200008F09FCC083D3CE5130709F4ABCC093DFF
:103430004CE5140709F4B6CC073D5CE5150709F027
:103440001DCC26E241EE61EE99CC61E0C7010E94FD
:10345000C2108C01D70112968C918823A9F080911B
:1034600000018F3F89F051E4C52E53E0D52EB12CD9
:10347000A12C9924939480910001082E000C990BA3
:103480008A159B050CF0BFCAF70182818111E2CA3F
:1034900000313FE5130709F472CB01314FE5140702
:1034A00009F0ADCF82E06CCB06311C4561F580910F
:1034B000980169E2811165E388E791E00E949F0528
:1034C00061CD0A35EDE51E0709F46CCD58F4011500
:1034D0002CE5120709F459CD0E3D1C45A1F40E94BC
:1034E0006914CACA0B354DE5140709F45DCD0C35D6
:1034F0001D4549F48091FD0382FB882780F991E006
:1035000089270E94B70ED70116968D919C9100973E
:1035100009F44CCD0E9425088C01D7011296BC906D
:1035200012971596CC90C2943FE0C3228091FB0184
:103530008770A1F0AB2CBB2091F0812F807F80346D
:1035400021F080E2800F883048F082E00E942F0B4B
:103550008091FB018770AA24A3948111A12C912E44
:1035600092942FE09222BBE0B91508F46ACDE92DC0
:10357000F0E0ED55F44D0C94F12ACF93DF93809158
:10358000B301807FA1F48091B001882381F0809104
:10359000F701D091B6016091AE017091AF01A09199
:1035A000B101B091B201C62FC723D81303C0DF9178
:1035B000CF91089590E0109711F0CF3F19F4019644
:1035C0008770F3CF9C0143E0220F331F4A95E1F748
:1035D000F901E954FE4F41814713F1CF4081461371
:1035E000EECF42814111EBCF438154814A1B5B0BEB
:1035F000483C510520F78091B3018F708061809322
:10360000B301F901E454FE4F80818F7080618083A3
:103610008EEA91E00E94D314DF91CF910C94900A2E
:10362000AF92BF92CF92DF92EF92FF920F931F93D0
:10363000CF93DF93CDB7DEB765970FB6F894DEBFB3
:103640000FBECDBF8C0185E0F801DE0151960190DF
:103650000D928A95E1F7F801E2806EEAA62E61E00C
:10366000B62E6091B1017091B2016115710509F436
:1036700068C19091AE014091AF01892F84238F3FA3
:1036800009F45FC120813181C380D480F090B00102
:10369000F601E61BF70BFF2009F41DC18091B30171
:1036A000582F507FE83CF10508F0D0C0511181C07F
:1036B000FE2C43132BC0921329C06091B40170916A
:1036C000B501F8014681578164177507F9F4E110D7
:1036D0001DC08F7080618093B301C5010E94D31417
:1036E0008091B301F80185838F2D65960FB6F8940C
:1036F000DEBF0FBECDBFDF91CF911F910F91FF9025
:10370000EF90DF90CF90BF90AF900895CD2829F033
:10371000822F83238F3F09F02FC180E0F82FF170B3
:10372000DF2E80FF3CC08091F7014091B6018413E9
:1037300015C0298B3A8B89899A890E948810292F74
:1037400022952F702230F8F0243020F59F70F9F088
:10375000F8019581907FD9F4D12C1FC090E0FC0135
:1037600053E0EE0FFF1F5A95E1F7E954FE4F5181E8
:10377000351306C05081251303C05281E5120FC0D6
:1037800001968770D4CF9F7011F0882329F3805E53
:10379000883010F3C8010E94D314FD2CA5CFEE2071
:1037A00009F4A2CF8091B30181608093B301F12C21
:1037B0009BCF43131BC0921319C04091B401509189
:1037C000B501F801268137814217530779F4E110DA
:1037D0000DC08583C8010E94D31488E0F801AEEAC9
:1037E000B1E001900D928A95E1F77ECFC8010E9469
:1037F0009410882339F1EE2029F18091B3018032B1
:10380000A0F02091AE013091AF013A8729871B8645
:10381000DD86CC868E878091B4019091B501988B1E
:103820008F87CE0109960E94D31488E0F801AEEA92
:10383000B1E001900D928A95E1F70E94BD1AFF2434
:10384000F39452CFC8010E94D314F9CF51110AC08A
:103850008EEA91E00E94D31488E0F50111928A95D6
:10386000E9F7A5CF431318C0921316C04091B401D5
:103870005091B501F801268137814217530761F451
:10388000E1100AC08583C8010E94D31488E0F501C5
:1038900011928A95E9F728CFC8010E9494108823D5
:1038A00089F2EE2079F28091B301803208F4BDCF25
:1038B0002091AE013091AF013A8329831B82DD82D2
:1038C000CC828E838091B4019091B50198878F83CB
:1038D000CE010196A8CFE83CF105C0F6FE2CEE2003
:1038E00009F4B0CF43131FC092131DC02091B4013F
:1038F0003091B501F801868197812817390799F42D
:103900009091B30190FD69CF907F09F466CF8091CB
:10391000B3018583903F09F45DCF982F907F905F2E
:103920008F70892B56CFC8010E94941081117DCFD2
:103930008091B30181608093B301C8010E94D314C8
:10394000D3CEEE2009F47ECFC8010E949410F82E49
:10395000882309F477CF88E0F801AEEAB1E001905E
:103960000D928A95E1F78091AE019091AF010E948E
:1039700088100E94BD1AB8CE81E08E25CFCECF939D
:10398000DF93CDB7DEB760970FB6F894DEBF0FBEFA
:10399000CDBF29873A874B875C876D877E878F8766
:1039A000988BCE0109960E94101B811112C088E0ED
:1039B000FE013996DE01119601900D928A95E1F78C
:1039C0008C859D85892B29F089859A8589238F3F50
:1039D000A9F58091F7019091B60189131CC06096FA
:1039E0000FB6F894DEBF0FBECDBFDF91CF91089523
:1039F00093E0AA0FBB1F9A95E1F7A954BE4F98E038
:103A0000FE01319601900D929A95E1F78093B601EF
:103A10000E94900ADECFB8E08B9FC0011124895428
:103A20009E4F0E94101B8823D1F28091F70190E0F5
:103A30000196877099278093F701CBCFA091B601AB
:103A4000B0E0CD010196877099272091F7012817E2
:103A5000190671F60E9482111092B6011092F701B8
:103A600088E0EEEAF1E0DF011D928A95E9F7B1CF37
:103A70000F931F93CF93DF9380919802E091970269
:103A8000CCE081111AC0DF91CF911F910F91089561
:103A9000D1E0DE0FD09397020E2F10E0EC9FF001E3
:103AA0001124E756FD4F83819481892B29F0808171
:103AB000918189238F3F51F4ED2F80919802E8176F
:103AC00038F31092980210929702DDCFC09FD00178
:103AD000C19FB00D1124A756BD4F16968D919C9194
:103AE0001797892B29F418968D919C91019651F482
:103AF00020813181428153816481758186819781E2
:103B00000E94BF1CC09FF001C19FF00D1124E75619
:103B1000FD4F14821382D0CF10923C0310923B03CE
:103B200010920D0180913A03809339030E9464063C
:103B30000C94381D3F924F925F926F927F928F92BA
:103B40009F92AF92BF92CF92DF92EF92FF920F932C
:103B50001F93CF93DF93C091390397E0892E01E043
:103B600010E02CE0322E3EEF932E442443948091BB
:103B70003A038C1315C00E94381DDF91CF911F911D
:103B80000F91FF90EF90DF90CF90BF90AF909F90FC
:103B90008F907F906F905F904F903F900C94640651
:103BA000D0E0FE01EE0FFF1FEF5CFC4F80819181A2
:103BB000889ED001899EB00D1124A750BD4F149648
:103BC0002C911497211157C050909802E9E9F2E026
:103BD00030E020E0712C5D01251508F04AC0E28438
:103BE000F384D501CD90DC906FEF7FEF612C462DF3
:103BF00050E0DA01AA0FBB1FAC0DBD1D0D90BC91AA
:103C0000A02D109731F0EA16FB0609F4BA0163946F
:103C1000EECF6F3F7607A1F1D80102C0AA0FBB1FFC
:103C20006A95E2F77A2AB80102C0660F771F6A9494
:103C3000E2F7AB014150510974161506F9F4329EB2
:103C4000F001339EF00D1124E756FD4F889ED00100
:103C5000899EB00D1124A750BD4F12962D913C9115
:103C60001397378326839082918291878087159658
:103C70004C920E9436062196C37079CF148213822B
:103C80002F5F3F4F3C96A8CF9F92AF92BF92CF92AB
:103C9000DF92EF92FF920F931F93CF93DF93CDB7F5
:103CA000DEB728970FB6F894DEBF0FBECDBF8E01EA
:103CB0000F5F1F4F88E0F80111928A95E9F798E4A9
:103CC000C92E91E0D92EF12CE12CAA24A394B12C79
:103CD000F60181916F018F3F09F449C0F894E82FF4
:103CE000E295EF70F0E021A18F70A50102C0440FB2
:103CF000551F8A95E2F7CA01922F982B91A392A1A2
:103D00008095892382A3789400C0E0E5F1E030E05B
:103D100020E0912C41914F3F09F465C0A42FA2955A
:103D2000AF70B0E090968C9190E04F7002C0959586
:103D300087954A95E2F780FD56C08A2D022E01C074
:103D4000880F0A94EAF7982A2F5F3F4F27303105F2
:103D500009F7F601319780818F3F11F00E94CB0760
:103D600050EA5A95F1F7F801EE0DFF1D90828FEFA2
:103D7000E81AF80AE8E0EE16F10409F0A9CF48E0E5
:103D800050E0B80183E092E00E941B2BDD24D39425
:103D9000009709F4D12C892B41F188E0F801A3E0C8
:103DA000B2E001900D928A95E1F781E080930202E2
:103DB0000E9493059093010280930002809100027B
:103DC000909101020E948405059798F0E3E0F2E0EB
:103DD000AAE1B2E081918D9342E0EB30F407D1F794
:103DE0001092020206C080E0AECF809102028111E3
:103DF000E5CF8091000110E006E18F3F09F045C05A
:103E000080910D0181114CC08D2D28960FB6F8942C
:103E1000DEBF0FBECDBFDF91CF911F910F91FF90FD
:103E2000EF90DF90CF90BF90AF909F900895029F4A
:103E3000F001039FF00D1124EF5BFC4FE288F38843
:103E4000E114F10419F488ECE82EF12C029FF00142
:103E5000039FF00D1124EF5BFC4F86818823A1F0B6
:103E6000858596850E948405E816F90668F4109FFA
:103E700070011124C7018F5B9C4F0E945F0AC7012C
:103E8000895B9C4F0E94150A1F5F212F30E08091B3
:103E90000001082E000C990B8217930744F6B0CF4F
:103EA00080913B0390913C03009709F4ADCF0E94B1
:103EB000840520919502309196022817390708F061
:103EC000A3CF9091390380913A03981759F00E943B
:103ED0009A1D109296021092950210923C03109235
:103EE0003B0392CF0E94381D10923C0310923B037B
:103EF0000E94640689CF2F923F924F925F926F92F9
:103F00007F928F929F92AF92BF92CF92DF92EF9269
:103F1000FF920F931F93CF93DF93CDB7DEB76997CF
:103F20000FB6F894DEBF0FBECDBF498B5A8B6B8B9B
:103F30007C8B8D8B611110923E031D861E861F8621
:103F4000188A85E0FE017196DE01199601900D92A6
:103F50008A95E1F70E9493052091F9013091FA01C9
:103F6000821B930B8838934120F08091FB0182FFE4
:103F7000FEC10E9493052091FD013091FE01821B3C
:103F8000930B8838934110F00E94AD098C859D8574
:103F9000892B31F089859A8589238F3F09F0D3C118
:103FA00029853A854B855C856D857E858F859889C9
:103FB0000E94BF1CC2C048EFC4164CE5D40629F4C9
:103FC000882379F00E948C1DEBCF69EFC6166CE553
:103FD000D60639F4882329F080910D018111F2CFA2
:103FE000C2C109EF12E0E12CB12CA12C88248394EA
:103FF000912C2EEF522E44244394F801408151819C
:1040000066246A94762C20E0822F90E0FC01EE0F6B
:10401000FF1FE40FF51F608171816115710531F09B
:10402000C616D70609F43C012F5FEECFF12CFFEF47
:104030006F167F0609F443C0F8014481F0900D012A
:104040008F2D411180E0F82FF170FF2EF8012580AF
:1040500086819B85992309F406C1FF2009F403C1D9
:10406000211013C0A40101C0440F6A94EAF7842B05
:1040700086838091950290919602C29730F462E314
:1040800070E07093960260939502C40102C0880F9D
:10409000991F2A95E2F70197F8012681281719063A
:1040A00071F480913B0390913C03009709F45EC04A
:1040B0000E948405C39708F459C0F8014482EF2890
:1040C000FFEFAF1ABF0A095F1F4F28E0A216B10425
:1040D00009F093CF8B85882309F420C1EE2009F4E1
:1040E0001DC10E94930590933C0380933B038091F4
:1040F0009802883010F591E0980F9093980298E01C
:10410000FE013996DE01119601900D929A95E1F724
:104110003CE0839FC001112487569D4F28E0FE019B
:104120003196DC0101900D922A95E1F72FEF3FEFD8
:10413000FC0131872087D386C28669960FB6F89432
:10414000DEBF0FBECDBFDF91CF911F910F91FF90CA
:10415000EF90DF90CF90BF90AF909F908F907F9027
:104160006F905F904F903F902F900895809139030A
:1041700050913A03982FF0E0E0E0851314C090933B
:1041800039030E171F0709F49ACF90E0FC01EE0FD8
:10419000FF1FEF5CFC4FB182A082019683709927CC
:1041A00080933A038CCF282E312CF101EE0FFF1FA4
:1041B000EF5CFC4F20813181F7E0F29FD001F39F4B
:1041C000B00D1124A750BD4F2D913C911197398FFF
:1041D000288F40E020E030E0E32FF0E0EE0FFF1FFB
:1041E000688D798DE60FF71F60807180611471040E
:1041F000E1F0F8010190F081E02DFF8BEE8B20E0E3
:1042000005C06616770609F44F2D2F5FE22FF0E008
:10421000EE0FFF1F6E897F89E60FF71F60817181A6
:104220006115710571F73F5FD7CF4423C9F0F801DD
:10423000231708F0FD014482E017F10721F4909361
:104240003903F42E3CCF981305C0EA17FB0711F48D
:104250009F5F937091012F5F3F4F822F83708DCFAF
:10426000F0E0E0E0F7CF90E021101FC0B40102C001
:10427000660F771F2A95E2F79B01215031098217BB
:10428000930731F4442309F447C0C5010E94360660
:10429000C40101C0880F6A94EAF7982F9095F8013D
:1042A000868189238683F22C0ACF9C01062C02C0CA
:1042B000359527950A94E2F7A90141705527BC016D
:1042C0006150710986239723892B11F5452B01F144
:1042D000F80182819381892BC1F01B821C821D828F
:1042E0001E8259825A820E9493058160582F9D83B5
:1042F0008C83F801828193818F83988729813A8109
:104300004B816D817E810E94BF1CF8011582C0CF58
:10431000F22FF1702F2EBCCF2F2CBACF90913903F2
:1043200080913A03981731F00E949A1DEE2009F40B
:1043300037CE03CF0E94381D10923C0310923B03EE
:104340000E946406F3CF61E0CE0109960E94C2107C
:104350006C018B85F7EFCF16FCE5DF0609F02BCE5D
:10436000882309F43ECE81E080930D0119CE82E0CE
:104370000E942F0BFECD0F931F93CF93DF9300D09E
:1043800000D00F92CDB7DEB78C019093920280934C
:104390009102011580E2180720F5802F0E94960BEC
:1043A000C8010E943E0C9801205E31092830310579
:1043B00010F0012B59F40F900F900F900F900F9069
:1043C000DF91CF911F910F910C94850B0F900F905F
:1043D0000F900F900F90DF91CF911F910F910C9440
:1043E000700B8EEF89838A831B820E949305816004
:1043F000782F9D838C8349815A816B818D810F90A9
:104400000F900F900F900F90DF91CF911F910F9110
:104410000C947B1F0F931F93CF93DF938C01EB01C1
:1044200067E372E08C2F0E947B0F892BA1F48FE34E
:104430009CE90197F1F700C00000DD27C15DDD4F69
:104440008881F80110821882833009F148F48130A4
:1044500059F0823081F0DF91CF911F910F91089533
:104460008430D1F08530B9F78091370290913802CD
:10447000009789F306C08091390290913A02009723
:1044800099F3DF91CF911F910F910C94BB218091F3
:104490003B0290913C02F3CF80913D0290913E020D
:1044A000009779F7209137023091380280913902D4
:1044B00090913A0221153105D9F2009711F7C901FF
:1044C000E0CF0F931F93CF93DF9300D000D00F92D4
:1044D000CDB7DEB78C0190939202809391020115C3
:1044E00080E21807E8F4C8010E943E0C9801205EA3
:1044F00031092830310518F00115110571F40E94B9
:104500008C0B802F0F900F900F900F900F90DF91DA
:10451000CF911F910F910C94C80B0E947B0BF1CF90
:104520008EEF89838A8381E08B830E94930581606B
:10453000782F9D838C8349815A816B818D810F9067
:104540000F900F900F900F90DF91CF911F910F91CF
:104550000C947B1FCF93DF93EC010E9461228FE3C9
:104560009CE90197F1F700C00000CE01DF91CF91E7
:104570000C94BB21CF92DF92EF92FF921F93CF93C7
:10458000DF93182FC090310480913004C82AC7E00F
:10459000D0E0D12CF12CE12CD701C6010C2E04C0A7
:1045A000B695A795979587950A94D2F780FF13C083
:1045B000412F60E08C2F0E94E50F8130910559F06A
:1045C0000E94AA2281E0DF91CF911F91FF90EF908E
:1045D000DF90CF9008952197F8F6412F60E080E0BA
:1045E0000E94E50FEDCF0F931F93CF93DF938C01C4
:1045F000862F67E372E00E947B0F892BC9F4C0917C
:104600003702D0913802209799F0F80180818330E9
:1046100069F4CE010E94AA22CE010E94AA22CE01F4
:10462000DF91CF911F910F910C94AA228430B8F79B
:10463000DF91CF911F910F9108950F931F93CF9307
:10464000DF938C01EB0167E372E08C2F0E947B0FFC
:10465000892B09F064C0FE01FF27D8018C91E15D30
:10466000FD4F8130D9F419969C911997992311F037
:1046700080830CC01A969C919923D1F382E08083A9
:104680008091390290913A020097D9F480913702D3
:1046900090913802009709F442C013C08230E9F5C6
:1046A00019968C91199781112DC01A968C918111B0
:1046B0000EC083E0808380913B0290913C02009782
:1046C00019F1DF91CF911F910F910C94612284E039
:1046D000808380913D0290913E02009791F78091F6
:1046E0003702909138020097F9F00E94AA22809137
:1046F000390290913A02009721F780913702909108
:104700003802DFCF85E080838091370290913802B4
:10471000009729F00E94AA22F0CF86E08083DF91E3
:10472000CF911F910F9108958091390290913A0293
:10473000B1CF1F920F920FB60F9211242F933F9378
:104740004F935F936F937F938F939F93AF93BF9399
:10475000CF93DF93EF93FF93D091E900DF708091C7
:10476000EC00C82FC17080FDC0E81092E900809174
:10477000F000877F8093F00078940E949711109248
:10478000E9008091F00088608093F000CD2BCF701D
:10479000C093E900FF91EF91DF91CF91BF91AF916D
:1047A0009F918F917F916F915F914F913F912F9149
:1047B0000F900FBE0F901F9018951F920F920FB67B
:1047C0000F9211242F933F934F935F936F937F9397
:1047D0008F939F93AF93BF93EF93FF938091E100EB
:1047E00082FF09C08091E20082FF05C08091E10054
:1047F0008B7F8093E1008091DA0080FF24C080915C
:10480000D80080FF20C08091DA008E7F8093DA008C
:104810008091D90080FF9BC080E189BD82E189BD84
:1048200009B400FEFDCF81E080932604809101044D
:10483000811109C00E94E6030E94B1048091E20048
:1048400084608093E2008091E10080FF17C0809136
:10485000E20080FF13C08091E2008E7F8093E2002F
:104860008091E20080618093E2008091D8008062B4
:104870008093D80019BC85E0809326048091E100E4
:1048800084FF29C08091E20084FF25C080E189BDBA
:1048900082E189BD89B5982F917080FFFBCF80910F
:1048A000D8008F7D8093D8008091E1008F7E809327
:1048B000E1008091E2008F7E8093E2008091E2002F
:1048C00081608093E20080912704882309F445C029
:1048D00084E0809326048091E10083FF27C08091CB
:1048E000E20083FF23C08091E100877F8093E10095
:1048F00082E080932604109227048091E1008E7F4D
:104900008093E1008091E2008E7F8093E2008091AD
:10491000E20080618093E20042E060E080E00E947B
:104920007F048091F00088608093F000FF91EF9108
:10493000BF91AF919F918F917F916F915F914F91B7
:104940003F912F910F900FBE0F901F90189519BC9B
:10495000109226041092010476CF8091E30087FD27
:1049600093E090932604B7CF78941F921FB61F92BE
:1049700011248F939F93AF93BF938091F8039091ED
:10498000F903A091FA03B091FB030196A11DB11D9B
:104990008093F8039093F903A093FA03B093FB0379
:1049A000BF91AF919F918F911F901FBE1F9018953F
:1049B0001F921FB61F9211248F939F93AF93BF93A3
:1049C0008091F703811113C08091F8039091F9034E
:1049D000A091FA03B091FB034196A11DB11D8093F4
:1049E000F8039093F903A093FA03B093FB03BF91EC
:1049F000AF919F918F911F901FBE1F901895CDB7BB
:104A0000DEB7E4970FB6F894DEBF0FBECDBF84B714
:104A1000877F84BF0FB6F894A89580916000886165
:104A200080936000109260000FBE80E890E00FB6A7
:104A3000F89480936100909361000FBE85B7806801
:104A400085BF85B7806885BF89EC97E09093770133
:104A5000809376010E948F0F0E9429110E94E60325
:104A60000E94B1048091E20084608093E200789417
:104A7000809126048823A1F01091E9001F70909185
:104A8000EC00892F817090FD80E8182B1092E900CE
:104A90008091E80083FD0E9497111F701093E90038
:104AA00082E084BD93E095BD9AEF97BD80936E0040
:104AB0000E940211811102C00E946C0F08E411E0F3
:104AC000B0E5EB2EB1E0FB2ED8018D918D018F3F2B
:104AD00011F00E94CB07E016F106B1F700E511E0F6
:104AE000A7E5EA2EA1E0FA2EF80181918F018F3F10
:104AF00011F00E94CB07E016F106B1F7E3E0F2E017
:104B0000AAE1B2E011921D9222E0EB30F207D1F758
:104B100090E080E00E94472B8A3E9E4F21F40E9445
:104B20000211811102C00E94691482E090E00E948B
:104B30003F2B80930F020E941B119093FD038093E3
:104B4000FC030E94441E4FEF86E791E041508040F5
:104B50009040E1F700C000000E94441E80911A02BC
:104B600080FF08C06FEF7FEF90E080E00E946B2B2A
:104B70000E94730583E090E00E943F2B0E946C0B23
:104B800022982A9A23982B9A83B182FB882780F94E
:104B90001B99B7C190E0892B80930D0281E091E0D1
:104BA0009093F4038093F30378E1672E712CE0E493
:104BB0003E2EF2E2AF2EF2E0BF2E8E010F5F1F4FAE
:104BC0008091260450E1E52E62E1F62E853009F44D
:104BD000CDC10E94441E882359F08FB7F8944091AC
:104BE000F8035091F9036091FA037091FB038FBFB2
:104BF000A0E1B2E0EAE1F2E0F12CE12C3E2D81915E
:104C00009D91981709F4C1C1292F282790E0DD2430
:104C1000D394422F4D2109F4B3C19BA73CA78D210A
:104C200091E009F490E09DA70E9493058160782FA0
:104C30009FA78EA74BA55CA56DA58FA50E947B1F86
:104C4000F701E05FFD4F8081D826D082E0910D0210
:104C5000EE0FEE0FE0930D0283B182FB442440F887
:104C60001B99ACC180E08429E82BE0930D02EF7022
:104C7000F0E0E95AFE4F808190910C02890F8093F9
:104C80000C0220E084304CF080910B028F5F809307
:104C90000B0280E00E94BA2221E080910C028D3F3D
:104CA0004CF480910B02815080930B0281E00E94B2
:104CB000BA2221E080910C02082E000C990B64E0CE
:104CC00070E00E94DD2A80930C02222359F08FB7F6
:104CD000F8944091F8035091F9036091FA037091B0
:104CE000FB038FBF86E0E9E2F2E0D80101900D926C
:104CF0008A95E1F7D0902B02C0902C02F0902D0203
:104D0000E0902E0210922B0210922C0210922D0293
:104D100010922E028D2D8C2909F448C08091270213
:104D2000909128020E9484059C019091230299236E
:104D300009F43EC423333105C8F19F3F19F09F5F4A
:104D400090932302DD2059F00E9441079FEF1D142C
:104D50000CF491E0899F802D112480932B02CC20AC
:104D600059F00E9441079FEF1C140CF491E0899FB9
:104D7000802D112480932C0230912B023323B1F02B
:104D800020912C02222391F045EB3403C001112421
:104D9000992309F416C190932B0245EB240390014B
:104DA0001124332309F411C130932C028F2D8E2945
:104DB00009F448C080912502909126020E94840542
:104DC0009C0190912202992309F4EDC32536310507
:104DD000C8F19F3F19F09F5F90932202FF2059F086
:104DE0000E941F079FEF1F140CF491E0899F802DF4
:104DF000112480932D02EE2059F00E941F079FEF8F
:104E00001E140CF491E0899F802D112480932E02B2
:104E100030912D023323B1F020912E02222391F004
:104E200045EB3403C0011124992309F4D2C09093B7
:104E30002D0245EB240390011124332309F4CDC046
:104E400030932E0280912B0290912C02892B90910D
:104E50002D02892B90912E02892B11F00E9475064C
:104E600086E0F801A9E2B2E001900D928A95E1F79F
:104E70000E942A0690910E02891721F00E942A06AC
:104E800080930E0280912604843009F099CE83E04D
:104E90008093E9008091E80082FF92CE8091E80043
:104EA00090E085FF0AC00E94050440E2E42EF12C48
:104EB0006801882309F49FC091E08091E8008B7716
:104EC0008093E800992309F47BCEE0909302F09060
:104ED00094028981E114F10409F49BC08E3F09F02A
:104EE000E4C08A81833020F08550833008F0DDC033
:104EF000EA81EE3008F0D9C0F0E0E155F44D0C94B1
:104F0000F12A92E048CE80912604843009F1109273
:104F1000F7030FB6F894A895609260000FBE309228
:104F2000600083B7817F846083BF83B7816083BF64
:104F30007894889583B78E7F83BF0FB6F894A89531
:104F400080916000886180936000109260000FBEC5
:104F500080912504882351F00E94441EEAE1F2E08A
:104F60008191811101C3AE16BF06D1F7809126044D
:104F7000853009F4C8CF0E9482110E942A0629CEEA
:104F80009F5FDD0C973009F044CE2FEFE21AF20A52
:104F900038E0E316F10409F031CE8FEF88AB89AB2E
:104FA0001AAA0E9493058160782F9CAB8BAB48A90D
:104FB00059A96AA98CA90E947B1F48CE82E090E083
:104FC00052CE81E080932B02E8CE81E080932C02C8
:104FD000EDCE81E080932D022CCF81E080932E02D4
:104FE00031CF8091F100D6018D936D01B1E0EB1AC4
:104FF000F10809F461CF8091E80085FDF2CF80913E
:10500000E8008B778093E8000E940504882399F3D9
:1050100053CF8D3009F4B9C0B8F4843009F49CC082
:1050200048F4823049F108F088C0813009F18FEFEF
:1050300089833BC0863009F4A5C008F498C08C3041
:10504000B1F780E18A8331C0813109F4FAC040F4BC
:105050008F3009F4C8C008F49CC00E94290E25C0F6
:10506000833109F419C108F4EEC08E3F01F740CF37
:105070001A8289E08B8319C08A81823009F48AC23E
:105080008330E1F1813099F62FB7F8946091F803FD
:105090007091F9038091FA039091FB032FBF0E9456
:1050A000F72A6B837C838D839E83809126048430D2
:1050B00009F086CDF090E9002F2D2F70F22E9091FF
:1050C000EC00892F817090FD80E8F82A82E08093BF
:1050D000E9008091E80080FF0CC050E040E060E211
:1050E00070E0C8010E9436048091E8008E778093BA
:1050F000E8008F2D8F708093E90062CD80910B01C5
:1051000090910C01892B89F280911A028B838091F6
:105110001B028C8380911C028D8380911D028E83E3
:1051200080911E028F8380911F02888780912002C8
:105130008987809121028A87B8CF8A81823009F0DD
:1051400076CF6B817C818D819E810E94F72A86E2D9
:1051500090E00E944D2BA9CF4C816B818A810E94E7
:105160000E109827892798279E838D839ECF2D81A7
:105170003E813227232732274C816B818A810E940E
:105180006A0E93CF0E94D10E90CF81E08A8389E688
:1051900071CFEC80F12CEDE1EE16F10408F085CF33
:1051A000CA80DB80DC24CD24DC244801E00EF11E23
:1051B000C60189569D4F8E149F0409F476CFF9E6F7
:1051C000CF16F1E0DF0660F40E943F2BD401149665
:1051D0008C93FFEFCF1ADF0A2FEF821A920AE8CFE3
:1051E000F4011482F6CF80910B0190910C01892B70
:1051F00009F45BCFCC80D12C3DE1C316D10408F07B
:1052000054CFEA80FB80FE24EF24FE244801CE0C1C
:10521000DF1CC70189569D4FEC14FD0409F445CFEE
:1052200049E6E41641E0F40628F4D40114966C91A2
:105230000E944D2BBFEF8B1A9B0AEFEFEE1AFE0A6E
:10524000E8CF84E0FFCEEC80F12CFDE1EF16F10415
:1052500008F02BCFCA80DB80DC24CD24DC2448017D
:10526000E00EF11EC6018796E814F90409F41DCF7B
:1052700020ECC21621E0D20660F40E943F2BD4013C
:1052800014968C93FFEFCF1ADF0A2FEF821A920A3F
:10529000E9CFF4011482F6CFCC80D12C3DE1C316C6
:1052A000D10408F002CFEA80FB80FE24EF24FE2424
:1052B00040ECE41641E0F40608F0F7CE80EC91E013
:1052C0008E199F098C159D0508F4EFCE4801CE0C70
:1052D000DF1CC7018796EC14FD0409F4E6CEA0ECB0
:1052E000EA16A1E0FA0620F4F40164810E944D2B35
:1052F000FFEF8F1A9F0A2FEFE21AF20AEACF88E037
:10530000EFE0F1E0DE01919601900D928A95E1F7D0
:1053100080E2D8011D928A95E9F784E0898388E0CC
:10532000FE01B196DE01159601900D928A95E1F786
:10533000BCCE80E5898382E08A831B821C82B5CE45
:105340008C81682F70E0762F66278B81860F972FD0
:10535000911D092E000CAA0BBB0B35E0880F991F7D
:10536000AA1FBB1F3A95D1F7AC01BD01405E5F4F4C
:105370006F4F7F4F481759076A077B0708F495CE90
:105380008035E2E09E07A105B10508F08ECE4135DB
:10539000F2E05F076105710520F040E552E060E052
:1053A00070E0481B590BBC0166587D4FC8010E9434
:1053B000122B7BCEFB80EC8040E06E2D8F2D0E9467
:1053C000E50F9827892798279A83898341E06E2DD6
:1053D0008F2D0E94E50F9827892798279C838B8320
:1053E00064CE2E813F813227232732274D816C8165
:1053F0008B810E94390E59CE4EE150E06FEF70E084
:10540000CE0103960E94282B80910B018983EA82AA
:105410004CCE81E090E0909394028093930282E3DB
:1054200090E090931902809318020E9493053DCE5C
:1054300080910B018983EA82809118021BCE40E2A1
:1054400050E06FEF70E0C8010E94282B2ECE8B81B8
:10545000823009F44DC0F0F4882309F43FC0813054
:1054600009F023CE8C819AE0D92E7E01B1E2EB0EB9
:10547000F11CF7012D2D11922A95E9F7B7010E9431
:105480007B0F8983F701DE01129601900D92DA9469
:10549000E1F70BCE833009F449C0843009F005CE22
:1054A0006C818AE0FE013596DE01919601900D92A5
:1054B0008A95E1F78FEF683068F4FAE06F9FB001EA
:1054C0001124695B7D4F4AE050E0CE0181960E9435
:1054D000712B80E089830E942911E7CDFE0133966C
:1054E0008EE1DF011D928A95E9F788E08983AACDD4
:1054F0006C818AE0FE013596DE01919601900D9255
:105500008A95E1F78FEF683068F43AE0639FB00165
:10551000112469507E4F4AE050E0CE0181960E94EE
:10552000712B80E089830E948F0FBFCD6C812AE0B0
:10553000CE018196DC01E22F1D92EA95E9F76830F1
:1055400088F4629FB0011124695B7D4F4AE050E00E
:105550000E942F2B80E089838AE0FE01B196DE0154
:105560001296E2CE8FEFF7CFE9BCF9BC09B400FE8A
:10557000FDCF8091D8008F7D8093D8008091E0008E
:1055800082608093E0008091E00081FDFCCF0E946A
:105590008211ECCC86E290E00E943F2B1B821C82A1
:1055A0001D828E8382CD2D32314008F014CC4ACC3E
:1055B0002D32314008F0C3CBF9CB97FB072E16F400
:1055C000009407D077FD09D00E94FE2A07FC05D081
:1055D0003EF4909581959F4F0895709561957F4F0A
:1055E0000895EE0FFF1F0590F491E02D09946927AF
:1055F000962769277827872778270895AA1BBB1B3A
:1056000051E107C0AA1FBB1FA617B70710F0A61BC2
:10561000B70B881F991F5A95A9F780959095BC01E3
:10562000CD010895FB01DC0102C005900D924150AF
:105630005040D8F70895FB01DC0104C08D91019022
:10564000801921F441505040C8F7881B990B0895E8
:10565000DC0101C06D9341505040E0F70895DC013A
:10566000CB01FC01F999FECF06C0F2BDE1BDF89A6D
:10567000319600B40D9241505040B8F70895F99911
:10568000FECF92BD81BDF89A992780B50895A8E113
:10569000B0E042E050E00C94312B262FF999FECF78
:1056A00092BD81BDF89A019700B4021639F01FBA75
:1056B00020BD0FB6F894FA9AF99A0FBE0895039692
:1056C000272F0E944E2B0E944D2B252F0E944E2BE0
:1056D000242F0C944E2B0196272F0E944E2B0C94B6
:1056E0004D2BDC01CB0103C02D910E947C2B41503E
:1056F0005040D0F70895262FF999FECF1FBA92BDDA
:1057000081BD20BD0FB6F894FA9AF99A0FBE0196A2
:105710000895F894FFCFAD10AD10B610B610B810C4
:10572000B610B610B610AD10AD10BD10B610B61054
:10573000BD107C12A412F712A412F712D7120F1385
:10574000F71217142414EE17EE174B184B18CA183B
:10575000E41821182118F1185C196B196B197F29AD
:105760009929A029DA29F129FC29092A182A55287A
:0A5770001F2A552855285528272A1E
:10577A00FF7005C20CA10C9D0C990C010001011FC0
:10578A00DFDA30153C3F52818283E200E900EA0009
:10579A00B500B600B700CD008301CC008A019201A2
:1057AA0094012102230224022502260227022A0248
:1057BA00B300B4006F0070009392F49190946697CE
:1057CA00C63435F5F6F73100FF0100010000FFFF8E
:1057DA000000010001FF004022BC8A016801AC0000
:0657EA009C06B506D50681
:00000001FF
