:100000000C94B9030C9400040C9400040C940004A8
:100010000C9400040C9400040C9400040C94000450
:100020000C9400040C9400040C94061D0C94C21C47
:100030000C940D230C9400040C9400040C94000404
:100040000C9400040C9400040C9400040C94000420
:100050000C9400040C94E9220C9400040C94000409
:100060000C9400040C9400040C9400040C94000400
:100070000C9400040C9400040C9400040C940004F0
:100080000C9400040C9400040C9400040C940004E0
:100090000C9400040C9400040C9400040C940004D0
:1000A0000C9400040C9400040C9400040501090253
:1000B000A10185020901A100050919012905150001
:1000C00025019505750181029501750381010501E1
:1000D000093009311581257F950275088106093897
:1000E0001581257F950175088106050C0A380215D2
:1000F00081257F950175088106C0C005010980A191
:1001000001850319012AB700150126B7009501756D
:10011000108100C0050C0901A101850419012AA064
:1001200002150126A002950175108100C005010984
:1001300006A1018505050719E029E71500250195A8
:1001400008750181020507190029EF1500250195A1
:10015000F0750181020508190129059505750191C0
:1001600002950175039101C00660FF0961A10109B3
:1001700062150026FF0095207508810209631500AD
:1001800026FF00952075089102C005010906A1010E
:10019000050719E029E71500250195087501810279
:1001A0009501750881010507190029FF150026FF33
:1001B0000095067508810005081901290595057542
:1001C000019102950175039101C00000000000003B
:1001D000000000000000000000000000000000001F
:1001E00000000000000000000000000000007E0F82
:1001F00000D4FFFFFFC700000078000000000000EF
:1002000000002A2B28000000000000000000000071
:10021000000000000029000000002C1E34202122D4
:1002200024342627252E362D3738271E1F2021223D
:10023000232425263333362E37381F0405060708B6
:10024000090A0B0C0D0E0F101112131415161718A6
:10025000191A1B1C1D2F3130232D350405060708E4
:10026000090A0B0C0D0E0F10111213141516171886
:10027000191A1B1C1D2F3130354C29001F0021007D
:100280002300250027002E004C001E002000220025
:10029000240026002D00310000002B001A0015005C
:1002A0001C000C00130030004A0014000800170066
:1002B000180012002F002A000000E10004000700CF
:1002C0000A000D000F0034004B0039001600090031
:1002D0000B000E0033002800000000001B00190076
:1002E00011003600380052004E001D0006000500C7
:1002F00010003700E500015100003A003C00E30027
:1003000000000000015150004F003B00E000E200FF
:100310002C00E600E4005100000029001F0021002D
:100320002300250027002E004C001E002000220084
:10033000240026002D00310000002B001A001500BB
:100340001C000C00130030004A00140008001700C5
:10035000180012002F002A000000E100040007002E
:100360000A000D000F0034004B0039001600090090
:100370000B000E0033002800000000001B001900D5
:1003800011003600380052004E001D000600050026
:1003900010003700E500015100003A003C00E30086
:1003A00000000000015150004F003B00E000E2005F
:1003B0002C00E600E4005100000029001F0021008D
:1003C0002300250027002E004C001E0020002200E4
:1003D000240026002D00310000002B001A0015001B
:1003E0001C000C00130030004A0014000800170025
:1003F000180012002F002A000000E100040007008E
:100400000A000D000F0034004B00390016000900EF
:100410000B000E0033002800000000001B00190034
:1004200011003600380052004E001D000600050085
:1004300010003700E500015100003A003C00E300E5
:1004400000000000015150004F003B00E000E200BE
:100450002C00E600E4005100000029001F002100EC
:100460002300250027002E004C001E002000220043
:10047000240026002D00310000002B001A0015007A
:100480001C000C00130030004A0014000800170084
:10049000180012002F002A000000E10004000700ED
:1004A0000A000D000F0034004B003900160009004F
:1004B0000B000E0033002800000000001B00190094
:1004C00011003600380052004E001D0006000500E5
:1004D00010003700E500015100003A003C00E30045
:1004E00000000000015150004F003B00E000E2001E
:1004F0002C00E600E40051000000FD377A585A0055
:100500000004E6D6B4460200210116000000742F54
:10051000E5A3E0049401845D003D8889C65436C398
:10052000174FE4DCC896461C2F5B264B7A3A5DDEFB
:10053000F2130C00ACCF6D2F9CFD294D9185F894E2
:10054000D4350646724630B8A35DD49802DCE1AEDD
:100550006B6CE6EE483A386B76453FB798F9CD7646
:100560008B1E8B6B33F6D61E78D365D648AFB8AAF0
:10057000146B0630F490A901E454163EB0C573D054
:100580004CE93D662172A4B41976A70B6D44CE5692
:10059000F772E8D81E4BBCAB32B51CEC4C77443933
:1005A000F3C0B5AC7F07981CCD06F0095D27F8694C
:1005B0007F16F8158D72628E9860E7FE230028DCA6
:1005C000715DC8BC065666099523D79699B7376AF8
:1005D0006920DF1F27A9B99C755862C58F922A4AE6
:1005E00004092F9B2B71891C614BF7D64B0045F2F8
:1005F00019F6ACC0756472874DF261F918569AD736
:100600005848743B9A442A107698C720D7D5C0DD45
:10061000E7E580DAA4C71AA987EBB183F3193AEAB0
:100620000262AEA22DA1285CC75D11EE0CE26C8CBB
:10063000A23707987C524C8489FBDC19010BC7FE5A
:10064000F0D603519B1CB7877BEF9E7D9914A77B47
:100650000BEA99C1171B1A6E8443EDFD8992BB18F2
:1006600051DB9A799454428DF29D0A35CB8967CB40
:10067000AFBDABD608D295B9C8207BBBA2070DA8E9
:10068000C43030C0633844BEAC84E70368C72894E4
:10069000A73547E08E1D1D22A27FCAC0D80029AD14
:1006A0006F176639B2D50001A00395090000FA95CD
:1006B000A618B1C467FB020000000004595A0902E1
:1006C0005B00030100A0FA0904000001030101001E
:1006D0000921110100012240000705810308000AD9
:1006E0000904010002030000000921110100012298
:1006F00022000705820320000107050303200001F3
:100700000904020001030000000921110100012277
:10071000BC000705840320000A120110010000003C
:1007200008276289670100010203011C0376006942
:100730000061006C003A006600360034006300324D
:10074000006200330063000000120363006800656C
:10075000006500730068003600350000000E03736A
:10076000006E0074006C006B00620000000403095E
:10077000040011241FBECFEFDAE0DEBFCDBF04B608
:1007800003FE27C08091870290918802A091890280
:10079000B0918A028730904BA740B04BD1F41092B1
:1007A0008702109288021092890210928A0214BE67
:1007B00084B7877F84BF0FB6F894A89580916000B6
:1007C000886180936000109260000FBEE0E0F8E363
:1007D000099511E0A0E0B1E0E0E4F8E402C0059082
:1007E0000D92A837B107D9F722E0A8E7B1E001C020
:1007F0001D92A738B207E1F70E94DD1D0C94BB23C0
:100800000C940000E8EDF0E080818E7F80831092F0
:10081000E2001092DA001092E100A0EEB0E08C91BC
:1008200081608C9380818F77808319BCA7EDB0E0C5
:100830008C918E7F8C9380818F7E80831092510269
:1008400008952091E4003091E50095E6A9012091FA
:10085000EC00822F817020FF06C08091E80080FFAD
:1008600006C080E008952091E80022FD1AC0809122
:100870007602882389F0853089F08091EB0085FD30
:100880000FC02091E4003091E50042175307F9F2C0
:100890009150E1F684E0089582E0089583E00895A0
:1008A00081E00895EF92FF920F931F93CF937C0105
:1008B0008B010E942104C82F811117C08091E8008C
:1008C00085FD0BC08091E8008E778093E8000E9440
:1008D0002104882399F3C82F08C0F70181917F0173
:1008E0008093F1000150110949F78C2FCF911F918E
:1008F0000F91FF90EF9008958091780287FF13C0C9
:100900008091E80082FF06C08091E8008B77809399
:10091000E80004C0809176028111F2CF08958091A1
:1009200076028823D9F38091E80080FFF8CF809188
:10093000E8008E77ECCF982F9093E900242F762F44
:1009400050E0891731F07091EC002091ED0050914A
:10095000F00021FD07C09F5F973071F78093E90099
:1009600081E008953091EB003E7F3093EB003091B1
:10097000ED003D7F3093ED003091EB00316030931E
:10098000EB007093EC002093ED005093F000209169
:10099000EE0027FDE0CF80E00895CF92DF92EF9246
:1009A000FF920F931F93CF93DF93C8EDD0E0888120
:1009B0008F7E8883E7EDF0E080818160808384E032
:1009C00082BF81E08093510288818E7F888302EE0E
:1009D00010E0F80110821092DA0081EEC82ED12CBE
:1009E000F601108288818F77888388818068888368
:1009F00088818F7D888319BC1092760210927702CD
:100A0000109275021092740290EEE92EF12CF7010B
:100A100080818B7F808388818160888342E060E071
:100A200080E00E949B04F60180818E7F8083F80124
:100A3000808181608083808188608083F7018081EC
:100A40008E7F8083888180618883DF91CF911F9121
:100A50000F91FF90EF90DF90CF900895FC0180916F
:100A60007E0290917F0286179707A0F061157105AD
:100A700029F49091E8009E779093E80090E061154A
:100A8000710551F4911108C08091E80082FF34C0D3
:100A900080E00895BC01F2CF809176028823C1F1F5
:100AA0008530C1F18091E80083FD30C08091E8007D
:100AB00082FDEACF8091E80080FFE1CF8091F300D2
:100AC0002091F200382F6115710519F02830310599
:100AD00058F091E02830310509F090E02091E800CD
:100AE0002E772093E800CBCF81918093F100615065
:100AF00071092F5F3F4FE7CF80917602882341F045
:100B0000853041F08091E80083FFBECF81E00895F9
:100B100082E0089583E0089580E008958091530273
:100B2000089587E797E7909301088093000888E18C
:100B30009AE00FB6F894A895809360000FBE90934A
:100B40006000FFCF9C014FB7F89480914B029091C9
:100B50004C02A0914D02B0914E024FBF821B930BED
:100B600008952FB7F89480914B0290914C02A09178
:100B70004D02B0914E022FBF089580911302811152
:100B80001092130208958091120290911102892B04
:100B900090911002892B80937A01909113029923EE
:100BA000A1F0892B80937A0180911201882341F171
:100BB0008091220287FF24C08EE1ECE7F1E090E013
:100BC000815000F591110E94BD05E0912402F09141
:100BD00025023097E1F080911201882359F080912D
:100BE000220287FF07C080917A0180937B0185E014
:100BF00080937A010280F381E02D8AE791E00994E5
:100C000086E0DBCF21912223D9F29F5FD9CF0895CF
:100C1000909112019923D1F09091220297FF16C072
:100C2000E82FE695E695E695EE31E0F4F0E0E6583B
:100C3000FE4F282F277081E090E001C0880F2A9591
:100C4000EAF780959281892382830895ECE7F1E0A9
:100C50009191891303C0DF0111971C9291E0E23852
:100C6000F907B1F70895909112019923C1F090917D
:100C7000220297FF14C0E82FE695E695E695EE313F
:100C8000F8F4F0E0E658FE4F877021E030E001C054
:100C9000220F8A95EAF78281822B82830895ACE73E
:100CA000B1E0EFEF90E02D91821751F0EF3F19F492
:100CB000211101C0E92F9F5F9630A9F7EF3F09F49A
:100CC00008950E2E000CFF0BE658FE4FE6CF990F4D
:100CD000990F990F890F982F97708695869586950D
:100CE00025E0829FF0011124E352FE4F50E040E0E6
:100CF00080E0219130E0092E02C0369527950A94B4
:100D0000E2F721703327042E01C0220F0A94EAF77C
:100D1000822B4F5F5F4F4530510559F70895990F6A
:100D2000990F990F890F982F977041E001C0440FD8
:100D30009A95EAF786958695869595E0899FF001C4
:100D40001124E352FE4F30E020E070E05191DF01CA
:100D50001197CB01022E02C0969587950A94E2F76F
:100D6000817081958527842385278C932F5F3F4F42
:100D70002530310559F708958091DC019091AB0140
:100D8000981301C008958F5F8770FACF882341F0D0
:100D90008095909112028923809312020C94C305CE
:100DA0000895882339F090911202982B90931202A3
:100DB0000C94C305089520919F013091A00128173C
:100DC000390771F09093A00180939F01E091240274
:100DD000F0912502309721F00084F185E02D0994EF
:100DE000089520919D0130919E012817390771F0D7
:100DF00090939E0180939D01E0912402F091250241
:100E0000309721F00680F781E02D09940895E09154
:100E10002402F0912502309721F00190F081E02D1D
:100E2000099480E008950E94B1059C0190912F02E1
:100E300080913002982B21F030932C0220932B02CA
:100E40009091310280913202982B21F03093290247
:100E500020932802E0912402F0912502309749F076
:100E600082E080932D020480F581E02D8DE292E0F6
:100E70000994089590E080E00E94F10690E080E0FF
:100E80000E94DB0610921102109210020E94C3050C
:100E900086E0EDE2F2E0DF011D928A95E9F710921B
:100EA0002A02109227021092A4010C941307609357
:100EB00083027093840280938502909386020C943F
:100EC0003A070F931F93609183027091840280917F
:100ED0008502909186028B019C01067011272227C2
:100EE0003327063011052105310529F468601F916B
:100EF0000F910C945707677FFACF0F931F9341E030
:100F000050E060E070E004C0440F551F661F771F7B
:100F10008A95D2F7CB01BA0160957095809590952E
:100F20000091830210918402209185023091860203
:100F300060237123822393231F910F910C945707F1
:100F400090910F028095892380930F02282F27709C
:100F500071F4282F082E000C330B9217130639F06A
:100F60008595859585950E947D0710920F020895BD
:100F70000F931F9341E050E060E070E004C0440F25
:100F8000551F661F771F8A95D2F780918302909133
:100F90008402A0918502B09186028A019B01082BF0
:100FA000192B2A2B3B2BC901B8011F910F910C94CF
:100FB0005707609314027093150280931602909362
:100FC00017020C943A0790912F02803F59F48091B8
:100FD000300287FF0DC01092300291110BC01092A9
:100FE0002A0208C0813F81F48091300218169CF3D8
:100FF000992381F08091310290913202892B09F07E
:1010000064C0109227020895823F49F497FFF0CF01
:1010100010922F02809130028111ECCFE0CF833FFC
:1010200019F41916ACF3E4CF20913102893F29F469
:101030001216F4F610923102DBCF8A3F19F427FF23
:10104000D7CFF8CF209132028B3F29F427FFD0CFA2
:1010500010923202CDCF8C3F19F41216CCF3C8CFC8
:10106000843F31F480912E028E7F80932E02C0CF78
:10107000853F21F480912E028D7FF7CF863F21F4AA
:1010800080912E028B7FF1CF873F21F480912E0239
:10109000877FEBCF883F21F480912E028F7EE5CFB2
:1010A0008D3F31F48091A4018E7F8093A401A0CF65
:1010B0008E3F21F48091A4018D7FF7CF8F3F09F0FF
:1010C00097CF8091A4018B7FF0CF0895882309F4F6
:1010D00059C0823871F40E94070781FF53C089E329
:1010E0000E9433060E94C30589E30E9408060C94FF
:1010F000C305833859F40E94070780FF43C083E586
:101100000E9433060E94C30583E5EFCF843859F46B
:101110000E94070782FF36C087E40E9433060E94C0
:10112000C30587E4E2CF9CEF980F913AF0F290E28A
:10113000980F983088F4877021E030E0A90102C050
:10114000440F551F8A95E2F7CA01809590911202CB
:10115000892380931202CBCF9BE5980F933020F424
:1011600090E080E00C94F10698E5980F973120F418
:1011700090E080E00C94DB06803F20F00E94E307C3
:101180000C94130708958091A40180FF0CC0609116
:10119000010170E075956795759567956115710505
:1011A00049F1862F089581FF06C06091010170E02A
:1011B00075956795F3CF6091010182FD0BC0909109
:1011C00027029923A1F060910001809101019617F7
:1011D00038F0682F70E06038710500F38FE70895EC
:1011E000899FC001112470E00E943423F4CF61E094
:1011F00070E0D7CF81E008958091A40180FF12C0F4
:101200006091030185E0689FB00111247595679591
:101210007595679560387105A8F561157105A1F19F
:10122000862F089581FF09C06091030185E0689FC2
:10123000B001112475956795EDCF6091030182FD92
:101240000AC080912A028823D1F090910201609116
:101250000301891728F085E0689FB0011124DACFD7
:10126000869FB001112485E0869F9001879F300DF5
:101270001124692F70E0C9010E943423CBCF65E0AF
:1012800070E0CECF8FE7089581E00895803F31F47C
:101290000E94FC088195809330020895813F19F4E3
:1012A0000E94FC08F8CF823F31F40E94FC0881952F
:1012B00080932F020895833F19F40E94FC08F8CF11
:1012C000893F29F40E94C3088093310208958A3F20
:1012D00021F40E94C3088195F7CF8B3F31F40E941F
:1012E000C30881958093320208958C3F19F40E94BF
:1012F000C308F8CF843F31F480912E02816080933F
:101300002E020895853F21F480912E028260F7CF4E
:10131000863F21F480912E028460F1CF873F21F433
:1013200080912E028860EBCF883F21F480912E02BD
:101330008061E5CF8D3F31F48091A401816080937D
:10134000A40108958E3F21F48091A4018260F7CF1B
:101350008F3FB9F78091A4018460F1CF833011F100
:1013600028F4813049F0823091F00895853081F180
:1013700020F18630C1F1089580910401681720F4AE
:10138000861B8093040108951092040108958091B2
:101390000501681720F4861B8093050108951092BB
:1013A0000501089580910301681720F4861B80933E
:1013B00003010895109203010895809102016817B6
:1013C00020F4861B80930201089510920201089573
:1013D00080910101681720F4861B80930101089514
:1013E00010920101089580910001681720F4861B76
:1013F000809300010895109200010895833081F1D7
:1014000028F4813059F08230D1F00895853009F404
:1014100049C0B8F1863009F456C00895809104019E
:10142000482F460F5527551F4F3F510524F4680F8D
:101430006093040108958FEF8093040108958091D3
:101440000501482F460F5527551F4F3F510524F4DE
:10145000680F6093050108958FEF8093050108954B
:1014600080910301482F460F5527551F4F3F5105C7
:1014700024F4680F6093030108958FEF80930301B4
:10148000089580910201482F460F5527551F4F3F61
:10149000510524F4680F6093020108958FEF809343
:1014A0000201089580910101482F460F5527551FCD
:1014B0004F3F510524F4680F6093010108958FEFA9
:1014C00080930101089580910001482F460F552710
:1014D000551F4F3F510524F4680F60930001089594
:1014E0008FEF809300010895F894E82FE295EF7054
:1014F000F0E031A1282F2F7081E090E001C0880F2B
:101500002A95EAF7982F9095932391A392A1892B7E
:1015100082A3789408959091220292FF06C0282F0A
:1015200028712830F9F4877F846093FF06C0282F44
:1015300028712831F1F4877E84612091230220FFF5
:1015400006C0382F38713830D9F4877F816021FF89
:1015500006C0282F28712831D1F4877E816194FD3F
:10156000877E0895282F24712430F9F68B7F8860B8
:10157000DCCF282F2471243101F78B7E8861DDCFE9
:10158000382F3171313019F78E7F8860E0CF282FE6
:101590002171213121F78E7E8861E1CFCF9384E0E4
:1015A00090E00E947923C82F81E290E00E94792385
:1015B000982F8C2FCF9108950F931F93CF93DF9384
:1015C000843030F56A3020F5483010F520E1629F14
:1015D0008001112450E0440F551F040F151F30EAFD
:1015E000839F000D111D1124C80186960E94792346
:1015F000C82FD0E0DC2FCC27C80187960E94792322
:101600009E01282BC901DF91CF911F910F91089561
:1016100090E080E0F8CF462F20914F0230915002A9
:10162000232B49F4843038F47A3028F4683018F4E5
:10163000672F0C94DC0A90E080E00895CF93DF934D
:101640000E940B0BEC0182389105A9F1D8F581338A
:10165000910509F496C048F58932910509F48AC0CC
:101660008A9709F495C0C11521E5D20708F0BCC0DE
:10167000C11530E5D30708F014C1C83ED10508F004
:101680009CC0C03ED10560F5C83AD10508F087C0BE
:10169000C53AD10508F0FDC0C130D10509F1209748
:1016A000F9F0C430D105E0F440C08533910509F468
:1016B0005AC0C997C1F680912202837089F0C0EEAA
:1016C000D0E00EC0833E910599F170F4803E910503
:1016D00001F1823E910539F68091220282FD21C0FE
:1016E000CE01DF91CF910895863E910561F1873E4D
:1016F000910571F1843E910509F0B5CF80912302E7
:1017000081FFEECF80912202C7EED0E084FD0DC0B4
:10171000E7CF8091220280FD12C19091230290FFB9
:10172000DFCFC3EED0E084FFDBCFD0E0C0E0D8CF86
:101730008091220282FD06C19091230290FDBFCFCD
:1017400084FFCECFF2CF8091220283FDDDCFC8CFC0
:101750008091220283FDF9C09091230291FFF0CF86
:10176000C4EED0E0BDCF8091220285FFB9CFC9E29F
:10177000D0E0B6CF8091220285FFB2CFC5E3D0E0A2
:10178000AFCF8091220286FFABCFCAE2D0E0A8CFD4
:101790008091220286FFA4CFC1E3D0E0A1CFCF3B4E
:1017A000D10518F6C85AD0E0CC0FDD1FC85DDE4F5A
:1017B0000990D881C02DD46493CFC11540E2D407DD
:1017C00058F4C11581E0D80708F08ACFC03FD10591
:1017D00008F4ABCFD06584CFC11590E4D90708F4E5
:1017E000A4CFDF70D06A7CCFC11525E5D20700F504
:1017F000C11534E5D30708F08AC0C11543E5D40705
:1018000008F071C0C11582E5D80708F467C0CE01A1
:101810008370992721E030E002C0220F331F8A95A0
:10182000E2F7C695C69580E2C89FE001112452C038
:10183000C11599E5D907A8F4C11528E5D20708F024
:101840006BC0C11536E5D30708F06FCF8C2F0E940F
:101850008B0AC82FD0E0DC2FCC27CC27DF71D062D9
:101860003FCFC1154AE5D40708F45BC0CE019056BE
:101870008115904208F059CF8D2F8F710E948B0AED
:1018800090E0982F882788279F719C012C2BE901D5
:10189000E6CFC55AD0E0CB5DDE4FC881D0E0D06442
:1018A0001FCFCE01E4E096958795EA95E1F7837026
:1018B0002C2F26952695237040E2249F9001112419
:1018C000382B8C2F8370C1E0D0E002C0CC0FDD1F1D
:1018D0008A95E2F7C22BD32BDC6802CFDC2FCC2712
:1018E000C16FD06AFDCECE018370992721E030E030
:1018F00002C0220F331F8A95E2F7C695C69590E283
:10190000C99FE0011124C22BD32BDA68E9CEDC2F6A
:10191000CC27C46FD06AE4CEDC2FCC27C06FD06A4E
:10192000DFCE8C2F8F700E948B0A34E0D695C7953E
:101930003A95E1F7CF709C2FEC01D069D1CEC9E385
:10194000D0E0CECEC2EED0E0CBCEC6EED0E0C8CE58
:10195000BF92CF92DF92EF92FF920F931F93CF939C
:10196000DF938C01C0908302D0908402E0908502C6
:10197000F09086028091140290911502A0911602B7
:10198000B0911702C82AD92AEA2AFB2ACFE1D0E06F
:10199000BC2ED701C6010C2E04C0B695A79597950D
:1019A00087950A94D2F780FD0EC0219788F7B12C55
:1019B0008B2DDF91CF911F910F91FF90EF90DF90D2
:1019C000CF90BF900895B8018C2F0E941E0B0197F5
:1019D00061F3EECFCF93DF93EC010E94A80CBE0120
:1019E000DF91CF910C941E0B0E94EA0C292F2F70CF
:1019F00092959F7092509E3078F4E92FF0E0E35476
:101A0000FC4D0C944823803F19F020F4883E20F4CC
:101A100081E00895843FE1F380E00895883EC0F3BB
:101A2000813FD1F7F5CF822F8695869586950895CB
:101A3000CF93DF93C6EAD2E060E0CE010E94872315
:101A40002196C11584E0D807B9F7DF91CF910895A9
:101A50000F931F93CF93DF938901843048F56A3049
:101A600038F5483028F521153C4531F42091060120
:101A700030910701232BE1F090E1699FE0011124EF
:101A800050E0440F551FC40FD51F90EA899FC00D29
:101A9000D11D1124612FCE0186960E948723602FCD
:101AA000CE018796DF91CF911F910F910C948723E0
:101AB000DF91CF911F910F9108958F929F92AF92D6
:101AC000BF92CF92DF92EF92FF921F93CF93DF935B
:101AD000809006019090070181E090E090930701CB
:101AE000809306018AE7C82E82E0D82ED0E07601E6
:101AF000C0E014C0F50125913491412F6C2F8D2F3A
:101B00000E94280D82E0A80EB11C1F5F183091F7CB
:101B100080E1E80EF11CCF5FCA3019F0570110E0E8
:101B2000E9CFDF5F80EAC80ED11CD43001F7909274
:101B3000070180920601DF91CF911F91FF90EF90F6
:101B4000DF90CF90BF90AF909F908F9008951092AC
:101B5000120280911201ECE7F1E0882359F08091A4
:101B6000220287FF07C08EE1DF011D928A95E9F707
:101B70000C943A0786E0F8CF1F93CF93DF93CDB74D
:101B8000DEB7AA970FB6F894DEBF0FBECDBF88E7C9
:101B900092E02091F100DC012D93CD01B2E080387C
:101BA0009B07B9F780917902833009F471C0B8F4CA
:101BB000813009F448C0823009F4B2C08091E80055
:101BC00083FF3AC180917802909179029A3008F0AF
:101BD00033C1E92FF0E0E553FC4D0C9448238A30E3
:101BE00009F48DC08B3009F470C0893039F78091C9
:101BF0007802813219F780917C0290917D020097E2
:101C000011F00297D9F68091E800877F8093E80071
:101C10008091E80082FF37C09091F3008091F2003C
:101C2000029729F48091F1008B7F813021F480911B
:101C3000F100809353028091E8008B778093E80055
:101C40000E947C04BBCF80917802813A09F0B6CF24
:101C50008091E800877F8093E80080917C029091DA
:101C60007D02892B61F460E284E592E070E00E94DD
:101C70002E058091E8008B778093E8009FCF60E08D
:101C800090E080E0F3CF809176028111C1CF96CFB2
:101C900080917802813A09F091CF80917C029091F5
:101CA0007D02892B09F08ACF8091E800877F80939D
:101CB000E8008091E80080FFFCCF809112018093C2
:101CC000F1008091E8008E77B9CF8091780281325F
:101CD00009F074CF80917C0290917D02892B09F0EC
:101CE0006DCF8091E800877F8093E8000E947C049C
:101CF00080917A02809312010E94A70D5FCF80919C
:101D00007802813209F05ACF8091E800877F809372
:101D1000E8000E947C0480917B02809352024ECFA7
:101D200080917802813A09F049CF8091E800877F5D
:101D30008093E8008091E80080FFFCCF8091520200
:101D4000BECF803899F0823809F076C080917C024D
:101D50008F70873008F070C08093E9008091EB00AD
:101D600085FB882780F91092E90006C080917402F3
:101D700090917502911182609091E800977F909305
:101D8000E8008093F1001092F1008091E8008E77D6
:101D9000C0C1882309F4ADC1823009F04DC08091E3
:101DA0007A028111B1C180917C028F702FEF280FD0
:101DB000263008F041C08093E9002091EB0020FF1D
:101DC000A3C1933031F48091EB0080628093EB00EB
:101DD0009BC19091EB0090619093EB0021E030E08B
:101DE00001C0220F8A95EAF72093EA001092EA00D8
:101DF0008091EB008860EACF81111EC010917A02B9
:101E00001F778091E3008078812B8093E30080919D
:101E1000E800877F8093E8000E947C048091E800BE
:101E200080FFFCCF8091E30080688093E30082E034
:101E3000111183E0809376028091E80083FF0AC04D
:101E40008091E800877F8093E8008091EB008062BA
:101E50008093EB00AA960FB6F894DEBF0FBECDBFFD
:101E6000DF91CF911F9108958058823028F72091FB
:101E70007A0230917B022C3DE3E03E07A1F583E03E
:101E80008A838AE289834FB7F894DE01139620E0B3
:101E90003EE051E2E32FF0E050935700E49120FF41
:101EA00003C0E295EF703F5FEF708E2F90E0EA3055
:101EB000C0F0C7968D939D932F5F243159F74FBF84
:101EC0008091E800877F8093E8006AE270E0CE01AD
:101ED00001960E942E058091E8008B778093E800A0
:101EE000ABCFC096E7CF80917C0290917D02432FCB
:101EF00055274330510509F44AC078F54130510562
:101F000009F485C08BE590E0EEEBF6E04230510538
:101F100009F092CF2091E800277F2093E8002091DC
:101F20007E0230917F028217930708F49C0140E003
:101F30002115310509F070C041116EC08091E80093
:101F400082FDC9CF80917602882329F2853019F26B
:101F50008091E80083FFF2CFBECF4132510509F4F2
:101F600047C04232510509F067CF8330910508F030
:101F700063CFFC01EE0FFF1FE559FE4F0190F0818A
:101F8000E02D88599E4FDC018C9190E01DC03327D5
:101F900021303105E9F02115310579F02230310584
:101FA000F9F02330310509F047CFEBE2F7E0E49197
:101FB0008E2F90E0EBE2F7E007C0EDE6F7E0E4916A
:101FC0008E2F90E0EDE6F7E0009709F435CFA2CF31
:101FD000EDE5F7E0E4918E2F90E0EDE5F7E0F4CF4A
:101FE000E9E4F7E0E4918E2F90E0E9E4F7E0ECCF4C
:101FF0008330910508F020CF880F991FFC01EF581E
:10200000FE4F0190F081E02D89E090E083CF82E1E6
:1020100090E0E9E1F7E07ECF80917602882309F431
:102020005ACF853009F457CF8091E80083FD53CF14
:102030008091E80082FD82CF8091E80080FF78CF18
:102040009091F3008091F2002115310519F088304C
:10205000910550F041E0089709F040E08091E800D8
:102060008E778093E80064CF44914093F1003196DD
:10207000215031090196E8CF803809F0DDCE8091FA
:10208000E800877F8093E800809177028093F100D9
:102090007CCE8111D1CE10917A02123008F0CCCED4
:1020A0008091E800877F8093E800109377020E9478
:1020B0007C04112311F084E005C08091E30087FDCA
:1020C000FACF81E08093760242E061EC81E00E94E9
:1020D0009B0442E261EC84E00E949B0442E261ECDA
:1020E00082E00E949B0442E260EC83E00E949B0439
:1020F000A3CE80917A02813009F09ECE81E09330A8
:1021000009F080E0809375021092E9008091E80068
:10211000877F8093E8000E947C048ECE0F931F93EC
:1021200041E050E060E070E08A019B0104C0000FD4
:10213000111F221F331F8A95D2F7C901B8010E94CF
:10214000D9071F910F910C94A70DCF93DF9300D067
:102150000F92CDB7DEB790917602943011F5898356
:102160007B836A839093E9008FEF9091E800815020
:1021700095FD06C095ED9A95F1F700008111F5CF18
:102180008091E80085FF0DC050E040E063E070E022
:10219000CE0101960E9452048091E8008E778093D0
:1021A000E8000F900F900F90DF91CF910895BC0140
:1021B00084E00C94A510BC0183E00C94A5109C0154
:1021C00084E08093E9009FEF8091E800915085FDC5
:1021D00006C085ED8A95F1F700009111F5CF809149
:1021E000E80085FF0CC050E040E066E070E0C90107
:1021F0000E9452048091E8008E778093E800089551
:10220000CF93DF93EC01809112018823B1F180918B
:10221000220287FF32C060E284E08093E9008FEF02
:102220009091E800815095FD06C095ED9A95F1F7E3
:1022300000008111F5CF8091E80085FF1BC08091DF
:10224000120170E050E040E0811104C050E040E035
:1022500068E070E0CE010E9452048091E8008E7721
:102260008093E80080E2FE01A4E5B2E001900D92C7
:102270008A95E1F7DF91CF91089568E081E0CDCFB5
:102280009F92AF92BF92CF92DF92EF92FF920F9305
:102290001F93CF93DF9386E5C82E81E0D82E08E107
:1022A00012E0E801A12CB12CEE24E394F12CD6012C
:1022B0008D916D01F894E82FE295EF70F0E021A187
:1022C0008F70A70102C0440F551F8A95E2F7CA011B
:1022D000922F982B91A392A18095892382A3789421
:1022E00000C0E0E6F1E030E020E0912C4191A42F25
:1022F000A295AF70B0E090968C9190E04F7002C0C4
:10230000959587954A95E2F780FD43C08E2D022E64
:1023100001C0880F0A94EAF7982A2F5F3F4F2830B0
:10232000310521F7F601319780810E94740A59E046
:10233000A51619F080EA8A95F1F78881981659F167
:10234000988281E0B82AA3942196AAE0AA12AFCF7E
:10235000BB2019F181E080939C010E94B10590930C
:102360009B0180939A0180919A0190919B010E9418
:10237000A2050697B0F0E1E4F2E082E292E0D80133
:102380002D918D0121938A179B07C9F710929C010B
:1023900008C080E0C1CF80E0D5CF80919C01811141
:1023A000E2CF8B2DDF91CF911F910F91FF90EF9096
:1023B000DF90CF90BF90AF909F9008956BEE7EEF2F
:1023C00090E080E00E94A52360E082E090E00E941F
:1023D000872360E083E090E00E948723109214023C
:1023E00010921502109216021092170260E084E01B
:1023F00090E00E94872360E081E290E00E948723C2
:1024000060E085E090E00E94872360E086E090E055
:102410000E9487236FEF87E090E00E94872340E0CF
:1024200050E0BA0188E090E00E94992360E08DE0DE
:1024300090E00E94872340E050E0BA0188E190E0FC
:102440000E94992360E087E190E00E94872340E0AA
:1024500050E0BA018CE190E00E94992360E080E2B4
:1024600090E00E94872340E050E0BA0188E190E0CC
:102470000E94992340E050E0BA018FE090E00E9472
:10248000992340E050E0BA0183E190E00C94992355
:10249000EBEFE80FEF3308F06AC0F0E0EB52FC4DD1
:1024A0000C9448230E94DE1181E00895809134024B
:1024B000807F8093340281E08093A301089580910E
:1024C000060190910701892B79F30E94A70D2FEF48
:1024D00084E39CE0215080409040E1F700C0000080
:1024E0000E94910590913402892F8E7F90FF816028
:1024F0008093340280FDD8CF817F80933402D4CF83
:1025000090913402892F8D7F91FF826080933402F5
:1025100081FFCACF809134028160EFCF9091340265
:10252000892F8B7F92FF84608093340282FDF2CFEB
:10253000BBCF90913402892F877F93FF886080936F
:10254000340283FDE7CFB0CF0E94A70D9091220205
:10255000892F97FB87F9805880932202A5CF80E0CE
:102560000E948E10A1CF8953FBCF8D51F9CF80E00F
:102570000895CF93C82F882309F4A9C08238C1F4E5
:102580000E94070781FDA3C089E30E9433060E94D1
:10259000C3052FEF81EE94E0215080409040E1F799
:1025A00000C0000089E30E940806CF910C94C30587
:1025B0008338A1F40E94070780FD89C083E50E944B
:1025C00033060E94C3052FEF81EE94E02150804036
:1025D0009040E1F700C0000083E5E5CF8438A1F426
:1025E0000E94070782FD73C087E40E9433060E94A1
:1025F000C3052FEF81EE94E0215080409040E1F739
:1026000000C0000087E4CFCF8CEF8C0F813A08F038
:10261000B1C08091A3018130B9F1882359F1823092
:1026200009F44DC01092A30180911201882309F48E
:1026300092C08091220287FF8EC0EC2FE695E6952E
:10264000E695F0E0E658FE4F828190E04C2F47700F
:1026500021E030E002C0220F331F4A95E2F78223C7
:102660009323892B09F482C08C2F0E9408060E94B4
:10267000C3057CC0809112028232B1F68C2F0E9479
:102680004812811124C0D0CF809112028232B1F35E
:10269000C43171F038F4CB3049F0C03161F080E0E2
:1026A0008170EFCFC93221F0C833C9F781E0F8CF8C
:1026B0001092A301F4CF82E08093A301F7CFC93237
:1026C00021F190F4C43109F120F4C73089F1CF91A0
:1026D0000895CE51C630D8F7EC2FF0E0E55EFE4FFE
:1026E00080818093A201F3CFCE3401F140F46AE0FF
:1026F000CB3469F78091A201CF910C94FE09C135CA
:1027000079F061E0C235B1F3E2CF8091A201882374
:1027100019F01092A201DBCF81E08093A301D7CF03
:1027200061E08091A201CF910C94AE096AE0F9CFEB
:102730008EE18093040182E3809305018AE0809317
:10274000030184E18093020188E08093010188E223
:1027500080930001BCCFECE7F1E082E891E02191A9
:10276000C21709F481CF8E179F07C9F78C2F0E94DB
:1027700033061BCF80E28C0F883068F4C77021E0ED
:1027800030E001C0220FCA95EAF780911202822B35
:10279000809312020ACFEBE5EC0FE33040F4F0E057
:1027A000EB5DFE4F808190E0CF910C94F106E8E55F
:1027B000EC0FE73150F4F0E0EE0FFF1FE85DFE4F45
:1027C00080819181CF910C94DB06C03F08F47FCFCC
:1027D0008C2F0E944609CF910C9413071F93CF931F
:1027E000DF93182FD0E0C0E0893311F4C0E5D0E0CA
:1027F000812F0E94B912209731F4812FDF91CF9160
:102800001F910C9466088FE99FE00197F1F700C0D3
:1028100000002197F0CF0F931F93CF93DF93C62F24
:10282000D42F022FFC0182818823A1F060938202C1
:102830000E94B1059093810280938002C77081E06D
:1028400001C0880FCA95EAF7DF91CF911F910F91D0
:102850000C94D10680918202681335C08091800269
:10286000909181020E94A205883C910560F510E2DA
:102870001D0FCD17B9F080E28C0F883040F4C7707F
:1028800081E001C0880FCA95EAF70E94C606183099
:1028900048F481E09D2F977001C0880F9A95EAF760
:1028A0000E94D106802F0E94EE13183098F4D77042
:1028B00081E001C0880FDA95EAF7DF91CF911F918F
:1028C0000F910C94C606C77081E001C0880FCA95AD
:1028D000EAF7F3CFDF91CF911F910F910895AF9257
:1028E000BF92CF92DF92EF92FF920F931F93CF93FD
:1028F000DF93EC018AE0A82E2881222309F48CC002
:102900002130C9F599818A81913021F422960E9463
:10291000EE1305C0923029F422960E94B912219636
:10292000EBCF933021F422960E946608F8CF9430C2
:1029300011F02196F4CF229630E020E0AE014F5FF7
:102940005F4F8053990B8A30910550F02150310927
:1029500030F38FE99FE00197F1F700C00000F6CF58
:10296000A29EB001A39E700D11249C01260F371F5B
:102970008981EA01E3CFE22FF0E0E650FE4FB49008
:10298000822F86958695869590E0FC01E651FE4F54
:10299000E4902770F12C022E02C0F594E7940A947B
:1029A000E2F731E0E322FF24FC01E652FE4FC4903F
:1029B000D12C022E02C0D594C7940A94E2F731E0DC
:1029C000C322DD24FC01E653FE4F049110E002C057
:1029D000159507952A95E2F701701127E114F10486
:1029E00019F081EE0E94B912C114D10419F086EEDB
:1029F0000E94B9128B2D0E94EE13CD2819F086EE9D
:102A00000E946608EF2819F081EE0E946608012BEB
:102A100009F485CF8CE27BCFDF91CF911F910F918D
:102A2000FF90EF90DF90CF90BF90AF9008954F92BE
:102A30005F926F927F928F929F92AF92BF92CF924E
:102A4000DF92EF92FF920F931F93CF93DF9300D00B
:102A500000D00F92CDB7DEB77C01FC018381948159
:102A6000892B31F08081918189238F3F09F0B4C493
:102A70000F900F900F900F900F90DF91CF911F91BB
:102A80000F91FF90EF90DF90CF90BF90AF909F900D
:102A90008F907F906F905F904F9008950E94A80C48
:102AA000182F682F89819A810E948F0669817A8107
:102AB000812F0E940B0B8C01F7018281882309F47E
:102AC00080C4980122513F452031310508F052C49D
:102AD0008FEF93E00E947923025146EAC42E42E030
:102AE000D42E8823D9F080910F02877009F4C0CFCB
:102AF000F7018281882309F4BBCF82E00E94A007FE
:102B0000B7CFC114F4E0DF0671F3C6010E94792348
:102B1000811101C001502FEFC21AD20A0111F1CF69
:102B200019821A821B821C820FEF46013FEF831A23
:102B3000930AC6010E94792389831A82882399F215
:102B4000813009F047C0560142E0A40EB11CC40117
:102B50000E947923982E8A83882329F2C5010E9436
:102B60007923182F8FEF890D833068F4560153E0D5
:102B7000A50EB11C1B83112321F0CE0101960E94EA
:102B80006F146501D2CF84E09812FBCF560194E018
:102B9000A90EB11CC60103960E947923112309F4E2
:102BA000A2CF882309F49FCF8150990B089F9001F1
:102BB000099F300D1124E12FE150FF0BCF01820F4F
:102BC000931F0197F0F2EFE9FFE03197F1F700C0B2
:102BD0000000F7CFCE0101960E946F145401D1CFAF
:102BE00081E00E94B8070E9461077DCF81E00E94CA
:102BF0007D07F9CF82E0F5CF053FECE51E0709F42C
:102C00005EC008F458C0063F2CE5120709F45BC00B
:102C1000882309F4F2C31092820202303CE51307C4
:102C200008F431C106314CE5140738F098012A5FE9
:102C30003C452930310508F026C10E94CE0A909308
:102C400023028093220200315CE5150709F4EAC0F3
:102C500008F078C008309CE5190709F4D9C008F0DD
:102C600047C00430FCE51F0709F4C6C098F50230E0
:102C70003CE5130709F4BAC0809122028260033058
:102C80001C4509F4B6C0609122021091230284E031
:102C900090E00E948723612F81E290E00E948723C9
:102CA0000E94A70D20CF27E245EE65EE86C326E2FF
:102CB00041EE60EE82C327E245EE64EE7EC326E27B
:102CC00041EE62EE7AC327E245EE66EE76C328E275
:102CD00041E0EBCF80912202806106305CE5150770
:102CE00009F487C008F48CC080912202806281C000
:102CF000809122028D7F0C309CE5190709F479C080
:102D000070F4809122028C600A30FCE51F0709F400
:102D100070C008F481C0809122028E7F6AC08091C9
:102D20002202877F0E303CE5130709F462C08091D0
:102D300022028B7F0F301C4508F45BC08091220279
:102D40008F7E57C00B3F5CE5150709F45DC030F579
:102D500003319CE5190709F46DC078F40131FCE5F5
:102D60001F0709F463C002311C4509F08CCF0E9493
:102D7000A70D809122028F773CC005313CE51307F7
:102D800009F460C008F474C08091230281600A3F96
:102D90001C4509F078CF8093230275CF0F3F8CE557
:102DA000180709F44BC088F4809123028D7F0D3FF2
:102DB000ECE51E0781F3809123028E7F0E3F1C45B8
:102DC00050F3809123028360E6CF01302DE5120796
:102DD00009F457C008F442C060E002301D4509F014
:102DE00052CF8EE090E00E9487234DCF8091220247
:102DF00081608093220247CF809122028460F9CFC4
:102E0000809122028860F5CF809123028260C3CF37
:102E1000809122028064EDCF0E94A70D8091220252
:102E20008068E7CF809122028F7DE3CF80912202DC
:102E30008F7BDFCF80912202837FDBCF80912302C3
:102E40008C7FA9CF8091220282FB992790F921E003
:102E5000922790FB82F990FB83F9CBCF80912302DC
:102E6000982F909591708E7F892B90FB81F993CF4D
:102E70000E94A70D90912202892F97FB87F9805815
:102E8000B8CF61E0AECF06315CE5150709F0C0C2EE
:102E9000809112028A7A91E009F490E09093A10166
:102EA000811106C089E20E9433060E94C3051BCE31
:102EB00085E3F9CF85E3A9C20E94A70D8FEF94E3C4
:102EC000ECE081509040E040E1F700C000000E943B
:102ED00091050E94DE1107CEC8010E946706D82E18
:102EE000AEC2212F2F70A22E107F19F0A29490EF66
:102EF000A922DD20C9F0AA2069F080E2800F883085
:102F000010F081100BC080911202A82AA092120228
:102F10000E94C305802F0E94B91218C0809111022F
:102F2000A82AA0921102F4CF802F0E946608AA203E
:102F300069F0A094005E083010F0811028C08091E4
:102F40001202A822A09212020E94C3052B2D285023
:102F5000330B2430310510F40E940707CC2009F40C
:102F600087CD80910F0280FD83CDF7011282859578
:102F7000859585950E94B807C7010E941715809115
:102F80000F028595859585950E947D0771CD80916D
:102F90001102A822A0921102D7CF312F3F70932E99
:102FA000107F103219F0929480EF9822882071F0EF
:102FB00041E0841661F1DD20B9F1AA2071F1F70139
:102FC000858180FFA7CF8F70858327C0DD2091F09A
:102FD00090911302892D892BA11003C00E94D10664
:102FE000B5CF51E0A512FACF981709F4AFCF80936F
:102FF0001302ACCFA11006C00E94BD05892D0E940E
:10300000C606A4CF81E0A81609F4A0CFF5CFDD2035
:1030100031F095E09A1508F499CF892DDFCFE4E0DF
:10302000EA1508F493CFEACFAA2041F3F9E38F120F
:1030300009C02FEF37EE43E0215030404040E1F728
:1030400000C00000802F0E94660880CF812F8695E7
:103050008695837061F0813009F078CFC801937054
:10306000D11002C090E080E00E94DB066FCFC80163
:103070009370D11002C090E080E00E94F10666CF0C
:10308000802FDD2039F00E9446090E9413070E941C
:1030900013075CCF0E94E307FACF812F837009F0FA
:1030A00066C0D11053CF802F829586958770880F88
:1030B000880F602F6F70462E512C712C612C082EBA
:1030C00004C0440C551C661C771C0A94D2F740E0DF
:1030D00050E0BA0104FF0FC04FE050E060E070E044
:1030E00004C0440F551F661F771F8A95D2F740957D
:1030F000509560957095812F869586958370823066
:1031000019F1D8F4009114021091150220911602C1
:1031100030911702813069F04429552966297729B1
:10312000CB01BA0160237123822393230E94D90724
:103130000DCF402A512A622A732ACB01BA01642991
:10314000752986299729F2CF442955296629772997
:10315000009114021091150220911602309117026D
:10316000CB01BA016027712782279327DFCF86958D
:10317000DD2011F0812F8170882309F4E7CE802FA4
:10318000829586958770880F880F602F6F70462E06
:10319000512C712C612C082E04C0440C551C661C4B
:1031A000771C0A94D2F740E050E0BA0104FF0FC048
:1031B0004FE050E060E070E004C0440F551F661F10
:1031C000771F8A95D2F74095509560957095812F1D
:1031D000869586958370823019F1D8F40091830228
:1031E000109184022091850230918602813069F02D
:1031F0004429552966297729CB01BA016023712317
:10320000822393230E945707A1CE402A512A622A83
:10321000732ACB01BA016429752986299729F2CF2F
:103220004429552966297729009183021091840247
:103230002091850230918602CB01BA016027712767
:1032400082279327DFCF1F70DD2029F0812F0E9476
:10325000B807802FC3CE802F0E94C606812F0E9400
:103260007D0774CE802F52EF851609F450C0581593
:1032700078F090EF891619F1E1EF8E1609F43FC04E
:10328000DD2009F467C0A11045CE812F8F713CC0AD
:10329000F3EF8F1609F440C024EF8212F1CFDD2046
:1032A00009F44DC01F71812F0E94B80758E0159F87
:1032B000C0011124836080930F02812F25C0DD207F
:1032C000C9F034E03A1508F441CE1F7161E070E0B6
:1032D00080E090E004C0660F771F881F991F1A9541
:1032E000D2F70091830210918402209185023091DF
:1032F0008602A4CF45E04A1508F428CEE6CF812FF8
:103300008F71DD2009F4ABCF0E94B8071FCE812F4B
:103310008F71DD20C9F3A3CF60E070E0CB01DD2029
:1033200009F470CF1F7161E070E080E090E004C0AC
:10333000660F771F881F991F1A95D2F763CF81E018
:103340000E94A00781E08A1508F000CE82E00E946A
:10335000A007FCCDAA2059F0893309F073CE9FEF66
:10336000E7EEF3E09150E040F040E1F769CE812FC5
:103370008F7175CF0031FFE51F0709F431CC0131A2
:103380002FE5120709F436CC033F2CE5120709F4A8
:103390008ECC08F031CC083D4CE5140709F483CC01
:1033A000093D5CE5150709F492CC073D9CE519073A
:1033B00009F02ECC26E241EE61EEC7010E940B140B
:1033C00092CB00313FE5130709F410CC01314FE5F2
:1033D0001407D1F682E00BCC85E0DE011196019056
:1033E0000D928A95E1F7F701228189819A81211155
:1033F00055CB0E946706182F59CB06311C4589F41E
:103400008091A101811156CD89E20E9408064DCD1F
:1034100001152CE5120709F44FCD0E3D1C4509F4AA
:1034200058CDF70100811181882309F455CDC801D9
:103430000E94A80CD82E682FC8010E948F06B801E0
:103440008D2D0E941E0B8C01882EF701D280A58045
:10345000A2943FE0A32280910F028770A1F0CD2CAF
:10346000DD2091F0812F807F803421F080E2800F79
:10347000883048F082E00E94A00780910F02877098
:10348000CC24C3948111C12CB12EB2942FE0B2226E
:10349000FBE0FB1508F45ACDEB2DF0E0EC5EFB4DA4
:1034A0000C9448231F93CF93DF938091AA01807FD0
:1034B000A9F48091A701882389F08091DC01D09143
:1034C000AB016091A5017091A601A091A801B091F6
:1034D000A901C62FC72316E0D81304C0DF91CF91EE
:1034E0001F91089590E0109711F0CF3F19F40196C5
:1034F0008770F2CF189F9001199F300D1124F901A8
:10350000E455FE4F41814713F2CF40814613EFCF80
:1035100042814111ECCF438154814A1B5B0B483CF3
:10352000510528F78091AA018F7080618093AA01CC
:10353000F901EF54FE4F80818F708061808385EAAE
:1035400091E00E941715DF91CF911F910C94BC065A
:10355000AF92BF92CF92DF92EF92FF920F931F93A1
:10356000CF93DF93CDB7DEB761970FB6F894DEBF88
:103570000FBECDBF8C0185E0F801DE011D960190E4
:103580000D928A95E1F7F80180819181E28025EA28
:10359000A22E21E0B22E6091A8017091A9016115BF
:1035A000710509F43EC13091A5014091A601232F78
:1035B00024232F3F09F435C1C380D480F090A701A4
:1035C000F601E61BF70BFF2009F4FBC02091AA01CE
:1035D000522F507FE83CF10508F0BBC0511178C074
:1035E000FE2C491321C038131FC0E1101DC02F70DD
:1035F00020612093AA01C5010E9417158091AA019C
:10360000F80185838F2D61960FB6F894DEBF0FBE4B
:10361000CDBFDF91CF911F910F91FF90EF90DF9081
:10362000CF90BF90AF900895CD2829F0282F29235F
:103630002F3F09F014C120E0F22FF170DF2E20FFA0
:103640003DC02091DC014091AB0156E0241315C030
:103650008D879E878D859E850E94EA0C292F229555
:103660002F702230F8F0243020F59F70F9F0F80127
:103670009581907FD9F4D12C1FC030E0529FF0018A
:10368000539FF00D1124E455FE4F6181961306C03F
:103690006081861303C06281E61210C02F5F3F4F26
:1036A0002770D4CF9F7011F0882329F3805E883073
:1036B00010F3C8010E941715FD2CA4CFEE2009F4C9
:1036C000A1CF8091AA0181608093AA01F12C9ACFA9
:1036D000491312C0381310C0E1100EC0F801258341
:1036E000C8010E94171586E0F801A5EAB1E0019033
:1036F0000D928A95E1F786CF8D879E878D859E8571
:103700000E94F40C882309F1EE20F9F08091AA01BF
:10371000803270F02091A5013091A60138872F8367
:103720001986DB86CA868C87CE0107960E941715FC
:1037300086E0F801A5EAB1E001900D928A95E1F7E3
:103740000E94521AFF24F3945DCFC8010E941715FE
:10375000F9CF51110AC085EA91E00E94171586E061
:10376000F50111928A95E9F7B1CF49130FC03813CB
:103770000DC0E1100BC0F8012583C8010E94171588
:1037800086E0F50111928A95E9F73CCF8D879E87F7
:103790008D859E850E94F40C8823B9F2EE20A9F253
:1037A0008091AA01803220F22091A5013091A601DA
:1037B0003A8329831B82DD82CC828E83CE010196DF
:1037C000B5CFE83CF105E0F6FE2CEE2009F4BDCFC4
:1037D000491316C0381314C08091AA0180FD83CF0D
:1037E000982F907F09F47FCFF8018583903F09F4EB
:1037F00077CF982F907F905F8F70892B858370CFC4
:103800008D879E878D859E850E94F40C811190CFB7
:103810008091AA0181608093AA01C8010E941715B6
:10382000F1CEEE2009F491CF8D879E878D859E8500
:103830000E94F40CF82E882309F487CF86E0F80163
:10384000A5EAB1E001900D928A95E1F78091A5017A
:103850009091A6010E94EA0C0E94521AD3CE21E058
:103860002E25EACE1F93CF93DF93CDB7DEB76797B0
:103870000FB6F894DEBF0FBECDBF342F4B8B252F74
:103880005C8B6D8B7E8B8F8B8E899F8961111092E3
:1038900011021A8A198A3D872E876F87998B888B28
:1038A00086E0FE013D96DE01179601900D928A9505
:1038B000E1F7CE0107960E94A81A882389F016E046
:1038C0008091DC019091AB01891349C067960FB6D6
:1038D000F894DEBF0FBECDBFDF91CF911F91089549
:1038E00086E0FE013796DE01119601900D928A95D1
:1038F000E1F78A859B85892B11F38F819885892330
:103900008F3FE9F22091AB0130E0C9010196877049
:1039100099274091DC014817190671F40E94A70D00
:103920001092AB011092DC0186E0E5EAF1E0DF01E4
:103930001D928A95E9F7C3CF96E0929FD001939F9D
:10394000B00D1124A455BE4FFE01319601900D9289
:103950009A95E1F78093AB010E94BC06B0CF819F9E
:10396000C001112484559E4F0E94A81A882309F48F
:10397000ADCF8091DC0190E001968770992780930C
:10398000DC019ECF1F920F920FB60F9211242F933E
:103990003F934F935F936F937F938F939F93AF93D7
:1039A000BF93CF93DF93EF93FF93D091E900DF7044
:1039B0008091EC00C82FC17080FDC0E81092E90032
:1039C0008091F000877F8093F00078940E94BC0D76
:1039D0001092E9008091F00088608093F000CD2B78
:1039E000CF70C093E900FF91EF91DF91CF91BF912C
:1039F000AF919F918F917F916F915F914F913F9187
:103A00002F910F900FBE0F901F9018951F920F923D
:103A10000FB60F9211242F933F934F935F936F93A1
:103A20007F938F939F93AF93BF93EF93FF93809177
:103A3000E10082FF09C08091E20082FF05C0809111
:103A4000E1008B7F8093E1008091DA0080FF24C049
:103A50008091D80080FF20C08091DA008E7F809313
:103A6000DA008091D90080FF9BC080E189BD82E1AE
:103A700089BD09B400FEFDCF81E08093760280917C
:103A80005102811109C00E9402040E94CD0480915C
:103A9000E20084608093E2008091E10080FF17C023
:103AA0008091E20080FF13C08091E2008E7F8093BE
:103AB000E2008091E20080618093E2008091D80072
:103AC00080628093D80019BC85E080937602809153
:103AD000E10084FF29C08091E20084FF25C080E1DD
:103AE00089BD82E189BD89B5982F917080FFFBCF98
:103AF0008091D8008F7D8093D8008091E1008F7EE7
:103B00008093E1008091E2008F7E8093E2008091BB
:103B1000E20081608093E20080917702882309F4BB
:103B200045C084E0809376028091E10083FF27C046
:103B30008091E20083FF23C08091E100877F809322
:103B4000E10082E080937602109277028091E1009A
:103B50008E7F8093E1008091E2008E7F8093E2006F
:103B60008091E20080618093E20042E060E080E0CA
:103B70000E949B048091F00088608093F000FF9188
:103B8000EF91BF91AF919F918F917F916F915F91D5
:103B90004F913F912F910F900FBE0F901F9018954E
:103BA00019BC109276021092510276CF8091E300F8
:103BB00087FD93E090937602B7CFCDB7DEB7E2975B
:103BC0000FB6F894DEBF0FBECDBF84B7877F84BF2A
:103BD0000FB6F894A895809160008861809360008A
:103BE000109260000FBE80E890E00FB6F8948093CA
:103BF0006100909361000FBE85B7806885BF85B76F
:103C0000806885BF8CE895E0909379018093780176
:103C10000E9402040E94CD048091E200846080939F
:103C2000E2007894809176028823A1F01091E90057
:103C30001F709091EC00892F817090FD80E8182B07
:103C40001092E9008091E80083FD0E94BC0D1F7076
:103C50001093E90082E084BD93E095BD9AEF97BD93
:103C600080936E0006E511E0F0E6EF2EF1E0FF2E06
:103C7000F80181918F010E94740AE016F106C1F7E4
:103C800000E611E0E8E6EE2EE1E0FE2EF80181917B
:103C90008F010E94740AE016F106C1F7E8E1F2E034
:103CA000A1E4B2E011921D9222E0E232F207D1F7D4
:103CB0000E9440118FE39CE90197F1F700C00000DA
:103CC0000E9440118091410280FF17C06FEF82E295
:103CD00090E00E9487236FEF83E290E00E948723A9
:103CE0006FEF84E290E00E9487236FEF7FEF90E018
:103CF00080E00E94A5230E94910590E080E00E9450
:103D000081238B3E9E4F11F00E94DE1182E290E0F3
:103D10000E947923823F09F035C483E290E00E943B
:103D20007923813209F02EC484E290E00E94792345
:103D30008C3109F027C490E080E00E9481238B3E03
:103D40009E4F11F00E94DE1182E090E00E947923E4
:103D5000809334020E94CE0A909323028093220221
:103D600083E090E00E947923682F70E090E080E08B
:103D70000E94D90788E091E0909325028093240265
:103D800008E110E060E4E62E81E492E07AE0F72EAC
:103D9000F80E8091760240E1C42E52E1D52E853096
:103DA00009F44DC10E944011882359F08FB7F8944F
:103DB00040914B0250914C0260914D0270914E0225
:103DC0008FBFE5E3F2E0A1E4B2E0D12CC12C3C2DA1
:103DD0008D919191981709F441C1292F282790E0DE
:103DE000BB24B394422F4B2109F433C199A73AA7BE
:103DF0008B2191E009F490E09BA70E94B1058160BE
:103E0000782F9DA78CA749A55AA56BA58DA50E94C3
:103E1000321CF601EB5CFD4F8081B826B08286E053
:103E2000EDE2F2E0DE01119601900D928A95E1F744
:103E3000A0902F02B0903002D0903102C090320298
:103E400010922F0210923002109231021092320220
:103E50008A2D8B2991F080912B0290912C020E9447
:103E6000A205AC0190912A02992309F410C1809116
:103E700005018417150608F418C18D2D8C2909F445
:103E800048C080912802909129020E94A2059C01BD
:103E900090912702992309F497C325363105C8F17B
:103EA0009F3F19F09F5F90932702DD2059F00E94F9
:103EB000C3089FEF1D140CF491E0899F802D1124FD
:103EC00080933102CC2059F00E94C3089FEF1C144C
:103ED0000CF491E0899F802D11248093320230915F
:103EE00031023323B1F020913202222391F045EBCD
:103EF0003403C0011124992309F416C190933102AF
:103F000045EB240390011124332309F411C13093AC
:103F1000320280912F0290913002892B90913102D0
:103F2000892B90913202892B11F00E94130786E0B1
:103F3000FE013196ADE2B2E001900D928A95E1F773
:103F40000E94070790913302891721F00E9407070A
:103F50008093330280917602843009F01ACF83E097
:103F60008093E9008091E80082FF13CF8091E80000
:103F700090E085FF06C00E942104882309F4DCC07C
:103F800091E08091E8008B778093E800992309F411
:103F900000CFC0904F02D09050028981C114D1044B
:103FA00009F4E8C08E3F09F032C18A81833020F0E5
:103FB0008550833008F02BC18A81823009F47BC29E
:103FC00008F04BC2882309F45EC2813009F01FC19A
:103FD00084EC89831B821C821AC180917602843012
:103FE00009F1109226020FB6F894A895009360008C
:103FF0000FBEE092600083B7817F846083BF83B788
:10400000816083BF7894889583B78E7F83BF0FB616
:10401000F894A89580916000886180936000109268
:1040200060000FBE80917502882349F00E94401104
:10403000E1E4F2E0819181118FC2FE12FBCF809109
:104040007602853009F4C9CF0E94A70D0E940707A8
:10405000A9CE9F5FBB0C983009F0C4CE2FEFC21AD7
:10406000D20A4AE0C416D10409F0B1CE8FEF8EA770
:104070008FA718AA0E94B1058160782F9AAB89ABEF
:104080004EA55FA568A98AA90E94321CC8CE2091BE
:1040900004018AE0289F900111242417350708F0B5
:1040A000ECCE9F5F90932A0202C09F3FD1F7AA20D7
:1040B00059F00E94FC089FEF1A140CF491E0899FBC
:1040C000802D112480932F02BB2059F00E94FC0800
:1040D0009FEF1B140CF491E0899F802D1124809395
:1040E000300230912F02332309F4C7CE20913002E1
:1040F000222309F4C2CE45EB3403C00111249923D5
:1041000059F090932F0245EB24039001112433239F
:1041100039F030933002B1CE81E080932F02F3CF9B
:1041200081E080933002A9CE81E080933102E8CE15
:1041300081E080933202EDCE30E2C32ED12CCE014D
:1041400001965C018091E80085FD0AC08091E8003D
:104150008B778093E8000E942104882399F310CF85
:104160008091F100F50181935F01F1E0CF1AD10850
:1041700049F706CF8D3009F4ADC0B8F4843009F4A6
:1041800090C048F4823049F108F07CC0813009F1D8
:104190008FEF89833CC0863009F499C008F48CC045
:1041A0008C30B1F780E18A8332C0813109F4F2C0EA
:1041B00040F48F3009F4BEC008F490C00E94180D7E
:1041C00026C0833109F413C108F4E6C08E3F01F71D
:1041D000F3CE1A8289E08B831AC08A81823009F477
:1041E000EAC1833009F43DC0813091F62FB7F894CD
:1041F00060914B0270914C0280914D0290914E0261
:104200002FBF0E944E236B837C838D839E8380917E
:104210007602843009F0BDCDD090E9002D2D2F70AD
:10422000D22E9091EC00892F817090FD80E8D82AE1
:1042300082E08093E9008091E80080FF0DC050E0AB
:1042400040E060E270E0CE0101960E94520480914D
:10425000E8008E778093E8008D2D8F708093E900C1
:1042600098CD8091060190910701892B81F2DE01A2
:104270001396E1E4F2E081918D9322E0EB34F207B2
:10428000D1F7C5CF8A81823009F082CF6B817C81E2
:104290008D819E810E944E2385E290E00E948723BB
:1042A000B6CF4C816B818A810E94DC0A98278927CE
:1042B00098279E838D83ABCF2D813E813227232784
:1042C00032274C816B818A810E94280DA0CF0E94E9
:1042D0005D0D9DCF81E08A838AE57DCF8C81882E1C
:1042E000912C4DE18416910408F091CFCA80DB80B7
:1042F000DC24CD24DC24CE0101965C01880E991EBD
:10430000C6018A559D4F8A149B0409F480CFFAE5B3
:10431000CF16F1E0DF0658F40E947923F50184837B
:10432000FFEFCF1ADF0A2FEFA21AB20AE9CFF50189
:104330001482F6CF8091060190910701892B09F430
:1043400066CF8C81882E912C4DE18416910408F063
:104350005ECFCA80DB80DC24CD24DC24CE01019634
:104360005C018C0C9D1CC6018A559D4F8C149D04CC
:1043700009F44DCFEAE5CE16E1E0DE0620F4F501C2
:1043800064810E948723FFEFAF1ABF0A2FEFC21A82
:10439000D20AE9CF84E007CF8C81882E912C4DE1A1
:1043A0008416910408F033CFCA80DB80DC24CD244E
:1043B000DC24CE0101965C01880E991EC60186960A
:1043C000A814B90409F423CFF0E8CF16F2E0DF0611
:1043D00058F40E947923F5018483FFEFCF1ADF0A96
:1043E0002FEFA21AB20AEACFF5011482F6CF8C8120
:1043F000882E912C4DE18416910408F008CFCA80D4
:10440000DB80DC24CD24DC2480E8C81682E0D806DA
:1044100008F0FDCE20E832E02C193D0928153905B9
:1044200008F4F5CEFE0131965F018C0C9D1CC6018F
:1044300086968C149D0409F4EACEF0E8CF16F2E0DB
:10444000DF0620F4F50164810E948723FFEFAF1A95
:10445000BF0A2FEFC21AD20AEACF863009F466C02B
:10446000873009F472C0853009F0D1CE4EE150E0BA
:104470006FEF70E0CE0103960E94722380910601D7
:104480008983CA82C4CE88E0E3E1F1E0DE0191963F
:1044900001900D928A95E1F783E089831A821B824D
:1044A0001C8288E0FE01B196DE01159601900D9206
:1044B0008A95E1F7ACCE8C81682F70E0762F662765
:1044C0008B81860F972F911D092E000CAA0BBB0B19
:1044D00025E0880F991FAA1FBB1F2A95D1F7AC01B1
:1044E000BD01405E5F4F6F4F7F4F481759076A0706
:1044F0007B0708F48CCE843CE1E09E07A105B10562
:1045000008F085CE453CF1E05F076105710520F0BC
:1045100044EC51E060E070E0481B590BBC01665070
:104520007B4FCE0101960E94692371CE81E090E01D
:104530009093500280934F0282E390E09093400268
:1045400080933F020E94B10562CE8091060189836B
:10455000CA8280913F023FCEC9BCD9BC09B400FEDB
:10456000FDCF8091D8008F7D8093D8008091E000AE
:1045700082608093E0008091E00081FDFCCF0E948A
:10458000A70D5DCD60E085E290E00E9487230E9448
:104590005D0D0E94180D62EF82E290E00E94872379
:1045A00061E283E290E00E9487236CE184E290E084
:1045B0000E948723C0CB85E290E00E9479231B8272
:1045C0001C821D828E8323CE2D32314008F06ACCAE
:1045D000A0CC78941F921FB61F9211248F939F93A3
:1045E000AF93BF9380914B0290914C02A0914D02EA
:1045F000B0914E020196A11DB11D80934B02909384
:104600004C02A0934D02B0934E02BF91AF919F9187
:104610008F911F901FBE1F9018951F921FB61F925B
:1046200011248F939F93AF93BF93809126028111A2
:1046300013C080914B0290914C02A0914D02B09119
:104640004E024196A11DB11D80934B0290934C02E6
:10465000A0934D02B0934E02BF91AF919F918F9165
:104660001F901FBE1F90189597FB072E16F40094FD
:1046700007D077FD09D00E94552307FC05D03EF4F2
:10468000909581959F4F0895709561957F4F0895FE
:10469000EE0FFF1F0590F491E02D099469279627EE
:1046A00069277827872778270895AA1BBB1B51E124
:1046B00007C0AA1FBB1FA617B70710F0A61BB70B92
:1046C000881F991F5A95A9F780959095BC01CD0137
:1046D0000895FB01DC0102C005900D92415050404D
:1046E000D8F70895DC0101C06D9341505040E0F7C8
:1046F0000895F999FECF92BD81BDF89A992780B5AA
:104700000895A8E1B0E042E050E00C94AD23262FDC
:10471000F999FECF92BD81BDF89A019700B40216B7
:1047200039F01FBA20BD0FB6F894FA9AF99A0FBE65
:1047300008950396272F0E9488230E948723252F00
:104740000E948823242F0C9488230196272F0E94EF
:1047500088230C948723DC01CB01FC01F999FECF5F
:1047600006C0F2BDE1BDF89A319600B40D924150F9
:104770005040B8F70895F894FFCF030D030D0C0DCA
:104780000C0D0E0D0C0D0C0D0C0D030D030D130D6A
:104790000C0D0C0D130DA10EC90E1C0FC90E1C0F14
:1047A000FC0E340F1C0F3C1049105F12561272128F
:1047B0005412B712B7125412B712B7128E12B712A0
:1047C0009912A412B712B712B712B7125412B71235
:1047D000B7125412B7128012B712B712B512B5122F
:1047E000B512B512B512B512B512B512B512AF1297
:1047F000B7125F125212B712B712B712B712B7122E
:10480000B712B712B712B712B712AF12B712B71268
:104810005412B712B312B312B312B312B312B312CB
:10482000B312B312B312AF1271177117CD17CD17A0
:1048300026184018A617A6174D1823193219321931
:104840002808140A1E3201008E050011DF10DB104B
:10485000D71001CCA29585DA9032470102030405F6
:104860000607080900818283E200E900EA00B5003A
:10487000B600B700CD008301CC008A0192019401FB
:104880002102230224022502260227022A02B30063
:10489000B4006F00700093929190946697C634357F
:1048A000F4F5F6F7313332364022BC8A016801ACA8
:0848B00000D006E9060907002B
:00000001FF
