:100000000C9485040C94CC040C94CC040C94CC0477
:100010000C94CC040C94CC040C94CC040C94CC0420
:100020000C94CC040C94CC040C9426210C94E22067
:100030000C9475280C94CC040C94CC040C94CC0433
:100040000C94CC040C94CC040C94CC040C94CC04F0
:100050000C94CC040C9451280C94CC040C94CC0437
:100060000C94CC040C94CC040C94CC040C94CC04D0
:100070000C94CC040C94CC040C94CC040C94CC04C0
:100080000C94CC040C94CC040C94CC040C94CC04B0
:100090000C94CC040C94CC040C94CC040C94CC04A0
:1000A0000C94CC040C94CC040C94CC0405010902EF
:1000B000A10185020901A100050919012905150001
:1000C00025019505750181029501750381010501E1
:1000D000093009311581257F950275088106093897
:1000E0001581257F950175088106050C0A380215D2
:1000F00081257F950175088106C0C005010980A191
:1001000001850319012AB700150126B7009501756D
:10011000108100C0050C0901A101850419012AA064
:1001200002150126A002950175108100C005010984
:1001300006A1018505050719E029E71500250195A8
:1001400008750181020507190029EF1500250195A1
:10015000F0750181020508190129059505750191C0
:1001600002950175039101C00660FF0961A10109B3
:1001700062150026FF0095207508810209631500AD
:1001800026FF00952075089102C005010906A1010E
:10019000050719E029E71500250195087501810279
:1001A0009501750881010507190029FF150026FF33
:1001B0000095067508810005081901290595057542
:1001C000019102950175039101C00000000000003B
:1001D000000000000000000000000000000000001F
:1001E00000000000000000000000000000007E0F82
:1001F00000D4FFFFFFC700000078000000000000EF
:1002000000002A2B28000000000000000000000071
:10021000000000000029000000002C1E34202122D4
:1002200024342627252E362D3738271E1F2021223D
:10023000232425263333362E37381F0405060708B6
:10024000090A0B0C0D0E0F101112131415161718A6
:10025000191A1B1C1D2F3130232D350405060708E4
:10026000090A0B0C0D0E0F10111213141516171886
:10027000191A1B1C1D2F3130354C000101010101E1
:10028000010101010202020202020202020303034F
:10029000030303030304040404040404050505051F
:1002A00005060606060607070707070808080809DF
:1002B0000909090A0A0A0B0B0B0C0C0C0D0D0D0E8B
:1002C0000E0E0F0F0F101011111112121313141420
:1002D000151516161717181819191A1A1B1B1C1D95
:1002E0001D1E1E1F202021222223242425262627EE
:1002F0002829292A2B2C2D2D2E2F30313232333420
:1003000035363738393A3B3C3D3E3F404142434425
:1003100045464748494A4C4D4E4F50515354555607
:1003200058595A5B5D5E5F616264656668696B6CB3
:100330006D6F7072737577787A7B7D7E808283852E
:1003400087888A8C8E8F91939596989A9C9EA0A26E
:10035000A3A5A7A9ABADAFB1B3B5B7BABCBEC0C278
:10036000C4C6C9CBCDCFD1D4D6D8DBDDDFE2E4E73C
:10037000E9EBEEF0F3F5F8FAFDFFFFAA7F55402216
:1003800023252628292A2C2D2F3032333536383A8A
:100390003B3D3E4042434547494A4C4E50515355E0
:1003A00057595A5C5E6062646668696B6D6F717301
:1003B0007577797B7D7F81838587898A8C8E909202
:1003C0009496989A9C9E9FA1A3A5A7A8AAACAEAF0D
:1003D000B1B3B4B6B8B9BBBCBEBFC1C2C3C5C6C752
:1003E000C9CACBCCCDCED0D1D2D2D3D4D5D6D7D703
:1003F000D8D9D9DADADBDBDBDCDCDCDCDCDDDDDD4B
:10040000DDDCDCDCDCDCDBDBDBDADAD9D9D8D7D746
:10041000D6D5D4D3D2D2D1D0CECDCCCBCAC9C7C6F3
:10042000C5C3C2C1BFBEBCBBB9B8B6B4B3B1AFAE31
:10043000ACAAA8A7A5A3A19F9E9C9A9896949290D7
:100440008E8C8A89878583817F7D7B7977757371AF
:100450006F6D6B6968666462605E5C5A595755538C
:1004600051504E4C4A4947454342403E3D3B3A3845
:1004700036353332302F2D2C2A29282625232229C0
:10048000001A0015001C000C0013002A00140008BC
:10049000001700180012004C0000002B0016000985
:1004A000000B000E0033000000040007000A000DDE
:1004B000000F0028000000E1001B001900050010DB
:1004C00000370001511D0006006A0011003600527D
:1004D000000000E00000002C002C00384250004FCB
:1004E00000E300E200E3002C0000005100000035B2
:1004F000001F0021002300250027002A001E0020E5
:10050000002200240026004C0000003900010001F8
:100510000001002D00340000000100010001000175
:10052000002E0031000000E100690001000500100C
:100530000030000151680001006A0011002F0052D4
:10054000000000E00000002C002C00384250004F5A
:1005500000E300E200E3002C000000510000003541
:10056000003B003D003F00410043002A003A003CB0
:10057000003E00400042004C000000390001000134
:100580000001000100010000000100010001000164
:1005900000010028000000E100010001000100014D
:1005A00000010001510100010001000100010052A1
:1005B000000000145C00002C002C00384250004F5A
:1005C00000E300E200E3002C0000005100000029DD
:1005D000001A0015001C000C0013002A001400086B
:1005E000001700180012004C0000002B0016000934
:1005F000000B000E0033000000040007000A000D8D
:10060000000F0028000000E1001B00190005001089
:1006100000370001511D0006006A0011003600522B
:10062000000000E00000002C002C00384250004F79
:1006300000E300E200E3002C000000510000001E77
:100640000F0500047F3F1F643214643214783C1E8F
:100650001E140A05FD377A585A000004E6D6B4463F
:100660000200210116000000742FE5A3E0044B01F5
:10067000BD5D003D8889C65436C3174FE4DE8DD575
:100680008E613F46CA6BC93E2DC108D1C0B2C60BB0
:100690006DCFD2C538FBDF1F0131CD8F83CB7159B0
:1006A000CAB6FBB0354522D1CBDC8FB5E1B0959908
:1006B000DFABF402FC95E104912B85BAD3F5909061
:1006C0003CCB97A3955B42DDBF66465624985C9D64
:1006D00048B52A295E1699F4EE28F0641CC7E49206
:1006E000A15BCEC88BA06E7D29050D08CFFAEB76F5
:1006F000C64C5CAFB0CBDD39ADB24CAD3A60075300
:1007000008BB769326051EF709FD54B7C14A059626
:10071000F62344B8DF9112A0B7B229B2C45BF12B23
:1007200060887F8B2D4B0645C9814095B061721161
:10073000591AA41F36165B7F97850DEE86D4E640C6
:100740004264741FE36B756CB6064C8CD8A12E0EF8
:10075000821B85BEB68A1500100E3654744C266670
:100760004CC0328B98BC4965393C93EB1140E16633
:100770003B357980B3696C160827B1E65EEEC14A55
:1007800054F6767349DD001E54F3BAF75850021937
:10079000023BE251D64CF281F769F32DFE16B9FD0A
:1007A0007075B4BB850C33E3CE565699BF91A76FD5
:1007B0000BB620642283F5C7DACC7DCB2AB9470A71
:1007C000A4858F02B4331D36BED9ACBDF80CA12C64
:1007D0009F2C1B935C7B2C1BA79A5CA973A680396A
:1007E0002DCA05BB28080ED9E84127156EC5C75983
:1007F000AE05083547F5E52CAA1265499BF6144C61
:100800005572403BA6DE688C570098BC9F169277C5
:10081000E611B4794234F078E312BF5E01275CDC64
:10082000ADA1318546B7B54DCDD70EDC85A7080003
:1008300000000000D22C889017EE044A0001D90372
:10084000CC080000ECE34C83B1C467FB020000005D
:100850000004595A09025B00030100A0FA090400D0
:1008600000010301010009211101000122400007DC
:1008700005810308000A09040100020300000009C1
:100880002111010001222200070582032000010737
:100890000503032000010904020001030000000910
:1008A000211101000122BC000705840320000A1267
:1008B0000110010000000827627912010001020303
:1008C000011C037600690061006C003A0066003686
:1008D0000034006300320062003300630000001245
:1008E00003460072006100630074007500720065C9
:1008F0000000001003670072006C00640074006D5B
:10090000006B000000040309040011241FBECFEF98
:10091000DAE0DEBFCDBF04B603FE27C080910B0333
:1009200090910C03A0910D03B0910E038730904B72
:10093000A740B04BD1F410920B0310920C0310920D
:100940000D0310920E0314BE84B7877F84BF0FB6C9
:10095000F894A8958091600088618093600010925F
:1009600060000FBEE0E0F8E3099523E0A2EAB1E001
:1009700001C01D92AB30B207E1F711E0A0E0B1E099
:10098000E0EBF4E502C005900D92A23AB107D9F769
:100990000E94FD210C941E2A0C940000E8EDF0E06A
:1009A00080818E7F80831092E2001092DA00109294
:1009B000E100A0EEB0E08C9181608C9380818F7714
:1009C000808319BCA7EDB0E08C918E7F8C938081E1
:1009D0008F7E80831092D50208952091E40030919B
:1009E000E50095E6A9012091EC00822F817020FF9F
:1009F00006C08091E80080FF06C080E00895209145
:100A0000E80022FD1AC08091FA02882389F085301F
:100A100089F08091EB0085FD0FC02091E4003091BA
:100A2000E50042175307F9F29150E1F684E008958A
:100A300082E0089583E0089581E00895EF92FF92A7
:100A40000F931F93CF937C018B010E94ED04C82F5D
:100A5000811117C08091E80085FD0BC08091E800EE
:100A60008E778093E8000E94ED04882399F3C82FC5
:100A700008C0F70181917F018093F10001501109B5
:100A800049F78C2FCF911F910F91FF90EF90089510
:100A90008091FC0287FF13C08091E80082FF06C0AE
:100AA0008091E8008B778093E80004C08091FA027F
:100AB0008111F2CF08958091FA028823D9F38091B1
:100AC000E80080FFF8CF8091E8008E77ECCF982F78
:100AD0009093E900242F762F50E0891731F0709120
:100AE000EC002091ED005091F00021FD07C09F5FC8
:100AF000973071F78093E90081E008953091EB0021
:100B00003E7F3093EB003091ED003D7F3093ED0060
:100B10003091EB0031603093EB007093EC00209348
:100B2000ED005093F0002091EE0027FDE0CF80E033
:100B30000895CF92DF92EF92FF920F931F93CF937E
:100B4000DF93C8EDD0E088818F7E8883E7EDF0E009
:100B500080818160808384E082BF81E08093D502C0
:100B600088818E7F888302EE10E0F8011082109257
:100B7000DA0081EEC82ED12CF601108288818F77A1
:100B8000888388818068888388818F7D888319BC69
:100B90001092FA021092FB021092F9021092F802DF
:100BA00090EEE92EF12CF70180818B7F8083888184
:100BB0008160888342E060E080E00E946705F60182
:100BC00080818E7F8083F801808181608083808135
:100BD00088608083F70180818E7F80838881806137
:100BE0008883DF91CF911F910F91FF90EF90DF905D
:100BF000CF900895FC018091020390910303861722
:100C00009707A0F06115710529F49091E8009E778F
:100C10009093E80090E06115710551F4911108C0BE
:100C20008091E80082FF34C080E00895BC01F2CFDB
:100C30008091FA028823C1F18530C1F18091E800EA
:100C400083FD30C08091E80082FDEACF8091E8000A
:100C500080FFE1CF8091F3002091F200382F6115E1
:100C6000710519F02830310558F091E02830310530
:100C700009F090E02091E8002E772093E800CBCF98
:100C800081918093F100615071092F5F3F4FE7CF51
:100C90008091FA02882341F0853041F08091E8008C
:100CA00083FFBECF81E0089582E0089583E0089538
:100CB000089580E008958091D702089587E797E727
:100CC000909301088093000888E19AE00FB6F894A9
:100CD000A895809360000FBE90936000FFCF9C01A9
:100CE0004FB7F8948091CF029091D002A091D10299
:100CF000B091D2024FBF821B930B08952FB7F89487
:100D00008091CF029091D002A091D102B091D202F5
:100D10002FBF089520911E012223C9F020919C022B
:100D200027FF15C0E62FE695E695E695EE31D8F457
:100D3000E80FF92FF11D677021E030E001C0220FAC
:100D40006A95EAF720958281282322830895FC0181
:100D5000329608962191621303C0DF0111971C920D
:100D6000E817F907B9F7089520911E012223C1F071
:100D700020919C0227FF14C0E62FE695E695E695A4
:100D8000EE31F8F4E80FF92FF11D677021E030E043
:100D900001C0220F6A95EAF78281822B828308952F
:100DA000FC0132962FEF30E04191641751F02F3F54
:100DB00019F4411101C0232F3F5F3630A9F72F3FAF
:100DC00009F40895820F911D27FD9A95FC01628315
:100DD000089580918F02811110928F020895809161
:100DE0008E0290918D02892B90918C02892B809399
:100DF000A40190918F029923A1F0892B8093A401E3
:100E000080911E01882341F180919C0287FF24C0BC
:100E10008EE1E6EAF1E090E0815000F591110E9448
:100E2000E906E0919F02F091A0023097E1F08091F5
:100E30001E01882359F080919C0287FF07C0809192
:100E4000A4018093A50185E08093A4010280F38131
:100E5000E02D84EA91E0099486E0DBCF2191222302
:100E6000D9F29F5FD9CF089527E0929F800D11247A
:100E7000982F977086958695869525E0829FF0013C
:100E80001124E859FD4F50E040E080E0219130E02E
:100E9000092E02C0369527950A94E2F72170332770
:100EA000042E01C0220F0A94EAF7822B4F5F5F4F96
:100EB0004530510559F7089527E0929F800D112480
:100EC000982F977041E001C0440F9A95EAF78695F4
:100ED0008695869595E0899FF0011124E859FD4F8C
:100EE00090E080E070E05191DF0111979B01082EA6
:100EF00002C0369527950A94E2F72170219525279F
:100F0000242325272C9301968530910561F70895B8
:100F10008091670290913602981301C008958F5F07
:100F20008770FACF882341F0809590918E028923B3
:100F300080938E020C94EF060895882339F09091E7
:100F40008E02982B90938E020C94EF0608952091B8
:100F50002C0230912D022817390771F090932D0241
:100F600080932C02E0919F02F091A002309721F033
:100F70000084F185E02D0994089520912A02309192
:100F80002B022817390771F090932B0280932A02C5
:100F9000E0919F02F091A002309721F00680F78146
:100FA000E02D09940895E0919F02F091A0023097FE
:100FB00021F00190F081E02D099480E00895FA017C
:100FC000811101C0FB0109948091C202982F9E7F7C
:100FD00029F4817082608093C20208958635E8F317
:100FE00081708465F8CFAF92BF92DF92EF92FF924B
:100FF0000F931F93CF93DF93082F162FE901E42F50
:10100000F0E0E658FD4F611110C0E4915E2F4E2FC5
:101010004983E8835A83DF91CF911F910F91FF900D
:10102000EF90DF90BF90AF900895E62EF12C4491A1
:10103000D42EE42FF0E026E0829FC00111242FEF90
:1010400030E0B9010E94B628802F90E0880F991FE8
:1010500055E5569FD001579FB00D11248A1B9B0B5D
:10106000982F990F890F5901AE18BF08AE9ED00175
:10107000AF9EB00DBE9EB00D11245B2F189F800156
:101080001124012F11275901A01AB10AAE9E800127
:10109000AF9E100DBE9E100D11245901A81AB10863
:1010A000AE9CC001AF9C900DBE9C900D1124892F69
:1010B0009927281B390B2E9FC0012F9F900D3E9F13
:1010C000900D1124E92F62307105A1F050F46115E3
:1010D000710509F49DCF6130710581F0EB2F512F1F
:1010E00097CF6430710569F080F06630710509F4BE
:1010F0008FCFF4CFE42F4B2F592F8ACFE42F412FDE
:1011000087CFEB2F542F492F83CF4B2F5D2DE12F0E
:101110007FCF0E947E069C019091B0028091B10227
:10112000982B21F03093AD022093AC029091B20243
:101130008091B302982B21F03093AA022093A90248
:10114000E0919F02F091A002309749F082E08093F5
:10115000AE020480F581E02D8EEA92E009940895B4
:1011600090E080E00E94BD0790E080E00E94A70729
:1011700010928D0210928C020E94EF0686E0EEEA39
:10118000F2E0DF011D928A95E9F71092AB0210920E
:10119000A80210922F020C948908609307037093A1
:1011A00008038093090390930A030C94B0080F93EB
:1011B0001F93609107037091080380910903909138
:1011C0000A038B019C010670112722273327063062
:1011D00011052105310529F468601F910F910C94C8
:1011E000CD08677FFACF0F931F9341E050E060E096
:1011F00070E004C0440F551F661F771F8A95D2F711
:10120000CB01BA0160957095809590950091070388
:10121000109108032091090330910A036023712380
:10122000822393231F910F910C94CD0890918B02F0
:101230008095892380938B02282F277071F4282FA3
:10124000082E000C330B9217130639F085958595FF
:1012500085950E94F30810928B0208950F931F93B7
:1012600041E050E060E070E004C0440F551F661F8D
:10127000771F8A95D2F78091070390910803A09178
:101280000903B0910A038A019B01082B192B2A2B11
:101290003B2BC901B8011F910F910C94CD086093AD
:1012A00090027093910280939202909393020C9417
:1012B000B0089091B002803F59F48091B10287FF4D
:1012C0000DC01092B10291110BC01092AB0208C078
:1012D000813F81F48091B10218169CF3992381F02B
:1012E0008091B2029091B302892B09F064C01092F0
:1012F000A8020895823F49F497FFF0CF1092B00200
:101300008091B1028111ECCFE0CF833F19F419161F
:10131000ACF3E4CF2091B202893F29F41216F4F61F
:101320001092B202DBCF8A3F19F427FFD7CFF8CF54
:101330002091B3028B3F29F427FFD0CF1092B30244
:10134000CDCF8C3F19F41216CCF3C8CF843F31F4C3
:101350008091AF028E7F8093AF02C0CF853F21F492
:101360008091AF028D7FF7CF863F21F48091AF024D
:101370008B7FF1CF873F21F48091AF02877FEBCF46
:10138000883F21F48091AF028F7EE5CF8D3F31F40D
:1013900080912F028E7F80932F02A0CF8E3F21F469
:1013A00080912F028D7FF7CF8F3F09F097CF8091EB
:1013B0002F028B7FF0CF08958823B1F19CEF980F17
:1013C000913A38F4682F84EA91E00E948A060C94DE
:1013D000EF0690E2980F983088F4877021E030E0B3
:1013E000A90102C0440F551F8A95E2F7CA018095F2
:1013F00090918E02892380938E02E9CF9BE5980F0E
:10140000933020F490E080E00C94BD0798E5980FAD
:10141000973120F490E080E00C94A707803F20F003
:101420000E9459090C948908089580912F0280FD2B
:1014300016C081FD16C082FD16C08091A8028823C7
:10144000A1F0883280F428E0829FC001112468E274
:1014500070E00E94CA28862F672B39F0089582E039
:10146000089584E0089588E0089581E008958091CA
:101470002F0280FD14C081FD14C082FD16C0809132
:10148000AB02882381F0843180F422E3829FC00183
:10149000112464E170E00E94CA28862F08958CE030
:1014A000089589E1089585E0089582E30895803FD5
:1014B00031F40E94370A81958093B1020895813FEB
:1014C00019F40E94370AF8CF823F31F40E94370A9C
:1014D00081958093B0020895833F19F40E94370AE2
:1014E000F8CF893F29F40E94150A8093B20208952B
:1014F0008A3F21F40E94150A8195F7CF8B3F31F482
:101500000E94150A81958093B30208958C3F19F4C7
:101510000E94150AF8CF843F31F48091AF028160B8
:101520008093AF020895853F21F48091AF028260DD
:10153000F7CF863F21F48091AF028460F1CF873FDF
:1015400021F48091AF028860EBCF883F21F4809135
:10155000AF028061E5CF8D3F31F480912F02816031
:1015600080932F0208958E3F21F480912F02826094
:10157000F7CF8F3FB9F780912F028460F1CFCF93DF
:10158000C82F882309F46FC08CEF8C0F813AC0F507
:1015900080911E01882311F180919C0287FF1EC05B
:1015A000EC2FE695E695E695F0E0EC55FE4F82814E
:1015B00090E04C2F477021E030E002C0220F331F33
:1015C0004A95E2F782239323892B91F06C2F84EACA
:1015D00091E00E948A060E94EF060AC0E6EAF1E066
:1015E0008CEA91E02191C21789F38E179F07D1F7FA
:1015F0006C2F84EA91E00E94B406CF910C94EF0620
:1016000080E28C0F883068F4C77021E030E001C0C0
:10161000220FCA95EAF780918E02822B80938E0268
:10162000ECCFEBE5EC0FE33040F4F0E0EE5AFE4F88
:10163000808190E0CF910C94BD07E8E5EC0FE73195
:1016400050F4F0E0EE0FFF1FEB5AFE4F80819181C6
:10165000CF910C94A707C03F30F08C2F0E94570AFF
:10166000CF910C948908CF910895F894E82FE295D2
:10167000EF70F0E031A1282F2F7081E090E001C0E1
:10168000880F2A95EAF7982F9095932391A392A11A
:10169000892B82A37894089590919C0292FF06C0B2
:1016A000282F28712830F9F4877F846093FF06C0C3
:1016B000282F28712831F1F4877E846120919D02C2
:1016C00020FF06C0382F38713830D9F4877F816009
:1016D00021FF06C0282F28712831D1F4877E81612F
:1016E00094FD877E0895282F24712430F9F68B7F8E
:1016F0008860DCCF282F2471243101F78B7E88612C
:10170000DDCF382F3171313019F78E7F8860E0CF0F
:10171000282F2171213121F78E7E8861E1CFCF936F
:1017200084E090E00E947329C82F81E290E00E943B
:101730007329982F8C2FCF9108950F931F93CF93D8
:10174000DF93843030F5683020F5473010F5C42F32
:10175000D0E0CC0FDD1F2EE0629FC00DD11D112403
:1017600030E7839FC00DD11D1124CE0186960E94C3
:101770007329082F10E0102F0027CE0187960E94B2
:1017800073299801282BC901DF91CF911F910F91E7
:10179000089590E080E0F8CF462F2091D302309159
:1017A000D402232B49F4843038F4783028F467309D
:1017B00018F4672F0C949D0B90E080E00895CF9370
:1017C000DF930E94CC0BEC0182389105A9F1D8F58A
:1017D0008133910509F496C048F58932910509F4E1
:1017E0008AC08A9709F495C0C11521E5D20708F08F
:1017F000BCC0C11530E5D30708F014C1C83ED105FF
:1018000008F09CC0C03ED10560F5C83AD10508F08B
:1018100087C0C53AD10508F0FDC0C130D10509F136
:101820002097F9F0C430D105E0F440C0853391052C
:1018300009F45AC0C997C1F680919C02837089F05F
:10184000C0EED0E00EC0833E910599F170F4803E69
:10185000910501F1823E910539F680919C0282FD4D
:1018600021C0CE01DF91CF910895863E910561F1AF
:10187000873E910571F1843E910509F0B5CF8091C5
:101880009D0281FFEECF80919C02C7EED0E084FDE7
:101890000DC0E7CF80919C0280FD12C190919D0206
:1018A00090FFDFCFC3EED0E084FFDBCFD0E0C0E01D
:1018B000D8CF80919C0282FD06C190919D0290FD3F
:1018C000BFCF84FFCECFF2CF80919C0283FDDDCFCE
:1018D000C8CF80919C0283FDF9C090919D0291FF39
:1018E000F0CFC4EED0E0BDCF80919C0285FFB9CF90
:1018F000C9E2D0E0B6CF80919C0285FFB2CFC5E3AC
:10190000D0E0AFCF80919C0286FFABCFCAE2D0E09F
:10191000A8CF80919C0286FFA4CFC1E3D0E0A1CFE5
:10192000CF3BD10518F6C85AD0E0CC0FDD1FCB5AFB
:10193000DE4F0990D881C02DD46493CFC11540E209
:10194000D40758F4C11581E0D80708F08ACFC03F0A
:10195000D10508F4ABCFD06584CFC11590E4D90789
:1019600008F4A4CFDF70D06A7CCFC11525E5D2077B
:1019700000F5C11534E5D30708F08AC0C11543E569
:10198000D40708F071C0C11582E5D80708F467C014
:10199000CE018370992721E030E002C0220F331F6F
:1019A0008A95E2F7C695C69580E2C89FE0011124AA
:1019B00052C0C11599E5D907A8F4C11528E5D20789
:1019C00008F06BC0C11536E5D30708F06FCF8C2F38
:1019D0000E944C0BC82FD0E0DC2FCC27CC27DF7126
:1019E000D0623FCFC1154AE5D40708F45BC0CE01F1
:1019F00090568115904208F059CF8D2F8F710E941B
:101A00004C0B90E0982F882788279F719C012C2BE6
:101A1000E901E6CFC55AD0E0CE5ADE4FC881D0E00A
:101A2000D0641FCFCE01E4E096958795EA95E1F763
:101A300083702C2F26952695237040E2249F9001D9
:101A40001124382B8C2F8370C1E0D0E002C0CC0F62
:101A5000DD1F8A95E2F7C22BD32BDC6802CFDC2F87
:101A6000CC27C16FD06AFDCECE018370992721E0CB
:101A700030E002C0220F331F8A95E2F7C695C69563
:101A800090E2C99FE0011124C22BD32BDA68E9CE82
:101A9000DC2FCC27C46FD06AE4CEDC2FCC27C06FFC
:101AA000D06ADFCE8C2F8F700E944C0B34E0D6951D
:101AB000C7953A95E1F7CF709C2FEC01D069D1CE54
:101AC000C9E3D0E0CECEC2EED0E0CBCEC6EED0E0C1
:101AD000C8CEBF92CF92DF92EF92FF920F931F93E7
:101AE000CF93DF938C01C0900703D0900803E09060
:101AF0000903F0900A038091900290919102A091C5
:101B00009202B0919302C82AD92AEA2AFB2ACFE18D
:101B1000D0E0BC2ED701C6010C2E04C0B695A79507
:101B2000979587950A94D2F780FD0EC0219788F784
:101B3000B12C8B2DDF91CF911F910F91FF90EF90E2
:101B4000DF90CF90BF900895B8018C2F0E94DF0BDB
:101B5000019761F3EECFCF93DF93EC010E94690D03
:101B6000BE01DF91CF910C94DF0B0E94AB0D292FAA
:101B70002F7092959F7092509E3078F4E92FF0E08C
:101B8000E05EF54D0C94DE28803F19F020F4883E8D
:101B900020F481E00895843FE1F380E00895883ED9
:101BA000C0F3813FD1F7F5CF822F86958695869534
:101BB0000895CF93DF93C6EED1E060E0CE010E949E
:101BC00087292196C11584E0D807B9F7DF91CF9115
:101BD00008950F931F93CF93DF938901843048F5C5
:101BE000683038F5473028F521153C4531F420910F
:101BF000120130911301232BE1F0C42FD0E0CC0F60
:101C0000DD1F9EE0699FC00DD11D112490E7899FC3
:101C1000C00DD11D1124612FCE0186960E94872907
:101C2000602FCE018796DF91CF911F910F910C9479
:101C30008729DF91CF911F910F9108958F929F92E5
:101C4000AF92BF92CF92DF92EF92FF921F93CF930A
:101C5000DF93809012019090130181E090E09093C7
:101C60001301809312018FE7C82E84E0D82ED0E0B4
:101C70007601C0E014C0F50125913491412F6C2FFD
:101C80008D2F0E94E90D82E0A80EB11C1F5F173056
:101C900091F78EE0E80EF11CCF5FC83019F05701C4
:101CA00010E0E9CFDF5F80E7C80ED11CD43001F728
:101CB0009092130180921201DF91CF911F91FF90BA
:101CC000EF90DF90CF90BF90AF909F908F9008954E
:101CD000CF93DF9300D00F92CDB7DEB79091FA0289
:101CE000943011F589837B836A839093E9008FEFA9
:101CF0009091E800815095FD06C095ED9A95F1F719
:101D000000008111F5CF8091E80085FF0DC050E003
:101D100040E063E070E0CE0101960E941E058091D4
:101D2000E8008E778093E8000F900F900F90DF917E
:101D3000CF910895BC0184E00C94680EBC0183E04F
:101D40000C94680E9C0184E08093E9009FEF8091E1
:101D5000E800915085FD06C085ED8A95F1F70000F9
:101D60009111F5CF8091E80085FF0CC050E040E074
:101D700066E070E0C9010E941E058091E8008E7740
:101D80008093E8000895CF93DF93EC0180911E01CA
:101D90008823B1F180919C0287FF32C060E284E029
:101DA0008093E9008FEF9091E800815095FD06C087
:101DB00095ED9A95F1F700008111F5CF8091E8003B
:101DC00085FF1BC080911E0170E050E040E0811152
:101DD00004C050E040E068E070E0CE010E941E05C3
:101DE0008091E8008E778093E80080E2FE01A8ED04
:101DF000B2E001900D928A95E1F7DF91CF910895BD
:101E000068E081E0CDCF1F93CF93DF93182FD0E010
:101E1000C0E0893311F4C0E5D0E0812F0E94BF0AF1
:101E2000209731F4812FDF91CF911F910C94DC0921
:101E30008FE99FE00197F1F700C000002197F0CFF4
:101E40000F931F93CF93DF93C62FD42F022FFC0144
:101E500082818823A1F0609306030E947E069093FE
:101E6000050380930403C77081E001C0880FCA9501
:101E7000EAF7DF91CF911F910F910C949D0780910C
:101E80000603681335C080910403909105030E94F6
:101E90006F06883C910560F510E21D0FCD17B9F073
:101EA00080E28C0F883040F4C77081E001C0880F59
:101EB000CA95EAF70E949207183048F481E09D2FF6
:101EC000977001C0880F9A95EAF70E949D07802FAE
:101ED0000E94030F183098F4D77081E001C0880F7A
:101EE000DA95EAF7DF91CF911F910F910C94920749
:101EF000C77081E001C0880FCA95EAF7F3CFDF9180
:101F0000CF911F910F9108958091C20280FD0AC068
:101F1000EAECF1E0118210821282339651E0EE3E3B
:101F2000F507C1F7269A35B13F7B25B120644FB73D
:101F3000F8948AEC91E0FC015191CF0168E025B959
:101F4000000000C057FF35B9550F000000C000C0A9
:101F500000C035B900C06A9591F7F1E08E3E9F0749
:101F600051F74FBF8FE594E00197F1F700C00000F3
:101F70000895EF92FF921F93CF93DF93EC018AECC9
:101F8000E82E81E0F82E10E08C8197014091C50287
:101F90006091C402810F0E94F3071B5E83E0E80E8C
:101FA000F11C1C3F89F70E94840F9A818C8190FF5D
:101FB00008C08F5F8C83DF91CF911F91FF90EF90CE
:101FC00008958150F7CFBF92CF92DF92EF92FF92A8
:101FD0000F931F93CF93DF93FC018281DD24DA946A
:101FE00080FD02C0DD24D3940AEC11E0D0E0C0E013
:101FF0002CE0B22EF80111821082128294E0E92EB8
:10200000F12CC12C8091C7018C0D8D300CF43DC09A
:102010006B2D0E94A828892F082E000C990B8C1775
:102020009D0791F48091C5028E9DA0018F9D500D5A
:102030001124559547955595479598016091C4028F
:102040008091C3020E94F307CD0CF1E0EF1AF10872
:10205000C9F621960D5F1F4FCC30D10559F60E946D
:10206000840F8091C70191E0D91215C0811111C070
:102070008BE08093C701DF91CF911F910F91FF906B
:10208000EF90DF90CF90BF90089587FFC5CF845F1A
:10209000C3CF8150EECF90E00196BE010E94CA28C6
:1020A000E8CF0F931F93CF93DF93CAECD1E0FE01EB
:1020B000118210821282339681E0EE3EF807C1F75A
:1020C00010E000E08091C801082E000C990B081761
:1020D00019078CF180911001082E000C990B8017C4
:1020E00091074CF19E014091C5026091C40280911C
:1020F000C3020E94F3070F5F1F4F23960C30110598
:1021000009F70E94840F80910F019091C801980FE8
:102110009093C80120911001280F209310011216EE
:1021200014F49B301CF0819580930F01DF91CF91C7
:102130001F910F910895198218821A82DCCF8F9215
:102140009F92AF92BF92CF92DF92EF92FF920F9346
:102150001F93CF93DF93EC014C81042F10E0980183
:10216000D8010E940F2A9B01AC010E94DA294B0181
:102170005C01E0E2F0E0E01BF10BA5E5B0E0AC01B2
:102180009B010E94DA296B017C019F01DF010E9403
:10219000EB289B01AC010E94E5299B01AC01280DB5
:1021A000391D4A1D5B1DC701B6010E94ED29F22EA3
:1021B000822F90E039E23F15D8F143E0249F90014F
:1021C000112435952795122F10959AECC92E91E080
:1021D000D92E00E085E5E82EEF188E2D01FD8F2D1C
:1021E0009601412F6091C4020E94F3070F5F53E0F4
:1021F000C50ED11C0C3089F70E94840F9C8181E0B0
:10220000992319F0903219F48FEF80931101809186
:102210001101890F8C83DF91CF911F910F91FF9056
:10222000EF90DF90CF90BF90AF909F908F900895E8
:1022300025E530E0A901481B590BCA019A01220F7C
:10224000331F280F391F37FFBCCF2F5F3F4FB9CF48
:10225000EF92FF920F931F93CF93DF938C01CAEC01
:10226000D1E0F12CE12CF80194816091C4028091BD
:10227000C302F6E0EF16F104FCF49923F9F09E0195
:102280004091C5020E94F3072FEFE21AF20A23964B
:102290008CE0E816F10439F70E94840FF80184817C
:1022A00090E00196817099278483DF91CF911F91EF
:1022B0000F91FF90EF900895992309F39E0140E05C
:1022C000E1CF9091C20290FF0CC0EAECF1E0818373
:1022D00060834283339691E0EE3EF907C1F70C9498
:1022E000840F08950F931F93CF93DF9300D00F9225
:1022F000CDB7DEB78C018091C90181110AC09E0162
:102300002F5F3F4F4FEF6FEF0E94F3078A8180935B
:10231000C901F8016481613069F08091C90140E030
:10232000662361F040E0623011F44091C90180E021
:1023300060E004C06091C90140E080E00E9461114A
:10234000F801848190E0019663E070E00E94CA2861
:1023500084830F900F900F90DF91CF911F910F9179
:102360000895CF93DF9300D00F92CDB7DEB7909151
:10237000C20290FF0AC09E012F5F3F4F0E94F307E9
:102380004B8169818A810E9461110F900F900F909B
:10239000DF91CF910895CF93DF93EC01EC81F0E0D2
:1023A000E158FC4F4491E2ECF2E0628181810E94AD
:1023B000B1118C818F5F8C83DF91CF910895CF9382
:1023C000DF93EC01E2ECF2E0438162818C810E94B8
:1023D000B1118C818F5F8C83DF91CF9108959F9293
:1023E000AF92BF92CF92DF92EF92FF920F931F9323
:1023F000CF93DF9383E8C82E81E0D82E04E912E062
:10240000E801A12CB12CEE24E394F12CD6018D919E
:102410006D01F894E82FE295EF70F0E021A18F7044
:10242000A70102C0440F551F8A95E2F7CA01922FF7
:10243000982B91A392A18095892382A3789400C0C0
:10244000EBE8F1E030E020E0912C4191A42FA2953F
:10245000AF70B0E090968C9190E04F7002C095956F
:1024600087954A95E2F780FD43C08E2D022E01C06C
:10247000880F0A94EAF7982A2F5F3F4F27303105DB
:1024800021F7F601319780810E94350B57E0A516A0
:1024900019F080EA8A95F1F78881981659F19882A7
:1024A00081E0B82AA3942196A8E0AA12AFCFBB205E
:1024B00019F181E08093C6010E947E069093C501C8
:1024C0008093C4018091C4019091C5010E946F0660
:1024D0000697B0F0E7ECF2E08CE992E0D8012D919C
:1024E0008D0121938A179B07C9F71092C60108C076
:1024F00080E0C1CF80E0D5CF8091C6018111E2CFCD
:102500008B2DDF91CF911F910F91FF90EF90DF9076
:10251000CF90BF90AF909F900895AF92BF92CF920F
:10252000DF92EF92FF920F931F93CF93DF93EC0113
:102530008AE0A82E2881222309F48CC02130C9F515
:1025400099818A81913021F422960E94030F05C05F
:10255000923029F422960E94BF0A2196EBCF933045
:1025600021F422960E94DC09F8CF943011F02196D4
:10257000F4CF229630E020E0AE014F5F5F4F8053F2
:10258000990B8A30910550F02150310930F38FE9D1
:102590009FE00197F1F700C00000F6CFA29EB001C6
:1025A000A39E700D11249C01260F371F8981EA011B
:1025B000E3CFE22FF0E0E650FE4FB490822F8695F5
:1025C0008695869590E0FC01E651FE4FE4902770D9
:1025D000F12C022E02C0F594E7940A94E2F731E060
:1025E000E322FF24FC01E652FE4FC490D12C022EC0
:1025F00002C0D594C7940A94E2F731E0C322DD24E7
:10260000FC01E653FE4F049110E002C015950795BA
:102610002A95E2F701701127E114F10419F081EE17
:102620000E94BF0AC114D10419F086EE0E94BF0AAD
:102630008B2D0E94030FCD2819F086EE0E94DC0935
:10264000EF2819F081EE0E94DC09012B09F485CFF7
:102650008CE27BCFDF91CF911F910F91FF90EF9094
:10266000DF90CF90BF90AF90089510928E0280912E
:102670001E01E6EAF1E0882359F080919C0287FF71
:1026800007C08EE1DF011D928A95E9F70C94B0082E
:1026900086E0F8CF1F93CF93DF93CDB7DEB7AA972D
:1026A0000FB6F894DEBF0FBECDBF8CEF92E0209145
:1026B000F100DC012D93CD01B3E084309B07B9F725
:1026C0008091FD02833009F471C0B8F4813009F4BF
:1026D00048C0823009F4B2C08091E80083FF3AC15B
:1026E0008091FC029091FD029A3008F033C1E92FED
:1026F000F0E0E25DF54D0C94DE288A3009F48DC0DF
:102700008B3009F470C0893039F78091FC02813236
:1027100019F78091000390910103009711F002973F
:10272000D9F68091E800877F8093E8008091E800E7
:1027300082FF37C09091F3008091F200029729F454
:102740008091F1008B7F813021F48091F1008093A2
:10275000D7028091E8008B778093E8000E944805BB
:10276000BBCF8091FC02813A09F0B6CF8091E8009E
:10277000877F8093E8008091000390910103892B6B
:1027800061F460E288ED92E070E00E94FA058091C9
:10279000E8008B778093E8009FCF60E090E080E0D6
:1027A000F3CF8091FA028111C1CF96CF8091FC02C4
:1027B000813A09F091CF8091000390910103892B18
:1027C00009F08ACF8091E800877F8093E8008091AC
:1027D000E80080FFFCCF80911E018093F100809182
:1027E000E8008E77B9CF8091FC02813209F074CF76
:1027F0008091000390910103892B09F06DCF8091A6
:10280000E800877F8093E8000E9448058091FE02DF
:1028100080931E010E9435135FCF8091FC028132AC
:1028200009F05ACF8091E800877F8093E8000E94EA
:1028300048058091FF028093D6024ECF8091FC0222
:10284000813A09F049CF8091E800877F8093E800C2
:102850008091E80080FFFCCF8091D602BECF803807
:1028600099F0823809F076C0809100038F7087302C
:1028700008F070C08093E9008091EB0085FB882709
:1028800080F91092E90006C08091F8029091F90257
:10289000911182609091E800977F9093E800809377
:1028A000F1001092F1008091E8008E77C0C188237A
:1028B00009F4ADC1823009F04DC08091FE02811152
:1028C000B1C1809100038F702FEF280F263008F0E0
:1028D00041C08093E9002091EB0020FFA3C1933019
:1028E00031F48091EB0080628093EB009BC190916A
:1028F000EB0090619093EB0021E030E001C0220FEB
:102900008A95EAF72093EA001092EA008091EB00A2
:102910008860EACF81111EC01091FE021F7780915E
:10292000E3008078812B8093E3008091E800877F2B
:102930008093E8000E9448058091E80080FFFCCF6A
:102940008091E30080688093E30082E0111183E0CE
:102950008093FA028091E80083FF0AC08091E8002A
:10296000877F8093E8008091EB0080628093EB008A
:10297000AA960FB6F894DEBF0FBECDBFDF91CF9100
:102980001F9108958058823028F72091FE023091DF
:10299000FF022C3DE3E03E07A1F583E08A838AE253
:1029A00089834FB7F894DE01139620E03EE051E2B0
:1029B000E32FF0E050935700E49120FF03C0E2952D
:1029C000EF703F5FEF708E2F90E0EA30C0F0C79657
:1029D0008D939D932F5F243159F74FBF8091E8006D
:1029E000877F8093E8006AE270E0CE0101960E9442
:1029F000FA058091E8008B778093E800ABCFC09612
:102A0000E7CF8091000390910103432F5527433076
:102A1000510509F44AC078F54130510509F485C0E3
:102A20008BE590E0E4E5F8E04230510509F092CF03
:102A30002091E800277F2093E80020910203309145
:102A400003038217930708F49C0140E02115310528
:102A500009F070C041116EC08091E80082FDC9CFBD
:102A60008091FA02882329F2853019F28091E800DA
:102A700083FFF2CFBECF4132510509F447C0423245
:102A8000510509F067CF8330910508F063CFFC0151
:102A9000EE0FFF1FEB56FE4F0190F081E02D8E569A
:102AA0009E4FDC018C9190E01DC033272130310511
:102AB000E9F02115310579F022303105F9F02330A4
:102AC000310509F047CFE1ECF8E0E4918E2F90E07A
:102AD000E1ECF8E007C0E5E0F9E0E4918E2F90E04A
:102AE000E5E0F9E0009709F435CFA2CFE3EFF8E095
:102AF000E4918E2F90E0E3EFF8E0F4CFEFEDF8E013
:102B0000E4918E2F90E0EFEDF8E0ECCF833091056B
:102B100008F020CF880F991FFC01E556FE4F019069
:102B2000F081E02D89E090E083CF82E190E0EFEA50
:102B3000F8E07ECF8091FA02882309F45ACF8530DD
:102B400009F457CF8091E80083FD53CF8091E800CE
:102B500082FD82CF8091E80080FF78CF9091F300D2
:102B60008091F2002115310519F08830910550F05F
:102B700041E0089709F040E08091E8008E7780936B
:102B8000E80064CF44914093F1003196215031091F
:102B90000196E8CF803809F0DDCE8091E800877F8C
:102BA0008093E8008091FB028093F1007CCE81113C
:102BB000D1CE1091FE02123008F0CCCE8091E80008
:102BC000877F8093E8001093FB020E944805112341
:102BD00011F084E005C08091E30087FDFACF81E029
:102BE0008093FA0242E061EC81E00E94670542E2D4
:102BF00061EC84E00E94670542E261EC82E00E94A1
:102C0000670542E260EC83E00E946705A3CE8091F5
:102C1000FE02813009F09ECE81E0933009F080E021
:102C20008093F9021092E9008091E800877F8093F9
:102C3000E8000E9448058ECE4F925F926F927F927D
:102C40008F929F92AF92BF92CF92DF92EF92FF92BC
:102C50000F931F93CF93DF93FC016280448081E048
:102C60008483EFE7F3E07490EEEFF3E0E491CEEECF
:102C7000D1E03AECE32E31E0F32E4AE2C42E42E0FA
:102C8000D42E52E0A52EBB24B39488248A94912C90
:102C900055245A94E7190E2F10E082E0861530F083
:102CA0008091C30288838091C4028983411021C02E
:102CB0001B821A8297014A81698188810E94F307E9
:102CC000259683E0E80EF11CCC16DD0631F7DF9186
:102CD000CF911F910F91FF90EF90DF90CF90BF9019
:102CE000AF909F908F907F906F905F904F900C94DB
:102CF000840F8B818823E9F081508B83859DC001EF
:102D000011246C8170E00E94B628FB01FF27E15876
:102D1000FC4F8491E82FE719E59DC0011124B8010B
:102D20000E94B6288091C502689FB00111247A8361
:102D3000C1CF0E9446292091C502269521582A9D7F
:102D4000A0012B9D500D1124452F55278417950761
:102D50000CF0B0CF82E0861588F40E944629B401B9
:102D60000E94CA2888830E9446292091C402269581
:102D7000622F70E00E94CA28280F29831A8280914E
:102D8000C502893C20F088EC8C838B8393CF8431FF
:102D9000D8F784E1F9CF6BEE7EEF90E080E00E94FF
:102DA000A52960E082E090E00E94872960E083E04E
:102DB00090E00E9487291092900210929102109246
:102DC00092021092930260E084E090E00E948729D2
:102DD00060E081E290E00E94872960E085E090E079
:102DE0000E94872960E086E090E00E9487296FEFCB
:102DF00087E090E00E94872940E050E0BA0188E037
:102E000090E00E94992960E08DE090E00E9487297F
:102E100040E050E0BA0188E190E00E94992960E02A
:102E200087E190E00E94872940E050E0BA018CE100
:102E300090E00E94992960E080E290E00E9487295A
:102E400040E050E0BA0188E190E00E94992940E01A
:102E500050E0BA018FE090E00E94992940E050E0F4
:102E6000BA0183E190E00C949929CF92DF92EF921E
:102E7000FF926B017C010E94E407B701A60188E084
:102E800090E0FF90EF90DF90CF900C9499295F92A3
:102E90006F927F928F929F92AF92BF92CF92DF926A
:102EA000EF92FF920F931F93CF93DF9300D00F9277
:102EB000CDB7DEB7182F762E042F622E9091C20266
:102EC00090FF29C0E92FE695AE2FB0E0A95DBE4F77
:102ED0008C918093C0029E7F923081F59E012F5F7E
:102EE0003F4F812F0E94F3074B8169818A810E94A5
:102EF00061111093C3027092C4020093C502662050
:102F000051F06091C2027091C3028091C40290910D
:102F1000C5020E9435170F900F900F90DF91CF914F
:102F20001F910F91FF90EF90DF90CF90BF90AF90E7
:102F30009F908F907F906F905F900895823019F4EA
:102F40000091C502D6CF863019F41091C302D1CFBB
:102F50008930D9F3893169F6E9518E2F8170582E65
:102F6000E695F0E0E658FC4FA590B490BB248AECBF
:102F7000E82E81E0F82ED12CC12C9CE0892E912CDA
:102F8000C601B4010E94B628812F511013C0860FCC
:102F90009701402F672D0E94F307CA0CDB1C83E0CA
:102FA000E80EF11C8EEEE81681E0F80649F70E9463
:102FB000840F9FCF861BECCFE2ECF2E0438121E14E
:102FC000421B08F440E021E0628181810C944717A4
:102FD000E2ECF2E0438121E1420F08F44FEF21E0FF
:102FE000628181810C944717E2ECF2E0628121E179
:102FF000621B08F460E021E0438181810C94471753
:10300000E2ECF2E0628121E1620F08F46FEF21E06F
:10301000438181810C944717E2ECF2E0818121E049
:103020004381628188500C944717E2ECF2E0818181
:1030300021E043816281885F0C9447178091C6022A
:10304000882319F081508093C6026091C20270916A
:10305000C3028091C4029091C5020C9435178091EF
:10306000C602833018F48F5F8093C6026091C2025B
:103070007091C3028091C4029091C5020C943517DF
:10308000E2ECF2E083E0808311828FEF828383831E
:10309000148260817181828193810C9435179091A3
:1030A000C20290FF3DC09170811129C0926090933F
:1030B000C202662351F06091C2027091C3028091F6
:1030C000C4029091C5020E9435176091C2026695B4
:1030D00070E04BE050E084E091E00E945F29892B92
:1030E000A9F01092C10281E08093A50220E04091F6
:1030F000C5026091C4028091C3020C9447178B32C1
:1031000010F09465D4CF880F982BD1CF81E08093B5
:10311000C1020E947E069093A3028093A202E3CF95
:1031200008958091C2028695815009F48AE261E097
:103130000C944F188091C20286958F5F8B3208F0F5
:1031400081E061E00C944F189091C20290FF07C09B
:103150009695981720F0961710F40C949A1861E041
:103160000C944F184F925F926F927F928F929F9222
:10317000AF92BF92CF92DF92EF92FF920F931F9385
:10318000CF93DF9300D000D00F92CDB7DEB77C0194
:10319000FC0183819481892B31F080819181892385
:1031A0008F3F09F074C50F900F900F900F900F9004
:1031B000DF91CF911F910F91FF90EF90DF90CF9013
:1031C000BF90AF909F908F907F906F905F904F9047
:1031D00008950E94690D182F682F89819A810E9495
:1031E0005C0769817A81812F0E94CC0B8C01F701E9
:1031F0009281992309F440C5980122513F4520311D
:10320000310508F012C58FEF93E00E9473294EEE4E
:10321000D42ED00E06EE11E08823D1F080918B02DF
:10322000877009F4C0CFF7018281882309F4BBCFEE
:1032300082E00E941609B7CF0115F4E01F0771F371
:10324000C8010E947329811101C0DA940F5F1F4FDA
:10325000D110F2CF19821A821B821C82CC24CA940C
:1032600048012FEF821A920AC8010E9473298983AC
:103270001A82882399F2813009F047C0580132E060
:10328000A30EB11CC4010E947329982E8A8388233F
:1032900029F2C5010E947329D82E8FEF890D833042
:1032A00068F4580143E0A40EB11CDB82DD2021F05C
:1032B000CE0101960E948D128501D2CF54E0951265
:1032C000FBCF580184E0A80EB11CC80103960E94F0
:1032D0007329DD2009F4A2CF882309F49FCF815000
:1032E000990BC89E9001C99E300D1124ED2DE1501F
:1032F000FF0BCF01820F931F0197F0F2EFE9FFE080
:103300003197F1F700C00000F7CFCE0101960E947F
:103310008D125401D1CF81E00E942E090E94D7085E
:103320007DCF81E00E94F308F9CF82E0F5CF053F21
:10333000ECE51E0709F45EC008F458C0063F2CE512
:10334000120709F45BC0992309F4B2C41092060372
:1033500002303CE5130708F431C106314CE514078F
:1033600038F098012A5F3C452930310508F026C124
:103370000E948F0B90939D0280939C0200315CE52C
:10338000150709F4EAC008F078C008309CE5190771
:1033900009F4D9C008F047C00430FCE51F0709F460
:1033A000C6C098F502303CE5130709F4BAC0809115
:1033B0009C02826003301C4509F4B6C060919C02F7
:1033C00010919D0284E090E00E948729612F81E2A4
:1033D00090E00E9487290E94351320CF27E245EE16
:1033E00065EE46C426E241EE60EE42C427E245EEB9
:1033F00064EE3EC426E241EE62EE3AC427E245EEB8
:1034000066EE36C428E241E0EBCF80919C028061F9
:1034100006305CE5150709F487C008F48CC080917C
:103420009C02806281C080919C028D7F0C309CE563
:10343000190709F479C070F480919C028C600A30FD
:10344000FCE51F0709F470C008F481C080919C025C
:103450008E7F6AC080919C02877F0E303CE5130707
:1034600009F462C080919C028B7F0F301C4508F4E8
:103470005BC080919C028F7E57C00B3F5CE51507B7
:1034800009F45DC030F503319CE5190709F46DC0FE
:1034900078F40131FCE51F0709F463C002311C45D3
:1034A00009F08CCF0E94351380919C028F773CC02D
:1034B00005313CE5130709F460C008F474C080913D
:1034C0009D0281600A3F1C4509F078CF80939D02E0
:1034D00075CF0F3F8CE5180709F44BC088F4809135
:1034E0009D028D7F0D3FECE51E0781F380919D02CB
:1034F0008E7F0E3F1C4550F380919D028360E6CF86
:1035000001302DE5120709F457C008F442C060E00D
:1035100002301D4509F052CF8EE090E00E948729CD
:103520004DCF80919C02816080939C0247CF809117
:103530009C028460F9CF80919C028860F5CF8091D5
:103540009D028260C3CF80919C028064EDCF0E9477
:10355000351380919C028068E7CF80919C028F7D1B
:10356000E3CF80919C028F7BDFCF80919C02837F91
:10357000DBCF80919D028C7FA9CF80919C0282FB42
:10358000992790F921E0922790FB82F990FB83F92B
:10359000CBCF80919D02982F909591708E7F892B33
:1035A00090FB81F993CF0E94351390919C02892F53
:1035B00097FB87F98058B8CF61E0AECF80918E023B
:1035C00006315CE5150709F081C38A7A91E009F4B8
:1035D00090E090932E0269E2811165E384EA91E024
:1035E0000E94B4060E94EF0619CE8091C20280FFAD
:1035F0001BC08E7F8093C2026091C2027091C30291
:103600008091C4029091C5020E9435171092C102A8
:103610008FEF90E7E2E081509040E040E1F700C09A
:1036200000000E94840FFACD81608093C20261E0A5
:1036300086950E944F18F2CD41E958E16AE978E198
:103640000E94DF07EBCD4AE958E161E978E1F8CF64
:103650004CE058E165E178E1F3CF45E158E16CE0F9
:1036600078E1EECF44EF57E160E078E1E9CF40E068
:1036700058E164EF77E1E4CF4CED57E168EE77E194
:10368000DFCF48EE57E16CED77E1DACF4EE158E15C
:103690006FE278E1D5CF4FE258E16EE178E1D0CF2B
:1036A00061E081E0C6CF65E082E00E94A418B6CD5B
:1036B00068E086E0FACF6EE089E0F7CF64E18FE062
:1036C000F4CF67E185E1F1CF61E088E1B2CF62E25A
:1036D00089E1EBCF61E083E2ACCF0115FCE51F0788
:1036E00009F445C00E3D1C4509F44EC0F7010081A8
:1036F0001181992309F44BC0C8010E94690DD82E8D
:10370000682FC8010E945C07B8018D2D0E94DF0B55
:103710008C01882EF701D280A580A2943FE0A322DD
:1037200080918B028770A1F0CD2CDD2091F0812F4C
:10373000807F803421F080E2800F883048F082E082
:103740000E94160980918B028770CC24C39481114A
:10375000C12CB12EB2942FE0B222FBE0FB1508F48D
:1037600050C0EB2DF0E0E85CF54D0C94DE280E9493
:1037700035133FEF44E35CE0315040405040E1F707
:1037800000C000000E945E060E94CB1647CDC80113
:103790000E943407D82EB8CF212F2F70A22E107F71
:1037A00019F0A29490EFA922DD20C9F0AA2069F0B7
:1037B00080E2800F883010F081100BC080918E0263
:1037C000A82AA0928E020E94EF06802F0E94BF0AB4
:1037D00018C080918D02A82AA0928D02F4CF802F6C
:1037E0000E94DC09AA2069F0A094005E083010F065
:1037F000811028C080918E02A822A0928E020E9481
:10380000EF062B2D2850330B2430310510F40E9485
:10381000D307CC2009F4C7CC80918B0280FDC3CCA8
:10382000F70112828595859585950E942E09C7011D
:103830000E94B21880918B028595859585950E948E
:10384000F308B1CC80918D02A822A0928D02D7CF2F
:10385000312F3F70932E107F103219F0929480EF29
:103860009822882071F041E0841661F1DD20B9F1E1
:10387000AA2071F1F701858180FFA7CF8F70858322
:1038800027C0DD2091F090918F02892D892BA11006
:1038900003C00E949D07B5CF51E0A512FACF98173B
:1038A00009F4AFCF80938F02ACCFA11006C00E9465
:1038B000E906892D0E949207A4CF81E0A81609F499
:1038C000A0CFF5CFDD2031F095E09A1508F499CF1F
:1038D000892DDFCFE4E0EA1508F493CFEACFAA20E0
:1038E00041F3F9E38F1209C02FEF37EE43E0215087
:1038F00030404040E1F700C00000802F0E94DC090A
:1039000080CF812F86958695837061F0813009F094
:1039100078CFC8019370D11002C090E080E00E947F
:10392000A7076FCFC8019370D11002C090E080E06C
:103930000E94BD0766CF802FDD2039F00E94570A14
:103940000E9489080E9489085CCF0E945909FACF19
:10395000812F837009F066C0D11053CF802F8295DC
:1039600086958770880F880F602F6F70462E512CB8
:10397000712C612C082E04C0440C551C661C771C4D
:103980000A94D2F740E050E0BA0104FF0FC04FE0C4
:1039900050E060E070E004C0440F551F661F771FC1
:1039A0008A95D2F74095509560957095812F8695B0
:1039B00086958370823019F1D8F4009190021091AD
:1039C00091022091920230919302813069F0442952
:1039D000552966297729CB01BA01602371238223F7
:1039E00093230E944F090DCF402A512A622A732A3D
:1039F000CB01BA016429752986299729F2CF442978
:103A00005529662977290091900210919102209101
:103A1000920230919302CB01BA016027712782276D
:103A20009327DFCF8695DD2011F0812F81708823C9
:103A300009F4E7CE802F829586958770880F880FCE
:103A4000602F6F70462E512C712C612C082E04C0F3
:103A5000440C551C661C771C0A94D2F740E050E0D9
:103A6000BA0104FF0FC04FE050E060E070E004C016
:103A7000440F551F661F771F8A95D2F740955095C2
:103A800060957095812F869586958370823019F1A7
:103A9000D8F4009107031091080320910903309195
:103AA0000A03813069F04429552966297729CB0119
:103AB000BA0160237123822393230E94CD08A1CEF3
:103AC000402A512A622A732ACB01BA016429752936
:103AD00086299729F2CF442955296629772900910B
:103AE0000703109108032091090330910A03CB01C9
:103AF000BA016027712782279327DFCF1F70DD204F
:103B000029F0812F0E942E09802FC3CE802F0E9482
:103B10009207812F0E94F30874CE802F52EF8516F2
:103B200009F450C0581578F090EF891619F1E1EFBB
:103B30008E1609F43FC0DD2009F467C0A11045CE00
:103B4000812F8F713CC0F3EF8F1609F440C024EF32
:103B50008212F1CFDD2009F44DC01F71812F0E9428
:103B60002E0958E0159FC0011124836080938B02B9
:103B7000812F25C0DD20C9F034E03A1508F441CE8C
:103B80001F7161E070E080E090E004C0660F771F75
:103B9000881F991F1A95D2F7009107031091080307
:103BA0002091090330910A03A4CF45E04A1508F497
:103BB00028CEE6CF812F8F71DD2009F4ABCF0E9494
:103BC0002E091FCE812F8F71DD20C9F3A3CF60E0B6
:103BD00070E0CB01DD2009F470CF1F7161E070E06F
:103BE00080E090E004C0660F771F881F991F1A9528
:103BF000D2F763CF81E00E94160981E08A1508F0B0
:103C000000CE82E00E941609FCCDAA2059F089332B
:103C100009F073CE9FEFE7EEF3E09150E040F04003
:103C2000E1F769CE812F8F7175CF0031FFE51F0756
:103C300009F471CB01312FE5120709F476CB033F6C
:103C40002CE5120709F4CECB08F071CB083D4CE50A
:103C5000140709F4C3CB093D5CE5150709F4D2CB81
:103C6000073D8CE5180709F06ECB26E241EE61EEC8
:103C7000C7010E94200FD2CA00313FE5130709F4A3
:103C800050CB01314FE51407D1F682E04BCB85E0F4
:103C9000DE01119601900D928A95E1F7F7012281DC
:103CA00089819A81211195CA0E943407182F99CAD7
:103CB00006311C4509F01ACD80912E0269E281116E
:103CC00065E384EA91E00E948A068CCC8272F80156
:103CD000E25CFC45E431F10508F0FFCCEC5BF54D0E
:103CE0000C94DE281F93CF93DF9380913502807F61
:103CF000A9F480913202882389F080916702D091E3
:103D000036026091300270913102A0913302B0917D
:103D10003402C62FC72316E0D81304C0DF91CF9119
:103D20001F91089590E0109711F0CF3F19F401967C
:103D30008770F2CF189F9001199F300D1124F9015F
:103D4000E95CFD4F41814713F2CF40814613EFCF2D
:103D500042814111ECCF438154814A1B5B0B483CAB
:103D6000510528F7809135028F708061809335026C
:103D7000F901E45CFD4F80818F708061808380E376
:103D800092E00E94B218DF91CF911F910C948807A6
:103D9000AF92BF92CF92DF92EF92FF920F931F9359
:103DA000CF93DF93CDB7DEB761970FB6F894DEBF40
:103DB0000FBECDBF8C0185E0F801DE011D9601909C
:103DC0000D928A95E1F7F80180819181E28020E3EC
:103DD000A22E22E0B22E609133027091340261155E
:103DE000710509F43EC13091300240913102232F18
:103DF00024232F3F09F435C1C380D480F0903202D0
:103E0000F601E61BF70BFF2009F4FBC020913502F9
:103E1000522F507FE83CF10508F0BBC0511178C02B
:103E2000FE2C491321C038131FC0E1101DC02F7094
:103E3000206120933502C5010E94B218809135029D
:103E4000F80185838F2D61960FB6F894DEBF0FBE03
:103E5000CDBFDF91CF911F910F91FF90EF90DF9039
:103E6000CF90BF90AF900895CD2829F0282F292317
:103E70002F3F09F014C120E0F22FF170DF2E20FF58
:103E80003DC0209167024091360256E0241315C0D0
:103E90008D879E878D859E850E94AB0D292F22954B
:103EA0002F702230F8F0243020F59F70F9F0F801DF
:103EB0009581907FD9F4D12C1FC030E0529FF00142
:103EC000539FF00D1124E95CFD4F6181961306C0EC
:103ED0006081861303C06281E61210C02F5F3F4FDE
:103EE0002770D4CF9F7011F0882329F3805E88302B
:103EF00010F3C8010E94B218FD2CA4CFEE2009F4E3
:103F0000A1CF80913502816080933502F12C9ACF48
:103F1000491312C0381310C0E1100EC0F8012583F8
:103F2000C8010E94B21886E0F801A0E3B2E0019057
:103F30000D928A95E1F786CF8D879E878D859E8528
:103F40000E94B50D882309F1EE20F9F08091350229
:103F5000803270F0209130023091310238872F8307
:103F60001986DB86CA868C87CE0107960E94B21816
:103F700086E0F801A0E3B2E001900D928A95E1F7A6
:103F80000E94721EFF24F3945DCFC8010E94B218F4
:103F9000F9CF51110AC080E392E00E94B21886E086
:103FA000F50111928A95E9F7B1CF49130FC0381383
:103FB0000DC0E1100BC0F8012583C8010E94B218A2
:103FC00086E0F50111928A95E9F73CCF8D879E87AF
:103FD0008D859E850E94B50D8823B9F2EE20A9F249
:103FE00080913502803220F22091300230913102EE
:103FF0003A8329831B82DD82CC828E83CE01019697
:10400000B5CFE83CF105E0F6FE2CEE2009F4BDCF7B
:10401000491316C0381314C08091350280FD83CF38
:10402000982F907F09F47FCFF8018583903F09F4A2
:1040300077CF982F907F905F8F70892B858370CF7B
:104040008D879E878D859E850E94B50D811190CFAD
:1040500080913502816080933502C8010E94B218B8
:10406000F1CEEE2009F491CF8D879E878D859E85B8
:104070000E94B50DF82E882309F487CF86E0F80159
:10408000A0E3B2E001900D928A95E1F780913002B1
:10409000909131020E94AB0D0E94721ED3CE21E09E
:1040A0002E25EACE1F93CF93DF93CDB7DEB7679768
:1040B0000FB6F894DEBF0FBECDBF342F4B8B252F2C
:1040C0005C8B6D8B7E8B8F8B8E899F89611110929B
:1040D0008D021A8A198A3D872E876F87998B888B64
:1040E00086E0FE013D96DE01179601900D928A95BD
:1040F000E1F7CE0107960E94C81E882389F016E0DA
:104100008091670290913602891349C067960FB675
:10411000F894DEBF0FBECDBFDF91CF911F91089500
:1041200086E0FE013796DE01119601900D928A9588
:10413000E1F78A859B85892B11F38F8198858923E7
:104140008F3FE9F22091360230E0C9010196877075
:104150009927409167024817190671F40E94351398
:10416000109236021092670286E0E0E3F2E0DF018F
:104170001D928A95E9F7C3CF96E0929FD001939F55
:10418000B00D1124A95CBD4FFE01319601900D9236
:104190009A95E1F7809336020E948807B0CF819FFD
:1041A000C0011124895C9D4F0E94C81E882309F418
:1041B000ADCF8091670290E0019687709927809338
:1041C00067029ECF1F920F920FB60F9211242F936A
:1041D0003F934F935F936F937F938F939F93AF938F
:1041E000BF93CF93DF93EF93FF93D091E900DF70FC
:1041F0008091EC00C82FC17080FDC0E81092E900EA
:104200008091F000877F8093F00078940E944A1399
:104210001092E9008091F00088608093F000CD2B2F
:10422000CF70C093E900FF91EF91DF91CF91BF91E3
:10423000AF919F918F917F916F915F914F913F913E
:104240002F910F900FBE0F901F9018951F920F92F5
:104250000FB60F9211242F933F934F935F936F9359
:104260007F938F939F93AF93BF93EF93FF9380912F
:10427000E10082FF09C08091E20082FF05C08091C9
:10428000E1008B7F8093E1008091DA0080FF24C001
:104290008091D80080FF20C08091DA008E7F8093CB
:1042A000DA008091D90080FF9BC080E189BD82E166
:1042B00089BD09B400FEFDCF81E08093FA028091B0
:1042C000D502811109C00E94CE040E9499058091F7
:1042D000E20084608093E2008091E10080FF17C0DB
:1042E0008091E20080FF13C08091E2008E7F809376
:1042F000E2008091E20080618093E2008091D8002A
:1043000080628093D80019BC85E08093FA02809186
:10431000E10084FF29C08091E20084FF25C080E194
:1043200089BD82E189BD89B5982F917080FFFBCF4F
:104330008091D8008F7D8093D8008091E1008F7E9E
:104340008093E1008091E2008F7E8093E200809173
:10435000E20081608093E2008091FB02882309F4EF
:1043600045C084E08093FA028091E10083FF27C07A
:104370008091E20083FF23C08091E100877F8093DA
:10438000E10082E08093FA021092FB028091E1004A
:104390008E7F8093E1008091E2008E7F8093E20027
:1043A0008091E20080618093E20042E060E080E082
:1043B0000E9467058091F00088608093F000FF9173
:1043C000EF91BF91AF919F918F917F916F915F918D
:1043D0004F913F912F910F900FBE0F901F90189506
:1043E00019BC1092FA021092D50276CF8091E300A8
:1043F00087FD93E09093FA02B7CFCDB7DEB7E2978F
:104400000FB6F894DEBF0FBECDBF84B7877F84BFE1
:104410000FB6F894A8958091600088618093600041
:10442000109260000FBE80E890E00FB6F894809381
:104430006100909361000FBE85B7806885BF85B726
:10444000806885BF89E596E09093A3018093A201DF
:104450000E94CE040E9499058091E20084608093BE
:10446000E20078948091FA028823A1F01091E9008B
:104470001F709091EC00892F817090FD80E8182BBF
:104480001092E9008091E80083FD0E944A131F709A
:104490001093E90082E084BD93E095BD9AEF97BD4B
:1044A00080936E0003E811E0F80181918F010E9472
:1044B000350BF1E00B381F07B9F70BE811E042E9C3
:1044C000E42E41E0F42EF80181918F010E94350B1A
:1044D000E016F106C1F7E4E9F2E0A7ECB2E01192D0
:1044E0001D9222E0EC39F207D1F70E94EF114FEF55
:1044F00086E791E0415080409040E1F700C0000025
:104500000E94EF118091C70280FF17C06FEF82E217
:1045100090E00E9487296FEF83E290E00E94872954
:104520006FEF84E290E00E9487296FEF7FEF90E0C9
:1045300080E00E94A5290E945E0690E080E00E9433
:1045400081298B3E9E4F11F00E94CB1682E290E0B3
:104550000E947329863509F078C583E290E00E94B5
:1045600073298D3B09F071C584E290E00E947329A4
:10457000883709F06AC590E080E00E9481298B3E6F
:104580009E4F11F00E94CB1682E090E00E947329AA
:104590008093B5020E948F0B90939D0280939C02A2
:1045A00083E090E00E947329682F70E090E080E043
:1045B0000E944F0980919E02811136C090E080E0F8
:1045C0000E9481298B3E9E4F21F00E94CB160E94B3
:1045D000401888E090E00E947B296093C2027093AB
:1045E000C3028093C4029093C5026E7F71F40E944F
:1045F000401888E090E00E947B296093C20270938B
:10460000C3028093C4029093C5020E94E4071092F3
:10461000C1028091C20280FF04C060E086950E94C2
:104620004F1881E080939E0284E191E09093A00274
:1046300080939F0298E1E92EF12C20E4C22E87ECB2
:1046400092E038E0D32ED80E8091FA0200E112E118
:10465000853009F4C3C10E94EF11882359F08FB748
:10466000F8944091CF025091D0026091D1027091A4
:10467000D2028FBFE6EBF2E0A7ECB2E010E000E080
:10468000302F8D919191981709F4B7C1292F2827C0
:1046900090E0BB24B394422F4B2109F4A9C199A700
:1046A0003AA78B2191E009F490E09BA70E947E0637
:1046B0008160782F9DA78CA749A55AA56BA58DA5CC
:1046C0000E945220F801EA54FD4F8081B826B08242
:1046D0008091C1028823D1F18091C002E091C20291
:1046E000E695E81BE093A402823009F09DC1F0E05A
:1046F000E05BF94FE4910E2F10E08BECA82E81E1E6
:10470000B82E8091A502882361F01092A5020E9424
:104710007E069093A3028093A2021092A7021092A9
:10472000A6020E947E06E091A202F091A3028E1BD7
:104730009F0B8F3F9F4750F4E00FF11FF093A302B0
:10474000E093A20282EA92E0F501099586E0EEEAA2
:10475000F2E0DE01119601900D928A95E1F7B0909A
:10476000B002A090B1021091B2020091B302109277
:10477000B0021092B1021092B2021092B3028B2DCD
:104780008A2909F448C08091AC029091AD020E9440
:104790006F069C019091AB02992309F47DC42333E9
:1047A0003105C8F19F3F19F09F5F9093AB02BB208A
:1047B00059F00E94370A9FEF1B140CF491E0899F77
:1047C000802D11248093B002AA2059F00E94370A4C
:1047D0009FEF1A140CF491E0899F802D112480938F
:1047E000B1023091B0023323B1F02091B102222303
:1047F00091F045EB3403C0011124992309F480C1E1
:104800009093B00245EB240390011124332309F463
:104810007BC13093B102812F802B09F448C0809175
:10482000A9029091AA020E946F069C019091A80291
:10483000992309F42CC425363105C8F19F3F19F09E
:104840009F5F9093A802112359F00E94150A9FEFD1
:1048500011160CF491E0899F802D11248093B202EF
:10486000002359F00E94150A9FEF10160CF491E0F6
:10487000899F802D11248093B3023091B20233239B
:10488000B1F02091B302222391F045EB3403C00133
:104890001124992309F43CC19093B20245EB2403FF
:1048A00090011124332309F437C13093B30280916E
:1048B000B0029091B102892B9091B202892B909114
:1048C000B302892B11F00E94890886E0FE0131961F
:1048D000AEEAB2E001900D928A95E1F70E94D3070B
:1048E0009091B402891721F00E94D3078093B402FB
:1048F0008091FA02843009F0A7CE83E08093E9002A
:104900008091E80082FFA0CE8091E80090E085FFD2
:1049100006C00E94ED04882309F402C191E0809151
:10492000E8008B778093E800992309F48DCE0091FD
:10493000D3021091D40289810115110509F40CC12B
:104940008E3F09F09BC18A81833020F085508330EF
:1049500008F094C18A81823009F410C308F0E0C2E3
:10496000882309F4F3C2813009F088C1198282E0FA
:104970008A831B821C8282C18091FA02843009F1F1
:104980001092A1020FB6F894A895E09260000FBEB5
:10499000C092600083B7817F846083BF83B78160EA
:1049A00083BF7894889583B78E7F83BF0FB6F894C2
:1049B000A8958091600088618093600010926000EB
:1049C0000FBE8091F902882349F00E94EF11E7ECB5
:1049D000F2E08191811123C3DE12FBCF8091FA02B4
:1049E000853009F4C9CF0E9435130E94D30733CE16
:1049F0009F5FBB0C973009F04ECE0F5F1F4F083002
:104A0000110509F03DCE8FEF8EA78FA718AA0E943F
:104A10007E068160782F9AAB89AB4EA55FA568A909
:104A20008AA90E94522054CE863059F4F0E0E35B0C
:104A3000F94FE4910E2F10E0BFEDAB2EB1E1BB2E8C
:104A400060CE893061F4E695F0E0E65BF94FE491E1
:104A50000E2F10E0A9EBAA2EAFE0BA2E52CE8F3067
:104A600061F4E695F0E0E95BF94FE4910E2F10E078
:104A7000F3EEAF2EFFE0BF2E44CE853159F4F0E0C7
:104A8000EC5BF94FE4910E2F10E0E1E5AE2EE0E192
:104A9000BE2E37CE08E210E05FE9A52E50E1B52E1C
:104AA000883109F42ECE833249F4E2E4F6E0059130
:104AB000149172E7A72E71E1B72E23CE04EF11E017
:104AC00048E2A42E41E1B42E843209F41ACE00ED5E
:104AD00017E038E5A32E36E0B32E853209F011CE6B
:104AE0008E2F63E00E949C28E92FF0E0E15CF94FF3
:104AF000E4910E2F10E06CE1A62E66E1B62E01CEF9
:104B000081E08093B0027ECE81E08093B10283CEBB
:104B100081E08093B202C2CE81E08093B302C7CE1F
:104B200000E210E0CE0101965C018091E80085FD75
:104B30000AC08091E8008B778093E8000E94ED0422
:104B4000882399F3EBCE8091F100F50181935F0109
:104B50000150110951F7E2CE893009F447C128F517
:104B6000843009F4D2C058F4823009F46DC008F0E2
:104B7000BDC0813009F464C08FEF89837FC0863067
:104B800009F4D9C008F4CCC0873009F4D7C0883004
:104B900099F78A81813809F41EC108F010C1803864
:104BA00009F06CC08091C5024DC0803109F457C135
:104BB000D8F58D3009F425C128F48C30E9F680E170
:104BC0008A835CC08E3009F420C18F30A9F68091B1
:104BD000120190911301892B09F450C08C81882E09
:104BE000912C2DE18216910408F048C00A811B81A6
:104BF000102701271027CE0101965C01800E911E1F
:104C0000C8018A519E4F80169106C1F10A31E2E037
:104C10001E0720F4F50164810E948729FFEFAF1A77
:104C2000BF0A0F5F1F4FECCF823109F41DC108F49A
:104C300019C1833109F441C18E3F09F09DCF8ACE5D
:104C40001A8289E08B831AC08A81823009F416C2E5
:104C50008330D9F1813009F08FCF2FB7F89460916C
:104C6000CF027091D0028091D1029091D2022FBFD9
:104C70000E94E4286B837C838D839E838091FA025B
:104C8000843009F0E1CC1091E9001F709091EC00A4
:104C9000892F817090FD80E8182B82E08093E900D5
:104CA0008091E80080FF0DC050E040E060E270E0DD
:104CB000CE0101960E941E058091E8008E778093B8
:104CC000E8001F701093E900BFCC80911201909111
:104CD0001301892B99F2DE011396E7ECF2E0819142
:104CE0008D9322E0EF3CF207D1F7C8CF8A81823062
:104CF00009F042CF6B817C818D819E810E94E428E6
:104D000085E290E00E948729B9CF4C816B818A812E
:104D10000E949D0B9827892798279E838D83AECF6D
:104D20002D813E813227232732274C816B818A8156
:104D30000E94E90DA3CF0E941E0EA0CF8A81813868
:104D4000C1F060F4803809F099CF20E04B81609188
:104D5000C4028091C3020E94471790CF823859F154
:104D6000833809F08BCF20E04091C5026C818B81A4
:104D7000F2CF60E08B810E944F189B818091C2022C
:104D8000911111C08E7F8093C2021092C1024FEF29
:104D900080E792E0415080409040E1F700C0000081
:104DA0000E94840F6BCF81608093C20260E0869581
:104DB0000E944F1863CF8B818093C6025FCF8238E9
:104DC00091F0833809F05ACF8091C3028B83809190
:104DD000C4028C8353CF8091C20280FF02C08695AB
:104DE00031CF80E02FCF8091C6022CCF6091C202DC
:104DF0007091C3028091C4029091C5020E94351740
:104E00003DCF82E08A838AE11DCF8C81882E912C50
:104E1000EDE18E16910408F031CF0A811B81102735
:104E200001271027CE0101965C01880E991EC8014A
:104E30008A519E4FA814B90409F420CF0A31F2E038
:104E40001F0750F40E947329F50184830F5F1F4FE1
:104E5000FFEFAF1ABF0AEBCFF5011482F7CF0E9424
:104E6000D90D0CCF84E0ACCE8C81882E912C2DE115
:104E70008216910408F002CF0A811B8110270127B6
:104E80001027CE0101965C01880E991EC8018696F6
:104E90008A149B0409F4F2CE003CF1E01F0750F4A1
:104EA0000E947329F50184830F5F1F4FFFEFAF1A34
:104EB000BF0AECCFF5011482F7CF8C81882E912C9C
:104EC0002DE18216910408F0D9CE0A811B811027AA
:104ED00001271027003C41E0140708F0CFCE20EC5A
:104EE00031E0201B310B2815390508F4C7CECE015F
:104EF00001965C01800E911EC8018696801691066F
:104F000009F4BCCE003CE1E01E0720F4F501648109
:104F10000E948729FFEFAF1ABF0A0F5F1F4FECCF28
:104F2000863009F466C0873009F472C0853009F014
:104F3000A5CE4EE150E06FEF70E0CE0103960E94E7
:104F40006C298091120189830A8398CE88E0EFE171
:104F5000F1E0DE01919601900D928A95E1F783E0F0
:104F600089831A821B821C8288E0FE01B196DE01D1
:104F7000159601900D928A95E1F780CE8C81682F6D
:104F800070E0762F66278B81860F972F911D092E53
:104F9000000CAA0BBB0B25E0880F991FAA1FBB1F93
:104FA0002A95D1F7AC01BD01405E5F4F6F4F7F4F37
:104FB000481759076A077B0708F460CE811522E07D
:104FC0009207A105B10508F059CE4130E2E05E0735
:104FD0006105710520F040E052E060E070E0481BA0
:104FE000590BBC016C5A794FCE0101960E9456298B
:104FF00045CE81E090E09093D4028093D30282E387
:1050000090E09093BF028093BE020E947E0636CE4F
:105010008091120189830A838091BE0213CE09BD5B
:1050200019BD09B400FEFDCF8091D8008F7D80931B
:10503000D8008091E00082608093E0008091E000E1
:1050400081FDFCCF0E943513C9CC60E085E290E081
:105050000E9487290E941E0E0E94D90D66E582E2F9
:1050600090E00E9487296DEB83E290E00E948729FF
:1050700068E784E290E00E9487297DCA85E290E09B
:105080000E9473291B821C821D828E83F7CD2D32D4
:10509000314008F0D5CB0BCC2D32314008F084CB19
:1050A000BACB78941F921FB61F9211248F939F93AF
:1050B000AF93BF938091CF029091D002A091D10283
:1050C000B091D2020196A11DB11D8093CF029093A1
:1050D000D002A093D102B093D202BF91AF919F9121
:1050E0008F911F901FBE1F9018951F921FB61F9281
:1050F00011248F939F93AF93BF938091A10281114D
:1051000013C08091CF029091D002A091D102B091B2
:10511000D2024196A11DB11D8093CF029093D0027F
:10512000A093D102B093D202BF91AF919F918F9182
:105130001F901FBE1F901895991B79E004C0991FFE
:10514000961708F0961B881F7A95C9F780950895E1
:1051500087FB082E062687FD819567FD61950E94D5
:105160009C280EF4919507FC81950895AA1BBB1B02
:1051700051E107C0AA1FBB1FA617B70710F0A61B57
:10518000B70B881F991F5A95A9F780959095BC0178
:10519000CD01089597FB072E16F4009407D077FDF4
:1051A00009D00E94B62807FC05D03EF49095819561
:1051B0009F4F0895709561957F4F0895EE0FFF1FE3
:1051C0000590F491E02D099469279627692778279F
:1051D0008727782708950E940F2A332312F48A1B09
:1051E0009B0B0C94F5280E940F2AB7FF0895821B91
:1051F000930B08958F929F92AF92BF92CF92DF92BE
:10520000EF92FF92CF93DF93EC01688179818A81DD
:105210009B81611571058105910521F464E279EDA9
:105220008BE597E02DE133EF41E050E00E94BB2990
:1052300049015A019B01AC01A7EAB1E40E94DA29B5
:105240006B017C01ACEEB4EFA50194010E94E8294A
:10525000DC01CB018C0D9D1DAE1DBF1DB7FF03C032
:105260000197A109B04888839983AA83BB839F775C
:10527000DF91CF91FF90EF90DF90CF90BF90AF90F4
:105280009F908F9008950E94FA28089580E091E001
:105290000E94FA280895B0E0A0E080930001909366
:1052A0000101A0930201B09303010895FB01DC0109
:1052B00002C005900D9241505040D8F70895FC016E
:1052C0004150504030F001900616D1F73197CF0190
:1052D0000895882799270895DC0101C06D934150F6
:1052E0005040E0F70895F999FECF92BD81BDF89A3C
:1052F000992780B50895A6E1B0E044E050E00C9411
:10530000AD29A8E1B0E042E050E00C94AD29262F91
:10531000F999FECF92BD81BDF89A019700B40216AB
:1053200039F01FBA20BD0FB6F894FA9AF99A0FBE59
:1053300008950396272F0E9488290E948729252FE8
:105340000E948829242F0C9488290196272F0E94D7
:1053500088290C948729DC01CB01FC01F999FECF47
:1053600006C0F2BDE1BDF89A319600B40D924150ED
:105370005040B8F70895052E97FB1EF400940E9444
:10538000D22957FD07D00E94ED2907FC03D04EF427
:105390000C94D22950954095309521953F4F4F4F11
:1053A0005F4F089590958095709561957F4F8F4FD1
:1053B0009F4F08950E940F2AA59F900DB49F900DB6
:1053C000A49F800D911D11240895B7FF0C94DA2934
:1053D0000E94DA29821B930B0895A1E21A2EAA1BC0
:1053E000BB1BFD010DC0AA1FBB1FEE1FFF1FA21795
:1053F000B307E407F50720F0A21BB30BE40BF50B92
:10540000661F771F881F991F1A9469F7609570951A
:10541000809590959B01AC01BD01CF010895A29F9D
:10542000B001B39FC001A39F700D811D1124911D78
:10543000B29F700D811D1124911D0895F894FFCF26
:10544000C40DC40DCD0DCD0DCF0DCD0DCD0DCD0D9C
:10545000C40DC40DD40DCD0DCD0DD40D2F14571486
:10546000AA145714AA148A14C214AA14CA15D71558
:10547000CC1BCC1B281C281C811C9B1C011C011C48
:10548000A81C7E1D8D1D8D1DF51A1C1B231B281BA2
:105490002D1B321B371B3C1B411B461B4B1B501B40
:1054A000531B581B5B1B5E1B611B641B671B6A1B2A
:1054B0000100000001191A1B1C1D1E1F20212201C2
:1054C000020101005B06C30EA20E9E0E9A0E01A3FE
:1054D000756AB7A550C8C500010202020206060699
:1054E0000909090909090F0F0F0F0F0F15151518D5
:1054F00019191919191919191919232425252525D7
:105500002525818283E200E900EA00B500B600B7F4
:1055100000CD008301CC008A019201940121022375
:105520000224022502260227022A02B300B4006FD9
:10553000007000F7313332946697C6F4F5F6909117
:1055400092934022BC8A016801AC0066087F089FE4
:02555000080051
:00000001FF
