:100000000C9445040C948C040C948C040C948C0477
:100010000C948C040C948C040C948C040C948C0420
:100020000C948C040C948C040C94601B0C941C1B7E
:100030000C945B1C0C948C040C948C040C948C0419
:100040000C948C040C948C040C948C040C948C04F0
:100050000C948C040C94371C0C948C040C948C041D
:100060000C948C040C948C040C948C040C948C04D0
:100070000C948C040C948C040C948C040C948C04C0
:100080000C948C040C948C040C948C040C948C04B0
:100090000C948C040C948C040C948C040C948C04A0
:1000A0000C948C040C948C040C948C0405010902AF
:1000B000A10185020901A100050919012905150001
:1000C00025019505750181029501750381010501E1
:1000D000093009311581257F950275088106093897
:1000E0001581257F950175088106050C0A380215D2
:1000F00081257F950175088106C0C005010980A191
:1001000001850319012AB700150126B7009501756D
:10011000108100C0050C0901A101850419012AA064
:1001200002150126A002950175108100C005010984
:1001300006A1018505050719E029E71500250195A8
:1001400008750181020507190029EF1500250195A1
:10015000F0750181020508190129059505750191C0
:1001600002950175039101C00660FF0961A10109B3
:1001700062150026FF0095207508810209631500AD
:1001800026FF00952075089102C005010906A1010E
:10019000050719E029E71500250195087501810279
:1001A0009501750881010507190029FF150026FF33
:1001B0000095067508810005081901290595057542
:1001C000019102950175039101C00000000000003B
:1001D000000000000000000000000000000000001F
:1001E00000000000000000000000000000007E0F82
:1001F00000D4FFFFFFC700000078000000000000EF
:1002000000002A2B28000000000000000000000071
:10021000000000000029000000002C1E34202122D4
:1002200024342627252E362D3738271E1F2021223D
:10023000232425263333362E37381F0405060708B6
:10024000090A0B0C0D0E0F101112131415161718A6
:10025000191A1B1C1D2F3130232D350405060708E4
:10026000090A0B0C0D0E0F10111213141516171886
:10027000191A1B1C1D2F3130354CFD377A585A0086
:100280000004E6D6B4460200210116000000742FD7
:10029000E5A3E0082002DA5D003D8889C65436C334
:1002A000174FE4E20F51A7C5CFA87D2910AFA95E73
:1002B0000B78E2A72D77A71BA1979181A3F8A6D869
:1002C0000388B51AD029329946E85021B2364F8EAC
:1002D000DD3C0C8BE4E4E66406BA0B63B3638E4545
:1002E00042A00CC4DD3CC526FBABEA804BCC995840
:1002F0001B394C067C7A2056FF34E26DAA6606B99B
:1003000062EEAD900BFAA00F1500254CCDF8E23B44
:10031000325001AE9F80E9A20B91175BD86A804AE8
:10032000BC141F3D230F6220F0749E05814FE339FA
:100330004101C3414580237E3030FE9F9CFFB85D64
:10034000BE1AC22D88C4F22FBF27A65E26FD4B32EF
:10035000ADC9AEC6745E47F02C1A0566AB118DF3BD
:100360000148797C969C7A801DE6FB394DD568530F
:1003700086B8158DEB5C941BF3AB5BB3ED6CCDECE9
:10038000CF15D0E6E63DB2E58767D54AB296444B35
:1003900035A01C8FE2C8F7EEFCE4E8F594BE97DBCD
:1003A000CCF32404D296BED62FB7583376571D0708
:1003B0007495730B344353A6C0C1F2D570798DB1D7
:1003C000CCFC71E184A514A974C25E4E8618FCF8B9
:1003D0006BA367AC374939CB1751814677035D234F
:1003E000F376205FE254A7C58871A1D99F4B519540
:1003F00068CA3A4DA992C10B10D4E242B773645B4C
:100400001D5A6D53782026A5204AED05F74C998298
:1004100042DEB7553C9BA31F8E51511E1DCC1C7C48
:10042000800D8E256B0EC6E69144920DB8CA114C14
:10043000C034085D8C8AE7E3669E659D49C777C92D
:1004400048BEB1D07E637AB8C97E98F3DEE71C65FA
:100450001253F5A87C0D879C490D6C41CB0ED7102B
:10046000C057E9CED84E732D6A3C59634F55FFD023
:100470000AABB7F12C84402EABFEF170A1B0150B86
:10048000F7DAA0B04796E5C6432D4549A01F3E5078
:100490003644840906F2FD76C37301374D3F7B91E4
:1004A000300DF361BCBE4AA7F767F26474C812B19D
:1004B0000F5074DEC156978B6CD05453B99F43765E
:1004C0000970F8499F83C3FF8CA9580222E0B7C284
:1004D000288B0AC29A15DB589FEA88E04AE3D6B90E
:1004E0001851E0FCB6A98EF28E1A26143ABB896622
:1004F0005502370061403AFBA0FDD1B98B4C8AD838
:10050000B19D98502A6D0EC485FF3C795C9B20D12B
:1005100034C6D8EDED45725365854572C84B0C491C
:10052000BD0430FA26B5E0B24DA118847DC5DDDFEB
:10053000A704E8C6D7C7A31DFF901CB94066F28088
:100540006A38F6F887EEB946926D87022D1284D08C
:100550000BBE43EE1A958ED4FF6E117C4966149A39
:10056000D8EA8A663DD53CCE99AF0C733B5F5C916F
:1005700001D500000000E8D78DF569DEAAEF000183
:10058000F605A1100000B97C8F21B1C467FB020001
:1005900000000004595A35001E001F0020002100F1
:1005A00022002300000029002B0014001A0008007C
:1005B0001500170000004B0039000400160007006A
:1005C00009000A0000004E00E1001D001B000600AB
:1005D000190005000000E400E000E20000002C002B
:1005E000E6002C412C002A002A002E002D002700B6
:1005F000260025002400310030002F0013001200D7
:100600000C0018001C0000002800340033000F000C
:100610000E000D000B00E300E50038003700360047
:1006200010001100050001003A003B003C003D00B5
:100630003E003F00000001000100010052000100E7
:1006400001000100000001000100500051004F00B6
:10065000010001000000005C010001000100010038
:100660000100010000000100010001000000010084
:1006700001000100010001000100450044004300A9
:1006800042004100400001000100010001000100A2
:100690000100010001000000010001000100010053
:1006A0000100010001000100010001000100010042
:1006B0000100010001000100010001000100010032
:1006C0000100010000000100010001000100010023
:1006D0000100010000000100010001000100010013
:1006E0000100010000000100010001000100010003
:1006F00001000100000001000100010000000100F4
:1007000001000100010001000100010001000100E1
:1007100001000100010001000100010001000100D1
:1007200001000100010000000100010001000100C2
:1007300001000100010001000100010001000100B1
:1007400001000100010001000100010001000100A1
:100750000100010000000100010001000100010092
:100760000100010000000100010001000100010082
:100770000100010000000100010001000100010072
:100780000100010000000100010001000000010063
:100790000100010001000100010001000100010051
:1007A0000100010001000100010001000100010041
:1007B0000100010001000000010001000100010032
:1007C0000100010001000100010001000100010021
:1007D00001000100010009025B00030100A0FA0909
:1007E0000400000103010100092111010001224060
:1007F000000705810308000A090401000203000044
:1008000000092111010001222200070582032000B6
:100810000107050303200001090402000103000091
:100820000009211101000122BC00070584032000FA
:100830000A1201000200000008276201A001000165
:100840000203011C037600690061006C003A006637
:1008500000360034006300320062003300630000A1
:100860000010034C0069006400640065006C006CBB
:100870000000001003670072006C00640074006DDB
:10088000006B000000040309040011241FBECFEF19
:10089000DAE0DEBFCDBF04B603FE27C080915B0265
:1008A00090915C02A0915D02B0915E028730904B06
:1008B000A740B04BD1F410925B0210925C021092F0
:1008C0005D0210925E0214BE84B7877F84BF0FB6AC
:1008D000F894A895809160008861809360001092E0
:1008E00060000FBEE0E0F8E3099511E0A0E0B1E0A0
:1008F000ECE1F4E402C005900D92A636B107D9F7F9
:1009000022E0A6E6B1E001C01D92AB35B207E1F7E7
:100910000E94821C0C94DA210C940000E8EDF0E0B7
:1009200080818E7F80831092E2001092DA00109214
:10093000E100A0EEB0E08C9181608C9380818F7794
:10094000808319BCA7EDB0E08C918E7F8C93808161
:100950008F7E80831092280208952091E4003091C8
:10096000E50095E6A9012091EC00822F817020FF1F
:1009700006C08091E80080FF06C080E008952091C5
:10098000E80022FD1AC080914D02882389F085304D
:1009900089F08091EB0085FD0FC02091E40030913B
:1009A000E50042175307F9F29150E1F684E008950B
:1009B00082E0089583E0089581E00895EF92FF9228
:1009C0000F931F93CF937C018B010E94AD04C82F1E
:1009D000811117C08091E80085FD0BC08091E8006F
:1009E0008E778093E8000E94AD04882399F3C82F86
:1009F00008C0F70181917F018093F1000150110936
:100A000049F78C2FCF911F910F91FF90EF90089590
:100A100080914F0287FF13C08091E80082FF06C0DB
:100A20008091E8008B778093E80004C080914D02AC
:100A30008111F2CF089580914D028823D9F38091DE
:100A4000E80080FFF8CF8091E8008E77ECCF982FF8
:100A50009093E900242F762F50E0891731F07091A0
:100A6000EC002091ED005091F00021FD07C09F5F48
:100A7000973071F78093E90081E008953091EB00A1
:100A80003E7F3093EB003091ED003D7F3093ED00E1
:100A90003091EB0031603093EB007093EC002093C9
:100AA000ED005093F0002091EE0027FDE0CF80E0B4
:100AB0000895CF92DF92EF92FF920F931F93CF93FF
:100AC000DF93C8EDD0E088818F7E8883E7EDF0E08A
:100AD00080818160808384E082BF81E080932802EE
:100AE00088818E7F888302EE10E0F80110821092D8
:100AF000DA0081EEC82ED12CF601108288818F7722
:100B0000888388818068888388818F7D888319BCE9
:100B100010924D0210924E0210924C0210924B0213
:100B200090EEE92EF12CF70180818B7F8083888104
:100B30008160888342E060E080E00E942705F60142
:100B400080818E7F8083F8018081816080838081B5
:100B500088608083F70180818E7F808388818061B7
:100B60008883DF91CF911F910F91FF90EF90DF90DD
:100B7000CF900895FC0180915502909156028617FE
:100B80009707A0F06115710529F49091E8009E7710
:100B90009093E80090E06115710551F4911108C03F
:100BA0008091E80082FF34C080E00895BC01F2CF5C
:100BB00080914D028823C1F18530C1F18091E80018
:100BC00083FD30C08091E80082FDEACF8091E8008B
:100BD00080FFE1CF8091F3002091F200382F611562
:100BE000710519F02830310558F091E028303105B1
:100BF00009F090E02091E8002E772093E800CBCF19
:100C000081918093F100615071092F5F3F4FE7CFD1
:100C100080914D02882341F0853041F08091E800B9
:100C200083FFBECF81E0089582E0089583E00895B8
:100C300080912A02089587E797E7909301088093AF
:100C4000000888E19AE00FB6F894A89580936000B8
:100C50000FBE90936000FFCF9C014FB7F894809136
:100C60001F0290912002A0912102B09122024FBF59
:100C7000821B930B08952FB7F89480911F029091D7
:100C80002002A0912102B09122022FBF089520914D
:100C90000C012223C9F02091230227FF15C0E62F63
:100CA000E695E695E695EE31D8F4E80FF92FF11DBB
:100CB000677021E030E001C0220F6A95EAF72095C5
:100CC0008281282322830895FC013296089621917F
:100CD000621303C0DF0111971C92E817F907B9F7F7
:100CE000089520910C012223C1F02091230227FFB7
:100CF00014C0E62FE695E695E695EE31F8F4E80F98
:100D0000F92FF11D677021E030E001C0220F6A95D4
:100D1000EAF78281822B82830895FC0132962FEFBD
:100D200030E04191641751F02F3F19F4411101C097
:100D3000232F3F5F3630A9F72F3F09F40895820F24
:100D4000911D27FD9A95FC016283089520911C0254
:100D500030911D022817390771F090931D0280937E
:100D60001C02E0911A02F0911B02309721F00084DE
:100D7000F185E02D0994089520911802309119020F
:100D80002817390771F09093190280931802E091A7
:100D90001A02F0911B02309721F00680F781E02DB6
:100DA00009940895E0911A02F0911B02309721F006
:100DB0000190F081E02D099480E008950E943B06A7
:100DC0009C019091120280911302982B21F0309394
:100DD0000F0220930E029091140280911502982B1D
:100DE00021F030930D0220930C02E0911A02F09151
:100DF0001B02309749F082E0809310020480F58155
:100E0000E02D80E192E00994089590911202803FD4
:100E100059F48091130287FF0DC0109213029111B3
:100E20000BC010920A0208C0813F81F48091130226
:100E300018169CF3992381F0809114029091150269
:100E4000892B09F064C0109209020895823F49F489
:100E500097FFF0CF10921202809113028111ECCF14
:100E6000E0CF833F19F41916ACF3E4CF20911402BC
:100E7000893F29F41216F4F610921402DBCF8A3F50
:100E800019F427FFD7CFF8CF209115028B3F29F413
:100E900027FFD0CF10921502CDCF8C3F19F4121638
:100EA000CCF3C8CF843F31F4809111028E7F8093C0
:100EB0001102C0CF853F21F4809111028D7FF7CFC1
:100EC000863F21F4809111028B7FF1CF873F21F47F
:100ED00080911102877FEBCF883F21F4809111022E
:100EE0008F7EE5CF8D3F31F480910B028E7F809312
:100EF0000B02A0CF8E3F21F480910B028D7FF7CFA4
:100F00008F3F09F097CF80910B028B7FF0CF089530
:100F100080910B0280FD16C081FD16C082FD16C0B7
:100F2000809109028823A1F0883280F428E0829F12
:100F3000C001112468E270E00E944621862F672BD1
:100F400039F0089582E0089584E0089588E00895D6
:100F500081E0089580910B0280FD14C081FD14C0D2
:100F600082FD16C080910A02882381F0843180F4CA
:100F700022E3829FC001112464E170E00E944621B7
:100F8000862F08958CE0089589E1089585E00895FD
:100F900082E30895803F31F40E94AA0781958093EF
:100FA00013020895813F19F40E94AA07F8CF823FE7
:100FB00031F40E94AA078195809312020895833F1D
:100FC00019F40E94AA07F8CF893F29F40E948807E4
:100FD0008093140208958A3F21F40E948807819526
:100FE000F7CF8B3F31F40E948807819580931502DB
:100FF00008958C3F19F40E948807F8CF843F31F49C
:10100000809111028160809311020895853F21F43F
:10101000809111028260F7CF863F21F48091110206
:101020008460F1CF873F21F4809111028860EBCF7B
:10103000883F21F4809111028061E5CF8D3F31F42A
:1010400080910B02816080930B0208958E3F21F402
:1010500080910B028260F7CF8F3FB9F780910B022E
:101060008460F1CF80E00895F894E82FE295EF7066
:10107000F0E031A1282F2F7081E090E001C0880FAF
:101080002A95EAF7982F9095932391A392A1892B03
:1010900082A3789408959091230292FF06C0282F8E
:1010A00028712830F9F4877F846093FF06C0282FC9
:1010B00028712831F1F4877E84612091240220FF79
:1010C00006C0382F38713830D9F4877F816021FF0E
:1010D00006C0282F28712831D1F4877E816194FDC4
:1010E000877E0895282F24712430F9F68B7F88603D
:1010F000DCCF282F2471243101F78B7E8861DDCF6E
:10110000382F3171313019F78E7F8860E0CF282F6A
:101110002171213121F78E7E8861E1CFCF93DF935A
:10112000EC0182389105A9F1D8F58133910509F4D4
:1011300096C048F58932910509F48AC08A9709F466
:1011400095C0C11521E5D20708F0BCC0C11530E536
:10115000D30708F014C1C83ED10508F09CC0C03EBA
:10116000D10560F5C83AD10508F087C0C53AD10568
:1011700008F0FDC0C130D10509F12097F9F0C43065
:10118000D105E0F440C08533910509F45AC0C997F0
:10119000C1F680912302837089F0C0EED0E00EC0CA
:1011A000833E910599F170F4803E910501F1823EF4
:1011B000910539F68091230282FD21C0CE01DF9195
:1011C000CF910895863E910561F1873E910571F1B9
:1011D000843E910509F0B5CF8091240281FFEECFC6
:1011E00080912302C7EED0E084FD0DC0E7CF80914F
:1011F000230280FD12C19091240290FFDFCFC3EE45
:10120000D0E084FFDBCFD0E0C0E0D8CF80912302D4
:1012100082FD06C19091240290FDBFCF84FFCECF06
:10122000F2CF8091230283FDDDCFC8CF80912302CE
:1012300083FDF9C09091240291FFF0CFC4EED0E07D
:10124000BDCF8091230285FFB9CFC9E2D0E0B6CFF0
:101250008091230285FFB2CFC5E3D0E0AFCF80916C
:10126000230286FFABCFCAE2D0E0A8CF8091230251
:1012700086FFA4CFC1E3D0E0A1CFCF3BD10518F6C4
:10128000C85AD0E0CC0FDD1FC85EDE4F0990D88170
:10129000C02DD46493CFC11540E2D40758F4C115D2
:1012A00081E0D80708F08ACFC03FD10508F4ABCF62
:1012B000D06584CFC11590E4D90708F4A4CFDF70BE
:1012C000D06A7CCFC11525E5D20700F5C11534E5FC
:1012D000D30708F08AC0C11543E5D40708F071C0F0
:1012E000C11582E5D80708F467C0CE01837099273D
:1012F00021E030E002C0220F331F8A95E2F7C69545
:10130000C69580E2C89FE001112452C0C11599E53D
:10131000D907A8F4C11528E5D20708F06BC0C1159C
:1013200036E5D30708F06FCF8C2F0E944B08C82FEB
:10133000D0E0DC2FCC27CC27DF71D0623FCFC115A6
:101340004AE5D40708F45BC0CE019056811590425F
:1013500008F059CF8D2F8F710E944B0890E0982F85
:10136000882788279F719C012C2BE901E6CFC55A5D
:10137000D0E0CB5EDE4FC881D0E0D0641FCFCE017D
:10138000E4E096958795EA95E1F783702C2F2695F2
:101390002695237040E2249F90011124382B8C2F36
:1013A0008370C1E0D0E002C0CC0FDD1F8A95E2F768
:1013B000C22BD32BDC6802CFDC2FCC27C16FD06AC5
:1013C000FDCECE018370992721E030E002C0220FCC
:1013D000331F8A95E2F7C695C69590E2C99FE00152
:1013E0001124C22BD32BDA68E9CEDC2FCC27C46FB3
:1013F000D06AE4CEDC2FCC27C06FD06ADFCE8C2F32
:101400008F700E944B0834E0D695C7953A95E1F766
:10141000CF709C2FEC01D069D1CEC9E3D0E0CECE05
:10142000C2EED0E0CBCEC6EED0E0C8CE8091E501D2
:10143000882331F01092E5011092E4011092E3014B
:10144000089580959091E20198239093E201089588
:101450008091E2019091E101892B9091E001892B2B
:10146000809368018091E501882329F10E943B0661
:101470002091E3013091E401821B930B8838934162
:1014800010F00E94160A809168019091E501892B65
:101490008093680180910C01882341F1809123029F
:1014A00087FF24C08EE1EAE6F1E090E0815000F58C
:1014B00091110E94160AE0911A02F0911B023097D6
:1014C000E1F080910C01882359F08091230287FF7D
:1014D00007C0809168018093690185E0809368016D
:1014E0000280F381E02D88E691E0099486E0DBCF6D
:1014F00021912223D9F29F5FD9CF08951092DF0165
:101500001092DE011092DD0108958091DC018111BD
:101510001092DC0108958091DB019091AA0198134B
:1015200001C008958F5F8770FACF9E3F49F1990FF0
:10153000990F990FE92FE80F9E2F9770E695E69582
:10154000E69583E0E89FF0011124E757FE4F50E055
:1015500040E080E0219130E0092E02C036952795C9
:101560000A94E2F721703327042E01C0220F0A9457
:10157000EAF7822B4F5F5F4F4330510559F70895CB
:1015800080E008959E3F69F1990F990F990FE92F17
:10159000E80F8E2F877041E001C0440F8A95EAF76B
:1015A000E695E695E69583E0E89FF0011124E7577C
:1015B000FE4F30E020E070E05191DF011197CB0148
:1015C000022E02C0969587950A94E2F78170819564
:1015D0008527842385278C932F5F3F4F2330310548
:1015E00059F7089590E080E00E94BC0690E080E00A
:1015F0000E94A6061092E1011092E0010E94280AC2
:1016000086E0E0E1F2E0DF011D928A95E9F71092B1
:101610000A021092090210920B020C94DE068093CB
:101620005A020C94F20A80915A02982F96709630C2
:1016300019F488600C940F0B877FFCCF21E030E019
:1016400001C0220F8A95EAF7209580915A028223E1
:101650000C940F0B9091DF01809589238093DF011B
:10166000282F277039F4282F082E000C330B9217DF
:10167000130621F49091240292FF07C08595859569
:1016800085950E941E0B0C947E0A089521E030E09F
:1016900001C0220F8A95EAF780915A02822B0C949E
:1016A0000F0B9091240292FD10C098E0899F900149
:1016B0001124622B6093DF010E94460B0E943B06BF
:1016C0009093DE018093DD0108950C94460B809386
:1016D000E6010C94F20A882321F00E94210A0C945E
:1016E000280A0895882339F09091E201982B90936D
:1016F000E2010C94280A0895882379F19CEF980F51
:10170000913A38F4682F88E691E00E9447060C94DD
:10171000280A90E2980F983050F4877091E001C049
:10172000990F8A95EAF7892F0E94210AF0CF9BE54D
:10173000980F933020F490E080E00C94BC0698E57C
:10174000980F973120F490E080E00C94A606803F3B
:1017500020F00E9405070C94DE060895CF93C82F51
:10176000882309F46FC08CEF8C0F813AC0F580910B
:101770000C01882311F18091230287FF1EC0EC2FFA
:10178000E695E695E695F0E0E859FE4F828190E017
:101790004C2F477021E030E002C0220F331F4A95E2
:1017A000E2F782239323892B91F06C2F88E691E056
:1017B0000E9447060E94280A0AC0EAE6F1E080E794
:1017C00091E02191C21789F38E179F07D1F76C2FF3
:1017D00088E691E00E947106CF910C94280A80E27D
:1017E0008C0F883068F4C77021E030E001C0220F10
:1017F000CA95EAF78091E201822B8093E201ECCF57
:10180000EBE5EC0FE33040F4F0E0EB5EFE4F80815F
:1018100090E0CF910C94BC06E8E5EC0FE73150F472
:10182000F0E0EE0FFF1FE85EFE4F80819181CF91C7
:101830000C94A606C03F30F08C2F0E94CA07CF91AF
:101840000C94DE06CF91089590914D02943029F5C5
:101850008093250270932702609326029093E900FB
:101860008FEF9091E800815095FD06C095ED9A9517
:10187000F1F700008111F5CF8091E80085FF0DC0E0
:1018800050E040E063E070E085E292E00E94DE0418
:101890008091E8008E778093E8000895BC0184E091
:1018A0000C94240CBC0183E00C94240C9C0184E077
:1018B0008093E9009FEF8091E800915085FD06C07C
:1018C00085ED8A95F1F700009111F5CF8091E80040
:1018D00085FF0CC050E040E066E070E0C9010E9466
:1018E000DE048091E8008E778093E8000895CF931E
:1018F000DF93EC0180910C018823B1F180912302E8
:1019000087FF32C060E284E08093E9008FEF90911E
:10191000E800815095FD06C095ED9A95F1F700001D
:101920008111F5CF8091E80085FF1BC080910C01EB
:1019300070E050E040E0811104C050E040E068E019
:1019400070E0CE010E94DE048091E8008E778093E3
:10195000E80080E2FE01ABE2B2E001900D928A95D0
:10196000E1F7DF91CF91089568E081E0CDCF1F933B
:10197000CF93DF93182FCAE0D0E0893311F4C0E58C
:10198000D0E0812F0E94AE0B8FE99FE00197F1F725
:1019900000C000002197C1F7812FDF91CF911F91E7
:1019A0000C947C0B0F931F93CF93DF93C62FD42FF0
:1019B000022FFC0182818823A1F0609359020E94CA
:1019C0003B069093580280935702C77081E001C094
:1019D000880FCA95EAF7DF91CF911F910F910C9470
:1019E000720B80915902681335C080915702909113
:1019F00058020E942C06883C910560F510E21D0FEC
:101A0000CD17B9F080E28C0F883040F4C77081E0C8
:101A100001C0880FCA95EAF70E946B0B183048F492
:101A200081E09D2F977001C0880F9A95EAF70E9478
:101A3000720B802F0E94B70C183098F4D77081E099
:101A400001C0880FDA95EAF7DF91CF911F910F91CE
:101A50000C946B0BC77081E001C0880FCA95EAF740
:101A6000F3CFDF91CF911F910F910895AF92BF9265
:101A7000CF92DF92EF92FF920F931F93CF93DF935A
:101A8000EC018AE0A82E2881222309F48CC02130A1
:101A9000C9F599818A81913021F422960E94B70C70
:101AA00005C0923029F422960E94AE0B2196EBCF0E
:101AB000933021F422960E947C0BF8CF943011F0E1
:101AC0002196F4CF229630E020E0AE014F5F5F4FC9
:101AD0008053990B8A30910550F02150310930F331
:101AE0008FE99FE00197F1F700C00000F6CFA29EBA
:101AF000B001A39E700D11249C01260F371F898110
:101B0000EA01E3CFE22FF0E0E650FE4FB490822FDF
:101B100086958695869590E0FC01E651FE4FE4900F
:101B20002770F12C022E02C0F594E7940A94E2F794
:101B300031E0E322FF24FC01E652FE4FC490D12C99
:101B4000022E02C0D594C7940A94E2F731E0C32272
:101B5000DD24FC01E653FE4F049110E002C0159510
:101B600007952A95E2F701701127E114F10419F0A5
:101B700081EE0E94AE0BC114D10419F086EE0E94D2
:101B8000AE0B8B2D0E94B70CCD2819F086EE0E946B
:101B90007C0BEF2819F081EE0E947C0B012B09F4DD
:101BA00085CF8CE27BCFDF91CF911F910F91FF907A
:101BB000EF90DF90CF90BF90AF900895CF93DF93D9
:101BC000C7E6D2E060E0CE010E94A6212196C115B1
:101BD00084E0D807B9F7DF91CF9108950F931F9351
:101BE000CF93DF938901843048F5693038F5483068
:101BF00028F521153C4531F420910A0130910B0163
:101C0000232BE1F090E1699FE001112450E0440FA3
:101C1000551FC40FD51F90E9899FC00DD11D1124F8
:101C2000612FCE0187960E94A621602FCE01889653
:101C3000DF91CF911F910F910C94A621DF91CF914D
:101C40001F910F9108958F929F92AF92BF92CF9262
:101C5000DF92EF92FF921F93CF93DF9380900A0160
:101C600090900B0181E090E090930B0180930A012A
:101C700086E9C82E85E0D82ED0E07601C0E014C0F9
:101C8000F50125913491412F6C2F8D2F0E94EE0D7F
:101C900082E0A80EB11C1F5F183091F780E1E80EBA
:101CA000F11CCF5FC93019F0570110E0E9CFDF5FB9
:101CB00080E9C80ED11CD43001F790920B018092BC
:101CC0000A01DF91CF911F91FF90EF90DF90CF90AD
:101CD000BF90AF909F908F900895CF93C82F6FEFD4
:101CE000811160EB83E290E00E94A6216FEF84E215
:101CF00090E00E94A6216FEFC11161E685E290E0BD
:101D0000CF910C94A62180E00E946D0E60E086E2E7
:101D100090E00E94A6210E94230E0E94DE0D81E029
:101D20000C946D0ECF93C0912402C2FB992790F9B9
:101D3000981781F080FBC2F9C093240260912302BE
:101D400084E090E00E94A6216C2F82E290E0CF9187
:101D50000C94A621CF9108950F931F93CF93DF93F7
:101D6000843030F5693020F5483010F520E1629F6D
:101D70008001112450E0440F551F040F151F30E956
:101D8000839F000D111D1124C80187960E94982180
:101D9000C82FD0E0DC2FCC27C80188960E9498215C
:101DA0009E01282BC901DF91CF911F910F910895BA
:101DB00090E080E0F8CF462F209116023091170274
:101DC000232B49F4843038F4793028F4683018F43F
:101DD000672F0C94AC0E90E080E00895CF92DF92D4
:101DE000FF920F931F93CF93DF936C0100915A02E0
:101DF0008091E601082BC7E0D0E010E0FC2EC8017E
:101E00000C2E02C0959587950A94E2F780FD0CC0D0
:101E10002197A0F7F12C8F2DDF91CF911F910F917A
:101E2000FF90DF90CF900895B6018C2F0E94DB0EBB
:101E30000E948E08019761F3EECFCF93DF93EC0100
:101E40000E94EE0EBE010E94DB0EDF91CF910C943A
:101E50008E08FC01808191810E941D0F292F2F7017
:101E600092959F7092509E3078F4E92FF0E0E45202
:101E7000FE4D0C945A21803F19F020F4883E20F446
:101E800081E00895843FE1F380E00895883EC0F347
:101E9000813FD1F7F5CF822F869586958695089557
:101EA00083E290E00E949821803B89F484E290E0F4
:101EB0000E9498218F3F59F485E290E00E9498217A
:101EC00091E0813609F090E0892F8170089580E0DB
:101ED000FCCFCF9384E090E00E949821C82F82E24B
:101EE00090E00E949821982F8C2FCF910895109206
:101EF000E20180910C01EAE6F1E0882359F080913B
:101F0000230287FF07C08EE1DF011D928A95E9F762
:101F10000C94F20A86E0F8CF1F93CF93DF93CDB7EE
:101F2000DEB7AA970FB6F894DEBF0FBECDBF8FE421
:101F300092E02091F100DC012D93CD01B2E08735D4
:101F40009B07B9F780915002833009F471C0B8F44F
:101F5000813009F448C0823009F4B2C08091E800B1
:101F600083FF3AC180914F02909150029A3008F05D
:101F700033C1E92FF0E0E651FE4D0C945A218A302E
:101F800009F48DC08B3009F470C0893039F7809125
:101F90004F02813219F780915302909154020097B9
:101FA00011F00297D9F68091E800877F8093E800CE
:101FB0008091E80082FF37C09091F3008091F20099
:101FC000029729F48091F1008B7F813021F4809178
:101FD000F10080932A028091E8008B778093E800DB
:101FE0000E940805BBCF80914F02813A09F0B6CF1D
:101FF0008091E800877F8093E80080915302909160
:102000005402892B61F460E28BE292E070E00E945E
:10201000BA058091E8008B778093E8009FCF60E05D
:1020200090E080E0F3CF80914D028111C1CF96CF37
:1020300080914F02813A09F091CF809153029091A3
:102040005402892B09F08ACF8091E800877F809322
:10205000E8008091E80080FFFCCF80910C01809324
:10206000F1008091E8008E77B9CF80914F028132E4
:1020700009F074CF8091530290915402892B09F09A
:102080006DCF8091E800877F8093E8000E9408056B
:102090008091510280930C010E94770F5FCF809155
:1020A0004F02813209F05ACF8091E800877F8093F8
:1020B000E8000E94080580915202809329024ECFC9
:1020C00080914F02813A09F049CF8091E800877FE3
:1020D0008093E8008091E80080FFFCCF8091290286
:1020E000BECF803899F0823809F076C080915302D3
:1020F0008F70873008F070C08093E9008091EB000A
:1021000085FB882780F91092E90006C080914B0278
:1021100090914C02911182609091E800977F90938A
:10212000E8008093F1001092F1008091E8008E7732
:10213000C0C1882309F4ADC1823009F04DC080913F
:1021400051028111B1C1809153028F702FEF280F7E
:10215000263008F041C08093E9002091EB0020FF79
:10216000A3C1933031F48091EB0080628093EB0047
:102170009BC19091EB0090619093EB0021E030E0E7
:1021800001C0220F8A95EAF72093EA001092EA0034
:102190008091EB008860EACF81111EC0109151023E
:1021A0001F778091E3008078812B8093E3008091FA
:1021B000E800877F8093E8000E9408058091E8008E
:1021C00080FFFCCF8091E30080688093E30082E091
:1021D000111183E080934D028091E80083FF0AC0D3
:1021E0008091E800877F8093E8008091EB00806217
:1021F0008093EB00AA960FB6F894DEBF0FBECDBF5A
:10220000DF91CF911F9108958058823028F7209157
:102210005102309152022C3DE3E03E07A1F583E0EC
:102220008A838AE289834FB7F894DE01139620E00F
:102230003EE051E2E32FF0E050935700E49120FF9D
:1022400003C0E295EF703F5FEF708E2F90E0EA30B1
:10225000C0F0C7968D939D932F5F243159F74FBFE0
:102260008091E800877F8093E8006AE270E0CE0109
:1022700001960E94BA058091E8008B778093E80070
:10228000ABCFC096E7CF8091530290915402432F79
:1022900055274330510509F44AC078F541305105BE
:1022A00009F485C08BE590E0E6EDF7E0423051059A
:1022B00009F092CF2091E800277F2093E800209139
:1022C0005502309156028217930708F49C0140E0B2
:1022D0002115310509F070C041116EC08091E800F0
:1022E00082FDC9CF80914D02882329F2853019F2F1
:1022F0008091E80083FFF2CFBECF4132510509F44F
:1023000047C04232510509F067CF8330910508F08C
:1023100063CFFC01EE0FFF1FE65AFE4F0190F081E4
:10232000E02D895A9E4FDC018C9190E01DC033272F
:1023300021303105E9F02115310579F022303105E0
:10234000F9F02330310509F047CFE3E4F8E0E491F8
:102350008E2F90E0E3E4F8E007C0E5E8F8E0E491D0
:102360008E2F90E0E5E8F8E0009709F435CFA2CF92
:10237000E3E7F8E0E4918E2F90E0E3E7F8E0F4CFB4
:10238000E1E6F8E0E4918E2F90E0E1E6F8E0ECCFB2
:102390008330910508F020CF880F991FFC01E05A87
:1023A000FE4F0190F081E02D89E090E083CF82E143
:1023B00090E0E1E3F8E07ECF80914D02882309F4BC
:1023C0005ACF853009F457CF8091E80083FD53CF71
:1023D0008091E80082FD82CF8091E80080FF78CF75
:1023E0009091F3008091F2002115310519F08830A9
:1023F000910550F041E0089709F040E08091E80035
:102400008E778093E80064CF44914093F100319639
:10241000215031090196E8CF803809F0DDCE809156
:10242000E800877F8093E80080914E028093F1005E
:102430007CCE8111D1CE10915102123008F0CCCE59
:102440008091E800877F8093E80010934E020E94FD
:102450000805112311F084E005C08091E30087FD99
:10246000FACF81E080934D0242E061EC81E00E946E
:10247000270542E261EC84E00E94270542E261EC1C
:1024800082E00E94270542E260EC83E00E9427057B
:10249000A3CE80915102813009F09ECE81E093302D
:1024A00009F080E080934C021092E9008091E800EE
:1024B000877F8093E8000E9408058ECE9F92AF929E
:1024C000BF92CF92DF92EF92FF920F931F93CF9321
:1024D000DF93CDB7DEB729970FB6F894DEBF0FBEF6
:1024E000CDBF8E010F5F1F4F89E0F80111928A95D1
:1024F000E9F786E4C82E81E0D82EF12CE12CAA243D
:10250000A394B12CF60181916F018F3F09F449C06A
:10251000F894E82FE295EF70F0E021A18F70A5010B
:1025200002C0440F551F8A95E2F7CA01922F982BDB
:1025300091A392A18095892382A3789400C0EFE4AF
:10254000F1E030E020E0912C41914F3F09F465C06B
:10255000A42FA295AF70B0E090968C9190E04F7050
:1025600002C0959587954A95E2F780FD56C08A2D61
:10257000022E01C0880F0A94EAF7982A2F5F3F4F76
:102580002830310509F7F601319780818F3F11F02E
:102590000E94340850EA5A95F1F7F801EE0DFF1D3C
:1025A00090828FEFE81AF80AE9E0EE16F10409F0DC
:1025B000A9CF49E050E0B8018AEE91E00E94842161
:1025C000FF24F394009709F4F12C892B41F189E061
:1025D000F801AAEEB1E001900D928A95E1F781E051
:1025E0008093E9010E943B069093E8018093E70104
:1025F0008091E7019091E8010E942C06059798F0E0
:10260000EAEEF1E0A0E0B2E081918D9341E0E33F9A
:10261000F407D1F71092E90106C080E0AECF8091B7
:10262000E9018111E5CF8F2D29960FB6F894DEBF11
:102630000FBECDBFDF91CF911F910F91FF90EF9013
:10264000DF90CF90BF90AF909F9008956AEE7EEF9D
:1026500090E080E00E94C42160E082E090E00E946F
:10266000A62160E083E090E00E94A6211092E6019E
:1026700060E084E090E00E94A62160E082E290E0C9
:102680000E94A62160E085E090E00E94A62160E023
:1026900086E090E00E94A6216FEF87E090E00E9424
:1026A000A62140E050E0BA0188E090E00E94B82105
:1026B00060E08DE090E00E94A62140E050E0BA0189
:1026C00088E190E00E94B82160E087E190E00E94FC
:1026D000A62140E050E0BA018CE190E00E94B821D0
:1026E00070E060E080E290E00E94C42140E050E0B1
:1026F000BA0188E190E00E94B82180E00E946D0E4E
:102700000E94830E40E050E0BA018FE090E00E940A
:10271000B82140E050E0BA0183E190E00C94B82188
:102720008F929F92AF92BF92CF92DF92EF92FF92E1
:102730000F931F93CF93DF9300D000D00F92CDB7AC
:10274000DEB77C01FC0183819481892B31F080818B
:10275000918189238F3F09F06CC40F900F900F90E7
:102760000F900F90DF91CF911F910F91FF90EF90FD
:10277000DF90CF90BF90AF909F908F9008950E9470
:10278000EE0E182F682F89819A810E94C20A6981F2
:102790007A81812F0E94DB0E8C01F70182818823D0
:1027A00009F43CC4980122513F452031310508F01D
:1027B0000EC48FEF93E00E949821025147E6C42E89
:1027C00042E0D42E8823D1F08091DF01877029F276
:1027D000F7018281882309F4C0CF82E00E942A0B8E
:1027E000BCCFC114F4E0DF0679F3C6010E94982142
:1027F000811101C001502FEFC21AD20A0111F1CF8D
:1028000019821A821B821C820FEF46013FEF831A46
:10281000930AC6010E94982189831A828823A1F213
:10282000813009F047C0560142E0A40EB11CC4013A
:102830000E949821982E8A83882331F2C5010E9434
:102840009821182F8FEF890D833068F4560153E0DB
:10285000A50EB11C1B83112321F0CE0101960E940D
:10286000360D6501D2CF84E09812FBCF560194E07B
:10287000A90EB11CC60103960E949821112309F4E8
:10288000A3CF882309F4A0CF8150990B089F900112
:10289000099F300D1124E12FE150FF0BCF01820F72
:1028A000931F0197F0F2EFE9FFE03197F1F700C0D5
:1028B0000000F7CFCE0101960E94360D5401D1CF12
:1028C00081E00E94460B0E94130B7ECF81E00E94A4
:1028D0001E0BF9CF82E0F5CF053FECE51E0709F4AA
:1028E0005DC008F457C0063F2CE5120709F45AC032
:1028F000882309F4AFC31092590202303CE5130754
:1029000008F430C106314CE5140730F0C8018A5F85
:102910009C45099708F026C10E94690F90932402F4
:102920008093230200315CE5150709F4EAC008F042
:1029300078C008309CE5190709F4D9C008F047C0F1
:102940000430FCE51F0709F4C6C098F502303CE5E9
:10295000130709F4BAC080912302826003301C453A
:1029600009F4B6C0609123021091240284E090E043
:102970000E94A621612F82E290E00E94A6210E947F
:10298000770F22CF27E245EE65EE44C326E241EE03
:1029900060EE40C327E245EE64EE3CC326E241EE22
:1029A00062EE38C327E245EE66EE34C328E241E02A
:1029B000EBCF80912302806106305CE5150709F4B6
:1029C00087C008F48CC080912302806281C080910E
:1029D00023028D7F0C309CE5190709F479C070F44F
:1029E000809123028C600A30FCE51F0709F470C057
:1029F00008F481C0809123028E7F6AC080912302F7
:102A0000877F0E303CE5130709F462C080912302F2
:102A10008B7F0F301C4508F45BC0809123028F7EB2
:102A200057C00B3F5CE5150709F45DC030F5033175
:102A30009CE5190709F46DC078F40131FCE51F0726
:102A400009F463C002311C4509F08CCF0E94770F56
:102A5000809123028F773CC005313CE5130709F4D0
:102A600060C008F474C08091240281600A3F1C4554
:102A700009F078CF8093240275CF0F3F8CE51807BB
:102A800009F44BC088F4809124028D7F0D3FECE562
:102A90001E0781F3809124028E7F0E3F1C4550F368
:102AA000809124028360E6CF01302DE5120709F4FE
:102AB00057C008F442C060E002301D4509F052CF13
:102AC0008EE090E00E94A6214DCF8091230281608C
:102AD0008093230247CF809123028460F9CF8091B5
:102AE00023028860F5CF809124028260C3CF809159
:102AF00023028064EDCF0E94770F809123028068CB
:102B0000E7CF809123028F7DE3CF809123028F7BDB
:102B1000DFCF80912302837FDBCF809124028C7FE3
:102B2000A9CF8091230282FB992790F921E0922777
:102B300090FB82F990FB83F9CBCF80912402982FF0
:102B4000909591708E7F892B90FB81F993CF0E9495
:102B5000770F90912302892F97FB87F98058B8CF80
:102B600061E0AECF06315CE5150709F080C28091C7
:102B7000E2018A7A91E009F490E09093880169E299
:102B8000811165E388E691E00E9471060E94280A9F
:102B90001BCE0E94770F8FEF94E3ECE081509040C2
:102BA000E040E1F700C000000E941B0681E07FC208
:102BB00080E07DC2C8010E94950AD82E89C2212FCB
:102BC0002F70D22E107F19F0D29490EFD922BB2013
:102BD000C9F0DD2069F080E2800F883010F08110AC
:102BE0000BC08091E201D82AD092E2010E94280A0B
:102BF000802F0E94AE0B15C08091E101D82AD0929F
:102C0000E101F4CF802F0E947C0BDD2051F0005EAB
:102C1000083010F0811025C08D2D0E94210A0E94DD
:102C2000280AE92DE850FF0B349710F40E94D206D1
:102C3000AA2009F492CD8091DF0180FD8ECDF701AD
:102C400012828595859585950E94460BC7010E9445
:102C500090138091DF018595859585950E941E0BC7
:102C60007CCDD0948091E101D822D092E101D7CFE0
:102C7000312F3F70D32E107F103219F0D29480EF95
:102C8000D822882081F041E0841609F450C0BB208E
:102C900009F459C0CC2079F1F701858180FFA8CFD4
:102CA0008F70858328C0BB2051F1C11004C0809172
:102CB000E5018D2921C051E0C51213C08091240285
:102CC00082FDAFCF8091E501D82AD81609F4A9CFAB
:102CD0000E943B069093E4018093E301D092E501CA
:102CE000A0CF85E0C812E3CF0E94160A8091DC01D4
:102CF000D812D092DC018D2D0E94720B92CFC110A0
:102D000006C00E94160A8D2D0E946B0B8ACF91E09F
:102D1000C91208C08091E2018D2109F482CF0E947E
:102D2000850AEFCFE5E0CE1609F47BCFEACFBB20D2
:102D300029F0F5E0FC1508F474CFDDCF24E02C1564
:102D400008F46FCFE0CFCC20F1F2F9E38F1237C156
:102D50002FEF37EE43E0215030404040E1F700C014
:102D60000000802F0E947C0B5CCF812F869586957A
:102D7000837061F0813009F054CFC8019370B110B5
:102D800002C090E080E00E94A6064BCFC80193707D
:102D9000B11002C090E080E00E94BC0642CF802FBC
:102DA000BB2039F00E94CA070E94DE060E94DE06A0
:102DB00038CF0E940507FACF812F837089F5B110B3
:102DC00030CF402F429546954770440F440F802FD7
:102DD0008F70042E01C0880F0A94EAF7202F20710B
:102DE00004FF07C02FE030E001C0220F4A95EAF748
:102DF0002095169516951370123069F050F43091A5
:102E0000E601113029F0822B83230E94670B09CF42
:102E1000832B822BFACF282B8091E6018227F5CFD6
:102E20008695BB2011F0812F8170882309F4F9CE9B
:102E3000402F429546954770440F440F802F8F7066
:102E4000042E01C0880F0A94EAF7202F207104FF96
:102E500007C02FE030E001C0220F4A95EAF7209525
:102E6000169516951370123069F050F430915A028D
:102E7000113029F0822B83230E940F0BD2CE832B9B
:102E8000822BFACF282B80915A028227F5CF1F7010
:102E9000BB2029F0812F0E94460B802F2DCF802F41
:102EA0000E946B0B812F0E941E0BBBCE802F92EFD6
:102EB000891609F448C0981570F0E0EF8E1629F1D4
:102EC000F1EF8F16C1F1BB2009F46DC0C11090CE97
:102ED000812F8F7135C023EF8216D1F134EF831229
:102EE000F2CF8091DC01BB2009F449C00E94210A85
:102EF0008091DF0187708430B1F50E947E0A812FB6
:102F00008F710E941E0BA12C8CCEBB2079F044E067
:102F10004C1508F486CE1F7181E090E001C0880F47
:102F20001A95EAF790915A028927A6CF55E05C15C9
:102F300008F477CEF0CF812F8F71BB2009F4B3CF87
:102F40000E94460B6ECE812F8F71BB20C9F3ABCF91
:102F500080E0BB2009F490CF1F7181E001C0880F91
:102F60001A95EAF789CF84E08C1568F21F71812FDA
:102F70000E94460B63E0812F0E94510BC4CF9091B9
:102F8000E201982B9093E20194E09C1540F40E949A
:102F90007E0A0E94850A64E0812F8F71EDCF81E067
:102FA0000E942A0BB0CFCC2079F0893341F4EFEFA7
:102FB000F7EE23E0E150F0402040E1F7D0CE8FE380
:102FC0009CE90197F1F7CBCE812F8F716CCF003147
:102FD000FFE51F0709F474CC01312FE5120709F44E
:102FE00079CC033F2CE5120709F4D0CC08F074CC5F
:102FF000083D4CE5140709F4C5CC093D5CE515070F
:1030000009F4D4CC073D9CE5190709F071CC26E200
:1030100041EE61EEC7010E94D20CD6CB00313FE5F4
:10302000130709F453CC01314FE51407D1F682E0C0
:103030004ECC85E0DE01119601900D928A95E1F764
:10304000F701228189819A81211199CB0E94950AE9
:10305000182F9DCB06311C4561F58091880169E2EE
:10306000811165E388E691E00E9447068FCD0A351D
:103070002DE5120709F49ACD58F401154CE5140713
:1030800009F487CD0E3D1C45A1F40E9426139CCB6C
:103090000B358DE5180709F48BCD0C351D4549F42A
:1030A0008091240282FB882780F991E089270E9481
:1030B000920EF701828100811181882309F47ACD73
:1030C000C8010E94EE0ED82E682FC8010E94C20AC5
:1030D000B8018D2D0E94DB0E0E948E088C01882E77
:1030E000F701B280C580C2943FE0C3228091DF0126
:1030F0008770A1F0AB2CBB2091F0812F807F8034B2
:1031000021F080E2800F883048F082E00E942A0B94
:103110008091DF018770AA24A3948111A12C912EA4
:1031200092942FE09222FBE0F91508F47ACDE92D74
:10313000F0E0EC50FE4D0C945A211F93CF93DF9397
:103140008091A901807FA9F48091A601882389F04C
:103150008091DB01D091AA016091A4017091A50139
:10316000A091A701B091A801C62FC72316E0D813DC
:1031700004C0DF91CF911F91089590E0109711F056
:10318000CF3F19F401968770F2CF189F9001199FD5
:10319000300D1124F901E555FE4F41814713F2CF5F
:1031A00040814613EFCF42814111ECCF43815481DE
:1031B0004A1B5B0B483C510528F78091A9018F7091
:1031C00080618093A901F901E055FE4F80818F70E5
:1031D0008061808384EA91E00E949013DF91CF9117
:1031E0001F910C948B0AAF92BF92CF92DF92EF9215
:1031F000FF920F931F93CF93DF93CDB7DEB7619705
:103200000FB6F894DEBF0FBECDBF8C0185E0F8018C
:10321000DE011D9601900D928A95E1F7F801E2809A
:1032200084EAA82E81E0B82E6091A7017091A801D0
:103230006115710509F432C19091A4014091A50175
:10324000892F84238F3F09F429C120813181C380D4
:10325000D480F090A601F601E61BF70BFF2009F4DD
:10326000E8C08091A901582F507FE83CF10508F093
:10327000ABC0511177C0FE2C431321C092131FC065
:10328000E1101DC08F7080618093A901C5010E946B
:1032900090138091A901F80185838F2D61960FB657
:1032A000F894DEBF0FBECDBFDF91CF911F910F917C
:1032B000FF90EF90DF90CF90BF90AF900895CD2812
:1032C00029F0822F83238F3F09F003C180E0F82F7C
:1032D000F170DF2E80FF3CC08091DB014091AA019C
:1032E00056E0841315C02D873E878D859E850E94EC
:1032F0001D0F292F22952F702230F0F0243018F561
:103300009F70F1F0F8019581907FD1F4D12C1EC00F
:1033100090E0589FF001599FF00D1124E555FE4FA4
:103320006181361306C06081261303C06281E612F4
:103330000FC001968770D5CF9F7011F0882331F3AD
:10334000805E883018F3C8010E949013FD2CA5CF31
:10335000EE2009F4A2CF8091A90181608093A90198
:10336000F12C9BCF431306C0921304C0F801EE204A
:1033700009F479C0C8010E94290F882309F1EE20C1
:10338000F9F08091A901803270F02091A401309170
:10339000A50138872F831986DB86CA868C87CE01E4
:1033A00007960E94901386E0F801A4EAB1E001902C
:1033B0000D928A95E1F70E949D18FF24F3946DCF3A
:1033C000C8010E949013F9CF51110AC084EA91E01C
:1033D0000E94901386E0F50111928A95E9F7C0CF1B
:1033E00043130FC092130DC0E1100BC0F801858389
:1033F000C8010E94901386E0F50111928A95E9F7C1
:103400004CCFC8010E94290F8823D1F2EE20C1F2CF
:103410008091A901803238F22091A4013091A50158
:103420003A8329831B82DD82CC828E83CE01019672
:10343000B8CFE83CF105F8F6FE2CEE2009F2431374
:103440001FC092131DC08091A90180FD10C0982F4C
:10345000907F69F0F8018583903F31F0982F907F3D
:10346000905F8F70892B8583C8010E94901386E03E
:10347000F801A4EAB1E001900D928A95E1F70DCF31
:10348000C8010E94290F81118ECF8091A90181600E
:103490008093A901C8010E949013FFCEEE2009F489
:1034A0008FCFC8010E94290FF82E882309F488CFF6
:1034B00086E0F801A4EAB1E001900D928A95E1F767
:1034C0008091A4019091A5010E941D0F0E949D185A
:1034D000E4CE81E08E25FBCE1F93CF93DF93CDB753
:1034E000DEB767970FB6F894DEBF0FBECDBF4B8B2C
:1034F0005C8B6D8B7E8B8F8B61111092E1011A8A30
:10350000198A85E0FE017396DE011D9601900D92E9
:103510008A95E1F70E943B062091DD013091DE01A2
:10352000821B930B8838934120F08091DF0182FF4A
:103530007FC00E943B062091E3013091E401821B91
:10354000930B8838934110F00E94160A86E0FE0122
:103550003D96DE01179601900D928A95E1F7CE0116
:1035600007960E94F318882389F016E08091DB010A
:103570009091AA01891349C067960FB6F894DEBFEF
:103580000FBECDBFDF91CF911F91089586E0FE0160
:103590003796DE01119601900D928A95E1F78A85A2
:1035A0009B85892B11F38F81988589238F3FE9F2C1
:1035B0002091AA0130E0C9010196877099274091B6
:1035C000DB014817190671F40E94770F1092AA01C7
:1035D0001092DB0186E0E4EAF1E0DF011D928A95BA
:1035E000E9F7C3CF96E0929FD001939FB00D1124CD
:1035F000A555BE4FFE01319601900D929A95E1F7C7
:103600008093AA010E948B0AB0CF819FC001112430
:1036100085559E4F0E94F318882309F4ADCF809101
:10362000DB0190E00196877099278093DB019ECFA4
:1036300082E00E942A0B7DCF1F920F920FB60F924D
:1036400011242F933F934F935F936F937F938F93A7
:103650009F93AF93BF93CF93DF93EF93FF93D0915B
:10366000E900DF708091EC00C82FC17080FDC0E8D8
:103670001092E9008091F000877F8093F0007894A9
:103680000E948C0F1092E9008091F0008860809376
:10369000F000CD2BCF70C093E900FF91EF91DF9147
:1036A000CF91BF91AF919F918F917F916F915F91DA
:1036B0004F913F912F910F900FBE0F901F90189533
:1036C0001F920F920FB60F9211242F933F934F9397
:1036D0005F936F937F938F939F93AF93BF93EF937A
:1036E000FF938091E10082FF09C08091E20082FF98
:1036F00005C08091E1008B7F8093E1008091DA002A
:1037000080FF24C08091D80080FF20C08091DA0023
:103710008E7F8093DA008091D90080FF9BC080E18A
:1037200089BD82E189BD09B400FEFDCF81E08093AF
:103730004D0280912802811109C00E948E040E94CE
:1037400059058091E20084608093E2008091E1005D
:1037500080FF17C08091E20080FF13C08091E200DB
:103760008E7F8093E2008091E20080618093E2008E
:103770008091D80080628093D80019BC85E0809346
:103780004D028091E10084FF29C08091E20084FF16
:1037900025C080E189BD82E189BD89B5982F9170EE
:1037A00080FFFBCF8091D8008F7D8093D8008091DF
:1037B000E1008F7E8093E1008091E2008F7E809314
:1037C000E2008091E20081608093E20080914E02ED
:1037D000882309F445C084E080934D028091E10084
:1037E00083FF27C08091E20083FF23C08091E10026
:1037F000877F8093E10082E080934D0210924E0219
:103800008091E1008E7F8093E1008091E2008E7FC5
:103810008093E2008091E20080618093E20042E0C8
:1038200060E080E00E9427058091F000886080932E
:10383000F000FF91EF91BF91AF919F918F917F9198
:103840006F915F914F913F912F910F900FBE0F900D
:103850001F90189519BC10924D021092280276CF35
:103860008091E30087FD93E090934D02B7CF789469
:103870001F921FB61F9211248F939F93AF93BF93F4
:1038800080911F0290912002A0912102B09122020A
:103890000196A11DB11D80931F0290932002A09359
:1038A0002102B0932202BF91AF919F918F911F90FF
:1038B0001FBE1F9018951F921FB61F9211248F9341
:1038C0009F93AF93BF9380911E02811113C080918B
:1038D0001F0290912002A0912102B09122024196F4
:1038E000A11DB11D80931F0290932002A09321027D
:1038F000B0932202BF91AF919F918F911F901FBEF5
:103900001F901895CDB7DEB7E2970FB6F894DEBFDB
:103910000FBECDBF84B7877F84BF0FB6F894A8953C
:1039200080916000886180936000109260000FBEFB
:1039300080E890E00FB6F894809361009093610066
:103940000FBE85B7806885BF85B7806885BF82E375
:1039500098E090936701809366010E948E040E9414
:1039600059058091E20084608093E2007894809110
:103970004D028823A1F01091E9001F709091EC0096
:10398000892F817090FD80E8182B1092E9008091BA
:10399000E80083FD0E948C0F1F701093E90082E005
:1039A00084BD93E095BD9AEF97BD80936E000E9411
:1039B000500F811102C00E94830E06E411E0AFE4B3
:1039C000EA2EA1E0FA2EF80181918F018F3F11F0CC
:1039D0000E943408E016F106B1F70FE411E0F7E5B4
:1039E000EF2EF1E0FF2EF80181918F018F3F11F052
:1039F0000E943408E016F106B1F7EAEEF1E0A0E02B
:103A0000B2E011921D9221E0E33FF207D1F790E07E
:103A100080E00E94A0218A3E9E4F21F40E94500F18
:103A2000811102C00E94261382E090E00E9498213A
:103A30008093F4010E94690F9093240280932302E3
:103A40000E945E128FEF96E7E1E081509040E040E7
:103A5000E1F700C000000E945E128091000280FF2A
:103A600008C06FEF7FEF90E080E00E94C4210E94C9
:103A70001B0683E090E00E9498210E94670B80E083
:103A800091E090931B0280931A0268E1662E712CDC
:103A900070E4572EE9E0AE2EE2E0BE2E8E010F5FFD
:103AA0001F4F80914D0240E1E42E52E1F52E85300A
:103AB00009F47FC10E945E12882359F08FB7F894F1
:103AC00040911F02509120026091210270912202C8
:103AD0008FBFE5EFF1E0A0E0B2E0F12CE12C3E2D4C
:103AE0008D919191981709F473C1292F282790E09F
:103AF000DD24D3944D2D422309F465C199A73AA73B
:103B00008D2191E009F490E09BA70E943B06816023
:103B1000782F9DA78CA749A55AA56BA58DA50E94B6
:103B20006C1AF701EB50FE4F8081D826D08286E0D8
:103B3000E0E1F2E0D80101900D928A95E1F7D09092
:103B40001202C0901302F0901402E090150210923D
:103B500012021092130210921402109215028D2D6F
:103B60008C2909F448C080910E0290910F020E94A6
:103B70002C069C0190910A02992309F482C32333F5
:103B80003105C8F19F3F19F09F5F90930A02DD2035
:103B900059F00E94AA079FEF1D140CF491E0899F31
:103BA000802D112480931202CC2059F00E94AA0784
:103BB0009FEF1C140CF491E0899F802D11248093B9
:103BC0001302309112023323B1F020911302222309
:103BD00091F045EB3403C0011124992309F411C17C
:103BE0009093120245EB240390011124332309F42E
:103BF0000CC1309313028F2D8E2909F448C0809197
:103C00000C0290910D020E942C069C0190910902D9
:103C1000992309F431C325363105C8F19F3F19F0C6
:103C20009F5F90930902FF2059F00E9488079FEF41
:103C30001F140CF491E0899F802D112480931402AD
:103C4000EE2059F00E9488079FEF1E140CF491E0BB
:103C5000899F802D11248093150230911402332303
:103C6000B1F020911502222391F045EB3403C001FD
:103C70001124992309F4CDC09093140245EB240339
:103C800090011124332309F4C8C0309315028091A8
:103C9000120290911302892B90911402892B90911A
:103CA0001502892B11F00E94DE0686E0F801A0E1E2
:103CB000B2E001900D928A95E1F70E94D2069091B0
:103CC000F301891721F00E94D2068093F3018091BD
:103CD0004D02843009F0E5CE83E08093E9008091C5
:103CE000E80082FFDECE8091E80090E085FF0AC008
:103CF0000E94AD0430E2C32ED12C7801882309F450
:103D00009AC091E08091E8008B778093E800992336
:103D100009F4C7CEE0901602F09017028981E114F1
:103D2000F10409F496C08E3F09F0DFC08A81833028
:103D300020F08550833008F0D8C0EA81EE3008F0DA
:103D4000D4C0F0E0E050FE4D0C945A2180914D0219
:103D5000843009F110921E020FB6F894A895609273
:103D600060000FBE5092600083B7817F846083BF84
:103D700083B7816083BF7894889583B78E7F83BF34
:103D80000FB6F894A89580916000886180936000D8
:103D9000109260000FBE80914C02882351F00E9467
:103DA0005E12E0E0F2E08191811147C2AE16BF06DB
:103DB000D1F780914D02853009F4C8CF0E94770F6A
:103DC0000E94D20677CE9F5FDD0C983009F092CE2C
:103DD0002FEFE21AF20A49E0E416F10409F07FCE6F
:103DE0008FEF8EA78FA718AA0E943B068160782FBD
:103DF0009AAB89AB4EA55FA568A98AA90E946C1AE7
:103E000096CE81E080931202EDCE81E08093130282
:103E1000F2CE81E08093140231CF81E080931502CD
:103E200036CF8091F100F70181937F01F1E0CF1A45
:103E3000D10809F466CF8091E80085FDF2CF80912A
:103E4000E8008B778093E8000E94AD04882399F303
:103E500058CF8D3009F4ABC0B8F4843009F48EC06B
:103E600048F4823049F108F07AC0813009F18FEFCF
:103E700089833BC0863009F497C008F48AC08C302F
:103E8000B1F780E18A8331C0813109F4EAC040F49E
:103E90008F3009F4B9C008F48EC00E94DE0D25C031
:103EA000833109F408C108F4DEC08E3F01F745CF25
:103EB0001A8289E08B8319C08A81823009F4D3C1C8
:103EC0008330E1F1813099F62FB7F89460911F02A9
:103ED0007091200280912102909122022FBF0E94B6
:103EE00060216B837C838D839E8380914D0284301F
:103EF00009F0D7CDF090E900FF2DFF70FF2E9091D3
:103F0000EC00892F817090FD80E8F82A82E0809390
:103F1000E9008091E80080FF0CC050E040E060E2E2
:103F200070E0C8010E94DE048091E8008E778093E3
:103F3000E8008F2D8F708093E900B3CD80910A0146
:103F400090910B01892B89F2DE011396E0E0F2E0FB
:103F500081918D9322E0E930F207D1F7C6CF8A81B3
:103F6000823009F084CF6B817C818D819E810E949B
:103F7000602186E290E00E94A621B7CF4C816B8140
:103F80008A810E94AC0E9827892798279E838D836B
:103F9000ACCF2D813E813227232732274C816B8184
:103FA0008A810E94EE0DA1CF0E94230E9ECF81E058
:103FB0008A8389E97FCFEC80F12C4DE1E416F1048E
:103FC00008F093CFCA80DB80DC24CD24DC244801B8
:103FD000E00EF11EC60189599D4FE814F90409F459
:103FE00084CFE9E9CE16E1E0DE0658F40E9498217C
:103FF000F4018483FFEFCF1ADF0A2FEF821A920AAF
:10400000E9CFF4011482F6CF80910A0190910B015F
:10401000892B09F46ACFCC80D12C4DE1C416D10490
:1040200008F063CFEA80FB80FE24EF24FE244801E1
:10403000CE0CDF1CC70189599D4FCE14DF0409F453
:1040400054CFE9E9EE16E1E0FE0620F4F4016481C4
:104050000E94A621FFEF8F1A9F0A2FEFE21AF20AA1
:10406000E9CF84E00FCFEC80F12C4DE1E416F104B0
:1040700008F03BCFCA80DB80DC24CD24DC2448015F
:10408000E00EF11EC60187968E149F0409F42DCF11
:10409000E0E4CE16E2E0DE0658F40E949821F40136
:1040A0008483FFEFCF1ADF0A2FEF821A920AEACF3A
:1040B000F4011482F6CFCC80D12C4DE1C416D1048A
:1040C00008F013CFEA80FB80FE24EF24FE2480E476
:1040D000E81682E0F80608F008CF80E492E08E1936
:1040E0009F098C159D0508F400CF4801CE0CDF1CFC
:1040F000C7018796CE14DF0409F4F7CEE0E4EE168C
:10410000E2E0FE0620F4F40164810E94A621FFEFA4
:104110008F1A9F0A2FEFE21AF20AEACF88E0EDE049
:10412000F1E0DE01919601900D928A95E1F780E22F
:10413000F80111928A95E9F784E0898388E0FE010D
:10414000B196DE01159601900D928A95E1F7CDCEDC
:104150008CE1898383E08A831B821C82C6CE8C819A
:10416000682F70E0762F66278B81860F972F911D21
:10417000092E000CAA0BBB0B25E0880F991FAA1F64
:10418000BB1F2A95D1F7AC01BD01405E5F4F6F4F59
:104190007F4F481759076A077B0708F4A6CE8C3172
:1041A000F3E09F07A105B10508F09FCE4D3123E054
:1041B00052076105710520F04CE153E060E070E0CA
:1041C000481B590BBC0166587D4FC8010E947B21DA
:1041D0008CCE4EE150E06FEF70E0CE0103960E946E
:1041E000912180910A018983EA827FCE81E090E06B
:1041F000909317028093160282E390E09093FF0160
:104200008093FE010E943B0670CE80910A01898353
:10421000EA828091FE014ECE40E250E06FEF70E006
:10422000C8010E94912161CE8B8181115ECE80E216
:10423000F80111928A95E9F758CEE9BCF9BC09B4A6
:1042400000FEFDCF8091D8008F7D8093D8008091B3
:10425000E00082608093E0008091E00081FDFCCF6F
:104260000E94770FA6CD86E290E00E9498211B82E3
:104270001C821D828E8339CE2D32314008F0D0CC85
:1042800006CD2D32314008F07FCCB5CC97FB072E00
:1042900016F4009407D077FD09D00E94672107FC2F
:1042A00005D03EF4909581959F4F08957095619546
:1042B0007F4F0895EE0FFF1F0590F491E02D0994B4
:1042C0006927962769277827872778270895AA1BC3
:1042D000BB1B51E107C0AA1FBB1FA617B70710F0F1
:1042E000A61BB70B881F991F5A95A9F78095909523
:1042F000BC01CD010895FB01DC0102C005900D92C7
:1043000041505040D8F70895FB01DC0104C08D9165
:104310000190801921F441505040C8F7881B990B37
:104320000895DC0101C06D9341505040E0F70895BD
:10433000F999FECF92BD81BDF89A992780B508956D
:10434000A8E1B0E042E050E00C94CC21262FF9998E
:10435000FECF92BD81BDF89A019700B4021639F0E4
:104360001FBA20BD0FB6F894FA9AF99A0FBE0895B5
:104370000396272F0E94A7210E94A621252F0E9485
:10438000A721242F0C94A7210196272F0E94A72153
:104390000C94A621DC01CB01FC01F999FECF06C0EB
:1043A000F2BDE1BDF89A319600B40D9241505040F3
:1043B000B8F70895F894FFCF3B0F3B0F440F440F1D
:1043C000460F440F440F440F3B0F3B0F4B0F440F5E
:1043D000440F4B0F71109910EC109910EC10CC1089
:1043E0000411EC100C121912DF15DF1538163816EF
:1043F000B516CF1611161116DC1647175617561795
:104400008E20A820AF20751F751FE920F6200521FA
:0C441000751F0C21751F751F751F1421EE
:10441C001806770C560C520C4E0C0100014ABFB911
:10442C004F395EAEF0818283E200E900EA00B5000C
:10443C00B600B700CD008301CC008A019201940133
:10444C002102230224022502260227022A02B3009B
:10445C00B4006F00700093929190946697C63436B6
:10446C00323331F7F6F5F44022BC8A016801AC0016
:06447C00E8070108210819
:00000001FF
