:100000000C94DD020C9424030C9424030C9424031C
:100010000C9435270C9424030C9424030C9424038F
:100020000C9424030C9424030C948F1E0C944B1EEC
:100030000C94BE250C9424030C9424030C942403E8
:100040000C9424030C9424030C9424030C94240394
:100050000C9424030C949A250C9424030C942403EC
:100060000C9424030C9424030C9424030C94240374
:100070000C9424030C9424030C9424030C94240364
:100080000C9424030C9424030C9424030C94240354
:100090000C9424030C9424030C9424030C94240344
:1000A0000C9424030C9424030C94240305010902EA
:1000B000A10185020901A100050919012905150001
:1000C00025019505750181029501750381010501E1
:1000D000093009311581257F950275088106093897
:1000E0001581257F950175088106050C0A380215D2
:1000F00081257F950175088106C0C005010980A191
:1001000001850319012AB700150126B7009501756D
:10011000108100C0050C0901A101850419012AA064
:1001200002150126A002950175108100C005010984
:1001300006A1018505050719E029E71500250195A8
:1001400008750181020507190029EF1500250195A1
:10015000F0750181020508190129059505750191C0
:1001600002950175039101C00660FF0961A10109B3
:1001700062150026FF0095207508810209631500AD
:1001800026FF00952075089102C005010906A1010E
:10019000050719E029E71500250195087501810279
:1001A0009501750881010507190029FF150026FF33
:1001B0000095067508810005081901290595057542
:1001C000019102950175039101C00000000000003B
:1001D000000000000000000000000000000000001F
:1001E00000000000000000000000000000007E0F82
:1001F00000D4FFFFFFC700000078000000000000EF
:1002000000002A2B28000000000000000000000071
:10021000000000000029000000002C1E34202122D4
:1002200024342627252E362D3738271E1F2021223D
:10023000232425263333362E37381F0405060708B6
:10024000090A0B0C0D0E0F101112131415161718A6
:10025000191A1B1C1D2F3130232D350405060708E4
:10026000090A0B0C0D0E0F10111213141516171886
:10027000191A1B1C1D2F3130354C000029001400A9
:100280001A0008001500170000002B0004001600DB
:10029000070009000A00A800E1001D001B0006007D
:1002A00019000500E000E300E20000002C0000005F
:1002B000E30000004F0051005000384200002C4283
:1002C0000000015152003700360010001100A80054
:1002D000280033000F000E000D000B002A004C0018
:1002E000130012000C0018001C00000035001E0056
:1002F0001F0020002100220000002B00010001004F
:100300000100010001000100E1006A00010001009C
:1003100001000100010001000100000001000000D7
:1003200001000000010001000100010000000100C7
:1003300000000100010030002F0001000100010059
:10034000310034002E002D000100010001000100E9
:1003500027002600250024002300000001003A00A9
:100360003B003C003D003E0000002B00010001006E
:100370000100010001000100E1006A00010001002C
:1003800001000100145C01000100000001000000F8
:100390000100000001000100010001000000010057
:1003A0000000010001000100010001000100010046
:1003B000310034004500440001000100010001004B
:1003C00043004200410040003F00FD377A585A0088
:1003D0000004E6D6B4460200210116000000742F86
:1003E000E5A3E002B001005D003D8889C65436C334
:1003F000174FE4F60CC4531CCD4245EB258E9F1DD0
:10040000780B3B0B583D32AAF44DCFEE832A75642E
:10041000FD46530E639A863786F59413B3F20D2D7D
:100420002540A5274505EDE8DB5D5F50C4AD9C6A1E
:100430000D1538029EF620FD6B93A61B89F91B4F04
:100440008CD423BE61256F1EA46BE62E2EBB8B7948
:100450003DF650C3D0F995845099ACF18671C082B5
:10046000FA1510528127F76BA3C4BA335FD905334D
:10047000E831EA07F70E37F99D702E2950AF865004
:10048000167847594A61680C05E734D3E4A06675CD
:10049000738128BF35ED3C229971E8FE9AEE94C62F
:1004A00065172E6DEAC866D2BCFD24DF0C31239D92
:1004B00007BFF9904C45C7D980FE53D8FC4A474244
:1004C000D03132C275CBFFBFEA79865E33B743685D
:1004D0002E9E485078FF1FD52ADBA898657076E9D4
:1004E000699EC1661A10878CF0006374D0C22977A8
:1004F00088AF00019C02B105000091BA3470B1C40C
:1005000067FB020000000004595A09025B00030166
:1005100000A0FA09040000010301010009211101F2
:1005200000012240000705810308000A09040100B8
:100530000203000000092111010001222200070529
:1005400082032000010705030320000109040200C3
:10055000010300000009211101000122BC00070570
:10056000840320000A1201100100000008276240E5
:10057000040001010203011C037600690061006CA4
:10058000003A006600360034006300320062003337
:1005900000630000000C036D006F00770034003032
:1005A0000000001003670072006C00640074006DAE
:1005B000006B000000040309040011241FBECFEFEC
:1005C000DAE0DEBFCDBF04B603FE27C08091A602ED
:1005D0009091A702A091A802B091A9028730904BF8
:1005E000A740B04BD1F41092A6021092A70210922D
:1005F000A8021092A90214BE84B7877F84BF0FB6E9
:10060000F894A895809160008861809360001092B2
:1006100060000FBEE0E0F8E3099511E0A0E0B1E072
:10062000E0E9F1E502C005900D92A039B107D9F7D4
:1006300022E0A0E9B1E001C01D92A63AB207E1F7BD
:100640000E94631F0C945B280C940000E8EDF0E01E
:1006500080818E7F80831092E2001092DA001092E7
:10066000E100A0EEB0E08C9181608C9380818F7767
:10067000808319BCA7EDB0E08C918E7F8C93808134
:100680008F7E80831092640208952091E40030915F
:10069000E50095E6A9012091EC00822F817020FFF2
:1006A00006C08091E80080FF06C080E00895209198
:1006B000E80022FD1AC080918902882389F08530E4
:1006C00089F08091EB0085FD0FC02091E40030910E
:1006D000E50042175307F9F29150E1F684E00895DE
:1006E00082E0089583E0089581E00895EF92FF92FB
:1006F0000F931F93CF937C018B010E944503C82F5A
:10070000811117C08091E80085FD0BC08091E80041
:100710008E778093E8000E944503882399F3C82FC1
:1007200008C0F70181917F018093F1000150110908
:1007300049F78C2FCF911F910F91FF90EF90089563
:1007400080918B0287FF13C08091E80082FF06C072
:100750008091E8008B778093E80004C08091890243
:100760008111F2CF0895809189028823D9F3809175
:10077000E80080FFF8CF8091E8008E77ECCF982FCB
:100780009093E900242F762F50E0891731F0709173
:10079000EC002091ED005091F00021FD07C09F5F1B
:1007A000973071F78093E90081E008953091EB0074
:1007B0003E7F3093EB003091ED003D7F3093ED00B4
:1007C0003091EB0031603093EB007093EC0020939C
:1007D000ED005093F0002091EE0027FDE0CF80E087
:1007E0000895CF92DF92EF92FF920F931F93CF93D2
:1007F000DF93C8EDD0E088818F7E8883E7EDF0E05D
:1008000080818160808384E082BF81E08093640284
:1008100088818E7F888302EE10E0F80110821092AA
:10082000DA0081EEC82ED12CF601108288818F77F4
:10083000888388818068888388818F7D888319BCBC
:100840001092890210928A021092880210928702F6
:1008500090EEE92EF12CF70180818B7F80838881D7
:100860008160888342E060E080E00E94BF03F6017F
:1008700080818E7F8083F801808181608083808188
:1008800088608083F70180818E7F8083888180618A
:100890008883DF91CF911F910F91FF90EF90DF90B0
:1008A000CF900895FC018091910290919202861759
:1008B0009707A0F06115710529F49091E8009E77E3
:1008C0009093E80090E06115710551F4911108C012
:1008D0008091E80082FF34C080E00895BC01F2CF2F
:1008E000809189028823C1F18530C1F18091E800AF
:1008F00083FD30C08091E80082FDEACF8091E8005E
:1009000080FFE1CF8091F3002091F200382F611534
:10091000710519F02830310558F091E02830310583
:1009200009F090E02091E8002E772093E800CBCFEB
:1009300081918093F100615071092F5F3F4FE7CFA4
:1009400080918902882341F0853041F08091E80050
:1009500083FFBECF81E0089582E0089583E008958B
:1009600080E0089580916602089587E797E7909365
:1009700001088093000888E19AE00FB6F894A895E2
:10098000809360000FBE90936000FFCF9C014FB733
:10099000F8948091250290912602A0912702B091AF
:1009A00028024FBF821B930B08952FB7F8946091D4
:1009B00025027091260280912702909128022FBF74
:1009C00008952FB7F8948091250290912602A09166
:1009D0002702B09128022FBF089580912002811133
:1009E00010922002089580911F0290911E02892B7F
:1009F00090911D02892B809392019091200299235E
:100A0000A1F0892B8093920180911501882341F1F7
:100A10008091370287FF24C08EE1E4E9F1E090E0A5
:100A2000815000F591110E94ED04E0913A02F0919D
:100A30003B023097E1F080911501882359F08091B5
:100A4000370287FF07C0809192018093930185E070
:100A5000809392010280F381E02D82E991E0099474
:100A600086E0DBCF21912223D9F29F5FD9CF089571
:100A7000909115019923D1F09091370297FF16C0FC
:100A8000E82FE695E695E695EE31E0F4F0E0EE56D7
:100A9000FE4F282F277081E090E001C0880F2A9533
:100AA000EAF780959281892382830895E4E9F1E051
:100AB0009191891303C0DF0111971C9291E0EA39EB
:100AC000F907B1F70895909115019923C1F090911C
:100AD000370297FF14C0E82FE695E695E695EE31CC
:100AE000F8F4F0E0EE56FE4F877021E030E001C0F0
:100AF000220F8A95EAF78281822B82830895A4E9E6
:100B0000B1E0EFEF90E02D91821751F0EF3F19F433
:100B1000211101C0E92F9F5F9630A9F7EF3F09F43B
:100B200008950E2E000CFF0BEE56FE4FE6CF27E089
:100B3000929F800D1124982F9770869586958695A3
:100B400025E0829FF0011124E750FE4F50E040E085
:100B500080E0219130E0092E02C0369527950A9455
:100B6000E2F721703327042E01C0220F0A94EAF71E
:100B7000822B4F5F5F4F4530510559F7089527E0AD
:100B8000929F800D1124982F977041E001C0440F6F
:100B90009A95EAF786958695869595E0899FF00166
:100BA0001124E750FE4F90E080E070E05191DF01AA
:100BB00011979B01082E02C0369527950A94E2F7FB
:100BC000217021952527242325272C9301968530F4
:100BD000910561F708958091F8019091C7019813EC
:100BE00001C008958F5F8770FACF882341F0809508
:100BF00090911E02892380931E020C94F3040895A1
:100C0000882339F090911E02982B90931E020C9429
:100C1000F3040895882341F0809590911F02892361
:100C200080931F020C94F3040895882339F0909167
:100C30001F02982B90931F020C94F30408950C94B8
:100C4000D5042091BC013091BD012817390771F0FE
:100C50009093BD018093BC01E0913A02F0913B0278
:100C6000309721F00084F185E02D099408952091BA
:100C7000BA013091BB012817390771F09093BB017D
:100C80008093BA01E0913A02F0913B02309721F053
:100C90000680F781E02D09940895E0913A02F091E1
:100CA0003B02309721F00190F081E02D099480E023
:100CB00008950E94E1049C0190914A0280914B02A8
:100CC000982B21F0309347022093460290914C02DA
:100CD00080914D02982B21F03093440220934302DF
:100CE000E0913A02F0913B02309749F082E0809324
:100CF00048020480F581E02D88E492E0099408958B
:100D000090E080E00E94370690E080E00E9421069B
:100D100010921E0210921D020E94F30486E0E8E485
:100D2000F2E0DF011D928A95E9F7109245021092D8
:100D300042021092C0010C9459066093960270937F
:100D4000970280939802909399020C9480060F93D7
:100D50001F936091960270919702809198029091F2
:100D600099028B019C010670112722273327063038
:100D700011052105310529F468601F910F910C942C
:100D80009D06677FFACF0F931F9341E050E060E02C
:100D900070E004C0440F551F661F771F8A95D2F775
:100DA000CB01BA016095709580959095009196025F
:100DB000109197022091980230919902602371233B
:100DC000822393231F910F910C949D0690911C02F6
:100DD0008095892380931C02282F277071F4282F77
:100DE000082E000C330B9217130639F08595859564
:100DF00085950E94C30610921C0208950F931F93BD
:100E000041E050E060E070E004C0440F551F661FF1
:100E1000771F8A95D2F78091960290919702A091C0
:100E20009802B09199028A019B01082B192B2A2B59
:100E30003B2BC901B8011F910F910C949D06609343
:100E400021027093220280932302909324020C9437
:100E5000800690914A02803F59F480914B0287FFAF
:100E60000DC010924B0291110BC01092450208C0A8
:100E7000813F81F480914B0218169CF3992381F0F5
:100E800080914C0290914D02892B09F064C0109220
:100E900042020895823F49F497FFF0CF10924A0230
:100EA00080914B028111ECCFE0CF833F19F41916EA
:100EB000ACF3E4CF20914C02893F29F41216F4F6EA
:100EC00010924C02DBCF8A3F19F427FFD7CFF8CF1F
:100ED00020914D028B3F29F427FFD0CF10924D0275
:100EE000CDCF8C3F19F41216CCF3C8CF843F31F428
:100EF000809149028E7F80934902C0CF853F21F4C3
:100F0000809149028D7FF7CF863F21F4809149027D
:100F10008B7FF1CF873F21F480914902877FEBCF10
:100F2000883F21F4809149028F7EE5CF8D3F31F4D7
:100F30008091C0018E7F8093C001A0CF8E3F21F4AD
:100F40008091C0018D7FF7CF8F3F09F097CF8091BF
:100F5000C0018B7FF0CF0895882309F459C08238EF
:100F600071F40E944D0681FF53C089E30E9463051E
:100F70000E94F30489E30E9438050C94F30483383B
:100F800059F40E944D0680FF43C083E50E9463052B
:100F90000E94F30483E5EFCF843859F40E944D0694
:100FA00082FF36C087E40E9463050E94F30487E451
:100FB000E2CF9CEF980F913AF0F290E2980F9830C0
:100FC00088F4877021E030E0A90102C0440F551F6A
:100FD0008A95E2F7CA01809590911F028923809338
:100FE0001F02CBCF9BE5980F933020F490E080E078
:100FF0000C94370698E5980F973120F490E080E044
:101000000C942106803F20F00E9429070C94590679
:1010100008958091C00180FF0CC06091010170E0D3
:1010200075956795759567956115710549F1862FD9
:10103000089581FF06C06091010170E07595679584
:10104000F3CF6091010182FD0BC090914202992380
:10105000A1F06091000180910101961738F0682F8E
:1010600070E06038710500F38FE70895899FC00133
:10107000112470E00E94D427F4CF61E070E0D7CF54
:1010800081E008958091C00180FF12C0609103014A
:1010900085E0689FB00111247595679575956795F2
:1010A00060387105A8F561157105A1F1862F0895C5
:1010B00081FF09C06091030185E0689FB0011124A0
:1010C00075956795EDCF6091030182FD0AC080910F
:1010D00045028823D1F090910201609103018917A4
:1010E00028F085E0689FB0011124DACF869FB00117
:1010F000112485E0869F9001879F300D1124692F70
:1011000070E0C9010E94D427CBCF65E070E0CECF5C
:101110008FE7089581E00895803F31F40E944208EE
:10112000819580934B020895813F19F40E944208F3
:10113000F8CF823F31F40E944208819580934A02A1
:101140000895833F19F40E944208F8CF893F29F49B
:101150000E94090880934C0208958A3F21F40E945E
:1011600009088195F7CF8B3F31F40E9409088195DA
:1011700080934D0208958C3F19F40E940908F8CF1E
:10118000843F31F48091490281608093490208953F
:10119000853F21F4809149028260F7CF863F21F498
:1011A000809149028460F1CF873F21F48091490208
:1011B0008860EBCF883F21F4809149028061E5CFC0
:1011C0008D3F31F48091C00181608093C00108950A
:1011D0008E3F21F48091C0018260F7CF8F3FB9F735
:1011E0008091C0018460F1CF833011F128F4813007
:1011F00049F0823091F00895853081F120F18630F8
:10120000C1F1089580910701681720F4861B80932F
:101210000701089510920701089580910801681749
:1012200020F4861B80930801089510920801089508
:1012300080910301681720F4861B809303010895B1
:1012400010920301089580910201681720F4861B13
:101250008093020108951092020108958091010186
:10126000681720F4861B80930101089510920101F4
:10127000089580910001681720F4861B8093000177
:101280000895109200010895833081F128F481308F
:1012900059F08230D1F00895853009F449C0B8F191
:1012A000863009F456C0089580910701482F460FF3
:1012B0005527551F4F3F510524F4680F60930701D0
:1012C00008958FEF80930701089580910801482FBA
:1012D000460F5527551F4F3F510524F4680F609363
:1012E000080108958FEF809308010895809103010C
:1012F000482F460F5527551F4F3F510524F4680FBF
:101300006093030108958FEF809303010895809106
:101310000201482F460F5527551F4F3F510524F412
:10132000680F6093020108958FEF80930201089582
:1013300080910101482F460F5527551F4F3F5105FA
:1013400024F4680F6093010108958FEF80930101E9
:10135000089580910001482F460F5527551F4F3F94
:10136000510524F4680F6093000108958FEF809376
:1013700000010895F894E82FE295EF70F0E031A1B4
:10138000282F2F7081E090E001C0880F2A95EAF79E
:10139000982F9095932391A392A1892B82A378945F
:1013A00008959091370292FF06C0282F28712830A7
:1013B000F9F4877F846093FF06C0282F28712831B5
:1013C000F1F4877E84612091380220FF06C0382F17
:1013D00038713830D9F4877F816021FF06C0282F0B
:1013E00028712831D1F4877E816194FD877E08952C
:1013F000282F24712430F9F68B7F8860DCCF282FCA
:101400002471243101F78B7E8861DDCF382F317153
:10141000313019F78E7F8860E0CF282F217121317C
:1014200021F78E7E8861E1CFCF93DF939C013A95BF
:1014300021153F4168F5EC01CC27D170DC01AA27CA
:10144000B270AC01442754709C012227387094FF7D
:1014500011C080E1CD2B09F480E0AB2B09F0806254
:10146000452B09F08064232B09F08068FB01DF9194
:10147000CF91099481E0CD2B09F480E0AB2B09F0EA
:101480008260452B09F08460232B81F38860EECFC6
:10149000DF91CF910895CF9384E090E00E941928C6
:1014A000C82F81E290E00E941928982F8C2FCF91AD
:1014B00008950F931F93CF93DF93843038F56230F4
:1014C00028F528E0829FC001112434E0639FB00119
:1014D0001124860F971FC42FD0E0CC0FDD1FC80F3B
:1014E000D91FCA51DE4FCE010E941928082F10E0E3
:1014F000102F0027CE0101960E9419289801282B51
:10150000C901DF91CF911F910F91089590E080E084
:10151000F8CF0F931F93CF93DF93843030F568306B
:1015200020F5473010F5C42FD0E0CC0FDD1F2EE0A2
:10153000629FC00DD11D112430E7839FC00DD11DC6
:101540001124CE0186960E941928082F10E0102F32
:101550000027CE0187960E9419289801282BC901DF
:10156000DF91CF911F910F91089590E080E0F8CF27
:10157000462F2091620230916302232B91F47E3F2B
:1015800039F46E3F71F48091B8019091B9010895DA
:10159000843038F4783028F4673018F4672F0C94CE
:1015A000890A90E080E00895CF93DF930E94B80A03
:1015B000EC0182389105A9F1D8F58133910509F440
:1015C00096C048F58932910509F48AC08A9709F4D2
:1015D00095C0C11521E5D20708F0BCC0C11530E5A2
:1015E000D30708F014C1C83ED10508F09CC0C03E26
:1015F000D10560F5C83AD10508F087C0C53AD105D4
:1016000008F0FDC0C130D10509F12097F9F0C430D0
:10161000D105E0F440C08533910509F45AC0C9975B
:10162000C1F680913702837089F0C0EED0E00EC021
:10163000833E910599F170F4803E910501F1823E5F
:10164000910539F68091370282FD21C0CE01DF91EC
:10165000CF910895863E910561F1873E910571F124
:10166000843E910509F0B5CF8091380281FFEECF1D
:1016700080913702C7EED0E084FD0DC0E7CF8091A6
:10168000370280FD12C19091380290FFDFCFC3EE88
:10169000D0E084FFDBCFD0E0C0E0D8CF809137022C
:1016A00082FD06C19091380290FDBFCF84FFCECF5E
:1016B000F2CF8091370283FDDDCFC8CF8091370212
:1016C00083FDF9C09091380291FFF0CFC4EED0E0D5
:1016D000BDCF8091370285FFB9CFC9E2D0E0B6CF48
:1016E0008091370285FFB2CFC5E3D0E0AFCF8091C4
:1016F000370286FFABCFCAE2D0E0A8CF8091370295
:1017000086FFA4CFC1E3D0E0A1CFCF3BD10518F62F
:10171000C85AD0E0CC0FDD1FCD5CDE4F0990D881D8
:10172000C02DD46493CFC11540E2D40758F4C1153D
:1017300081E0D80708F08ACFC03FD10508F4ABCFCD
:10174000D06584CFC11590E4D90708F4A4CFDF7029
:10175000D06A7CCFC11525E5D20700F5C11534E567
:10176000D30708F08AC0C11543E5D40708F071C05B
:10177000C11582E5D80708F467C0CE0183709927A8
:1017800021E030E002C0220F331F8A95E2F7C695B0
:10179000C69580E2C89FE001112452C0C11599E5A9
:1017A000D907A8F4C11528E5D20708F06BC0C11508
:1017B00036E5D30708F06FCF8C2F0E94D109C82FD0
:1017C000D0E0DC2FCC27CC27DF71D0623FCFC11512
:1017D0004AE5D40708F45BC0CE01905681159042CB
:1017E00008F059CF8D2F8F710E94D10990E0982F6A
:1017F000882788279F719C012C2BE901E6CFC55AC9
:10180000D0E0C05DDE4FC881D0E0D0641FCFCE01F4
:10181000E4E096958795EA95E1F783702C2F26955D
:101820002695237040E2249F90011124382B8C2FA1
:101830008370C1E0D0E002C0CC0FDD1F8A95E2F7D3
:10184000C22BD32BDC6802CFDC2FCC27C16FD06A30
:10185000FDCECE018370992721E030E002C0220F37
:10186000331F8A95E2F7C695C69590E2C99FE001BD
:101870001124C22BD32BDA68E9CEDC2FCC27C46F1E
:10188000D06AE4CEDC2FCC27C06FD06ADFCE8C2F9D
:101890008F700E94D10934E0D695C7953A95E1F74B
:1018A000CF709C2FEC01D069D1CEC9E3D0E0CECE71
:1018B000C2EED0E0CBCEC6EED0E0C8CEBF92CF9283
:1018C000DF92EF92FF920F931F93CF93DF938C01E0
:1018D000C0909602D0909702E0909802F090990202
:1018E0008091210290912202A0912302B0912402C2
:1018F000C82AD92AEA2AFB2ACFE1D0E0BC2ED70198
:10190000C6010C2E04C0B695A795979587950A94A5
:10191000D2F780FD0EC0219788F7B12C8B2DDF9177
:10192000CF911F910F91FF90EF90DF90CF90BF90DC
:101930000895B8018C2F0E94D40A019761F3EECF6D
:10194000CF93DF93EC010E945E0CBE01DF91CF913B
:101950000C94D40A0E94A00C292F2F7092959F708E
:1019600092509E3078F4E92FF0E0E35AF74D0C9452
:10197000E827803F19F020F4883E20F481E00895A4
:10198000843FE1F380E00895883EC0F3813FD1F7C2
:10199000F5CF822F8695869586950895CF93DF9310
:1019A000C6E0D2E060E0CE010E9427282196C11552
:1019B00084E0D807B9F7DF91CF9108950F931F9373
:1019C000CF93DF938901843068F5623058F5423057
:1019D00048F501152CE5120731F4209109013091E9
:1019E0000A01232BF9F028E0829FC001112424E092
:1019F000629FB0011124860F971FC42FD0E0CC0F37
:101A0000DD1FC80FD91FCA51DE4F612FCE010E94C2
:101A10002728602FCE010196DF91CF911F910F9162
:101A20000C942728DF91CF911F910F9108950F9368
:101A30001F93CF93DF938901843048F5683038F5E0
:101A4000473028F521153C4531F4209109013091AA
:101A50000A01232BE1F0C42FD0E0CC0FDD1F9EE064
:101A6000699FC00DD11D112490E7899FC00DD11D24
:101A70001124612FCE0186960E942728602FCE0167
:101A80008796DF91CF911F910F910C942728DF91BA
:101A9000CF911F910F9108958F929F92AF92BF9215
:101AA000CF92DF92EF92FF921F93CF93DF938090BC
:101AB000090190900A0181E090E090930A018093DF
:101AC00009018AE7C82E82E0D82EC0E07601D0E076
:101AD00014C0F50125913491412F6D2F8C2F0E9458
:101AE000170D82E0A80EB11C1F5F173091F78EE032
:101AF000E80EF11CDF5FD83019F0570110E0E9CF94
:101B000021E030E040E060E08C2F0E94DE0C21E01C
:101B100030E041E060E08C2F0E94DE0C21E030E0FC
:101B200040E061E08C2F0E94DE0C21E030E041E0DB
:101B300061E08C2F0E94DE0CCF5F80E7C80ED11CC5
:101B4000C43009F0C3CF90920A0180920901DF915D
:101B5000CF911F91FF90EF90DF90CF90BF90AF900B
:101B60009F908F90089510921F0280911501E4E9D3
:101B7000F1E0882359F08091370287FF07C08EE19A
:101B8000DF011D928A95E9F70C94800686E0F8CF74
:101B90001F93CF93DF93CDB7DEB7AA970FB6F89414
:101BA000DEBF0FBECDBF8BE892E02091F100DC01DB
:101BB0002D93CD01B2E083399B07B9F780918C0258
:101BC000833009F471C0B8F4813009F448C0823020
:101BD00009F4B2C08091E80083FF3AC180918B0282
:101BE00090918C029A3008F033C1E92FF0E0E5596A
:101BF000F74D0C94E8278A3009F48DC08B3009F436
:101C000070C0893039F780918B02813219F7809149
:101C10008F0290919002009711F00297D9F680916F
:101C2000E800877F8093E8008091E80082FF37C05A
:101C30009091F3008091F200029729F48091F100D5
:101C40008B7F813021F48091F10080936602809136
:101C5000E8008B778093E8000E94A003BBCF8091BF
:101C60008B02813A09F0B6CF8091E800877F80939C
:101C7000E80080918F0290919002892B61F460E2DC
:101C800087E692E070E00E9452048091E8008B7732
:101C90008093E8009FCF60E090E080E0F3CF8091F8
:101CA00089028111C1CF96CF80918B02813A09F0D0
:101CB00091CF80918F0290919002892B09F08ACF69
:101CC0008091E800877F8093E8008091E80080FFA2
:101CD000FCCF809115018093F1008091E8008E7710
:101CE000B9CF80918B02813209F074CF80918F023D
:101CF00090919002892B09F06DCF8091E800877F49
:101D00008093E8000E94A00380918D0280931501CA
:101D10000E94B30D5FCF80918B02813209F05ACFC0
:101D20008091E800877F8093E8000E94A003809163
:101D30008E02809365024ECF80918B02813A09F02A
:101D400049CF8091E800877F8093E8008091E80088
:101D500080FFFCCF80916502BECF803899F0823839
:101D600009F076C080918F028F70873008F070C0C4
:101D70008093E9008091EB0085FB882780F9109221
:101D8000E90006C0809187029091880291118260DB
:101D90009091E800977F9093E8008093F100109273
:101DA000F1008091E8008E77C0C1882309F4ADC1AD
:101DB000823009F04DC080918D028111B1C18091B6
:101DC0008F028F702FEF280F263008F041C08093CC
:101DD000E9002091EB0020FFA3C1933031F4809102
:101DE000EB0080628093EB009BC19091EB009061CF
:101DF0009093EB0021E030E001C0220F8A95EAF7D2
:101E00002093EA001092EA008091EB008860EACF0C
:101E100081111EC010918D021F778091E3008078A0
:101E2000812B8093E3008091E800877F8093E80016
:101E30000E94A0038091E80080FFFCCF8091E30026
:101E400080688093E30082E0111183E0809389022F
:101E50008091E80083FF0AC08091E800877F80932B
:101E6000E8008091EB0080628093EB00AA960FB6A9
:101E7000F894DEBF0FBECDBFDF91CF911F910895C3
:101E80008058823028F720918D0230918E022C3DAF
:101E9000E3E03E07A1F583E08A838AE289834FB7B6
:101EA000F894DE01139620E03EE051E2E32FF0E0EB
:101EB00050935700E49120FF03C0E295EF703F5F1D
:101EC000EF708E2F90E0EA30C0F0C7968D939D930F
:101ED0002F5F243159F74FBF8091E800877F8093AF
:101EE000E8006AE270E0CE0101960E9452048091FF
:101EF000E8008B778093E800ABCFC096E7CF809166
:101F00008F0290919002432F55274330510509F4D9
:101F10004AC078F54130510509F485C08BE590E061
:101F2000EAE0F5E04230510509F092CF2091E80057
:101F3000277F2093E800209191023091920282172E
:101F4000930708F49C0140E02115310509F070C0A9
:101F500041116EC08091E80082FDC9CF8091890255
:101F6000882329F2853019F28091E80083FFF2CFAF
:101F7000BECF4132510509F447C04232510509F044
:101F800067CF8330910508F063CFFC01EE0FFF1F90
:101F9000ED57FE4F0190F081E02D80589E4FDC01FF
:101FA0008C9190E01DC0332721303105E9F02115D7
:101FB000310579F022303105F9F02330310509F08F
:101FC00047CFE7E7F5E0E4918E2F90E0E7E7F5E013
:101FD00007C0E5EBF5E0E4918E2F90E0E5EBF5E04E
:101FE000009709F435CFA2CFE3EAF5E0E4918E2F14
:101FF00090E0E3EAF5E0F4CFE5E9F5E0E4918E2F37
:1020000090E0E5E9F5E0ECCF8330910508F020CFD2
:10201000880F991FFC01E757FE4F0190F081E02DDA
:1020200089E090E083CF82E190E0E5E6F5E07ECFC5
:1020300080918902882309F45ACF853009F457CF5B
:102040008091E80083FD53CF8091E80082FD82CF2C
:102050008091E80080FF78CF9091F3008091F200AA
:102060002115310519F08830910550F041E00897AD
:1020700009F040E08091E8008E778093E80064CF1B
:1020800044914093F1003196215031090196E8CFF7
:10209000803809F0DDCE8091E800877F8093E800EA
:1020A00080918A028093F1007CCE8111D1CE109173
:1020B0008D02123008F0CCCE8091E800877F8093AB
:1020C000E80010938A020E94A003112311F084E01B
:1020D00005C08091E30087FDFACF81E080938902FB
:1020E00042E061EC81E00E94BF0342E261EC84E0E7
:1020F0000E94BF0342E261EC82E00E94BF0342E221
:1021000060EC83E00E94BF03A3CE80918D028130FA
:1021100009F09ECE81E0933009F080E08093880240
:102120001092E9008091E800877F8093E8000E9488
:10213000A0038ECE0F931F9341E050E060E070E06B
:102140008A019B0104C0000F111F221F331F8A95B3
:10215000D2F7C901B8010E941F071F910F910C947B
:10216000B30DCF93DF9300D00F92CDB7DEB7909130
:102170008902943011F589837B836A839093E90007
:102180008FEF9091E800815095FD06C09AE69A95F0
:10219000F1F700C08111F5CF8091E80085FF0DC0F7
:1021A00050E040E063E070E0CE0101960E947603CB
:1021B0008091E8008E778093E8000F900F900F9049
:1021C000DF91CF910895BC0184E00C94B110BC0163
:1021D00083E00C94B1109C0184E08093E9009FEFB0
:1021E0008091E800915085FD06C08AE68A95F1F756
:1021F00000C09111F5CF8091E80085FF0CC050E040
:1022000040E066E070E0C9010E9476038091E8003A
:102210008E778093E8000895CF93DF93EC0180914F
:1022200015018823B1F18091370287FF32C060E247
:1022300084E08093E9008FEF9091E800815095FD54
:1022400006C09AE69A95F1F700C08111F5CF80910A
:10225000E80085FF1BC08091150170E050E040E070
:10226000811104C050E040E068E070E0CE010E94BF
:1022700076038091E8008E778093E80080E2FE018B
:10228000A7E6B2E001900D928A95E1F7DF91CF9138
:10229000089568E081E0CDCF8091B701811114C02D
:1022A00088EC9091E30097FD16C0EFE1FEE43197D2
:1022B000F1F700C000008150A1F70E9426031092A0
:1022C000890282E08093B70181E09091B70191305B
:1022D00009F080E0089581E0F5CF6BEE7EEF90E0AD
:1022E00080E00E94452860E082E090E00E9427287C
:1022F00060E083E090E00E94272810922102109273
:102300002202109223021092240260E084E090E006
:102310000E94272860E081E290E00E94272860E088
:1023200085E090E00E94272860E086E090E00E942F
:1023300027286FEF87E090E00E94272840E050E0D8
:10234000BA0188E090E00E94392860E08DE090E0DA
:102350000E94272840E050E0BA0188E190E00E9406
:10236000392860E087E190E00E94272840E050E0B3
:10237000BA018CE190E00E94392860E080E290E0B0
:102380000E94272840E050E0BA0188E190E00E94D6
:10239000392840E050E0BA018FE090E00E943928EF
:1023A00040E050E0BA0183E190E00C943928EBEF73
:1023B000E80FEF3308F06AC0F0E0EB58F74D0C94EB
:1023C000E8270E946D1181E0089580914F02807F7F
:1023D00080934F0281E08093BF01089580910901AD
:1023E00090910A01892B79F30E94B30D2FE78AE1BE
:1023F00096E0215080409040E1F700C000000E942C
:10240000B50490914F02892F8E7F90FF8160809359
:102410004F0280FDD8CF817F80934F02D4CF90911F
:102420004F02892F8D7F91FF826080934F0281FF41
:10243000CACF80914F028160EFCF90914F02892FD8
:102440008B7F92FF846080934F0282FDF2CFBBCFDF
:1024500090914F02892F877F93FF886080934F026E
:1024600083FDE7CFB0CF0E94B30D90913702892F43
:1024700097FB87F9805880933702A5CF80E00E94B0
:102480009A10A1CF8953FBCF8D51F9CF80E00895E9
:10249000CF93C82F882309F4A9C08238C1F40E94C1
:1024A0004D0681FDA3C089E30E9463050E94F304E9
:1024B0002FEF80E792E0215080409040E1F700C08C
:1024C000000089E30E943805CF910C94F30483380F
:1024D000A1F40E944D0680FD89C083E50E9463053A
:1024E0000E94F3042FEF80E792E02150804090405B
:1024F000E1F700C0000083E5E5CF8438A1F40E9435
:102500004D0682FD73C087E40E9463050E94F304B8
:102510002FEF80E792E0215080409040E1F700C02B
:10252000000087E4CFCF8CEF8C0F813A08F0B1C068
:102530008091BF018130B9F1882359F1823009F4CB
:102540004DC01092BF0180911501882309F492C0FB
:102550008091370287FF8EC0EC2FE695E695E695D1
:10256000F0E0EE56FE4F828190E04C2F477021E064
:1025700030E002C0220F331F4A95E2F782239323F3
:10258000892B09F482C08C2F0E9438050E94F30425
:102590007CC080911F028232B1F68C2F0E94D7112D
:1025A000811124C0D0CF80911F028232B1F3C43197
:1025B00071F038F4CB3049F0C03161F080E08170C7
:1025C000EFCFC93221F0C833C9F781E0F8CF1092BC
:1025D000BF01F4CF82E08093BF01F7CFC93221F170
:1025E00090F4C43109F120F4C73089F1CF910895F6
:1025F000CE51C630D8F7EC2FF0E0EA5DFE4F808177
:102600008093BE01F3CFCE3401F140F46AE0CB34C5
:1026100069F78091BE01CF910C944409C13579F0DE
:1026200061E0C235B1F3E2CF8091BE01882319F099
:102630001092BE01DBCF81E08093BF01D7CF61E074
:102640008091BE01CF910C94F4086AE0F9CF8EE13D
:102650008093070182E3809308018AE0809303015D
:1026600084E18093020188E08093010188E28093F5
:102670000001BCCFE4E9F1E08AE991E02191C217C1
:1026800009F481CF8E179F07C9F78C2F0E9463052D
:102690001BCF80E28C0F883068F4C77021E030E0F7
:1026A00001C0220FCA95EAF780911F02822B809306
:1026B0001F020ACFEBE5EC0FE33040F4F0E0E05D01
:1026C000FE4F808190E0CF910C943706E8E5EC0F47
:1026D000E73150F4F0E0EE0FFF1FED5CFE4F80811C
:1026E0009181CF910C942106C03F08F47FCF8C2FAD
:1026F0000E948C08CF910C9459061F93CF93DF93BF
:10270000182FD0E0C0E0893311F4C0E5D0E0812F6C
:102710000E944812209731F4812FDF91CF911F91B1
:102720000C94AC078FEC97E00197F1F700C0000024
:102730002197F0CF0F931F93CF93DF93C62FD42F02
:10274000022FFC0182818823A1F0609395020E94F0
:10275000E1049093940280939302C77081E001C0DA
:10276000880FCA95EAF7DF91CF911F910F910C94D2
:10277000150680919502681335C08091930290915F
:1027800094020E94C604883C910560F510E21D0F7A
:10279000CD17B9F080E28C0F883040F4C77081E02B
:1027A00001C0880FCA95EAF70E940A06183048F45B
:1027B00081E09D2F977001C0880F9A95EAF70E94DB
:1027C0001506802F0E947D13183098F4D77081E091
:1027D00001C0880FDA95EAF7DF91CF911F910F9131
:1027E0000C940A06C77081E001C0880FCA95EAF709
:1027F000F3CFDF91CF911F910F910895AF92BF92C8
:10280000CF92DF92EF92FF920F931F93CF93DF93BC
:10281000EC018AE0A82E2881222309F48CC0213003
:10282000C9F599818A81913021F422960E947D1305
:1028300005C0923029F422960E9448122196EBCFCF
:10284000933021F422960E94AC07F8CF943011F017
:102850002196F4CF229630E020E0AE014F5F5F4F2B
:102860008053990B8A30910550F02150310930F393
:102870008FEC97E00197F1F700C00000F6CFA29E21
:10288000B001A39E700D11249C01260F371F898172
:10289000EA01E3CFE22FF0E0E650FE4FB490822F42
:1028A00086958695869590E0FC01E651FE4FE49072
:1028B0002770F12C022E02C0F594E7940A94E2F7F7
:1028C00031E0E322FF24FC01E652FE4FC490D12CFC
:1028D000022E02C0D594C7940A94E2F731E0C322D5
:1028E000DD24FC01E653FE4F049110E002C0159573
:1028F00007952A95E2F701701127E114F10419F008
:1029000081EE0E944812C114D10419F086EE0E9493
:1029100048128B2D0E947D13CD2819F086EE0E945F
:10292000AC07EF2819F081EE0E94AC07012B09F4E7
:1029300085CF8CE27BCFDF91CF911F910F91FF90DC
:10294000EF90DF90CF90BF90AF900895BF92CF925D
:10295000DF92EF92FF920F931F93CF93DF9300D0FC
:1029600000D0CDB7DEB78C01CB01FB01F280FF2098
:1029700009F431C2980122513F452031310508F058
:1029800004C28FEF93E00E941928811179C002518F
:1029900086E0E82E82E0F82E011135C019821A82F5
:1029A0001B821C82BB24BA9487010F5F1F4FC70193
:1029B0000E94192889831A82882309F461C0813012
:1029C00009F053C0670142E0C40ED11CC8010E9447
:1029D0001928082F8A83882309F452C0C6010E944F
:1029E0001928182F8FEF800F8330D8F4670153E038
:1029F000C50ED11C1B83112321F0CE0101960E942C
:102A0000FE137601D1CFE114F4E0FF06C9F1C7014E
:102A10000E941928811101C001502FEFE21AF20A19
:102A2000BBCF043071F7670184E0C80ED11CC70129
:102A300003960E941928112319F1882309F1815066
:102A4000990BB89E9001B99E300D1124E12FE150F1
:102A5000FF0BCF01820F931F019798F2EFECF7E085
:102A60003197F1F700C00000F7CFCE0101960E9428
:102A7000FE136801C6CF81E00E94FE060E94A706F1
:102A8000F12C8F2D0F900F900F900F90DF91CF9121
:102A90001F910F91FF90EF90DF90CF90BF9008951E
:102AA00081E00E94C3060E94A706EBCF82E0E4CF3C
:102AB000053F2CE5120709F460C008F45AC027E26C
:102AC00045EE66EE063F5CE5150709F481C1FF207F
:102AD00009F48CC11092950202308CE5180708F4B5
:102AE0002EC106319CE5190730F0C8018A5F9C456C
:102AF000099708F024C10E944B0A909338028093F2
:102B000037020031ECE51E0709F4E8C008F076C092
:102B100008302CE5120709F4D3C008F048C004308F
:102B20005CE5150709F4C4C078F502309CE5190787
:102B300009F4B8C080913702826003301C4509F463
:102B4000B4C0609137021091380284E090E00E9496
:102B50002728612F81E290E00E9427280E94B30D70
:102B60008FCF27E245EE65EE33C126E241EE60EEFF
:102B70002FC127E245EE64EE2BC126E241EE62EE64
:102B800027C128E241E0EFCF809137028061063013
:102B9000FCE51F0709F489C080913702886007307F
:102BA0001C4508F482C08091370280627EC080910B
:102BB00037028D7F0C304CE5140709F476C058F4C9
:102BC0000A308CE5180709F485C008F47DC08091AF
:102BD00037028E7F6AC080913702877F0E30ECE526
:102BE0001E0709F462C0809137028B7F0F301C45AD
:102BF00008F45BC0809137028F7E57C00B3F2CE5F5
:102C0000120709F459C030F503315CE5150709F4E2
:102C10006DC078F401319CE5190709F463C00231F5
:102C20001C4509F08ECF0E94B30D809137028F773B
:102C30003CC00531FCE51F0709F460C008F474C00E
:102C40008091380281600A3F1C4509F07ACF809359
:102C5000380277CF0F3F5CE5150709F44BC088F4C5
:102C6000809138028D7F0D3F9CE5190781F380919B
:102C700038028E7F0E3F1C4550F3809138028360EE
:102C8000E6CF0130FDE51F0709F457C008F442C044
:102C900060E002301D4509F054CF8EE090E00E94C4
:102CA00027284FCF8091370281608093370249CF28
:102CB000809137028460F9CF809138028260C7CF5B
:102CC000809137028064F1CF0E94B30D809137026A
:102CD0008068EBCF809137028C60E7CF809137021C
:102CE0008F7DE3CF809137028F7BDFCF80913702DA
:102CF000837FDBCF809138028C7FA9CF8091370210
:102D000082FB992790F921E0922790FB82F990FBB2
:102D100083F9CBCF80913802982F909591708E7F58
:102D2000892B90FB81F993CF0E94B30D90913702CC
:102D3000892F97FB87F98058B8CF61E0AECF063175
:102D40005CE5150709F060C080911F028A7A91E066
:102D500009F490E09093B201811106C089E20E94CB
:102D600063050E94F3048CCE85E3F9CF85E349C067
:102D70000E94B30D8FE79AE1E6E081509040E04079
:102D8000E1F700C000000E94B5040031FFE51F0715
:102D900009F471CE01312FE5120709F487CE033F04
:102DA0002CE5120709F4E1CE08F082CE083D5CE57F
:102DB000150709F4D6CE093DECE51E0709F4E1CE6E
:102DC000073DFCE51F0709F082CE26E241EE61EEE9
:102DD0000E949A1355CE00314FE5140709F460CED6
:102DE00001315FE51507D9F682E05BCEFF24F3944D
:102DF00006311C4509F045CE8091B2018111B6CF54
:102E000089E20E943805ADCF01159CE5190709F448
:102E1000AFCF0E3D1C4509F034CE0E946D1130CE6F
:102E20000F931F93CF93DF9300D000D000D0CDB786
:102E3000DEB78C019093B9018093B8011B821C828C
:102E40001D821E828EEF89838A8381E08B830E949C
:102E5000E10481609D838C83011580E2180708F0EE
:102E60003FC0C801805E9109089728F060E076E0D5
:102E70000115110511F465E176E0C8010E94140AFC
:102E8000802F0E9448128FE19EE40197F1F700C065
:102E900000000E94E10481609D838C831B820115E8
:102EA00090E2190720F5802F0E94AC07C801805ED0
:102EB0009109089728F065EF75E00115110511F4E7
:102EC0006AE076E0C8010E94140A26960FB6F894CC
:102ED000DEBF0FBECDBFDF91CF911F910F9108953F
:102EE000BE016F5F7F4FC8010E94A614CCCFBE0108
:102EF0006F5F7F4FC8010E94A614E7CFCF92DF9289
:102F0000EF92FF920F931F93CF93DF93182F062F0B
:102F1000C0909602D0909702E0909802F0909902AB
:102F20008091210290912202A0912302B09124026B
:102F3000C82AD92AEA2AFB2ACFE1D0E0D701C60164
:102F40000C2E04C0B695A795979587950A94D2F74D
:102F500080FF12C0402F612F8C2F0E94590A8130B0
:102F6000910551F0DF91CF911F910F91FF90EF905C
:102F7000DF90CF900C941017219700F7402F612F0E
:102F800080E00E94590AEECF4F925F926F927F923B
:102F90008F929F92AF92BF92CF92DF92EF92FF9269
:102FA0000F931F93CF93DF9300D000D00F92CDB734
:102FB000DEB76C01FC0183819481892B31F0808123
:102FC000918189238F3F09F0E3C20F900F900F90FA
:102FD0000F900F90DF91CF911F910F91FF90EF9085
:102FE000DF90CF90BF90AF909F908F907F906F9029
:102FF0005F904F9008950E945E0C182F682F898172
:103000009A810E94BF0569817A81812F0E94B80A46
:10301000B6010E94A614811120C080911C02877005
:10302000A1F2F6018281882381F282E00F900F9055
:103030000F900F900F90DF91CF911F910F91FF9004
:10304000EF90DF90CF90BF90AF909F908F907F9048
:103050006F905F904F900C94E606F601828100819C
:1030600011818823D9F1C8010E945E0CF82E682FC7
:10307000C8010E94BF05B8018F2D0E94D40A8C019F
:10308000882EF601F280A580A2943FE0A3228091D1
:103090001C028770A1F0EF2CFF2091F0812F807F20
:1030A000803421F080E2800F883048F082E00E9476
:1030B000E60680911C028770EE24E3948111E12CD6
:1030C000B12EB2942FE0B222FBE0FB1508F440C011
:1030D000EB2DF0E0EC54F74D0C94E827C8010E946A
:1030E0009705F82EC8CF212F2F70A22E107F19F030
:1030F000A29490EFA922FF20C9F0AA2069F080E2F3
:10310000800F883010F081100BC080911F02A82A18
:10311000A0921F020E94F304802F0E94481218C040
:1031200080911E02A82AA0921E02F4CF802F0E9436
:10313000AC07AA2069F0A094005E083010F081105E
:103140003BC080911F02A822A0921F020E94F3049C
:10315000EB2DE850FF0B349710F40E944D06EE2043
:1031600009F433CF80911C0280FD2FCFF60112822B
:103170008595859585950E94FE06C6010E94C41717
:1031800080911C028595859585950F900F900F90E5
:103190000F900F90DF91CF911F910F91FF90EF90C3
:1031A000DF90CF90BF90AF909F908F907F906F9067
:1031B0005F904F900C94C30680911E02A822A092AB
:1031C0001E02C4CF312F3F70932E107F103219F0A2
:1031D000929480EF9822882071F081E0881661F146
:1031E000FF20B9F1AA2071F1F601858180FF94CF0B
:1031F0008F70858327C0FF2091F090912002892D48
:10320000892BA11003C00E941506A2CFE1E0AE12E7
:10321000FACF891709F49CCF8093200299CFA1108F
:1032200006C00E94ED04892D0E940A0691CFF1E0AC
:10323000AF1609F48DCFF5CFFF2031F025E02A1528
:1032400008F486CF892DDFCF34E03A1508F480CF1B
:10325000EACFAA2041F3F9E38F1293C12FEF33EFA6
:1032600081E0215030408040E1F700C0000089C17A
:10327000812F86958695837061F0813009F068CF43
:10328000C8019370F11002C090E080E00E94210616
:103290005FCFC8019370F11002C090E080E00E94FF
:1032A000370656CF802FFF2039F00E948C080E94ED
:1032B00059060E9459064CCF0E942907FACF812F48
:1032C000837009F066C0F11043CF802F82958695F8
:1032D0008770880F880F602F6F70462E512C712CCD
:1032E000612C082E04C0440C551C661C771C0A94E3
:1032F000D2F740E050E0BA0104FF0FC04FE050E0C9
:1033000060E070E004C0440F551F661F771F8A9568
:10331000D2F74095509560957095812F869586954A
:103320008370823019F1D8F40091210210912202A9
:103330002091230230912402813069F044295529DB
:1033400066297729CB01BA01602371238223932355
:103350000E941F07FDCE402A512A622A732ACB0100
:10336000BA016429752986299729F2CF442955295C
:1033700066297729009121021091220220912302CF
:1033800030912402CB01BA0160277127822793274D
:10339000DFCF8695FF2011F0812F8170882309F4FB
:1033A000D7CE802F829586958770880F880F602FE3
:1033B0006F70462E512C712C612C082E04C0440CC9
:1033C000551C661C771C0A94D2F740E050E0BA0105
:1033D00004FF0FC04FE050E060E070E004C0440F15
:1033E000551F661F771F8A95D2F7409550956095B7
:1033F0007095812F869586958370823019F1D8F467
:1034000000919602109197022091980230919902B2
:10341000813069F04429552966297729CB01BA0101
:1034200060237123822393230E949D0691CE402A1C
:10343000512A622A732ACB01BA0164297529862987
:103440009729F2CF442955296629772900919602B8
:10345000109197022091980230919902CB01BA0104
:103460006027712782279327DFCF1F70FF2029F065
:10347000812F0E94FE06802FC6CE802F0E940A0652
:10348000812F0E94C30664CE802F92EF891609F423
:1034900050C0981578F0E0EF8E1619F1F1EF8F1605
:1034A00009F43FC0FF2009F467C0A11035CE812F79
:1034B0008F713CC023EF821609F440C034EF8312B1
:1034C000F1CFFF2009F44DC01F71812F0E94FE062D
:1034D000E8E01E9FC0011124836080931C02812FAD
:1034E00025C0FF20C9F084E08A1508F431CE1F7191
:1034F00061E070E080E090E004C0660F771F881FF5
:10350000991F1A95D2F70091960210919702209177
:10351000980230919902A4CF95E09A1508F418CE3C
:10352000E6CF812F8F71FF2009F4ABCF0E94FE06FA
:103530000FCE812F8F71FF20C9F3A3CF60E070E021
:10354000CB01FF2009F470CF1F7161E070E080E0D3
:1035500090E004C0660F771F881F991F1A95D2F755
:1035600063CF81E00E94E606F1E0FA1508F0F0CDA5
:1035700082E00E94E606ECCDAA2039F0893309F4F6
:103580006DCE802F0E94AC07E3CD812F8F7179CF54
:1035900085E0DE01119601900D928A95E1F7F60122
:1035A000228189819A81211126CD0E949705182FA9
:1035B0002ACD1F93CF93DF938091C601807FA9F41A
:1035C0008091C301882389F08091F801D091C701CF
:1035D0006091C1017091C201A091C401B091C50177
:1035E000C62FC72316E0D81304C0DF91CF911F91D7
:1035F000089590E0109711F0CF3F19F4019687706D
:10360000F2CF189F9001199F300D1124F901E85352
:10361000FE4F41814713F2CF40814613EFCF4281E5
:103620004111ECCF438154814A1B5B0B483C51054F
:1036300028F78091C6018F7080618093C601F901DF
:10364000E353FE4F80818F708061808381EC91E035
:103650000E94C417DF91CF911F910C94EB05AF929C
:10366000BF92CF92DF92EF92FF920F931F93CF936F
:10367000DF93CDB7DEB761970FB6F894DEBF0FBE0C
:10368000CDBF8C0185E0F801DE011D9601900D9201
:103690008A95E1F7F80180819181E28021ECA22EE8
:1036A00021E0B22E6091C4017091C50161157105D0
:1036B00009F43EC13091C1014091C201232F24235E
:1036C0002F3F09F435C1C380D480F090C301F601C7
:1036D000E61BF70BFF2009F4FBC02091C601522F17
:1036E000507FE83CF10508F0BBC0511178C0FE2CBA
:1036F000491321C038131FC0E1101DC02F70206175
:103700002093C601C5010E94C4178091C601F8012B
:1037100085838F2D61960FB6F894DEBF0FBECDBFA7
:10372000DF91CF911F910F91FF90EF90DF90CF909D
:10373000BF90AF900895CD2829F0282F29232F3F3F
:1037400009F014C120E0F22FF170DF2E20FF3DC000
:103750002091F8014091C70156E0241315C08D87D0
:103760009E878D859E850E94A00C292F22952F7003
:103770002230F8F0243020F59F70F9F0F80195819F
:10378000907FD9F4D12C1FC030E0529FF001539F9D
:10379000F00D1124E853FE4F6181961306C060813D
:1037A000861303C06281E61210C02F5F3F4F27705F
:1037B000D4CF9F7011F0882329F3805E883010F3F6
:1037C000C8010E94C417FD2CA4CFEE2009F4A1CF9C
:1037D0008091C60181608093C601F12C9ACF491374
:1037E00012C0381310C0E1100EC0F8012583C801C3
:1037F0000E94C41786E0F801A1ECB1E001900D929F
:103800008A95E1F786CF8D879E878D859E850E945C
:10381000AA0C882309F1EE20F9F08091C6018032CC
:1038200070F02091C1013091C20138872F83198631
:10383000DB86CA868C87CE0107960E94C41786E075
:10384000F801A1ECB1E001900D928A95E1F70E9498
:10385000D91AFF24F3945DCFC8010E94C417F9CF91
:1038600051110AC081EC91E00E94C41786E0F50175
:1038700011928A95E9F7B1CF49130FC038130DC0E3
:10388000E1100BC0F8012583C8010E94C41786E02F
:10389000F50111928A95E9F73CCF8D879E878D853A
:1038A0009E850E94AA0C8823B9F2EE20A9F280918D
:1038B000C601803220F22091C1013091C2013A83C9
:1038C00029831B82DD82CC828E83CE010196B5CF07
:1038D000E83CF105E0F6FE2CEE2009F4BDCF4913DB
:1038E00016C0381314C08091C60180FD83CF982F75
:1038F000907F09F47FCFF8018583903F09F477CF5B
:10390000982F907F905F8F70892B858370CF8D87E4
:103910009E878D859E850E94AA0C811190CF8091F3
:10392000C60181608093C601C8010E94C417F1CE10
:10393000EE2009F491CF8D879E878D859E850E940C
:10394000AA0CF82E882309F487CF86E0F801A1ECB1
:10395000B1E001900D928A95E1F78091C1019091BB
:10396000C2010E94A00C0E94D91AD3CE21E02E25BC
:10397000EACE1F93CF93DF93CDB7DEB767970FB62D
:10398000F894DEBF0FBECDBF342F4B8B252F5C8B41
:103990006D8B7E8B8F8B8E899F89611110921E0299
:1039A0001A8A198A3D872E876F87998B888B86E0C4
:1039B000FE013D96DE01179601900D928A95E1F782
:1039C000CE0107960E942F1B882389F016E0809174
:1039D000F8019091C701891349C067960FB6F89412
:1039E000DEBF0FBECDBFDF91CF911F91089586E05E
:1039F000FE013796DE01119601900D928A95E1F74E
:103A00008A859B85892B11F38F81988589238F3F28
:103A1000E9F22091C70130E0C9010196877099272A
:103A20004091F8014817190671F40E94B30D1092E5
:103A3000C7011092F80186E0E1ECF1E0DF011D9290
:103A40008A95E9F7C3CF96E0929FD001939FB00D7E
:103A50001124A853BE4FFE01319601900D929A9504
:103A6000E1F78093C7010E94EB05B0CF819FC001B1
:103A7000112488539E4F0E942F1B882309F4ADCF39
:103A80008091F80190E00196877099278093F80162
:103A90009ECFAF92BF92CF92DF92EF92FF920F93A1
:103AA0001F93CF93DF9300D000D0CDB7DEB781E670
:103AB000E82E81E0F82E9DE2A92E92E0B92E10E0CA
:103AC000CC24C394D12CF70181917F01F894E82F85
:103AD000E295EF70F0E021A18F70A60102C0440FC3
:103AE000551F8A95E2F7CA01922F982B91A392A1B4
:103AF0008095892382A3789400C0E9E6F1E030E064
:103B000020E000E04191A42FA295AF70B0E0909624
:103B10008C9190E04F7002C0959587954A95E2F799
:103B200080FD4CC08C2D022E01C0880F0A94EAF74C
:103B3000082B2F5F3F4F2730310521F7F7013197D1
:103B400080810E94BA0950E55A95F1F7F50180810C
:103B50000817B1F1008381E0182BFFEFAF1ABF0AFD
:103B600045E6E41641E0F40609F0ADCF00913602D7
:103B7000112341F181E08093B5010E94E10490930B
:103B8000B4018093B3018091B3019091B4010E947C
:103B9000C6040697D8F0E02FF0E0E65AFD4F80917A
:103BA0002D02808380912E02818380912F02828357
:103BB0008091300283831092B50108C080E0B8CFB5
:103BC00080E0CACF8091B5018111DDCF0E944C11F8
:103BD000082F60913602882309F452C019821A8294
:103BE0001B821C82862F90E0BE016F5F7F4F865A3A
:103BF0009D4F0E943926811123C08091B6018F5FAD
:103C00008093B6018630D0F1E0913502F0E0E65ABB
:103C1000FD4F1082118212821382111101C0102FE8
:103C2000812F0F900F900F900F90DF91CF911F91E8
:103C30000F91FF90EF90DF90CF90BF90AF900895DD
:103C40001092B601E0913502F0E0BF01665A7D4F57
:103C5000DE0111969E012B5F3F4F00E0FB01419179
:103C6000BF019D91491731F0AF0141505109FA014F
:103C70009083082FA217B30789F7CFCF00E0CDCFED
:103C800070E0665A7D4F8091350290E0865A9D4FD4
:103C90000E946426C2CF1F920F920FB60F9211247A
:103CA0002F933F934F935F936F937F938F939F9344
:103CB000AF93BF93CF93DF93EF93FF93D091E9003E
:103CC000DF708091EC00C82FC17080FDC0E81092B9
:103CD000E9008091F000877F8093F00078940E9443
:103CE000C80D1092E9008091F00088608093F00088
:103CF000CD2BCF70C093E900FF91EF91DF91CF9171
:103D0000BF91AF919F918F917F916F915F914F91F3
:103D10003F912F910F900FBE0F901F9018951F92FB
:103D20000F920FB60F9211242F933F934F935F93EF
:103D30006F937F938F939F93AF93BF93EF93FF9373
:103D40008091E10082FF09C08091E20082FF05C0FE
:103D50008091E1008B7F8093E1008091DA0080FF09
:103D600023C08091D80080FF1FC08091DA008E7F31
:103D70008093DA008091D90019BC80FF98C082E05E
:103D800089BD09B400FEFDCF81E080938902809156
:103D90006402811109C00E9426030E94F1038091F0
:103DA000E20084608093E2008091E10080FF17C010
:103DB0008091E20080FF13C08091E2008E7F8093AB
:103DC000E2008091E20080618093E2008091D8005F
:103DD00080628093D80019BC85E08093890280912D
:103DE000E10084FF28C08091E20084FF24C019BC58
:103DF00082E089BD89B5982F917080FFFBCF8091BB
:103E0000D8008F7D8093D8008091E1008F7E8093D1
:103E1000E1008091E2008F7E8093E2008091E200D9
:103E200081608093E20080918A02882309F444C073
:103E300084E0809389028091E10083FF27C0809114
:103E4000E20083FF23C08091E100877F8093E1003F
:103E500082E08093890210928A028091E1008E7F35
:103E60008093E1008091E2008E7F8093E200809158
:103E7000E20080618093E20042E060E080E00E9426
:103E8000BF038091F00088608093F000FF91EF9174
:103E9000BF91AF919F918F917F916F915F914F9162
:103EA0003F912F910F900FBE0F901F901895109279
:103EB00089021092640278CF8091E30087FD93E03D
:103EC00090938902B8CFCDB7DEB7E2970FB6F894DA
:103ED000DEBF0FBECDBF84B7877F84BF0FB6F89417
:103EE000A8958091600088618093600010926000C6
:103EF0000FBE80E890E00FB6F89480936100909335
:103F000061000FBE85B7806885BF85B7806885BFB3
:103F100080EB94E090939101809390010E9426039E
:103F20000E94F1038091E20084608093E200789423
:103F3000809189028823A1F01091E9001F7090916F
:103F4000EC00892F817090FD80E8182B1092E90019
:103F50008091E80083FD0E94C80D1F701093E90056
:103F600082E084BD93E095BD9DE797BD80936E0090
:103F70001092290210922A0210922B0210922C0207
:103F800052985A9889B182FB882780F9809304015E
:103F90000E944C1181110E942D2680910401809174
:103FA000040194E0811190E09093360284E0891B33
:103FB0008093350284E90E94BA0986E60E94BA0914
:103FC00087E90E94BA0986EC0E94BA0909E611E065
:103FD00070E7E72E71E0F72EF80181918F010E94C2
:103FE000BA09E016F106C1F7EDE2F2E085E392E0EE
:103FF000AAE5B2E011921D928E179F07D9F70E9491
:10400000491D8FE19EE40197F1F700C000000E9476
:10401000491D80915A0280FF17C06FEF82E290E045
:104020000E9427286FEF83E290E00E9427286FEF1D
:1040300084E290E00E9427286FEF7FEF90E080E01D
:104040000E9445280E94B50490E080E00E9421284B
:104050008B3E9E4F11F00E946D110E944C118111F8
:1040600002C00E94332682E290E00E941928853C1B
:1040700009F001C583E290E00E941928873709F012
:10408000FAC484E290E00E9419288D3C09F0F3C440
:1040900090E080E00E9421288B3E9E4F11F00E940C
:1040A0006D1182E090E00E94192880934F020E94D7
:1040B0004B0A909338028093370283E090E00E948D
:1040C0001928682F70E090E080E00E941F0780911F
:1040D0000401811106C084E38093060185E3809387
:1040E000050120910601A22FA295AF70B0E0919634
:1040F0003C9191972F7081E090E0BC01022E01C0AD
:10410000660F0A94EAF7462F4095432391964C9305
:10411000919792963C919297362B92963C939297D8
:1041200040910501E42FE295EF70F0E031A14F706E
:10413000042E01C0880F0A94EAF7982F90959323D4
:1041400091A392A1892B82A390968C9190E002C0BA
:10415000959587952A95E2F7817020A130E002C0FD
:10416000359527954A95E2F792E020FF90E0892B5C
:10417000809341029091040181E09827909340023E
:10418000891B809339028BE091E090933B028093EE
:104190003A0238E1C32ED12C40E4742E50E4A52E0F
:1041A0008AE592E068E0B62EB80E8091890212E0AE
:1041B000853009F4ACC10E94491D81110E94D504CB
:1041C000E0E5F2E0AAE5B2E010E000E0802EED903C
:1041D00081918E1509F4AAC18E25912CFF24F394A8
:1041E000982F9F2109F49DC10E944C11882399F0BA
:1041F00099A68AA6EF2081E009F480E08BA70E94AF
:10420000E1048160782F9DA78CA749A55AA56BA5CD
:104210008DA50E94B91CF801E05BFD4F8081F82656
:10422000F08280914102E82FEE0FEE0F909106018F
:10423000A92FA295AF70B0E090962C9130E09F70BE
:1042400002C0359527959A95E2F721703327909112
:104250000501A92FA295AF70B0E090964C9150E067
:104260009F7002C0559547959A95E2F7CA018170F3
:10427000992740FF02C082E090E0822B8E2B809332
:104280004102109140028F70E82FF0E0E059FE4F9C
:10429000808190913F02890F80933F0220E084301B
:1042A00074F0E12F012E000CFF0BE35CFD4F8081C9
:1042B0008F5F808360E0812F0E947E1721E08091D4
:1042C0003F028D3F74F4E12F012E000CFF0BE35CE5
:1042D000FD4F80818150808361E0812F0E947E1795
:1042E00021E080913F02082E000C990B64E070E001
:1042F0000E94D42780933F0221110E941F0686E06E
:10430000E8E4F2E0DE01119601900D928A95E1F762
:10431000E0904A02F0904B0210914C0200914D0245
:1043200010924A0210924B0210924C0210924D02CF
:104330008E2D8F2991F080914602909147020E9424
:10434000C604AC0190914502992309F406C18091FD
:1043500008018417150608F40EC1812F802B09F47B
:1043600048C080914302909144020E94C6049C017F
:1043700090914202992309F4A0C325363105C8F172
:104380009F3F19F09F5F90934202112359F00E94C2
:1043900009089FEF11160CF491E0899F802D1124DC
:1043A00080934C02002359F00E9409089FEF1016D9
:1043B0000CF491E0899F802D112480934D0230915F
:1043C0004C023323B1F020914D02222391F045EBB2
:1043D0003403C0011124992309F40CC190934C02B9
:1043E00045EB240390011124332309F407C13093D2
:1043F0004D0280914A0290914B02892B90914C0280
:10440000892B90914D02892B11F00E94590686E06C
:10441000FE013196A8E4B2E001900D928A95E1F791
:104420000E944D0690914E02891721F00E944D0680
:1044300080934E0280918902843009F0B6CE83E0E9
:104440008093E9008091E80082FFAFCE8091E80080
:1044500090E085FF06C00E944503882309F4D2C07E
:1044600091E08091E8008B778093E800992309F42C
:104470009CCE0091620210916302898101151105A1
:1044800009F4DCC08E3F09F01CC18A81833020F022
:104490008550833008F015C1EA81E83008F011C179
:1044A000F0E0E054F74D0C94E827809189028430C5
:1044B00009F110923C020FB6F894A895C0926000E2
:1044C0000FBE7092600083B7817F846083BF83B723
:1044D000816083BF7894889583B78E7F83BF0FB642
:1044E000F894A89580916000886180936000109294
:1044F00060000FBE80918802882349F00E94491D08
:10450000EAE5F2E081918111A0C2BE12FBCF809159
:104510008902853009F4C9CF0E94B30D0E944D066F
:104520004ACE9394FF0C27E092125ACE0F5F1F4F92
:104530000830110509F04ACE8FEF8EA78FA718AA71
:104540000E94E1048160782F9AAB89AB4EA55FA5EC
:1045500068A98AA90E94B91C64CE209107018AE04B
:10456000289F900111242417350708F0F6CE9F5F8D
:104570009093450202C09F3FD1F7EE2059F00E9470
:1045800042089FEF1E140CF491E0899F802D1124A6
:1045900080934A02FF2059F00E9442089FEF1F14A7
:1045A0000CF491E0899F802D112480934B0230916F
:1045B0004A02332309F4D1CE20914B02222309F47D
:1045C000CCCE45EB3403C0011124992359F09093CC
:1045D0004A0245EB240390011124332339F0309330
:1045E0004B02BBCE81E080934A02F3CF81E08093FF
:1045F0004B02B3CE81E080934C02F2CE81E08093F7
:104600004D02F7CE00E210E0CE0101967C018091D0
:10461000E80085FD0AC08091E8008B778093E80070
:104620000E944503882399F31BCF8091F100F70185
:1046300081937F010150110951F712CF8D3009F498
:10464000AEC0B8F4843009F491C048F4823049F126
:1046500008F07DC0813009F18FEF898332C0863048
:1046600009F49AC008F48DC08C30B1F780E18A83D8
:1046700028C0813109F4EEC040F48F3009F4BDC088
:1046800008F491C00E94CE0C1CC0833109F40DC106
:1046900008F4E2C08E3F01F7FFCE1A8289E08B83D7
:1046A00010C08A81823009F4FFC1833089F18130E2
:1046B00099F60E94D5040E94EE276B837C838D833C
:1046C0009E8380918902843009F06FCD1091E900BA
:1046D0001F709091EC00892F817090FD80E8182B5D
:1046E00082E08093E9008091E80080FF0DC050E0F7
:1046F00040E060E270E0CE0101960E947603809176
:10470000E8008E778093E8001F701093E9004DCD8C
:104710008091090190910A01892B99F280915A02A6
:104720008B8380915B028C8380915C028D8380916E
:104730005D028E8380915E028F8380915F02888705
:10474000809160028987809161028A87BACF8A81CD
:10475000823009F081CF6B817C818D819E810E94A6
:10476000EE2785E290E00E942728ABCF4C816B8139
:104770008A810E94890A9827892798279E838D839A
:10478000A0CF2D813E813227232732274C816B8198
:104790008A810E94170D95CF0E944C0D92CF81E027
:1047A0008A838AEF7CCF0C8110E00D31110508F06F
:1047B00088CFEA80FB80FE24EF24FE24CE01019600
:1047C0004C01080F191FC7018A5F9D4F8016910683
:1047D00009F477CFFAEFEF16F1E0FF0658F40E94E4
:1047E0001928F4018483FFEFEF1AFF0A2FEF821AD2
:1047F000920AE9CFF4011482F6CF809109019091D9
:104800000A01892B09F45DCFEC80F12C4DE1E4160F
:10481000F10408F056CF0A811B81102701271027C9
:10482000CE0101964C01E00EF11EC8018A5F9D4F3A
:104830000E151F0509F445CF0A3FE1E01E0720F4DD
:10484000F40164810E942728FFEF8F1A9F0A0F5FEF
:104850001F4FEBCF84E00BCF0C8110E00D31110521
:1048600008F02FCFEA80FB80FE24EF24FE24CE0147
:1048700001964C01080F191FC701869608151905E6
:1048800009F41FCFF0ECEF16F1E0FF0658F40E9498
:104890001928F4018483FFEFEF1AFF0A2FEF821A21
:1048A000920AEACFF4011482F6CFEC80F12C4DE1AC
:1048B000E416F10408F005CF0A811B8110270127B7
:1048C0001027003C81E0180708F0FBCE80EC91E057
:1048D000801B910B8E159F0508F4F3CEFE013196D7
:1048E0004F01E00EF11EC80186960E151F0509F452
:1048F000E8CE003CF1E01F0720F4F40164810E943F
:104900002728FFEF8F1A9F0A0F5F1F4FECCF88E019
:10491000EEE1F1E0DE01919601900D928A95E1F7CA
:1049200083E089831A821B821C8288E0FE01B19693
:10493000DE01159601900D928A95E1F7C2CEA9820B
:1049400081E08A831B821C82BCCE8C81682F70E040
:10495000762F66278B81860F972F911D092E000CCD
:10496000AA0BBB0B25E0880F991FAA1FBB1F2A9516
:10497000D1F7AC01BD01405E5F4F6F4F7F4F4817CD
:1049800059076A077B0708F49CCE803421E0920720
:10499000A105B10508F095CE4134E1E05E0761055F
:1049A000710520F040E451E060E070E0481B590BD5
:1049B000BC0166537C4FCE0101960E94092881CE2E
:1049C0001B810C8140E0602F812F0E94590A98279B
:1049D000892798279A83898341E0602F812F0E943D
:1049E000590A9827892798279C838B836ACE2E8122
:1049F0003F813227232732274D816C818B810E9492
:104A0000DE0C5FCE4EE150E06FEF70E0CE0103961A
:104A10000E9412288091090189830A8352CE81E085
:104A200090E0909363028093620282E390E090931F
:104A30005902809358020E94E10443CE80910901FB
:104A400089830A83809158022ACE19BC19BD09B402
:104A500000FEFDCF8091D8008F7D8093D80080919B
:104A6000E00082608093E0008091E00081FDFCCF57
:104A70000E94B30D4CCD60E085E290E00E942728B3
:104A80000E944C0D0E94CE0C65EC82E290E00E94E8
:104A9000272867E783E290E00E9427286DEC84E2F4
:104AA00090E00E942728F4CA85E290E00E9419282D
:104AB0001B821C821D828E8304CE2D32314008F071
:104AC00061CC97CC0F931F930E944C11882321F047
:104AD0001F910F910C94D5040E94D50400912902D6
:104AE00010912A0220912B0230912C02600F711F2D
:104AF000821F931F1F910F910895CF92DF92EF9223
:104B0000FF926B017C010E944C1181110EC00E942A
:104B1000D504C61AD70AE80AF90AC0922902D09227
:104B20002A02E0922B02F0922C02FF90EF90DF908D
:104B3000CF90089578941F921FB61F9211248F93DF
:104B40009F93AF93BF938091250290912602A091ED
:104B50002702B09128020196A11DB11D8093250264
:104B600090932602A0932702B0932802BF91AF91A1
:104B70009F918F911F901FBE1F9018951F921FB677
:104B80001F9211248F939F93AF93BF9380913C0208
:104B9000811113C08091250290912602A0912702D5
:104BA000B09128024196A11DB11D809325029093DA
:104BB0002602A0932702B0932802BF91AF919F9144
:104BC0008F911F901FBE1F901895FF920F931F93F8
:104BD000CF93DF93D09139020D2F10E0035C1D4F6E
:104BE000FC01C081F8018081C81BFC2E80E01F14ED
:104BF0007CF09C2FC7FD90E0C91BC11114C0882315
:104C0000E9F0DF91CF911F910F91FF900C941F0657
:104C1000FA94F80180818F5F808360E08D2F0E947D
:104C20007E1781E0E4CFCF5FF801808181508083DF
:104C300061E08D2F0E947E1781E0DFCFDF91CF9161
:104C40001F910F91FF900895E0914002F0E0E35C26
:104C5000FD4F2081FC012083089561E070E086E132
:104C600091E00C94E62661E070E086E191E00C941E
:104C7000ED26CF93DF93D62FC72F0E94872700976B
:104C800009F5ED2FFC2FDC01A156BD4F2C9121938E
:104C9000019684309105B9F783EA92E00E94E525F8
:104CA0000E9462256E5F7F4F8F4F9F4F60939B02E4
:104CB00070939C0280939D0290939E0281E0DF910D
:104CC000CF91089580E0FBCFCF93DF93D62FC72FEE
:104CD00060919B0270919C0280919D0290919E0236
:104CE0000E947D25ED2FFC2F90E080E02191DC01DA
:104CF000A156BD4F2C93019684309105B9F783EAF4
:104D000092E0DF91CF910C9424268EE14B9B02C060
:104D10008150E1F74B9BFECF08955B9880E18A9527
:104D2000F1F75B9A0895FC013BE03A95F1F798E0C2
:104D300020E080E031E048E04A95F1F7880F4B9B96
:104D400002C08160232742E04A95F1F7000048E065
:104D50004A95F1F7915079F798E09A95F1F799B162
:104D600032E03A95F1F7000048E04A95F1F793FBFD
:104D7000992790F992272081920F90830895EF92BE
:104D8000FF920F931F93CF93DF930F92CDB7DEB7B0
:104D900019828C017C01E60EF11C0E151F0561F4D1
:104DA00081E09981911180E00F90DF91CF911F9167
:104DB0000F91FF90EF9008950E948526CE010196F5
:104DC0000E949326F80181938F01E7CF9093A5026B
:104DD0008093A402539A5B9A08959093A5028093BE
:104DE000A40253985B9AEB9AE9E6F0E080818F7316
:104DF000808308956150770B91E001C0990F6A9507
:104E0000EAF720E031E0911108C0222391F05B9A8B
:104E100080E18A95F1F75B980895492F482339F08E
:104E20005B9A232740E14A95F1F79695ECCF5B9882
:104E3000F9CF5B98EDCFFF920F931F93CF93DF9342
:104E4000EC018C01060F111DC017D10731F4DF9161
:104E5000CF911F910F91FF900895F9900E948D2698
:104E600068E08F2D0E94FA26EFCF1F920F920FB6A7
:104E70000F9211242F933F934F935F936F937F93E0
:104E80008F939F93AF93BF93CF93DF93EF93FF9352
:104E90005B98539AC091A402D091A5026D816623BC
:104EA00021F08E819F810E941B270E948D2688E021
:104EB0008A95F1F75B9853985B9A88E08A95F1F7A9
:104EC0006A81662309F18B819C810E94BF26E8815B
:104ED000F981882311F088E001C082E080830E947C
:104EE0008526FF91EF91DF91CF91BF91AF919F9177
:104EF0008F917F916F915F914F913F912F910F9083
:104F00000FBE0F901F901895E881F981E4CFCF93E1
:104F1000DF93C091A402D091A502F894539A5B98B4
:104F200082E08A95F1F700C053985B9A80E18A95F8
:104F3000F1F74B9B0CC0539A5B9AE881F98181E0B1
:104F40008083789481E090E0DF91CF9108956D8126
:104F5000662381F08E819F810E94BF2681110AC045
:104F6000539A5B9AE881F98182E08083789482E0A9
:104F700090E0EACF0E94852680E18A95F1F75B9860
:104F8000539A88E08A95F1F76A81662321F08B8134
:104F90009C810E941B270E948D26E881F981108246
:104FA000789490E080E0D0CF97FB072E16F4009421
:104FB00007D077FD09D00E94F52707FC05D03EF405
:104FC000909581959F4F0895709561957F4F0895B5
:104FD000EE0FFF1F0590F491E02D099469279627A5
:104FE00069277827872778270895AA1BBB1B51E1DB
:104FF00007C0AA1FBB1FA617B70710F0A61BB70B49
:10500000881F991F5A95A9F780959095BC01CD01ED
:105010000895FB01DC0102C005900D924150504003
:10502000D8F70895DC0101C06D9341505040E0F77E
:105030000895F999FECF92BD81BDF89A992780B560
:105040000895A8E1B0E042E050E00C944D28262FEE
:10505000F999FECF92BD81BDF89A019700B402166E
:1050600039F01FBA20BD0FB6F894FA9AF99A0FBE1C
:1050700008950396272F0E9428280E942728252F6D
:105080000E942828242F0C9428280196272F0E945C
:1050900028280C942728DC01CB01FC01F999FECFCC
:1050A00006C0F2BDE1BDF89A319600B40D924150B0
:1050B0005040B8F70895F894FFCFB90CB90CC20C62
:1050C000C20CC40CC20CC20CC20CB90CB90CC90C79
:1050D000C20CC20CC90CAD0ED50E280FD50E280F70
:1050E000080F400F280F48105510EE11E51101125E
:1050F000E31146124612E311461246121D124612E1
:10510000281233124612461246124612E311461274
:105110004612E31146120F1246124612441244126E
:1051200044124412441244124412441244123E12D5
:105130004612EE11E111461246124612461246126E
:10514000461246124612461246123E1246124612A7
:10515000E31146124212421242124212421242120B
:105160004212421242123E1273187318E218E218E9
:1051700038195219A818A8185F19351A441A441A70
:1051800087249F24A524E024F72402250F251E252B
:105190002808140A0135341E320100B2040C11EB48
:1051A00010E710E310019A02049B02059F025CE2E3
:1051B0007FD350CB159E01020304050607080900A2
:1051C000818283E200E900EA00B500B600B700CDB5
:1051D000008301CC008A0192019401210223022460
:1051E000022502260227022A02B300B4006F0070D3
:1051F00000946697C600000000F5F6F731333236AA
:1052000000FF0100010000FFFF0000010001FF009E
:105210004022BC8A016801AC001C0535055505001B
:00000001FF
