:100000000C9410040C9457040C9457040C9457044B
:100010000C9457040C9457040C9457040C945704F4
:100020000C9457040C9457040C9433290C94EF2827
:100030000C942B2A0C9457040C9457040C945704DA
:100040000C9457040C9457040C9457040C945704C4
:100050000C9457040C94072A0C9457040C945704DE
:100060000C9457040C9457040C9457040C945704A4
:100070000C9457040C9457040C9457040C94570494
:100080000C9457040C9457040C9457040C94570484
:100090000C9457040C9457040C9457040C94570474
:1000A0000C9457040C9457040C945704050109024E
:1000B000A10185020901A100050919012905150001
:1000C00025019505750181029501750381010501E1
:1000D000093009311581257F950275088106093897
:1000E0001581257F950175088106050C0A380215D2
:1000F00081257F950175088106C0C005010980A191
:1001000001850319012AB700150126B7009501756D
:10011000108100C0050C0901A101850419012AA064
:1001200002150126A002950175108100C005010984
:1001300006A1018505050719E029E71500250195A8
:1001400008750181020507190029EF1500250195A1
:10015000F0750181020508190129059505750191C0
:1001600002950175039101C00660FF0961A10109B3
:1001700062150026FF0095207508810209631500AD
:1001800026FF00952075089102C005010906A1010E
:10019000050719E029E71500250195087501810279
:1001A0009501750881010507190029FF150026FF33
:1001B0000095067508810005081901290595057542
:1001C000019102950175039101C00000000000003B
:1001D000000000000000000000000000000000001F
:1001E00000000000000000000000000000007E0F82
:1001F00000D4FFFFFFC700000078000000000000EF
:1002000000002A2B28000000000000000000000071
:10021000000000000029000000002C1E34202122D4
:1002200024342627252E362D3738271E1F2021223D
:10023000232425263333362E37381F0405060708B6
:10024000090A0B0C0D0E0F101112131415161718A6
:10025000191A1B1C1D2F3130232D350405060708E4
:10026000090A0B0C0D0E0F10111213141516171886
:10027000191A1B1C1D2F3130354C00047F3F1F64A1
:100280003214643214783C1E1E140A05FD377A5865
:100290005A000004E6D6B446020021011600000010
:1002A000742FE5A3E002F4011F5D003D8889C65468
:1002B00036C3174FE4EFAD275F6E7A8DEF41B87408
:1002C000157A88F91DA822F8B7B982801216C16B79
:1002D00041F59FE96B19B59CA94DEE5720DE73F2ED
:1002E000D6C878BB44CCE32CD057FD71DC9339B22F
:1002F000AC5A25268217BFD8DE751FFEBE99A0B75F
:10030000E145E7C30AFFFC3D01DB8222244345F7B8
:10031000FB5635A1CEEEEB89329D2381CA30CD222A
:100320009B9B82637B56A56C8340A12E710D5371FC
:1003300036A959C94226E71661BC3CDB33D619C839
:10034000C770357F3FF2A6B7B955A3394BBE0185BB
:10035000F1AF4F82AB7598CB8C27842F7BD1F630D1
:1003600012E937CCFC316333F66BA5425EBC8D05D8
:10037000F89DA44B0ED5A281156B13815FD1784DEA
:10038000B1CBC6F802CD40FF95970557B4D0EAE34C
:100390004130684702B927D3FAD9408D1AD6D624FE
:1003A0005E5E2F8F243C9B329155B3A64275198512
:1003B000F0CB432047CDA0C183487FFAEC5FDFF646
:1003C000F3E3F16C4A87CC10A44C000097E53BECBA
:1003D0009C4717BF0001BB02F50500007540EB7E8E
:1003E000B1C467FB020000000004595A000101017A
:1003F00001010101010102020202020202020203E2
:1004000003030303030303040404040404040505B1
:100410000505050606060606070707070708080874
:1004200008090909090A0A0A0B0B0B0C0C0C0D0D23
:100430000D0E0E0E0F0F0F101011111112121313BB
:100440001414151516161717181819191A1A1B1B34
:100450001C1D1D1E1E1F2020212222232424252690
:1004600026272829292A2B2C2D2D2E2F30313232C8
:10047000333435363738393A3B3C3D3E3F404142D4
:10048000434445464748494A4C4D4E4F50515354BA
:10049000555658595A5B5D5E5F616264656668696E
:1004A0006B6C6D6F7072737577787A7B7D7E8082EE
:1004B000838587888A8C8E8F91939596989A9C9E37
:1004C000A0A2A3A5A7A9ABADAFB1B3B5B7BABCBE47
:1004D000C0C2C4C6C9CBCDCFD1D4D6D8DBDDDFE214
:1004E000E4E7E9EBEEF0F3F5F8FAFDFFFFAA7F553C
:1004F000402223252628292A2C2D2F303233353629
:10050000383A3B3D3E4042434547494A4C4E5051A4
:10051000535557595A5C5E6062646668696B6D6FCB
:1005200071737577797B7D7F81838587898A8C8ECE
:1005300090929496989A9C9E9FA1A3A5A7A8AAACD6
:10054000AEAFB1B3B4B6B8B9BBBCBEBFC1C2C3C510
:10055000C6C7C9CACBCCCDCED0D1D2D2D3D4D5D6B2
:10056000D7D7D8D9D9DADADBDBDBDCDCDCDCDCDDE5
:10057000DDDDDDDCDCDCDCDCDBDBDBDADAD9D9D8C9
:10058000D7D7D6D5D4D3D2D2D1D0CECDCCCBCAC961
:10059000C7C6C5C3C2C1BFBEBCBBB9B8B6B4B3B190
:1005A000AFAEACAAA8A7A5A3A19F9E9C9A9896942B
:1005B00092908E8C8A89878583817F7D7B79777500
:1005C00073716F6D6B6968666462605E5C5A5957DF
:1005D000555351504E4C4A4947454342403E3D3B9E
:1005E0003A3836353332302F2D2C2A292826252328
:1005F0002229001A0015001C000C0013001400082A
:10060000001700180012004C002B00160009000B08
:10061000000E003300040007000A000D000F002A3E
:1006200000E1001B0019001100360052001D0006F9
:10063000000500100037002800E000E20000002C58
:100640004250004F00E3002C000000380051000130
:100650005135001F0021002300250027001E002027
:1006600000220024002600005C3900160009000B5F
:10067000002D003400040007000A000D002E004C7D
:100680000001006900010001002F00520068000114
:100690000001000100300031000100010000002CC9
:1006A0000050004F0001002C0000003800510001F4
:1006B0000035003B003D003F00410043003A003C54
:1006C000003E004000420044000100010001000122
:1006D0000001000100C35C010001000100010045B0
:1006E0000001000100010001000100010001000102
:1006F000000100010001000100145C010000000184
:1007000000010001000100010000000100010001E2
:1007100000010001000100010001000100010001D1
:1007200000010001000100010001000100010001C1
:1007300000010001000100010001000100010001B1
:1007400000010001000100010001000100010001A1
:100750000001000100010001000100010000000192
:100760000001000100010001000000010001000182
:100770000009025B00030100A0FA09040000010364
:100780000101000921110100012240000705810338
:1007900008000A09040100020300000009211101F8
:1007A0000001222200070582032000010705030340
:1007B00020000109040200010300000009211101C9
:1007C000000122BC000705840320000A1201000278
:1007D00000000008276240C00100010203011C0361
:1007E0007600690061006C003A0066003600340053
:1007F0006300320062003300630000000C036300FA
:1008000068007A00340030000000100367007200B6
:100810006C00640074006D006B00000004030904A8
:1008200011241FBECFEFDAE0DEBFCDBF04B603FE5A
:1008300027C08091730490917404A0917504B091C5
:1008400076048730904BA740B04BD1F410927304DC
:1008500010927404109275041092760414BE84B73A
:10086000877F84BF0FB6F894A89580916000886157
:1008700080936000109260000FBEE0E0F8E30995FD
:1008800011E0A0E0B1E0ECEEF4E602C005900D92BC
:10089000A839B107D9F724E0A8E9B1E001C01D9259
:1008A000A337B207E1F70E94522A0C9442320C940B
:1008B0000000E8EDF0E080818E7F80831092E200FE
:1008C0001092DA001092E100A0EEB0E08C9181600D
:1008D0008C9380818F77808319BCA7EDB0E08C91D9
:1008E0008E7F8C9380818F7E808310924004089548
:1008F0002091E4003091E50095E6A9012091EC00FB
:10090000822F817020FF06C08091E80080FF06C022
:1009100080E008952091E80022FD1AC080916504CE
:10092000882389F0853089F08091EB0085FD0FC028
:100930002091E4003091E50042175307F9F29150FD
:10094000E1F684E0089582E0089583E0089581E06F
:100950000895EF92FF920F931F93CF937C018B0129
:100960000E947804C82F811117C08091E80085FD8E
:100970000BC08091E8008E778093E8000E94780495
:10098000882399F3C82F08C0F70181917F018093D4
:10099000F1000150110949F78C2FCF911F910F9150
:1009A000FF90EF9008958091670487FF13C08091B6
:1009B000E80082FF06C08091E8008B778093E80012
:1009C00004C0809165048111F2CF0895809165047F
:1009D0008823D9F38091E80080FFF8CF8091E80068
:1009E0008E77ECCF982F9093E900242F762F50E04C
:1009F000891731F07091EC002091ED005091F000DA
:100A000021FD07C09F5F973071F78093E90081E077
:100A100008953091EB003E7F3093EB003091ED0074
:100A20003D7F3093ED003091EB0031603093EB006F
:100A30007093EC002093ED005093F0002091EE00B5
:100A400027FDE0CF80E00895CF92DF92EF92FF92F2
:100A50000F931F93CF93DF93C8EDD0E088818F7EF3
:100A60008883E7EDF0E080818160808384E082BF4D
:100A700081E08093400488818E7F888302EE10E0BD
:100A8000F80110821092DA0081EEC82ED12CF60106
:100A9000108288818F7788838881806888838881A5
:100AA0008F7D888319BC10926504109266041092A1
:100AB00064041092630490EEE92EF12CF70180811A
:100AC0008B7F808388818160888342E060E080E062
:100AD0000E94F204F60180818E7F8083F80180817C
:100AE00081608083808188608083F70180818E7F30
:100AF0008083888180618883DF91CF911F910F91DE
:100B0000FF90EF90DF90CF900895FC0180916D04ED
:100B100090916E0486179707A0F06115710529F46E
:100B20009091E8009E779093E80090E06115710540
:100B300051F4911108C08091E80082FF34C080E038
:100B40000895BC01F2CF809165048823C1F18530FE
:100B5000C1F18091E80083FD30C08091E80082FD02
:100B6000EACF8091E80080FFE1CF8091F3002091EF
:100B7000F200382F6115710519F02830310558F051
:100B800091E02830310509F090E02091E8002E77BF
:100B90002093E800CBCF81918093F10061507109DF
:100BA0002F5F3F4FE7CF80916504882341F0853068
:100BB00041F08091E80083FFBECF81E0089582E09C
:100BC000089583E0089580914204089587E797E7A8
:100BD000909301088093000888E19AE00FB6F8949A
:100BE000A895809360000FBE90936000FFCF9C019A
:100BF0004FB7F8948091370490913804A09139044C
:100C0000B0913A044FBF821B930B08952FB7F8940D
:100C10008091370490913804A0913904B0913A043E
:100C20002FBF089520911C012223C9F020913B047D
:100C300027FF15C0E62FE695E695E695EE31D8F448
:100C4000E80FF92FF11D677021E030E001C0220F9D
:100C50006A95EAF720958281282322830895FC0172
:100C6000329608962191621303C0DF0111971C92FE
:100C7000E817F907B9F7089520911C012223C1F064
:100C800020913B0427FF14C0E62FE695E695E695F4
:100C9000EE31F8F4E80FF92FF11D677021E030E034
:100CA00001C0220F6A95EAF78281822B8283089520
:100CB000FC0132962FEF30E04191641751F02F3F45
:100CC00019F4411101C0232F3F5F3630A9F72F3FA0
:100CD00009F40895820F911D27FD9A95FC01628306
:100CE000089520913404309135042817390771F0A4
:100CF0009093350480933404E0913204F0913304EE
:100D0000309721F00084F185E02D09940895209119
:100D10003004309131042817390771F09093310471
:100D200080933004E0913204F0913304309721F045
:100D30000680F781E02D09940895E0913204F09146
:100D40003304309721F00190F081E02D099480E088
:100D50000895DC016091780380917903962F8913BF
:100D600001C00895292F30E0F901EE0FFF1FE0596F
:100D7000FC4F408151814A175B07A1F487E08A9FAD
:100D8000A0018B9F500D1124485C5C4F81E0FA015B
:100D900084839613E6CF2F5F3F4F23703327209332
:100DA000780308952F5F3F4F922F9370D8CF109202
:100DB000D5021092D402E8E3F3E08581811102C0EC
:100DC00014821682379683E0E037F807B1F708956A
:100DD000FA01811101C0FB01099408958091690213
:100DE000982F9E7F29F48170826080936902089514
:100DF0008A34E8F381708864F8CFAF92BF92DF92B3
:100E0000EF92FF920F931F93CF93DF93082F162F2C
:100E1000E901E42FF0E0E451FC4F611110C0E491CE
:100E20005E2F4E2F4983E8835A83DF91CF911F9124
:100E30000F91FF90EF90DF90BF90AF900895E62E56
:100E4000F12C4491D42EE42FF0E026E0829FC001E3
:100E500011242FEF30E0B9010E942431802F90E05F
:100E6000880F991F55E5569FD001579FB00D11244B
:100E70008A1B9B0B982F990F890F5901AE18BF0839
:100E8000AE9ED001AF9EB00DBE9EB00D11245B2F63
:100E9000189F80011124012F11275901A01AB10AAE
:100EA000AE9E8001AF9E100DBE9E100D1124590103
:100EB000A81AB108AE9CC001AF9C900DBE9C900DCD
:100EC0001124892F9927281B390B2E9FC0012F9F92
:100ED000900D3E9F900D1124E92F62307105A1F015
:100EE00050F46115710509F49DCF6130710581F0F1
:100EF000EB2F512F97CF6430710569F080F0663089
:100F0000710509F48FCFF4CFE42F4B2F592F8ACFDF
:100F1000E42F412F87CFEB2F542F492F83CF4B2F17
:100F20005D2DE12F7FCF0E9406069C0190914B0220
:100F300080914C02982B21F0309348022093470275
:100F400090914D0280914E02982B21F030934602F1
:100F500020934502E0913204F0913304309749F038
:100F600082E0809349020480F581E02D89E492E0DB
:100F70000994089590914B02803F59F480914C025E
:100F800087FF0DC010924C0291110BC010924302CA
:100F900008C0813F81F480914C0218169CF399237C
:100FA00081F080914D0290914E02892B09F064C02E
:100FB000109242020895823F49F497FFF0CF1092B9
:100FC0004B0280914C028111ECCFE0CF833F19F4AA
:100FD0001916ACF3E4CF20914D02893F29F4121683
:100FE000F4F610924D02DBCF8A3F19F427FFD7CFDA
:100FF000F8CF20914E028B3F29F427FFD0CF1092DB
:101000004E02CDCF8C3F19F41216CCF3C8CF843FDB
:1010100031F480914A028E7F80934A02C0CF853F8F
:1010200021F480914A028D7FF7CF863F21F4809191
:101030004A028B7FF1CF873F21F480914A02877F5C
:10104000EBCF883F21F480914A028F7EE5CF8D3F20
:1010500031F4809144028E7F80934402A0CF8E3F72
:1010600021F4809144028D7FF7CF8F3F09F097CF15
:10107000809144028B7FF0CF08958091440280FDDF
:1010800016C081FD16C082FD16C0809142028823E1
:10109000A1F0883280F428E0829FC001112468E228
:1010A00070E00E943831862F672B39F0089582E076
:1010B000089584E0089588E0089581E0089580917E
:1010C000440280FD14C081FD14C082FD16C08091D1
:1010D0004302882381F0843180F422E3829FC0019F
:1010E000112464E170E00E943831862F08958CE06D
:1010F000089589E1089585E0089582E30895803F89
:1011000031F40E945F08819580934C020895813FDD
:1011100019F40E945F08F8CF823F31F40E945F0803
:10112000819580934B020895833F19F40E945F08D4
:10113000F8CF893F29F40E943D0880934D0208951D
:101140008A3F21F40E943D088195F7CF8B3F31F40F
:101150000E943D08819580934E0208958C3F19F4BA
:101160000E943D08F8CF843F31F480914A028160AB
:1011700080934A020895853F21F480914A0282605B
:10118000F7CF863F21F480914A028460F1CF873FF8
:1011900021F480914A028860EBCF883F21F480914E
:1011A0004A028061E5CF8D3F31F480914402816035
:1011B0008093440208958E3F21F48091440282601E
:1011C000F7CF8F3FB9F7809144028460F1CF80E080
:1011D0000895F894E82FE295EF70F0E031A1282F00
:1011E0002F7081E090E001C0880F2A95EAF7982FD0
:1011F0009095932391A392A1892B82A3789408952B
:1012000090913B0492FF06C0282F28712830F9F4F2
:10121000877F846093FF06C0282F28712831F1F45E
:10122000877E846120913C0420FF06C0382F3871EE
:101230003830D9F4877F816021FF06C0282F2871BC
:101240002831D1F4877E816194FD877E0895282F0F
:1012500024712430F9F68B7F8860DCCF282F24712D
:10126000243101F78B7E8861DDCF382F3171313029
:1012700019F78E7F8860E0CF282F2171213121F767
:101280008E7E8861E1CFCF93DF93EC0182389105A8
:10129000A9F1D8F58133910509F496C048F5893252
:1012A000910509F48AC08A9709F495C0C11521E512
:1012B000D20708F0BCC0C11530E5D30708F014C14F
:1012C000C83ED10508F09CC0C03ED10560F5C83AC3
:1012D000D10508F087C0C53AD10508F0FDC0C1307E
:1012E000D10509F12097F9F0C430D105E0F440C0F0
:1012F0008533910509F45AC0C997C1F680913B0422
:10130000837089F0C0EED0E00EC0833E910599F164
:1013100070F4803E910501F1823E910539F680918D
:101320003B0482FD21C0CE01DF91CF910895863E1E
:10133000910561F1873E910571F1843E910509F0B7
:10134000B5CF80913C0481FFEECF80913B04C7EE86
:10135000D0E084FD0DC0E7CF80913B0480FD12C139
:1013600090913C0490FFDFCFC3EED0E084FFDBCF51
:10137000D0E0C0E0D8CF80913B0482FD06C19091BF
:101380003C0490FDBFCF84FFCECFF2CF80913B04D1
:1013900083FDDDCFC8CF80913B0483FDF9C09091E0
:1013A0003C0491FFF0CFC4EED0E0BDCF80913B0470
:1013B00085FFB9CFC9E2D0E0B6CF80913B0485FF6D
:1013C000B2CFC5E3D0E0AFCF80913B0486FFABCF77
:1013D000CAE2D0E0A8CF80913B0486FFA4CFC1E34E
:1013E000D0E0A1CFCF3BD10518F6C85AD0E0CC0F42
:1013F000DD1FC85DDE4F0990D881C02DD46493CF26
:10140000C11540E2D40758F4C11581E0D80708F0AF
:101410008ACFC03FD10508F4ABCFD06584CFC115CA
:1014200090E4D90708F4A4CFDF70D06A7CCFC1154F
:1014300025E5D20700F5C11534E5D30708F08AC0C9
:10144000C11543E5D40708F071C0C11582E5D8077E
:1014500008F467C0CE018370992721E030E002C014
:10146000220F331F8A95E2F7C695C69580E2C89F82
:10147000E001112452C0C11599E5D907A8F4C1159E
:1014800028E5D20708F06BC0C11536E5D30708F090
:101490006FCF8C2F0E940009C82FD0E0DC2FCC2703
:1014A000CC27DF71D0623FCFC1154AE5D40708F4DD
:1014B0005BC0CE0190568115904208F059CF8D2F18
:1014C0008F710E94000990E0982F882788279F71CC
:1014D0009C012C2BE901E6CFC55AD0E0CB5DDE4F55
:1014E000C881D0E0D0641FCFCE01E4E09695879507
:1014F000EA95E1F783702C2F26952695237040E21C
:10150000249F90011124382B8C2F8370C1E0D0E0F0
:1015100002C0CC0FDD1F8A95E2F7C22BD32BDC680B
:1015200002CFDC2FCC27C16FD06AFDCECE018370F5
:10153000992721E030E002C0220F331F8A95E2F79D
:10154000C695C69590E2C99FE0011124C22BD32B0A
:10155000DA68E9CEDC2FCC27C46FD06AE4CEDC2F6A
:10156000CC27C06FD06ADFCE8C2F8F700E9400090D
:1015700034E0D695C7953A95E1F7CF709C2FEC01F2
:10158000D069D1CEC9E3D0E0CECEC2EED0E0CBCE92
:10159000C6EED0E0C8CE80911E02882331F01092B2
:1015A0001E0210921D0210921C02089580959091C7
:1015B0007C03982390937C03089580917C03909101
:1015C0007D03892B90911B02892B80939A01809136
:1015D0001E02882329F10E94060620911C023091E8
:1015E0001D02821B930B8838934110F00E94CB0A96
:1015F00080919A0190911E02892B80939A0180918B
:101600001C01882341F180913B0487FF24C08EE1B7
:10161000ECE9F1E090E0815000F591110E94CB0AD5
:10162000E0913204F09133043097E1F080911C0195
:10163000882359F080913B0487FF07C080919A016D
:1016400080939B0185E080939A010280F381E02DD5
:101650008AE991E0099486E0DBCF21912223D9F237
:101660009F5FD9CF0895EF92FF920F931F93CF936F
:10167000DF93EC018A85811139C0EB80FC8087E51E
:10168000F81A26E12E9DC0012F9D900D1124DC013A
:10169000A058BC4F1496ED91FC911597309731F0FE
:1016A00054966D917C918A579C4F099586E18E9D49
:1016B00080018F9D100D112400581C4FF801878167
:1016C0000E94D60AF8018085982F909580917D031D
:1016D000892380937D030E94DD0A188219861B8668
:1016E0001E821D8210927F0310927E03DF91CF91A4
:1016F0001F910F91FF90EF900895CF93DF93EC012E
:10170000898981111BC081E0898B80917C039F8135
:10171000892B80937C0380917D039885892B80930E
:101720007D030E94DD0AEA81FB81309739F06C89E4
:101730007D89CE010696DF91CF910994DF91CF91FB
:10174000089510921A021092190210921802089528
:10175000809117028111109217020895809116024C
:101760009091D501981301C008958F5F8770FACFCB
:101770009E3F51F1292F220FE22FE90FEE0FE80FC4
:101780009E2F9770E695E695E69583E0E89FF00139
:101790001124E554FE4F50E040E080E0219130E01C
:1017A000092E02C0369527950A94E2F72170332757
:1017B000042E01C0220F0A94EAF7822B4F5F5F4F7D
:1017C0004330510559F7089580E008959E3F71F127
:1017D000292F220FE22FE90FEE0FE80F8E2F8770CF
:1017E00041E001C0440F8A95EAF7E695E695E69553
:1017F00083E0E89FF0011124E554FE4F30E020E043
:1018000070E05191DF011197CB01022E02C0969535
:1018100087950A94E2F7817081958527842385272F
:101820008C932F5F3F4F2330310559F7089590E097
:1018300080E00E94870690E080E00E94710610928E
:101840007D0310921B020E94DD0A86E0E9E4F2E0CB
:10185000DF011D928A95E9F710924302109242022D
:10186000109244020C94930780936F040C94170C0D
:1018700080916F04982F9670963019F488600C94BC
:10188000340C877FFCCF21E030E001C0220F8A9525
:10189000EAF7209580916F0482230C94340C909188
:1018A0001A028095892380931A02282F277039F411
:1018B000282F082E000C330B9217130621F4909159
:1018C0003C0492FF07C08595859585950E94430C41
:1018D0000C94A10B089521E030E001C0220F8A95FD
:1018E000EAF780916F04822B0C94340C90913C04A5
:1018F00092FD10C098E0899F90011124622B6093A3
:101900001A020E946B0C0E940606909319028093A3
:10191000180208950C946B0C80931F020C94170C02
:10192000882341F0809590917D03892380937D03E6
:101930000C94DD0A0895882339F090917D03982B4B
:1019400090937D030C94DD0A0895882321F00E9472
:10195000D60A0C94DD0A0895882339F090917C030F
:10196000982B90937C030C94DD0A0895882379F1D9
:101970009CEF980F913A38F4682F8AE991E00E9421
:1019800012060C94DD0A90E2980F983050F487709C
:1019900091E001C0990F8A95EAF7892F0E94D60A33
:1019A000F0CF9BE5980F933020F490E080E00C940A
:1019B000870698E5980F973120F490E080E00C942A
:1019C0007106803F20F00E94BA070C949307089597
:1019D000CF93C82F882309F46FC08CEF8C0F813A06
:1019E000C0F580911C01882311F180913B0487FF91
:1019F0001EC0EC2FE695E695E695F0E0E656FE4F24
:101A0000828190E04C2F477021E030E002C0220F2D
:101A1000331F4A95E2F782239323892B91F06C2F91
:101A20008AE991E00E9412060E94DD0A0AC0ECE9F0
:101A3000F1E082EA91E02191C21789F38E179F07A6
:101A4000D1F76C2F8AE991E00E943C06CF910C946B
:101A5000DD0A80E28C0F883068F4C77021E030E046
:101A600001C0220FCA95EAF780917C03822B8093F4
:101A70007C03ECCFEBE5EC0FE33040F4F0E0EB5D02
:101A8000FE4F808190E0CF910C948706E8E5EC0F43
:101A9000E73150F4F0E0EE0FFF1FE85DFE4F80816C
:101AA0009181CF910C947106C03F30F08C2F0E9431
:101AB0007F08CF910C949307CF9108959C013A959C
:101AC00021153F4150F5FC01EE27F170BC0166275E
:101AD0007270AC01442754709C012227387094FF27
:101AE0000EC080E1EF2B09F480E0672B09F08062E3
:101AF000452B09F08064232B89F08068089581E0EC
:101B0000EF2B09F480E0672B09F08260452B09F088
:101B10008460232B19F08860089580E008959091E7
:101B20006504943029F580933D0470933F046093DD
:101B30003E049093E9008FEF9091E800815095FD6D
:101B400006C09AE69A95F1F700C08111F5CF809111
:101B5000E80085FF0DC050E040E063E070E08DE3F9
:101B600094E00E94A9048091E8008E778093E800B9
:101B70000895BC0184E00C948F0DBC0183E00C94AB
:101B80008F0D9C0184E08093E9009FEF8091E80035
:101B9000915085FD06C08AE68A95F1F700C0911143
:101BA000F5CF8091E80085FF0CC050E040E066E092
:101BB00070E0C9010E94A9048091E8008E778093AB
:101BC000E8000895CF93DF93EC0180911C018823F6
:101BD000B1F180913B0487FF32C060E284E08093E2
:101BE000E9008FEF9091E800815095FD06C09AE6DC
:101BF0009A95F1F700C08111F5CF8091E80085FF3B
:101C00001BC080911C0170E050E040E0811104C0D5
:101C100050E040E068E070E0CE010E94A9048091AD
:101C2000E8008E778093E80080E2FE01A3E4B4E050
:101C300001900D928A95E1F7DF91CF91089568E0C8
:101C400081E0CDCF8091690280FD0AC0EAE5F2E033
:101C5000118210821282339652E0E936F507C1F7FD
:101C6000849A31B33F7E21B320614FB7F8948AE55F
:101C700092E0FC015191CF0168E021BB57FF31BBDD
:101C8000550F000000C031BB6A95B9F7F2E0893604
:101C90009F0779F74FBF8FE292E00197F1F700C0FD
:101CA00000000895EF92FF920F931F93CF93DF935D
:101CB0008C01CAE5D2E0F12CE12CF801948160910D
:101CC0006B0280916A02F2E0EF16F104FCF49923B2
:101CD000F9F09E0140916C020E94FD062FEFE21A7E
:101CE000F20A239685E0E816F10439F70E94220EE5
:101CF000F801848190E00196817099278483DF91B7
:101D0000CF911F910F91FF90EF900895992309F3C0
:101D10009E0140E0E1CF8F929F92AF92BF92CF920F
:101D2000DF92EF92FF920F931F93CF93DF93EC011B
:101D30004C81042F10E09801D8010E9483319B014F
:101D4000AC010E9499314B015C01E0E2F0E0E01B44
:101D5000F10BA5E5B0E0AC019B010E9499316B014C
:101D60007C019F01DF010E947B319B01AC010E943D
:101D7000A4319B01AC01280D391D4A1D5B1DC70113
:101D8000B6010E944C31F22E822F90E039E23F15CD
:101D9000D8F143E0249F9001112435952795122F07
:101DA00010959AE5C92E92E0D92E00E085E5E82E3F
:101DB000EF188E2D01FD8F2D9601412F60916B0242
:101DC0000E94FD060F5F53E0C50ED11C053089F758
:101DD0000E94220E9C8181E0992319F0903219F41F
:101DE0008FEF8093180180911801890F8C83DF9108
:101DF000CF911F910F91FF90EF90DF90CF90BF9008
:101E0000AF909F908F90089525E530E0A901481B81
:101E1000590BCA019A01220F331F280F391F37FFB0
:101E2000BCCF2F5F3F4FB9CF0F931F93CF93DF935B
:101E3000CAE5D2E0FE01118210821282339682E05E
:101E4000E936F807C1F710E000E080915802082E4B
:101E5000000C990B081719078CF180911701082EB7
:101E6000000C990B801791074CF19E0140916C0278
:101E700060916B0280916A020E94FD060F5F1F4F06
:101E800023960530110509F70E94220E8091160154
:101E900090915802980F9093580220911701280FA3
:101EA00020931701121614F494301CF0819580933E
:101EB0001601DF91CF911F910F9108951982188219
:101EC0001A82DCCFBF92CF92DF92EF92FF920F93F4
:101ED0001F93CF93DF93FC018281DD24DA9480FD90
:101EE00002C0DD24D3940AE512E0D0E0C0E025E092
:101EF000B22EF80111821082128294E0E92EF12CA8
:101F0000C12C809157028C0D86300CF43DC06B2D96
:101F10000E941631892F082E000C990B8C179D07F3
:101F200091F480916C028E9DA0018F9D500D112423
:101F30005595479555954795980160916B0280910D
:101F40006A020E94FD06CD0CF1E0EF1AF108C9F615
:101F500021960D5F1F4FC530D10559F60E94220E04
:101F60008091570291E0D91215C0811111C084E00F
:101F700080935702DF91CF911F910F91FF90EF90C7
:101F8000DF90CF90BF90089587FFC5CF8B5FC3CF01
:101F90008150EECF90E00196BE010E943831E8CF2B
:101FA000EF92FF921F93CF93DF93EC018AE5E82E27
:101FB00082E0F82E10E08C81970140916C026091D4
:101FC0006B02810F0E94FD061D5C83E0E80EF11C90
:101FD0001F3F89F70E94220E9A818C8190FF08C0D2
:101FE0008F5F8C83DF91CF911F91FF90EF900895C9
:101FF0008150F7CF9091690290FF0CC0EAE5F2E0C2
:10200000818360834283339692E0E936F907C1F712
:102010000C94220E08950F931F93CF93DF9300D05B
:102020000F92CDB7DEB78C018091590281110AC0A1
:102030009E012F5F3F4F4FEF6FEF0E94FD068A8199
:1020400080935902F8016481613069F080915902EE
:1020500040E0662361F040E0623011F440915902A3
:1020600080E060E004C06091590240E080E00E949E
:10207000FA0FF801848190E0019663E070E00E941D
:10208000383184830F900F900F90DF91CF911F9183
:102090000F910895CF93DF9300D00F92CDB7DEB7A5
:1020A0009091690290FF0AC09E012F5F3F4F0E94EE
:1020B000FD064B8169818A810E94FA0F0F900F9073
:1020C0000F90DF91CF910895CF93DF93EC01E9E674
:1020D000F2E0438162818C810E944A108C818F5F83
:1020E0008C83DF91CF910895CF93DF93EC01EC8146
:1020F000F0E0EF50FB4F4491E9E6F2E0628181812C
:102100000E944A108C818F5F8C83DF91CF9108955C
:102110001F93CF93DF93182FCAE0D0E0893311F4D7
:10212000C0E5D0E0812F0E94E80C8FEC97E001978A
:10213000F1F700C000002197C1F7812FDF91CF9107
:102140001F910C94B60C0F931F93CF93DF93C62F60
:10215000D42F022FFC0182818823A1F060937204A6
:102160000E9406069093710480937004C77081E00A
:1021700001C0880FCA95EAF7DF91CF911F910F91A7
:102180000C94AC0C80917204681335C0809170047B
:10219000909171040E94F705883C910560F510E26A
:1021A0001D0FCD17B9F080E28C0F883040F4C77056
:1021B00081E001C0880FCA95EAF70E94A50C18308B
:1021C00048F481E09D2F977001C0880F9A95EAF737
:1021D0000E94AC0C802F0E948810183098F4D770A1
:1021E00081E001C0880FDA95EAF7DF91CF911F9166
:1021F0000F910C94A50CC77081E001C0880FCA959F
:10220000EAF7F3CFDF91CF911F910F910895AF922D
:10221000BF92CF92DF92EF92FF920F931F93CF93D3
:10222000DF93EC018AE0A82E2881222309F48CC0D8
:102230002130C9F599818A81913021F422960E943A
:10224000881005C0923029F422960E94E80C21964D
:10225000EBCF933021F422960E94B60CF8CF943045
:1022600011F02196F4CF229630E020E0AE014F5FCE
:102270005F4F8053990B8A30910550F021503109FE
:1022800030F38FEC97E00197F1F700C00000F6CF34
:10229000A29EB001A39E700D11249C01260F371F32
:1022A0008981EA01E3CFE22FF0E0E650FE4FB490DF
:1022B000822F86958695869590E0FC01E651FE4F2B
:1022C000E4902770F12C022E02C0F594E7940A9452
:1022D000E2F731E0E322FF24FC01E652FE4FC49016
:1022E000D12C022E02C0D594C7940A94E2F731E0B3
:1022F000C322DD24FC01E653FE4F049110E002C02E
:10230000159507952A95E2F701701127E114F1045C
:1023100019F081EE0E94E80CC114D10419F086EE88
:102320000E94E80C8B2D0E948810CD2819F086EEB3
:102330000E94B60CEF2819F081EE0E94B60C012B1A
:1023400009F485CF8CE27BCFDF91CF911F910F9164
:10235000FF90EF90DF90CF90BF90AF900895CF9314
:10236000DF93C7E4D2E060E0CE010E9406322196FE
:10237000C11584E0D807B9F7DF91CF9108950F9385
:102380001F93CF93DF938901843048F5683038F587
:10239000463028F521153C4531F420911901309142
:1023A0001A01232BE1F0C42FD0E0CC0FDD1F9CE0FD
:1023B000699FC00DD11D112490E6899FC00DD11DCC
:1023C0001124612FCE0187960E940632602FCE0124
:1023D0008896DF91CF911F910F910C940632DF9177
:1023E000CF911F910F910895CF93C82F6FEF811157
:1023F0006DE583E290E00E9406326FEFC1116AEA58
:1024000084E290E00E9406326FEFC1116FE185E235
:1024100090E0CF910C940632CF93C0913C04C2FB64
:10242000992790F9981781F080FBC2F9C0933C047A
:1024300060913B0484E090E00E9406326C2F82E2BF
:1024400090E0CF910C940632CF9108957F928F92B5
:102450009F92AF92BF92CF92DF92EF92FF920F9333
:102460001F93CF93DF93CDB7DEB764970FB6F89481
:10247000DEBF0FBECDBFA0901901B0901A0181E060
:1024800090E090931A018093190181EFC82E85E0A6
:10249000D82E00E0760110E015C0F40125913491AA
:1024A000472D612F802F0E94BF1182E0880E911C62
:1024B0007394E6E07E12F1CFFCE0EF0EF11C1F5F9B
:1024C000183019F04701712CE8CF0F5F80E6C80E75
:1024D000D11C0430F9F61A8219821C821B821E82DA
:1024E0001D8218861F8288EC90E09A87898707EA08
:1024F00011E04AE050E0B801CE0101960E942A3274
:10250000065F1F4F073FE1E01E0799F77E01FBE0E2
:10251000EF0EF11C8AE0F70111928A95E9F74AE083
:1025200050E0B801C7010E942A32065F1F4F0734EE
:10253000F2E01F07A1F7B0921A01A0921901649668
:102540000FB6F894DEBF0FBECDBFDF91CF911F91C4
:102550000F91FF90EF90DF90CF90BF90AF909F9042
:102560008F907F90089580E00E94F41160E086E2F1
:1025700090E00E9406320E9426120E94AF1181E074
:102580000C94F4119B01883070F49AE0899FB0019B
:10259000112469557E4F4AE050E0C9010E94E231A2
:1025A00090E080E008958FEF9FEF08958F929F92C3
:1025B000AF92BF92CF92DF92EF92FF920F931F9351
:1025C000CF93DF93CDB7DEB72A970FB6F894DEBF6F
:1025D0000FBECDBF00E813E0F12CE12C87E0C82E40
:1025E00087E2D82E91E3A92E97E2B92E27E5822E15
:1025F00026E2922EF801D182C082B382A282958215
:102600008482F58AE48ABE016F5F7F4F8E2D0E941F
:10261000C212892B29F489859A85F801938B828BC4
:10262000FFEFEF1AFF0A0A5E1F4F88E0E816F10479
:1026300009F72A960FB6F894DEBF0FBECDBFDF9123
:10264000CF911F910F91FF90EF90DF90CF90BF90AF
:10265000AF909F908F9008950F931F93CF93DF9328
:10266000843030F5683020F5463010F5C42FD0E0C6
:10267000CC0FDD1F2CE0629FC00DD11D112430E670
:10268000839FC00DD11D1124CE0187960E94F23187
:10269000082F10E0102F0027CE0188960E94F231FB
:1026A0009801282BC901DF91CF911F910F910895B7
:1026B00090E080E0F8CF462F2091D2023091D302F3
:1026C000232B91F47E3F39F46E3F71F48091D00258
:1026D0009091D1020895843038F4783028F466302F
:1026E00018F4672F0C942C1390E080E00895CF929B
:1026F000DF92FF920F931F93CF93DF936C010091B2
:102700006F0480911F02082BC7E0D0E010E0FC2E80
:10271000C8010C2E02C0959587950A94E2F780FDBA
:102720000CC02197A0F7F12C8F2DDF91CF911F9135
:102730000F91FF90DF90CF900895B6018C2F0E94EB
:102740005B130E944309019761F3EECFCF93DF93B0
:10275000EC010E947713BE010E945B13DF91CF91C1
:102760000C944309FC0186819781009779F00E94BF
:102770004309292F2F7092959F7092509E30A0F49C
:10278000E92FF0E0EC5BFD4C0C946E31808191817F
:102790000E94A613EECF803F19F020F4883E20F46B
:1027A00081E00895843FE1F380E00895883EC0F31E
:1027B000813FD1F7F5CF822F86958695869508952E
:1027C0001F93CF93DF9300D000D00F92CDB7DEB729
:1027D000FC01268137812115310541F525E0DE0117
:1027E000119601900D922A95E1F7FC0122818981D1
:1027F0009A812223B9F06623A9F00E947713182F3B
:10280000682F89819A810E94E60B69817A81812FE4
:102810000F900F900F900F900F90DF91CF911F911D
:102820000C945B130E94B80B182FEFCFC9010F90C7
:102830000F900F900F900F90DF91CF911F910895FF
:1028400083E290E00E94F2318D3589F484E290E0D9
:102850000E94F2318A3A59F485E290E00E94F23106
:1028600091E08F3109F090E0892F8170089580E028
:10287000FCCFCF9384E090E00E94F231C82F82E237
:1028800090E00E94F231982F8C2FCF910895CF9233
:10289000DF92EF92FF920F931F93CF93DF93CDB709
:1028A000DEB72A970FB6F894DEBF0FBECDBFE0E8C3
:1028B000F2E080E5DF011D928A95E9F7E8E3F3E0B5
:1028C00088E3DF011D928A95E9F780E8C82E82E04F
:1028D000D82E7F0107EF11E0F701D182C0824AE0D4
:1028E00050E0B801CE0101960E94E23188E0FE017D
:1028F0003196D60101900D928A95E1F789859A85E6
:10290000D70113969C938E931297BAE0CB0ED11CED
:10291000E7E0EE0EF11C065F1F4F0734F2E01F07E1
:10292000D9F62A960FB6F894DEBF0FBECDBFDF9161
:10293000CF911F910F91FF90EF90DF90CF9008956E
:1029400010927C0380911C01ECE9F1E0882359F09E
:1029500080913B0487FF07C08EE1DF011D928A95BD
:10296000E9F70C94170C86E0F8CF1F93CF93DF9311
:10297000CDB7DEB7AA970FB6F894DEBF0FBECDBFB6
:1029800087E694E02091F100DC012D93CD01B4E0C5
:102990008F369B07B9F780916804833009F471C0C2
:1029A000B8F4813009F448C0823009F4B2C0809193
:1029B000E80083FF3AC180916704909168049A30DF
:1029C00008F033C1E92FF0E0EE5AFD4C0C946E3163
:1029D0008A3009F48DC08B3009F470C0893039F722
:1029E00080916704813219F780916B0490916C0497
:1029F000009711F00297D9F68091E800877F8093C5
:102A0000E8008091E80082FF37C09091F300809148
:102A1000F200029729F48091F1008B7F813021F43C
:102A20008091F100809342048091E8008B7780933D
:102A3000E8000E94D304BBCF80916704813A09F07B
:102A4000B6CF8091E800877F8093E80080916B0487
:102A500090916C04892B61F460E283E494E070E06F
:102A60000E9485058091E8008B778093E8009FCFD6
:102A700060E090E080E0F3CF809165048111C1CFE8
:102A800096CF80916704813A09F091CF80916B04D1
:102A900090916C04892B09F08ACF8091E800877FA0
:102AA0008093E8008091E80080FFFCCF80911C01BA
:102AB0008093F1008091E8008E77B9CF8091670410
:102AC000813209F074CF80916B0490916C04892B52
:102AD00009F06DCF8091E800877F8093E8000E9425
:102AE000D3048091690480931C010E94A0145FCFDD
:102AF00080916704813209F05ACF8091E800877F86
:102B00008093E8000E94D30480916A04809341047A
:102B10004ECF80916704813A09F049CF8091E80057
:102B2000877F8093E8008091E80080FFFCCF809150
:102B30004104BECF803899F0823809F076C0809188
:102B40006B048F70873008F070C08093E90080912B
:102B5000EB0085FB882780F91092E90006C0809180
:102B6000630490916404911182609091E800977FD2
:102B70009093E8008093F1001092F1008091E800BA
:102B80008E77C0C1882309F4ADC1823009F04DC0F1
:102B9000809169048111B1C180916B048F702FEF16
:102BA000280F263008F041C08093E9002091EB0007
:102BB00020FFA3C1933031F48091EB0080628093B9
:102BC000EB009BC19091EB0090619093EB0021E0B2
:102BD00030E001C0220F8A95EAF72093EA001092B4
:102BE000EA008091EB008860EACF81111EC010914D
:102BF00069041F778091E3008078812B8093E30044
:102C00008091E800877F8093E8000E94D304809140
:102C1000E80080FFFCCF8091E30080688093E300B0
:102C200082E0111183E0809365048091E80083FFC6
:102C30000AC08091E800877F8093E8008091EB00D4
:102C400080628093EB00AA960FB6F894DEBF0FBEA9
:102C5000CDBFDF91CF911F9108958058823028F722
:102C60002091690430916A042C3DE3E03E07A1F510
:102C700083E08A838AE289834FB7F894DE01139652
:102C800020E03EE051E2E32FF0E050935700E49162
:102C900020FF03C0E295EF703F5FEF708E2F90E052
:102CA000EA30C0F0C7968D939D932F5F243159F77A
:102CB0004FBF8091E800877F8093E8006AE270E070
:102CC000CE0101960E9485058091E8008B77809364
:102CD000E800ABCFC096E7CF80916B0490916C0475
:102CE000432F55274330510509F44AC078F5413048
:102CF000510509F485C08BE590E0E1E7F7E042304B
:102D0000510509F092CF2091E800277F2093E80039
:102D100020916D0430916E048217930708F49C0192
:102D200040E02115310509F070C041116EC080915D
:102D3000E80082FDC9CF80916504882329F285309F
:102D400019F28091E80083FFF2CFBECF41325105E6
:102D500009F447C04232510509F067CF833091052D
:102D600008F063CFFC01EE0FFF1FE457FE4F019008
:102D7000F081E02D87579E4FDC018C9190E01DC0C3
:102D8000332721303105E9F02115310579F0223062
:102D90003105F9F02330310509F047CFEEEDF7E0CA
:102DA000E4918E2F90E0EEEDF7E007C0ECE1F8E063
:102DB000E4918E2F90E0ECE1F8E0009709F435CF34
:102DC000A2CFEAE0F8E0E4918E2F90E0EAE0F8E0AC
:102DD000F4CFECEFF7E0E4918E2F90E0ECEFF7E02A
:102DE000ECCF8330910508F020CF880F991FFC01AC
:102DF000EE56FE4F0190F081E02D89E090E083CF08
:102E000082E190E0ECECF7E07ECF809165048823CE
:102E100009F45ACF853009F457CF8091E80083FD3B
:102E200053CF8091E80082FD82CF8091E80080FF3F
:102E300078CF9091F3008091F2002115310519F0BF
:102E40008830910550F041E0089709F040E080910A
:102E5000E8008E778093E80064CF44914093F100BE
:102E60003196215031090196E8CF803809F0DDCE46
:102E70008091E800877F8093E800809166048093CA
:102E8000F1007CCE8111D1CE10916904123008F08E
:102E9000CCCE8091E800877F8093E8001093660491
:102EA0000E94D304112311F084E005C08091E30057
:102EB00087FDFACF81E08093650442E061EC81E018
:102EC0000E94F20442E261EC84E00E94F20442E2D9
:102ED00061EC82E00E94F20442E260EC83E00E9436
:102EE000F204A3CE80916904813009F09ECE81E086
:102EF000933009F080E0809364041092E90080919F
:102F0000E800877F8093E8000E94D3048ECE609112
:102F10006902669570E04BE050E08BE091E00E9422
:102F2000C131892B19F481E0809356020E94060674
:102F30009093500280934F020895CF92DF92EF92C8
:102F4000FF926B017C010E94EE06B701A60188E0AA
:102F500090E0FF90EF90DF90CF900C9418325F924A
:102F60006F927F928F929F92AF92BF92CF92DF9299
:102F7000EF92FF920F931F93CF93DF9300D00F92A6
:102F8000CDB7DEB7182F762E042F622E90916902EE
:102F900090FF29C0E92FE695AE2FB0E0AC59BE4FA7
:102FA0008C91809355029E7F923081F59E012F5F18
:102FB0003F4F812F0E94FD064B8169818A810E94CB
:102FC000FA0F10936A0270926B0200936C026620F3
:102FD00051F06091690270916A0280916B02909148
:102FE0006C020E949D170F900F900F90DF91CF9170
:102FF0001F910F91FF90EF90DF90CF90BF90AF9017
:103000009F908F907F906F905F900895823019F419
:1030100000916C02D6CF863019F410916A02D1CF9C
:103020008930D9F3893169F6E9518E2F8170582E94
:10303000E695F0E0E451FB4FA590B490BB248AE5FF
:10304000E82E82E0F82ED12CC12C95E0892E912C0F
:10305000C601B4010E942431812F511013C0860F84
:103060009701402F672D0E94FD06CA0CDB1C83E0F0
:10307000E80EF11C89E6E81682E0F80649F70E949E
:10308000220E9FCF861BECCFE9E6F2E0438120E1E0
:10309000421B08F440E021E0628181810C94AF176B
:1030A000E9E6F2E0438120E1420F08F44FEF21E02E
:1030B000628181810C94AF17E9E6F2E0628120E140
:1030C000621B08F460E021E0438181810C94AF171A
:1030D000E9E6F2E0628120E1620F08F46FEF21E09F
:1030E000438181810C94AF17E9E6F2E0818121E010
:1030F0004381628180510C94AF17E9E6F2E081814F
:1031000021E043816281805F0C94AF1780916D0252
:10311000882319F0815080936D026091690270914B
:103120006A0280916B0290916C020C949D178091C1
:103130006D02833018F48F5F80936D026091690295
:1031400070916A0280916B0290916C020C949D17B1
:103150009091690290FF36C09170811129C09260F0
:1031600090936902662351F06091690270916A023E
:1031700080916B0290916C020E949D176091690290
:10318000669570E04BE050E08BE091E00E94C13129
:10319000892BA9F01092560281E08093520220E020
:1031A00040916C0260916B0280916A020C94AF179F
:1031B000853210F09864D4CF880F982BD1CF0E941D
:1031C0008717EACF0895809169028695815009F4A6
:1031D00084E261E00C94A8188091690286958F5F63
:1031E000853208F081E061E00C94A81890916902A2
:1031F00090FF07C09695981720F0961710F40C943E
:10320000EC1861E00C94A818E9E6F2E083E0808312
:1032100011828FEF82838383148260817181828126
:1032200093810C949D176AEE7EEF90E080E00E94FF
:10323000243260E082E090E00E94063260E083E0A9
:1032400090E00E94063210921F0260E084E090E05D
:103250000E94063260E082E290E00E94063260E066
:1032600085E090E00E94063260E086E090E00E94F7
:1032700006326FEF87E090E00E94063240E050E0B7
:10328000BA0188E090E00E94183260E08DE090E0A2
:103290000E94063240E050E0BA0188E190E00E94CE
:1032A000183260E087E190E00E94063240E050E092
:1032B000BA018CE190E00E94183270E060E080E298
:1032C00090E00E94243240E050E0BA0188E190E0B2
:1032D0000E94183280E00E94F4110E94B31240E074
:1032E00050E0BA018FE090E00E94183240E050E0D8
:1032F000BA0183E190E00C9418328F929F92AF92C2
:10330000BF92CF92DF92EF92FF920F931F93CF93D2
:10331000DF9300D000D0CDB7DEB77C01DC0113967F
:103320008D919C911497892B39F08C9111969C91D9
:1033300089238F3F09F09EC50F900F900F900F903B
:10334000DF91CF911F910F91FF90EF90DF90CF9081
:10335000BF90AF909F908F900895D60116968C9154
:1033600016978823D1F019968D919C91081719070B
:1033700039F480917E0390917F030817190769F053
:10338000F601978614870387C6010E947D0BC6014C
:1033900006960E94330B10927D03FFEFAF1ABF0A0F
:1033A00026E1C20ED11C7CC5980122513F45203137
:1033B000310508F02FC58FEF93E00E94F2314EEEF9
:1033C000D42ED00E07E412E08823D9F080911A029F
:1033D000877009F4B1CFD70112968C91882309F434
:1033E000ABCF82E00E944F0CA7CF011534E013074A
:1033F00069F3C8010E94F231811101C0DA940F5FB4
:103400001F4FD110F2CF19821A821B821C82CC244A
:10341000CA9448014FEF841A940AC8010E94F231FD
:1034200089831A82882391F2813009F047C05801BC
:1034300052E0A50EB11CC4010E94F231982E8A837D
:10344000882321F2C5010E94F231D82E8FEF890D19
:10345000833068F4580183E0A80EB11CDB82DD20C4
:1034600021F0CE0101960E9407118501D2CF94E090
:103470009912FBCF5801A4E0AA0EB11CC801039613
:103480000E94F231DD2009F4A1CF882309F49ECFF8
:103490008150990BC89E9001C99E300D1124ED2DCD
:1034A000E150FF0BCF01820F931F0197F0F2AFECB9
:1034B000B7E01197F1F700C00000F7CFCE010196F9
:1034C0000E9407115401D1CF81E00E946B0C0E9431
:1034D000380C7CCF81E00E94430CF9CF82E0F5CF1D
:1034E0002FEFC216D10411F008F0AAC466E772E00B
:1034F0008C2D0E94C212892B29F586E18C9DF0014A
:103500008D9DF00D1124E058FC4F8681813009F02B
:10351000ADC08091760290917702892B99F08091CD
:10352000780290917902892B69F080917A029091CA
:103530007B0220917C0230917D02822B932B892B80
:1035400009F49EC080910001082E000C990B8C1587
:103550009D0514F4C0920001F701828196E19C9DC3
:1035600050019D9DB00C1124950120583C4F6901DC
:10357000D90150968C935097928116968C911697FC
:10358000992309F48BC01A961C930E9319978F5F99
:1035900016968C930E940606F60196878587809181
:1035A0001E02878380917D0390917C03892B808705
:1035B0000190F081E02D309741F0D60154966D9145
:1035C0007C91C5018A579C4F099510937F03009306
:1035D0007E03F7018281882309F47BC41092720470
:1035E0000230FCE51F0708F464C106312CE5120720
:1035F00030F0C8018A5F9C45099708F05AC10E94C3
:10360000391490933C0480933B0400313CE513074C
:1036100009F41EC108F0B1C008305CE5150709F4D3
:103620000DC108F080C004309CE5190709F4FEC004
:1036300008F066C00230BCE51B0709F4F1C08091B8
:103640003B04826003301C4509F4EDC060913B04EB
:1036500010913C0484E090E00E940632612F82E2E7
:1036600090E00E9406320E94A014B0CE823009F091
:1036700069CF80917A0290917B02892B09F462CF05
:1036800026E12C9DC0012D9D900D112480589C4F4A
:10369000DC0150961C920E947D0B54CF882309F4C4
:1036A00098CFF9018189882309F493CFC5018A57FE
:1036B0009C4F0E94330B8DCF053F8CE51807C9F056
:1036C000A0F027E245EE66EE063FACE51A0709F0EA
:1036D00080CFC7010E94A31079CE27E245EE65EEA8
:1036E000F8CF26E241EE60EEF4CF27E245EE64EE3D
:1036F000F0CF26E241EE62EEECCF28E241E0EFCFE0
:1037000080913B0480610630FCE51F0709F48BC003
:1037100080913B04886007301C4508F484C0809188
:103720003B04806280C080913B048D7F0C303CE57F
:10373000130709F478C070F480913B048C600A3060
:103740005CE5150709F46FC008F47CC080913B0468
:103750008E7F69C080913B04877F0E309CE51907FE
:1037600009F461C080913B048B7F0F301C4508F445
:103770005AC080913B048F7E56C00B3FBCE51B07AF
:1037800009F458C030F50331FCE51F0709F468C09F
:1037900078F401313CE5130709F45EC002311C45A1
:1037A00009F054CF0E94A01480913B048F773BC056
:1037B00005315CE5150709F45BC008F46FC0809122
:1037C0003C0481600A3F1C4509F040CF80933C04D3
:1037D0003DCF0F3FACE51A0709F446C088F480914D
:1037E0003C048D7F0D3FECE51E0781F380913C0486
:1037F0008E7F0E3F1C4550F380913C048360E6CFE2
:1038000001302DE5120709F452C0F0F160E00230FA
:103810001D4509F01BCF8EE090E00E94063216CFC6
:1038200080913B04816080933B0410CF80913B04E6
:103830008460F9CF80913C048260C8CF80913B04C2
:103840008064F1CF0E94A01480913B048068EBCF8C
:1038500080913B048F7DE7CF80913B048F7BE3CF4A
:1038600080913B04837FDFCF80913C048C7FAECF7F
:1038700080913B0482FB992790F921E0922790FBED
:1038800082F990FB83F9CFCF80913C04982F9095DB
:1038900091708E7F892B90FB81F998CF0E94A014A4
:1038A00090913B04892F97FB87F98058BCCF61E04A
:1038B000B2CF80917C0306315CE5150709F016C391
:1038C0008A7A91E009F490E09093BA0169E281115B
:1038D00065E38AE991E00E943C060E94DD0A76CD0C
:1038E0008091690280FF1BC08E7F80936902609186
:1038F000690270916A0280916B0290916C020E9441
:103900009D17109256028FE798E3A1E081509040F6
:10391000A040E1F700C000000E94220E57CD816058
:103920008093690261E086950E94A8184FCD43EE0E
:1039300058E16CEE78E10E94E80648CD4CEE58E183
:1039400063EE78E1F8CF4DE758E164E778E1F3CF33
:103950004CE558E168E678E1EECF44E458E160E5F3
:1039600078E1E9CF40E558E164E478E1E4CF47E964
:1039700058E166E878E1DFCF61E081E0D5CF65E02E
:1039800082E00E94F61822CD68E086E0FACF64E17A
:103990008FE0F7CF67E185E1F4CF62E289E1F1CF13
:1039A00061E083E2C1CF0B353DE5130701F10C3532
:1039B0001D4509F0C6C280913C0482FB882780F92E
:1039C00091E089270E940C12BCC20E94A0145FE7FC
:1039D0008AE196E0515080409040E1F700C000003D
:1039E0000E94E6050E941319F1CC81E0EBCF80E044
:1039F000E9CF828100811181882369F0C8010E948A
:103A00007713D82E682FC8010E94E60BB8018D2DC0
:103A10000E945B139CC2C8010E94B80BD82EF6CF3F
:103A2000212F2F70D22E107F19F0D29490EFD9222F
:103A3000BB20C9F0DD2069F080E2800F883010F0F3
:103A400001110BC080917C03D82AD0927C030E9484
:103A5000DD0A802F0E94E80C16C080917D03D82AD1
:103A6000D0927D03F4CF802F0E94B60CDD2059F058
:103A700080E2800F883010F0011128C08D2D0E9447
:103A8000D60A0E94DD0AA92DA850BB0B149710F48A
:103A90000E949D06AA20A9F080911A0280FD11C003
:103AA000F70112828595859585950E946B0CC7015B
:103AB0000E947D1980911A028595859585950E94B1
:103AC000430C60E0C7010E94E01336CCD094809193
:103AD0007D03D822D0927D03D4CF312F3F70D32ED7
:103AE000107F103219F0D29480EFD822002379F0A1
:103AF000013009F450C0BB2009F459C0CC2079F141
:103B0000F701858180FFA5CF8F70858328C0BB20FA
:103B100051F1C11004C080911E028D2921C041E0E5
:103B2000C41213C080913C0482FDADCF80911E026F
:103B3000D82AD81609F4A7CF0E94060690931D0232
:103B400080931C02D0921E029ECF55E0C512E3CF97
:103B50000E94CB0A80911702D812D09217028D2DA5
:103B60000E94AC0C90CFC11006C00E94CB0A8D2DD4
:103B70000E94A50C88CF81E0C81208C080917C0308
:103B80008D2109F480CF0E94A80BEFCF95E0C916D4
:103B900009F479CFEACFBB2029F0A5E0AC1508F4F1
:103BA00072CFDDCFB4E0BC1508F46DCFE0CFCC20F0
:103BB000F1F2093309F029C1FFEF23EF31E0F150B1
:103BC00020403040E1F700C00000802F0E94B60C7A
:103BD0005ACF812F86958695837061F0813009F0E8
:103BE00052CFC8019370B11002C090E080E00E94F3
:103BF000710649CFC8019370B11002C090E080E017
:103C00000E94870640CF802FBB2039F00E947F089A
:103C10000E9493070E94930736CF0E94BA07FACFFB
:103C2000812F837089F5B1102ECF402F4295469594
:103C30004770440F440F802F8F70042E01C0880FEF
:103C40000A94EAF7202F207104FF07C02FE030E02C
:103C500001C0220F4A95EAF7209516951695137024
:103C6000123069F050F430911F02113029F0822B8C
:103C700083230E948C0C07CF832B822BFACF282B17
:103C800080911F028227F5CF8695BB2011F0812FEE
:103C90008170882309F4F7CE402F429546954770EE
:103CA000440F440F802F8F70042E01C0880F0A9498
:103CB000EAF7202F207104FF07C02FE030E001C099
:103CC000220F4A95EAF72095169516951370123033
:103CD00069F050F430916F04113029F0822B832366
:103CE0000E94340CD0CE832B822BFACF282B8091CC
:103CF0006F048227F5CF1F70BB2029F0812F0E940F
:103D00006B0C802F2DCF802F0E94A50C812F0E943D
:103D1000430CB9CE023F09F443C060F4003F11F1F7
:103D2000013FB1F1BB2009F46BC0C11092CE812FCD
:103D30008F7133C0033FC9F1043FA1F7809117028F
:103D4000BB2009F449C00E94D60A80911A028770EC
:103D50008430B1F50E94A10B812F8F710E94430C1A
:103D6000A12C91CEBB2079F094E09C1508F48BCE69
:103D70001F7181E090E001C0880F1A95EAF79091D9
:103D80006F048927ADCFA5E0AC1508F47CCEF0CF49
:103D9000812F8F71BB2009F4BACF0E946B0C73CEB8
:103DA000812F8F71BB20C9F3B2CF80E0BB2009F413
:103DB00097CF1F7181E001C0880F1A95EAF790CF65
:103DC000B4E0BC1568F21F71812F0E946B0C63E098
:103DD000812F0E94760CC4CF90917C03982B9093F6
:103DE0007C03E4E0EC1540F40E94A10B0E94A80BB8
:103DF00064E0812F8F71EDCF81E00E944F0CB0CF36
:103E0000C110D7CE812F8F7182CF8FE19EE40197B1
:103E1000F1F7D9CE0031FFE51F0709F455CB013189
:103E20002FE5120709F45ACB6801E7E5DE1A88236B
:103E300009F456CBFFEFCF16D10409F008F482CB7A
:103E4000033FFCE51F0709F44CCC08F035CC083DD6
:103E50003CE5130709F441CC093D4CE5140709F48E
:103E60004CCC073D5CE5150709F0B3CB26E241EEEB
:103E700061EE2FCC61E0C7010E94E0138C01D701F5
:103E800012968C918823A9F0809100018F3F89F0D0
:103E900050E8C52E53E0D52EB12CA12C9924939433
:103EA00080910001082E000C990B8A159B050CF0DF
:103EB00054CAF7018281811177CA00313FE51307A7
:103EC00009F408CB01314FE5140709F0ADCF82E0CA
:103ED00002CB06311C45A9F58091BA0169E2811136
:103EE00065E38AE991E00E941206F7CC82720C3CED
:103EF000ECE51E0709F43BCD08F08CC0063C2CE530
:103F0000120709F420CD08F061C0033C4CE514070A
:103F100009F40DCD08F04BC0023C8CE5180709F4FC
:103F2000DFCC0A35BDE51B0709F45FCD08F03BCDBA
:103F30000115FCE51F0709F448CD0E3D1C4509F4A9
:103F400051CDF70186819781009709F452CD0E94E7
:103F500043098C01F701B280C580C2943FE0C322BF
:103F600080911A028770A1F0AB2CBB2091F0812FB9
:103F7000807F803421F080E2800F883048F082E03A
:103F80000E944F0C80911A028770AA24A394811179
:103F9000A12C912E92942FE09222FBE0F91508F4C7
:103FA00072CDE92DF0E0E45AFD4C0C946E31043CE6
:103FB0009CE5190709F4C2CC44E758E16DE778E1C4
:103FC000053CACE51A0709F4B6CCABCF093CBCE51F
:103FD0001B0709F4C2CC78F4073CFCE51F0709F481
:103FE000B7CC48E658E16CE578E1083C2CE51207CF
:103FF00009F4A1CC96CF0A3C3CE5130709F4B2CCF6
:104000000B3C4CE5140709F08CCF46E858E167E912
:1040100078E191CC013D5CE5150709F4B8CCA0F43A
:104020000E3C9CE5190709F4AACC08F4A5CC0F3C7A
:10403000BCE51B0709F4A8CC6EE089E0003DECE587
:104040001E0709F49ECC6DCF043DFCE51F0709F463
:10405000A4CC68F4023D3CE5130709F49BCC61E075
:1040600088E1033D4CE5140709F45ECC5ACF053DC9
:104070005CE5150709F494CC0D35100709F4A6C9C1
:1040800050CFCF93DF938091D201807FA1F48091B4
:10409000CF01882381F080911602D091D5016091E3
:1040A000CD017091CE01A091D001B091D101C62F68
:1040B000C723D81303C0DF91CF91089590E01097E4
:1040C00011F0CF3F19F401968770F3CF9C0143E0C4
:1040D000220F331F4A95E1F7F901EA52FE4F418161
:1040E0004713F1CF40814613EECF42814111EBCF10
:1040F000438154814A1B5B0B483C510520F780915A
:10410000D2018F7080618093D201F901E552FE4F98
:1041100080818F70806180838DEC91E00E947D1999
:10412000DF91CF910C94AE0BAF92BF92CF92DF9202
:10413000EF92FF920F931F93CF93DF93CDB7DEB72C
:1041400065970FB6F894DEBF0FBECDBF8C0185E03A
:10415000F801DE01519601900D928A95E1F7F80180
:10416000E2806DECA62E61E0B62E6091D0017091D8
:10417000D1016115710509F468C19091CD0140919B
:10418000CE01892F84238F3F09F45FC120813181C3
:10419000C380D480F090CF01F601E61BF70BFF201F
:1041A00009F41DC18091D201582F507FE83CF105E0
:1041B00008F0D0C0511181C0FE2C43132BC09213C4
:1041C00029C06091D3017091D401F80146815781D3
:1041D00064177507F9F4E1101DC08F70806180933A
:1041E000D201C5010E947D198091D201F801858319
:1041F0008F2D65960FB6F894DEBF0FBECDBFDF9151
:10420000CF911F910F91FF90EF90DF90CF90BF90D3
:10421000AF900895CD2829F0822F83238F3F09F096
:104220002FC180E0F82FF170DF2E80FF3CC080911D
:1042300016024091D501841315C0298B3A8B8989C8
:104240009A890E94A613292F22952F702230F8F008
:10425000243020F59F70F9F0F8019581907FD9F412
:10426000D12C1FC090E0FC0153E0EE0FFF1F5A95C8
:10427000E1F7EA52FE4F5181351306C050812513F4
:1042800003C05281E5120FC001968770D4CF9F7092
:1042900011F0882329F3805E883010F3C8010E9452
:1042A0007D19FD2CA5CFEE2009F4A2CF8091D2017B
:1042B00081608093D201F12C9BCF43131BC09213DA
:1042C00019C04091D3015091D401F8012681378162
:1042D0004217530779F4E1100DC08583C8010E948D
:1042E0007D1988E0F801ADECB1E001900D928A955E
:1042F000E1F77ECFC8010E94B213882339F1EE2086
:1043000029F18091D2018032A0F02091CD0130912D
:10431000CE013A8729871B86DD86CC868E878091E1
:10432000D3019091D401988B8F87CE0109960E947A
:104330007D1988E0F801ADECB1E001900D928A950D
:10434000E1F70E944120FF24F39452CFC8010E945C
:104350007D19F9CF51110AC08DEC91E00E947D19B1
:1043600088E0F50111928A95E9F7A5CF431318C0AB
:10437000921316C04091D3015091D401F8012681C7
:1043800037814217530761F4E1100AC08583C801E1
:104390000E947D1988E0F50111928A95E9F728CFEE
:1043A000C8010E94B213882389F2EE2079F280912D
:1043B000D201803208F4BDCF2091CD013091CE01E1
:1043C0003A8329831B82DD82CC828E838091D30144
:1043D0009091D40198878F83CE010196A8CFE83CB5
:1043E000F105C0F6FE2CEE2009F4B0CF43131FC038
:1043F00092131DC02091D3013091D401F801868120
:1044000097812817390799F49091D20190FD69CFCF
:10441000907F09F466CF8091D2018583903F09F4A3
:104420005DCF982F907F905F8F70892B56CFC801FA
:104430000E94B21381117DCF8091D201816080935F
:10444000D201C8010E947D19D3CEEE2009F47ECF9F
:10445000C8010E94B213F82E882309F477CF88E0B0
:10446000F801ADECB1E001900D928A95E1F78091F1
:10447000CD019091CE010E94A6130E944120B8CE9A
:1044800081E08E25CFCECF93DF93CDB7DEB7609797
:104490000FB6F894DEBF0FBECDBF29873A874B8792
:1044A0005C876D877E878F87988BCE0109960E94E7
:1044B0009420811112C088E0FE013996DE01119628
:1044C00001900D928A95E1F78C859D85892B29F0C5
:1044D00089859A8589238F3FA9F58091160290914D
:1044E000D50189131CC060960FB6F894DEBF0FBECD
:1044F000CDBFDF91CF91089593E0AA0FBB1F9A958E
:10450000E1F7AA52BE4F98E0FE01319601900D925C
:104510009A95E1F78093D5010E94AE0BDECFB8E00B
:104520008B9FC00111248A529E4F0E9494208823A1
:10453000D1F28091160290E00196877099278093BE
:104540001602CBCFA091D501B0E0CD0101968770C6
:104550009927209116022817190671F60E94A014B7
:104560001092D5011092160288E0EDECF1E0DF0127
:104570001D928A95E9F7B1CF0F931F93CF93DF93E5
:104580008091D702E091D602CCE081111AC0DF9170
:10459000CF911F910F910895D1E0DE0FD093D602F5
:1045A0000E2F10E0EC9FF0011124E852FD4F8381A3
:1045B0009481892B29F08081918189238F3F51F447
:1045C000ED2F8091D702E81738F31092D70210929E
:1045D000D602DDCFC09FD001C19FB00D1124A852DB
:1045E000BD4F16968D919C911797892B29F418969B
:1045F0008D919C91019651F42081318142815381AA
:1046000064817581868197810E944322C09FF00159
:10461000C19FF00D1124E852FD4F14821382D0CFB8
:1046200010927B0310927A0310921B018091790300
:10463000809378030E94D7060C94BC223F924F923D
:104640005F926F927F928F929F92AF92BF92CF9222
:10465000DF92EF92FF920F931F93CF93DF93C0915E
:10466000780397E0892E01E010E02CE0322E3EEF37
:10467000932E44244394809179038C1315C00E9497
:10468000BC22DF91CF911F910F91FF90EF90DF90AF
:10469000CF90BF90AF909F908F907F906F905F90E2
:1046A0004F903F900C94D706D0E0FE01EE0FFF1F15
:1046B000E059FC4F80819181889ED001899EB00D88
:1046C0001124A85CBC4F14962C911497211157C04B
:1046D0005090D702E8EDF2E030E020E0712C5D016F
:1046E000251508F04AC0E284F384D501CD90DC9012
:1046F0006FEF7FEF612C462D50E0DA01AA0FBB1F50
:10470000AC0DBD1D0D90BC91A02D109731F0EA1697
:10471000FB0609F4BA016394EECF6F3F7607A1F16F
:10472000D80102C0AA0FBB1F6A95E2F77A2AB80126
:1047300002C0660F771F6A94E2F7AB01415051093E
:1047400074161506F9F4329EF001339EF00D112413
:10475000E852FD4F889ED001899EB00D1124A85CBF
:10476000BC4F12962D913C911397378326839082EC
:1047700091829187808715964C920E94A906219676
:10478000C37079CF148213822F5F3F4F3C96A8CF1E
:104790002F923F924F925F926F927F928F929F9251
:1047A000AF92BF92CF92DF92EF92FF920F931F933F
:1047B000CF93DF93CDB7DEB769970FB6F894DEBF1E
:1047C0000FBECDBF498B5A8B6B8B7C8B8D8B611150
:1047D00010927D031D861E861F86188A85E0FE01C5
:1047E0007196DE01199601900D928A95E1F70E946B
:1047F00006062091180230911902821B930B88380B
:10480000934120F080911A0282FFFEC10E940606A9
:1048100020911C0230911D02821B930B883893411A
:1048200010F00E94CB0A8C859D85892B31F08985FB
:104830009A8589238F3F09F0D3C129853A854B8515
:104840005C856D857E858F8598890E944322C2C0D4
:1048500048EFC4164CE5D40629F4882379F00E9469
:104860001023EBCF69EFC6166CE5D60639F4882322
:1048700029F080911B018111F2CFC2C108E313E03E
:10488000E12CB12CA12C88248394912C2EEF522E54
:1048900044244394F8014081518166246A94762C23
:1048A00020E0822F90E0FC01EE0FFF1FE40FF51FC8
:1048B000608171816115710531F0C616D70609F462
:1048C0003C012F5FEECFF12CFFEF6F167F0609F44E
:1048D00043C0F8014481F0901B018F2D411180E00D
:1048E000F82FF170FF2EF801258086819B85992392
:1048F00009F406C1FF2009F403C1211013C0A4016B
:1049000001C0440F6A94EAF7842B86838091D40215
:104910009091D502C29730F462E370E07093D502B3
:104920006093D402C40102C0880F991F2A95E2F750
:104930000197F80126812817190671F480917A03EE
:1049400090917B03009709F45EC00E94F705C3971E
:1049500008F459C0F8014482EF28FFEFAF1ABF0AEC
:10496000095F1F4F28E0A216B10409F093CF8B8591
:10497000882309F420C1EE2009F41DC10E94060617
:1049800090937B0380937A038091D702883010F54F
:1049900091E0980F9093D70298E0FE013996DE01DE
:1049A000119601900D929A95E1F73CE0839FC0012A
:1049B000112488529D4F28E0FE013196DC010190C0
:1049C0000D922A95E1F72FEF3FEFFC013187208709
:1049D000D386C28669960FB6F894DEBF0FBECDBFF0
:1049E000DF91CF911F910F91FF90EF90DF90CF90CB
:1049F000BF90AF909F908F907F906F905F904F90FF
:104A00003F902F9008958091780350917903982FCB
:104A1000F0E0E0E0851314C0909378030E171F07B1
:104A200009F49ACF90E0FC01EE0FFF1FE059FC4F14
:104A3000B182A082019683709927809379038CCFED
:104A4000282E312CF101EE0FFF1FE059FC4F208181
:104A50003181F7E0F29FD001F39FB00D1124A85CE3
:104A6000BC4F2D913C911197398F288F40E020E069
:104A700030E0E32FF0E0EE0FFF1F688D798DE60F39
:104A8000F71F6080718061147104E1F0F8010190FA
:104A9000F081E02DFF8BEE8B20E005C066167706D7
:104AA00009F44F2D2F5FE22FF0E0EE0FFF1F6E890C
:104AB0007F89E60FF71F608171816115710571F7BC
:104AC0003F5FD7CF4423C9F0F801231708F0FD0159
:104AD0004482E017F10721F490937803F42E3CCF41
:104AE000981305C0EA17FB0711F49F5F93709101BB
:104AF0002F5F3F4F822F83708DCFF0E0E0E0F7CF44
:104B000090E021101FC0B40102C0660F771F2A95E4
:104B1000E2F79B01215031098217930731F44423B6
:104B200009F447C0C5010E94A906C40101C0880F4D
:104B30006A94EAF7982F9095F801868189238683F5
:104B4000F22C0ACF9C01062C02C0359527950A94B9
:104B5000E2F7A90141705527BC0161507109862314
:104B60009723892B11F5452B01F1F801828193815F
:104B7000892BC1F01B821C821D821E8259825A829F
:104B80000E9406068160582F9D838C83F8018281E4
:104B900093818F83988729813A814B816D817E81B2
:104BA0000E944322F8011582C0CFF22FF1702F2E00
:104BB000BCCF2F2CBACF90917803809179039817AE
:104BC00031F00E941E23EE2009F437CE03CF0E945D
:104BD000BC2210927B0310927A030E94D706F3CF77
:104BE00061E0CE0109960E94E0136C018B85F7EF1E
:104BF000CF16FCE5DF0609F02BCE882309F43ECE64
:104C000081E080931B0119CE82E00E944F0CFECD03
:104C10000F931F93CF93DF9300D000D00F92CDB7A7
:104C2000DEB78C019093D1028093D002011580E20F
:104C3000180720F5802F0E94B60CC8010E945E0D57
:104C40009801205E31092830310510F0012B59F40C
:104C50000F900F900F900F900F90DF91CF911F91B9
:104C60000F910C94A50C0F900F900F900F900F9038
:104C7000DF91CF911F910F910C94900C8EEF89834F
:104C80008A831B820E9406068160782F9D838C8315
:104C900049815A816B818D810F900F900F900F90F9
:104CA0000F90DF91CF911F910F910C94C8230F9318
:104CB0001F93CF93DF938C01EB0166E772E08C2F9B
:104CC0000E94C212892BA1F48FE19EE40197F1F7B3
:104CD00000C00000DD27C259DD4F8881F801108235
:104CE0001882833009F148F4813059F0823081F024
:104CF000DF91CF911F910F9108958430D1F08530CD
:104D0000B9F78091760290917702009789F306C0F7
:104D10008091780290917902009799F3DF91CF9179
:104D20001F910F910C94082680917A0290917B023A
:104D3000F3CF80917C0290917D02009779F72091CA
:104D40007602309177028091780290917902211554
:104D50003105D9F2009711F7C901E0CF0F931F93E6
:104D6000CF93DF9300D000D00F92CDB7DEB78C0188
:104D70009093D1028093D002011580E21807E8F4E5
:104D8000C8010E945E0D9801205E3109283031056E
:104D900018F00115110571F40E94AC0C802F0F90D2
:104DA0000F900F900F900F90DF91CF911F910F9167
:104DB0000C94E80C0E949B0CF1CF8EEF89838A83C0
:104DC00081E08B830E9406068160782F9D838C830F
:104DD00049815A816B818D810F900F900F900F90B8
:104DE0000F90DF91CF911F910F910C94C823CF9317
:104DF000DF93EC010E94AE268FE19EE40197F1F76C
:104E000000C00000CE01DF91CF910C9408260F93D3
:104E10001F93CF93DF938C01862F66E772E00E9489
:104E2000C212892BC9F4C0917602D09177022097E3
:104E300099F0F8018081833069F4CE010E94F72651
:104E4000CE010E94F726CE01DF91CF911F910F91E5
:104E50000C94F7268430B8F7DF91CF911F910F9112
:104E600008950F931F93CF93DF938C01EB0166E7B7
:104E700072E08C2F0E94C212892B09F064C0FE01DF
:104E8000FF27D8018C91E259FD4F8130D9F4199652
:104E90009C911997992311F080830CC01A969C91CC
:104EA0009923D1F382E080838091780290917902F6
:104EB0000097D9F48091760290917702009709F4D7
:104EC00042C013C08230E9F519968C91199781116F
:104ED0002DC01A968C9181110EC083E08083809141
:104EE0007A0290917B02009719F1DF91CF911F9187
:104EF0000F910C94AE2684E0808380917C02909187
:104F00007D02009791F78091760290917702009749
:104F1000F9F00E94F726809178029091790200972B
:104F200021F78091760290917702DFCF85E0808330
:104F30008091760290917702009729F00E94F726DF
:104F4000F0CF86E08083DF91CF911F910F9108957C
:104F50008091780290917902B1CF9F92AF92BF92E7
:104F6000CF92DF92EF92FF920F931F93CF93DF9335
:104F7000CDB7DEB728970FB6F894DEBF0FBECDBF12
:104F80008E010F5F1F4F88E0F80111928A95E9F7B3
:104F900096E5C92E91E0D92EF12CE12CAA24A394F8
:104FA000B12CF60181916F018F3F09F449C0F8944B
:104FB000E82FE295EF70F0E021A18F70A50102C00B
:104FC000440F551F8A95E2F7CA01922F982B91A39F
:104FD00092A18095892382A3789400C0EEE5F1E048
:104FE00030E020E0912C41914F3F09F465C0A42F9F
:104FF000A295AF70B0E090968C9190E04F7002C097
:10500000959587954A95E2F780FD56C08A2D022E28
:1050100001C0880F0A94EAF7982A2F5F3F4F263085
:10502000310509F7F601319780818F3F11F00E9419
:10503000E90850E55A95F1F7F801EE0DFF1D908251
:105040008FEFE81AF80AE8E0EE16F10409F0A9CFAC
:1050500048E050E0B80183E292E00E94CE31DD24C6
:10506000D394009709F4D12C892B41F188E0F80101
:10507000A3E2B2E001900D928A95E1F781E080937E
:1050800022020E94060690932102809320028091C2
:105090002002909121020E94F705059798F0E3E223
:1050A000F2E0AAE3B2E081918D9342E0EB32F407A3
:1050B000D1F71092220206C080E0AECF809122028A
:1050C0008111E5CF8091000110E006E18F3F09F0EA
:1050D00045C080911B0181114CC08D2D28960FB6C3
:1050E000F894DEBF0FBECDBFDF91CF911F910F911E
:1050F000FF90EF90DF90CF90BF90AF909F9008957A
:10510000029FF001039FF00D1124E058FC4FE2884C
:10511000F388E114F10419F488ECE82EF12C029FD5
:10512000F001039FF00D1124E058FC4F8681882385
:10513000A1F0858596850E94F705E816F90668F4C2
:10514000109F70011124C70180589C4F0E947D0B55
:10515000C7018A579C4F0E94330B1F5F212F30E0FD
:1051600080910001082E000C990B8217930744F6DA
:10517000B0CF80917A0390917B03009709F4ADCF73
:105180000E94F7052091D4023091D50228173907E3
:1051900008F0A3CF9091780380917903981759F084
:1051A0000E941E231092D5021092D40210927B030B
:1051B00010927A0392CF0E94BC2210927B0310922D
:1051C0007A030E94D70689CF90E080E00E940032E7
:1051D0008A3E9E4F11F40C94201480E008951F9293
:1051E0000F920FB60F9211242F933F934F935F931B
:1051F0006F937F938F939F93AF93BF93CF93DF93DF
:10520000EF93FF93D091E900DF708091EC00C82FFD
:10521000C17080FDC0E81092E9008091F000877FA6
:105220008093F00078940E94B5141092E900809168
:10523000F00088608093F000CD2BCF70C093E90020
:10524000FF91EF91DF91CF91BF91AF919F918F919E
:105250007F916F915F914F913F912F910F900FBE72
:105260000F901F9018951F920F920FB60F92112456
:105270002F933F934F935F936F937F938F939F935E
:10528000AF93BF93EF93FF938091E10082FF09C03A
:105290008091E20082FF05C08091E1008B7F8093C6
:1052A000E1008091DA0080FF23C08091D80080FF68
:1052B0001FC08091DA008E7F8093DA008091D90040
:1052C00019BC80FF98C082E089BD09B400FEFDCF03
:1052D00081E08093650480914004811109C00E949F
:1052E00059040E9424058091E20084608093E200CA
:1052F0008091E10080FF17C08091E20080FF13C021
:105300008091E2008E7F8093E2008091E2008061D4
:105310008093E2008091D80080628093D80019BC0D
:1053200085E0809365048091E10084FF28C080912E
:10533000E20084FF24C019BC82E089BD89B5982FA2
:10534000917080FFFBCF8091D8008F7D8093D80033
:105350008091E1008F7E8093E1008091E2008F7E5A
:105360008093E2008091E20081608093E20080916E
:105370006604882309F444C084E080936504809126
:10538000E10083FF27C08091E20083FF23C080916A
:10539000E100877F8093E10082E0809365041092B2
:1053A00066048091E1008E7F8093E1008091E200AD
:1053B0008E7F8093E2008091E20080618093E20022
:1053C00042E060E080E00E94F2048091F00088609A
:1053D0008093F000FF91EF91BF91AF919F918F91DA
:1053E0007F916F915F914F913F912F910F900FBEE1
:1053F0000F901F901895109265041092400478CF7A
:105400008091E30087FD93E090936504B8CF789492
:105410001F921FB61F9211248F939F93AF93BF9338
:105420008091370490913804A0913904B0913A04E6
:105430000196A11DB11D8093370490933804A09369
:105440003904B0933A04BF91AF919F918F911F900F
:105450001FBE1F9018951F921FB61F9211248F9385
:105460009F93AF93BF9380913604811113C08091B5
:10547000370490913804A0913904B0913A044196D0
:10548000A11DB11D8093370490933804A093390473
:10549000B0933A04BF91AF919F918F911F901FBE1F
:1054A0001F901895CDB7DEB7E4970FB6F894DEBF1E
:1054B0000FBECDBF84B7877F84BF0FB6F894A89581
:1054C00080916000886180936000109260000FBE40
:1054D00080E890E00FB6F8948093610090936100AB
:1054E0000FBE85B7806885BF85B7806885BF87EEAA
:1054F00098E090939901809398010E94D6120E949F
:1055000047140E9459040E9424058091E20084609F
:105510008093E2007894809165048823A1F0109133
:10552000E9001F709091EC00892F817090FD80E858
:10553000182B1092E9008091E80083FD0E94B514B9
:105540001F701093E90082E084BD93E095BD9DE754
:1055500097BD80936E000E942014811102C00E94AA
:10556000B31206E511E0FEE5EF2EF1E0FF2ED801C3
:105570008D918D018F3F11F00E94E908E016F10630
:10558000B1F70EE511E0F80181918F018F3F11F025
:105590000E94E908F1E004361F07A9F7E3E2F2E010
:1055A0008BE292E0AAE3B2E011921D928E179F0760
:1055B000D9F70E94E428811102C00E94131982E0E9
:1055C00090E00E94F23180932F020E943914909350
:1055D0003C0480933B040E94AD278FE59AEE01972F
:1055E000F1F700C000000E94AD2780913A0280FFD1
:1055F00008C06FEF7FEF90E080E00E9424320E94AD
:10560000E60583E090E00E94F2310E948C0C8091CC
:105610002B02811133C00E94E428811104C00E9432
:1056200013190E94041988E090E00E94FA316093F7
:10563000690270936A0280936B0290936C026E7F92
:1056400071F40E94041988E090E00E94FA3160939E
:10565000690270936A0280936B0290936C020E94BD
:10566000EE06109256028091690280FF04C060E04D
:1056700086950E94A81881E080932B0281E091E03A
:10568000909333048093320468E1662E712C70E4A9
:10569000572EE2E4AE2EE2E0BE2E8E010F5F1F4FCA
:1056A00080916504EE24E39452E0F52E853009F4F0
:1056B000DAC10E94AD27882359F08FB7F894409142
:1056C0003704509138046091390470913A048FBFC7
:1056D000E0E3F2E0AAE3B2E0F12CE12C3E2D8D9163
:1056E0009191981709F4DFC1292F282790E0DD2434
:1056F000D394422F4D2109F4D1C19BA73CA78D2102
:1057000091E009F490E09DA70E9406068160782F41
:105710009FA78EA74BA55CA56DA58FA50E94C8234A
:10572000F701E05DFD4F8081D826D082809156023E
:105730008823D1F180915502E0916902E695E81B3A
:10574000E0935102823009F0C7C1F0E0E857FD4F05
:10575000E491EE2EF12C44E7C42E40E1D42E80914A
:105760005202882361F0109252020E940606909322
:10577000500280934F0210925402109253020E94E2
:105780000606E0914F02F09150028E1B9F0B8F3F57
:105790009F4750F4EE0DFF1DF0935002E0934F022F
:1057A0008FE492E0F601099586E0E9E4F2E0D801A1
:1057B00001900D928A95E1F7D0904B02C0904C0277
:1057C000F0904D02E0904E0210924B0210924C026B
:1057D00010924D0210924E028D2D8C2909F448C072
:1057E00080914702909148020E94F7059C01909198
:1057F0004302992309F415C523333105C8F19F3FAE
:1058000019F09F5F90934302DD2059F00E945F08DA
:105810009FEF1D140CF491E0899F802D112480933B
:105820004B02CC2059F00E945F089FEF1C140CF42F
:1058300091E0899F802D112480934C0230914B027E
:105840003323B1F020914C02222391F045EB340335
:10585000C0011124992309F49EC190934B0245EB9A
:10586000240390011124332309F499C130934C028D
:105870008F2D8E2909F448C08091450290914602EF
:105880000E94F7059C0190914202992309F4C4C437
:1058900025363105C8F19F3F19F09F5F9093420272
:1058A000FF2059F00E943D089FEF1F140CF491E077
:1058B000899F802D112480934D02EE2059F00E9483
:1058C0003D089FEF1E140CF491E0899F802D112458
:1058D00080934E0230914D023323B1F020914E025D
:1058E000222391F045EB3403C0011124992309F4DC
:1058F0005AC190934D0245EB2403900111243323A8
:1059000009F455C130934E0280914B0290914C02A4
:10591000892B90914D02892B90914E02892B11F089
:105920000E94930786E0F801A9E4B2E001900D928D
:105930008A95E1F70E949D0690912E02891721F029
:105940000E949D0680932E0280916504843009F0A8
:10595000A7CE83E08093E9008091E80082FFA0CE8B
:105960008091E80090E085FF0AC00E94780440E240
:10597000C42ED12C7801882309F427C191E08091AD
:10598000E8008B778093E800992309F489CEE090B2
:10599000D202F090D3028981E114F10409F423C109
:1059A0008E3F09F0B3C18A81833020F08550833067
:1059B00008F0ACC1EA81EE3008F0A8C1F0E0E85987
:1059C000FD4C0C946E3180916504843009F43DC027
:1059D0001092560280912D02811116C0E0922D0284
:1059E00080916902982F917090932C028E7F809302
:1059F00069029FE7A8E3B1E09150A040B040E1F711
:105A000000C000000E94220E109236040FB6F894D7
:105A1000A895609260000FBE5092600083B7817FAE
:105A2000846083BF83B7816083BF7894889583B790
:105A30008E7F83BF0FB6F894A8958091600088612F
:105A400080936000109260000FBE809164048823F0
:105A500051F00E94AD27EAE3F2E081918111BDC3CC
:105A6000AE16BF06D1F780916504853009F4ABCF3F
:105A70000E94A0140E949D0610922D0280912C027B
:105A8000882349F08091690281608093690260E017
:105A900086950E94A8180E9487170BCE9F5FDD0C89
:105AA000963009F026CE2FEFE21AF20A38E0E3161C
:105AB000F10409F013CE8FEF88AB89AB1AAA0E94CC
:105AC00006068160782F9CAB8BAB48A959A96AA9BF
:105AD0008CA90E94C8232ACE863059F4F0E0EB57F7
