:100000000C9432030C9479030C9479030C947903C7
:100010000C9479030C9479030C9479030C94790370
:100020000C9479030C9479030C94771A0C94331A7A
:100030000C94A3200C9479030C9479030C94790309
:100040000C9479030C9479030C9479030C94790340
:100050000C9479030C947F200C9479030C9479030D
:100060000C9479030C9479030C9479030C94790320
:100070000C9479030C9479030C9479030C94790310
:100080000C9479030C9479030C9479030C94790300
:100090000C9479030C9479030C9479030C947903F0
:1000A0000C9479030C9479030C94790305010902EB
:1000B000A10185020901A100050919012905150001
:1000C00025019505750181029501750381010501E1
:1000D000093009311581257F950275088106093897
:1000E0001581257F950175088106050C0A380215D2
:1000F00081257F950175088106C0C005010980A191
:1001000001850319012AB700150126B7009501756D
:10011000108100C0050C0901A101850419012AA064
:1001200002150126A002950175108100C005010984
:1001300006A1018505050719E029E71500250195A8
:1001400008750181020507190029EF1500250195A1
:10015000F0750181020508190129059505750191C0
:1001600002950175039101C00660FF0961A10109B3
:1001700062150026FF0095207508810209631500AD
:1001800026FF00952075089102C005010906A1010E
:10019000050719E029E71500250195087501810279
:1001A0009501750881010507190029FF150026FF33
:1001B0000095067508810005081901290595057542
:1001C000019102950175039101C00000000000003B
:1001D000000000000000000000000000000000001F
:1001E00000000000000000000000000000007E0F82
:1001F00000D4FFFFFFC700000078000000000000EF
:1002000000002A2B28000000000000000000000071
:10021000000000000029000000002C1E34202122D4
:1002200024342627252E362D3738271E1F2021223D
:10023000232425263333362E37381F0405060708B6
:10024000090A0B0C0D0E0F101112131415161718A6
:10025000191A1B1C1D2F3130232D350405060708E4
:10026000090A0B0C0D0E0F10111213141516171886
:10027000191A1B1C1D2F3130354C29001A0015008E
:100280001C000C00130014000800170018001200D6
:100290004C002B00160009000B000E003300040078
:1002A00007000A000D000F002A00E1001B001900E2
:1002B0001100360001511D00060005001000370036
:1002C0002800E000E2002C00380051005200E3005A
:1002D0002C002C4250004F00015135001F0021001E
:1002E0002300250027001E002000220024002600F5
:1002F000005C3900160009000B002D0034000400DA
:1003000007000A000D002E004C00010069000100EA
:1003100001002F00380068000100010001003000DA
:100320003100010001002C003800510001000100E3
:100330002C002C0050004F00010035003B003D0018
:100340003F00410043003A003C003E0040004200B4
:100350004400010001000100010001000100C35C34
:100360000100010001000100450001000100010041
:100370000100010001000100010001000100010075
:100380000100145C010001000100010001000100F6
:100390000100010001000100010001000100010055
:1003A0000100010001000100010001000100010045
:1003B0000100010001000100010001000100010035
:1003C0000100010001000100010001000100010025
:1003D0000100010001000100010001000100010015
:1003E0000100010001000100010001000100010005
:1003F00001000100010001000100FD377A585A0098
:100400000004E6D6B4460200210116000000742F55
:10041000E5A3E0047001795D003D8889C65436C3C8
:10042000174FE4D2B290A1AAAFF9F14588FC53600E
:100430006BCBB1961DCAED2CF371FF359D49437806
:1004400007F5A23EAEA0FFB82BC120638B0B6BBF9C
:10045000ABD76128C0D3C394998F50399533F56BCE
:10046000B73734E4B25599BBE135EB7C39717C6D1B
:100470002F34A49BDBC6C97A3C893670E639B38534
:1004800043B9B7659AFC7334155DC29DF0BC6C210D
:10049000036603D1DB54D3DF57495B6EBFC7B40794
:1004A00075DB948960544C84AF698A17E1ABD03D09
:1004B00083DCDB3B6BF519DE303B6BB631A79184F7
:1004C000990A55DDE53556402F092856EE7FF7513C
:1004D0004AE6357BE9BDEF05DD4DFBABEBA3281606
:1004E000D63B59DBDFEAACD14B69D9BD9F94ED9F78
:1004F00088E7CE82BA8812DAB97D688FF1616CC064
:1005000095A7AEA6CABB0B54C718F2700902803B70
:10051000A8F09B5ACA4B1F22B57EC6FA5FC61EA919
:1005200040D6CD634168DB2E8D4A17DC3E65B2674D
:10053000AA59579890912C64F54BC3F066CAB49BA6
:10054000C881E4902A8D6615145A5DD5C9D5043644
:1005500088DD217EE68A01AB17BF3172A48736E3BE
:10056000253F9B480AD9CCF027947D63FD0954B5FB
:1005700043CC161B33AD4FACE4A8441A04CE935FB2
:10058000EDBB126A1C599DC49CCF7295A5C1BCDA03
:10059000CF0000000000CF9A5111518C8DB60001A0
:1005A0009503F1080000870997F9B1C467FB0200C1
:1005B00000000004595A09025B00030100A0FA0977
:1005C0000400000103010100092111010001224082
:1005D000000705810308000A090401000203000066
:1005E00000092111010001222200070582032000D9
:1005F00001070503032000010904020001030000B4
:100600000009211101000122BC000705840320001C
:100610000A120110010000000827624601010001D2
:100620000203011C037600690061006C003A006659
:1006300000360034006300320062003300630000C3
:10064000000A0334003600680072000000100367DF
:100650000072006C00640074006D006B0000000408
:100660000309040011241FBECFEFDAE0DEBFCDBFC7
:1006700004B603FE27C08091570290915802A091C2
:100680005902B0915A028730904BA740B04BD1F439
:1006900010925702109258021092590210925A0268
:1006A00014BE84B7877F84BF0FB6F894A895809155
:1006B0006000886180936000109260000FBEE0E0EF
:1006C000F8E3099511E0A0E0B1E0EEEFF2E402C03A
:1006D00005900D92A436B107D9F722E0A4E6B1E067
:1006E00001C01D92A735B207E1F70E944E1B0C9482
:1006F00051210C940000E8EDF0E080818E7F808332
:100700001092E2001092DA001092E100A0EEB0E048
:100710008C9181608C9380818F77808319BCA7ED49
:10072000B0E08C918E7F8C9380818F7E808310923D
:10073000210208952091E4003091E50095E6A90199
:100740002091EC00822F817020FF06C08091E8008C
:1007500080FF06C080E008952091E80022FD1AC0C5
:1007600080914602882389F0853089F08091EB00E2
:1007700085FD0FC02091E4003091E500421753073A
:10078000F9F29150E1F684E0089582E0089583E063
:10079000089581E00895EF92FF920F931F93CF93F6
:1007A0007C018B010E949A03C82F811117C0809190
:1007B000E80085FD0BC08091E8008E778093E8000B
:1007C0000E949A03882399F3C82F08C0F7018191EA
:1007D0007F018093F1000150110949F78C2FCF91CF
:1007E0001F910F91FF90EF9008958091480287FF2D
:1007F00013C08091E80082FF06C08091E8008B77EB
:100800008093E80004C0809146028111F2CF0895E0
:10081000809146028823D9F38091E80080FFF8CFC9
:100820008091E8008E77ECCF982F9093E900242FE9
:10083000762F50E0891731F07091EC002091ED0097
:100840005091F00021FD07C09F5F973071F78093B2
:10085000E90081E008953091EB003E7F3093EB009A
:100860003091ED003D7F3093ED003091EB00316031
:100870003093EB007093EC002093ED005093F00068
:100880002091EE0027FDE0CF80E00895CF92DF9227
:10089000EF92FF920F931F93CF93DF93C8EDD0E0B9
:1008A00088818F7E8883E7EDF0E08081816080839E
:1008B00084E082BF81E08093210288818E7F8883DB
:1008C00002EE10E0F80110821092DA0081EEC82EDC
:1008D000D12CF601108288818F7788838881806887
:1008E000888388818F7D888319BC1092460210927C
:1008F0004702109245021092440290EEE92EF12C2C
:10090000F70180818B7F808388818160888342E0CA
:1009100060E080E00E941404F60180818E7F808375
:10092000F801808181608083808188608083F70105
:1009300080818E7F8083888180618883DF91CF91E1
:100940001F910F91FF90EF90DF90CF900895FC01E1
:1009500080914E0290914F0286179707A0F0611583
:10096000710529F49091E8009E779093E80090E05B
:100970006115710551F4911108C08091E80082FF62
:1009800034C080E00895BC01F2CF809146028823F4
:10099000C1F18530C1F18091E80083FD30C08091C4
:1009A000E80082FDEACF8091E80080FFE1CF8091EE
:1009B000F3002091F200382F6115710519F02830ED
:1009C000310558F091E02830310509F090E0209190
:1009D000E8002E772093E800CBCF81918093F1003F
:1009E000615071092F5F3F4FE7CF80914602882306
:1009F00041F0853041F08091E80083FFBECF81E077
:100A0000089582E0089583E0089580E0089580913C
:100A10002302089587E797E79093010880930008E1
:100A200088E19AE00FB6F894A895809360000FBE15
:100A300090936000FFCF9C014FB7F89480911B0208
:100A400090911C02A0911D02B0911E024FBF821B0B
:100A5000930B08952FB7F89480911B0290911C027C
:100A6000A0911D02B0911E022FBF089520910C018C
:100A70002223C9F02091F60127FF15C0E62FE69545
:100A8000E695E695EE31D8F4E80FF92FF11D677081
:100A900021E030E001C0220F6A95EAF720958281BB
:100AA000282322830895FC0132960896219162132F
:100AB00003C0DF0111971C92E817F907B9F70895F1
:100AC00020910C012223C1F02091F60127FF14C0D0
:100AD000E62FE695E695E695EE31F8F4E80FF92F66
:100AE000F11D677021E030E001C0220F6A95EAF73E
:100AF0008281822B82830895FC0132962FEF30E0B1
:100B00004191641751F02F3F19F4411101C0232F77
:100B10003F5F3630A9F72F3F09F40895820F911DEA
:100B200027FD9A95FC01628308958091E901811166
:100B30001092E90108958091E8019091E701892BD5
:100B40009091E601892B809366019091E9019923A8
:100B5000A1F0892B8093660180910C01882341F1DB
:100B60008091F60187FF24C08EE1E8E6F1E090E095
:100B7000815000F591110E949505E091F801F091E6
:100B8000F9013097E1F080910C01882359F08091B0
:100B9000F60187FF07C0809166018093670185E0B9
:100BA000809366010280F381E02D86E691E009944E
:100BB00086E0DBCF21912223D9F29F5FD9CF089520
:100BC000E92FEE0FE90FEE0F8E0F982F9770869595
:100BD0008695869525E0829FF0011124E953FE4F0A
:100BE00050E040E080E0219130E0092E02C03695CF
:100BF00027950A94E2F721703327042E01C0220FB3
:100C00000A94EAF7822B4F5F5F4F4530510559F741
:100C10000895E92FEE0FE90FEE0F8E0F982F9770C2
:100C200041E001C0440F9A95EAF78695869586952E
:100C300095E0899FF0011124E953FE4F30E020E058
:100C400070E05191DF011197CB01022E02C0969501
:100C500087950A94E2F781708195852784238527FB
:100C60008C932F5F3F4F2530310559F708958091C0
:100C7000C60190919501981301C008958F5F877008
:100C8000FACF882341F080959091E80189238093E1
:100C9000E8010C949B050895882339F09091E801B0
:100CA000982B9093E8010C949B05089520918B015B
:100CB00030918C012817390771F090938C01809343
:100CC0008B01E091F801F091F901309721F0008457
:100CD000F185E02D099408952091890130918A01D0
:100CE0002817390771F090938A0180938901E09168
:100CF000F801F091F901309721F00680F781E02D9D
:100D000009940895E091F801F091F901309721F0EC
:100D10000190F081E02D099480E008950E942A0559
:100D20009C019091030280910402982B21F0309352
:100D300000022093FF019091050280910602982BFA
:100D400021F03093FD012093FC01E091F801F09136
:100D5000F901309749F082E0809301020480F58127
:100D6000E02D81E092E00994089590E080E00E94F7
:100D70006C0690E080E00E9456061092E701109207
:100D8000E6010E949B0586E0E1E0F2E0DF011D92B2
:100D90008A95E9F71092FE011092FB0110928E01E4
:100DA0000C948E0660935302709354028093550204
:100DB000909356020C94B5060F931F9360915302C3
:100DC0007091540280915502909156028B019C01C2
:100DD000067011272227332706301105210531051A
:100DE00029F468601F910F910C94D206677FFACFA7
:100DF0000F931F9341E050E060E070E004C0440FA7
:100E0000551F661F771F8A95D2F7CB01BA016095EF
:100E10007095809590950091530210915402209105
:100E200055023091560260237123822393231F9130
:100E30000F910C94D2069091E501809589238093BF
:100E4000E501282F277071F4282F082E000C330B92
:100E50009217130639F08595859585950E94F806B9
:100E60001092E50108950F931F9341E050E060E078
:100E700070E004C0440F551F661F771F8A95D2F794
:100E80008091530290915402A0915502B091560264
:100E90008A019B01082B192B2A2B3B2BC901B80176
:100EA0001F910F910C94D2066093EA017093EB01AD
:100EB0008093EC019093ED010C94B50690910302A0
:100EC000803F59F48091040287FF0DC01092040204
:100ED00091110BC01092FE0108C0813F81F48091F6
:100EE000040218169CF3992381F0809105029091D9
:100EF0000602892B09F064C01092FB010895823F1D
:100F000049F497FFF0CF10920302809104028111FF
:100F1000ECCFE0CF833F19F41916ACF3E4CF209166
:100F20000502893F29F41216F4F610920502DBCF70
:100F30008A3F19F427FFD7CFF8CF209106028B3FC5
:100F400029F427FFD0CF10920602CDCF8C3F19F4A1
:100F50001216CCF3C8CF843F31F4809102028E7F09
:100F600080930202C0CF853F21F4809102028D7FE1
:100F7000F7CF863F21F4809102028B7FF1CF873F2C
:100F800021F480910202877FEBCF883F21F480918A
:100F900002028F7EE5CF8D3F31F480918E018E7FEE
:100FA00080938E01A0CF8E3F21F480918E018D7FA2
:100FB000F7CF8F3F09F097CF80918E018B7FF0CFD5
:100FC00008958823B1F19CEF980F913A38F4682F77
:100FD00086E691E00E9436050C949B0590E2980FFE
:100FE000983088F4877021E030E0A90102C0440FF6
:100FF000551F8A95E2F7CA0180959091E8018923EF
:101000008093E801E9CF9BE5980F933020F490E0BE
:1010100080E00C946C0698E5980F973120F490E0EE
:1010200080E00C945606803F20F00E945E070C94EE
:101030008E06089580918E0180FD16C081FD16C038
:1010400082FD16C08091FB018823A1F0883280F4D4
:1010500028E0829FC001112468E270E00E94CA204B
:10106000862F672B39F0089582E0089584E0089573
:1010700088E0089581E0089580918E0180FD14C07C
:1010800081FD14C082FD16C08091FE01882381F08D
:10109000843180F422E3829FC001112464E170E076
:1010A0000E94CA20862F08958CE0089589E1089552
:1010B00085E0089582E30895803F31F40E943C0862
:1010C0008195809304020895813F19F40E943C08A1
:1010D000F8CF823F31F40E943C088195809303024F
:1010E0000895833F19F40E943C08F8CF893F29F402
:1010F0000E941A088093050208958A3F21F40E94F5
:101100001A088195F7CF8B3F31F40E941A08819518
:101110008093060208958C3F19F40E941A08F8CFB4
:10112000843F31F48091020281608093020208952D
:10113000853F21F4809102028260F7CF863F21F43F
:10114000809102028460F1CF873F21F480910202F6
:101150008860EBCF883F21F4809102028061E5CF67
:101160008D3F31F480918E01816080938E010895CE
:101170008E3F21F480918E018260F7CF8F3FB9F7C7
:1011800080918E018460F1CFCF93C82F882309F41A
:101190006FC08CEF8C0F813AC0F580910C018823D1
:1011A00011F18091F60187FF1EC0EC2FE695E695C0
:1011B000E695F0E0EA59FE4F828190E04C2F4770AF
:1011C00021E030E002C0220F331F4A95E2F782236C
:1011D0009323892B91F06C2F86E691E00E943605CF
:1011E0000E949B050AC0E8E6F1E08EE691E02191BD
:1011F000C21789F38E179F07D1F76C2F86E691E00F
:101200000E946005CF910C949B0580E28C0F883082
:1012100068F4C77021E030E001C0220FCA95EAF7F8
:101220008091E801822B8093E801ECCFEBE5EC0F95
:10123000E33040F4F0E0EB5EFE4F808190E0CF9130
:101240000C946C06E8E5EC0FE73150F4F0E0EE0F9B
:10125000FF1FE85EFE4F80819181CF910C9456066E
:10126000C03F30F08C2F0E945C08CF910C948E060A
:10127000CF910895F894E82FE295EF70F0E031A156
:10128000282F2F7081E090E001C0880F2A95EAF79F
:10129000982F9095932391A392A1892B82A3789460
:1012A00008959091F60192FF06C0282F28712830EA
:1012B000F9F4877F846093FF06C0282F28712831B6
:1012C000F1F4877E84612091F70120FF06C0382F5A
:1012D00038713830D9F4877F816021FF06C0282F0C
:1012E00028712831D1F4877E816194FD877E08952D
:1012F000282F24712430F9F68B7F8860DCCF282FCB
:101300002471243101F78B7E8861DDCF382F317154
:10131000313019F78E7F8860E0CF282F217121317D
:1013200021F78E7E8861E1CFCF9384E090E00E9428
:101330000F21C82F81E290E00E940F21982F8C2F5F
:10134000CF9108950F931F93CF93DF93843000F5CF
:1013500061111EC024E0829F8001112450E0440FDF
:10136000551F040F151F0A551E4FC8010E940F215B
:10137000C82FD0E0DC2FCC27C80101960E940F2196
:101380009E01282BC901DF91CF911F910F910895E4
:1013900090E080E0F8CF0F931F93CF93DF938430DA
:1013A00030F5683020F5463010F5C42FD0E0CC0F72
:1013B000DD1F2CE0629FC00DD11D112430E6839FFC
:1013C000C00DD11D1124CE0186960E940F21082F39
:1013D00010E0102F0027CE0187960E940F21980160
:1013E000282BC901DF91CF911F910F91089590E0B3
:1013F00080E0F8CF462F20911F0230912002232B4E
:1014000049F4843038F4783028F4663018F4672FC3
:101410000C94CB0990E080E00895CF93DF930E9475
:10142000FA09EC0182389105A9F1D8F581339105CB
:1014300009F496C048F58932910509F48AC08A9763
:1014400009F495C0C11521E5D20708F0BCC0C1154B
:1014500030E5D30708F014C1C83ED10508F09CC0A0
:10146000C03ED10560F5C83AD10508F087C0C53A3D
:10147000D10508F0FDC0C130D10509F12097F9F080
:10148000C430D105E0F440C08533910509F45AC059
:10149000C997C1F68091F601837089F0C0EED0E063
:1014A0000EC0833E910599F170F4803E910501F1E3
:1014B000823E910539F68091F60182FD21C0CE0170
:1014C000DF91CF910895863E910561F1873E9105A8
:1014D00071F1843E910509F0B5CF8091F70181FF4C
:1014E000EECF8091F601C7EED0E084FD0DC0E7CFCE
:1014F0008091F60180FD12C19091F70190FFDFCF3E
:10150000C3EED0E084FFDBCFD0E0C0E0D8CF809145
:10151000F60182FD06C19091F70190FDBFCF84FFD7
:10152000CECFF2CF8091F60183FDDDCFC8CF809181
:10153000F60183FDF9C09091F70191FFF0CFC4EE61
:10154000D0E0BDCF8091F60185FFB9CFC9E2D0E0F0
:10155000B6CF8091F60185FFB2CFC5E3D0E0AFCF23
:101560008091F60186FFABCFCAE2D0E0A8CF809190
:10157000F60186FFA4CFC1E3D0E0A1CFCF3BD105D8
:1015800018F6C85AD0E0CC0FDD1FC85EDE4F0990B8
:10159000D881C02DD46493CFC11540E2D40758F44C
:1015A000C11581E0D80708F08ACFC03FD10508F403
:1015B000ABCFD06584CFC11590E4D90708F4A4CF90
:1015C000DF70D06A7CCFC11525E5D20700F5C115C3
:1015D00034E5D30708F08AC0C11543E5D40708F005
:1015E00071C0C11582E5D80708F467C0CE018370C9
:1015F000992721E030E002C0220F331F8A95E2F7DD
:10160000C695C69580E2C89FE001112452C0C1155D
:1016100099E5D907A8F4C11528E5D20708F06BC0F1
:10162000C11536E5D30708F06FCF8C2F0E94510902
:10163000C82FD0E0DC2FCC27CC27DF71D0623FCF82
:10164000C1154AE5D40708F45BC0CE019056811558
:10165000904208F059CF8D2F8F710E94510990E070
:10166000982F882788279F719C012C2BE901E6CFB2
:10167000C55AD0E0CB5EDE4FC881D0E0D0641FCF2A
:10168000CE01E4E096958795EA95E1F783702C2FDB
:1016900026952695237040E2249F90011124382B33
:1016A0008C2F8370C1E0D0E002C0CC0FDD1F8A9583
:1016B000E2F7C22BD32BDC6802CFDC2FCC27C16F23
:1016C000D06AFDCECE018370992721E030E002C0C0
:1016D000220F331F8A95E2F7C695C69590E2C99FFF
:1016E000E0011124C22BD32BDA68E9CEDC2FCC2702
:1016F000C46FD06AE4CEDC2FCC27C06FD06ADFCEB7
:101700008C2F8F700E94510934E0D695C7953A9579
:10171000E1F7CF709C2FEC01D069D1CEC9E3D0E0C6
:10172000CECEC2EED0E0CBCEC6EED0E0C8CEBF92D9
:10173000CF92DF92EF92FF920F931F93CF93DF939D
:101740008C01C0905302D0905402E0905502F0906A
:1017500056028091EA019091EB01A091EC01B091C9
:10176000ED01C82AD92AEA2AFB2ACFE1D0E0BC2E13
:10177000D701C6010C2E04C0B695A79597958795FD
:101780000A94D2F780FD0EC0219788F7B12C8B2DDB
:10179000DF91CF911F910F91FF90EF90DF90CF904D
:1017A000BF900895B8018C2F0E940D0A019761F334
:1017B000EECFCF93DF93EC010E94970BBE01DF9138
:1017C000CF910C940D0A0E94D90B292F2F7092955E
:1017D0009F7092509E3078F4E92FF0E0ED5AFE4D64
:1017E0000C94DE20803F19F020F4883E20F481E044
:1017F0000895843FE1F380E00895883EC0F3813F7F
:10180000D1F7F5CF822F8695869586950895CF934B
:10181000DF93C6EBD1E060E0CE010E941D2121964E
:10182000C11584E0D807B9F7DF91CF9108950F93E0
:101830001F93CF93DF938901843028F5611123C072
:10184000423008F521153C4531F4209100013091DA
:101850000101232BC1F094E0899FE001112450E0A5
:10186000440F551FC40FD51FCA55DE4F612FCE013F
:101870000E941D21602FCE010196DF91CF911F9113
:101880000F910C941D21DF91CF911F910F9108951D
:101890000F931F93CF93DF938901843048F568300D
:1018A00038F5463028F521153C4531F420910001EA
:1018B00030910101232BE1F0C42FD0E0CC0FDD1FCC
:1018C0009CE0699FC00DD11D112490E6899FC00D39
:1018D000D11D1124612FCE0186960E941D21602FFB
:1018E000CE018796DF91CF911F910F910C941D210E
:1018F000DF91CF911F910F9108958F929F92AF9298
:10190000BF92CF92DF92EF92FF921F93CF93DF931C
:10191000809000019090010181E090E0909301019E
:10192000809300018AE7C82E82E0D82EC0E07601BD
:10193000D0E014C0F50125913491412F6D2F8C2FEB
:101940000E94480C82E0A80EB11C1F5F163091F770
:101950008CE0E80EF11CDF5FD83019F0570110E081
:10196000E9CF21E030E040E060E08C2F0E94170CCE
:1019700021E030E041E060E08C2F0E94170CCF5F47
:1019800080E6C80ED11CC43091F69092010180927D
:101990000001DF91CF911F91FF90EF90DF90CF90EA
:1019A000BF90AF909F908F9008951092E801809122
:1019B0000C01E8E6F1E0882359F08091F60187FFF9
:1019C00007C08EE1DF011D928A95E9F70C94B506F8
:1019D00086E0F8CF1F93CF93DF93CDB7DEB7AA97FA
:1019E0000FB6F894DEBF0FBECDBF88E492E0209121
:1019F000F100DC012D93CD01B2E080359B07B9F7F2
:101A000080914902833009F471C0B8F4813009F43F
:101A100048C0823009F4B2C08091E80083FF3AC127
:101A200080914802909149029A3008F033C1E92F21
:101A3000F0E0EF59FE4D0C94DE208A3009F48DC0A1
:101A40008B3009F470C0893039F7809148028132B7
:101A500019F780914C0290914D02009711F0029776
:101A6000D9F68091E800877F8093E8008091E800B4
:101A700082FF37C09091F3008091F200029729F421
:101A80008091F1008B7F813021F48091F10080936F
:101A900023028091E8008B778093E8000E94F50391
:101AA000BBCF80914802813A09F0B6CF8091E8001F
:101AB000877F8093E80080914C0290914D02892BA2
:101AC00061F460E284E292E070E00E94A7048091F9
:101AD000E8008B778093E8009FCF60E090E080E0A3
:101AE000F3CF809146028111C1CF96CF80914802F9
:101AF000813A09F091CF80914C0290914D02892B4F
:101B000009F08ACF8091E800877F8093E800809178
:101B1000E80080FFFCCF80910C018093F100809160
:101B2000E8008E77B9CF80914802813209F074CFF6
:101B300080914C0290914D02892B09F06DCF8091DC
:101B4000E800877F8093E8000E94F50380914A02B5
:101B500080930C010E94D50C5FCF809148028132A6
:101B600009F05ACF8091E800877F8093E8000E94B7
:101B7000F50380914B02809322024ECF8091480260
:101B8000813A09F049CF8091E800877F8093E8008F
:101B90008091E80080FFFCCF80912202BECF803888
:101BA00099F0823809F076C080914C028F708730AE
:101BB00008F070C08093E9008091EB0085FB8827D6
:101BC00080F91092E90006C080914402909145028C
:101BD000911182609091E800977F9093E800809344
:101BE000F1001092F1008091E8008E77C0C1882347
:101BF00009F4ADC1823009F04DC080914A028111D3
:101C0000B1C180914C028F702FEF280F263008F061
:101C100041C08093E9002091EB0020FFA3C19330E5
:101C200031F48091EB0080628093EB009BC1909136
:101C3000EB0090619093EB0021E030E001C0220FB7
:101C40008A95EAF72093EA001092EA008091EB006F
:101C50008860EACF81111EC010914A021F778091DF
:101C6000E3008078812B8093E3008091E800877FF8
:101C70008093E8000E94F5038091E80080FFFCCF8C
:101C80008091E30080688093E30082E0111183E09B
:101C9000809346028091E80083FF0AC08091E800AB
:101CA000877F8093E8008091EB0080628093EB0057
:101CB000AA960FB6F894DEBF0FBECDBFDF91CF91CD
:101CC0001F9108958058823028F720914A02309160
:101CD0004B022C3DE3E03E07A1F583E08A838AE2D4
:101CE00089834FB7F894DE01139620E03EE051E27D
:101CF000E32FF0E050935700E49120FF03C0E295FA
:101D0000EF703F5FEF708E2F90E0EA30C0F0C79623
:101D10008D939D932F5F243159F74FBF8091E80039
:101D2000877F8093E8006AE270E0CE0101960E940E
:101D3000A7048091E8008B778093E800ABCFC09632
:101D4000E7CF80914C0290914D02432F55274330AD
:101D5000510509F44AC078F54130510509F485C0B0
:101D60008BE590E0E6EBF5E04230510509F092CFCB
:101D70002091E800277F2093E80020914E023091C7
:101D80004F028217930708F49C0140E021153105AA
:101D900009F070C041116EC08091E80082FDC9CF8A
:101DA00080914602882329F2853019F28091E8005B
:101DB00083FFF2CFBECF4132510509F447C0423212
:101DC000510509F067CF8330910508F063CFFC011E
:101DD000EE0FFF1FE95AFE4F0190F081E02D8C5A63
:101DE0009E4FDC018C9190E01DC0332721303105DE
:101DF000E9F02115310579F022303105F9F0233071
:101E0000310509F047CFE3E2F6E0E4918E2F90E050
:101E1000E3E2F6E007C0EFE5F6E0E4918E2F90E014
:101E2000EFE5F6E0009709F435CFA2CFEDE4F6E058
:101E3000E4918E2F90E0EDE4F6E0F4CFE1E4F6E0FB
:101E4000E4918E2F90E0E1E4F6E0ECCF8330910551
:101E500008F020CF880F991FFC01E35AFE4F019034
:101E6000F081E02D89E090E083CF82E190E0E1E134
:101E7000F6E07ECF80914602882309F45ACF853060
:101E800009F457CF8091E80083FD53CF8091E8009B
:101E900082FD82CF8091E80080FF78CF9091F3009F
:101EA0008091F2002115310519F08830910550F02C
:101EB00041E0089709F040E08091E8008E77809338
:101EC000E80064CF44914093F100319621503109EC
:101ED0000196E8CF803809F0DDCE8091E800877F59
:101EE0008093E800809147028093F1007CCE8111BD
:101EF000D1CE10914A02123008F0CCCE8091E80089
:101F0000877F8093E800109347020E94F503112316
:101F100011F084E005C08091E30087FDFACF81E0F5
:101F20008093460242E061EC81E00E94140442E2A8
:101F300061EC84E00E94140442E261EC82E00E94C1
:101F4000140442E260EC83E00E941404A3CE80916A
:101F50004A02813009F09ECE81E0933009F080E0A2
:101F6000809345021092E9008091E800877F80937A
:101F7000E8000E94F5038ECECF93DF9300D00F923E
:101F8000CDB7DEB790914602943011F589837B83FB
:101F90006A839093E9008FEF9091E800815095FD5E
:101FA00006C095ED9A95F1F700008111F5CF80916B
:101FB000E80085FF0DC050E040E063E070E0CE0136
:101FC00001960E94CB038091E8008E778093E80011
:101FD0000F900F900F90DF91CF910895BC0184E096
:101FE0000C94BC0FBC0183E00C94BC0F9C0184E0FA
:101FF0008093E9009FEF8091E800915085FD06C035
:1020000085ED8A95F1F700009111F5CF8091E800F8
:1020100085FF0CC050E040E066E070E0C9010E941E
:10202000CB038091E8008E778093E8000895CF93EA
:10203000DF93EC0180910C018823B1F18091F601CE
:1020400087FF32C060E284E08093E9008FEF9091D7
:10205000E800815095FD06C095ED9A95F1F70000D6
:102060008111F5CF8091E80085FF1BC080910C01A4
:1020700070E050E040E0811104C050E040E068E0D2
:1020800070E0CE010E94CB038091E8008E778093B0
:10209000E80080E2FE01A4E2B2E001900D928A9590
:1020A000E1F7DF91CF91089568E081E0CDCF1F93F4
:1020B000CF93DF93182FD0E0C0E0893311F4C0E54F
:1020C000D0E0812F0E94C408209731F4812FDF9146
:1020D000CF911F910C94E1078FE99FE00197F1F7F1
:1020E00000C000002197F0CF0F931F93CF93DF9391
:1020F000C62FD42F022FFC0182818823A1F0609388
:1021000052020E942A059093510280935002C77098
:1021100081E001C0880FCA95EAF7DF91CF911F9146
:102120000F910C944C0680915202681335C0809137
:102130005002909151020E941B05883C910560F568
:1021400010E21D0FCD17B9F080E28C0F883040F4FB
:10215000C77081E001C0880FCA95EAF70E94410666
:10216000183048F481E09D2F977001C0880F9A9530
:10217000EAF70E944C06802F0E945710183098F4FE
:10218000D77081E001C0880FDA95EAF7DF91CF912F
:102190001F910F910C944106C77081E001C0880F18
:1021A000CA95EAF7F3CFDF91CF911F910F91089570
:1021B0009F92AF92BF92CF92DF92EF92FF920F93D6
:1021C0001F93CF93DF9386E4C82E81E0D82E0EEEC6
:1021D00011E0E801A12CB12CEE24E394F12CD601FE
:1021E0008D916D01F894E82FE295EF70F0E021A158
:1021F0008F70A70102C0440F551F8A95E2F7CA01EC
:10220000922F982B91A392A18095892382A37894F1
:1022100000C0EEE4F1E030E020E0912C4191A42FE9
:10222000A295AF70B0E090968C9190E04F7002C094
:10223000959587954A95E2F780FD43C08E2D022E35
:1022400001C0880F0A94EAF7982A2F5F3F4F263083
:10225000310521F7F601319780810E943A0957E054
:10226000A51619F080EA8A95F1F78881981659F138
:10227000988281E0B82AA3942196A8E0AA12AFCF51
:10228000BB2019F181E0809388010E942A05909378
:1022900087018093860180918601909187010E9439
:1022A0001B050697B0F0E3E1F2E086EF91E0D8017C
:1022B0002D918D0121938A179B07C9F710928801F0
:1022C00008C080E0C1CF80E0D5CF80918801811126
:1022D000E2CF8B2DDF91CF911F910F91FF90EF9067
:1022E000DF90CF90BF90AF909F900895AF92BF9234
:1022F000CF92DF92EF92FF920F931F93CF93DF93D2
:10230000EC018AE0A82E2881222309F48CC0213018
:10231000C9F599818A81913021F422960E94571043
:1023200005C0923029F422960E94C4082196EBCF72
:10233000933021F422960E94E107F8CF943011F0F7
:102340002196F4CF229630E020E0AE014F5F5F4F40
:102350008053990B8A30910550F02150310930F3A8
:102360008FE99FE00197F1F700C00000F6CFA29E31
:10237000B001A39E700D11249C01260F371F898187
:10238000EA01E3CFE22FF0E0E650FE4FB490822F57
:1023900086958695869590E0FC01E651FE4FE49087
:1023A0002770F12C022E02C0F594E7940A94E2F70C
:1023B00031E0E322FF24FC01E652FE4FC490D12C11
:1023C000022E02C0D594C7940A94E2F731E0C322EA
:1023D000DD24FC01E653FE4F049110E002C0159588
:1023E00007952A95E2F701701127E114F10419F01D
:1023F00081EE0E94C408C114D10419F086EE0E9437
:10240000C4088B2D0E945710CD2819F086EE0E942B
:10241000E107EF2819F081EE0E94E107012B09F492
:1024200085CF8CE27BCFDF91CF911F910F91FF90F1
:10243000EF90DF90CF90BF90AF9008956BEE7EEF5E
:1024400090E080E00E943B2160E082E090E00E940A
:102450001D2160E083E090E00E941D211092EA01BE
:102460001092EB011092EC011092ED0160E084E01B
:1024700090E00E941D2160E081E290E00E941D2119
:1024800060E085E090E00E941D2160E086E090E041
:102490000E941D216FEF87E090E00E941D2140E027
:1024A00050E0BA0188E090E00E942F2160E08DE0CA
:1024B00090E00E941D2140E050E0BA0188E190E0E8
:1024C0000E942F2160E087E190E00E941D2140E002
:1024D00050E0BA018CE190E00E942F2160E080E2A0
:1024E00090E00E941D2140E050E0BA0188E190E0B8
:1024F0000E942F2140E050E0BA018FE090E00E945E
:102500002F2140E050E0BA0183E190E00C942F21AC
:102510004F925F926F927F928F929F92AF92BF92F3
:10252000CF92DF92EF92FF920F931F93CF93DF939F
:1025300000D000D00F92CDB7DEB77C01FC018381C3
:102540009481892B31F08081918189238F3F09F01B
:10255000B2C40F900F900F900F900F90DF91CF911A
:102560001F910F91FF90EF90DF90CF90BF90AF90B1
:102570009F908F907F906F905F904F9008950E94F2
:10258000970B182F682F89819A810E94090669810B
:102590007A81812F0E94FA098C01F70182818823B8
:1025A00009F47EC4980122513F452031310508F0DD
:1025B00050C48FEF93E00E940F21025146EBC42ECE
:1025C000DD24D3948823D9F08091E501877009F444
:1025D000C0CFF7018281882309F4BBCF82E00E943B
:1025E0001B07B7CFC114F4E0DF0671F3C6010E94E8
:1025F0000F21811101C001502FEFC21AD20A01111F
:10260000F1CF19821A821B821C820FEF46013FEF25
:10261000831A930AC6010E940F2189831A82882394
:1026200099F2813009F047C0560142E0A40EB11C76
:10263000C4010E940F21982E8A83882329F2C501A4
:102640000E940F21182F8FEF890D833068F45601F7
:1026500053E0A50EB11C1B83112321F0CE0101967E
:102660000E9476116501D2CF84E09812FBCF56010B
:1026700094E0A90EB11CC60103960E940F211123FC
:1026800009F4A2CF882309F49FCF8150990B089FAA
:102690009001099F300D1124E12FE150FF0BCF0174
:1026A000820F931F0197F0F2EFE9FFE03197F1F706
:1026B00000C00000F7CFCE0101960E9476115401B0
:1026C000D1CF81E00E9433070E94DC067DCF81E0FC
:1026D0000E94F806F9CF82E0F5CF053FECE51E0732
:1026E00009F45EC008F458C0063F2CE5120709F44F
:1026F0005BC0882309F4F0C31092520202303CE51B
:10270000130708F431C106314CE5140738F098017D
:102710002A5F3C452930310508F026C10E94940902
:102720009093F7018093F60100315CE5150709F4F9
:10273000EAC008F078C008309CE5190709F4D9C050
:1027400008F047C00430FCE51F0709F4C6C098F53F
:1027500002303CE5130709F4BAC08091F6018260AB
:1027600003301C4509F4B6C06091F6011091F701E1
:1027700084E090E00E941D21612F81E290E00E94A0
:102780001D210E94D50C20CF27E245EE65EE84C3C3
:1027900026E241EE60EE80C327E245EE64EE7CC3A4
:1027A00026E241EE62EE78C327E245EE66EE74C3A0
:1027B00028E241E0EBCF8091F601806106305CE5D4
:1027C000150709F487C008F48CC08091F601806277
:1027D00081C08091F6018D7F0C309CE5190709F4CA
:1027E00079C070F48091F6018C600A30FCE51F0717
:1027F00009F470C008F481C08091F6018E7F6AC030
:102800008091F601877F0E303CE5130709F462C022
:102810008091F6018B7F0F301C4508F45BC08091DE
:10282000F6018F7E57C00B3F5CE5150709F45DC0CC
:1028300030F503319CE5190709F46DC078F40131D6
:10284000FCE51F0709F463C002311C4509F08CCF79
:102850000E94D50C8091F6018F773CC005313CE594
:10286000130709F460C008F474C08091F701816017
:102870000A3F1C4509F078CF8093F70175CF0F3FD1
:102880008CE5180709F44BC088F48091F7018D7F1F
:102890000D3FECE51E0781F38091F7018E7F0E3F1F
:1028A0001C4550F38091F7018360E6CF01302DE5A0
:1028B000120709F457C008F442C060E002301D4519
:1028C00009F052CF8EE090E00E941D214DCF809103
:1028D000F60181608093F60147CF8091F601846014
:1028E000F9CF8091F6018860F5CF8091F701826081
:1028F000C3CF8091F6018064EDCF0E94D50C80910A
:10290000F6018068E7CF8091F6018F7DE3CF80915B
:10291000F6018F7BDFCF8091F601837FDBCF809143
:10292000F7018C7FA9CF8091F60182FB992790F95E
:1029300021E0922790FB82F990FB83F9CBCF809125
:10294000F701982F909591708E7F892B90FB81F9DC
:1029500093CF0E94D50C9091F601892F97FB87F9B0
:102960008058B8CF61E0AECF06315CE5150709F0BD
:10297000C0C28091E8018A7A91E009F490E09093D6
:102980008D0169E2811165E386E691E00E946005B0
:102990000E949B0519CE0E94D50C8FEF94E3ECE0CA
:1029A00081509040E040E1F700C000000E940A051D
:1029B0000E941E1209CEC8010E94E005D82EB0C2A6
:1029C000212F2F70A22E107F19F0A29490EFA92230
:1029D000DD20C9F0AA2069F080E2800F883010F075
:1029E00081100BC08091E801A82AA092E8010E9402
:1029F0009B05802F0E94C40818C08091E701A82A77
:102A0000A092E701F4CF802F0E94E107AA2069F08D
:102A1000A094005E083010F0811028C08091E80179
:102A2000A822A092E8010E949B052B2D2850330B71
:102A30002430310510F40E948206CC2009F489CD9F
:102A40008091E50180FD85CDF70112828595859500
:102A500085950E943307C7010E9488128091E50185
:102A60008595859585950E94F80673CD8091E7013F
:102A7000A822A092E701D7CF312F3F70932E107F6D
:102A8000103219F0929480EF9822882071F041E082
:102A9000841661F1DD20B9F1AA2071F1F701858179
:102AA00080FFA7CF8F70858327C0DD2091F09091A4
:102AB000E901892D892BA11003C00E944C06B5CFD6
:102AC00051E0A512FACF981709F4AFCF8093E9012E
:102AD000ACCFA11006C00E949505892D0E94410629
:102AE000A4CF81E0A81609F4A0CFF5CFDD2031F006
:102AF00095E09A1508F499CF892DDFCFE4E0EA1527
:102B000008F493CFEACFAA2041F3F9E38F1209C06A
:102B10002FEF37EE43E0215030404040E1F700C056
:102B20000000802F0E94E10780CF812F8695869537
:102B3000837061F0813009F078CFC8019370D110B3
:102B400002C090E080E00E9456066FCFC8019370EB
:102B5000D11002C090E080E00E946C0666CF802F0A
:102B6000DD2039F00E945C080E948E060E948E06CD
:102B70005CCF0E945E07FACF812F837009F066C098
:102B8000D11053CF802F829586958770880F880F3C
:102B9000602F6F70462E512C712C612C082E04C0B2
:102BA000440C551C661C771C0A94D2F740E050E098
:102BB000BA0104FF0FC04FE050E060E070E004C0D5
:102BC000440F551F661F771F8A95D2F74095509581
:102BD00060957095812F869586958370823019F166
:102BE000D8F40091EA011091EB012091EC013091B1
:102BF000ED01813069F04429552966297729CB01F7
:102C0000BA0160237123822393230E9454070DCFBE
:102C1000402A512A622A732ACB01BA0164297529F4
:102C200086299729F2CF44295529662977290091C9
:102C3000EA011091EB012091EC013091ED01CB0103
:102C4000BA016027712782279327DFCF8695DD2081
:102C500011F0812F8170882309F4E7CE802F8295AF
:102C600086958770880F880F602F6F70462E512CC5
:102C7000712C612C082E04C0440C551C661C771C5A
:102C80000A94D2F740E050E0BA0104FF0FC04FE0D1
:102C900050E060E070E004C0440F551F661F771FCE
:102CA0008A95D2F74095509560957095812F8695BD
:102CB00086958370823019F1D8F4009153021091F7
:102CC00054022091550230915602813069F0442916
:102CD000552966297729CB01BA0160237123822304
:102CE00093230E94D206A1CE402A512A622A732A37
:102CF000CB01BA016429752986299729F2CF442985
:102D00005529662977290091530210915402209188
:102D1000550230915602CB01BA01602771278227F4
:102D20009327DFCF1F70DD2029F0812F0E9433070A
:102D3000802FC3CE802F0E944106812F0E94F8066B
:102D400074CE802F52EF851609F450C0581578F0D4
:102D500090EF891619F1E1EF8E1609F43FC0DD20DE
:102D600009F467C0A11045CE812F8F713CC0F3EFED
:102D70008F1609F440C024EF8212F1CFDD2009F450
:102D80004DC01F71812F0E94330758E0159FC0016D
:102D9000112483608093E501812F25C0DD20C9F0D7
:102DA00034E03A1508F441CE1F7161E070E080E034
:102DB00090E004C0660F771F881F991F1A95D2F7FD
:102DC0000091530210915402209155023091560205
:102DD000A4CF45E04A1508F428CEE6CF812F8F71A5
:102DE000DD2009F4ABCF0E9433071FCE812F8F71F6
:102DF000DD20C9F3A3CF60E070E0CB01DD2009F452
:102E000070CF1F7161E070E080E090E004C0660F59
:102E1000771F881F991F1A95D2F763CF81E00E9410
:102E20001B0781E08A1508F000CE82E00E941B0794
:102E3000FCCDAA2059F0893309F073CE9FEFE7EE5D
:102E4000F3E09150E040F040E1F769CE812F8F71BF
:102E500075CF0031FFE51F0709F433CC01312FE5B1
:102E6000120709F438CC033F2CE5120709F490CC83
:102E700008F033CC083D4CE5140709F485CC093D36
:102E80005CE5150709F494CC073D9CE5190709F0AA
:102E900030CC26E241EE61EEC7010E94741094CB63
:102EA00000313FE5130709F412CC01314FE5140757
:102EB000D1F682E00DCC85E0DE01119601900D92F5
:102EC0008A95E1F7F701228189819A81211157CBF7
:102ED0000E94E005182F5BCB06311C4599F48091C8
:102EE0008D0169E2811165E386E691E00E94360575
:102EF0004FCD01152CE5120709F44DCD0E3D1C45B3
:102F000009F456CDF70100811181882309F453CDCE
:102F1000C8010E94970BD82E682FC8010E9409068D
:102F2000B8018D2D0E940D0A8C01882EF701D280E8
:102F3000A580A2943FE0A3228091E5018770A1F0D3
:102F4000CD2CDD2091F0812F807F803421F080E234
:102F5000800F883048F082E00E941B078091E501D5
:102F60008770CC24C3948111C12CB12EB2942FE070
:102F7000B222FBE0FB1508F458CDEB2DF0E0E5594B
:102F8000FE4D0C94DE201F93CF93DF93809194012C
:102F9000807FA9F480919101882389F08091C601F6
:102FA000D091950160918F0170919001A091920153
:102FB000B0919301C62FC72316E0D81304C0DF9148
:102FC000CF911F91089590E0109711F0CF3F19F421
:102FD00001968770F2CF189F9001199F300D112430
:102FE000F901EA56FE4F41814713F2CF4081461363
:102FF000EFCF42814111ECCF438154814A1B5B0BDF
:10300000483C510528F7809194018F70806180932E
:103010009401F901E556FE4F80818F7080618083B5
:103020008FE891E00E948812DF91CF911F910C945C
:103030003706AF92BF92CF92DF92EF92FF920F933B
:103040001F93CF93DF93CDB7DEB761970FB6F89498
:10305000DEBF0FBECDBF8C0185E0F801DE011D96FD
:1030600001900D928A95E1F7F80180819181E280CB
:103070002FE8A22E21E0B22E60919201709193016F
:103080006115710509F43EC130918F0140919001A5
:10309000232F24232F3F09F435C1C380D480F0901F
:1030A0009101F601E61BF70BFF2009F4FBC020910C
:1030B0009401522F507FE83CF10508F0BBC051113C
:1030C00078C0FE2C491321C038131FC0E1101DC069
:1030D0002F70206120939401C5010E948812809175
:1030E0009401F80185838F2D61960FB6F894DEBFA9
:1030F0000FBECDBFDF91CF911F910F91FF90EF9049
:10310000DF90CF90BF90AF900895CD2829F0282F61
:1031100029232F3F09F014C120E0F22FF170DF2E98
:1031200020FF3DC02091C6014091950156E0241337
:1031300015C08D879E878D859E850E94D90B292F6E
:1031400022952F702230F8F0243020F59F70F9F08E
:10315000F8019581907FD9F4D12C1FC030E0529FA7
:10316000F001539FF00D1124EA56FE4F6181961332
:1031700006C06081861303C06281E61210C02F5F13
:103180003F4F2770D4CF9F7011F0882329F3805EC2
:10319000883010F3C8010E948812FD2CA4CFEE20C5
:1031A00009F4A1CF80919401816080939401F12C66
:1031B0009ACF491312C0381310C0E1100EC0F801A5
:1031C0002583C8010E94881286E0F801AFE8B1E0CB
:1031D00001900D928A95E1F786CF8D879E878D8528
:1031E0009E850E94E30B882309F1EE20F9F080917F
:1031F0009401803270F020918F01309190013887D6
:103200002F831986DB86CA868C87CE0107960E949B
:10321000881286E0F801AFE8B1E001900D928A953E
:10322000E1F70E94C317FF24F3945DCFC8010E9409
:103230008812F9CF51110AC08FE891E00E948812DC
:1032400086E0F50111928A95E9F7B1CF49130FC0D5
:1032500038130DC0E1100BC0F8012583C8010E948E
:10326000881286E0F50111928A95E9F73CCF8D87A7
:103270009E878D859E850E94E30B8823B9F2EE2000
:10328000A9F280919401803220F220918F01309137
:1032900090013A8329831B82DD82CC828E83CE010A
:1032A0000196B5CFE83CF105E0F6FE2CEE2009F4DE
:1032B000BDCF491316C0381314C08091940180FD0E
:1032C00083CF982F907F09F47FCFF8018583903FBB
:1032D00009F477CF982F907F905F8F70892B85832B
:1032E00070CF8D879E878D859E850E94E30B81110F
:1032F00090CF80919401816080939401C8010E94D5
:103300008812F1CEEE2009F491CF8D879E878D85AE
:103310009E850E94E30BF82E882309F487CF86E070
:10332000F801AFE8B1E001900D928A95E1F7809144
:103330008F01909190010E94D90B0E94C317D3CEA8
:1033400021E02E25EACE1F93CF93DF93CDB7DEB7D2
:1033500067970FB6F894DEBF0FBECDBF342F4B8BEF
:10336000252F5C8B6D8B7E8B8F8B8E899F89611156
:103370001092E7011A8A198A3D872E876F87998BE9
:10338000888B86E0FE013D96DE01179601900D9236
:103390008A95E1F7CE0107960E941918882389F0D3
:1033A00016E08091C60190919501891349C06796F6
:1033B0000FB6F894DEBF0FBECDBFDF91CF911F9146
:1033C000089586E0FE013796DE01119601900D9278
:1033D0008A95E1F78A859B85892B11F38F819885E2
:1033E00089238F3FE9F22091950130E0C9010196D0
:1033F000877099274091C6014817190671F40E94F9
:10340000D50C109295011092C60186E0EFE8F1E02C
:10341000DF011D928A95E9F7C3CF96E0929FD00114
:10342000939FB00D1124AA56BE4FFE013196019014
:103430000D929A95E1F7809395010E943706B0CFDF
:10344000819FC00111248A569E4F0E94191888231B
:1034500009F4ADCF8091C60190E00196877099275D
:103460008093C6019ECF1F920F920FB60F92112428
:103470002F933F934F935F936F937F938F939F937C
:10348000AF93BF93CF93DF93EF93FF93D091E90076
:10349000DF708091EC00C82FC17080FDC0E81092F1
:1034A000E9008091F000877F8093F00078940E947B
:1034B000EA0C1092E9008091F00088608093F0009F
:1034C000CD2BCF70C093E900FF91EF91DF91CF91A9
:1034D000BF91AF919F918F917F916F915F914F912C
:1034E0003F912F910F900FBE0F901F9018951F9234
:1034F0000F920FB60F9211242F933F934F935F9328
:103500006F937F938F939F93AF93BF93EF93FF93AB
:103510008091E10082FF09C08091E20082FF05C036
:103520008091E1008B7F8093E1008091DA0080FF41
:1035300024C08091D80080FF20C08091DA008E7F67
:103540008093DA008091D90080FF9BC080E189BD23
:1035500082E189BD09B400FEFDCF81E0809346027F
:1035600080912102811109C00E947B030E944604C0
:103570008091E20084608093E2008091E10080FF0E
:1035800017C08091E20080FF13C08091E2008E7F1F
:103590008093E2008091E20080618093E20080915C
:1035A000D80080628093D80019BC85E080934602E1
:1035B0008091E10084FF29C08091E20084FF25C052
:1035C00080E189BD82E189BD89B5982F917080FF26
:1035D000FBCF8091D8008F7D8093D8008091E1004F
:1035E0008F7E8093E1008091E2008F7E8093E200E5
:1035F0008091E20081608093E200809147028823FD
:1036000009F445C084E0809346028091E10083FF85
:1036100027C08091E20083FF23C08091E100877F73
:103620008093E10082E080934602109247028091ED
:10363000E1008E7F8093E1008091E2008E7F809395
:10364000E2008091E20080618093E20042E060E06D
:1036500080E00E9414048091F00088608093F00064
:10366000FF91EF91BF91AF919F918F917F916F915A
:103670005F914F913F912F910F900FBE0F901F9030
:10368000189519BC109246021092210276CF8091B3
:10369000E30087FD93E090934602B7CFCDB7DEB746
:1036A000E2970FB6F894DEBF0FBECDBF84B7877F19
:1036B00084BF0FB6F894A8958091600088618093CC
:1036C0006000109260000FBE80E890E00FB6F894A2
:1036D00080936100909361000FBE85B7806885BFBD
:1036E00085B7806885BF85E095E0909365018093FC
:1036F00064010E947B030E9446048091E200846082
:103700008093E2007894809146028823A1F0109182
:10371000E9001F709091EC00892F817090FD80E886
:10372000182B1092E9008091E80083FD0E94EA0CBA
:103730001F701093E90082E084BD93E095BD9AEF7D
:1037400097BD80936E0006E411E0EEE4EE2EE1E01A
:10375000FE2EF80181918F010E943A09E016F106D0
:10376000C1F784EF0E943A0985EF0E943A0986EF7B
:103770000E943A0987EF0E943A0981E30E943A09C0
:1037800083E30E943A09EEEEF1E086EF91E0A3E1D7
:10379000B2E011921D928E179F07D9F70E94D810A0
:1037A000FFEF26E741E0F15020404040E1F700C044
:1037B00000000E94D8108091130280FF17C06FEFA5
:1037C00082E290E00E941D216FEF83E290E00E9470
:1037D0001D216FEF84E290E00E941D216FEF7FEFCB
:1037E00090E080E00E943B210E940A0590E080E08A
:1037F0000E9417218B3E9E4F11F00E941E1282E202
:1038000090E00E940F21883209F04DC483E290E0DD
:103810000E940F21823209F046C484E290E00E94A7
:103820000F218E3809F03FC490E080E00E941721FC
:103830008B3E9E4F11F00E941E1282E090E00E948B
:103840000F21809308020E9494099093F7018093BE
:10385000F60183E090E00E940F21682F70E090E075
:1038600080E00E94540782E091E09093F9018093F8
:10387000F80108E110E060E4E62E83E192E078E0F0
:10388000F72EF80E8091460240E1C42E52E1D52E6B
:10389000853009F47CC10E94D810882359F08FB775
:1038A000F89440911B0250911C0260911D0270918E
:1038B0001E028FBFA9E0B2E0E3E1F2E0D12CC12CFF
:1038C0003C2D81919D91981709F470C1292F2827CB
:1038D00090E0BB24B3944B2D422309F462C199A715
:1038E0003AA78B2191E009F490E09BA70E942A055A
:1038F0008160782F9DA78CA749A55AA56BA58DA59A
:103900000E94A319F601E75FFD4F8081B826B082BF
:1039100086E0E1E0F2E0DE01119601900D928A95D9
:10392000E1F7B0900302A0900402D0900502C0908D
:1039300006021092030210920402109205021092E5
:1039400006028B2D8A2909F448C08091FF019091CD
:1039500000020E941B059C019091FE01992309F42D
:10396000C9C323333105C8F19F3F19F09F5F90937E
:10397000FE01BB2059F00E943C089FEF1B140CF481
:1039800091E0899F802D112480930302AA2059F091
:103990000E943C089FEF1A140CF491E0899F802D3F
:1039A000112480930402309103023323B1F020915B
:1039B0000402222391F045EB3403C0011124992322
:1039C00009F40DC19093030245EB240390011124E7
:1039D000332309F408C1309304028D2D8C2909F496
:1039E00048C08091FC019091FD010E941B059C0143
:1039F0009091FB01992309F478C325363105C8F16C
:103A00009F3F19F09F5F9093FB01DD2059F00E94CA
:103A10001A089FEF1D140CF491E0899F802D11244A
:103A200080930502CC2059F00E941A089FEF1C14C5
:103A30000CF491E0899F802D11248093060230912F
:103A400005023323B1F020910602222391F045EBC9
:103A50003403C0011124992309F4C9C090930502CD
:103A600045EB240390011124332309F4C4C030939F
:103A700006028091030290910402892B9091050225
:103A8000892B90910602892B11F00E948E0686E008
:103A9000FE013196A1E0B2E001900D928A95E1F726
:103AA0000E94820690910702891721F00E948206E7
:103AB0008093070280914602843009F0E3CE83E0D0
:103AC0008093E9008091E80082FFDCCE8091E800DD
:103AD00090E085FF06C00E949A03882309F48FC0F6
:103AE00091E08091E8008B778093E800992309F4B6
:103AF000C9CEC0901F02D09020028981C114D10488
:103B000009F49BC08E3F09F0E5C08A81833020F024
:103B10008550833008F0DEC0EA81E83008F0DAC072
:103B2000F0E0E958FE4D0C94DE208091460284308E
:103B300009F11092FA010FB6F894A895009360006D
:103B40000FBEE092600083B7817F846083BF83B73C
:103B5000816083BF7894889583B78E7F83BF0FB6CB
:103B6000F894A8958091600088618093600010921D
:103B700060000FBE80914502882349F00E94D81052
:103B8000E3E1F2E08191811178C2FE12FBCF8091D6
:103B90004602853009F4C9CF0E94D50C0E948206E6
:103BA0007ACE9F5FBB0C963009F095CE2FEFC21AEC
:103BB000D20A48E0C416D10409F082CE8FEF8EA756
:103BC0008FA718AA0E942A058160782F9AAB89AB2B
:103BD0004EA55FA568A98AA90E94A31999CE81E084
:103BE00080930302F1CE81E080930402F6CE81E05F
:103BF0008093050235CF81E0809306023ACF30E210
:103C0000C32ED12CCE0101965C018091E80085FD88
:103C10000AC08091E8008B778093E8000E949A03A5
:103C2000882399F35DCF8091F100F50181935F01C5
:103C3000F1E0CF1AD10849F753CF8D3009F4BBC05A
:103C4000B8F4843009F49EC048F4823049F108F099
:103C50008AC0813009F18FEF89833CC0863009F436
:103C6000A7C008F49AC08C30B1F780E18A8332C0D3
:103C7000813109F400C140F48F3009F4CCC008F45C
:103C80009EC00E94070C26C0833109F421C108F4AC
:103C9000F4C08E3F01F740CF1A8289E08B831AC0AF
:103CA0008A81823009F418C2833009F43DC0813022
:103CB00091F62FB7F89460911B0270911C028091CD
:103CC0001D0290911E022FBF0E94E4206B837C8313
:103CD0008D839E8380914602843009F0D3CDD090AD
:103CE000E9002D2D2F70D22E9091EC00892F81703C
:103CF00090FD80E8D82A82E08093E9008091E80076
:103D000080FF0DC050E040E060E270E0CE0101961F
:103D10000E94CB038091E8008E778093E8008D2D80
:103D20008F708093E900AECD8091000190910101E8
:103D3000892B81F2809113028B83809114028C83F2
:103D4000809115028D83809116028E8380911702D7
:103D50008F838091180288878091190289878091CA
:103D60001A028A87B7CF8A81823009F074CF6B81BB
:103D70007C818D819E810E94E42085E290E00E94FA
:103D80001D21A8CF4C816B818A810E94CB09982785
:103D9000892798279E838D839DCF2D813E81322751
:103DA000232732274C816B818A810E94480C92CF55
:103DB0000E947D0C8FCF82E08A838AE46FCF8C8152
:103DC000882E912C2DE18216910408F083CFCA80B1
:103DD000DB80DC24CD24DC24CE0101965C01880E3E
:103DE000991EC6018A549E4FA814B90409F472CFD3
:103DF000FAE4CF16F2E0DF0658F40E940F21F50135
:103E00008483FFEFCF1ADF0A2FEFA21AB20AE9CF9D
:103E1000F5011482F6CF8091000190910101892B68
:103E200009F458CF8C81882E912C4DE18416910491
:103E300008F050CFCA80DB80DC24CD24DC24CE0106
:103E400001965C018C0C9D1CC6018A549E4FC814BF
:103E5000D90409F43FCFEAE4CE16E2E0DE0620F40E
:103E6000F50164810E941D21FFEFAF1ABF0A2FEFF9
:103E7000C21AD20AE9CF84E0F9CE8C81882E912C27
:103E80004DE18416910408F025CFCA80DB80DC2444
:103E9000CD24DC24CE0101965C01880E991EC6015A
:103EA00086968A149B0409F415CFF0E8CF16F1E04A
:103EB000DF0658F40E940F21F5018483FFEFCF1A2B
:103EC000DF0A2FEFA21AB20AEACFF5011482F6CF69
:103ED0008C81882E912C4DE18416910408F0FACE45
:103EE000CA80DB80DC24CD24DC2480E8C81681E095
:103EF000D80608F0EFCE20E831E02C193D0928154E
:103F0000390508F4E7CEFE0131965F018C0C9D1C4B
:103F1000C6018696C814D90409F4DCCEF0E8CF16A1
:103F2000F1E0DF0620F4F50164810E941D21FFEF1E
:103F3000AF1ABF0A2FEFC21AD20AEACF88E0EDE02B
:103F4000F1E0DE01919601900D928A95E1F783E010
:103F500089831A821B821C8288E0FE01B196DE01F1
:103F6000159601900D928A95E1F7B4CE8CEB89837A
:103F700081E08A831B821C82ADCE8C81682F70E029
:103F8000762F66278B81860F972F911D092E000CA7
:103F9000AA0BBB0B25E0880F991FAA1FBB1F2A95F0
:103FA000D1F7AC01BD01405E5F4F6F4F7F4F4817A7
:103FB00059076A077B0708F48DCE8C3BE1E09E072A
:103FC000A105B10508F086CE4D3BF1E05F07610524
:103FD000710520F04CEB51E060E070E0481B590B9C
:103FE000BC0166507C4FCE0101960E94FF2072CE2C
:103FF000DB80CC8040E06C2D8D2D0E94A20998279B
:10400000892798279A83898341E06C2D8D2D0E9402
:10401000A2099827892798279C838B835BCE2E81C2
:104020003F813227232732274D816C818B810E946B
:10403000170C50CE4EE150E06FEF70E0CE010396CA
:104040000E940821809100018983CA8243CE81E0C9
:1040500090E09093200280931F0282E390E090937F
:104060001202809311020E942A0534CE8091000131
:104070008983CA828091110211CEC9BCD9BC09B40E
:1040800000FEFDCF8091D8008F7D8093D800809175
:10409000E00082608093E0008091E00081FDFCCF31
:1040A0000E94D50C74CD60E085E290E00E941D2155
:1040B0000E947D0C0E94070C68E282E290E00E9460
:1040C0001D2162E283E290E00E941D216EE884E2FD
:1040D00090E00E941D21A8CB85E290E00E940F2174
:1040E0001B821C821D828E83F5CD2D32314008F05B
:1040F00089CCBFCC2D32314008F038CC6ECC7894CE
:104100001F921FB61F9211248F939F93AF93BF935B
:1041100080911B0290911C02A0911D02B0911E0281
:104120000196A11DB11D80931B0290931C02A093C8
:104130001D02B0931E02BF91AF919F918F911F906E
:104140001FBE1F9018951F921FB61F9211248F93A8
:104150009F93AF93BF938091FA01811113C0809117
:104160001B0290911C02A0911D02B0911E0241966B
:10417000A11DB11D80931B0290931C02A0931D02F0
:10418000B0931E02BF91AF919F918F911F901FBE60
:104190001F90189597FB072E16F4009407D077FD13
:1041A00009D00E94EB2007FC05D03EF49095819544
:1041B0009F4F0895709561957F4F0895EE0FFF1FF3
:1041C0000590F491E02D09946927962769277827AF
:1041D000872778270895AA1BBB1B51E107C0AA1F98
:1041E000BB1FA617B70710F0A61BB70B881F991F98
:1041F0005A95A9F780959095BC01CD010895FB01D2
:10420000DC0102C005900D9241505040D8F708954E
:10421000DC0101C06D9341505040E0F70895F999D9
:10422000FECF92BD81BDF89A992780B50895A8E187
:10423000B0E042E050E00C944321262FF999FECFE4
:1042400092BD81BDF89A019700B4021639F01FBAE9
:1042500020BD0FB6F894FA9AF99A0FBE0895039606
:10426000272F0E941E210E941D21252F0E941E2102
:10427000242F0C941E210196272F0E941E210C949E
:104280001D21DC01CB01FC01F999FECF06C0F2BD76
:10429000E1BDF89A319600B40D9241505040B8F704
:1042A0000895F894FFCFF20BF20BFB0BFB0BFD0B09
:1042B000FB0BFB0BFB0BF20BF20B020CFB0BFB0BD8
:1042C000020CCF0DF70D4A0EF70D4A0E2A0E620EA4
:1042D0004A0E6A0F770FE014E0143C153C15951553
:1042E000AF1515151515BC159216A116A1169E1F12
:0E42F000B61FBD1FF81F0F201A2027203620F2
:1042FE00010007051710F60FF20FEE0F015CBA4A18
:10430E00D2B6704DB8818283E200E900EA00B500B2
:10431E00B600B700CD008301CC008A019201940152
:10432E002102230224022502260227022A02B300BA
:10433E00B4006F0070009190946697C63435F4F512
:10434E00F6F731334022BC8A016801AC00C805E1A2
:04435E00050106004F
:00000001FF
