:100000000C949E050C94E5050C94E5050C94E5050F
:100010000C94E5050C94E5050C94E5050C94E505B8
:100020000C94E5050C94E5050C94DF230C949B23BC
:100030000C94C82B0C94E5050C94E5050C94E5058F
:100040000C94E5050C94E5050C94E5050C94E50588
:100050000C94EF2B0C94A42B0C94E5050C94E50563
:100060000C94E5050C94E5050C94E5050C94E50568
:100070000C94E5050C94E5050C94E5050C94E50558
:100080000C94E5050C94E5050C94E5050C94E50548
:100090000C94E5050C94E5050C94E5050C94E50538
:1000A0000C94E5050C94E5050C94E50505010902A1
:1000B000A10185020901A100050919012905150001
:1000C00025019505750181029501750381010501E1
:1000D000093009311581257F950275088106093897
:1000E0001581257F950175088106050C0A380215D2
:1000F00081257F950175088106C0C005010980A191
:1001000001850319012AB700150126B7009501756D
:10011000108100C0050C0901A101850419012AA064
:1001200002150126A002950175108100C00660FF2E
:100130000961A1010962150026FF0095207508815B
:10014000020963150026FF00952075089102C0057D
:10015000010906A101050719E029E7150025019508
:1001600008750181029501750881010507190029AB
:10017000FF150026FF009506750881000508190186
:100180002905950575019102950175039101C0003E
:10019000000000000000000000000000000000005F
:1001A000000000000000000000000000000000004F
:1001B0000000007E0F00D4FFFFFFC70000007800A2
:1001C000000000000000002A2B28000000000000B2
:1001D0000000000000000000000029000000002CCA
:1001E0001E3420212224342627252E362D37382769
:1001F0001E1F202122232425263333362E37381F75
:100200000405060708090A0B0C0D0E0F1011121336
:100210001415161718191A1B1C1D2F3130232D35D4
:100220000405060708090A0B0C0D0E0F1011121316
:100230001415161718191A1B1C1D2F3130354C00B8
:100240000101010101010101010202020202020297
:10025000020203030303030303030404040404046A
:100260000405050505050606060606070707070730
:1002700008080808090909090A0A0A0B0B0B0C0CE3
:100280000C0D0D0D0E0E0E0F0F0F1010111111127F
:100290001213131414151516161717181819191AFE
:1002A0001A1B1B1C1D1D1E1E1F2020212222232461
:1002B00024252626272829292A2B2C2D2D2E2F30A0
:1002C000313232333435363738393A3B3C3D3E3FB4
:1002D000404142434445464748494A4C4D4E4F50A1
:1002E000515354555658595A5B5D5E5F616264655F
:1002F0006668696B6C6D6F7072737577787A7B7DE9
:100300007E8082838587888A8C8E8F91939596983C
:100310009A9C9EA0A2A3A5A7A9ABADAFB1B3B5B758
:10032000BABCBEC0C2C4C6C9CBCDCFD1D4D6D8DB2F
:10033000DDDFE2E4E7E9EBEEF0F3F5F8FAFDFFFFCD
:10034000AA7F55402223252628292A2C2D2F3032FA
:10035000333536383A3B3D3E4042434547494A4CA7
:100360004E5051535557595A5C5E606264666869D5
:100370006B6D6F71737577797B7D7F8183858789DD
:100380008A8C8E90929496989A9C9E9FA1A3A5A7E2
:10039000A8AAACAEAFB1B3B4B6B8B9BBBCBEBFC10E
:1003A000C2C3C5C6C7C9CACBCCCDCED0D1D2D2D399
:1003B000D4D5D6D7D7D8D9D9DADADBDBDBDCDCDCAD
:1003C000DCDCDDDDDDDDDCDCDCDCDCDBDBDBDADA70
:1003D000D9D9D8D7D7D6D5D4D3D2D2D1D0CECDCCE7
:1003E000CBCAC9C7C6C5C3C2C1BFBEBCBBB9B8B6FC
:1003F000B4B3B1AFAEACAAA8A7A5A3A19F9E9C9A87
:1004000098969492908E8C8A89878583817F7D7B54
:1004100079777573716F6D6B6968666462605E5C35
:100420005A5957555351504E4C4A494745434240FB
:100430003E3D3B3A3836353332302F2D2C2A292891
:10044000262523220000000000000000000000011B
:10045000010203040506080A0C0F1114181C2024BD
:10046000292E33393F464C535B626A7179818A92F7
:100470009AA2AAB2B9C1C8CFD5DCE1E7EBF0F4F794
:10048000FAFCFDFEFFFEFDFCFAF7F4F0EBE7E1DC21
:10049000D5CFC8C1B9B2AAA29A928A8179716A628B
:1004A0005B534C463F39332E2924201C1814110F5E
:1004B0000C0A080605040302010100000000000008
:1004C0000000000029003A003B003C003D003E00D7
:1004D0003F00400041004200430044004500460008
:1004E00048004C0035001E001F00200021002200A3
:1004F000230024002500260027002D002E002A00BE
:100500002A004A002B00000014001A000800150001
:1005100017001C0018000C00120013002F00300000
:1005200031004B00390000000400160007000900EC
:100530000A000B000D000E000F00330034003200E3
:1005400028004E00E10064001D001B000600190099
:10055000050011001000360037003800E5000000EB
:1005600052004D00E000E300E20000002C0000001B
:100570002C0000002C000000E6000151000050009B
:1005800051004F00010001000100010001000100C5
:100590000100010001000100010001000100010053
:1005A0000100010001000100010001000100010043
:1005B0000100010001000100010001000100010033
:1005C0000100C25C01000000010001000100005CAC
:1005D0000100010001000100010001000100010013
:1005E0000100C35C010000000100010001000100E6
:1005F00001000100010001000100010001000100F3
:1006000001000100010001000100010001000100E2
:1006100001000100010001000100010001000000D3
:1006200001000100010001000100000001000000C4
:1006300001000000010000000100010000000100B5
:1006400001000100010001000100010001000100A2
:100650000100010001000100010001000100010092
:100660000100010001000100010001000100010082
:100670000100010001000100010001000100010072
:100680000100010001000000010001000100010063
:100690000100010001000100010001000100010052
:1006A0000100010001000000010001000100010043
:1006B0000100010001000100010001000100010032
:1006C0000100010001000100010001000100010022
:1006D0000100010001000100010001000100000013
:1006E0000100010001000100010000000100000004
:1006F00001000000010000000100010000000100F5
:1007000001000100010001000100010001000100E1
:1007100001000100010001000100010001000100D1
:1007200001000100010001000100010001000100C1
:1007300001000100010001000100010001000100B1
:1007400001000100010000000100010001000100A2
:100750000100010001000100010001000100010091
:100760000100010001000000010001000100010082
:100770000100010001000100010001000100010071
:100780000100010001000100010001000100010061
:100790000100010001000100010001000100000052
:1007A0000100010001000100010000000100000043
:1007B0000100000001000000010001000000010034
:1007C000010001001E0F0500047F3F1F6432146406
:1007D0003214783C1E1E140A05FD377A585A000060
:1007E00004E6D6B4460200210116000000742FE58D
:1007F000A3E0092002595D003D8889C65436C3171D
:100800004FE4F2B9143C02DDC4EC6A68ACC9D93FCC
:1008100030231138AE12F81E9ED9A41F2B346177F5
:100820005194A4CFFEAEDD372316D3DC4DBBCA787E
:10083000CA6E9DC78B75A89C20A741D152656CB626
:10084000B2DDBF661D9C4E5707B7C19B7435CCF80F
:100850009FE8C5C4131483065AF2D4850E95563901
:10086000FE0DE902B74AAFF87CF0BC728B195F9EAF
:100870001F5E99379DB515BB5CF0034DFE91C560B9
:1008800090C92767A16E7A5772AD6DEB4C92D35A1F
:10089000382DD6889760C852E6F101D7B44478E87D
:1008A000E19AAEF65E5531A3CDD3A8663C8F30DE1B
:1008B000F824169B59D9D4F2ECF1A448EEA59DC9B1
:1008C000C8FB98B5775678EED061846A36F890D038
:1008D0006F5FD2D702CFC7B88E3051367B1302E09C
:1008E0000CDF77527087F422C0FC5BE9299B5383AD
:1008F0000C8DD42BA8E7B208BACD7BF3B86A5A2D79
:100900006DB3B9261F744A74947C2AF5D42036320C
:1009100043D22EA4C9F82F0FC0AA3917AF9998E077
:100920008425928997D68FEE89113E142D2E7BF661
:100930000B64AF69EA196037B9552CBA58D5E0F4A1
:100940005BF06FAFF58E7457C1C0AB429E6B02C8AF
:10095000E1A8D5EB8D0C0E68AA7E16CEBC148032B1
:10096000790027D771C46130945E298F1FC5B860A4
:100970006634BD025DE7694A2FE45978B8AEC34AD0
:100980003023762DE3C371C65E17BE0D76CE59F3C4
:10099000337E392904880B437781CD8849A0B2E999
:1009A000B80E4C3F004002FFD96F8D8D03D84544EF
:1009B00016EBF8AB0937F5CF53C76548EABAD874D8
:1009C000F9DB84F25D50452B6951B18A8C17196BA4
:1009D000D3C8528323B2F70128D92651575CC426C5
:1009E000CCBE4FA8AD955A9B88035A12D8AB130FB3
:1009F000FE7274725143C76F6766988688CA42CC8C
:100A0000D6DECD005F6EBB38B9B9D70946A1F64630
:100A100074FF79BC67FDBF56F87A4D4D9DAE36F632
:100A2000FEDE4B59CC40F8B89F575711317DFEE69A
:100A3000CD806568C36439927D105081C95EEB48F2
:100A40008735C31FCE01906C82729937C166B2D8C8
:100A5000E200000000E7E1D84EBD22A1290001F527
:100A600004A1120000C9F3FF99B1C467FB020000A2
:100A7000000004595A09025B00030100A0FA0904AE
:100A800000000103010100092111010001224000C1
:100A90000705810308000A090401000203000000A1
:100AA0000921110100012222000705820320000113
:100AB00007050303200001090402000103000000F0
:100AC0000921110100012281000705840320000A89
:100AD0001201100100000008D8049AEC0100010284
:100AE00003011C037600690061006C003A00660097
:100AF00036003400630032006200330063000000FF
:100B000014036800370035005F00730069006E0051
:100B10006700610000002003530069006E00670059
:100B2000610020004B006500790062006F006100E9
:100B300072006400730000000403090411241FBE46
:100B4000CFEFDAE0DEBFCDBF04B603FE27C0809151
:100B50005C0390915D03A0915E03B0915F038730C9
:100B6000904BA740B04BD1F410925C0310925D0300
:100B700010925E0310925F0314BE84B7877F84BF18
:100B80000FB6F894A895809160008861809360000A
:100B9000109260000FBEE0E0F8E3099523E0A8EAB8
:100BA000B1E001C01D92AC35B207E1F711E0A0E061
:100BB000B1E0EEE4FCE502C005900D92A83AB10761
:100BC000D9F70E94B6240C94E62D0C940000E8EDB1
:100BD000F0E080818E7F80831092E2001092DA0034
:100BE0001092E100A0EEB0E08C9181608C93808146
:100BF0008F77808319BCA7EDB0E08C918E7F8C93AA
:100C000080818F7E808310923E0308952091E400BE
:100C10003091E50095E6A9012091EC00822F8170CA
:100C200020FF06C08091E80080FF06C080E00895A4
:100C30002091E80022FD1AC080914B03882389F09F
:100C4000853089F08091EB0085FD0FC02091E40094
:100C50003091E50042175307F9F29150E1F684E034
:100C6000089582E0089583E0089581E00895EF9269
:100C7000FF920F931F93CF937C018B010E94060676
:100C8000C82F811117C08091E80085FD0BC08091AD
:100C9000E8008E778093E8000E940606882399F387
:100CA000C82F08C0F70181917F018093F1000150A6
:100CB000110949F78C2FCF911F910F91FF90EF9061
:100CC000089580914D0387FF13C08091E80082FF53
:100CD00006C08091E8008B778093E80004C0809183
:100CE0004B038111F2CF089580914B038823D9F3F0
:100CF0008091E80080FFF8CF8091E8008E77ECCFFC
:100D0000982F9093E900242F762F50E0891731F027
:100D10007091EC002091ED005091F00021FD07C092
:100D20009F5F973071F78093E90081E008953091DB
:100D3000EB003E7F3093EB003091ED003D7F309330
:100D4000ED003091EB0031603093EB007093EC00DC
:100D50002093ED005093F0002091EE0027FDE0CFAE
:100D600080E00895CF92DF92EF92FF920F931F934E
:100D7000CF93DF93C8EDD0E088818F7E8883E7ED45
:100D8000F0E080818160808384E082BF81E0809395
:100D90003E0388818E7F888302EE10E0F801108286
:100DA0001092DA0081EEC82ED12CF60110828881D3
:100DB0008F77888388818068888388818F7D888306
:100DC00019BC10924B0310924C0310924A031092DC
:100DD000490390EEE92EF12CF70180818B7F80830F
:100DE00088818160888342E060E080E00E94800624
:100DF000F60180818E7F8083F8018081816080830D
:100E0000808188608083F70180818E7F80838881E4
:100E100080618883DF91CF911F910F91FF90EF90B8
:100E2000DF90CF900895FC0180915303909154037B
:100E300086179707A0F06115710529F49091E800D5
:100E40009E779093E80090E06115710551F491113F
:100E500008C08091E80082FF34C080E00895BC01A2
:100E6000F2CF80914B038823C1F18530C1F180918D
:100E7000E80083FD30C08091E80082FDEACF8091D8
:100E8000E80080FFE1CF8091F3002091F200382F3D
:100E90006115710519F02830310558F091E02830BE
:100EA000310509F090E02091E8002E772093E800CA
:100EB000CBCF81918093F100615071092F5F3F4F3B
:100EC000E7CF80914B03882341F0853041F080913A
:100ED000E80083FFBECF81E0089582E0089583E0BB
:100EE0000895089580E008958091400308959C013D
:100EF0004FB7F8948091380390913903A0913A0349
:100F0000B0913B034FBF821B930B08952FB7F8940A
:100F10008091380390913903A0913A03B0913B033B
:100F20002FBF08958091E60281111092E602089584
:100F30008091E5029091E402892B9091E302892B44
:100F40008093AA019091E602992391F0892B8093D6
:100F5000AA0120E08CEA91E0FC013191CF0131112E
:100F60002F5FF1E0823B9F07B9F721110E949207A2
:100F7000E091FD02F091FE02309731F00280F381A2
:100F8000E02D8AEA91E009940895ECEAF1E091916C
:100F9000891303C0DF0111971C9291E0E23BF9072E
:100FA000B1F70895ACEAB1E0EFEF90E02D91821730
:100FB00051F0EF3F19F4211101C0E92F9F5F9630E6
:100FC000A9F7EF3F09F408950E2E000CFF0BE6552C
:100FD000FE4F828308959295907F890F982F977086
:100FE00086958695869525E0829FF0011124EA5525
:100FF000FD4F50E040E080E0219130E0092E02C03A
:10100000369527950A94E2F721703327042E01C004
:10101000220F0A94EAF7822B4F5F5F4F453051054C
:1010200059F708959295907F890F982F977041E016
:1010300001C0440F9A95EAF786958695869595E0C6
:10104000899FF0011124EA55FD4F30E020E070E067
:101050005191DF011197CB01022E02C09695879521
:101060000A94E2F7817081958527842385278C93E4
:101070002F5F3F4F2530310559F708958091A50224
:1010800090917402981301C008958F5F8770FACF12
:10109000882341F080959091E50289238093E502B1
:1010A0000C9498070895882339F09091E502982BC5
:1010B0009093E5020C949807089520916A0230916C
:1010C0006B022817390771F090936B0280936A02C4
:1010D000E091FD02F091FE02309721F00084F1854D
:1010E000E02D099408952091680230916902281733
:1010F000390771F09093690280936802E091FD02D4
:10110000F091FE02309721F00680F781E02D0994DE
:101110000895E091FD02F091FE02309721F00190D8
:10112000F081E02D099480E00895CF92DF92EF9254
:10113000FF928C3724E1920750F469E070E00E943E
:101140007E2CCB01FF90EF90DF90CF900895B0E020
:10115000A0E0BC01CD016A50774D8F4F9F4F982F73
:10116000872F762F662725EF38E241E050E00E9476
:10117000B52D69017A01CA01B9010E94542C9B0165
:10118000AC01C701B6010E94542C672F782F892F1C
:1011900099276115710521E08207910591F66FEF9E
:1011A0007FEFCFCF8430E0F481111BC0909180009D
:1011B000977F909380002F98282F30E0AFEFBFEFFC
:1011C0000E94D72D23E030E040E050E00E94B52D92
:1011D000C9010E94950890938D0080938C0008951A
:1011E00083E090918000986090938000E5CF282F55
:1011F000220F220F220F909124039770922B90932D
:101200002403987F21E009F420E09091240320FB3F
:1012100090F9909324030C94D208FA01811101C033
:10122000FB01099480912703982F9E7F29F48170F8
:1012300082608093270308958635E8F38170846582
:10124000F8CFAF92BF92DF92EF92FF920F931F936E
:10125000CF93DF93082F162FE901E42FF0E0E15C34
:10126000FD4F611110C0E4915E2F4E2F4983E8833A
:101270005A83DF91CF911F910F91FF90EF90DF90F4
:10128000BF90AF900895E62EF12C4491D42EE42F18
:10129000F0E026E0829FC00111242FEF30E0B90179
:1012A0000E947E2C802F90E0880F991F55E5569F55
:1012B000D001579FB00D11248A1B9B0B982F990FBB
:1012C000890F5901AE18BF08AE9ED001AF9EB00D78
:1012D000BE9EB00D11245B2F189F80011124012F99
:1012E00011275901A01AB10AAE9E8001AF9E100DC0
:1012F000BE9E100D11245901A81AB108AE9CC00160
:10130000AF9C900DBE9C900D1124892F9927281B0E
:10131000390B2E9FC0012F9F900D3E9F900D1124E1
:10132000E92F62307105A1F050F46115710509F4DF
:101330009DCF6130710581F0EB2F512F97CF643035
:10134000710569F080F06630710509F48FCFF4CF34
:10135000E42F4B2F592F8ACFE42F412F87CFEB2F2C
:10136000542F492F83CF4B2F5D2DE12F7FCF0E942C
:1013700086079C019091100380911103982B21F016
:1013800030930D0320930C0390911203809113036B
:10139000982B21F030930A0320930903E091FD027A
:1013A000F091FE02309749F082E080930E030480B2
:1013B000F581E02D8EE093E00994089590E080E0BF
:1013C0000E94730890E080E00E945D081092E402A1
:1013D0001092E3020E94980786E0EEE0F3E0DF015E
:1013E0001D928A95E9F710920B0310920803109250
:1013F0006D020C94B709609358037093590380935E
:101400005A0390935B030C94DE090F931F93609132
:1014100058037091590380915A0390915B038B019B
:101420009C0106701127222733270630110521055C
:10143000310529F468601F910F910C94FB09677FB7
:10144000FACF0F931F9341E050E060E070E004C0DA
:10145000440F551F661F771F8A95D2F7CB01BA013B
:10146000609570958095909500915803109159035F
:1014700020915A0330915B036023712382239323CD
:101480001F910F910C94FB099091E20280958923A2
:101490008093E202282F277071F4282F082E000C69
:1014A000330B9217130639F08595859585950E9423
:1014B000210A1092E20208950F931F9341E050E039
:1014C00060E070E004C0440F551F661F771F8A95C7
:1014D000D2F78091580390915903A0915A03B0918B
:1014E0005B038A019B01082B192B2A2B3B2BC9017B
:1014F000B8011F910F910C94FB096093E702709360
:10150000E8028093E9029093EA020C94DE0990913C
:101510001003803F59F48091110387FF0DC0109292
:10152000110391110BC010920B0308C0813F81F48D
:101530008091110318169CF3992381F08091120376
:1015400090911303892B09F064C010920803089549
:10155000823F49F497FFF0CF10921003809111035E
:101560008111ECCFE0CF833F19F41916ACF3E4CF2F
:1015700020911203893F29F41216F4F610921203F7
:10158000DBCF8A3F19F427FFD7CFF8CF2091130381
:101590008B3F29F427FFD0CF10921303CDCF8C3F80
:1015A00019F41216CCF3C8CF843F31F480910F03A5
:1015B0008E7F80930F03C0CF853F21F480910F036E
:1015C0008D7FF7CF863F21F480910F038B7FF1CF82
:1015D000873F21F480910F03877FEBCF883F21F471
:1015E00080910F038F7EE5CF8D3F31F480916D02A6
:1015F0008E7F80936D02A0CF8E3F21F480916D028B
:101600008D7FF7CF8F3F09F097CF80916D028B7F51
:10161000F0CF0895882309F459C0823871F40E94EC
:10162000890881FF53C089E30E94D2070E9498076E
:1016300089E30E94C5070C949807833859F40E94E7
:10164000890880FF43C083E50E94D2070E94980763
:1016500083E5EFCF843859F40E94890882FF36C0B1
:1016600087E40E94D2070E94980787E4E2CF9CEFAC
:10167000980F913AF0F290E2980F983088F48770C2
:1016800021E030E0A90102C0440F551F8A95E2F71E
:10169000CA0180959091E50289238093E502CBCF22
:1016A0009BE5980F933020F490E080E00C94730851
:1016B00098E5980F973120F490E080E00C945D0855
:1016C000803F20F00E94870A0C94B709089580910A
:1016D0006D0280FD16C081FD16C082FD16C080918E
:1016E00008038823A1F0883280F428E0829FC0019B
:1016F000112468E270E00E94922C862F672B39F04B
:10170000089582E0089584E0089588E0089581E0D6
:10171000089580916D0280FD14C081FD14C082FD8A
:1017200016C080910B03882381F0843180F422E37A
:10173000829FC001112464E170E00E94922C862FE8
:1017400008958CE0089589E1089585E0089582E385
:101750000895803F31F40E94890B81958093110395
:101760000895813F19F40E94890BF8CF823F31F42C
:101770000E94890B8195809310030895833F19F48B
:101780000E94890BF8CF893F29F40E94670B809350
:10179000120308958A3F21F40E94670B8195F7CFC9
:1017A0008B3F31F40E94670B81958093130308955A
:1017B0008C3F19F40E94670BF8CF843F31F480917D
:1017C0000F03816080930F030895853F21F480917A
:1017D0000F038260F7CF863F21F480910F0384606E
:1017E000F1CF873F21F480910F038860EBCF883FD2
:1017F00021F480910F038061E5CF8D3F31F480911A
:101800006D02816080936D0208958E3F21F4809176
:101810006D028260F7CF8F3FB9F780916D028460CF
:10182000F1CFF894E82FE295EF70F0E031A1282F86
:101830002F7081E090E001C0880F2A95EAF7982F79
:101840009095932391A392A1892B82A378940895D4
:101850009091FA0292FF06C0282F28712830F9F4DF
:10186000877F846093FF06C0282F28712831F1F408
:10187000877E84612091FB0220FF06C0382F3871DB
:101880003830D9F4877F816021FF06C0282F287166
:101890002831D1F4877E816194FD877E0895282FB9
:1018A00024712430F9F68B7F8860DCCF282F2471D7
:1018B000243101F78B7E8861DDCF382F31713130D3
:1018C00019F78E7F8860E0CF282F2171213121F711
:1018D0008E7E8861E1CFCF9384E090E00E943B2D23
:1018E000C82F81E290E00E943B2D982F8C2FCF9142
:1018F00008950F931F93CF93DF93843030F56630B4
:1019000020F5403110F520E2629F8001112450E063
:10191000440F551F040F151F30EC839F000D111D40
:101920001124C80186960E943B2DC82FD0E0DC2FE1
:10193000CC27C80187960E943B2D9E01282BC90108
:10194000DF91CF911F910F91089590E080E0F8CF43
:10195000462F20913C0330913D03232B49F48430E2
:1019600038F4763028F4603118F4672F0C94790C31
:1019700090E080E00895CF93DF930E94A80CEC01E3
:1019800082389105A9F1D8F58133910509F496C003
:1019900048F58932910509F48AC08A9709F495C0FF
:1019A000C11521E5D20708F0BCC0C11530E5D30749
:1019B00008F014C1C83ED10508F09CC0C03ED10556
:1019C00060F5C83AD10508F087C0C53AD10508F0DE
:1019D000FDC0C130D10509F12097F9F0C430D1051F
:1019E000E0F440C08533910509F45AC0C997C1F6A7
:1019F0008091FA02837089F0C0EED0E00EC0833E81
:101A0000910599F170F4803E910501F1823E9105B6
:101A100039F68091FA0282FD21C0CE01DF91CF918B
:101A20000895863E910561F1873E910571F1843EEE
:101A3000910509F0B5CF8091FB0281FFEECF809137
:101A4000FA02C7EED0E084FD0DC0E7CF8091FA0224
:101A500080FD12C19091FB0290FFDFCFC3EED0E07A
:101A600084FFDBCFD0E0C0E0D8CF8091FA0282FDC6
:101A700006C19091FB0290FDBFCF84FFCECFF2CF85
:101A80008091FA0283FDDDCFC8CF8091FA0283FDF9
:101A9000F9C09091FB0291FFF0CFC4EED0E0BDCF32
:101AA0008091FA0285FFB9CFC9E2D0E0B6CF80912C
:101AB000FA0285FFB2CFC5E3D0E0AFCF8091FA0242
:101AC00086FFABCFCAE2D0E0A8CF8091FA0286FFB2
:101AD000A4CFC1E3D0E0A1CFCF3BD10518F6C85ABF
:101AE000D0E0CC0FDD1FCB5ADE4F0990D881C02D3E
:101AF000D46493CFC11540E2D40758F4C11581E0F6
:101B0000D80708F08ACFC03FD10508F4ABCFD06525
:101B100084CFC11590E4D90708F4A4CFDF70D06A50
:101B20007CCFC11525E5D20700F5C11534E5D307F3
:101B300008F08AC0C11543E5D40708F071C0C1158B
:101B400082E5D80708F467C0CE018370992721E0A9
:101B500030E002C0220F331F8A95E2F7C695C69582
:101B600080E2C89FE001112452C0C11599E5D90750
:101B7000A8F4C11528E5D20708F06BC0C11536E5F9
:101B8000D30708F06FCF8C2F0E94280CC82FD0E00D
:101B9000DC2FCC27CC27DF71D0623FCFC1154AE5BF
:101BA000D40708F45BC0CE0190568115904208F02E
:101BB00059CF8D2F8F710E94280C90E0982F882785
:101BC00088279F719C012C2BE901E6CFC55AD0E0F4
:101BD000CE5ADE4FC881D0E0D0641FCFCE01E4E002
:101BE00096958795EA95E1F783702C2F2695269593
:101BF000237040E2249F90011124382B8C2F837096
:101C0000C1E0D0E002C0CC0FDD1F8A95E2F7C22B05
:101C1000D32BDC6802CFDC2FCC27C16FD06AFDCE7E
:101C2000CE018370992721E030E002C0220F331FDC
:101C30008A95E2F7C695C69590E2C99FE001112406
:101C4000C22BD32BDA68E9CEDC2FCC27C46FD06A45
:101C5000E4CEDC2FCC27C06FD06ADFCE8C2F8F7004
:101C60000E94280C34E0D695C7953A95E1F7CF70DD
:101C70009C2FEC01D069D1CEC9E3D0E0CECEC2EE2C
:101C8000D0E0CBCEC6EED0E0C8CEBF92CF92DF92EE
:101C9000EF92FF920F931F93CF93DF938C01C0902D
:101CA0005803D0905903E0905A03F0905B03809161
:101CB000E7029091E802A091E902B091EA02C82AF5
:101CC000D92AEA2AFB2ACFE1D0E0BC2ED701C601EF
:101CD0000C2E04C0B695A795979587950A94D2F7D0
:101CE00080FD0EC0219788F7B12C8B2DDF91CF910D
:101CF0001F910F91FF90EF90DF90CF90BF900895CC
:101D0000B8018C2F0E94BB0C019761F3EECFCF93EB
:101D1000DF93EC010E94450EBE01DF91CF910C9440
:101D2000BB0C0E94870E292F2F7092959F709250A6
:101D30009E3078F4E92FF0E0E851F24D0C94A62C97
:101D4000803F19F020F4883E20F481E00895843F1C
:101D5000E1F380E00895883EC0F3813FD1F7F5CFED
:101D6000822F8695869586950895682F86E090E067
:101D70000C944F2D8091240381FF11C08D7F80939F
:101D800024030E94B50E80916F008E7F80936F00B8
:101D9000809124038695869586950C94D2080895A3
:101DA0008091240381FD10C08260809324030E94EF
:101DB000B50E1092ED021092EC021092EB0280919F
:101DC0006F00816080936F000895CF93DF93C6E228
:101DD000D3E060E0CE010E944F2D2196C11584E032
:101DE000D807B9F7DF91CF9108950F931F93CF9341
:101DF000DF938901843048F5663038F5403128F5A5
:101E000021153C4531F42091120130911301232B0F
:101E1000E1F090E2699FE001112450E0440F551F6A
:101E2000C40FD51F90EC899FC00DD11D1124612FC7
:101E3000CE0186960E944F2D602FCE018796DF91AE
:101E4000CF911F910F910C944F2DDF91CF911F9146
:101E50000F9108958F929F92AF92BF92CF92DF928F
:101E6000EF92FF921F93CF93DF9380901201909097
:101E7000130181E090E0909313018093120184ECB0
:101E8000C82E84E0D82ED0E07601C0E014C0F50161
:101E900025913491412F6C2F8D2F0E94F50E82E0F9
:101EA000A80EB11C1F5F103191F780E2E80EF11C03
:101EB000CF5FC63019F0570110E0E9CFDF5F80EC4B
:101EC000C80ED11CD43001F79092130180921201F8
:101ED000DF91CF911F91FF90EF90DF90CF90BF9057
:101EE000AF909F908F900895CF93DF9300D00F9283
:101EF000CDB7DEB790914B03943011F589837B8386
:101F00006A839093E9008FEF9091E800815095FDEE
:101F100006C095ED9A95F1F700008111F5CF8091FB
:101F2000E80085FF0DC050E040E063E070E0CE01C6
:101F300001960E9437068091E8008E778093E80032
:101F40000F900F900F90DF91CF910895BC0184E026
:101F50000C94740FBC0183E00C94740F9C0184E01A
:101F60008093E9009FEF8091E800915085FD06C0C5
:101F700085ED8A95F1F700009111F5CF8091E80089
:101F800085FF0CC050E040E066E070E0C9010E94AF
:101F900037068091E8008E778093E8000895CF930C
:101FA000DF93EC0181E08093E9008FEF9091E800EE
:101FB000815095FD06C095ED9A95F1F700008111CD
:101FC000F5CF8091E80085FF14C050E040E068E064
:101FD00070E0CE010E9437068091E8008E778093F2
:101FE000E80088E0FE01A1E4B3E001900D928A953B
:101FF000E1F7DF91CF91089581E08093E00080E2E6
:102000008093D8001092C9008FE19EE40197F1F708
:1020100000C0000087E090EBDC0180935C039093AC
:102020005D03A0935E03B0935F0388E19CE00FB66D
:10203000F894A895809360000FBE90936000FFCF46
:10204000CF93C82F882309F490C08238C1F40E942E
:10205000890881FD8AC089E30E94D2070E949807FF
:102060002FEF81EE94E0215080409040E1F700C0D6
:10207000000089E30E94C507CF910C94980783382C
:10208000A1F40E94890880FD70C083E50E94D207F8
:102090000E9498072FEF81EE94E0215080409040FD
:1020A000E1F700C0000083E5E5CF8438A1F40E9489
:1020B000890882FD5AC087E40E94D2070E949807CF
:1020C0002FEF81EE94E0215080409040E1F700C076
:1020D000000087E4CFCF8CEF8C0F813A68F4ECEAF4
:1020E000F1E08191C817D9F121E0E23BF207C9F78D
:1020F0008C2F0E94D207C0CF80E28C0F883068F40A
:10210000C77021E030E001C0220FCA95EAF7809144
:10211000E502822B8093E502AFCFEBE5EC0FE330D5
:1021200040F4F0E0EE5AFE4F808190E0CF910C94A5
:102130007308E8E5EC0FE73150F4F0E0EE0FFF1F15
:10214000EB5AFE4F80819181CF910C945D08C03F86
:1021500060F08C2F0E94A90BCF910C94B7098C2FA3
:102160000E94C5070E949807C3CFCF9108951F937F
:10217000CF93DF93182FD0E0C0E0893311F4C0E58E
:10218000D0E0812F0E942010209731F4812FDF9121
:10219000CF911F910C940A0B8FE99FE00197F1F703
:1021A00000C000002197F0CF0F931F93CF93DF93D0
:1021B000C62FD42F022FFC0182818823A1F06093C7
:1021C00057030E9486079093560380935503C77068
:1021D00081E001C0880FCA95EAF7DF91CF911F9186
:1021E0000F910C94530880915703681335C0809168
:1021F0005503909156030E947707883C910560F53E
:1022000010E21D0FCD17B9F080E28C0F883040F43A
:10221000C77081E001C0880FCA95EAF70E9448089C
:10222000183048F481E09D2F977001C0880F9A956F
:10223000EAF70E945308802F0E94B710183098F4D4
:10224000D77081E001C0880FDA95EAF7DF91CF916E
:102250001F910F910C944808C77081E001C0880F4E
:10226000CA95EAF7F3CFDF91CF911F910F910895AF
:102270008091270380FD0AC0E8EBF1E01182108213
:102280001282339651E0EA3FF507C1F7239A35B140
:10229000377F25B128604FB7F89488EB91E0FC01B7
:1022A0005191CF0168E025B9000000C057FF35B952
:1022B000550F000000C000C000C035B900C06A95CD
:1022C00091F7F1E08A3F9F0751F74FBF8FE594E008
:1022D0000197F1F700C000000895EF92FF921F935D
:1022E000CF93DF93EC0188EBE82E81E0F82E10E02D
:1022F0008C81970140912A0360912903810F0E94EC
:102300002109155F83E0E80EF11C123F89F70E9456
:1023100038119A818C8190FF08C08F5F8C83DF9188
:10232000CF911F91FF90EF9008958150F7CFBF920A
:10233000CF92DF92EF92FF920F931F93CF93DF9391
:10234000FC018281DD24DA9480FD02C0DD24D39477
:1023500008EB11E0D0E0C0E026E1B22EF8011182D6
:102360001082128294E0E92EF12CC12C8091B501EB
:102370008C0D87310CF43DC06B2D0E94702C892F81
:10238000082E000C990B8C179D0791F480912A035D
:102390008E9DA0018F9D500D112455954795559503
:1023A0004795980160912903809128030E94210993
:1023B000CD0CF1E0EF1AF108C9F621960D5F1F4F21
:1023C000C631D10559F60E9438118091B50191E0CE
:1023D000D91215C0811111C085E18093B501DF913B
:1023E000CF911F910F91FF90EF90DF90CF90BF9012
:1023F000089587FFC5CF8A5EC3CF8150EECF90E0AE
:102400000196BE010E94922CE8CF0F931F93CF93A9
:10241000DF93C8EBD1E0FE01118210821282339665
:1024200081E0EA3FF807C1F710E000E08091B601D3
:10243000082E000C990B081719078CF180911001D8
:10244000082E000C990B801791074CF19E014091CA
:102450002A0360912903809128030E9421090F5FBC
:102460001F4F23960631110509F70E9438118091FC
:102470000F019091B601980F9093B6012091100131
:10248000280F20931001121614F495311CF0819539
:1024900080930F01DF91CF911F910F9108951982C1
:1024A00018821A82DCCF8F929F92AF92BF92CF9206
:1024B000DF92EF92FF920F931F93CF93DF93EC0184
:1024C0004C81042F10E09801D8010E94D72D9B0168
:1024D000AC010E94A22D4B015C01E0E2F0E0E01BA8
:1024E000F10BA5E5B0E0AC019B010E94A22D6B01B0
:1024F0007C019F01DF010E94B32C9B01AC010E9473
:10250000AD2D9B01AC01280D391D4A1D5B1DC70176
:10251000B6010E94B52DF22E822F90E039E23F15D0
:10252000D8F143E0249F9001112435952795122F6F
:10253000109598EBC92E91E0D92E00E085E5E82EA4
:10254000EF188E2D01FD8F2D9601412F60912903EB
:102550000E9421090F5F53E0C50ED11C063189F797
:102560000E9438119C8181E0992319F0903219F46E
:102570008FEF8093110180911101890F8C83DF917E
:10258000CF911F910F91FF90EF90DF90CF90BF9070
:10259000AF909F908F90089525E530E0A901481BEA
:1025A000590BCA019A01220F331F280F391F37FF19
:1025B000BCCF2F5F3F4FB9CFEF92FF920F931F9386
:1025C000CF93DF938C01C8EBD1E0F12CE12CF80123
:1025D00094816091290380912803FBE0EF16F104B8
:1025E000FCF49923F9F09E0140912A030E942109ED
:1025F0002FEFE21AF20A239686E1E816F10439F782
:102600000E943811F801848190E001968170992729
:102610008483DF91CF911F910F91FF90EF900895E8
:10262000992309F39E0140E0E1CF9091270390FFA9
:102630000CC0E8EBF1E0818360834283339691E044
:10264000EA3FF907C1F70C94381108950F931F93CF
:10265000CF93DF9300D00F92CDB7DEB78C0180917E
:10266000B70181110AC09E012F5F3F4F4FEF6FEFFF
:102670000E9421098A818093B701F8016481613049
:1026800069F08091B70140E0662361F040E062307C
:1026900011F44091B70180E060E004C06091B7019F
:1026A00040E080E00E941513F801848190E00196DB
:1026B00063E070E00E94922C84830F900F900F9043
:1026C000DF91CF911F910F910895CF93DF9300D0A9
:1026D0000F92CDB7DEB79091270390FF0AC09E01FD
:1026E0002F5F3F4F0E9421094B8169818A810E949F
:1026F00015130F900F900F90DF91CF910895CF9306
:10270000DF93EC01EC81F0E0EC5BFC4F4491E7E2FD
:10271000F3E0628181810E9465138C818F5F8C83DD
:10272000DF91CF910895CF93DF93EC01E7E2F3E0DF
:10273000438162818C810E9465138C818F5F8C83C1
:10274000DF91CF910895AF92BF92CF92DF92EF9237
:10275000FF920F931F93CF93DF9303E811E0CEEE28
:10276000D2E0C12CD12CEE24E394F12CF80181911C
:102770008F01F894E82FE295EF70F0E021A18F70BF
:10278000A70102C0440F551F8A95E2F7CA01922F94
:10279000982B91A392A18095892382A3789400C05D
:1027A000E9E8F1E030E020E0B12CA12C4191A42F28
:1027B000A295AF70B0E090968C9190E04F7002C0FF
:1027C000959587954A95E2F780FD6FC0C701022E67
:1027D00002C0880F991F0A94E2F7A82AB92A2F5F2E
:1027E0003F4F2031310511F7F801319780810E9468
:1027F000110C55E0C51619F080EA8A95F1F7888129
:102800009981A816B90609F453C0B982A88281E05B
:10281000D82AC3942296E6E0CE12A8CFDD2009F490
:1028200049C081E08093B4010E9486079093B30170
:102830008093B2018091B2019091B3010E94770719
:102840000697E0F18091EE029091EF0290932D03B4
:1028500080932C038091F0029091F10290932F03CA
:1028600080932E038091F2029091F30290933103B2
:10287000809330038091F4029091F502909333039A
:10288000809332038091F6029091F7029093350382
:10289000809334038091F8029091F902909337036A
:1028A000809336031092B40109C090E080E095CF88
:1028B00080E0AECF8091B4018111BCCF8D2DDF912E
:1028C000CF911F910F91FF90EF90DF90CF90BF902D
:1028D000AF900895AF92BF92CF92DF92EF92FF92A6
:1028E0000F931F93CF93DF93EC018AE0A82E2881EA
:1028F000222309F48CC02130C9F599818A81913055
:1029000021F422960E94B71005C0923029F4229635
:102910000E9420102196EBCF933021F422960E9442
:102920000A0BF8CF943011F02196F4CF229630E0C4
:1029300020E0AE014F5F5F4F8053990B8A309105C5
:1029400050F02150310930F38FE99FE00197F1F702
:1029500000C00000F6CFA29EB001A39E700D11240E
:102960009C01260F371F8981EA01E3CFE22FF0E0B7
:10297000E154FE4FB490822F86958695869590E01F
:10298000FC01E155FE4FE4902770F12C022E02C0AD
:10299000F594E7940A94E2F731E0E322FF24FC0186
:1029A000E156FE4FC490D12C022E02C0D594C7949C
:1029B0000A94E2F731E0C322DD24FC01E157FE4F27
:1029C000049110E002C0159507952A95E2F7017071
:1029D0001127E114F10419F081EE0E942010C114B6
:1029E000D10419F086EE0E9420108B2D0E94B710A2
:1029F000CD2819F086EE0E940A0BEF2819F081EE1F
:102A00000E940A0B012B09F485CF8CE27BCFDF916A
:102A1000CF911F910F91FF90EF90DF90CF90BF90DB
:102A2000AF9008951092E502ECEAF1E086E0DF0154
:102A30001D928A95E9F70C94DE091F93CF93DF93DB
:102A4000CDB7DEB7AA970FB6F894DEBF0FBECDBFE5
:102A50008DE493E02091F100DC012D93CD01B3E0F2
:102A600085359B07B9F780914E03833009F471C017
:102A7000B8F4813009F448C0823009F4B2C08091C2
:102A8000E80083FF3AC180914D0390914E039A3044
:102A900008F033C1E92FF0E0EA50F24D0C94A62C77
:102AA0008A3009F48DC08B3009F470C0893039F751
:102AB00080914D03813219F7809151039091520317
:102AC000009711F00297D9F68091E800877F8093F4
:102AD000E8008091E80082FF37C09091F300809178
:102AE000F200029729F48091F1008B7F813021F46C
:102AF0008091F100809340038091E8008B77809370
:102B0000E8000E946106BBCF80914D03813A09F035
:102B1000B6CF8091E800877F8093E80080915103D1
:102B200090915203892B61F468E081E493E070E0B6
:102B30000E9413078091E8008B778093E8009FCF75
:102B400060E090E080E0F3CF80914B038111C1CF32
:102B500096CF80914D03813A09F091CF8091510336
:102B600090915203892B09F08ACF8091E800877FEA
:102B70008093E8008091E80080FFFCCF80911E01E7
:102B80008093F1008091E8008E77B9CF80914D035A
:102B9000813209F074CF8091510390915203892BB7
:102BA00009F06DCF8091E800877F8093E8000E9454
:102BB000610680914F0380931E010E9412155FCF22
:102BC00080914D03813209F05ACF8091E800877FD0
:102BD0008093E8000E9461068091500380933F0338
:102BE0004ECF80914D03813A09F049CF8091E800A2
:102BF000877F8093E8008091E80080FFFCCF809180
:102C00003F03BECF803899F0823809F076C08091BA
:102C100051038F70873008F070C08093E900809175
:102C2000EB0085FB882780F91092E90006C08091AF
:102C3000490390914A03911182609091E800977F37
:102C40009093E8008093F1001092F1008091E800E9
:102C50008E77C0C1882309F4ADC1823009F04DC020
:102C600080914F038111B1C1809151038F702FEF7B
:102C7000280F263008F041C08093E9002091EB0036
:102C800020FFA3C1933031F48091EB0080628093E8
:102C9000EB009BC19091EB0090619093EB0021E0E1
:102CA00030E001C0220F8A95EAF72093EA001092E3
:102CB000EA008091EB008860EACF81111EC010917C
:102CC0004F031F778091E3008078812B8093E3008E
:102CD0008091E800877F8093E8000E9461068091E0
:102CE000E80080FFFCCF8091E30080688093E300E0
:102CF00082E0111183E080934B038091E80083FF11
:102D00000AC08091E800877F8093E8008091EB0003
:102D100080628093EB00AA960FB6F894DEBF0FBED8
:102D2000CDBFDF91CF911F9108958058823028F751
:102D300020914F03309150032C3DE3E03E07A1F575
:102D400083E08A838AE289834FB7F894DE01139681
:102D500020E03EE051E2E32FF0E050935700E49191
:102D600020FF03C0E295EF703F5FEF708E2F90E081
:102D7000EA30C0F0C7968D939D932F5F243159F7A9
:102D80004FBF8091E800877F8093E8006AE270E09F
:102D9000CE0101960E9413078091E8008B77809303
:102DA000E800ABCFC096E7CF8091510390915203DA
:102DB000432F55274330510509F44AC078F5413077
:102DC000510509F485C08BE590E0E5E7FAE0423073
:102DD000510509F092CF2091E800277F2093E80069
:102DE00020915303309154038217930708F49C01F8
:102DF00040E02115310509F070C041116EC080918D
:102E0000E80082FDC9CF80914B03882329F28530E9
:102E100019F28091E80083FFF2CFBECF4132510515
:102E200009F447C04232510509F067CF833091055C
:102E300008F063CFFC01EE0FFF1FE456FE4F019038
:102E4000F081E02D87569E4FDC018C9190E01DC0F3
:102E5000332721303105E9F02115310579F0223091
:102E60003105F9F02330310509F047CFE2EEFAE001
:102E7000E4918E2F90E0E2EEFAE007C0E8E3FBE099
:102E8000E4918E2F90E0E8E3FBE0009709F435CF62
:102E9000A2CFE6E1FBE0E4918E2F90E0E6E1FBE0DB
:102EA000F4CFE0E0FBE0E4918E2F90E0E0E0FBE087
:102EB000ECCF8330910508F020CF880F991FFC01DB
:102EC000EE55FE4F0190F081E02D89E090E083CF38
:102ED00082E190E0E0EDFAE07ECF80914B03882321
:102EE00009F45ACF853009F457CF8091E80083FD6B
:102EF00053CF8091E80082FD82CF8091E80080FF6F
:102F000078CF9091F3008091F2002115310519F0EE
:102F10008830910550F041E0089709F040E0809139
:102F2000E8008E778093E80064CF44914093F100ED
:102F30003196215031090196E8CF803809F0DDCE75
:102F40008091E800877F8093E80080914C03809314
:102F5000F1007CCE8111D1CE10914F03123008F0D8
:102F6000CCCE8091E800877F8093E80010934C03DB
:102F70000E946106112311F084E005C08091E300F6
:102F800087FDFACF81E080934B0342E061EC81E062
:102F90000E94800642E261EC84E00E94800642E2E8
:102FA00061EC82E00E94800642E260EC83E00E94D5
:102FB0008006A3CE80914F03813009F09ECE81E040
:102FC000933009F080E080934A031092E9008091E9
:102FD000E800877F8093E8000E9461068ECE4F92C2
:102FE0005F926F927F928F929F92AF92BF92CF9299
:102FF000DF92EF92FF920F931F93CF93DF93FC0129
:103000006280448081E08483E4E4F3E07490E3EC44
:10301000F3E0E491CAEFD1E038EBE32E31E0F32E98
:1030200048E6C42E42E0D42E52E0A52EBB24B39431
:1030300088248A94912C55245A94E7190E2F10E075
:1030400082E0861530F080912803888380912903DF
:103050008983411021C01B821A8297014A816981AC
:1030600088810E942109259683E0E80EF11CCC1688
:10307000DD0631F7DF91CF911F910F91FF90EF9017
:10308000DF90CF90BF90AF909F908F907F906F9088
:103090005F904F900C9438118B818823E9F0815018
:1030A0008B83859DC00111246C8170E00E947E2C71
:1030B000FB01FF27EC5BFC4F8491E82FE719E59DAE
:1030C000C0011124B8010E947E2C80912A03689FC0
:1030D000B00111247A83C1CF0E940E2D20912A03C2
:1030E000269521582A9DA0012B9D500D1124452F76
:1030F0005527841795070CF0B0CF82E0861588F429
:103100000E940E2DB4010E94922C88830E940E2DE5
:10311000209129032695622F70E00E94922C280F9F
:1031200029831A8280912A03893C20F088EC8C83C1
:103130008B8393CF8431D8F784E1F9CF90E080E09E
:103140000E94492D21E08B3E9E4F09F020E0822F06
:103150000895CF92DF92EF92FF926B017C010E9463
:103160001209B701A60188E090E0FF90EF90DF9090
:10317000CF900C94612D5F926F927F928F929F926D
:10318000AF92BF92CF92DF92EF92FF920F931F9375
:10319000CF93DF9300D00F92CDB7DEB7182F762EE6
:1031A000042F622E9091270390FF29C0E92FE69506
:1031B000AE2FB0E0A95DBE4F8C91809325039E7F1A
:1031C000923081F59E012F5F3F4F812F0E94210990
:1031D0004B8169818A810E94151310932803709294
:1031E000290300932A03662051F060912703709110
:1031F00028038091290390912A030E94A9180F9017
:103200000F900F90DF91CF911F910F91FF90EF9052
:10321000DF90CF90BF90AF909F908F907F906F90F6
:103220005F900895823019F400912A03D6CF86303A
:1032300019F410912803D1CF8930D9F3893169F677
:10324000E9518E2F8170582EE695F0E0E15CFC4F3D
:10325000A590B490BB2488EBE82E81E0F82ED12C09
:10326000C12C96E1892E912CC601B4010E947E2CBE
:10327000812F511013C0860F9701402F672D0E9498
:103280002109CA0CDB1C83E0E80EF11C8AEFE8166A
:1032900081E0F80649F70E9438119FCF861BECCFDA
:1032A000E7E2F3E0438128E0421B08F440E021E03C
:1032B000628181810C94BB18E7E2F3E0438128E04E
:1032C000420F08F44FEF21E0628181810C94BB181A
:1032D000E7E2F3E0628128E0621B08F460E021E0AD
:1032E000438181810C94BB18E7E2F3E0628128E01E
:1032F000620F08F46FEF21E0438181810C94BB18C9
:10330000E7E2F3E0818121E04381628188500C94FF
:10331000BB18E7E2F3E0818121E043816281885FAD
:103320000C94BB1880912B03882319F08150809353
:103330002B036091270370912803809129039091BA
:103340002A030C94A91880912B03833018F48F5F03
:1033500080932B03609127037091280380912903A8
:1033600090912A030C94A918E7E2F3E083E08083AC
:1033700011828FEF828383831482608171818281C5
:1033800093810C94A91860912703669570E04BE037
:1033900050E084E091E00E94272D892B19F481E010
:1033A000809326030E948607909303038093020371
:1033B00008959091270390FF36C09170811129C024
:1033C000926090932703662351F0609127037091D8
:1033D00028038091290390912A030E94A9186091E3
:1033E0002703669570E04BE050E084E091E00E9496
:1033F000272D892BA9F01092260381E080930503E5
:1034000020E040912A0360912903809128030C94C5
:10341000BB188B3210F09465D4CF880F982BD1CF86
:103420000E94C319EACF089561E00C94D9196BEE9C
:103430007EEF90E080E00E946D2D60E082E090E001
:103440000E944F2D60E083E090E00E944F2D10928B
:10345000E7021092E8021092E9021092EA0260E09C
:1034600084E090E00E944F2D60E081E290E00E94B5
:103470004F2D60E085E090E00E944F2D60E086E0F7
:1034800090E00E944F2D6FEF87E090E00E944F2D5B
:1034900040E050E0BA0188E090E00E94612D60E0D9
:1034A0008DE090E00E944F2D40E050E0BA0188E1AD
:1034B00090E00E94612D60E087E190E00E944F2D36
:1034C00040E050E0BA018CE190E00E94612D60E0A4
:1034D00080E290E00E944F2D40E050E0BA0188E188
:1034E00090E00E94612DE7E2F3E0808181608083BB
:1034F00086950E94141A21E040E86FEF80E00E9458
:10350000BB188BE00E94141A40E050E0BA018FE033
:1035100090E00E94612D40E050E0BA0183E190E02C
:103520000C94612D0E949E18811102C00E94171AEE
:1035300086E090E00E943B2D80932403803220F0AF
:10354000877088618093240390912403892F817070
:1035500090FF04C0892F8695869586950C94D20895
:10356000809127038695815009F48AE261E00C94EA
:10357000D9198091270386958F5F8B3208F081E0FF
:1035800061E00C94D9199091270390FF07C096959C
:10359000981720F0961710F40C94B91A0C94141A7A
:1035A0004F925F926F927F928F929F92AF92BF9253
:1035B000CF92DF92EF92FF920F931F93CF93DF93FF
:1035C00000D000D00F92CDB7DEB77C01FC01838123
:1035D0009481892B31F08081918189238F3F09F07B
:1035E00096C50F900F900F900F900F90DF91CF9195
:1035F0001F910F91FF90EF90DF90CF90BF90AF9011
:103600009F908F907F906F905F904F9008950E9451
:10361000450E182F682F89819A810E9412086981AE
:103620007A81812F0E94A80C8C01F7019281992345
:1036300009F448C5980122513F452031310508F071
:103640002CC58FEF93E00E943B2D4EEED42ED00E72
:1036500006E213E08823D1F08091E202877009F43A
:10366000C0CFF7018281882309F4BBCF82E00E949A
:10367000440AB7CF0115F4E01F0771F3C8010E9497
:103680003B2D811101C0DA940F5F1F4FD110F2CF93
:1036900019821A821B821C82CC24CA9448012FEF03
:1036A000821A920AC8010E943B2D89831A828823BC
:1036B00099F2813009F047C0580132E0A30EB11CE5
:1036C000C4010E943B2D982E8A83882329F2C501CC
:1036D0000E943B2DD82E8FEF890D833068F458015E
:1036E00043E0A40EB11CDB82DD2021F0CE01019667
:1036F0000E946A148501D2CF54E09512FBCF580185
:1037000084E0A80EB11CC80103960E943B2DDD2069
:1037100009F4A2CF882309F49FCF8150990BC89E4A
:103720009001C99E300D1124ED2DE150FF0BCF010A
:10373000820F931F0197F0F2EFE9FFE03197F1F765
:1037400000C00000F7CFCE0101960E946A14540118
:10375000D1CF81E00E945C0A0E94050A7DCF81E002
:103760000E94210AF9CF82E0F5CF82E0F9CF83E011
:103770000E94F708809124030E94B50E6DCF80E06F
:10378000F7CF80912403982F987F79F08850809309
:103790002403887F91E009F490E08091240390FB5A
:1037A00080F9809324030E94B50E809124038695AE
:1037B000869586950E94D2084FCF80912403982F3A
:1037C000969596959695933040F49F5F990F990F33
:1037D000990F8770892B8093240380912403816043
:1037E000E0CF8091240380FF07C08E7F8093240365
:1037F0000E94B50E80E0DECF80FD2ECF81608093E9
:103800002403813019F489E08093240380912403F8
:10381000CACF90912403892F8695869586958F5FD0
:103820008F719770843048F4880F880F880F892B28
:103830008093240380912403ACCF90932403FACF88
:103840008091240381FF03C00E94BA0E05CF0E941D
:10385000D00E02CF27E245EE65EE55C426E241EEDA
:1038600060EE51C427E245EE64EE4DC426E241EE1F
:1038700062EE49C428E241E0EFCF8091FA02806114
:1038800006304CE5140709F489C08091FA0288607B
:1038900007301C4508F482C08091FA0280627EC025
:1038A0000C308CE5180709F48EC070F48091FA0290
:1038B0008C600A30ECE51E0709F470C008F47DC086
:1038C0008091FA028E7F6AC08091FA02877F0E3063
:1038D0002CE5120709F462C08091FA028B7F0F3049
:1038E0001C4508F45BC08091FA028F7E57C00B3FE5
:1038F0004CE5140709F459C030F503318CE518077D
:1039000009F46DC078F40131ECE51E0709F463C0D9
:1039100002311C4509F07FC40E9412158091FA0201
:103920008F773CC005312CE5120709F460C008F41C
:1039300074C08091FB0281600A3F1C4509F06BC492
:103940008093FB0268C40F3F5CE5150709F44BC088
:1039500088F48091FB028D7F0D3F9CE5190781F370
:103960008091FB028E7F0E3F1C4550F38091FB023D
:103970008360E6CF0130FDE51F0709F457C008F466
:1039800042C060E002301D4509F045C48EE090E081
:103990000E944F2D40C48091FA0281608093FA0208
:1039A0003AC48091FA028460F9CF8091FB02826070
:1039B000C7CF8091FA028064F1CF0E9412158091E6
:1039C000FA028068EBCF8091FA028D7FE7CF809179
:1039D000FA028F7DE3CF8091FA028F7BDFCF809157
:1039E000FA02837FDBCF8091FB028C7FA9CF80918D
:1039F000FA0282FB992790F921E0922790FB82F945
:103A000090FB83F9CBCF8091FB02982F909591701A
:103A10008E7F892B90FB81F993CF0E941215909194
:103A2000FA02892F97FB87F98058B8CF61E0AECFB3
:103A30008091E50206314CE5140709F079C38A7AD2
:103A400091E009F490E090936C02811106C089E244
:103A50000E94D2070E949807FFCD85E3F9CF85E346
:103A600088C38091270380FF1BC08E7F809327032C
:103A700060912703709128038091290390912A0374
:103A80000E94A918109226035FEF80E792E0515040
:103A900080409040E1F700C000000E943811DCCD6A
:103AA00081608093270386950E94141AD5CD40EB40
:103AB0005AE169EB7AE10E940D09CECD49EB5AE15A
:103AC00060EB7AE1F8CF40E859E169E879E1F3CFBA
:103AD00049E859E160E879E1EECF48E659E164E769
:103AE00079E1E9CF44E759E168E679E1E4CF40E5DF
:103AF00059E16CE579E1DFCF4CE559E160E579E129
:103B0000DACF42E959E163EA79E1D5CF43EA59E1F5
:103B100062E979E1D0CF81E0C7CF65E082E00E9421
:103B2000C31A9ACD68E086E0FACF6EE089E0F7CF5D
:103B300064E18FE0F4CF67E185E1F1CF88E1B4CFB4
:103B400062E289E1ECCF83E2AFCF0115ECE51E071D
:103B500009F445C00E3D1C4509F44EC0F701008133
:103B60001181992309F44BC0C8010E94450ED82E3B
:103B7000682FC8010E941208B8018D2D0E94BB0C4D
:103B80008C01882EF701D280A580A2943FE0A32269
:103B90008091E2028770A1F0CD2CDD2091F0812F81
:103BA000807F803421F080E2800F883048F082E00E
:103BB0000E94440A8091E2028770CC24C394811150
:103BC000C12CB12EB2942FE0B222FBE0FB1508F419
:103BD00050C0EB2DF0E0E050F24D0C94A62C0E946A
:103BE00012152FEF34E34CE0215030404040E1F714
:103BF00000C000000E94FC0F0E94171A2DCDC801C2
:103C00000E94EB07D82EB8CF212F2F70A22E107F45
:103C100019F0A29490EFA922DD20C9F0AA2069F042
:103C200080E2800F883010F081100BC08091E50297
:103C3000A82AA092E5020E949807802F0E942010D7
:103C400018C08091E402A82AA092E402F4CF802F49
:103C50000E940A0BAA2069F0A094005E083010F0C0
:103C6000811028C08091E502A822A092E5020E945E
:103C700098072B2D2850330B2430310510F40E9467
:103C80008908CC2009F4ADCC8091E20280FDA9CC5A
:103C9000F70112828595859585950E945C0AC7017A
:103CA0000E94D01A8091E2028595859585950E94A3
:103CB000210A97CC8091E402A822A092E402D7CFF7
:103CC000312F3F70932E107F103219F0929480EFB5
:103CD0009822882071F041E0841661F1DD20B9F16D
:103CE000AA2071F1F701858180FFA7CF8F708583AE
:103CF00027C0DD2091F09091E602892D892BA1103B
:103D000003C00E945308B5CF51E0A512FACF98170F
:103D100009F4AFCF8093E602ACCFA11006C00E9499
:103D20009207892D0E944808A4CF81E0A81609F4C3
:103D3000A0CFF5CFDD2031F095E09A1508F499CFAA
:103D4000892DDFCFE4E0EA1508F493CFEACFAA206B
:103D500041F3F9E38F1209C02FEF37EE43E0215012
:103D600030404040E1F700C00000802F0E940A0B65
:103D700080CF812F86958695837061F0813009F020
:103D800078CFC8019370D11002C090E080E00E940B
:103D90005D086FCFC8019370D11002C090E080E041
:103DA0000E94730866CF802FDD2039F00E94A90B96
:103DB0000E94B7090E94B7095CCF0E94870AFACF18
:103DC000812F837009F066C0D11053CF802F829568
:103DD00086958770880F880F602F6F70462E512C44
:103DE000712C612C082E04C0440C551C661C771CD9
:103DF0000A94D2F740E050E0BA0104FF0FC04FE050
:103E000050E060E070E004C0440F551F661F771F4C
:103E10008A95D2F74095509560957095812F86953B
:103E200086958370823019F1D8F40091E7021091E1
:103E3000E8022091E9023091EA02813069F04429D8
:103E4000552966297729CB01BA0160237123822382
:103E500093230E947D0A0DCF402A512A622A732A99
:103E6000CB01BA016429752986299729F2CF442903
:103E70005529662977290091E7021091E8022091DF
:103E8000E9023091EA02CB01BA016027712782274B
:103E90009327DFCF8695DD2011F0812F8170882355
:103EA00009F4E7CE802F829586958770880F880F5A
:103EB000602F6F70462E512C712C612C082E04C07F
:103EC000440C551C661C771C0A94D2F740E050E065
:103ED000BA0104FF0FC04FE050E060E070E004C0A2
:103EE000440F551F661F771F8A95D2F7409550954E
:103EF00060957095812F869586958370823019F133
:103F0000D8F4009158031091590320915A0330912D
:103F10005B03813069F04429552966297729CB0153
:103F2000BA0160237123822393230E94FB09A1CE4F
:103F3000402A512A622A732ACB01BA0164297529C1
:103F400086299729F2CF4429552966297729009196
:103F500058031091590320915A0330915B03CB0110
:103F6000BA016027712782279327DFCF1F70DD20DA
:103F700029F0812F0E945C0A802FC3CE802F0E94DF
:103F80004808812F0E94210A74CE802F52EF851697
:103F900009F450C0581578F090EF891619F1E1EF47
:103FA0008E1609F43FC0DD2009F467C0A11045CE8C
:103FB000812F8F713CC0F3EF8F1609F440C024EFBE
:103FC0008212F1CFDD2009F44DC01F71812F0E94B4
:103FD0005C0A58E0159FC001112483608093E202BF
:103FE000812F25C0DD20C9F034E03A1508F441CE18
:103FF0001F7161E070E080E090E004C0660F771F01
:10400000881F991F1A95D2F70091580310915903F0
:1040100020915A0330915B03A4CF45E04A1508F480
:1040200028CEE6CF812F8F71DD2009F4ABCF0E941F
:104030005C0A1FCE812F8F71DD20C9F3A3CF60E012
:1040400070E0CB01DD2009F470CF1F7161E070E0FA
:1040500080E090E004C0660F771F881F991F1A95B3
:10406000D2F763CF81E00E94440A81E08A1508F00C
:1040700000CE82E00E94440AFCCDAA2059F0893388
:1040800009F073CE9FEFE7EEF3E09150E040F0408F
:10409000E1F769CE812F8F7175CF0031FFE51F07E2
:1040A00009F457CB01312FE5120709F45CCBF80175
:1040B000EB5BFC45E730F10508F05EC0E45FF14DD5
:1040C0000C94A62C00313FE5130709F448CB0131CD
:1040D0004FE5140709F449CB033F2CE5120709F417
:1040E000BDCB90F5083D4CE5140709F4B3CB093D71
:1040F0005CE5150709F4BECB073D8CE5180781F593
:1041000026E241EE61EEC7010E94D410A5CA85E007
:10411000DE01119601900D928A95E1F7F701228157
:1041200089819A81211173CA0E94EB07182F77CADF
:104130008272F801E25CFC45E431F10508F005CD3E
:10414000ED5EF14D0C94A62C053FECE51E0709F43D
:104150008DCB08F487CB063F2CE5120709F477C016
:1041600006311C4509F0FACC80916C02811177CCA4
:1041700089E20E94C5076ECC033F3CE5130709F4B2
:104180006DCB08F058C0083D5CE5150709F462CB1B
:10419000093D8CE5180709F46DCB073DECE51E07DA
:1041A00009F4AECF1092570302302CE5120708F441
:1041B0003FCC06313CE5130738F098012A5F3C45B7
:1041C0002930310508F034CC0E946B0C9093FB022F
:1041D0008093FA0200314CE5140709F4F8CB08F09B
:1041E00086CB08308CE5180709F4E3CB08F058CBF0
:1041F0000430ECE51E0709F4D4CB08F03ECB0230C6
:104200002CE5120709F4C7CB8091FA0282600330D3
:104210001C4509F4C3CB6091FA021091FB0284E0C3
:1042200090E00E944F2D612F81E290E00E944F2D7F
:104230000E94121511CA053FFCE51F0709F416CBB1
:1042400008F410CB063F3CE5130709F0ABCF27E29B
:1042500045EE66EE58CF1F93CF93DF9380917302A4
:10426000807FA9F480917002882389F08091A50253
:10427000D091740260916E0270916F02A0917102F0
:10428000B0917202C62FC72316E0D81304C0DF9185
:10429000CF911F91089590E0109711F0CF3F19F43E
:1042A00001968770F2CF189F9001199F300D11244D
:1042B000F901EB58FD4F41814713F2CF408146137E
:1042C000EFCF42814111ECCF438154814A1B5B0BFC
:1042D000483C510528F7809173028F70806180936C
:1042E0007302F901E658FD4F80818F7080618083F1
:1042F0008EE692E00E94D01ADF91CF911F910C942C
:104300003E08AF92BF92CF92DF92EF92FF920F934F
:104310001F93CF93DF93CDB7DEB761970FB6F894B5
:10432000DEBF0FBECDBF8C0185E0F801DE011D961A
:1043300001900D928A95E1F7F80180819181E280E8
:104340002EE6A22E22E0B22E6091710270917202CE
:104350006115710509F43EC130916E0240916F0202
:10436000232F24232F3F09F435C1C380D480F0903C
:104370007002F601E61BF70BFF2009F4FBC0209149
:104380007302522F507FE83CF10508F0BBC0511179
:1043900078C0FE2C491321C038131FC0E1101DC086
:1043A0002F70206120937302C5010E94D01A809162
:1043B0007302F80185838F2D61960FB6F894DEBFE6
:1043C0000FBECDBFDF91CF911F910F91FF90EF9066
:1043D000DF90CF90BF90AF900895CD2829F0282F7F
:1043E00029232F3F09F014C120E0F22FF170DF2EB6
:1043F00020FF3DC02091A5024091740256E0241395
:1044000015C08D879E878D859E850E94870E292FDA
:1044100022952F702230F8F0243020F59F70F9F0AB
:10442000F8019581907FD9F4D12C1FC030E0529FC4
:10443000F001539FF00D1124EB58FD4F618196134D
:1044400006C06081861303C06281E61210C02F5F30
:104450003F4F2770D4CF9F7011F0882329F3805EDF
:10446000883010F3C8010E94D01AFD2CA4CFEE2092
:1044700009F4A1CF80917302816080937302F12CC3
:104480009ACF491312C0381310C0E1100EC0F801C2
:104490002583C8010E94D01A86E0F801AEE6B2E09A
:1044A00001900D928A95E1F786CF8D879E878D8545
:1044B0009E850E94910E882309F1EE20F9F08091EB
:1044C0007302803270F020916E0230916F02388753
:1044D0002F831986DB86CA868C87CE0107960E94B9
:1044E000D01A86E0F801AEE6B2E001900D928A950E
:1044F000E1F70E942B21FF24F3945DCFC8010E94B5
:10450000D01AF9CF51110AC08EE692E00E94D01A5B
:1045100086E0F50111928A95E9F7B1CF49130FC0F2
:1045200038130DC0E1100BC0F8012583C8010E94AB
:10453000D01A86E0F50111928A95E9F73CCF8D8774
:104540009E878D859E850E94910E8823B9F2EE206C
:10455000A9F280917302803220F220916E02309194
:104560006F023A8329831B82DD82CC828E83CE0147
:104570000196B5CFE83CF105E0F6FE2CEE2009F4FB
:10458000BDCF491316C0381314C08091730280FD4B
:1045900083CF982F907F09F47FCFF8018583903FD8
:1045A00009F477CF982F907F905F8F70892B858348
:1045B00070CF8D879E878D859E850E94910E81117B
:1045C00090CF80917302816080937302C8010E9432
:1045D000D01AF1CEEE2009F491CF8D879E878D857C
:1045E0009E850E94910EF82E882309F487CF86E0DD
:1045F000F801AEE6B2E001900D928A95E1F7809164
:104600006E0290916F020E94870E0E942B21D3CEE2
:1046100021E02E25EACE1F93CF93DF93CDB7DEB7EF
:1046200067970FB6F894DEBF0FBECDBF342F4B8B0C
:10463000252F5C8B6D8B7E8B8F8B8E899F89611173
:104640001092E4021A8A198A3D872E876F87998B08
:10465000888B86E0FE013D96DE01179601900D9253
:104660008A95E1F7CE0107960E948121882389F07F
:1046700016E08091A50290917402891349C0679653
:104680000FB6F894DEBF0FBECDBFDF91CF911F9163
:10469000089586E0FE013796DE01119601900D9295
:1046A0008A95E1F78A859B85892B11F38F819885FF
:1046B00089238F3FE9F22091740230E0C90101960D
:1046C000877099274091A5024817190671F40E9436
:1046D0001215109274021092A50286E0EEE6F2E046
:1046E000DF011D928A95E9F7C3CF96E0929FD00132
:1046F000939FB00D1124AB58BD4FFE013196019030
:104700000D929A95E1F7809374020E943E08B0CF13
:10471000819FC00111248B589D4F0E9481218823C5
:1047200009F4ADCF8091A50290E00196877099279A
:104730008093A5029ECF1F920F920FB60F92112465
:104740002F933F934F935F936F937F938F939F9399
:10475000AF93BF93CF93DF93EF93FF93D091E90093
:10476000DF708091EC00C82FC17080FDC0E810920E
:10477000E9008091F000877F8093F00078940E9498
:104780001D151092E9008091F00088608093F00080
:10479000CD2BCF70C093E900FF91EF91DF91CF91C6
:1047A000BF91AF919F918F917F916F915F914F9149
:1047B0003F912F910F900FBE0F901F9018951F9251
:1047C0000F920FB60F9211242F933F934F935F9345
:1047D0006F937F938F939F93AF93BF93EF93FF93C9
:1047E0008091E10082FF09C08091E20082FF05C054
:1047F0008091E1008B7F8093E1008091DA0080FF5F
:1048000024C08091D80080FF20C08091DA008E7F84
:104810008093DA008091D90080FF9BC080E189BD40
:1048200082E189BD09B400FEFDCF81E080934B0396
:1048300080913E03811109C00E94E7050E94B206E3
:104840008091E20084608093E2008091E10080FF2B
:1048500017C08091E20080FF13C08091E2008E7F3C
:104860008093E2008091E20080618093E200809179
:10487000D80080628093D80019BC85E080934B03F8
:104880008091E10084FF29C08091E20084FF25C06F
:1048900080E189BD82E189BD89B5982F917080FF43
:1048A000FBCF8091D8008F7D8093D8008091E1006C
:1048B0008F7E8093E1008091E2008F7E8093E20002
:1048C0008091E20081608093E20080914C03882314
:1048D00009F445C084E080934B038091E10083FF9D
:1048E00027C08091E20083FF23C08091E100877F91
:1048F0008093E10082E080934B0310924C038091FF
:10490000E1008E7F8093E1008091E2008E7F8093B2
:10491000E2008091E20080618093E20042E060E08A
:1049200080E00E9480068091F00088608093F00013
:10493000FF91EF91BF91AF919F918F917F916F9177
:104940005F914F913F912F910F900FBE0F901F904D
:10495000189519BC10924B0310923E0376CF8091AC
:10496000E30087FD93E090934B03B7CFCDB7DEB75D
:10497000E2970FB6F894DEBF0FBECDBF84B7877F36
:1049800084BF0FB6F894A8958091600088618093E9
:104990006000109260000FBE80E890E00FB6F894BF
:1049A00080936100909361000FBE85B7806885BFDA
:1049B00085B7806885BF82E797E09093A9018093CF
:1049C000A8010E94E7050E94B2068091E20084607F
:1049D0008093E200789480914B038823A1F010919A
:1049E000E9001F709091EC00892F817090FD80E8A4
:1049F000182B1092E9008091E80083FD0E941D159C
:104A00001F701093E90082E084BD93E095BD9AEF9A
:104A100097BD80936E0080E30E94110C81E30E9499
:104A2000110C80E90E94110C81E90E94110C82E9AD
:104A30000E94110C86E90E94110C09E811E0F801AE
:104A400081918F010E94110CF1E009391F07B9F71C
:104A5000EEEEF2E08AEF92E0ACE2B3E01192119256
:104A60001D921D928E179F07C9F70E94A3138FE313
:104A70009CE90197F1F700C000000E94A313809108
:104A80002C0380FF17C06FEF82E290E00E944F2D51
:104A90006FEF83E290E00E944F2D6FEF84E290E091
:104AA0000E944F2D6FEF7FEF90E080E00E946D2D10
:104AB0000E94FC0F0E949E18811102C00E94171ACA
:104AC000279A2F988AE08093800089E18093810063
:104AD0008FEF9FEF90938700809386000E94921A39
:104AE0008091240381FF0BC01092ED021092EC0222
:104AF0001092EB0280916F00816080936F0082E2E0
:104B000090E00E943B2D833809F0F2C583E290E0EB
:104B10000E943B2D863009F0EBC584E290E00E94B4
:104B20003B2D8D3B09F0E4C50E949E18811102C007
:104B30000E94171A82E090E00E943B2D809315039B
:104B40000E946B0C9093FB028093FA0283E090E04A
:104B50000E943B2D682F70E090E080E00E947D0A6B
:104B60000E94921A8091FC02811133C00E949E180B
:104B7000811104C00E94171A0E94B41988E090E0C5
:104B80000E94432D60932703709328038093290389
:104B900090932A036E7F71F40E94B41988E090E02C
:104BA0000E94432D60932703709328038093290369
:104BB00090932A030E9412091092260380912703E2
:104BC00080FF04C060E086950E94D91981E080933F
:104BD000FC0284E191E09093FE028093FD0258E193
:104BE000C52ED12C60E4762EBB24B394AA24A394C2
:104BF00080914B0300E112E1853009F4F6C10E9477
:104C0000A313882359F08FB7F8944091380350913B
:104C1000390360913A0370913B038FBFE6E1F3E003
:104C2000ACE2B3E010E000E0702F8D919D912191F6
:104C300031912817390709F4FBC12827392760E08B
:104C4000EE24E394F12CA9014E215F21452B09F4B8
:104C5000E9C169A77AA79C012E213F2191E0232B6E
:104C600009F490E09BA70E9486078160782F9DA79A
:104C70008CA749A55AA56BA58DA50E940B23000FF3
:104C8000111FF801EA5EFC4F80819181E826F92628
:104C9000F182E082809126038823D1F1809125035F
:104CA000E0912703E695E81BE0930403823009F0C6
:104CB000D6C1F0E0EB52F84FE4910E2F10E08FE7F1
:104CC000E82E83E1F82E80910503882361F010928D
:104CD00005030E94860790930303809302031092BA
:104CE0000703109206030E948607E0910203F091E9
:104CF00003038E1B9F0B8F3F9F4750F4E00FF11F64
:104D0000F0930303E093020382E093E0F701099537
:104D100086E0EEE0F3E0DE01119601900D928A95B7
:104D2000E1F7F0901003E09011031091120300914D
:104D30001303109210031092110310921203109299
:104D400013038F2D8E2909F448C080910C03909194
:104D50000D030E9477079C0190910B03992309F49E
:104D6000EEC423333105C8F19F3F19F09F5F909344
:104D70000B03FF2059F00E94890B9FEF1F140CF4C6
:104D800091E0899F802D112480931003EE2059F02B
:104D90000E94890B9FEF1E140CF491E0899F802DD7
:104DA000112480931103309110033323B1F020912B
:104DB0001103222391F045EB3403C0011124992300
:104DC00009F4B9C19093100345EB24039001112419
:104DD000332309F4B3C130931103812F802B09F4DD
:104DE00048C08091090390910A030E9477079C01B3
:104DF00090910803992309F49DC425363105C8F123
:104E00009F3F19F09F5F90930803112359F00E9470
:104E1000670B9FEF11160CF491E0899F802D1124F0
:104E200080931203002359F00E94670B9FEF101626
:104E30000CF491E0899F802D11248093130330910D
:104E400012033323B1F020911303222391F045EB99
:104E50003403C0011124992309F473C19093120300
:104E600045EB240390011124332309F46DC13093E1
:104E700013038091100390911103892B90911203D9
:104E8000892B90911303892B11F00E94B70986E0BA
:104E9000FE013196AEE0B3E001900D928A95E1F704
:104EA0000E94890890911403891721F00E948908B3
:104EB0008093140380914B03843009F099CE83E0F2
:104EC0008093E9008091E80082FF92CE8091E80013
:104ED00090E085FF06C00E940606882309F437C1CA
:104EE00091E08091E8008B778093E800992309F4A2
:104EF0007FCE00913C0310913D038981011511057E
:104F000009F441C18E3F09F0D4C18A81833020F079
:104F10008550833008F0CDC18A81823009F481C385
:104F200008F051C3882309F464C3813009F0C1C17A
:104F30008CE9898382E08A831B821C82BAC18091BA
:104F40004B03843009F440C080E00E94D2081092E4
:104F5000260380910103811116C0A0920103809164
:104F60002703982F9170909300038E7F80932703DF
:104F70009FEFE0E7F2E09150E040F040E1F700C041
:104F800000000E9438111092FF020FB6F894A89505
:104F9000C09260000FBE7092600083B7817F846012
:104FA00083BF83B7816083BF7894889583B78E7FF2
:104FB00083BF0FB6F894A8958091600088618093B4
:104FC0006000109260000FBE80914A03882369F050
:104FD0000E94A313ECE2F3E081919191892B09F0F7
:104FE00071C323E0E833F207B9F780914B038530B2
:104FF00009F4A5CF0E9412150E94921A0E948908F6
:105000001092010380910003882349F080912703C7
:1050100081608093270360E086950E94D9190E94E1
:10502000C319EDCD6F5FEE0CFF1C603109F00BCEA4
:105030000F5F1F4F0630110509F0F6CD8FEF8EA7D9
:105040008FA718AA0E9486078160782F9AAB89AB38
:105050004EA55FA568A98AA90E940B231BCE8630A6
:1050600059F4F0E0EE52F84FE4910E2F10E0B3E95E
:10507000EB2EB3E1FB2E27CE893061F4E695F0E00C
:10508000E153F84FE4910E2F10E0ADE6EA2EA1E1D6
:10509000FA2E19CE8F3061F4E695F0E0E453F84F24
:1050A000E4910E2F10E0F7E9EF2EF1E1FF2E0BCE89
:1050B000853159F4F0E0E753F84FE4910E2F10E0FA
:1050C000E5E0EE2EE2E1FE2EFECD08E210E053E533
:1050D000E52E52E1F52E883109F4F5CD833249F4FD
:1050E000E7ECF7E00591149176E2E72E73E1F72EF5
:1050F000EACD04EF11E04CEDE42E42E1F42E8432CF
:1051000009F4E1CD00ED17E031E7E32E37E0F32EAF
:10511000853209F0D8CD8E2F63E00E94642CE92FF0
:10512000F0E0EC53F84FE4910E2F10E06FEEE62E16
:1051300067E1F62EC8CDB092100346CEB0921103AF
:105140004CCEB09212038CCEB092130392CE00E2FA
:1051500010E0CE0101967C018091E80085FD0AC037
:105160008091E8008B778093E8000E9406068823F0
:1051700099F3B6CE8091F100F70181937F01015040
:10518000110951F7ADCE893009F483C158F5843047
:1051900009F4DFC058F4823009F471C008F0CAC0C5
:1051A000813009F468C08FEF898383C0863009F4A9
:1051B000E6C008F4D9C0873009F4E4C0883099F714
:1051C0008A81893009F43AC18A3009F446C18138AC
:1051D00009F454C108F046C1803809F06AC08091D2
:1051E0002A034BC0803109F48FC1C8F58D3009F412
:1051F0005FC128F48C30B9F680E18A835AC08E30C2
:1052000009F459C18F3079F6809112019091130100
:10521000892B09F44EC0EC80F12C4DE1E416F10429
:1052200008F047C00A811B81102701271027CE01F3
:1052300001964C01E00EF11EC8018A5D9C4FE016FC
:10524000F106B9F10A3D110520F4F40164810E94D0
:105250004F2DFFEF8F1A9F0A0F5F1F4FEDCF823147
:1052600009F457C108F453C1833109F47AC18E3F60
:1052700009F099CF51CE1A8289E08B831AC08A81B6
:10528000823009F44EC28330D9F1813009F08BCFDE
:105290002FB7F894609138037091390380913A03E5
:1052A00090913B032FBF0E94AC2C6B837C838D833A
:1052B0009E8380914B03843009F09ACC1091E900D1
:1052C0001F709091EC00892F817090FD80E8182B61
:1052D00082E08093E9008091E80080FF0DC050E0FB
:1052E00040E060E270E0CE0101960E9437068091B6
:1052F000E8008E778093E8001F701093E90078CC67
:105300008091120190911301892B99F2DE0111967F
:1053100088E393E0ECE2F3E020813181329612964B
:105320003C93129713962C93139712968E179F0700
:1053300099F7BFCF8A81823009F035CF6B817C81AC
:105340008D819E810E94AC2C85E290E00E944F2DC1
:10535000B0CF4C816B818A810E94790C9827892774
:1053600098279E838D83A5CF2D813E8132272327C9
:1053700032274C816B818A810E94F50E9ACF0E9460
:105380002A0F97CF8A81893091F08A30E9F08A819B
:10539000813871F110F5803809F08BCF20E04B8116
:1053A00060912903809128030E94BB1882CF8B81D2
:1053B000F3E08F9FC00111246FEF70E00E947E2CFC
:1053C000862F0E94F708E3CF8B81811103C00E94D2
:1053D000BA0EDDCF0E94D00EDACF823859F1833871
:1053E00009F067CF20E040912A036C818B81DCCFEC
:1053F00060E08B810E94D9199B81809127039111D4
:1054000011C08E7F80932703109226032FEF40E771
:1054100082E0215040408040E1F700C000000E943F
:10542000381147CF81608093270360E086950E9402
:10543000D9193FCF8B8180932B033BCF80912403DD
:10544000869586958695EFEF8E9FC001112463E0C7
:1054500070E00E947E2C6B832CCF80912403869574
:1054600081700BCF823891F0833809F022CF809180
:1054700028038B83809129038C831BCF8091270382
:1054800080FF02C08695F9CE80E0F7CE80912B0395
:10549000F4CE809124030E94B50E60912703709191
:1054A00028038091290390912A030E94A91801CF13
:1054B0001A828AEDE2CE0C8110E00D31110508F060
:1054C000F8CEEA80FB80FE24EF24FE24CE01019674
:1054D0004C01080F191FC7018A5D9C4F8016910669
:1054E00009F4E7CEFAEDEF16F10458F40E943B2DD3
:1054F000F4018483FFEFEF1AFF0A2FEF821A920A5A
:10550000EACFF4011482F6CF0E94E50ED2CE84E0F9
:1055100074CE0C8110E00D31110508F0CACEEA807E
:10552000FB80FE24EF24FE24CE0101964C01080FDF
:10553000191FC70186960815190509F4BACEE1149A
:10554000F3E0FF0658F40E943B2DF4018483FFEF43
:10555000EF1AFF0A2FEF821A920AEBCFF40114829E
:10556000F6CFEC80F12C4DE1E416F10408F0A1CE69
:105570000A811B81102701271027011583E01807D6
:1055800008F097CE80E093E0801B910B8E159F056D
:1055900008F48FCEFE0131964F01E00EF11EC801D6
:1055A0008696E016F10609F484CE0115F3E01F0794
:1055B00020F4F40164810E944F2DFFEF8F1A9F0A9F
:1055C0000F5F1F4FECCF863009F466C0873009F4B7
:1055D00072C0853009F06DCE4EE150E06FEF70E0A3
:1055E000CE0103960E94342D8091120189830A8393
:1055F00060CE88E0EFE1F1E0DE01919601900D923E
:105600008A95E1F783E089831A821B821C8288E0F5
:10561000FE01B196DE01159601900D928A95E1F793
:1056200048CE8C81682F70E0762F66278B81860F9D
:10563000972F911D092E000CAA0BBB0B25E0880F9C
:10564000991FAA1FBB1F2A95D1F7AC01BD01405E6F
:105650005F4F6F4F7F4F481759076A077B0708F462
:1056600028CE8C3922E09207A105B10508F021CEA1
:105670004D39E2E05E076105710520F04CE952E02A
:1056800060E070E0481B590BBC016752784FCE01B7
:1056900001960E941E2D0DCE81E090E090933D0377
:1056A00080933C0382E390E0909323038093220352
:1056B0000E948607FECD8091120189830A83809122
:1056C0002203DBCD09BD19BD09B400FEFDCF8091D9
:1056D000D8008F7D8093D8008091E0008260809315
:1056E000E0008091E00081FDFCCF0E9412157DCC8E
:1056F00060E085E290E00E944F2D0E942A0F0E94F8
:10570000E50E63E882E290E00E944F2D66E083E2BE
:1057100090E00E944F2D6DEB84E290E00E944F2DAF
:1057200003CA85E290E00E943B2D1B821C821D82F1
:105730008E83BFCD2D32314008F064CB9ACB2D3211
:10574000314008F013CB49CB78941F921FB61F92BB
:1057500011248F939F93AF93BF93809138039091BF
:105760003903A0913A03B0913B030196A11DB11DED
:105770008093380390933903A0933A03B0933B038B
:10578000BF91AF919F918F911F901FBE1F90189551
:105790001F921FB61F9211248F939F93AF93BF93B5
:1057A0008091FF02811113C08091380390913903D9
:1057B000A0913A03B0913B034196A11DB11D809386
:1057C000380390933903A0933A03B0933B03BF91FE
:1057D000AF919F918F911F901FBE1F9018951F92A0
:1057E0000F920FB60F9211242F933F934F935F9315
:1057F0006F937F938F939F93AF93BF93EF93FF9399
:105800008091EC029091ED02019668EB75E00E94A8
:105810007E2C9093ED028093EC026BE070E00E948E
:105820007E2C6F778091EB02823041F4603451F42A
:1058300080916F008E7F80936F0004C0813011F4DF
:105840006F37B1F3E62FF0E0EC5BFB4FE49121E022
:1058500031E0E29FC001E39F900D112463E070E00E
:105860000E947E2C80912403869586958695282F0C
:10587000269FC001279F900D11240E9495089093A8
:105880008D0080938C00FF91EF91BF91AF919F911C
:105890008F917F916F915F914F913F912F910F90D9
:1058A0000FBE0F901F901895DB018F939F930E945E
:1058B000A22DBF91AF91A29F800D911DA39F900D2E
:1058C000B29F900D11240895991B79E004C0991F8F
:1058D000961708F0961B881F7A95C9F7809508954A
:1058E00087FB082E062687FD819567FD61950E943E
:1058F000642C0EF4919507FC81950895AA1BBB1B9F
:1059000051E107C0AA1FBB1FA617B70710F0A61BBF
:10591000B70B881F991F5A95A9F780959095BC01E0
:10592000CD01089597FB072E16F4009407D077FD5C
:1059300009D00E947E2C07FC05D03EF490958195FD
:105940009F4F0895709561957F4F0895EE0FFF1F4B
:105950000590F491E02D0994692796276927782707
:105960008727782708950E94D72D332312F48A1BA6
:105970009B0B0C94BD2C0E94D72DB7FF0895821B62
:10598000930B08958F929F92AF92BF92CF92DF9226
:10599000EF92FF92CF93DF93EC01688179818A8146
:1059A0009B81611571058105910521F464E279ED12
:1059B0008BE597E02DE133EF41E050E00E94832D2D
:1059C00049015A019B01AC01A7EAB1E40E94A22D52
:1059D0006B017C01ACEEB4EFA50194010E94B02DE7
:1059E000DC01CB018C0D9D1DAE1DBF1DB7FF03C09B
:1059F0000197A109B04888839983AA83BB839F77C5
:105A0000DF91CF91FF90EF90DF90CF90BF90AF905C
:105A10009F908F9008950E94C22C089580E091E09D
:105A20000E94C22C0895B0E0A0E080930001909302
:105A30000101A0930201B09303010895FB01DC0171
:105A400002C005900D9241505040D8F70895FC01D6
:105A50004150504030F001900616D1F73197CF01F8
:105A60000895882799270895DC0101C06D9341505E
:105A70005040E0F70895F999FECF92BD81BDF89AA4
:105A8000992780B50895A6E1B0E044E050E00C9479
:105A9000752DA8E1B0E042E050E00C94752D262F62
:105AA000F999FECF92BD81BDF89A019700B4021614
:105AB00039F01FBA20BD0FB6F894FA9AF99A0FBEC2
:105AC00008950396272F0E94502D0E944F2D252FB9
:105AD0000E94502D242F0C94502D0196272F0E94A8
