:100000000C943F030C9486030C9486030C94860393
:100010000C9486030C9486030C9486030C9486033C
:100020000C9486030C9486030C946E120C942C177B
:100030000C94DD290C9486030C9486030C9486039F
:100040000C9486030C9486030C9486030C9486030C
:100050000C9486030C9445130C9486030C9486032D
:100060000C9486030C9486030C9486030C948603EC
:100070000C9486030C9486030C9486030C948603DC
:100080000C9486030C9486030C9486030C948603CC
:100090000C9486030C9486030C9486030C948603BC
:1000A0000C9486030C9486030C94860305010902C4
:1000B000A10185020901A100050919012905150001
:1000C00025019505750181029501750381010501E1
:1000D000093009311581257F950275088106093897
:1000E0001581257F950175088106050C0A380215D2
:1000F00081257F950175088106C0C005010980A191
:1001000001850319012AB700150126B7009501756D
:10011000108100C0050C0901A101850419012AA064
:1001200002150126A002950175108100C005010984
:1001300006A1018505050719E029E71500250195A8
:1001400008750181020507190029EF1500250195A1
:10015000F0750181020508190129059505750191C0
:1001600002950175039101C00660FF0961A10109B3
:1001700062150026FF0095207508810209631500AD
:1001800026FF00952075089102C005010906A1010E
:10019000050719E029E71500250195087501810279
:1001A0009501750881010507190029FF150026FF33
:1001B0000095067508810005081901290595057542
:1001C000019102950175039101C00000000000003B
:1001D000000000000000000000000000000000001F
:1001E00000000000000000000000000000007E0F82
:1001F00000D4FFFFFFC700000078000000000000EF
:1002000000002A2B28000000000000000000000071
:10021000000000000029000000002C1E34202122D4
:1002200024342627252E362D3738271E1F2021223D
:10023000232425263333362E37381F0405060708B6
:10024000090A0B0C0D0E0F101112131415161718A6
:10025000191A1B1C1D2F3130232D350405060708E4
:10026000090A0B0C0D0E0F10111213141516171886
:10027000191A1B1C1D2F3130354C000101010101E1
:10028000010101010202020202020202020303034F
:10029000030303030304040404040404050505051F
:1002A00005060606060607070707070808080809DF
:1002B0000909090A0A0A0B0B0B0C0C0C0D0D0D0E8B
:1002C0000E0E0F0F0F101011111112121313141420
:1002D000151516161717181819191A1A1B1B1C1D95
:1002E0001D1E1E1F202021222223242425262627EE
:1002F0002829292A2B2C2D2D2E2F30313232333420
:1003000035363738393A3B3C3D3E3F404142434425
:1003100045464748494A4C4D4E4F50515354555607
:1003200058595A5B5D5E5F616264656668696B6CB3
:100330006D6F7072737577787A7B7D7E808283852E
:1003400087888A8C8E8F91939596989A9C9EA0A26E
:10035000A3A5A7A9ABADAFB1B3B5B7BABCBEC0C278
:10036000C4C6C9CBCDCFD1D4D6D8DBDDDFE2E4E73C
:10037000E9EBEEF0F3F5F8FAFDFF165C1E001F0046
:100380002000210022002300240025002600270051
:100390002D002E002A004A002B0014001A0008002D
:1003A000150017001C0018000C00120013002F008D
:1003B000300031004B00390004001600070009002E
:1003C0000A000B000D000E000F0033003400000087
:1003D00028004E00E1001D001B000600190005006A
:1003E00011001000360037003800E5000000520010
:1003F0004D00E000E300E200000000002C000000DF
:100400000000E600000001515000000051004F00C4
:10041000165C3A003B003C003D003E003F004000BF
:10042000410042004300440045004C004A000100E6
:10043000C25CC35CC55CC65CC75CC85CC95CCA5CAA
:100440000100460047004800005C4B000100CB5C07
:10045000CC5C01000100010001000100010001006D
:10046000010001000000DE5C4E00E100010001001F
:100470000100010001000100010001000100010074
:1004800001000000A900A800010001000100000017
:100490000000010000000000010000000100AC00AD
:1004A0000000AA00AB0001000100010001000100F2
:1004B0000100010001000100010001000100010034
:1004C0000100010001000100010001000100010024
:1004D0000100010001000100010001000100010014
:1004E0000100010001000100010001000100010004
:1004F00001000100010001000100000001000100F5
:1005000001000100010001000100010001000100E3
:1005100001000100010001000000010001000100D4
:1005200001000100000000000100000000000100C7
:1005300000000100010000000100010001000100B5
:1005400001000100010001000100010001000100A3
:100550000100010001000100010001000100010093
:100560000100010001000100010001000100010083
:100570000100010001000100010001000100010073
:100580000100010001000100010001000100010063
:100590000000010001000100010001000100010054
:1005A0000100010001000100010001000100000044
:1005B0000100010001000100010000000000010035
:1005C0000000000001000000010001000000010027
:1005D000010009025B00030100A0FA090400000108
:1005E00003010100092111010001224000070581DA
:1005F0000308000A09040100020300000009211198
:1006000001000122220007058203200001070503E3
:100610000320000109040200010300000009211168
:1006200001000122BC000705840320000A1201100A
:100630000100000008424B251202000102030104E0
:10064000033000000020036B0062006400360037B6
:10065000006D006B00690069007200670062002095
:100660000076003200000010034B00420044006698
:100670000061006E007300000004030904001124EF
:100680001FBECFEFDAE0DEBFCDBF04B603FE27C04A
:100690008091550690915606A0915706B091580644
:1006A0008730904BA740B04BD1F410925506109272
:1006B0005606109257061092580614BE84B7877FCC
:1006C00084BF0FB6F894A8958091600088618093EC
:1006D0006000109260000FBEE0E0F8E3099513E0BF
:1006E000A0E0B1E0ECEDF7E502C005900D92A03975
:1006F000B107D9F726E0A0E9B3E001C01D92A53506
:10070000B207E1F70E9408220C948D2B0C94000094
:10071000E8EDF0E080818E7F80831092E2001092FD
:10072000DA001092E100A0EEB0E08C9181608C9331
:1007300080818F77808319BCA7EDB0E08C918E7F8C
:100740008C9380818F7E808310921606089520916D
:10075000E4003091E50095E6A9012091EC00822F9C
:10076000817020FF06C08091E80080FF06C080E015
:1007700008952091E80022FD1AC080913B0688234D
:1007800089F0853089F08091EB0085FD0FC02091C4
:10079000E4003091E50042175307F9F29150E1F679
:1007A00084E0089582E0089583E0089581E008954B
:1007B000EF92FF920F931F93CF937C018B010E94C6
:1007C000A703C82F811117C08091E80085FD0BC0D9
:1007D0008091E8008E778093E8000E94A703882329
:1007E00099F3C82F08C0F70181917F018093F10030
:1007F0000150110949F78C2FCF911F910F91FF9054
:10080000EF90089580913D0687FF13C08091E80026
:1008100082FF06C08091E8008B778093E80004C0D7
:1008200080913B068111F2CF089580913B06882389
:10083000D9F38091E80080FFF8CF8091E8008E77AF
:10084000ECCF982F9093E900242F762F50E0891752
:1008500031F07091EC002091ED005091F00021FDFD
:1008600007C09F5F973071F78093E90081E008959A
:100870003091EB003E7F3093EB003091ED003D7FF7
:100880003093ED003091EB0031603093EB007093CA
:10089000EC002093ED005093F0002091EE0027FD36
:1008A000E0CF80E00895CF92DF92EF92FF920F9316
:1008B0001F93CF93DF93C8EDD0E088818F7E88832C
:1008C000E7EDF0E080818160808384E082BF81E099
:1008D0008093160688818E7F888302EE10E0F801EF
:1008E00010821092DA0081EEC82ED12CF60110820F
:1008F00088818F77888388818068888388818F7DCD
:10090000888319BC10923B0610923C0610923A065E
:100910001092390690EEE92EF12CF70180818B7F41
:10092000808388818160888342E060E080E00E946B
:100930002104F60180818E7F8083F80180818160AF
:100940008083808188608083F70180818E7F8083AF
:10095000888180618883DF91CF911F910F91FF90F3
:10096000EF90DF90CF900895FC0180914306909125
:10097000440686179707A0F06115710529F4909138
:10098000E8009E779093E80090E06115710551F4BE
:10099000911108C08091E80082FF34C080E0089582
:1009A000BC01F2CF80913B068823C1F18530C1F1B3
:1009B0008091E80083FD30C08091E80082FDEACF9D
:1009C0008091E80080FFE1CF8091F3002091F20058
:1009D000382F6115710519F02830310558F091E074
:1009E0002830310509F090E02091E8002E7720931F
:1009F000E800CBCF81918093F100615071092F5FA6
:100A00003F4FE7CF80913B06882341F0853041F08E
:100A10008091E80083FFBECF81E0089582E00895D1
:100A200083E008950F931F9310E0F801EE0FFF1F6E
:100A3000E953FD4F9081905797FD9195000F111F3D
:100A4000F801E853FD4F00810052110B2003F00123
:100A5000219FF00D112408E310E0091B110997FDF7
:100A6000139540039001419F300D1124E20FF31FB5
:100A70009F01220F331F2E0F3F1F37FF02C0215847
:100A80003F4F220F232F221F330B620F1F910F9115
:100A900008950F931F93522F10E0F801EE0FFF1FE0
:100AA000E853FD4FA081A052BB0B9D015203F00102
:100AB000539FF00D1124000F111FD801A953BD4FF2
:100AC0000C910057110B40039001419F300D1124F0
:100AD0002E0F3F1F37FF02C0215C3F4F96E0359538
:100AE00027959A95E1F7620F1F910F9108950F9343
:100AF0001F93522F10E0F801EE0FFF1FE853FD4F38
:100B0000A081A052BB0B9D015203F001539FF00D39
:100B10001124000F111FD801A953BD4F0C9100578C
:100B2000110B40039001419F300D11242E0F3F1FE8
:100B300037FF02C021583F4F220F232F221F330BB4
:100B4000620F1F910F910895EF920F93972F23E05B
:100B5000029FB0011124759567956E0D792F0F9145
:100B6000EF900895322F50E0FA01EE0FFF1FE85387
:100B7000FD4F9081905297FD9195440F551FFA01BA
:100B8000E953FD4F2081231B330B290F311D97FDA6
:100B90003A95620F0895E42FF0E0EE0FFF1FE8533F
:100BA000FD4F6081621B0895E42FF0E0EE0FFF1F00
:100BB000E953FD4F6081621B0895622F0895E42F71
:100BC000F0E0EE0FFF1FE953FD4F408134EE439FED
:100BD000412D1124E82FF0E050E0445E5F4FDA0130
:100BE000A21BB1099D01B7FF03C0319521953109C1
:100BF00093E0220F331F9A95E1F7AF01421B530B8D
:100C00009A0157FD20E0582F259F212D1124822F76
:100C1000089580E008958091180608959C014FB7CB
:100C2000F8948091120690911306A0911406B09149
:100C300015064FBF821B930B089520910C012223B0
:100C4000C9F02091940527FF15C0E62FE695E6959B
:100C5000E695EE31D8F4E80FF92FF11D677021E029
:100C600030E001C0220F6A95EAF72095828128239F
:100C700022830895FC01329608962191621303C0E5
:100C8000DF0111971C92E817F907B9F70895209131
:100C90000C012223C1F02091940527FF14C0E62FF8
:100CA000E695E695E695EE31F8F4E80FF92FF11D9B
:100CB000677021E030E001C0220F6A95EAF7828177
:100CC000822B82830895FC0132962FEF30E0419110
:100CD000641751F02F3F19F4411101C0232F3F5FDA
:100CE0003630A9F72F3F09F40895820F911D27FD93
:100CF0009A95FC0162830895809185058111109277
:100D0000850508958091840590918305892B9091A4
:100D10008205892B80939203909185059923A1F0F8
:100D2000892B8093920380910C01882341F180915B
:100D3000940587FF24C08EE1E4E9F3E090E0815060
:100D400000F591110E947C06E0919605F0919705BF
:100D50003097E1F080910C01882359F0809194053F
:100D600087FF07C0809192038093930385E080936F
:100D700092030280F381E02D82E993E0099486E0FA
:100D8000DBCF21912223D9F29F5FD9CF08952FE0A5
:100D9000929F800D1124982F977086958695869541
:100DA00025E0829FF0011124E15BFA4F50E040E022
:100DB00080E0219130E0092E02C0369527950A94F3
:100DC000E2F721703327042E01C0220F0A94EAF7BC
:100DD000822B4F5F5F4F4530510559F708952FE043
:100DE000929F800D1124982F977041E001C0440F0D
:100DF0009A95EAF786958695869595E0899FF00104
:100E00001124E15BFA4F90E080E070E05191DF0146
:100E100011979B01082E02C0369527950A94E2F798
:100E2000217021952527242325272C930196853091
:100E3000910561F7089580914E0590911D059813D5
:100E400001C008958F5F8770FACF882341F08095A5
:100E5000909184058923809384050C9482060895DB
:100E6000882339F090918405982B909384050C94F5
:100E7000820608952091130530911405281739072B
:100E800071F09093140580931305E0919605F0910D
:100E90009705309721F00084F185E02D099408959D
:100EA00020911105309112052817390771F09093A0
:100EB000120580931105E0919605F0919705309702
:100EC00021F00680F781E02D09940895E0919605C0
:100ED000F0919705309721F00190F081E02D099471
:100EE00080E00895FA01811101C0FB010994833467
:100EF000910538F5880F991F880F991FFC01E45E52
:100F0000FE4F5281338180818370E181A82FB0E050
:100F100070E9879FC001112485539C4FE80FF92F7A
:100F2000F11DB4976083FC01E50FF11DB497408378
:100F3000830F911DFC01B4972083A753BC4F81E020
:100F40008C930895FF920F931F93CF93DF93182FE5
:100F5000062FF42ED0E0C0E02F2D402F612FCE01C0
:100F60000E9477072196C334D105B1F7DF91CF9165
:100F70001F910F91FF9008950C94A2070C9477078E
:100F800022E8241B08F420E0620F0895FC019B0175
:100F9000009729F480E077FF2BC080E80895AC012A
:100FA00097FF04C044275527481B590BB901640F0C
:100FB000751F37FD10C0241B350BC901A5E0880F34
:100FC000991FAA95E1F70E94D02A80E2861BF7FFBD
:100FD0000FC081950895CB0165E0880F991F6A9530
:100FE000E1F7BA01621B730B0E94D02A80E6EECFB4
:100FF0000895EF920F93CF93DF93D72FC82FC90196
:101000000E19BA010E94C607602F681B7D2F8C2F16
:10101000DF91CF910F91EF9008950F93CF93DF93CE
:10102000D72FC82FC901BA010E94C607682F600FC9
:101030007D2F8C2FDF91CF910F910895EF920F9319
:101040001F93CF93DF93D62FC72F182FC9010E19E7
:10105000010FBA010E94C607081B202F219F212DD6
:101060001124822F6D2F7C2FDF91CF911F910F9133
:10107000EF9008950F931F93CF93DF93D62FC72F31
:10108000182FC901212F201B022FBA010E94C60769
:10109000982F990F990F891B800F282F219F212DA1
:1010A0001124822F6D2F7C2FDF91CF911F910F91F3
:1010B0000895E82F86FDE0952E2F2F7086FD2F5F77
:1010C000E695E695E695E670F0E0EC5EFE4F9181E0
:1010D000929F902D212D112492959F702295207F13
:1010E000922B2081920F87FD919580E8890F0895BA
:1010F000AC018230910508F408959FEF413E8EE1E6
:10110000580740F49A0195E0369527959A95E1F7AE
:1011100098E0920F61E0E62FE90FFF27FF1F9F0184
:1011200035952795822F229FF001239FF00DF00D1A
:1011300011244E175F0738F49FEF920F961758F758
:101140008FEF860F08952F3FE9F361E0620FF6CF2E
:101150000F93CF93DF93D72FC82F47FD419588E397
:1011600090E0841B910947FD9395889FB001899F6A
:10117000700D700D1124229FC001239F900D900DC2
:101180001124860F971F0E947808982F990F890FB6
:10119000682F600F7D2F8C2FDF91CF910F910895D5
:1011A00030E020E0869F212D969F200D311D1124D7
:1011B000C9010895AF92BF92CF92DF92FF920F9331
:1011C0001F93CF93DF93362F472FE82FF0E0E65899
:1011D000FD4F71110FC0E4918E2F2E2F6E2F722FA5
:1011E000DF91CF911F910F91FF90DF90CF90BF9033
:1011F000AF900895C72FD0E02491F22E022F10E077
:1012000056E0659FC0011124EFEFF0E0BF010E949E
:10121000BC2A832F90E0880F991F35E5369FD001B7
:10122000379FB00D11248A1B9B0B982F990F980F95
:101230006F01CC1ADD0AC09ED001C19EB00DD09EB8
:10124000B00D11248B2F499FA0011124452F552744
:101250006F01C41AD50AC09EA001C19E500DD09E38
:10126000500D11245F01A91AB108AC9E6001AD9E1A
:10127000D00CBC9ED00C1124CD2CDD24EC19FD0922
:10128000E09FE001E19FD00DF09FD00D1124ED2FE4
:1012900062307105A1F050F46115710509F49ECF1B
:1012A0006130710581F0EB2F852F98CF6430710587
:1012B00069F080F06630710509F490CFF4CFE22F29
:1012C0002B2F8D2F8BCFE22F252F88CFEB2F822F27
:1012D0002D2F84CF2B2F8F2DE52F80CF7F928F92B4
:1012E0009F92AF92BF92CF92DF92EF92FF920F93B5
:1012F0001F93CF93DF935C01C0910D01CC0FCC0FF6
:1013000014E01C0FF12E143410F033E4F32E60912E
:101310005006669580914506909146060E94D00839
:10132000782ED0E0CF1590F081E0133408F080E003
:10133000DF91CF911F910F91FF90EF90DF90CF90B1
:10134000BF90AF909F908F907F900895FE01E35BD8
:10135000FC4F808190910E018923C9F1CE01880F45
:10136000991F84589D4FFC01E55BFF4F2081422F60
:101370004057550B6A01845B9F4FFC018081282FE9
:101380002052330B4901449F9001459F300D300D91
:101390001124889CC001899C900D900D1124820F0E
:1013A000931F0E947808082F60914D0670914E0699
:1013B00080914F06E72C9401A601F50109950E9442
:1013C000DA08462F282F672FCE010E94BE072196EC
:1013D000A9CFCF92DF92EF92FF920F931F93CF93FB
:1013E000DF937C01C0910D01CC0FCC0F14E01C0FDA
:1013F000D12E143410F033E4D32E6091500666954C
:1014000080914506909146060E94D008C82ED0E0F3
:10141000CD1568F081E0133408F080E0DF91CF91C2
:101420001F910F91FF90EF90DF90CF900895FE01F4
:10143000E35BFC4F808190910E01892311F1CE0175
:10144000880F991F84589D4FFC01E45BFF4F20815A
:101450002052330B855B9F4FFC0140814057550B59
:1014600060914D0670914E0680914F060C2DF7014C
:1014700009950E94DA08462F282F672FCE010E9477
:10148000BE072196C5CFDF92EF92FF920F931F9375
:10149000CF93DF937C01C0910D01CC0FCC0F14E0F2
:1014A0001C0F012F143408F003E460915006669578
:1014B000669580914506909146060E94D008D82EE8
:1014C000D0E0C01760F081E0133408F080E0DF91D5
:1014D000CF911F910F91FF90EF90DF900895FE0143
:1014E000E35BFC4F808190910E01892391F0609124
:1014F0004D0670914E0680914F062D2D4C2FF70111
:1015000009950E94DA08462F282F672FCE010E94E6
:10151000BE072196D6CF9F92AF92BF92CF92DF9215
:10152000EF92FF920F931F93CF93DF936C01C091C3
:101530000D01CC0FCC0F14E01C0FB12E143410F0A1
:1015400033E4B32E6091500666956695809145060A
:10155000909146060E94D008F82E80E48F0D0E94DC
:10156000590890E8A92EA80E8F2D0E94590820E84E
:10157000922E980ED0E0CB1580F081E0133408F065
:1015800080E0DF91CF911F910F91FF90EF90DF905E
:10159000CF90BF90AF909F900895FE01E35BFC4F0A
:1015A000808190910E018923A1F060914D06709188
:1015B0004E0680914F06EF2C0C2F292D4A2DF60157
:1015C00009950E94DA08462F282F672FCE010E9426
:1015D000BE072196D0CF9091F805803F59F48091B5
:1015E000F90587FF0DC01092F90591110BC01092FB
:1015F000F30508C0813F81F48091F90518169CF32A
:10160000992381F08091FA059091FB05892B09F0CF
:1016100064C01092F0050895823F49F497FFF0CF1F
:101620001092F8058091F9058111ECCFE0CF833F4E
:1016300019F41916ACF3E4CF2091FA05893F29F487
:101640001216F4F61092FA05DBCF8A3F19F427FF41
:10165000D7CFF8CF2091FB058B3F29F427FFD0CFC0
:101660001092FB05CDCF8C3F19F41216CCF3C8CFE6
:10167000843F31F48091F7058E7F8093F705C0CFCA
:10168000853F21F48091F7058D7FF7CF863F21F4C8
:101690008091F7058B7FF1CF873F21F48091F7058B
:1016A000877FEBCF883F21F48091F7058F7EE5CFD0
:1016B0008D3F31F4809116058E7F80931605A0CF63
:1016C0008E3F21F4809116058D7FF7CF8F3F09F073
:1016D00097CF809116058B7FF0CF089580911605E6
:1016E00080FD16C081FD16C082FD16C08091F005F8
:1016F0008823A1F0883280F428E0829FC001112461
:1017000068E270E00E94D02A862F672B39F0089596
:1017100082E0089584E0089588E0089581E00895C6
:101720008091160580FD14C081FD14C082FD16C095
:101730008091F305882381F0843180F422E3829F35
:10174000C001112464E170E00E94D02A862F089520
:101750008CE0089589E1089585E0089582E3089575
:10176000803F31F40E94900B81958093F905089594
:10177000813F19F40E94900BF8CF823F31F40E9410
:10178000900B81958093F8050895833F19F40E948A
:10179000900BF8CF893F29F40E946E0B8093FA05D5
:1017A00008958A3F21F40E946E0B8195F7CF8B3FFD
:1017B00031F40E946E0B81958093FB0508958C3F58
:1017C00019F40E946E0BF8CF843F31F48091F70535
:1017D00081608093F7050895853F21F48091F70596
:1017E0008260F7CF863F21F48091F7058460F1CFC6
:1017F000873F21F48091F7058860EBCF883F21F483
:101800008091F7058061E5CF8D3F31F48091160519
:1018100081608093160508958E3F21F4809116050E
:101820008260F7CF8F3FB9F7809116058460F1CFC2
:10183000F894E82FE295EF70F0E031A1282F2F7097
:1018400081E090E001C0880F2A95EAF7982F9095E3
:10185000932391A392A1892B82A3789408959091C8
:10186000940592FF06C0282F28712830F9F4877F4D
:10187000846093FF06C0282F28712831F1F4877EF9
:1018800084612091950520FF06C0382F38713830CB
:10189000D9F4877F816021FF06C0282F2871283165
:1018A000D1F4877E816194FD877E0895282F24716D
:1018B0002430F9F68B7F8860DCCF282F2471243107
:1018C00001F78B7E8861DDCF382F3171313019F708
:1018D0008E7F8860E0CF282F2171213121F78E7E05
:1018E0008861E1CFCF9384E090E00E94422BC82F23
:1018F00081E290E00E94422B982F8C2FCF91089587
:101900000F931F93CF93DF93843030F5653020F52C
:101910004F3010F5C42FD0E0CC0FDD1F2EE1629FB9
:10192000C00DD11D112436E9839FC00DD11D112496
:10193000CE0186960E94422B082F10E0102F002720
:10194000CE0187960E94422B9801282BC901DF9176
:10195000CF911F910F91089590E080E0F8CF462F2E
:10196000843038F4753028F46F3018F4672F0C94F5
:10197000800C90E080E00895CF93DF930E94AF0C3D
:10198000EC0182389105A9F1D8F58133910509F46C
:1019900096C048F58932910509F48AC08A9709F4FE
:1019A00095C0C11521E5D20708F0BCC0C11530E5CE
:1019B000D30708F014C1C83ED10508F09CC0C03E52
:1019C000D10560F5C83AD10508F087C0C53AD10500
:1019D00008F0FDC0C130D10509F12097F9F0C430FD
:1019E000D105E0F440C08533910509F45AC0C99788
:1019F000C1F680919405837089F0C0EED0E00EC0EE
:101A0000833E910599F170F4803E910501F1823E8B
:101A1000910539F68091940582FD21C0CE01DF91B8
:101A2000CF910895863E910561F1873E910571F150
:101A3000843E910509F0B5CF8091950581FFEECFE9
:101A400080919405C7EED0E084FD0DC0E7CF809172
:101A5000940580FD12C19091950590FFDFCFC3EEF4
:101A6000D0E084FFDBCFD0E0C0E0D8CF80919405F8
:101A700082FD06C19091950590FDBFCF84FFCECF2A
:101A8000F2CF8091940583FDDDCFC8CF809194057E
:101A900083FDF9C09091950591FFF0CFC4EED0E0A1
:101AA000BDCF8091940585FFB9CFC9E2D0E0B6CF14
:101AB0008091940585FFB2CFC5E3D0E0AFCF809190
:101AC000940586FFABCFCAE2D0E0A8CF8091940501
:101AD00086FFA4CFC1E3D0E0A1CFCF3BD10518F65C
:101AE000C85AD0E0CC0FDD1FC55DDD4F0990D8810D
:101AF000C02DD46493CFC11540E2D40758F4C1156A
:101B000081E0D80708F08ACFC03FD10508F4ABCFF9
:101B1000D06584CFC11590E4D90708F4A4CFDF7055
:101B2000D06A7CCFC11525E5D20700F5C11534E593
:101B3000D30708F08AC0C11543E5D40708F071C087
:101B4000C11582E5D80708F467C0CE0183709927D4
:101B500021E030E002C0220F331F8A95E2F7C695DC
:101B6000C69580E2C89FE001112452C0C11599E5D5
:101B7000D907A8F4C11528E5D20708F06BC0C11534
:101B800036E5D30708F06FCF8C2F0E942F0CC82F9B
:101B9000D0E0DC2FCC27CC27DF71D0623FCFC1153E
:101BA0004AE5D40708F45BC0CE01905681159042F7
:101BB00008F059CF8D2F8F710E942F0C90E0982F35
:101BC000882788279F719C012C2BE901E6CFC55AF5
:101BD000D0E0C85DDD4FC881D0E0D0641FCFCE011A
:101BE000E4E096958795EA95E1F783702C2F26958A
:101BF0002695237040E2249F90011124382B8C2FCE
:101C00008370C1E0D0E002C0CC0FDD1F8A95E2F7FF
:101C1000C22BD32BDC6802CFDC2FCC27C16FD06A5C
:101C2000FDCECE018370992721E030E002C0220F63
:101C3000331F8A95E2F7C695C69590E2C99FE001E9
:101C40001124C22BD32BDA68E9CEDC2FCC27C46F4A
:101C5000D06AE4CEDC2FCC27C06FD06ADFCE8C2FC9
:101C60008F700E942F0C34E0D695C7953A95E1F716
:101C7000CF709C2FEC01D069D1CEC9E3D0E0CECE9D
:101C8000C2EED0E0CBCEC6EED0E0C8CEBF92CF92AF
:101C9000DF92EF92FF920F931F93CF93DF938C010C
:101CA000C0905106D0905206E0905306F090540632
:101CB0008091860590918705A0918805B09189054E
:101CC000C82AD92AEA2AFB2ACFE1D0E0BC2ED701C4
:101CD000C6010C2E04C0B695A795979587950A94D2
:101CE000D2F780FD0EC0219788F7B12C8B2DDF91A4
:101CF000CF911F910F91FF90EF90DF90CF90BF9009
:101D00000895B8018C2F0E94BC0C019761F3EECFAF
:101D1000CF93DF93EC010E94460EBE01DF91CF917D
:101D20000C94BC0C0E94880E292F2F7092959F70E6
:101D300092509E3078F4E92FF0E0E157F44D0C9486
:101D4000032B803F19F020F4883E20F481E00895B1
:101D5000843FE1F380E00895883EC0F3813FD1F7EE
:101D6000F5CF822F8695869586950895CF93DF933C
:101D7000CEE7D2E060E0CE010E94602B2196C11533
:101D800084E0D807B9F7DF91CF9108951F93CF93DF
:101D9000DF93122F8430F8F46530E8F44F30D8F434
:101DA000C42FD0E0CC0FDD1F9EE1699FC00DD11D77
:101DB000112496E9899FC00DD11D1124632FCE01F6
:101DC00086960E94602B612FCE018796DF91CF917E
:101DD0001F910C94602BDF91CF911F910895AF92CA
:101DE000BF92CF92DF92EF92FF921F93CF93DF9338
:101DF0008AE7C82E83E0D82ED0E07601C0E014C078
:101E0000F50125913491412F6C2F8D2F0E94C60E24
:101E100082E0A80EB11C1F5F1F3091F78EE1E80E23
:101E2000F11CCF5FC53019F0570110E0E9CFDF5F3B
:101E300086E9C80ED11CD43001F7DF91CF911F91F4
:101E4000FF90EF90DF90CF90BF90AF900895CF9329
:101E5000DF9300D00F92CDB7DEB790913B06943060
:101E600011F589837B836A839093E9008FEF9091CA
:101E7000E800815095FD06C095ED9A95F1F70000B8
:101E80008111F5CF8091E80085FF0DC050E040E062
:101E900063E070E0CE0101960E94D8038091E800D3
:101EA0008E778093E8000F900F900F90DF91CF9185
:101EB0000895BC0184E00C94270FBC0183E00C94CE
:101EC000270F9C0184E08093E9009FEF8091E80058
:101ED000915085FD06C085ED8A95F1F700009111BE
:101EE000F5CF8091E80085FF0CC050E040E066E04F
:101EF00070E0C9010E94D8038091E8008E7780933A
:101F0000E8000895CF93DF93EC0180910C018823C2
:101F1000B1F18091940587FF32C060E284E0809344
:101F2000E9008FEF9091E800815095FD06C095ED96
:101F30009A95F1F700008111F5CF8091E80085FFB7
:101F40001BC080910C0170E050E040E0811104C0A2
:101F500050E040E068E070E0CE010E94D80380913C
:101F6000E8008E778093E80080E2FE01A9E1B6E008
:101F700001900D928A95E1F7DF91CF91089568E085
:101F800081E0CDCF81E08093E00080E28093D800B3
:101F90001092C9008FE19EE40197F1F700C00000A4
:101FA00087E090EBDC018093550690935606A09352
:101FB0005706B093580688E19CE00FB6F894A895B0
:101FC000809360000FBE90936000FFCF6BEE7EEFBA
:101FD00090E080E00E947E2B60E082E090E00E9432
:101FE000602B60E083E090E00E94602B10928605F9
:101FF00010928705109288051092890560E084E0B0
:1020000090E00E94602B60E081E290E00E94602BF3
:1020100060E085E090E00E94602B60E086E090E068
:102020000E94602B6FEF87E090E00E94602B40E001
:1020300050E0BA0188E090E00E94722B60E08DE0F1
:1020400090E00E94602B40E050E0BA0188E190E00F
:102050000E94722B60E087E190E00E94602B40E0DC
:1020600050E0BA018CE190E00E94722B60E080E2C7
:1020700090E00E94602B40E050E0BA0188E190E0DF
:102080000E94722B40E050E0BA018FE090E00E9485
:10209000722B40E050E0BA0183E190E00C94722B87
:1020A0000F931F93CF93DF93082F000FEB0114E2E0
:1020B0001093B503E6EBF3E0DE018D91819383E0AD
:1020C000E63CF807D1F724E630E041E150E065EB6B
:1020D00073E0802F0E94952A105F6096143B41F7B1
:1020E000DF91CF911F910F9108958091C9038823AB
:1020F00029F06BEC73E084E70E9450101092C90342
:102100008091CA03882329F06BE574E087E70E9479
:1021100050101092CA030895E5EBF3E06083418309
:1021200024E630E042E050E0BF01880F0C94952A8D
:10213000EF92FF920F931F93CF93DF93E82E062F1A
:1021400010E0015F1A4FF8018081882381F0F2E1ED
:102150006F9FE0011124C551DB4FF12C49916F2D88
:102160008E2D0E948C10F39482E1F812F7CFF801C3
:102170001082DF91CF911F910F91FF90EF90089502
:10218000CF93DF93C82F4BE06DEF0E948C1040E09F
:102190006AE08C2F0E948C108FE39CE90197F1F785
:1021A00000C0000040E060E08C2F0E948C1040E0F6
:1021B00061E08C2F0E948C1040E066E08C2F0E9422
:1021C0008C1040E06DEF8C2F0E948C10D0E040E02E
:1021D0006D2F8C2F0E948C10DF5FD231C1F740E051
:1021E0006D2F8C2F0E948C10DF5FD432C1F740E03E
:1021F0006D2F8C2F0E948C10DF5FD43BC1F74BE01A
:102200006DEF8C2F0E948C1041E06AE08C2F0E94B1
:102210008C1040E06DEF8C2FDF91CF910C948C10DF
:102220006F927F928F929F92AF92BF92CF92DF92E6
:10223000EF92FF920F931F93CF93DF930E94042A94
:1022400084E70E94C01087E70E94C0106CE1E62E70
:1022500061E0F62ED12CC12C72E1772EE8E08E2EB3
:10226000912CAA24A394B12C66246394F701418194
:1022700050E0CA01849702810452110BC381C452F9
:10228000DD0BF601EE0FFF1FEE0FFF1FE45EFE4FAA
:102290002081237030E0FC0197FD379643E0F595EF
:1022A000E7954A95E1F7729EA001739E500D1124A7
:1022B00045515B4FE40FF52FF11DB4010E94D02A68
:1022C000A50101C0440F8A95EAF78081842B8083A1
:1022D000F80117FD379693E0F595E7959A95E1F7A4
:1022E000729EC001739E900D112485519B4FE80F83
:1022F000F92FF11DC801B4010E94D02AA50101C027
:10230000440F8A95EAF78081842B8083FE01D7FDF4
:10231000379683E0F595E7958A95E1F7729EC001BF
:10232000739E900D112485519B4FE80FF92FF11DDD
:10233000CE01B4010E94D02AA50101C0440F8A95A4
:10234000EAF78081842B8083215F3A4FF901608214
:10235000FFEFCF1ADF0A84E0E80EF11CE3E4CE16AB
:10236000D10409F083CF60E084E70E94981061E017
:1023700087E7DF91CF911F910F91FF90EF90DF9052
:10238000CF90BF90AF909F908F907F906F900C9464
:10239000981045E050E06CE170E08CE496E00C941D
:1023A000502B90914C06937089F0811107C0946076
:1023B00090934C06109210010C94C911843110F0C6
:1023C0009C64F6CF880F880F982BF2CF08958091E8
:1023D0004C0686958695815009F483E10C94D111C1
:1023E00080914C06869586958F5F843108F081E058
:1023F0000C94D11190914C06937041F080934D064E
:1024000060934E0640934F060C94C9110895ECE476
:10241000F6E0438120E1421B08F440E081816281C3
:1024200090E00C94FA11ECE4F6E0438120E1420FD5
:1024300008F44FEF8181628190E00C94FA11ECE492
:10244000F6E0628120E1621B08F460E08181438153
:1024500090E00C94FA11ECE4F6E0628120E1620F66
:1024600008F46FEF8181438190E00C94FA11ECE461
:10247000F6E08181438162818850990B0C94FA11B6
:10248000ECE4F6E0818190E04381628108960C944F
:10249000FA11ECE4F6E0248130E1230F08F42FEF89
:1024A00024830C94C911ECE4F6E0248130E1231B71
:1024B00008F420E024830C94C911ECE4F6E081E2F6
:1024C00080838091110190911201A0911301818369
:1024D0009283A3838FE784830C94C9111F920F9278
:1024E0000FB60F9211242F933F934F935F936F93E7
:1024F0007F938F939F93AF93BF93EF93FF938091BD
:10250000E10082FF09C08091E20082FF05C0809156
:10251000E1008B7F8093E1008091DA0080FF24C08E
:102520008091D80080FF20C08091DA008E7F809358
:10253000DA008091D90080FF9BC080E189BD82E1F3
:1025400089BD09B400FEFDCF81E080933B068091F8
:102550001606811109C00E9488030E9453048091CD
:10256000E20084608093E2008091E10080FF17C068
:102570008091E20080FF13C08091E2008E7F809303
:10258000E2008091E20080618093E2008091D800B7
:1025900080628093D80019BC85E080933B068091CF
:1025A000E10084FF29C08091E20084FF25C080E122
:1025B00089BD82E189BD89B5982F917080FFFBCFDD
:1025C0008091D8008F7D8093D8008091E1008F7E2C
:1025D0008093E1008091E2008F7E8093E200809101
:1025E000E20081608093E20080913C06882309F438
:1025F00045C084E080933B068091E10083FF27C0C3
:102600008091E20083FF23C08091E100877F809367
:10261000E10082E080933B0610923C068091E1004D
:102620008E7F8093E1008091E2008E7F8093E200B4
:102630008091E20080618093E20042E060E080E00F
:102640000E9421048091F00088608093F000FF9147
:10265000EF91BF91AF919F918F917F916F915F911A
:102660004F913F912F910F900FBE0F901F90189593
:1026700019BC10923B061092160676CF8091E300AB
:1026800087FD93E090933B06B7CF78941F921FB6D7
:102690001F9211248F939F93AF93BF938091120643
:1026A00090911306A0911406B09115060196A11DF4
:1026B000B11D8093120690931306A0931406B09355
:1026C0001506BF91AF919F918F911F901FBE1F90D4
:1026D00018952FB7F8948091120690911306A09147
:1026E0001406B09115062FBF08950E9469139C012E
:1026F0009091F8058091F905982B21F03093F5051C
:102700002093F4059091FA058091FB05982B21F018
:102710003093F2052093F105E0919605F09197052D
:10272000309749F082E08093F6050480F581E02D32
:1027300086EF95E00994089590E080E00E945007AC
:1027400090E080E00E943A07109283051092820583
:102750000E94820686E0E6EFF5E0DF011D928A9591
:10276000E9F71092F3051092F005109216050C94FB
:10277000751360935106709352068093530690939D
:1027800054060C949C130F931F9360915106709103
:10279000520680915306909154068B019C0106705D
:1027A000112722273327063011052105310529F489
:1027B00068601F910F910C94B913677FFACF0F9344
:1027C0001F9341E050E060E070E004C0440F551FEB
:1027D000661F771F8A95D2F7CB01BA016095709575
:1027E00080959095009151061091520620915306C4
:1027F0003091540660237123822393231F910F91FC
:102800000C94B9139091810580958923809381055B
:10281000282F277071F4282F082E000C330B9217E5
:10282000130639F08595859585950E94DF131092E2
:10283000810508950F931F9341E050E060E070E040
:1028400004C0440F551F661F771F8A95D2F78091E9
:10285000510690915206A0915306B09154068A01F8
:102860009B01082B192B2A2B3B2BC901B8011F9167
:102870000F910C94B913609386057093870580932C
:102880008805909389050C949C131092840580917F
:102890000C01E4E9F3E0882359F08091940587FF67
:1028A00007C08EE1DF011D928A95E9F70C949C1315
:1028B00086E0F8CF1F93CF93DF93CDB7DEB7AA970B
:1028C0000FB6F894DEBF0FBECDBF8DE396E020912A
:1028D000F100DC012D93CD01B6E085349B07B9F7FB
:1028E00080913E06833009F471C0B8F4813009F458
:1028F00048C0823009F4B2C08091E80083FF3AC139
:1029000080913D0690913E069A3008F033C1E92F40
:10291000F0E0E356F44D0C94032B8A3009F48DC09B
:102920008B3009F470C0893039F780913D068132CF
:1029300019F78091410690914206009711F0029795
:10294000D9F68091E800877F8093E8008091E800C5
:1029500082FF37C09091F3008091F200029729F432
:102960008091F1008B7F813021F48091F100809380
:1029700018068091E8008B778093E8000E9402049B
:10298000BBCF80913D06813A09F0B6CF8091E80037
:10299000877F8093E8008091410690914206892BC1
:1029A00061F460E289E196E070E00E94B4048091F5
:1029B000E8008B778093E8009FCF60E090E080E0B4
:1029C000F3CF80913B068111C1CF96CF80913D0618
:1029D000813A09F091CF8091410690914206892B6E
:1029E00009F08ACF8091E800877F8093E80080918A
:1029F000E80080FFFCCF80910C018093F100809172
:102A0000E8008E77B9CF80913D06813209F074CF0E
:102A10008091410690914206892B09F06DCF8091FB
:102A2000E800877F8093E8000E94020480913F06BF
:102A300080930C010E9445145FCF80913D06813246
:102A400009F05ACF8091E800877F8093E8000E94C8
:102A5000020480914006809317064ECF80913D0678
:102A6000813A09F049CF8091E800877F8093E800A0
:102A70008091E80080FFFCCF80911706BECF8038A0
:102A800099F0823809F076C0809141068F708730C6
:102A900008F070C08093E9008091EB0085FB8827E7
:102AA00080F91092E90006C08091390690913A06AB
:102AB000911182609091E800977F9093E800809355
:102AC000F1001092F1008091E8008E77C0C1882358
:102AD00009F4ADC1823009F04DC080913F068111EB
:102AE000B1C1809141068F702FEF280F263008F07A
:102AF00041C08093E9002091EB0020FFA3C19330F7
:102B000031F48091EB0080628093EB009BC1909147
:102B1000EB0090619093EB0021E030E001C0220FC8
:102B20008A95EAF72093EA001092EA008091EB0080
:102B30008860EACF81111EC010913F061F778091F7
:102B4000E3008078812B8093E3008091E800877F09
:102B50008093E8000E9402048091E80080FFFCCF8F
:102B60008091E30080688093E30082E0111183E0AC
:102B700080933B068091E80083FF0AC08091E800C3
:102B8000877F8093E8008091EB0080628093EB0068
:102B9000AA960FB6F894DEBF0FBECDBFDF91CF91DE
:102BA0001F9108958058823028F720913F06309178
:102BB00040062C3DE3E03E07A1F583E08A838AE2EC
:102BC00089834FB7F894DE01139620E03EE051E28E
:102BD000E32FF0E050935700E49120FF03C0E2950B
:102BE000EF703F5FEF708E2F90E0EA30C0F0C79635
:102BF0008D939D932F5F243159F74FBF8091E8004B
:102C0000877F8093E8006AE270E0CE0101960E941F
:102C1000B4048091E8008B778093E800ABCFC09636
:102C2000E7CF8091410690914206432F55274330CC
:102C3000510509F44AC078F54130510509F485C0C1
:102C40008BE590E0E2EDF5E04230510509F092CFDE
:102C50002091E800277F2093E800209143063091DF
:102C600044068217930708F49C0140E021153105C2
:102C700009F070C041116EC08091E80082FDC9CF9B
:102C800080913B06882329F2853019F28091E80073
:102C900083FFF2CFBECF4132510509F447C0423223
:102CA000510509F067CF8330910508F063CFFC012F
:102CB000EE0FFF1FE059FD4F0190F081E02D835989
:102CC0009D4FDC018C9190E01DC0332721303105F0
:102CD000E9F02115310579F022303105F9F0233082
:102CE000310509F047CFEFE3F6E0E4918E2F90E055
:102CF000EFE3F6E007C0E9E7F6E0E4918E2F90E01D
:102D0000E9E7F6E0009709F435CFA2CFE7E6F6E071
:102D1000E4918E2F90E0E7E6F6E0F4CFE5E4F6E00C
:102D2000E4918E2F90E0E5E4F6E0ECCF833091055E
:102D300008F020CF880F991FFC01EA58FD4F019041
:102D4000F081E02D89E090E083CF82E190E0EDE238
:102D5000F6E07ECF80913B06882309F45ACF853078
:102D600009F457CF8091E80083FD53CF8091E800AC
:102D700082FD82CF8091E80080FF78CF9091F300B0
:102D80008091F2002115310519F08830910550F03D
:102D900041E0089709F040E08091E8008E77809349
:102DA000E80064CF44914093F100319621503109FD
:102DB0000196E8CF803809F0DDCE8091E800877F6A
:102DC0008093E80080913C068093F1007CCE8111D5
:102DD000D1CE10913F06123008F0CCCE8091E800A1
:102DE000877F8093E80010933C060E940204112321
:102DF00011F084E005C08091E30087FDFACF81E007
:102E000080933B0642E061EC81E00E94210442E2B3
:102E100061EC84E00E94210442E261EC82E00E94C5
:102E2000210442E260EC83E00E942104A3CE809161
:102E30003F06813009F09ECE81E0933009F080E0BA
:102E400080933A061092E9008091E800877F809392
:102E5000E8000E9402048ECE1F920F920FB60F92CE
:102E600011242F933F934F935F936F937F938F938F
:102E70009F93AF93BF93CF93DF93EF93FF93D09143
:102E8000E900DF708091EC00C82FC17080FDC0E8C0
:102E90001092E9008091F000877F8093F000789491
:102EA0000E945A141092E9008091F000886080938B
:102EB000F000CD2BCF70C093E900FF91EF91DF912F
:102EC000CF91BF91AF919F918F917F916F915F91C2
:102ED0004F913F912F910F900FBE0F901F9018951B
:102EE0008823B1F19CEF980F913A38F4682F82E96A
:102EF00093E00E941D060C94820690E2980F983091
:102F000088F4877021E030E0A90102C0440F551F0A
:102F10008A95E2F7CA018095909184058923809370
:102F20008405E9CF9BE5980F933020F490E080E092
:102F30000C94500798E5980F973120F490E080E0CA
:102F40000C943A07803F20F00E94EB0A0C94751312
:102F50000895CF93C82F882309F46FC08CEF8C0F8E
:102F6000813AC0F580910C01882311F1809194057C
:102F700087FF1EC0EC2FE695E695E695F0E0EE564D
:102F8000FC4F828190E04C2F477021E030E002C07E
:102F9000220F331F4A95E2F782239323892B91F066
:102FA0006C2F82E993E00E941D060E9482060AC0EF
:102FB000E4E9F3E08AE993E02191C21789F38E17DF
:102FC0009F07D1F76C2F82E993E00E944706CF91CB
:102FD0000C94820680E28C0F883068F4C77021E080
:102FE00030E001C0220FCA95EAF780918405822B58
:102FF00080938405ECCFEBE5EC0FE33040F4F0E098
:10300000E85DFD4F808190E0CF910C945007E8E59A
:10301000EC0FE73150F4F0E0EE0FFF1FE55DFD4FE0
:1030200080819181CF910C943A07C03F30F08C2F72
:103030000E94B00BCF910C947513CF9108951F93FC
:10304000CF93DF93182FD0E0C0E0893311F4C0E5AF
:10305000D0E0812F0E94A917209731F4812FDF91B2
:10306000CF911F910C9470178FE99FE00197F1F7B2
:1030700000C000002197F0CF0F931F93CF93DF93F1
:10308000C62FD42F022FFC0182818823A1F06093E8
:103090004B060E94691390934A0680934906C770B5
:1030A00081E001C0880FCA95EAF7DF91CF911F91A7
:1030B0000F910C94300780914B06681335C08091B6
:1030C000490690914A060E940E06883C910560F5DB
:1030D00010E21D0FCD17B9F080E28C0F883040F45C
:1030E000C77081E001C0880FCA95EAF70E942507E2
:1030F000183048F481E09D2F977001C0880F9A9591
:10310000EAF70E943007802F0E941F18183098F4A9
:10311000D77081E001C0880FDA95EAF7DF91CF918F
:103120001F910F910C942507C77081E001C0880F93
:10313000CA95EAF7F3CFDF91CF911F910F910895D0
:10314000AF92BF92CF92DF92EF92FF920F931F93B5
:10315000CF93DF93EC018AE0A82E2881222309F483
:103160008CC02130C9F599818A81913021F4229651
:103170000E941F1805C0923029F422960E94A917B8
:103180002196EBCF933021F422960E947017F8CF4E
:10319000943011F02196F4CF229630E020E0AE0179
:1031A0004F5F5F4F8053990B8A30910550F021504B
:1031B000310930F38FE99FE00197F1F700C000007B
:1031C000F6CFA29EB001A39E700D11249C01260F84
:1031D000371F8981EA01E3CFE22FF0E0E650FE4F8E
:1031E000B490822F86958695869590E0FC01E651F5
:1031F000FE4FE4902770F12C022E02C0F594E79464
:103200000A94E2F731E0E322FF24FC01E652FE4F8C
:10321000C490D12C022E02C0D594C7940A94E2F730
:1032200031E0C322DD24FC01E653FE4F049110E09F
:1032300002C0159507952A95E2F701701127E11450
:10324000F10419F081EE0E94A917C114D10419F0FC
:1032500086EE0E94A9178B2D0E941F18CD2819F009
:1032600086EE0E947017EF2819F081EE0E94701709
:10327000012B09F485CF8CE27BCFDF91CF911F9199
:103280000F91FF90EF90DF90CF90BF90AF90089597
:103290004F925F926F927F928F929F92AF92BF9266
:1032A000CF92DF92EF92FF920F931F93CF93DF9312
:1032B00000D000D00F92CDB7DEB77C01FC01838136
:1032C0009481892B31F08081918189238F3F09F08E
:1032D00045C50F900F900F900F900F90DF91CF91F9
:1032E0001F910F91FF90EF90DF90CF90BF90AF9024
:1032F0009F908F907F906F905F904F9008950E9465
:10330000460E182F682F89819A810E94EF066981E5
:103310007A81812F0E94AF0C8C01F7019281992351
:1033200009F411C5980122513F452031310508F0BB
:10333000E3C48FEF93E00E94422B4EEED42ED00ECA
:103340000EE712E08823D1F080918105877009F49F
:10335000C0CFF7018281882309F4BBCF82E00E94AD
:103360000214B7CF0115F4E01F0771F3C8010E94E2
:10337000422B811101C0DA940F5F1F4FD110F2CFA1
:1033800019821A821B821C82CC24CA9448012FEF16
:10339000821A920AC8010E94422B89831A828823CA
:1033A00099F2813009F047C0580132E0A30EB11CF8
:1033B000C4010E94422B982E8A83882329F2C501DA
:1033C0000E94422BD82E8FEF890D833068F458016C
:1033D00043E0A40EB11CDB82DD2021F0CE0101967A
:1033E0000E94A0188501D2CF54E09512FBCF58015E
:1033F00084E0A80EB11CC80103960E94422BDD2078
:1034000009F4A2CF882309F49FCF8150990BC89E5D
:103410009001C99E300D1124ED2DE150FF0BCF011D
:10342000820F931F0197F0F2EFE9FFE03197F1F778
:1034300000C00000F7CFCE0101960E94A0185401F1
:10344000D1CF81E00E941A140E94C3137DCF81E086
:103450000E94DF13F9CF82E0F5CF053FECE51E07B0
:1034600009F45EC008F458C0063F2CE5120709F4C1
:103470005BC0992309F483C410924B0602303CE5EB
:10348000130708F431C106314CE5140738F09801F0
:103490002A5F3C452930310508F026C10E94720C94
:1034A000909395058093940500315CE5150709F428
:1034B000EAC008F078C008309CE5190709F4D9C0C3
:1034C00008F047C00430FCE51F0709F4C6C098F5B2
:1034D00002303CE5130709F4BAC08091940582607C
:1034E00003301C4509F4B6C0609194051091950510
:1034F00084E090E00E94602B612F81E290E00E94C6
:10350000602B0E94451420CF27E245EE65EE17C4DC
:1035100026E241EE60EE13C427E245EE64EE0FC4EE
:1035200026E241EE62EE0BC427E245EE66EE07C4EA
:1035300028E241E0EBCF80919405806106305CE5A4
:10354000150709F487C008F48CC080919405806247
:1035500081C0809194058D7F0C309CE5190709F49A
:1035600079C070F4809194058C600A30FCE51F07E7
:1035700009F470C008F481C0809194058E7F6AC000
:1035800080919405877F0E303CE5130709F462C0F3
:10359000809194058B7F0F301C4508F45BC08091AF
:1035A00094058F7E57C00B3F5CE5150709F45DC09D
:1035B00030F503319CE5190709F46DC078F4013149
:1035C000FCE51F0709F463C002311C4509F08CCFEC
:1035D0000E944514809194058F773CC005313CE5ED
:1035E000130709F460C008F474C0809195058160E8
:1035F0000A3F1C4509F078CF8093950575CF0F3FA2
:103600008CE5180709F44BC088F4809195058D7FEF
:103610000D3FECE51E0781F3809195058E7F0E3FEF
:103620001C4550F3809195058360E6CF01302DE570
:10363000120709F457C008F442C060E002301D458B
:1036400009F052CF8EE090E00E94602B4DCF809128
:10365000940581608093940547CF809194058460A0
:10366000F9CF809194058860F5CF809195058260AF
:10367000C3CF809194058064EDCF0E944514809162
:1036800094058068E7CF809194058F7DE3CF80918A
:1036900094058F7BDFCF80919405837FDBCF809172
:1036A00095058C7FA9CF8091940582FB992790F98D
:1036B00021E0922790FB82F990FB83F9CBCF809198
:1036C0009505982F909591708E7F892B90FB81F9AD
:1036D00093CF0E94451490919405892F97FB87F909
:1036E0008058B8CF61E0AECF8091840506315CE5AB
:1036F000150709F052C38A7A91E009F490E090939B
:10370000150569E2811165E382E993E00E944706AD
:103710000E94820619CE80914C0691E08927809301
:103720004C06109210010E94C9110ECE47EE51E1D5
:1037300060EF71E10E94720707CE40EF51E167EE42
:1037400071E1F8CF47E352E160E472E1F3CF40E486
:1037500052E167E372E1EECF4FE152E16BE272E1D9
:10376000E9CF4BE252E16FE172E1E4CF47E052E191
:1037700063E172E1DFCF43E152E167E072E1DACF6A
:1037800043E552E169E472E1D5CF49E452E163E5F2
:1037900072E1D0CF81E00E94D111D6CD84E0FBCF81
:1037A00089E0F9CF8EE0F7CF01158CE5180709F411
:1037B00045C00E3D1C4509F44EC0F7010081118142
:1037C000992309F44BC0C8010E94460ED82E682FD9
:1037D000C8010E94EF06B8018D2D0E94BC0C8C011F
:1037E000882EF701D280A580A2943FE0A322809189
:1037F00081058770A1F0CD2CDD2091F0812F807F95
:10380000803421F080E2800F883048F082E00E940E
:103810000214809181058770CC24C3948111C12C3E
:10382000B12EB2942FE0B222FBE0FB1508F450C099
:10383000EB2DF0E0E955F44D0C94032B0E94451458
:10384000FFEF24E33CE0F15020403040E1F700C0BE
:1038500000000E94C20F0E94E60F76CDC8010E94B0
:10386000C706D82EB8CF212F2F70A22E107F19F0A7
:10387000A29490EFA922DD20C9F0AA2069F080E28D
:10388000800F883010F081100BC080918405A82A29
:10389000A09284050E948206802F0E94A91718C05A
:1038A00080918305A82AA0928305F4CF802F0E94DF
:1038B0007017AA2069F0A094005E083010F0811003
:1038C00028C080918405A822A09284050E948206C7
:1038D0002B2D2850330B2430310510F40E9466073D
:1038E000CC2009F4F6CC8091810580FDF2CCF70163
:1038F00012828595859585950E941A14C7010E94AC
:103900004819809181058595859585950E94DF13DD
:10391000E0CC80918305A822A0928305D7CF312FD8
:103920003F70932E107F103219F0929480EF9822FE
:10393000882071F041E0841661F1DD20B9F1AA2000
:1039400071F1F701858180FFA7CF8F70858327C034
:10395000DD2091F090918505892D892BA11003C060
:103960000E943007B5CF51E0A512FACF981709F49D
:10397000AFCF80938505ACCFA11006C00E947C0616
:10398000892D0E942507A4CF81E0A81609F4A0CFB5
:10399000F5CFDD2031F095E09A1508F499CF892D07
:1039A000DFCFE4E0EA1508F493CFEACFAA2041F391
:1039B000F9E38F1209C02FEF37EE43E0215030407A
:1039C0004040E1F700C00000802F0E94701780CFB8
:1039D000812F86958695837061F0813009F078CFCC
:1039E000C8019370D11002C090E080E00E943A07B5
:1039F0006FCFC8019370D11002C090E080E00E94A8
:103A0000500766CF802FDD2039F00E94B00B0E9456
:103A100075130E9475135CCF0E94EB0AFACF812FB9
:103A2000837009F066C0D11053CF802F82958695A0
:103A30008770880F880F602F6F70462E512C712C65
:103A4000612C082E04C0440C551C661C771C0A947B
:103A5000D2F740E050E0BA0104FF0FC04FE050E061
:103A600060E070E004C0440F551F661F771F8A9501
:103A7000D2F74095509560957095812F86958695E3
:103A80008370823019F1D8F4009186051091870572
:103A90002091880530918905813069F044295529A4
:103AA00066297729CB01BA016023712382239323EE
:103AB0000E943B140DCF402A512A622A732ACB015F
:103AC000BA016429752986299729F2CF44295529F5
:103AD0006629772900918605109187052091880530
:103AE00030918905CB01BA0160277127822793277E
:103AF000DFCF8695DD2011F0812F8170882309F4B6
:103B0000E7CE802F829586958770880F880F602F6B
:103B10006F70462E512C712C612C082E04C0440C61
:103B2000551C661C771C0A94D2F740E050E0BA019D
:103B300004FF0FC04FE050E060E070E004C0440FAD
:103B4000551F661F771F8A95D2F74095509560954F
:103B50007095812F869586958370823019F1D8F4FF
:103B6000009151061091520620915306309154064F
:103B7000813069F04429552966297729CB01BA019A
:103B800060237123822393230E94B913A1CE402A7C
:103B9000512A622A732ACB01BA0164297529862920
:103BA0009729F2CF44295529662977290091510692
:103BB000109152062091530630915406CB01BA0160
:103BC0006027712782279327DFCF1F70DD2029F020
:103BD000812F0E941A14802FC3CE802F0E942507A8
:103BE000812F0E94DF1374CE802F52EF851609F4C7
:103BF00050C0581578F090EF891619F1E1EF8E1644
:103C000009F43FC0DD2009F467C0A11045CE812F23
:103C10008F713CC0F3EF8F1609F440C024EF82127D
:103C2000F1CFDD2009F44DC01F71812F0E941A14BD
:103C300058E0159FC0011124836080938105812F76
:103C400025C0DD20C9F034E03A1508F441CE1F71DB
:103C500061E070E080E090E004C0660F771F881F8D
:103C6000991F1A95D2F70091510610915206209192
:103C7000530630915406A4CF45E04A1508F428CEE7
:103C8000E6CF812F8F71DD2009F4ABCF0E941A148B
:103C90001FCE812F8F71DD20C9F3A3CF60E070E0CC
:103CA000CB01DD2009F470CF1F7161E070E080E08E
:103CB00090E004C0660F771F881F991F1A95D2F7EE
:103CC00063CF81E00E94021481E08A1508F000CEE3
:103CD00082E00E940214FCCDAA2059F0893309F039
:103CE00073CE9FEFE7EEF3E09150E040F040E1F754
:103CF00069CE812F8F7175CF0031FFE51F0709F461
:103D0000A0CB01312FE5120709F4A5CB033F2CE529
:103D1000120709F4FDCB08F0A0CB083D4CE51407D1
:103D200009F4F2CB093D5CE5150709F401CC073D28
:103D30008CE5180709F09DCB26E241EE61EEC70144
:103D40000E943C1801CB00313FE5130709F47FCBFB
:103D500001314FE51407D1F682E07ACB85E0DE0130
:103D6000119601900D928A95E1F7F70122818981E0
:103D70009A812111C4CA0E94C706182FC8CA0631E9
:103D80001C4509F01ACD8091150569E2811165E3A2
:103D900082E993E00E941D06BBCC8272F801E25CCE
:103DA000FC45E431F10508F0FFCCED54F44D0C94E2
:103DB000032B1F93CF93DF9380911C05807FA9F481
:103DC00080911905882389F080914E05D0911D05B9
:103DD0006091170570911805A0911A05B0911B0507
:103DE000C62FC72316E0D81304C0DF91CF911F91CF
:103DF000089590E0109711F0CF3F19F40196877065
:103E0000F2CF189F9001199F300D1124F901E25E45
:103E1000FA4F41814713F2CF40814613EFCF4281E1
:103E20004111ECCF438154814A1B5B0B483C510547
:103E300028F780911C058F70806180931C05F90123
:103E4000ED5DFA4F80818F708061808387E195E01E
:103E50000E944819DF91CF911F910C941B07AF92DC
:103E6000BF92CF92DF92EF92FF920F931F93CF9367
:103E7000DF93CDB7DEB761970FB6F894DEBF0FBE04
:103E8000CDBF8C0185E0F801DE011D9601900D92F9
:103E90008A95E1F7F80180819181E28027E1A22EE5
:103EA00025E0B22E60911A0570911B056115710510
:103EB00009F43EC13091170540911805232F2423A2
:103EC0002F3F09F435C1C380D480F0901905F60165
:103ED000E61BF70BFF2009F4FBC020911C05522FB5
:103EE000507FE83CF10508F0BBC0511178C0FE2CB2
:103EF000491321C038131FC0E1101DC02F7020616D
:103F000020931C05C5010E94481980911C05F801E9
:103F100085838F2D61960FB6F894DEBF0FBECDBF9F
:103F2000DF91CF911F910F91FF90EF90DF90CF9095
:103F3000BF90AF900895CD2829F0282F29232F3F37
:103F400009F014C120E0F22FF170DF2E20FF3DC0F8
:103F500020914E0540911D0556E0241315C08D8714
:103F60009E878D859E850E94880E292F22952F7011
:103F70002230F8F0243020F59F70F9F0F801958197
:103F8000907FD9F4D12C1FC030E0529FF001539F95
:103F9000F00D1124E25EFA4F6181961306C0608134
:103FA000861303C06281E61210C02F5F3F4F277057
:103FB000D4CF9F7011F0882329F3805E883010F3EE
:103FC000C8010E944819FD2CA4CFEE2009F4A1CF0E
:103FD00080911C05816080931C05F12C9ACF4913B8
:103FE00012C0381310C0E1100EC0F8012583C801BB
:103FF0000E94481986E0F801A7E1B5E001900D9212
:104000008A95E1F786CF8D879E878D859E850E9454
:10401000920E882309F1EE20F9F080911C05803280
:1040200070F0209117053091180538872F83198675
:10403000DB86CA868C87CE0107960E94481986E0E7
:10404000F801A7E1B5E001900D928A95E1F70E9491
:10405000D91EFF24F3945DCFC8010E944819F9CFFF
:1040600051110AC087E195E00E94481986E0F501E8
:1040700011928A95E9F7B1CF49130FC038130DC0DB
:10408000E1100BC0F8012583C8010E94481986E0A1
:10409000F50111928A95E9F73CCF8D879E878D8532
:1040A0009E850E94920E8823B9F2EE20A9F280919B
:1040B0001C05803220F220911705309118053A83B3
:1040C00029831B82DD82CC828E83CE010196B5CFFF
:1040D000E83CF105E0F6FE2CEE2009F4BDCF4913D3
:1040E00016C0381314C080911C0580FD83CF982F13
:1040F000907F09F47FCFF8018583903F09F477CF53
:10410000982F907F905F8F70892B858370CF8D87DC
:104110009E878D859E850E94920E811190CF809101
:104120001C05816080931C05C8010E944819F1CECE
:10413000EE2009F491CF8D879E878D859E850E9404
:10414000920EF82E882309F487CF86E0F801A7E1C4
:10415000B5E001900D928A95E1F780911705909155
:1041600018050E94880E0E94D91ED3CE21E02E256C
:10417000EACE1F93CF93DF93CDB7DEB767970FB625
:10418000F894DEBF0FBECDBF342F4B8B252F5C8B39
:104190006D8B7E8B8F8B8E899F8961111092830529
:1041A0001A8A198A3D872E876F87998B888B86E0BC
:1041B000FE013D96DE01179601900D928A95E1F77A
:1041C000CE0107960E942F1F882389F016E0809168
:1041D0004E0590911D05891349C067960FB6F89456
:1041E000DEBF0FBECDBFDF91CF911F91089586E056
:1041F000FE013796DE01119601900D928A95E1F746
:104200008A859B85892B11F38F81988589238F3F20
:10421000E9F220911D0530E0C901019687709927C8
:1042200040914E054817190671F40E9445141092EA
:104230001D0510924E0586E0E7E1F5E0DF011D92D5
:104240008A95E9F7C3CF96E0929FD001939FB00D76
:104250001124A25EBA4FFE01319601900D929A95FB
:10426000E1F780931D050E941B07B0CF819FC0011D
:104270001124825E9A4F0E942F1F882309F4ADCF2C
:1042800080914E0590E001968770992780934E05A6
:104290009ECFAF92BF92CF92DF92EF92FF920F9399
:1042A0001F93CF93DF9309E512E0CAE8D5E0C12C54
:1042B000D12CEE24E394F12CF80181918F01F89434
:1042C000E82FE295EF70F0E021A18F70A70102C006
:1042D000440F551F8A95E2F7CA01922F982B91A39C
:1042E00092A18095892382A3789400C0EEE5F2E044
:1042F00030E020E0B12CA12C4191A42FA295AF7009
:10430000B0E090968C9190E04F7002C095958795A3
:104310004A95E2F780FD67C0C701022E02C0880FF0
:10432000991F0A94E2F7A82AB92A2F5F3F4F2F302E
:10433000310511F7F801319780810E94180C54E083
:10434000C51619F080EA8A95F1F788819981A81637
:10435000B90609F44BC0B982A88281E0D82AC39477
:104360002296E5E0CE12A8CFDD2009F441C081E01D
:104370008093B4030E9469139093B3038093B203B4
:104380008091B2039091B3030E940E060497A0F1AE
:1043900080918A0590918B05909309068093080679
:1043A00080918C0590918D0590930B0680930A0661
:1043B00080918E0590918F0590930D0680930C0649
:1043C000809190059091910590930F0680930E0631
:1043D0008091920590919305909311068093100619
:1043E0001092B40309C090E080E09DCF80E0B6CF8A
:1043F0008091B4038111C4CF8D2DDF91CF911F9196
:104400000F91FF90EF90DF90CF90BF90AF90089505
:10441000CDB7DEB7AE970FB6F894DEBF0FBECDBFF7
:1044200084B7877F84BF0FB6F894A8958091600009
:10443000886180936000109260000FBE80E890E079
:104440000FB6F89480936100909361000FBE85B71A
:10445000806885BF85B7806885BF89E096E09093C6
:104460009103809390030E9488030E9453048091DB
:10447000E20084608093E200789480913B06882378
:10448000A1F01091E9001F709091EC00892F8170CC
:1044900090FD80E8182B1092E9008091E80083FDE0
:1044A0000E945A141F701093E90082E084BD93E0CB
:1044B00095BD9AEF97BD80936E0080EF0E94180C17
:1044C00081EF0E94180C84EF0E94180C86EC0E9469
:1044D000180C86E60E94180C0EE512E03DE6E32E6D
:1044E00032E0F32ED8018D918D010E94180CE01658
:1044F000F106C1F710928B0510928A0510920906F9
:104500001092080610928D0510928C0510920B06E1
:1045100010920A0610928F0510928E0510920D06C9
:1045200010920C06109291051092900510920F06B1
:1045300010920E0610929305109292051092110699
:10454000109210060E944921EFEBFDE53197F1F73B
:1045500000C000000E9449218091080680FF17C01A
:104560006FEF82E290E00E94602B6FEF83E290E0B9
:104570000E94602B6FEF84E290E00E94602B6FEF4F
:104580007FEF90E080E00E947E2B0E94C20F90E0BF
:1045900080E00E944A2B8B3E9E4F11F00E94E60F56
:1045A0000E9410111092C6058FEF9FEF9093E005C7
:1045B0008093DF059093E2058093E1059093E405F5
:1045C0008093E3059093E6058093E5059093E805D5
:1045D0008093E7059093EA058093E9059093EC05B5
:1045E0008093EB059093EE058093ED05109299056D
:1045F0009093B3058093B2059093B5058093B4056D
:104600009093B7058093B6059093B9058093B8054C
:104610009093BB058093BA059093BD058093BC052C
:104620009093BF058093BE059093C1058093C0050C
:1046300090E080E00E944A2B8B3E9E4F21F00E942A
:10464000E60F0E945D1245E050E06CE170E08CE402
:1046500096E00E94322B80914C068C7F11F40E94D0
:104660005D1282E290E00E94422B813209F079C60D
:1046700083E290E00E94422B893009F072C684E206
:1046800090E00E94422B803209F06BC690E080E0FF
:104690000E944A2B8B3E9E4F11F00E94E60F82E053
:1046A00090E00E94422B8093FD050E94720C909333
:1046B00095058093940583E090E00E94422B682F3B
:1046C00070E090E080E00E943B1482E091E09093E3
:1046D00097058093960598E1292E312C20E4C22E6F
:1046E000EE24E39480913B0600E112E1853009F469
:1046F000DFC00E944921882359F08FB7F894409178
:1047000012065091130660911406709115068FBF22
:10471000A8E0B6E0EEEFF5E010E000E0602F8D904D
:104720009D90219131912815390509F449C2282518
:104730003925F12CAA24A394B12CA9014A215B218B
:10474000452B09F437C2F9A26AA38A209B2081E095
:104750008114910409F480E08BA30E9469138160A5
:10476000782F9DA38CA349A15AA16BA18DA10E9472
:10477000B920F801EE0FFF1FE250FA4F80819181BE
:10478000A826B926B182A082892871F08FE0809F87
:10479000F001819FF00D1124E458FD4FEF0DF11D44
:1047A00080818F3F09F090C0F12C909099050F2DDA
:1047B00010E0C801890D911D099764F188E090E02F
:1047C0005C01A01AB10AB80166567A4FA5018AE9C0
:1047D00095E00E94842BB8016E557A4FA50182EABC
:1047E00095E00E94842BA501440F551FB801660F68
:1047F000771F6E547A4F82EB95E00E94842BB801AC
:1048000066557A4FA5018AEA95E00E94842B9A9416
:10481000909299058091990590E0AD2DB0E09D01B1
:10482000220F331F29533D4FAA0FBB1FBD016853F1
:104830007D4F62C080913B06843049F140E060E0EA
:1048400080E00E94BC0721E02093EF0510929805BC
:104850000FB6F894A895209260000FBEC092600039
:1048600083B7817F846083BF83B7816083BF78947F
:10487000889583B78E7F83BF0FB6F894A8958091F3
:104880006000886180936000109260000FBE80918C
:104890003A06882369F00E944921E8E0F6E0819118
:1048A0009191892B09F047C536E0E231F307B9F75A
:1048B00080913B06853009F4BDCF0E9445140E94CB
:1048C00066071092EF0515CFD82EFF24F3946DCF15
:1048D00090E0FC01E756FA4FD9015C915183DB016E
:1048E0005C915187D18A880F991FFC01E756FA4FD6
:1048F000128E118E91E0842F41E0480F9F1540F3F6
:10490000809399058091C2059091C305A091C4053B
:10491000B091C5054FB7F894009112061091130697
:1049200020911406309115064FBFB901A801481B0C
:10493000590B6A0B7B0B4BA75CA76DA77EA74FB7E4
:10494000F8948090120690901306A0901406B090F0
:1049500015064FBF8092C2059092C305A092C40570
:10496000B092C50560919905E9E9F5E0462F50E060
:104970000197AF4FBF4F801B910BA20BB30B651379
:1049800036C1409399058091EF05F12C811109C042
:1049900080914C06182F1370F12E19F0F82EF69412
:1049A000F69480911001813009F44CC1882309F4F8
:1049B00033C1823009F41FC3833009F429C386E070
:1049C000E6EFF5E0DE01119601900D928A95E1F790
:1049D000F090F805B090F9051091FA050091FB05EB
:1049E0001092F8051092F9051092FA051092FB0545
:1049F0008F2D8B2909F448C08091F4059091F5051D
:104A00000E940E069C019091F305992309F4D0C4ED
:104A100023333105C8F19F3F19F09F5F9093F30551
:104A2000FF2059F00E94900B9FEF1F140CF491E0AF
:104A3000899F802D11248093F805BB2059F00E9496
:104A4000900B9FEF1B140CF491E0899F802D112493
:104A50008093F9053091F8053323B1F02091F905E1
:104A6000222391F045EB3403C0011124992309F46A
:104A7000EEC29093F80555EB2503900111243323E2
:104A800009F4E8C23093F905812F802B09F448C05E
:104A90008091F1059091F2050E940E069C01909183
:104AA000F005992309F47FC425363105C8F19F3FED
:104AB00019F09F5F9093F005112359F00E946E0B3F
:104AC0009FEF11160CF491E0899F802D11248093A3
:104AD000FA05002359F00E946E0B9FEF10160CF49C
:104AE00091E0899F802D11248093FB053091FA0578
:104AF0003323B1F02091FB05222391F065EB3603BF
:104B0000C0011124992309F4A8C29093FA0575EB0A
:104B1000270390011124332309F4A2C23093FB052B
:104B20008091F8059091F905892B9091FA05892BD0
:104B30009091FB05892B11F00E94751386E0FE0110
:104B40003196A6EFB5E001900D928A95E1F70E94AB
:104B500066079091FC05891721F00E9466078093F3
:104B6000FC0580913B06843009F0BCCD83E0809346
:104B7000E9008091E80082FFB5CD8091E80090E0E7
:104B800085FF06C00E94A703882309F46CC291E048
:104B90008091E8008B778093E800992309F4A2CDF7
:104BA000E981E150E33108F0FBC2F0E0E953F44D54
:104BB0000C94032BF394AA0CBB1C4FE0F412BDCD54
:104BC0000F5F1F4F0530110509F0A8CD8FEF8EA3A1
:104BD0008FA318A60E9469138160782F9AA789A7CE
:104BE0004EA15FA168A58AA50E94B9208BCE218D18
:104BF000328D2901712C612C84159505A605B70508
:104C000020F441505F5F3296BACE0BA51CA5200F51
:104C1000311F328F218FF6CF10920D018092450601
:104C200090924606A0924706B092480689E2E9E9CA
:104C3000F5E0A6ECB5E001900D928A95E1F7E092DF
:104C40001001BDCE80910101F81217C090914C0661
:104C500093702091000130E081E09217130609F46F
:104C600080E0817080930F0123E12F1578F0EF2D04
:104C7000F0E0E652F44D0C94032B81E0F2CF882350
:104C800031F140E060E080E00E94BC0780E01FC09E
:104C900000910D01000F000F94E0B92EB00EAB2C67
:104CA00033E43B1510F483E4A82E60914D06709117
:104CB0004E0680914F060E94DA08962E872E782E97
:104CC00010E00A1508F181E042E44B15F8F29091EA
:104CD0000D019F5F90930D01811189C182E0809346
:104CE000100180910F01811182C1FF2009F48CC154
:104CF0000E94660781FF63CE2FEF4FEF6FEF8EE1CB
:104D000090E00E94BE075BCEF801E35BFC4F808120
:104D100090910E01892331F0272D492D682DC8016E
:104D20000E94BE070F5F1F4FCCCF00910D01000FF7
:104D3000000F14E0B12EB00EAB2C53E45B1510F451
:104D4000B3E4AB2E80904E0690904F0610914D0626
:104D5000612F782D892D0E94DA08762E672E582E25
:104D600060915006610F782D892D0E94DA08962EE9
:104D7000872E482E10E00A1530F081E062E46B15B2
:104D800008F0A5CF83CFF801E35BFC4F90818091C1
:104D90000E01892359F0242D492D682D90FD03C063
:104DA000252D472D662DC8010E94BE070F5F1F4F9E
:104DB000E2CF00910D01000F000FA4E0BA2EB00E5B
:104DC0009B2C73E47B1510F4F3E49F2E80904E0629
:104DD00070904F06209150061C2D129F112D11240A
:104DE000A12E10E0091530F081E022E42B1508F027
:104DF0006ECF4CCFF801E35BFC4F808190910E01A8
:104E00008923D9F0F801EE0FFF1FE953FD4F6081B0
:104E1000A69EB0011124E5E075956795EA95E1F746
:104E200080914D06680F782D872D0E94DA08462F55
:104E3000282F672FC8010E94BE070F5F1F4FD2CFD8
:104E400000910D01000F000F44E0B42EB00EAB2C0A
:104E500033E43B1510F433E4A32E90904D061091EB
:104E60004E0680904F066091500666956695669551
:104E700080914506909146060E94D0080E945908EC
:104E8000805887FD8195880F482F582D459F412DCB
:104E90001124842F692D712F0E94DA08962E872EF7
:104EA000782E10E00A1508F068CFF801E35BFC4F9C
:104EB000808190910E01892331F0272D492D682D95
:104EC000C8010E94BE070F5F1F4FECCF8FED95E02A
:104ED0000E94430AFCCE8AE398E00E94E909F7CEDB
:104EE0008EE198E00E946E09F2CE8DED95E0F0CF54
:104EF00084ED95E0EDCF8BEC95E0EACF82EB95E089
:104F0000E7CF84EA95E0EECF88EA98E0E6CF8DE03F
:104F100098E0E3CF89EF97E0E5CF87E795E00E943F
:104F20008B0AD5CE89E495E0FACF82E195E0F7CF00
:104F300000910D01000F000F24E0922E900E892C9D
:104F400073E4791510F493E4892E2091500630E033
:104F500050E040E06FEF7FEF80E090E00E94E42AB5
:104F6000590110E0402F081530F081E092E49915C6
:104F700008F0ADCE8BCEF801E35BFC4F80819091C1
:104F80000E018923F1F02091C6052150022E000C5C
:104F9000330B27FF19C0C501609150060E94D0084D
:104FA000AC0160914D0670914E0680914F060E94B3
:104FB000C0070E94DA08462F282F672FC8010E94D9
:104FC000BE070F5F1F4FCECFF901EA53FA4F818919
:104FD00084130AC0F901EE0FFF1FEA53FA4F818DC7
:104FE000928D8A159B05C0F221503109D2CFFF2046
:104FF00009F4E5CC7DCEF092010180914C068370DE
:10500000809300010E94751083E080931001D7CC3B
:1050100040914506509146066091470670914806BA
:105020002FB7F8948091120690911306A091140660
:10503000B09115062FBF841B950BA60BB70B4A9793
:10504000A105B10508F4BBCC10921001B8CCE092D8
:10505000F80511CDE092F90517CDE092FA0557CD8C
:10506000E092FB055DCD00E210E0CE0101965C010F
:105070008091E80085FD0AC08091E8008B778093DD
:10508000E8000E94A703882399F381CD8091F10065
:10509000D5018D935D010150110951F778CD1A8228
:1050A00089E08B831AC08A81823009F473C183300E
:1050B000D9F1813009F074C02FB7F89460911206CD
:1050C0007091130680911406909115062FBF0E94CF
:1050D000092B6B837C838D839E8380913B06843078
:1050E00009F000CB1091E9001F709091EC00892F1E
:1050F000817090FD80E8182B82E08093E900809118
:10510000E80080FF0DC050E040E060E270E0CE01BA
:1051100001960E94D8038091E8008E778093E80082
:105120001F701093E900DECA80910806909109066D
:105130009827892798279C838B8380910A069091D2
:105140000B069827892798279E838D8380910C06CC
:1051500090910D0698278927982798878F838091AB
:105160000E0690910F069827892798279A87898796
:1051700080911006909111069827892798279C877F
:105180008B87ABCF8A81823059F46B817C818D8192
:105190009E810E94092B85E290E00E94602B9DCFAA
:1051A0008FEF89839ACF4C816B818A810E94800C1A
:1051B0009827892798279E838D838FCF2D813E81C5
:1051C0003227232732274C816B818A810E94C60EA9
:1051D00084CF0E94EF0E81CF80E18A837ECFEA8266
:1051E00082E85FCF0C8110E00D31110508F075CF1A
:1051F000AA80BB80BA24AB24BA24FE0131964F01A9
:105200000E0F1F1FC50182589D4F8016910609F48D
:1052100064CF32E8A31631E0B30660F40E94422B5B
:10522000D40114968C93FFEFAF1ABF0A2FEF821AA6
:10523000920AE8CFF4011482F6CFAC80B12C3DE1A4
:10524000A316B10408F049CF0A811B81102701275A
:105250001027AE014F5F5F4F4A01A00EB11EC8017B
:1052600082589D4FA016B10609F437CF023851E09D
:10527000150728F4D40114966C910E94602BBFEF9F
:105280008B1A9B0A0F5F1F4FEACF0E94B60E25CFE5
:1052900084E0A3CF0C8110E00D31110508F01DCF83
:1052A000AA80BB80BA24AB24BA24FE0131964F01F8
:1052B0000E0F1F1FC50186960815190509F40DCF9D
:1052C00038E5A31632E0B30660F40E94422BD40105
:1052D00014968C93FFEFAF1ABF0A2FEF821A920A2F
:1052E000E9CFF4011482F6CFAC80B12C3DE1A316D6
:1052F000B10408F0F2CE0A811B8110270127102784
:10530000AE014F5F5F4F4A01A00EB11EC8018696E5
:105310000A151B0509F4E1CE083552E0150728F4FB
:10532000D40114966C910E94602BBFEF8B1A9B0ADC
:105330000F5F1F4FEBCF09BD19BD09B400FEFDCFB4
:105340008091D8008F7D8093D8008091E0008260AA
:105350008093E0008091E00081FDFCCF0E94451425
:10536000A7CA60E085E290E00E94602B0E94EF0EE9
:105370000E94B60E61E282E290E00E94602B69E03A
:1053800083E290E00E94602B60E284E290E00E9461
:10539000602B7CC985E290E00E94422B1B821C821C
:1053A0001D828E839ACE2D32314008F082CBB8CB4D
:1053B0002D32314008F031CB67CB1F921FB61F92C0
:1053C00011248F939F93AF93BF9380919805811180
:1053D00013C08091120690911306A0911406B0910B
:1053E00015064196A11DB11D8093120690931306D8
:1053F000A0931406B0931506BF91AF919F918F9122
:105400001F901FBE1F9018951092B9008CE08093DA
:10541000B8000895EF92FF920F931F93CF93DF93FD
:10542000182FEB011092BC0084EA8093BC000E940C
:1054300069137C018091BC0087FF27C08091B9006F
:10544000887F883029F08091B900887F8031D9F534
:105450001093BB0084E88093BC000E9469138C0108
:105460008091BC0087FF24C02091B900287F90E084
:1054700080E02831B1F081E090E0203411F490E038
:1054800080E09195819591090CC0CF3FDC0791F2A6
:105490000E9469138E199F098C179D0758F28EEF91
:1054A0009FEFDF91CF911F910F91FF90EF900895A3
:1054B000CF3FDC07A9F20E946913801B910B8C1768
:1054C0009D0770F2ECCF8FEF9FEFEBCF0F931F9301
:1054D000CF93DF93EB018093BB0084E88093BC0003
:1054E0000E9469138C018091BC0087FF11C020913C
:1054F000B900287F81E090E0283211F490E080E04C
:10550000919581959109DF91CF911F910F91089508
:10551000CF3FDC0741F30E946913801B910B8C176E
:105520009D0708F38EEF9FEFEECFCF92DF92EF92C1
:10553000FF920F931F93CF93DF936B018A01790141
:10554000B9010E940A2AE6010C0D1D1DC017D107E2
:1055500061F424E92093BC00DF91CF911F910F915A
:10556000FF90EF90DF90CF90089597FDF2CFB701B5
:1055700089910E94662AEACFAA1BBB1B51E107C092
:10558000AA1FBB1FA617B70710F0A61BB70B881FD3
:10559000991F5A95A9F780959095BC01CD01089562
:1055A00097FB072E16F4009407D077FD09D00E94D0
:1055B000BC2A07FC05D03EF4909581959F4F089535
:1055C000709561957F4F0895052E97FB1EF400940A
:1055D0000E94FB2A57FD07D00E94102B07FC03D026
:1055E0004EF40C94FB2A50954095309521953F4FF1
:1055F0004F4F5F4F089590958095709561957F4FBF
:105600008F4F9F4F0895EE0FFF1F0590F491E02DEF
:105610000994692796276927782787277827089587
:10562000A1E21A2EAA1BBB1BFD010DC0AA1FBB1FA6
:10563000EE1FFF1FA217B307E407F50720F0A21B18
:10564000B30BE40BF50B661F771F881F991F1A9485
:1056500069F760957095809590959B01AC01BD01AF
:10566000CF010895DC01CB01FC01F999FECF06C002
:10567000F2BDE1BDF89A319600B40D924150504010
:10568000B8F70895F999FECF92BD81BDF89A992790
:1056900080B50895A8E1B0E042E050E00C94342BCE
:1056A000DC01A40FB51F4150504048F0CB01840FDE
:1056B000951F2E910E94612B41505040D0F70895C4
:1056C000262FF999FECF92BD81BDF89A019700B4BB
:1056D000021639F01FBA20BD0FB6F894FA9AF99A5B
:1056E0000FBE08950396272F0E94612B0E94602B06
:1056F000252F0E94612B242F0C94612B0196272FBC
:105700000E94612B0C94602BFB01DC0102C0019014
:105710000D9241505040D8F70895F894FFCFA10E54
:10572000A10EAA0EAA0EAC0EAA0EAA0EAA0EA10EC9
:10573000A10EB10EAA0EAA0EB10E3F156715BA152D
:105740006715BA159A15D215BA15DA16E716331C6D
:10575000331C8F1C8F1CE81C021D681C681C0F1D4D
:10576000E51DF41DF41D8B1B961B9D1BA21BA71B87
:10577000AC1BB11BB61BBB1BC01BC51BCA1BCE1B66
:10578000D01BD21BA419A419A419A419A4194F2819
:105790005328C228D328DE28E928D028D028D028AA
:1057A000D028D028EC28EF28F2281D29452948299F
:1057B0004A2974293F2648269526D9262027662778
:1057C0006B277027752778277B277E2781278427DB
:0C57D00087278A278D2792279527982786
:1057DC00FFFF0B06820F610F5D0F590F0100FF00D9
:1057EC000300FFFF003131295A1B750A009B8B7B8C
:1057FC0000AB8A7A00AA9A7900A9998900A898889E
:10580C0000A7978700A6968600A5958500A494848A
:10581C00003C4C5C002C4D5D002D3D5E002E3E4E40
:10582C000030405000314151002A3A4A0029394990
:10583C0000283848002737470026364600253556BD
:10584C00002445550034445400AC9C8C00AD9D8D17
:10585C0000AE9E8E00AF9F8F00B0A09000B1A191C2
:10586C0000324252002B3B4B01A9998901A8988820
:10587C0001A7978701A6968601A5958501A4948416
:10588C00013C4C5C012C4D5D012D3D5E012E3E4ECC
:10589C00012F3F4F013040500033435301AB8A7A04
:1058AC000128384801273747012636460125355649
:1058BC000124455501AC9C8C01AD9D8D01AE9E8E95
:1058CC0001AF9F8F01314151013242520133435399
:1058DC0000B2A281019B8B7B012B3B4B012A3A4AE4
:1058EC000134445401B1A19101B2A28101A393836B
:1058FC0000A3938300B39282818283E200E900EAE1
:10590C0000B500B600B700CD008301CC008A01922F
:10591C000194012102230224022502260227022AD5
:10592C0002B300B4006F007000F0F1F4C666F7F635
:10593C00F56730313233349796949593924022BC6C
:10594C008A016801AC00E405FD051D060001020397
:10595C000405060708090A0B0C0D0E0F1011121383
:10596C001415161718191A1B1C1D1E1F2021222373
:10597C00242526272829FF2A2B2C2D2E2F30313297
:10598C003334353637FF38393A3B3CFFFF3DFFFFA8
:10599C003EFF3F40FF414200000F001E002D003C27
:1059AC00004B005A006900780087009600A500B4EF
:1059BC0000CB00E0000410171026103510441053D3
:1059CC00106210711080108F109E10AD10BC10CE94
:1059DC0010E01006201A2029203820472056206578
:1059EC0020742083209220A120B020C920E020091F
:1059FC00302230313040304F305E306D307C308B67
:105A0C00309A30A930BD30D230E0300240154027FA
:105A1C004060409840AB40C340D240E04001040499
:105A2C000404040404040404040404010104040430
:105A3C000404040404040404040401010404040420
:105A4C000404040404040404010104040404040410
:105A5C000404040404040101010104010101010115
:00000001FF
